{
	"contracts/vesting.sol": {
		"Vesting": {
			"abi": [
				{
					"inputs": [
						{
							"internalType": "address[]",
							"name": "_beneficiaries",
							"type": "address[]"
						},
						{
							"internalType": "uint256",
							"name": "_slicePeriod",
							"type": "uint256"
						},
						{
							"internalType": "uint256",
							"name": "_cliff",
							"type": "uint256"
						},
						{
							"internalType": "uint256",
							"name": "_duration",
							"type": "uint256"
						},
						{
							"internalType": "address",
							"name": "_token",
							"type": "address"
						},
						{
							"internalType": "uint256",
							"name": "_startTime",
							"type": "uint256"
						}
					],
					"stateMutability": "nonpayable",
					"type": "constructor"
				},
				{
					"inputs": [
						{
							"internalType": "address",
							"name": "_newBeneficiary",
							"type": "address"
						},
						{
							"internalType": "uint256",
							"name": "_tokensToLock",
							"type": "uint256"
						}
					],
					"name": "addBeneficiary",
					"outputs": [],
					"stateMutability": "nonpayable",
					"type": "function"
				},
				{
					"inputs": [
						{
							"internalType": "address",
							"name": "",
							"type": "address"
						}
					],
					"name": "beneficiaries",
					"outputs": [
						{
							"internalType": "uint256",
							"name": "",
							"type": "uint256"
						}
					],
					"stateMutability": "view",
					"type": "function"
				},
				{
					"inputs": [],
					"name": "cliff",
					"outputs": [
						{
							"internalType": "uint256",
							"name": "",
							"type": "uint256"
						}
					],
					"stateMutability": "view",
					"type": "function"
				},
				{
					"inputs": [],
					"name": "duration",
					"outputs": [
						{
							"internalType": "uint256",
							"name": "",
							"type": "uint256"
						}
					],
					"stateMutability": "view",
					"type": "function"
				},
				{
					"inputs": [],
					"name": "getContractBalance",
					"outputs": [
						{
							"internalType": "uint256",
							"name": "",
							"type": "uint256"
						}
					],
					"stateMutability": "view",
					"type": "function"
				},
				{
					"inputs": [
						{
							"internalType": "address",
							"name": "",
							"type": "address"
						}
					],
					"name": "noOfVestedTokens",
					"outputs": [
						{
							"internalType": "uint256",
							"name": "",
							"type": "uint256"
						}
					],
					"stateMutability": "view",
					"type": "function"
				},
				{
					"inputs": [],
					"name": "owner",
					"outputs": [
						{
							"internalType": "address",
							"name": "",
							"type": "address"
						}
					],
					"stateMutability": "view",
					"type": "function"
				},
				{
					"inputs": [],
					"name": "release",
					"outputs": [],
					"stateMutability": "nonpayable",
					"type": "function"
				},
				{
					"inputs": [],
					"name": "slicePeriod",
					"outputs": [
						{
							"internalType": "uint256",
							"name": "",
							"type": "uint256"
						}
					],
					"stateMutability": "view",
					"type": "function"
				},
				{
					"inputs": [],
					"name": "startTime",
					"outputs": [
						{
							"internalType": "uint256",
							"name": "",
							"type": "uint256"
						}
					],
					"stateMutability": "view",
					"type": "function"
				},
				{
					"inputs": [],
					"name": "token",
					"outputs": [
						{
							"internalType": "contract IERC20",
							"name": "",
							"type": "address"
						}
					],
					"stateMutability": "view",
					"type": "function"
				},
				{
					"inputs": [],
					"name": "tokensReleased",
					"outputs": [
						{
							"internalType": "uint256",
							"name": "",
							"type": "uint256"
						}
					],
					"stateMutability": "view",
					"type": "function"
				},
				{
					"inputs": [
						{
							"internalType": "address",
							"name": "beneficiary",
							"type": "address"
						}
					],
					"name": "vestingTokens",
					"outputs": [
						{
							"internalType": "uint256",
							"name": "",
							"type": "uint256"
						}
					],
					"stateMutability": "view",
					"type": "function"
				}
			],
			"devdoc": {
				"kind": "dev",
				"methods": {},
				"version": 1
			},
			"evm": {
				"assembly": "    /* \"contracts/vesting.sol\":116:3257  contract Vesting{... */\n  mstore(0x40, 0x80)\n    /* \"contracts/vesting.sol\":432:1150  constructor(address[] memory _beneficiaries, uint _slicePeriod, uint _cliff, uint _duration, address _token, uint _startTime) {... */\n  callvalue\n  dup1\n  iszero\n  tag_1\n  jumpi\n  0x00\n  dup1\n  revert\ntag_1:\n  pop\n  mload(0x40)\n  sub(codesize, bytecodeSize)\n  dup1\n  bytecodeSize\n  dup4\n  codecopy\n  dup2\n  dup2\n  add\n  0x40\n  mstore\n  dup2\n  add\n  swap1\n  tag_2\n  swap2\n  swap1\n  tag_3\n  jump\t// in\ntag_2:\n    /* \"contracts/vesting.sol\":600:601  0 */\n  0x00\n    /* \"contracts/vesting.sol\":576:590  _beneficiaries */\n  dup7\n    /* \"contracts/vesting.sol\":576:597  _beneficiaries.length */\n  mload\n    /* \"contracts/vesting.sol\":576:601  _beneficiaries.length > 0 */\n  gt\n    /* \"contracts/vesting.sol\":568:631  require(_beneficiaries.length > 0, \"No beneficiaries provided\") */\n  tag_6\n  jumpi\n  mload(0x40)\n  0x08c379a000000000000000000000000000000000000000000000000000000000\n  dup2\n  mstore\n  0x04\n  add\n  tag_7\n  swap1\n  tag_8\n  jump\t// in\ntag_7:\n  mload(0x40)\n  dup1\n  swap2\n  sub\n  swap1\n  revert\ntag_6:\n    /* \"contracts/vesting.sol\":661:662  0 */\n  0x00\n    /* \"contracts/vesting.sol\":649:658  _duration */\n  dup4\n    /* \"contracts/vesting.sol\":649:662  _duration > 0 */\n  gt\n    /* \"contracts/vesting.sol\":641:703  require(_duration > 0, \"Duration should be greater than zero\") */\n  tag_9\n  jumpi\n  mload(0x40)\n  0x08c379a000000000000000000000000000000000000000000000000000000000\n  dup2\n  mstore\n  0x04\n  add\n  tag_10\n  swap1\n  tag_11\n  jump\t// in\ntag_10:\n  mload(0x40)\n  dup1\n  swap2\n  sub\n  swap1\n  revert\ntag_9:\n    /* \"contracts/vesting.sol\":731:740  _duration */\n  dup3\n    /* \"contracts/vesting.sol\":721:727  _cliff */\n  dup5\n    /* \"contracts/vesting.sol\":721:740  _cliff <= _duration */\n  gt\n  iszero\n    /* \"contracts/vesting.sol\":713:798  require(_cliff <= _duration, \"Cliff period should be less than or equal to duration\") */\n  tag_12\n  jumpi\n  mload(0x40)\n  0x08c379a000000000000000000000000000000000000000000000000000000000\n  dup2\n  mstore\n  0x04\n  add\n  tag_13\n  swap1\n  tag_14\n  jump\t// in\ntag_13:\n  mload(0x40)\n  dup1\n  swap2\n  sub\n  swap1\n  revert\ntag_12:\n    /* \"contracts/vesting.sol\":823:835  _slicePeriod */\n  dup5\n    /* \"contracts/vesting.sol\":809:820  slicePeriod */\n  0x00\n    /* \"contracts/vesting.sol\":809:835  slicePeriod = _slicePeriod */\n  dup2\n  swap1\n  sstore\n  pop\n    /* \"contracts/vesting.sol\":866:872  _cliff */\n  dup4\n    /* \"contracts/vesting.sol\":853:863  _startTime */\n  dup2\n    /* \"contracts/vesting.sol\":853:872  _startTime + _cliff */\n  tag_15\n  swap2\n  swap1\n  tag_16\n  jump\t// in\ntag_15:\n    /* \"contracts/vesting.sol\":845:850  cliff */\n  0x01\n    /* \"contracts/vesting.sol\":845:872  cliff = _startTime + _cliff */\n  dup2\n  swap1\n  sstore\n  pop\n    /* \"contracts/vesting.sol\":893:902  _duration */\n  dup3\n    /* \"contracts/vesting.sol\":882:890  duration */\n  0x02\n    /* \"contracts/vesting.sol\":882:902  duration = _duration */\n  dup2\n  swap1\n  sstore\n  pop\n    /* \"contracts/vesting.sol\":927:933  _token */\n  dup2\n    /* \"contracts/vesting.sol\":912:917  token */\n  0x06\n  0x00\n    /* \"contracts/vesting.sol\":912:934  token = IERC20(_token) */\n  0x0100\n  exp\n  dup2\n  sload\n  dup2\n  0xffffffffffffffffffffffffffffffffffffffff\n  mul\n  not\n  and\n  swap1\n  dup4\n  0xffffffffffffffffffffffffffffffffffffffff\n  and\n  mul\n  or\n  swap1\n  sstore\n  pop\n    /* \"contracts/vesting.sol\":952:962  msg.sender */\n  caller\n    /* \"contracts/vesting.sol\":944:949  owner */\n  0x05\n  0x00\n    /* \"contracts/vesting.sol\":944:962  owner = msg.sender */\n  0x0100\n  exp\n  dup2\n  sload\n  dup2\n  0xffffffffffffffffffffffffffffffffffffffff\n  mul\n  not\n  and\n  swap1\n  dup4\n  0xffffffffffffffffffffffffffffffffffffffff\n  and\n  mul\n  or\n  swap1\n  sstore\n  pop\n    /* \"contracts/vesting.sol\":984:994  _startTime */\n  dup1\n    /* \"contracts/vesting.sol\":972:981  startTime */\n  0x04\n    /* \"contracts/vesting.sol\":972:994  startTime = _startTime */\n  dup2\n  swap1\n  sstore\n  pop\n    /* \"contracts/vesting.sol\":1010:1016  uint i */\n  0x00\n    /* \"contracts/vesting.sol\":1005:1144  for (uint i = 0; i < _beneficiaries.length; i++) {... */\ntag_17:\n    /* \"contracts/vesting.sol\":1026:1040  _beneficiaries */\n  dup7\n    /* \"contracts/vesting.sol\":1026:1047  _beneficiaries.length */\n  mload\n    /* \"contracts/vesting.sol\":1022:1023  i */\n  dup2\n    /* \"contracts/vesting.sol\":1022:1047  i < _beneficiaries.length */\n  lt\n    /* \"contracts/vesting.sol\":1005:1144  for (uint i = 0; i < _beneficiaries.length; i++) {... */\n  iszero\n  tag_18\n  jumpi\n    /* \"contracts/vesting.sol\":1103:1108  token */\n  0x06\n  0x00\n  swap1\n  sload\n  swap1\n  0x0100\n  exp\n  swap1\n  div\n  0xffffffffffffffffffffffffffffffffffffffff\n  and\n    /* \"contracts/vesting.sol\":1103:1118  token.balanceOf */\n  0xffffffffffffffffffffffffffffffffffffffff\n  and\n  0x70a08231\n    /* \"contracts/vesting.sol\":1127:1131  this */\n  address\n    /* \"contracts/vesting.sol\":1103:1133  token.balanceOf(address(this)) */\n  mload(0x40)\n  dup3\n  0xffffffff\n  and\n  0xe0\n  shl\n  dup2\n  mstore\n  0x04\n  add\n  tag_20\n  swap2\n  swap1\n  tag_21\n  jump\t// in\ntag_20:\n  0x20\n  mload(0x40)\n  dup1\n  dup4\n  sub\n  dup2\n  dup7\n  gas\n  staticcall\n  iszero\n  dup1\n  iszero\n  tag_23\n  jumpi\n  returndatasize\n  0x00\n  dup1\n  returndatacopy\n  revert(0x00, returndatasize)\ntag_23:\n  pop\n  pop\n  pop\n  pop\n  mload(0x40)\n  returndatasize\n  not(0x1f)\n  0x1f\n  dup3\n  add\n  and\n  dup3\n  add\n  dup1\n  0x40\n  mstore\n  pop\n  dup2\n  add\n  swap1\n  tag_24\n  swap2\n  swap1\n  tag_25\n  jump\t// in\ntag_24:\n    /* \"contracts/vesting.sol\":1068:1081  beneficiaries */\n  0x07\n    /* \"contracts/vesting.sol\":1068:1100  beneficiaries[_beneficiaries[i]] */\n  0x00\n    /* \"contracts/vesting.sol\":1082:1096  _beneficiaries */\n  dup10\n    /* \"contracts/vesting.sol\":1097:1098  i */\n  dup5\n    /* \"contracts/vesting.sol\":1082:1099  _beneficiaries[i] */\n  dup2\n  mload\n  dup2\n  lt\n  tag_26\n  jumpi\n  tag_27\n  tag_28\n  jump\t// in\ntag_27:\ntag_26:\n  0x20\n  mul\n  0x20\n  add\n  add\n  mload\n    /* \"contracts/vesting.sol\":1068:1100  beneficiaries[_beneficiaries[i]] */\n  0xffffffffffffffffffffffffffffffffffffffff\n  and\n  0xffffffffffffffffffffffffffffffffffffffff\n  and\n  dup2\n  mstore\n  0x20\n  add\n  swap1\n  dup2\n  mstore\n  0x20\n  add\n  0x00\n  keccak256\n    /* \"contracts/vesting.sol\":1068:1133  beneficiaries[_beneficiaries[i]] = token.balanceOf(address(this)) */\n  dup2\n  swap1\n  sstore\n  pop\n    /* \"contracts/vesting.sol\":1049:1052  i++ */\n  dup1\n  dup1\n  tag_29\n  swap1\n  tag_30\n  jump\t// in\ntag_29:\n  swap2\n  pop\n  pop\n    /* \"contracts/vesting.sol\":1005:1144  for (uint i = 0; i < _beneficiaries.length; i++) {... */\n  jump(tag_17)\ntag_18:\n  pop\n    /* \"contracts/vesting.sol\":432:1150  constructor(address[] memory _beneficiaries, uint _slicePeriod, uint _cliff, uint _duration, address _token, uint _startTime) {... */\n  pop\n  pop\n  pop\n  pop\n  pop\n  pop\n    /* \"contracts/vesting.sol\":116:3257  contract Vesting{... */\n  jump(tag_31)\n    /* \"#utility.yul\":7:82   */\ntag_32:\n    /* \"#utility.yul\":40:46   */\n  0x00\n    /* \"#utility.yul\":73:75   */\n  0x40\n    /* \"#utility.yul\":67:76   */\n  mload\n    /* \"#utility.yul\":57:76   */\n  swap1\n  pop\n    /* \"#utility.yul\":7:82   */\n  swap1\n  jump\t// out\n    /* \"#utility.yul\":88:205   */\ntag_33:\n    /* \"#utility.yul\":197:198   */\n  0x00\n    /* \"#utility.yul\":194:195   */\n  dup1\n    /* \"#utility.yul\":187:199   */\n  revert\n    /* \"#utility.yul\":211:328   */\ntag_34:\n    /* \"#utility.yul\":320:321   */\n  0x00\n    /* \"#utility.yul\":317:318   */\n  dup1\n    /* \"#utility.yul\":310:322   */\n  revert\n    /* \"#utility.yul\":334:451   */\ntag_35:\n    /* \"#utility.yul\":443:444   */\n  0x00\n    /* \"#utility.yul\":440:441   */\n  dup1\n    /* \"#utility.yul\":433:445   */\n  revert\n    /* \"#utility.yul\":457:559   */\ntag_36:\n    /* \"#utility.yul\":498:504   */\n  0x00\n    /* \"#utility.yul\":549:551   */\n  0x1f\n    /* \"#utility.yul\":545:552   */\n  not\n    /* \"#utility.yul\":540:542   */\n  0x1f\n    /* \"#utility.yul\":533:538   */\n  dup4\n    /* \"#utility.yul\":529:543   */\n  add\n    /* \"#utility.yul\":525:553   */\n  and\n    /* \"#utility.yul\":515:553   */\n  swap1\n  pop\n    /* \"#utility.yul\":457:559   */\n  swap2\n  swap1\n  pop\n  jump\t// out\n    /* \"#utility.yul\":565:745   */\ntag_37:\n    /* \"#utility.yul\":613:690   */\n  0x4e487b7100000000000000000000000000000000000000000000000000000000\n    /* \"#utility.yul\":610:611   */\n  0x00\n    /* \"#utility.yul\":603:691   */\n  mstore\n    /* \"#utility.yul\":710:714   */\n  0x41\n    /* \"#utility.yul\":707:708   */\n  0x04\n    /* \"#utility.yul\":700:715   */\n  mstore\n    /* \"#utility.yul\":734:738   */\n  0x24\n    /* \"#utility.yul\":731:732   */\n  0x00\n    /* \"#utility.yul\":724:739   */\n  revert\n    /* \"#utility.yul\":751:1032   */\ntag_38:\n    /* \"#utility.yul\":834:861   */\n  tag_68\n    /* \"#utility.yul\":856:860   */\n  dup3\n    /* \"#utility.yul\":834:861   */\n  tag_36\n  jump\t// in\ntag_68:\n    /* \"#utility.yul\":826:832   */\n  dup2\n    /* \"#utility.yul\":822:862   */\n  add\n    /* \"#utility.yul\":964:970   */\n  dup2\n    /* \"#utility.yul\":952:962   */\n  dup2\n    /* \"#utility.yul\":949:971   */\n  lt\n    /* \"#utility.yul\":928:946   */\n  0xffffffffffffffff\n    /* \"#utility.yul\":916:926   */\n  dup3\n    /* \"#utility.yul\":913:947   */\n  gt\n    /* \"#utility.yul\":910:972   */\n  or\n    /* \"#utility.yul\":907:995   */\n  iszero\n  tag_69\n  jumpi\n    /* \"#utility.yul\":975:993   */\n  tag_70\n  tag_37\n  jump\t// in\ntag_70:\n    /* \"#utility.yul\":907:995   */\ntag_69:\n    /* \"#utility.yul\":1015:1025   */\n  dup1\n    /* \"#utility.yul\":1011:1013   */\n  0x40\n    /* \"#utility.yul\":1004:1026   */\n  mstore\n    /* \"#utility.yul\":794:1032   */\n  pop\n    /* \"#utility.yul\":751:1032   */\n  pop\n  pop\n  jump\t// out\n    /* \"#utility.yul\":1038:1167   */\ntag_39:\n    /* \"#utility.yul\":1072:1078   */\n  0x00\n    /* \"#utility.yul\":1099:1119   */\n  tag_72\n  tag_32\n  jump\t// in\ntag_72:\n    /* \"#utility.yul\":1089:1119   */\n  swap1\n  pop\n    /* \"#utility.yul\":1128:1161   */\n  tag_73\n    /* \"#utility.yul\":1156:1160   */\n  dup3\n    /* \"#utility.yul\":1148:1154   */\n  dup3\n    /* \"#utility.yul\":1128:1161   */\n  tag_38\n  jump\t// in\ntag_73:\n    /* \"#utility.yul\":1038:1167   */\n  swap2\n  swap1\n  pop\n  jump\t// out\n    /* \"#utility.yul\":1173:1484   */\ntag_40:\n    /* \"#utility.yul\":1250:1254   */\n  0x00\n    /* \"#utility.yul\":1340:1358   */\n  0xffffffffffffffff\n    /* \"#utility.yul\":1332:1338   */\n  dup3\n    /* \"#utility.yul\":1329:1359   */\n  gt\n    /* \"#utility.yul\":1326:1382   */\n  iszero\n  tag_75\n  jumpi\n    /* \"#utility.yul\":1362:1380   */\n  tag_76\n  tag_37\n  jump\t// in\ntag_76:\n    /* \"#utility.yul\":1326:1382   */\ntag_75:\n    /* \"#utility.yul\":1412:1416   */\n  0x20\n    /* \"#utility.yul\":1404:1410   */\n  dup3\n    /* \"#utility.yul\":1400:1417   */\n  mul\n    /* \"#utility.yul\":1392:1417   */\n  swap1\n  pop\n    /* \"#utility.yul\":1472:1476   */\n  0x20\n    /* \"#utility.yul\":1466:1470   */\n  dup2\n    /* \"#utility.yul\":1462:1477   */\n  add\n    /* \"#utility.yul\":1454:1477   */\n  swap1\n  pop\n    /* \"#utility.yul\":1173:1484   */\n  swap2\n  swap1\n  pop\n  jump\t// out\n    /* \"#utility.yul\":1490:1607   */\ntag_41:\n    /* \"#utility.yul\":1599:1600   */\n  0x00\n    /* \"#utility.yul\":1596:1597   */\n  dup1\n    /* \"#utility.yul\":1589:1601   */\n  revert\n    /* \"#utility.yul\":1613:1739   */\ntag_42:\n    /* \"#utility.yul\":1650:1657   */\n  0x00\n    /* \"#utility.yul\":1690:1732   */\n  0xffffffffffffffffffffffffffffffffffffffff\n    /* \"#utility.yul\":1683:1688   */\n  dup3\n    /* \"#utility.yul\":1679:1733   */\n  and\n    /* \"#utility.yul\":1668:1733   */\n  swap1\n  pop\n    /* \"#utility.yul\":1613:1739   */\n  swap2\n  swap1\n  pop\n  jump\t// out\n    /* \"#utility.yul\":1745:1841   */\ntag_43:\n    /* \"#utility.yul\":1782:1789   */\n  0x00\n    /* \"#utility.yul\":1811:1835   */\n  tag_80\n    /* \"#utility.yul\":1829:1834   */\n  dup3\n    /* \"#utility.yul\":1811:1835   */\n  tag_42\n  jump\t// in\ntag_80:\n    /* \"#utility.yul\":1800:1835   */\n  swap1\n  pop\n    /* \"#utility.yul\":1745:1841   */\n  swap2\n  swap1\n  pop\n  jump\t// out\n    /* \"#utility.yul\":1847:1969   */\ntag_44:\n    /* \"#utility.yul\":1920:1944   */\n  tag_82\n    /* \"#utility.yul\":1938:1943   */\n  dup2\n    /* \"#utility.yul\":1920:1944   */\n  tag_43\n  jump\t// in\ntag_82:\n    /* \"#utility.yul\":1913:1918   */\n  dup2\n    /* \"#utility.yul\":1910:1945   */\n  eq\n    /* \"#utility.yul\":1900:1963   */\n  tag_83\n  jumpi\n    /* \"#utility.yul\":1959:1960   */\n  0x00\n    /* \"#utility.yul\":1956:1957   */\n  dup1\n    /* \"#utility.yul\":1949:1961   */\n  revert\n    /* \"#utility.yul\":1900:1963   */\ntag_83:\n    /* \"#utility.yul\":1847:1969   */\n  pop\n  jump\t// out\n    /* \"#utility.yul\":1975:2118   */\ntag_45:\n    /* \"#utility.yul\":2032:2037   */\n  0x00\n    /* \"#utility.yul\":2063:2069   */\n  dup2\n    /* \"#utility.yul\":2057:2070   */\n  mload\n    /* \"#utility.yul\":2048:2070   */\n  swap1\n  pop\n    /* \"#utility.yul\":2079:2112   */\n  tag_85\n    /* \"#utility.yul\":2106:2111   */\n  dup2\n    /* \"#utility.yul\":2079:2112   */\n  tag_44\n  jump\t// in\ntag_85:\n    /* \"#utility.yul\":1975:2118   */\n  swap3\n  swap2\n  pop\n  pop\n  jump\t// out\n    /* \"#utility.yul\":2141:2873   */\ntag_46:\n    /* \"#utility.yul\":2248:2253   */\n  0x00\n    /* \"#utility.yul\":2273:2354   */\n  tag_87\n    /* \"#utility.yul\":2289:2353   */\n  tag_88\n    /* \"#utility.yul\":2346:2352   */\n  dup5\n    /* \"#utility.yul\":2289:2353   */\n  tag_40\n  jump\t// in\ntag_88:\n    /* \"#utility.yul\":2273:2354   */\n  tag_39\n  jump\t// in\ntag_87:\n    /* \"#utility.yul\":2264:2354   */\n  swap1\n  pop\n    /* \"#utility.yul\":2374:2379   */\n  dup1\n    /* \"#utility.yul\":2403:2409   */\n  dup4\n    /* \"#utility.yul\":2396:2401   */\n  dup3\n    /* \"#utility.yul\":2389:2410   */\n  mstore\n    /* \"#utility.yul\":2437:2441   */\n  0x20\n    /* \"#utility.yul\":2430:2435   */\n  dup3\n    /* \"#utility.yul\":2426:2442   */\n  add\n    /* \"#utility.yul\":2419:2442   */\n  swap1\n  pop\n    /* \"#utility.yul\":2490:2494   */\n  0x20\n    /* \"#utility.yul\":2482:2488   */\n  dup5\n    /* \"#utility.yul\":2478:2495   */\n  mul\n    /* \"#utility.yul\":2470:2476   */\n  dup4\n    /* \"#utility.yul\":2466:2496   */\n  add\n    /* \"#utility.yul\":2519:2522   */\n  dup6\n    /* \"#utility.yul\":2511:2517   */\n  dup2\n    /* \"#utility.yul\":2508:2523   */\n  gt\n    /* \"#utility.yul\":2505:2627   */\n  iszero\n  tag_89\n  jumpi\n    /* \"#utility.yul\":2538:2617   */\n  tag_90\n  tag_41\n  jump\t// in\ntag_90:\n    /* \"#utility.yul\":2505:2627   */\ntag_89:\n    /* \"#utility.yul\":2653:2659   */\n  dup4\n    /* \"#utility.yul\":2636:2867   */\ntag_91:\n    /* \"#utility.yul\":2670:2676   */\n  dup2\n    /* \"#utility.yul\":2665:2668   */\n  dup2\n    /* \"#utility.yul\":2662:2677   */\n  lt\n    /* \"#utility.yul\":2636:2867   */\n  iszero\n  tag_93\n  jumpi\n    /* \"#utility.yul\":2745:2748   */\n  dup1\n    /* \"#utility.yul\":2774:2822   */\n  tag_94\n    /* \"#utility.yul\":2818:2821   */\n  dup9\n    /* \"#utility.yul\":2806:2816   */\n  dup3\n    /* \"#utility.yul\":2774:2822   */\n  tag_45\n  jump\t// in\ntag_94:\n    /* \"#utility.yul\":2769:2772   */\n  dup5\n    /* \"#utility.yul\":2762:2823   */\n  mstore\n    /* \"#utility.yul\":2852:2856   */\n  0x20\n    /* \"#utility.yul\":2847:2850   */\n  dup5\n    /* \"#utility.yul\":2843:2857   */\n  add\n    /* \"#utility.yul\":2836:2857   */\n  swap4\n  pop\n    /* \"#utility.yul\":2712:2867   */\n  pop\n    /* \"#utility.yul\":2696:2700   */\n  0x20\n    /* \"#utility.yul\":2691:2694   */\n  dup2\n    /* \"#utility.yul\":2687:2701   */\n  add\n    /* \"#utility.yul\":2680:2701   */\n  swap1\n  pop\n    /* \"#utility.yul\":2636:2867   */\n  jump(tag_91)\ntag_93:\n    /* \"#utility.yul\":2640:2661   */\n  pop\n    /* \"#utility.yul\":2254:2873   */\n  pop\n  pop\n    /* \"#utility.yul\":2141:2873   */\n  swap4\n  swap3\n  pop\n  pop\n  pop\n  jump\t// out\n    /* \"#utility.yul\":2896:3281   */\ntag_47:\n    /* \"#utility.yul\":2978:2983   */\n  0x00\n    /* \"#utility.yul\":3027:3030   */\n  dup3\n    /* \"#utility.yul\":3020:3024   */\n  0x1f\n    /* \"#utility.yul\":3012:3018   */\n  dup4\n    /* \"#utility.yul\":3008:3025   */\n  add\n    /* \"#utility.yul\":3004:3031   */\n  slt\n    /* \"#utility.yul\":2994:3116   */\n  tag_96\n  jumpi\n    /* \"#utility.yul\":3035:3114   */\n  tag_97\n  tag_35\n  jump\t// in\ntag_97:\n    /* \"#utility.yul\":2994:3116   */\ntag_96:\n    /* \"#utility.yul\":3145:3151   */\n  dup2\n    /* \"#utility.yul\":3139:3152   */\n  mload\n    /* \"#utility.yul\":3170:3275   */\n  tag_98\n    /* \"#utility.yul\":3271:3274   */\n  dup5\n    /* \"#utility.yul\":3263:3269   */\n  dup3\n    /* \"#utility.yul\":3256:3260   */\n  0x20\n    /* \"#utility.yul\":3248:3254   */\n  dup7\n    /* \"#utility.yul\":3244:3261   */\n  add\n    /* \"#utility.yul\":3170:3275   */\n  tag_46\n  jump\t// in\ntag_98:\n    /* \"#utility.yul\":3161:3275   */\n  swap2\n  pop\n    /* \"#utility.yul\":2984:3281   */\n  pop\n    /* \"#utility.yul\":2896:3281   */\n  swap3\n  swap2\n  pop\n  pop\n  jump\t// out\n    /* \"#utility.yul\":3287:3364   */\ntag_48:\n    /* \"#utility.yul\":3324:3331   */\n  0x00\n    /* \"#utility.yul\":3353:3358   */\n  dup2\n    /* \"#utility.yul\":3342:3358   */\n  swap1\n  pop\n    /* \"#utility.yul\":3287:3364   */\n  swap2\n  swap1\n  pop\n  jump\t// out\n    /* \"#utility.yul\":3370:3492   */\ntag_49:\n    /* \"#utility.yul\":3443:3467   */\n  tag_101\n    /* \"#utility.yul\":3461:3466   */\n  dup2\n    /* \"#utility.yul\":3443:3467   */\n  tag_48\n  jump\t// in\ntag_101:\n    /* \"#utility.yul\":3436:3441   */\n  dup2\n    /* \"#utility.yul\":3433:3468   */\n  eq\n    /* \"#utility.yul\":3423:3486   */\n  tag_102\n  jumpi\n    /* \"#utility.yul\":3482:3483   */\n  0x00\n    /* \"#utility.yul\":3479:3480   */\n  dup1\n    /* \"#utility.yul\":3472:3484   */\n  revert\n    /* \"#utility.yul\":3423:3486   */\ntag_102:\n    /* \"#utility.yul\":3370:3492   */\n  pop\n  jump\t// out\n    /* \"#utility.yul\":3498:3641   */\ntag_50:\n    /* \"#utility.yul\":3555:3560   */\n  0x00\n    /* \"#utility.yul\":3586:3592   */\n  dup2\n    /* \"#utility.yul\":3580:3593   */\n  mload\n    /* \"#utility.yul\":3571:3593   */\n  swap1\n  pop\n    /* \"#utility.yul\":3602:3635   */\n  tag_104\n    /* \"#utility.yul\":3629:3634   */\n  dup2\n    /* \"#utility.yul\":3602:3635   */\n  tag_49\n  jump\t// in\ntag_104:\n    /* \"#utility.yul\":3498:3641   */\n  swap3\n  swap2\n  pop\n  pop\n  jump\t// out\n    /* \"#utility.yul\":3647:4984   */\ntag_3:\n    /* \"#utility.yul\":3787:3793   */\n  0x00\n    /* \"#utility.yul\":3795:3801   */\n  dup1\n    /* \"#utility.yul\":3803:3809   */\n  0x00\n    /* \"#utility.yul\":3811:3817   */\n  dup1\n    /* \"#utility.yul\":3819:3825   */\n  0x00\n    /* \"#utility.yul\":3827:3833   */\n  dup1\n    /* \"#utility.yul\":3876:3879   */\n  0xc0\n    /* \"#utility.yul\":3864:3873   */\n  dup8\n    /* \"#utility.yul\":3855:3862   */\n  dup10\n    /* \"#utility.yul\":3851:3874   */\n  sub\n    /* \"#utility.yul\":3847:3880   */\n  slt\n    /* \"#utility.yul\":3844:3964   */\n  iszero\n  tag_106\n  jumpi\n    /* \"#utility.yul\":3883:3962   */\n  tag_107\n  tag_33\n  jump\t// in\ntag_107:\n    /* \"#utility.yul\":3844:3964   */\ntag_106:\n    /* \"#utility.yul\":4024:4025   */\n  0x00\n    /* \"#utility.yul\":4013:4022   */\n  dup8\n    /* \"#utility.yul\":4009:4026   */\n  add\n    /* \"#utility.yul\":4003:4027   */\n  mload\n    /* \"#utility.yul\":4054:4072   */\n  0xffffffffffffffff\n    /* \"#utility.yul\":4046:4052   */\n  dup2\n    /* \"#utility.yul\":4043:4073   */\n  gt\n    /* \"#utility.yul\":4040:4157   */\n  iszero\n  tag_108\n  jumpi\n    /* \"#utility.yul\":4076:4155   */\n  tag_109\n  tag_34\n  jump\t// in\ntag_109:\n    /* \"#utility.yul\":4040:4157   */\ntag_108:\n    /* \"#utility.yul\":4181:4270   */\n  tag_110\n    /* \"#utility.yul\":4262:4269   */\n  dup10\n    /* \"#utility.yul\":4253:4259   */\n  dup3\n    /* \"#utility.yul\":4242:4251   */\n  dup11\n    /* \"#utility.yul\":4238:4260   */\n  add\n    /* \"#utility.yul\":4181:4270   */\n  tag_47\n  jump\t// in\ntag_110:\n    /* \"#utility.yul\":4171:4270   */\n  swap7\n  pop\n    /* \"#utility.yul\":3974:4280   */\n  pop\n    /* \"#utility.yul\":4319:4321   */\n  0x20\n    /* \"#utility.yul\":4345:4409   */\n  tag_111\n    /* \"#utility.yul\":4401:4408   */\n  dup10\n    /* \"#utility.yul\":4392:4398   */\n  dup3\n    /* \"#utility.yul\":4381:4390   */\n  dup11\n    /* \"#utility.yul\":4377:4399   */\n  add\n    /* \"#utility.yul\":4345:4409   */\n  tag_50\n  jump\t// in\ntag_111:\n    /* \"#utility.yul\":4335:4409   */\n  swap6\n  pop\n    /* \"#utility.yul\":4290:4419   */\n  pop\n    /* \"#utility.yul\":4458:4460   */\n  0x40\n    /* \"#utility.yul\":4484:4548   */\n  tag_112\n    /* \"#utility.yul\":4540:4547   */\n  dup10\n    /* \"#utility.yul\":4531:4537   */\n  dup3\n    /* \"#utility.yul\":4520:4529   */\n  dup11\n    /* \"#utility.yul\":4516:4538   */\n  add\n    /* \"#utility.yul\":4484:4548   */\n  tag_50\n  jump\t// in\ntag_112:\n    /* \"#utility.yul\":4474:4548   */\n  swap5\n  pop\n    /* \"#utility.yul\":4429:4558   */\n  pop\n    /* \"#utility.yul\":4597:4599   */\n  0x60\n    /* \"#utility.yul\":4623:4687   */\n  tag_113\n    /* \"#utility.yul\":4679:4686   */\n  dup10\n    /* \"#utility.yul\":4670:4676   */\n  dup3\n    /* \"#utility.yul\":4659:4668   */\n  dup11\n    /* \"#utility.yul\":4655:4677   */\n  add\n    /* \"#utility.yul\":4623:4687   */\n  tag_50\n  jump\t// in\ntag_113:\n    /* \"#utility.yul\":4613:4687   */\n  swap4\n  pop\n    /* \"#utility.yul\":4568:4697   */\n  pop\n    /* \"#utility.yul\":4736:4739   */\n  0x80\n    /* \"#utility.yul\":4763:4827   */\n  tag_114\n    /* \"#utility.yul\":4819:4826   */\n  dup10\n    /* \"#utility.yul\":4810:4816   */\n  dup3\n    /* \"#utility.yul\":4799:4808   */\n  dup11\n    /* \"#utility.yul\":4795:4817   */\n  add\n    /* \"#utility.yul\":4763:4827   */\n  tag_45\n  jump\t// in\ntag_114:\n    /* \"#utility.yul\":4753:4827   */\n  swap3\n  pop\n    /* \"#utility.yul\":4707:4837   */\n  pop\n    /* \"#utility.yul\":4876:4879   */\n  0xa0\n    /* \"#utility.yul\":4903:4967   */\n  tag_115\n    /* \"#utility.yul\":4959:4966   */\n  dup10\n    /* \"#utility.yul\":4950:4956   */\n  dup3\n    /* \"#utility.yul\":4939:4948   */\n  dup11\n    /* \"#utility.yul\":4935:4957   */\n  add\n    /* \"#utility.yul\":4903:4967   */\n  tag_50\n  jump\t// in\ntag_115:\n    /* \"#utility.yul\":4893:4967   */\n  swap2\n  pop\n    /* \"#utility.yul\":4847:4977   */\n  pop\n    /* \"#utility.yul\":3647:4984   */\n  swap3\n  swap6\n  pop\n  swap3\n  swap6\n  pop\n  swap3\n  swap6\n  jump\t// out\n    /* \"#utility.yul\":4990:5159   */\ntag_51:\n    /* \"#utility.yul\":5074:5085   */\n  0x00\n    /* \"#utility.yul\":5108:5114   */\n  dup3\n    /* \"#utility.yul\":5103:5106   */\n  dup3\n    /* \"#utility.yul\":5096:5115   */\n  mstore\n    /* \"#utility.yul\":5148:5152   */\n  0x20\n    /* \"#utility.yul\":5143:5146   */\n  dup3\n    /* \"#utility.yul\":5139:5153   */\n  add\n    /* \"#utility.yul\":5124:5153   */\n  swap1\n  pop\n    /* \"#utility.yul\":4990:5159   */\n  swap3\n  swap2\n  pop\n  pop\n  jump\t// out\n    /* \"#utility.yul\":5165:5340   */\ntag_52:\n    /* \"#utility.yul\":5305:5332   */\n  0x4e6f2062656e656669636961726965732070726f766964656400000000000000\n    /* \"#utility.yul\":5301:5302   */\n  0x00\n    /* \"#utility.yul\":5293:5299   */\n  dup3\n    /* \"#utility.yul\":5289:5303   */\n  add\n    /* \"#utility.yul\":5282:5333   */\n  mstore\n    /* \"#utility.yul\":5165:5340   */\n  pop\n  jump\t// out\n    /* \"#utility.yul\":5346:5712   */\ntag_53:\n    /* \"#utility.yul\":5488:5491   */\n  0x00\n    /* \"#utility.yul\":5509:5576   */\n  tag_119\n    /* \"#utility.yul\":5573:5575   */\n  0x19\n    /* \"#utility.yul\":5568:5571   */\n  dup4\n    /* \"#utility.yul\":5509:5576   */\n  tag_51\n  jump\t// in\ntag_119:\n    /* \"#utility.yul\":5502:5576   */\n  swap2\n  pop\n    /* \"#utility.yul\":5585:5678   */\n  tag_120\n    /* \"#utility.yul\":5674:5677   */\n  dup3\n    /* \"#utility.yul\":5585:5678   */\n  tag_52\n  jump\t// in\ntag_120:\n    /* \"#utility.yul\":5703:5705   */\n  0x20\n    /* \"#utility.yul\":5698:5701   */\n  dup3\n    /* \"#utility.yul\":5694:5706   */\n  add\n    /* \"#utility.yul\":5687:5706   */\n  swap1\n  pop\n    /* \"#utility.yul\":5346:5712   */\n  swap2\n  swap1\n  pop\n  jump\t// out\n    /* \"#utility.yul\":5718:6137   */\ntag_8:\n    /* \"#utility.yul\":5884:5888   */\n  0x00\n    /* \"#utility.yul\":5922:5924   */\n  0x20\n    /* \"#utility.yul\":5911:5920   */\n  dup3\n    /* \"#utility.yul\":5907:5925   */\n  add\n    /* \"#utility.yul\":5899:5925   */\n  swap1\n  pop\n    /* \"#utility.yul\":5971:5980   */\n  dup2\n    /* \"#utility.yul\":5965:5969   */\n  dup2\n    /* \"#utility.yul\":5961:5981   */\n  sub\n    /* \"#utility.yul\":5957:5958   */\n  0x00\n    /* \"#utility.yul\":5946:5955   */\n  dup4\n    /* \"#utility.yul\":5942:5959   */\n  add\n    /* \"#utility.yul\":5935:5982   */\n  mstore\n    /* \"#utility.yul\":5999:6130   */\n  tag_122\n    /* \"#utility.yul\":6125:6129   */\n  dup2\n    /* \"#utility.yul\":5999:6130   */\n  tag_53\n  jump\t// in\ntag_122:\n    /* \"#utility.yul\":5991:6130   */\n  swap1\n  pop\n    /* \"#utility.yul\":5718:6137   */\n  swap2\n  swap1\n  pop\n  jump\t// out\n    /* \"#utility.yul\":6143:6366   */\ntag_54:\n    /* \"#utility.yul\":6283:6317   */\n  0x4475726174696f6e2073686f756c642062652067726561746572207468616e20\n    /* \"#utility.yul\":6279:6280   */\n  0x00\n    /* \"#utility.yul\":6271:6277   */\n  dup3\n    /* \"#utility.yul\":6267:6281   */\n  add\n    /* \"#utility.yul\":6260:6318   */\n  mstore\n    /* \"#utility.yul\":6352:6358   */\n  0x7a65726f00000000000000000000000000000000000000000000000000000000\n    /* \"#utility.yul\":6347:6349   */\n  0x20\n    /* \"#utility.yul\":6339:6345   */\n  dup3\n    /* \"#utility.yul\":6335:6350   */\n  add\n    /* \"#utility.yul\":6328:6359   */\n  mstore\n    /* \"#utility.yul\":6143:6366   */\n  pop\n  jump\t// out\n    /* \"#utility.yul\":6372:6738   */\ntag_55:\n    /* \"#utility.yul\":6514:6517   */\n  0x00\n    /* \"#utility.yul\":6535:6602   */\n  tag_125\n    /* \"#utility.yul\":6599:6601   */\n  0x24\n    /* \"#utility.yul\":6594:6597   */\n  dup4\n    /* \"#utility.yul\":6535:6602   */\n  tag_51\n  jump\t// in\ntag_125:\n    /* \"#utility.yul\":6528:6602   */\n  swap2\n  pop\n    /* \"#utility.yul\":6611:6704   */\n  tag_126\n    /* \"#utility.yul\":6700:6703   */\n  dup3\n    /* \"#utility.yul\":6611:6704   */\n  tag_54\n  jump\t// in\ntag_126:\n    /* \"#utility.yul\":6729:6731   */\n  0x40\n    /* \"#utility.yul\":6724:6727   */\n  dup3\n    /* \"#utility.yul\":6720:6732   */\n  add\n    /* \"#utility.yul\":6713:6732   */\n  swap1\n  pop\n    /* \"#utility.yul\":6372:6738   */\n  swap2\n  swap1\n  pop\n  jump\t// out\n    /* \"#utility.yul\":6744:7163   */\ntag_11:\n    /* \"#utility.yul\":6910:6914   */\n  0x00\n    /* \"#utility.yul\":6948:6950   */\n  0x20\n    /* \"#utility.yul\":6937:6946   */\n  dup3\n    /* \"#utility.yul\":6933:6951   */\n  add\n    /* \"#utility.yul\":6925:6951   */\n  swap1\n  pop\n    /* \"#utility.yul\":6997:7006   */\n  dup2\n    /* \"#utility.yul\":6991:6995   */\n  dup2\n    /* \"#utility.yul\":6987:7007   */\n  sub\n    /* \"#utility.yul\":6983:6984   */\n  0x00\n    /* \"#utility.yul\":6972:6981   */\n  dup4\n    /* \"#utility.yul\":6968:6985   */\n  add\n    /* \"#utility.yul\":6961:7008   */\n  mstore\n    /* \"#utility.yul\":7025:7156   */\n  tag_128\n    /* \"#utility.yul\":7151:7155   */\n  dup2\n    /* \"#utility.yul\":7025:7156   */\n  tag_55\n  jump\t// in\ntag_128:\n    /* \"#utility.yul\":7017:7156   */\n  swap1\n  pop\n    /* \"#utility.yul\":6744:7163   */\n  swap2\n  swap1\n  pop\n  jump\t// out\n    /* \"#utility.yul\":7169:7409   */\ntag_56:\n    /* \"#utility.yul\":7309:7343   */\n  0x436c69666620706572696f642073686f756c64206265206c657373207468616e\n    /* \"#utility.yul\":7305:7306   */\n  0x00\n    /* \"#utility.yul\":7297:7303   */\n  dup3\n    /* \"#utility.yul\":7293:7307   */\n  add\n    /* \"#utility.yul\":7286:7344   */\n  mstore\n    /* \"#utility.yul\":7378:7401   */\n  0x206f7220657175616c20746f206475726174696f6e0000000000000000000000\n    /* \"#utility.yul\":7373:7375   */\n  0x20\n    /* \"#utility.yul\":7365:7371   */\n  dup3\n    /* \"#utility.yul\":7361:7376   */\n  add\n    /* \"#utility.yul\":7354:7402   */\n  mstore\n    /* \"#utility.yul\":7169:7409   */\n  pop\n  jump\t// out\n    /* \"#utility.yul\":7415:7781   */\ntag_57:\n    /* \"#utility.yul\":7557:7560   */\n  0x00\n    /* \"#utility.yul\":7578:7645   */\n  tag_131\n    /* \"#utility.yul\":7642:7644   */\n  0x35\n    /* \"#utility.yul\":7637:7640   */\n  dup4\n    /* \"#utility.yul\":7578:7645   */\n  tag_51\n  jump\t// in\ntag_131:\n    /* \"#utility.yul\":7571:7645   */\n  swap2\n  pop\n    /* \"#utility.yul\":7654:7747   */\n  tag_132\n    /* \"#utility.yul\":7743:7746   */\n  dup3\n    /* \"#utility.yul\":7654:7747   */\n  tag_56\n  jump\t// in\ntag_132:\n    /* \"#utility.yul\":7772:7774   */\n  0x40\n    /* \"#utility.yul\":7767:7770   */\n  dup3\n    /* \"#utility.yul\":7763:7775   */\n  add\n    /* \"#utility.yul\":7756:7775   */\n  swap1\n  pop\n    /* \"#utility.yul\":7415:7781   */\n  swap2\n  swap1\n  pop\n  jump\t// out\n    /* \"#utility.yul\":7787:8206   */\ntag_14:\n    /* \"#utility.yul\":7953:7957   */\n  0x00\n    /* \"#utility.yul\":7991:7993   */\n  0x20\n    /* \"#utility.yul\":7980:7989   */\n  dup3\n    /* \"#utility.yul\":7976:7994   */\n  add\n    /* \"#utility.yul\":7968:7994   */\n  swap1\n  pop\n    /* \"#utility.yul\":8040:8049   */\n  dup2\n    /* \"#utility.yul\":8034:8038   */\n  dup2\n    /* \"#utility.yul\":8030:8050   */\n  sub\n    /* \"#utility.yul\":8026:8027   */\n  0x00\n    /* \"#utility.yul\":8015:8024   */\n  dup4\n    /* \"#utility.yul\":8011:8028   */\n  add\n    /* \"#utility.yul\":8004:8051   */\n  mstore\n    /* \"#utility.yul\":8068:8199   */\n  tag_134\n    /* \"#utility.yul\":8194:8198   */\n  dup2\n    /* \"#utility.yul\":8068:8199   */\n  tag_57\n  jump\t// in\ntag_134:\n    /* \"#utility.yul\":8060:8199   */\n  swap1\n  pop\n    /* \"#utility.yul\":7787:8206   */\n  swap2\n  swap1\n  pop\n  jump\t// out\n    /* \"#utility.yul\":8212:8392   */\ntag_58:\n    /* \"#utility.yul\":8260:8337   */\n  0x4e487b7100000000000000000000000000000000000000000000000000000000\n    /* \"#utility.yul\":8257:8258   */\n  0x00\n    /* \"#utility.yul\":8250:8338   */\n  mstore\n    /* \"#utility.yul\":8357:8361   */\n  0x11\n    /* \"#utility.yul\":8354:8355   */\n  0x04\n    /* \"#utility.yul\":8347:8362   */\n  mstore\n    /* \"#utility.yul\":8381:8385   */\n  0x24\n    /* \"#utility.yul\":8378:8379   */\n  0x00\n    /* \"#utility.yul\":8371:8386   */\n  revert\n    /* \"#utility.yul\":8398:8589   */\ntag_16:\n    /* \"#utility.yul\":8438:8441   */\n  0x00\n    /* \"#utility.yul\":8457:8477   */\n  tag_137\n    /* \"#utility.yul\":8475:8476   */\n  dup3\n    /* \"#utility.yul\":8457:8477   */\n  tag_48\n  jump\t// in\ntag_137:\n    /* \"#utility.yul\":8452:8477   */\n  swap2\n  pop\n    /* \"#utility.yul\":8491:8511   */\n  tag_138\n    /* \"#utility.yul\":8509:8510   */\n  dup4\n    /* \"#utility.yul\":8491:8511   */\n  tag_48\n  jump\t// in\ntag_138:\n    /* \"#utility.yul\":8486:8511   */\n  swap3\n  pop\n    /* \"#utility.yul\":8534:8535   */\n  dup3\n    /* \"#utility.yul\":8531:8532   */\n  dup3\n    /* \"#utility.yul\":8527:8536   */\n  add\n    /* \"#utility.yul\":8520:8536   */\n  swap1\n  pop\n    /* \"#utility.yul\":8555:8558   */\n  dup1\n    /* \"#utility.yul\":8552:8553   */\n  dup3\n    /* \"#utility.yul\":8549:8559   */\n  gt\n    /* \"#utility.yul\":8546:8582   */\n  iszero\n  tag_139\n  jumpi\n    /* \"#utility.yul\":8562:8580   */\n  tag_140\n  tag_58\n  jump\t// in\ntag_140:\n    /* \"#utility.yul\":8546:8582   */\ntag_139:\n    /* \"#utility.yul\":8398:8589   */\n  swap3\n  swap2\n  pop\n  pop\n  jump\t// out\n    /* \"#utility.yul\":8595:8713   */\ntag_59:\n    /* \"#utility.yul\":8682:8706   */\n  tag_142\n    /* \"#utility.yul\":8700:8705   */\n  dup2\n    /* \"#utility.yul\":8682:8706   */\n  tag_43\n  jump\t// in\ntag_142:\n    /* \"#utility.yul\":8677:8680   */\n  dup3\n    /* \"#utility.yul\":8670:8707   */\n  mstore\n    /* \"#utility.yul\":8595:8713   */\n  pop\n  pop\n  jump\t// out\n    /* \"#utility.yul\":8719:8941   */\ntag_21:\n    /* \"#utility.yul\":8812:8816   */\n  0x00\n    /* \"#utility.yul\":8850:8852   */\n  0x20\n    /* \"#utility.yul\":8839:8848   */\n  dup3\n    /* \"#utility.yul\":8835:8853   */\n  add\n    /* \"#utility.yul\":8827:8853   */\n  swap1\n  pop\n    /* \"#utility.yul\":8863:8934   */\n  tag_144\n    /* \"#utility.yul\":8931:8932   */\n  0x00\n    /* \"#utility.yul\":8920:8929   */\n  dup4\n    /* \"#utility.yul\":8916:8933   */\n  add\n    /* \"#utility.yul\":8907:8913   */\n  dup5\n    /* \"#utility.yul\":8863:8934   */\n  tag_59\n  jump\t// in\ntag_144:\n    /* \"#utility.yul\":8719:8941   */\n  swap3\n  swap2\n  pop\n  pop\n  jump\t// out\n    /* \"#utility.yul\":8947:9298   */\ntag_25:\n    /* \"#utility.yul\":9017:9023   */\n  0x00\n    /* \"#utility.yul\":9066:9068   */\n  0x20\n    /* \"#utility.yul\":9054:9063   */\n  dup3\n    /* \"#utility.yul\":9045:9052   */\n  dup5\n    /* \"#utility.yul\":9041:9064   */\n  sub\n    /* \"#utility.yul\":9037:9069   */\n  slt\n    /* \"#utility.yul\":9034:9153   */\n  iszero\n  tag_146\n  jumpi\n    /* \"#utility.yul\":9072:9151   */\n  tag_147\n  tag_33\n  jump\t// in\ntag_147:\n    /* \"#utility.yul\":9034:9153   */\ntag_146:\n    /* \"#utility.yul\":9192:9193   */\n  0x00\n    /* \"#utility.yul\":9217:9281   */\n  tag_148\n    /* \"#utility.yul\":9273:9280   */\n  dup5\n    /* \"#utility.yul\":9264:9270   */\n  dup3\n    /* \"#utility.yul\":9253:9262   */\n  dup6\n    /* \"#utility.yul\":9249:9271   */\n  add\n    /* \"#utility.yul\":9217:9281   */\n  tag_50\n  jump\t// in\ntag_148:\n    /* \"#utility.yul\":9207:9281   */\n  swap2\n  pop\n    /* \"#utility.yul\":9163:9291   */\n  pop\n    /* \"#utility.yul\":8947:9298   */\n  swap3\n  swap2\n  pop\n  pop\n  jump\t// out\n    /* \"#utility.yul\":9304:9484   */\ntag_28:\n    /* \"#utility.yul\":9352:9429   */\n  0x4e487b7100000000000000000000000000000000000000000000000000000000\n    /* \"#utility.yul\":9349:9350   */\n  0x00\n    /* \"#utility.yul\":9342:9430   */\n  mstore\n    /* \"#utility.yul\":9449:9453   */\n  0x32\n    /* \"#utility.yul\":9446:9447   */\n  0x04\n    /* \"#utility.yul\":9439:9454   */\n  mstore\n    /* \"#utility.yul\":9473:9477   */\n  0x24\n    /* \"#utility.yul\":9470:9471   */\n  0x00\n    /* \"#utility.yul\":9463:9478   */\n  revert\n    /* \"#utility.yul\":9490:9723   */\ntag_30:\n    /* \"#utility.yul\":9529:9532   */\n  0x00\n    /* \"#utility.yul\":9552:9576   */\n  tag_151\n    /* \"#utility.yul\":9570:9575   */\n  dup3\n    /* \"#utility.yul\":9552:9576   */\n  tag_48\n  jump\t// in\ntag_151:\n    /* \"#utility.yul\":9543:9576   */\n  swap2\n  pop\n    /* \"#utility.yul\":9598:9664   */\n  0xffffffffffffffffffffffffffffffffffffffffffffffffffffffffffffffff\n    /* \"#utility.yul\":9591:9596   */\n  dup3\n    /* \"#utility.yul\":9588:9665   */\n  sub\n    /* \"#utility.yul\":9585:9688   */\n  tag_152\n  jumpi\n    /* \"#utility.yul\":9668:9686   */\n  tag_153\n  tag_58\n  jump\t// in\ntag_153:\n    /* \"#utility.yul\":9585:9688   */\ntag_152:\n    /* \"#utility.yul\":9715:9716   */\n  0x01\n    /* \"#utility.yul\":9708:9713   */\n  dup3\n    /* \"#utility.yul\":9704:9717   */\n  add\n    /* \"#utility.yul\":9697:9717   */\n  swap1\n  pop\n    /* \"#utility.yul\":9490:9723   */\n  swap2\n  swap1\n  pop\n  jump\t// out\n    /* \"contracts/vesting.sol\":116:3257  contract Vesting{... */\ntag_31:\n  dataSize(sub_0)\n  dup1\n  dataOffset(sub_0)\n  0x00\n  codecopy\n  0x00\n  return\nstop\n\nsub_0: assembly {\n        /* \"contracts/vesting.sol\":116:3257  contract Vesting{... */\n      mstore(0x40, 0x80)\n      callvalue\n      dup1\n      iszero\n      tag_1\n      jumpi\n      0x00\n      dup1\n      revert\n    tag_1:\n      pop\n      jumpi(tag_2, lt(calldatasize, 0x04))\n      shr(0xe0, calldataload(0x00))\n      dup1\n      0x763b6d9e\n      gt\n      tag_16\n      jumpi\n      dup1\n      0x8a9e0876\n      gt\n      tag_17\n      jumpi\n      dup1\n      0x8a9e0876\n      eq\n      tag_12\n      jumpi\n      dup1\n      0x8da5cb5b\n      eq\n      tag_13\n      jumpi\n      dup1\n      0x96074e70\n      eq\n      tag_14\n      jumpi\n      dup1\n      0xfc0c546a\n      eq\n      tag_15\n      jumpi\n      jump(tag_2)\n    tag_17:\n      dup1\n      0x763b6d9e\n      eq\n      tag_9\n      jumpi\n      dup1\n      0x78e97925\n      eq\n      tag_10\n      jumpi\n      dup1\n      0x86d1a69f\n      eq\n      tag_11\n      jumpi\n      jump(tag_2)\n    tag_16:\n      dup1\n      0x01567739\n      eq\n      tag_3\n      jumpi\n      dup1\n      0x0fb5a6b4\n      eq\n      tag_4\n      jumpi\n      dup1\n      0x13d033c0\n      eq\n      tag_5\n      jumpi\n      dup1\n      0x5afd6eb8\n      eq\n      tag_6\n      jumpi\n      dup1\n      0x6ea419e5\n      eq\n      tag_7\n      jumpi\n      dup1\n      0x6f9fb98a\n      eq\n      tag_8\n      jumpi\n    tag_2:\n      0x00\n      dup1\n      revert\n        /* \"contracts/vesting.sol\":326:371  mapping(address => uint) public beneficiaries */\n    tag_3:\n      tag_18\n      0x04\n      dup1\n      calldatasize\n      sub\n      dup2\n      add\n      swap1\n      tag_19\n      swap2\n      swap1\n      tag_20\n      jump\t// in\n    tag_19:\n      tag_21\n      jump\t// in\n    tag_18:\n      mload(0x40)\n      tag_22\n      swap2\n      swap1\n      tag_23\n      jump\t// in\n    tag_22:\n      mload(0x40)\n      dup1\n      swap2\n      sub\n      swap1\n      return\n        /* \"contracts/vesting.sol\":190:210  uint public duration */\n    tag_4:\n      tag_24\n      tag_25\n      jump\t// in\n    tag_24:\n      mload(0x40)\n      tag_26\n      swap2\n      swap1\n      tag_23\n      jump\t// in\n    tag_26:\n      mload(0x40)\n      dup1\n      swap2\n      sub\n      swap1\n      return\n        /* \"contracts/vesting.sol\":167:184  uint public cliff */\n    tag_5:\n      tag_27\n      tag_28\n      jump\t// in\n    tag_27:\n      mload(0x40)\n      tag_29\n      swap2\n      swap1\n      tag_23\n      jump\t// in\n    tag_29:\n      mload(0x40)\n      dup1\n      swap2\n      sub\n      swap1\n      return\n        /* \"contracts/vesting.sol\":138:161  uint public slicePeriod */\n    tag_6:\n      tag_30\n      tag_31\n      jump\t// in\n    tag_30:\n      mload(0x40)\n      tag_32\n      swap2\n      swap1\n      tag_23\n      jump\t// in\n    tag_32:\n      mload(0x40)\n      dup1\n      swap2\n      sub\n      swap1\n      return\n        /* \"contracts/vesting.sol\":377:425  mapping(address => uint) public noOfVestedTokens */\n    tag_7:\n      tag_33\n      0x04\n      dup1\n      calldatasize\n      sub\n      dup2\n      add\n      swap1\n      tag_34\n      swap2\n      swap1\n      tag_20\n      jump\t// in\n    tag_34:\n      tag_35\n      jump\t// in\n    tag_33:\n      mload(0x40)\n      tag_36\n      swap2\n      swap1\n      tag_23\n      jump\t// in\n    tag_36:\n      mload(0x40)\n      dup1\n      swap2\n      sub\n      swap1\n      return\n        /* \"contracts/vesting.sol\":3144:3255  function getContractBalance() public view returns (uint) {... */\n    tag_8:\n      tag_37\n      tag_38\n      jump\t// in\n    tag_37:\n      mload(0x40)\n      tag_39\n      swap2\n      swap1\n      tag_23\n      jump\t// in\n    tag_39:\n      mload(0x40)\n      dup1\n      swap2\n      sub\n      swap1\n      return\n        /* \"contracts/vesting.sol\":1656:2838  function vestingTokens(address beneficiary) public view cliffPeriodDone returns (uint) {... */\n    tag_9:\n      tag_40\n      0x04\n      dup1\n      calldatasize\n      sub\n      dup2\n      add\n      swap1\n      tag_41\n      swap2\n      swap1\n      tag_20\n      jump\t// in\n    tag_41:\n      tag_42\n      jump\t// in\n    tag_40:\n      mload(0x40)\n      tag_43\n      swap2\n      swap1\n      tag_23\n      jump\t// in\n    tag_43:\n      mload(0x40)\n      dup1\n      swap2\n      sub\n      swap1\n      return\n        /* \"contracts/vesting.sol\":248:269  uint public startTime */\n    tag_10:\n      tag_44\n      tag_45\n      jump\t// in\n    tag_44:\n      mload(0x40)\n      tag_46\n      swap2\n      swap1\n      tag_23\n      jump\t// in\n    tag_46:\n      mload(0x40)\n      dup1\n      swap2\n      sub\n      swap1\n      return\n        /* \"contracts/vesting.sol\":2844:3138  function release() public isBeneficiary cliffPeriodDone {... */\n    tag_11:\n      tag_47\n      tag_48\n      jump\t// in\n    tag_47:\n      stop\n        /* \"contracts/vesting.sol\":216:242  uint public tokensReleased */\n    tag_12:\n      tag_49\n      tag_50\n      jump\t// in\n    tag_49:\n      mload(0x40)\n      tag_51\n      swap2\n      swap1\n      tag_23\n      jump\t// in\n    tag_51:\n      mload(0x40)\n      dup1\n      swap2\n      sub\n      swap1\n      return\n        /* \"contracts/vesting.sol\":275:295  address public owner */\n    tag_13:\n      tag_52\n      tag_53\n      jump\t// in\n    tag_52:\n      mload(0x40)\n      tag_54\n      swap2\n      swap1\n      tag_55\n      jump\t// in\n    tag_54:\n      mload(0x40)\n      dup1\n      swap2\n      sub\n      swap1\n      return\n        /* \"contracts/vesting.sol\":1503:1650  function addBeneficiary(address _newBeneficiary, uint _tokensToLock) public isOwner {... */\n    tag_14:\n      tag_56\n      0x04\n      dup1\n      calldatasize\n      sub\n      dup2\n      add\n      swap1\n      tag_57\n      swap2\n      swap1\n      tag_58\n      jump\t// in\n    tag_57:\n      tag_59\n      jump\t// in\n    tag_56:\n      stop\n        /* \"contracts/vesting.sol\":301:320  IERC20 public token */\n    tag_15:\n      tag_60\n      tag_61\n      jump\t// in\n    tag_60:\n      mload(0x40)\n      tag_62\n      swap2\n      swap1\n      tag_63\n      jump\t// in\n    tag_62:\n      mload(0x40)\n      dup1\n      swap2\n      sub\n      swap1\n      return\n        /* \"contracts/vesting.sol\":326:371  mapping(address => uint) public beneficiaries */\n    tag_21:\n      mstore(0x20, 0x07)\n      dup1\n      0x00\n      mstore\n      keccak256(0x00, 0x40)\n      0x00\n      swap2\n      pop\n      swap1\n      pop\n      sload\n      dup2\n      jump\t// out\n        /* \"contracts/vesting.sol\":190:210  uint public duration */\n    tag_25:\n      sload(0x02)\n      dup2\n      jump\t// out\n        /* \"contracts/vesting.sol\":167:184  uint public cliff */\n    tag_28:\n      sload(0x01)\n      dup2\n      jump\t// out\n        /* \"contracts/vesting.sol\":138:161  uint public slicePeriod */\n    tag_31:\n      sload(0x00)\n      dup2\n      jump\t// out\n        /* \"contracts/vesting.sol\":377:425  mapping(address => uint) public noOfVestedTokens */\n    tag_35:\n      mstore(0x20, 0x08)\n      dup1\n      0x00\n      mstore\n      keccak256(0x00, 0x40)\n      0x00\n      swap2\n      pop\n      swap1\n      pop\n      sload\n      dup2\n      jump\t// out\n        /* \"contracts/vesting.sol\":3144:3255  function getContractBalance() public view returns (uint) {... */\n    tag_38:\n        /* \"contracts/vesting.sol\":3195:3199  uint */\n      0x00\n        /* \"contracts/vesting.sol\":3218:3223  token */\n      0x06\n      0x00\n      swap1\n      sload\n      swap1\n      0x0100\n      exp\n      swap1\n      div\n      0xffffffffffffffffffffffffffffffffffffffff\n      and\n        /* \"contracts/vesting.sol\":3218:3233  token.balanceOf */\n      0xffffffffffffffffffffffffffffffffffffffff\n      and\n      0x70a08231\n        /* \"contracts/vesting.sol\":3242:3246  this */\n      address\n        /* \"contracts/vesting.sol\":3218:3248  token.balanceOf(address(this)) */\n      mload(0x40)\n      dup3\n      0xffffffff\n      and\n      0xe0\n      shl\n      dup2\n      mstore\n      0x04\n      add\n      tag_65\n      swap2\n      swap1\n      tag_55\n      jump\t// in\n    tag_65:\n      0x20\n      mload(0x40)\n      dup1\n      dup4\n      sub\n      dup2\n      dup7\n      gas\n      staticcall\n      iszero\n      dup1\n      iszero\n      tag_67\n      jumpi\n      returndatasize\n      0x00\n      dup1\n      returndatacopy\n      revert(0x00, returndatasize)\n    tag_67:\n      pop\n      pop\n      pop\n      pop\n      mload(0x40)\n      returndatasize\n      not(0x1f)\n      0x1f\n      dup3\n      add\n      and\n      dup3\n      add\n      dup1\n      0x40\n      mstore\n      pop\n      dup2\n      add\n      swap1\n      tag_68\n      swap2\n      swap1\n      tag_69\n      jump\t// in\n    tag_68:\n        /* \"contracts/vesting.sol\":3211:3248  return token.balanceOf(address(this)) */\n      swap1\n      pop\n        /* \"contracts/vesting.sol\":3144:3255  function getContractBalance() public view returns (uint) {... */\n      swap1\n      jump\t// out\n        /* \"contracts/vesting.sol\":1656:2838  function vestingTokens(address beneficiary) public view cliffPeriodDone returns (uint) {... */\n    tag_42:\n        /* \"contracts/vesting.sol\":1737:1741  uint */\n      0x00\n        /* \"contracts/vesting.sol\":1448:1453  cliff */\n      sload(0x01)\n        /* \"contracts/vesting.sol\":1429:1444  block.timestamp */\n      timestamp\n        /* \"contracts/vesting.sol\":1429:1453  block.timestamp >= cliff */\n      lt\n      iszero\n        /* \"contracts/vesting.sol\":1421:1479  require(block.timestamp >= cliff, \"Cliff period not done\") */\n      tag_71\n      jumpi\n      mload(0x40)\n      0x08c379a000000000000000000000000000000000000000000000000000000000\n      dup2\n      mstore\n      0x04\n      add\n      tag_72\n      swap1\n      tag_73\n      jump\t// in\n    tag_72:\n      mload(0x40)\n      dup1\n      swap2\n      sub\n      swap1\n      revert\n    tag_71:\n        /* \"contracts/vesting.sol\":1753:1774  uint tokensToBeVested */\n      0x00\n        /* \"contracts/vesting.sol\":1788:1811  uint totalVestingTokens */\n      dup1\n        /* \"contracts/vesting.sol\":1814:1827  beneficiaries */\n      0x07\n        /* \"contracts/vesting.sol\":1814:1840  beneficiaries[beneficiary] */\n      0x00\n        /* \"contracts/vesting.sol\":1828:1839  beneficiary */\n      dup6\n        /* \"contracts/vesting.sol\":1814:1840  beneficiaries[beneficiary] */\n      0xffffffffffffffffffffffffffffffffffffffff\n      and\n      0xffffffffffffffffffffffffffffffffffffffff\n      and\n      dup2\n      mstore\n      0x20\n      add\n      swap1\n      dup2\n      mstore\n      0x20\n      add\n      0x00\n      keccak256\n      sload\n        /* \"contracts/vesting.sol\":1788:1840  uint totalVestingTokens = beneficiaries[beneficiary] */\n      swap1\n      pop\n        /* \"contracts/vesting.sol\":1873:1878  cliff */\n      sload(0x01)\n        /* \"contracts/vesting.sol\":1855:1870  block.timestamp */\n      timestamp\n        /* \"contracts/vesting.sol\":1855:1878  block.timestamp < cliff */\n      lt\n        /* \"contracts/vesting.sol\":1851:2481  if (block.timestamp < cliff) {... */\n      iszero\n      tag_75\n      jumpi\n        /* \"contracts/vesting.sol\":1901:1917  tokensToBeVested */\n      dup2\n        /* \"contracts/vesting.sol\":1894:1917  return tokensToBeVested */\n      swap3\n      pop\n      pop\n      pop\n      jump(tag_74)\n        /* \"contracts/vesting.sol\":1851:2481  if (block.timestamp < cliff) {... */\n    tag_75:\n        /* \"contracts/vesting.sol\":1948:1967  uint timeSinceStart */\n      0x00\n        /* \"contracts/vesting.sol\":1988:1997  startTime */\n      sload(0x04)\n        /* \"contracts/vesting.sol\":1970:1985  block.timestamp */\n      timestamp\n        /* \"contracts/vesting.sol\":1970:1997  block.timestamp - startTime */\n      tag_77\n      swap2\n      swap1\n      tag_78\n      jump\t// in\n    tag_77:\n        /* \"contracts/vesting.sol\":1948:1997  uint timeSinceStart = block.timestamp - startTime */\n      swap1\n      pop\n        /* \"contracts/vesting.sol\":2011:2037  uint noOfPeriodsSinceStart */\n      0x00\n        /* \"contracts/vesting.sol\":2057:2068  slicePeriod */\n      dup1\n      sload\n        /* \"contracts/vesting.sol\":2040:2054  timeSinceStart */\n      dup3\n        /* \"contracts/vesting.sol\":2040:2068  timeSinceStart / slicePeriod */\n      tag_79\n      swap2\n      swap1\n      tag_80\n      jump\t// in\n    tag_79:\n        /* \"contracts/vesting.sol\":2011:2068  uint noOfPeriodsSinceStart = timeSinceStart / slicePeriod */\n      swap1\n      pop\n        /* \"contracts/vesting.sol\":2082:2099  uint totalPeriods */\n      0x00\n        /* \"contracts/vesting.sol\":2113:2124  slicePeriod */\n      dup1\n      sload\n        /* \"contracts/vesting.sol\":2102:2110  duration */\n      sload(0x02)\n        /* \"contracts/vesting.sol\":2102:2124  duration / slicePeriod */\n      tag_81\n      swap2\n      swap1\n      tag_80\n      jump\t// in\n    tag_81:\n        /* \"contracts/vesting.sol\":2082:2124  uint totalPeriods = duration / slicePeriod */\n      swap1\n      pop\n        /* \"contracts/vesting.sol\":2168:2180  totalPeriods */\n      dup1\n        /* \"contracts/vesting.sol\":2143:2164  noOfPeriodsSinceStart */\n      dup3\n        /* \"contracts/vesting.sol\":2143:2180  noOfPeriodsSinceStart >= totalPeriods */\n      lt\n        /* \"contracts/vesting.sol\":2139:2471  if (noOfPeriodsSinceStart >= totalPeriods) {... */\n      tag_82\n      jumpi\n        /* \"contracts/vesting.sol\":2240:2256  noOfVestedTokens */\n      0x08\n        /* \"contracts/vesting.sol\":2240:2269  noOfVestedTokens[beneficiary] */\n      0x00\n        /* \"contracts/vesting.sol\":2257:2268  beneficiary */\n      dup9\n        /* \"contracts/vesting.sol\":2240:2269  noOfVestedTokens[beneficiary] */\n      0xffffffffffffffffffffffffffffffffffffffff\n      and\n      0xffffffffffffffffffffffffffffffffffffffff\n      and\n      dup2\n      mstore\n      0x20\n      add\n      swap1\n      dup2\n      mstore\n      0x20\n      add\n      0x00\n      keccak256\n      sload\n        /* \"contracts/vesting.sol\":2219:2237  totalVestingTokens */\n      dup5\n        /* \"contracts/vesting.sol\":2219:2269  totalVestingTokens - noOfVestedTokens[beneficiary] */\n      tag_83\n      swap2\n      swap1\n      tag_78\n      jump\t// in\n    tag_83:\n        /* \"contracts/vesting.sol\":2200:2269  tokensToBeVested = totalVestingTokens - noOfVestedTokens[beneficiary] */\n      swap5\n      pop\n        /* \"contracts/vesting.sol\":2139:2471  if (noOfPeriodsSinceStart >= totalPeriods) {... */\n      jump(tag_84)\n    tag_82:\n        /* \"contracts/vesting.sol\":2308:2336  uint tokensVestedInOnePeriod */\n      0x00\n        /* \"contracts/vesting.sol\":2360:2372  totalPeriods */\n      dup2\n        /* \"contracts/vesting.sol\":2339:2357  totalVestingTokens */\n      dup6\n        /* \"contracts/vesting.sol\":2339:2372  totalVestingTokens / totalPeriods */\n      tag_85\n      swap2\n      swap1\n      tag_80\n      jump\t// in\n    tag_85:\n        /* \"contracts/vesting.sol\":2308:2372  uint tokensVestedInOnePeriod = totalVestingTokens / totalPeriods */\n      swap1\n      pop\n        /* \"contracts/vesting.sol\":2435:2456  noOfPeriodsSinceStart */\n      dup3\n        /* \"contracts/vesting.sol\":2409:2432  tokensVestedInOnePeriod */\n      dup2\n        /* \"contracts/vesting.sol\":2409:2456  tokensVestedInOnePeriod * noOfPeriodsSinceStart */\n      tag_86\n      swap2\n      swap1\n      tag_87\n      jump\t// in\n    tag_86:\n        /* \"contracts/vesting.sol\":2390:2456  tokensToBeVested = tokensVestedInOnePeriod * noOfPeriodsSinceStart */\n      swap6\n      pop\n        /* \"contracts/vesting.sol\":2290:2471  {... */\n      pop\n        /* \"contracts/vesting.sol\":2139:2471  if (noOfPeriodsSinceStart >= totalPeriods) {... */\n    tag_84:\n        /* \"contracts/vesting.sol\":1934:2481  {... */\n      pop\n      pop\n      pop\n        /* \"contracts/vesting.sol\":2499:2523  uint alreadyVestedTokens */\n      0x00\n        /* \"contracts/vesting.sol\":2526:2542  noOfVestedTokens */\n      0x08\n        /* \"contracts/vesting.sol\":2526:2555  noOfVestedTokens[beneficiary] */\n      0x00\n        /* \"contracts/vesting.sol\":2543:2554  beneficiary */\n      dup7\n        /* \"contracts/vesting.sol\":2526:2555  noOfVestedTokens[beneficiary] */\n      0xffffffffffffffffffffffffffffffffffffffff\n      and\n      0xffffffffffffffffffffffffffffffffffffffff\n      and\n      dup2\n      mstore\n      0x20\n      add\n      swap1\n      dup2\n      mstore\n      0x20\n      add\n      0x00\n      keccak256\n      sload\n        /* \"contracts/vesting.sol\":2499:2555  uint alreadyVestedTokens = noOfVestedTokens[beneficiary] */\n      swap1\n      pop\n        /* \"contracts/vesting.sol\":2565:2585  uint remainingTokens */\n      0x00\n        /* \"contracts/vesting.sol\":2609:2628  alreadyVestedTokens */\n      dup2\n        /* \"contracts/vesting.sol\":2588:2606  totalVestingTokens */\n      dup4\n        /* \"contracts/vesting.sol\":2588:2628  totalVestingTokens - alreadyVestedTokens */\n      tag_88\n      swap2\n      swap1\n      tag_78\n      jump\t// in\n    tag_88:\n        /* \"contracts/vesting.sol\":2565:2628  uint remainingTokens = totalVestingTokens - alreadyVestedTokens */\n      swap1\n      pop\n        /* \"contracts/vesting.sol\":2638:2656  uint vestingAmount */\n      0x00\n        /* \"contracts/vesting.sol\":2678:2697  alreadyVestedTokens */\n      dup3\n        /* \"contracts/vesting.sol\":2659:2675  tokensToBeVested */\n      dup6\n        /* \"contracts/vesting.sol\":2659:2697  tokensToBeVested - alreadyVestedTokens */\n      tag_89\n      swap2\n      swap1\n      tag_78\n      jump\t// in\n    tag_89:\n        /* \"contracts/vesting.sol\":2638:2697  uint vestingAmount = tokensToBeVested - alreadyVestedTokens */\n      swap1\n      pop\n        /* \"contracts/vesting.sol\":2728:2743  remainingTokens */\n      dup2\n        /* \"contracts/vesting.sol\":2712:2725  vestingAmount */\n      dup2\n        /* \"contracts/vesting.sol\":2712:2743  vestingAmount > remainingTokens */\n      gt\n        /* \"contracts/vesting.sol\":2708:2801  if (vestingAmount > remainingTokens) {... */\n      iszero\n      tag_90\n      jumpi\n        /* \"contracts/vesting.sol\":2775:2790  remainingTokens */\n      dup2\n        /* \"contracts/vesting.sol\":2759:2790  vestingAmount = remainingTokens */\n      swap1\n      pop\n        /* \"contracts/vesting.sol\":2708:2801  if (vestingAmount > remainingTokens) {... */\n    tag_90:\n        /* \"contracts/vesting.sol\":2818:2831  vestingAmount */\n      dup1\n        /* \"contracts/vesting.sol\":2811:2831  return vestingAmount */\n      swap6\n      pop\n      pop\n      pop\n      pop\n      pop\n      pop\n        /* \"contracts/vesting.sol\":1489:1490  _ */\n    tag_74:\n        /* \"contracts/vesting.sol\":1656:2838  function vestingTokens(address beneficiary) public view cliffPeriodDone returns (uint) {... */\n      swap2\n      swap1\n      pop\n      jump\t// out\n        /* \"contracts/vesting.sol\":248:269  uint public startTime */\n    tag_45:\n      sload(0x04)\n      dup2\n      jump\t// out\n        /* \"contracts/vesting.sol\":2844:3138  function release() public isBeneficiary cliffPeriodDone {... */\n    tag_48:\n        /* \"contracts/vesting.sol\":1330:1331  0 */\n      0x00\n        /* \"contracts/vesting.sol\":1302:1315  beneficiaries */\n      0x07\n        /* \"contracts/vesting.sol\":1302:1327  beneficiaries[msg.sender] */\n      0x00\n        /* \"contracts/vesting.sol\":1316:1326  msg.sender */\n      caller\n        /* \"contracts/vesting.sol\":1302:1327  beneficiaries[msg.sender] */\n      0xffffffffffffffffffffffffffffffffffffffff\n      and\n      0xffffffffffffffffffffffffffffffffffffffff\n      and\n      dup2\n      mstore\n      0x20\n      add\n      swap1\n      dup2\n      mstore\n      0x20\n      add\n      0x00\n      keccak256\n      sload\n        /* \"contracts/vesting.sol\":1302:1331  beneficiaries[msg.sender] > 0 */\n      gt\n        /* \"contracts/vesting.sol\":1294:1360  require(beneficiaries[msg.sender] > 0, \"Only beneficiary allowed\") */\n      tag_92\n      jumpi\n      mload(0x40)\n      0x08c379a000000000000000000000000000000000000000000000000000000000\n      dup2\n      mstore\n      0x04\n      add\n      tag_93\n      swap1\n      tag_94\n      jump\t// in\n    tag_93:\n      mload(0x40)\n      dup1\n      swap2\n      sub\n      swap1\n      revert\n    tag_92:\n        /* \"contracts/vesting.sol\":1448:1453  cliff */\n      sload(0x01)\n        /* \"contracts/vesting.sol\":1429:1444  block.timestamp */\n      timestamp\n        /* \"contracts/vesting.sol\":1429:1453  block.timestamp >= cliff */\n      lt\n      iszero\n        /* \"contracts/vesting.sol\":1421:1479  require(block.timestamp >= cliff, \"Cliff period not done\") */\n      tag_96\n      jumpi\n      mload(0x40)\n      0x08c379a000000000000000000000000000000000000000000000000000000000\n      dup2\n      mstore\n      0x04\n      add\n      tag_97\n      swap1\n      tag_73\n      jump\t// in\n    tag_97:\n      mload(0x40)\n      dup1\n      swap2\n      sub\n      swap1\n      revert\n    tag_96:\n        /* \"contracts/vesting.sol\":2910:2921  uint amount */\n      0x00\n        /* \"contracts/vesting.sol\":2924:2949  vestingTokens(msg.sender) */\n      tag_99\n        /* \"contracts/vesting.sol\":2938:2948  msg.sender */\n      caller\n        /* \"contracts/vesting.sol\":2924:2937  vestingTokens */\n      tag_42\n        /* \"contracts/vesting.sol\":2924:2949  vestingTokens(msg.sender) */\n      jump\t// in\n    tag_99:\n        /* \"contracts/vesting.sol\":2910:2949  uint amount = vestingTokens(msg.sender) */\n      swap1\n      pop\n        /* \"contracts/vesting.sol\":2977:2978  0 */\n      0x00\n        /* \"contracts/vesting.sol\":2968:2974  amount */\n      dup2\n        /* \"contracts/vesting.sol\":2968:2978  amount > 0 */\n      gt\n        /* \"contracts/vesting.sol\":2960:3003  require(amount > 0, \"No tokens to release\") */\n      tag_100\n      jumpi\n      mload(0x40)\n      0x08c379a000000000000000000000000000000000000000000000000000000000\n      dup2\n      mstore\n      0x04\n      add\n      tag_101\n      swap1\n      tag_102\n      jump\t// in\n    tag_101:\n      mload(0x40)\n      dup1\n      swap2\n      sub\n      swap1\n      revert\n    tag_100:\n        /* \"contracts/vesting.sol\":3046:3052  amount */\n      dup1\n        /* \"contracts/vesting.sol\":3014:3030  noOfVestedTokens */\n      0x08\n        /* \"contracts/vesting.sol\":3014:3042  noOfVestedTokens[msg.sender] */\n      0x00\n        /* \"contracts/vesting.sol\":3031:3041  msg.sender */\n      caller\n        /* \"contracts/vesting.sol\":3014:3042  noOfVestedTokens[msg.sender] */\n      0xffffffffffffffffffffffffffffffffffffffff\n      and\n      0xffffffffffffffffffffffffffffffffffffffff\n      and\n      dup2\n      mstore\n      0x20\n      add\n      swap1\n      dup2\n      mstore\n      0x20\n      add\n      0x00\n      keccak256\n      0x00\n        /* \"contracts/vesting.sol\":3014:3052  noOfVestedTokens[msg.sender] += amount */\n      dup3\n      dup3\n      sload\n      tag_103\n      swap2\n      swap1\n      tag_104\n      jump\t// in\n    tag_103:\n      swap3\n      pop\n      pop\n      dup2\n      swap1\n      sstore\n      pop\n        /* \"contracts/vesting.sol\":3080:3086  amount */\n      dup1\n        /* \"contracts/vesting.sol\":3062:3076  tokensReleased */\n      0x03\n      0x00\n        /* \"contracts/vesting.sol\":3062:3086  tokensReleased += amount */\n      dup3\n      dup3\n      sload\n      tag_105\n      swap2\n      swap1\n      tag_104\n      jump\t// in\n    tag_105:\n      swap3\n      pop\n      pop\n      dup2\n      swap1\n      sstore\n      pop\n        /* \"contracts/vesting.sol\":3097:3102  token */\n      0x06\n      0x00\n      swap1\n      sload\n      swap1\n      0x0100\n      exp\n      swap1\n      div\n      0xffffffffffffffffffffffffffffffffffffffff\n      and\n        /* \"contracts/vesting.sol\":3097:3111  token.transfer */\n      0xffffffffffffffffffffffffffffffffffffffff\n      and\n      0xa9059cbb\n        /* \"contracts/vesting.sol\":3112:3122  msg.sender */\n      caller\n        /* \"contracts/vesting.sol\":3124:3130  amount */\n      dup4\n        /* \"contracts/vesting.sol\":3097:3131  token.transfer(msg.sender, amount) */\n      mload(0x40)\n      dup4\n      0xffffffff\n      and\n      0xe0\n      shl\n      dup2\n      mstore\n      0x04\n      add\n      tag_106\n      swap3\n      swap2\n      swap1\n      tag_107\n      jump\t// in\n    tag_106:\n      0x20\n      mload(0x40)\n      dup1\n      dup4\n      sub\n      dup2\n      0x00\n      dup8\n      gas\n      call\n      iszero\n      dup1\n      iszero\n      tag_109\n      jumpi\n      returndatasize\n      0x00\n      dup1\n      returndatacopy\n      revert(0x00, returndatasize)\n    tag_109:\n      pop\n      pop\n      pop\n      pop\n      mload(0x40)\n      returndatasize\n      not(0x1f)\n      0x1f\n      dup3\n      add\n      and\n      dup3\n      add\n      dup1\n      0x40\n      mstore\n      pop\n      dup2\n      add\n      swap1\n      tag_110\n      swap2\n      swap1\n      tag_111\n      jump\t// in\n    tag_110:\n      pop\n        /* \"contracts/vesting.sol\":2900:3138  {... */\n      pop\n        /* \"contracts/vesting.sol\":2844:3138  function release() public isBeneficiary cliffPeriodDone {... */\n      jump\t// out\n        /* \"contracts/vesting.sol\":216:242  uint public tokensReleased */\n    tag_50:\n      sload(0x03)\n      dup2\n      jump\t// out\n        /* \"contracts/vesting.sol\":275:295  address public owner */\n    tag_53:\n      0x05\n      0x00\n      swap1\n      sload\n      swap1\n      0x0100\n      exp\n      swap1\n      div\n      0xffffffffffffffffffffffffffffffffffffffff\n      and\n      dup2\n      jump\t// out\n        /* \"contracts/vesting.sol\":1503:1650  function addBeneficiary(address _newBeneficiary, uint _tokensToLock) public isOwner {... */\n    tag_59:\n        /* \"contracts/vesting.sol\":1207:1212  owner */\n      0x05\n      0x00\n      swap1\n      sload\n      swap1\n      0x0100\n      exp\n      swap1\n      div\n      0xffffffffffffffffffffffffffffffffffffffff\n      and\n        /* \"contracts/vesting.sol\":1193:1212  msg.sender == owner */\n      0xffffffffffffffffffffffffffffffffffffffff\n      and\n        /* \"contracts/vesting.sol\":1193:1203  msg.sender */\n      caller\n        /* \"contracts/vesting.sol\":1193:1212  msg.sender == owner */\n      0xffffffffffffffffffffffffffffffffffffffff\n      and\n      eq\n        /* \"contracts/vesting.sol\":1185:1235  require(msg.sender == owner, \"Only owner allowed\") */\n      tag_113\n      jumpi\n      mload(0x40)\n      0x08c379a000000000000000000000000000000000000000000000000000000000\n      dup2\n      mstore\n      0x04\n      add\n      tag_114\n      swap1\n      tag_115\n      jump\t// in\n    tag_114:\n      mload(0x40)\n      dup1\n      swap2\n      sub\n      swap1\n      revert\n    tag_113:\n        /* \"contracts/vesting.sol\":1630:1643  _tokensToLock */\n      dup1\n        /* \"contracts/vesting.sol\":1597:1610  beneficiaries */\n      0x07\n        /* \"contracts/vesting.sol\":1597:1627  beneficiaries[_newBeneficiary] */\n      0x00\n        /* \"contracts/vesting.sol\":1611:1626  _newBeneficiary */\n      dup5\n        /* \"contracts/vesting.sol\":1597:1627  beneficiaries[_newBeneficiary] */\n      0xffffffffffffffffffffffffffffffffffffffff\n      and\n      0xffffffffffffffffffffffffffffffffffffffff\n      and\n      dup2\n      mstore\n      0x20\n      add\n      swap1\n      dup2\n      mstore\n      0x20\n      add\n      0x00\n      keccak256\n        /* \"contracts/vesting.sol\":1597:1643  beneficiaries[_newBeneficiary] = _tokensToLock */\n      dup2\n      swap1\n      sstore\n      pop\n        /* \"contracts/vesting.sol\":1503:1650  function addBeneficiary(address _newBeneficiary, uint _tokensToLock) public isOwner {... */\n      pop\n      pop\n      jump\t// out\n        /* \"contracts/vesting.sol\":301:320  IERC20 public token */\n    tag_61:\n      0x06\n      0x00\n      swap1\n      sload\n      swap1\n      0x0100\n      exp\n      swap1\n      div\n      0xffffffffffffffffffffffffffffffffffffffff\n      and\n      dup2\n      jump\t// out\n        /* \"#utility.yul\":88:205   */\n    tag_118:\n        /* \"#utility.yul\":197:198   */\n      0x00\n        /* \"#utility.yul\":194:195   */\n      dup1\n        /* \"#utility.yul\":187:199   */\n      revert\n        /* \"#utility.yul\":334:460   */\n    tag_120:\n        /* \"#utility.yul\":371:378   */\n      0x00\n        /* \"#utility.yul\":411:453   */\n      0xffffffffffffffffffffffffffffffffffffffff\n        /* \"#utility.yul\":404:409   */\n      dup3\n        /* \"#utility.yul\":400:454   */\n      and\n        /* \"#utility.yul\":389:454   */\n      swap1\n      pop\n        /* \"#utility.yul\":334:460   */\n      swap2\n      swap1\n      pop\n      jump\t// out\n        /* \"#utility.yul\":466:562   */\n    tag_121:\n        /* \"#utility.yul\":503:510   */\n      0x00\n        /* \"#utility.yul\":532:556   */\n      tag_155\n        /* \"#utility.yul\":550:555   */\n      dup3\n        /* \"#utility.yul\":532:556   */\n      tag_120\n      jump\t// in\n    tag_155:\n        /* \"#utility.yul\":521:556   */\n      swap1\n      pop\n        /* \"#utility.yul\":466:562   */\n      swap2\n      swap1\n      pop\n      jump\t// out\n        /* \"#utility.yul\":568:690   */\n    tag_122:\n        /* \"#utility.yul\":641:665   */\n      tag_157\n        /* \"#utility.yul\":659:664   */\n      dup2\n        /* \"#utility.yul\":641:665   */\n      tag_121\n      jump\t// in\n    tag_157:\n        /* \"#utility.yul\":634:639   */\n      dup2\n        /* \"#utility.yul\":631:666   */\n      eq\n        /* \"#utility.yul\":621:684   */\n      tag_158\n      jumpi\n        /* \"#utility.yul\":680:681   */\n      0x00\n        /* \"#utility.yul\":677:678   */\n      dup1\n        /* \"#utility.yul\":670:682   */\n      revert\n        /* \"#utility.yul\":621:684   */\n    tag_158:\n        /* \"#utility.yul\":568:690   */\n      pop\n      jump\t// out\n        /* \"#utility.yul\":696:835   */\n    tag_123:\n        /* \"#utility.yul\":742:747   */\n      0x00\n        /* \"#utility.yul\":780:786   */\n      dup2\n        /* \"#utility.yul\":767:787   */\n      calldataload\n        /* \"#utility.yul\":758:787   */\n      swap1\n      pop\n        /* \"#utility.yul\":796:829   */\n      tag_160\n        /* \"#utility.yul\":823:828   */\n      dup2\n        /* \"#utility.yul\":796:829   */\n      tag_122\n      jump\t// in\n    tag_160:\n        /* \"#utility.yul\":696:835   */\n      swap3\n      swap2\n      pop\n      pop\n      jump\t// out\n        /* \"#utility.yul\":841:1170   */\n    tag_20:\n        /* \"#utility.yul\":900:906   */\n      0x00\n        /* \"#utility.yul\":949:951   */\n      0x20\n        /* \"#utility.yul\":937:946   */\n      dup3\n        /* \"#utility.yul\":928:935   */\n      dup5\n        /* \"#utility.yul\":924:947   */\n      sub\n        /* \"#utility.yul\":920:952   */\n      slt\n        /* \"#utility.yul\":917:1036   */\n      iszero\n      tag_162\n      jumpi\n        /* \"#utility.yul\":955:1034   */\n      tag_163\n      tag_118\n      jump\t// in\n    tag_163:\n        /* \"#utility.yul\":917:1036   */\n    tag_162:\n        /* \"#utility.yul\":1075:1076   */\n      0x00\n        /* \"#utility.yul\":1100:1153   */\n      tag_164\n        /* \"#utility.yul\":1145:1152   */\n      dup5\n        /* \"#utility.yul\":1136:1142   */\n      dup3\n        /* \"#utility.yul\":1125:1134   */\n      dup6\n        /* \"#utility.yul\":1121:1143   */\n      add\n        /* \"#utility.yul\":1100:1153   */\n      tag_123\n      jump\t// in\n    tag_164:\n        /* \"#utility.yul\":1090:1153   */\n      swap2\n      pop\n        /* \"#utility.yul\":1046:1163   */\n      pop\n        /* \"#utility.yul\":841:1170   */\n      swap3\n      swap2\n      pop\n      pop\n      jump\t// out\n        /* \"#utility.yul\":1176:1253   */\n    tag_124:\n        /* \"#utility.yul\":1213:1220   */\n      0x00\n        /* \"#utility.yul\":1242:1247   */\n      dup2\n        /* \"#utility.yul\":1231:1247   */\n      swap1\n      pop\n        /* \"#utility.yul\":1176:1253   */\n      swap2\n      swap1\n      pop\n      jump\t// out\n        /* \"#utility.yul\":1259:1377   */\n    tag_125:\n        /* \"#utility.yul\":1346:1370   */\n      tag_167\n        /* \"#utility.yul\":1364:1369   */\n      dup2\n        /* \"#utility.yul\":1346:1370   */\n      tag_124\n      jump\t// in\n    tag_167:\n        /* \"#utility.yul\":1341:1344   */\n      dup3\n        /* \"#utility.yul\":1334:1371   */\n      mstore\n        /* \"#utility.yul\":1259:1377   */\n      pop\n      pop\n      jump\t// out\n        /* \"#utility.yul\":1383:1605   */\n    tag_23:\n        /* \"#utility.yul\":1476:1480   */\n      0x00\n        /* \"#utility.yul\":1514:1516   */\n      0x20\n        /* \"#utility.yul\":1503:1512   */\n      dup3\n        /* \"#utility.yul\":1499:1517   */\n      add\n        /* \"#utility.yul\":1491:1517   */\n      swap1\n      pop\n        /* \"#utility.yul\":1527:1598   */\n      tag_169\n        /* \"#utility.yul\":1595:1596   */\n      0x00\n        /* \"#utility.yul\":1584:1593   */\n      dup4\n        /* \"#utility.yul\":1580:1597   */\n      add\n        /* \"#utility.yul\":1571:1577   */\n      dup5\n        /* \"#utility.yul\":1527:1598   */\n      tag_125\n      jump\t// in\n    tag_169:\n        /* \"#utility.yul\":1383:1605   */\n      swap3\n      swap2\n      pop\n      pop\n      jump\t// out\n        /* \"#utility.yul\":1611:1729   */\n    tag_126:\n        /* \"#utility.yul\":1698:1722   */\n      tag_171\n        /* \"#utility.yul\":1716:1721   */\n      dup2\n        /* \"#utility.yul\":1698:1722   */\n      tag_121\n      jump\t// in\n    tag_171:\n        /* \"#utility.yul\":1693:1696   */\n      dup3\n        /* \"#utility.yul\":1686:1723   */\n      mstore\n        /* \"#utility.yul\":1611:1729   */\n      pop\n      pop\n      jump\t// out\n        /* \"#utility.yul\":1735:1957   */\n    tag_55:\n        /* \"#utility.yul\":1828:1832   */\n      0x00\n        /* \"#utility.yul\":1866:1868   */\n      0x20\n        /* \"#utility.yul\":1855:1864   */\n      dup3\n        /* \"#utility.yul\":1851:1869   */\n      add\n        /* \"#utility.yul\":1843:1869   */\n      swap1\n      pop\n        /* \"#utility.yul\":1879:1950   */\n      tag_173\n        /* \"#utility.yul\":1947:1948   */\n      0x00\n        /* \"#utility.yul\":1936:1945   */\n      dup4\n        /* \"#utility.yul\":1932:1949   */\n      add\n        /* \"#utility.yul\":1923:1929   */\n      dup5\n        /* \"#utility.yul\":1879:1950   */\n      tag_126\n      jump\t// in\n    tag_173:\n        /* \"#utility.yul\":1735:1957   */\n      swap3\n      swap2\n      pop\n      pop\n      jump\t// out\n        /* \"#utility.yul\":1963:2085   */\n    tag_127:\n        /* \"#utility.yul\":2036:2060   */\n      tag_175\n        /* \"#utility.yul\":2054:2059   */\n      dup2\n        /* \"#utility.yul\":2036:2060   */\n      tag_124\n      jump\t// in\n    tag_175:\n        /* \"#utility.yul\":2029:2034   */\n      dup2\n        /* \"#utility.yul\":2026:2061   */\n      eq\n        /* \"#utility.yul\":2016:2079   */\n      tag_176\n      jumpi\n        /* \"#utility.yul\":2075:2076   */\n      0x00\n        /* \"#utility.yul\":2072:2073   */\n      dup1\n        /* \"#utility.yul\":2065:2077   */\n      revert\n        /* \"#utility.yul\":2016:2079   */\n    tag_176:\n        /* \"#utility.yul\":1963:2085   */\n      pop\n      jump\t// out\n        /* \"#utility.yul\":2091:2230   */\n    tag_128:\n        /* \"#utility.yul\":2137:2142   */\n      0x00\n        /* \"#utility.yul\":2175:2181   */\n      dup2\n        /* \"#utility.yul\":2162:2182   */\n      calldataload\n        /* \"#utility.yul\":2153:2182   */\n      swap1\n      pop\n        /* \"#utility.yul\":2191:2224   */\n      tag_178\n        /* \"#utility.yul\":2218:2223   */\n      dup2\n        /* \"#utility.yul\":2191:2224   */\n      tag_127\n      jump\t// in\n    tag_178:\n        /* \"#utility.yul\":2091:2230   */\n      swap3\n      swap2\n      pop\n      pop\n      jump\t// out\n        /* \"#utility.yul\":2236:2710   */\n    tag_58:\n        /* \"#utility.yul\":2304:2310   */\n      0x00\n        /* \"#utility.yul\":2312:2318   */\n      dup1\n        /* \"#utility.yul\":2361:2363   */\n      0x40\n        /* \"#utility.yul\":2349:2358   */\n      dup4\n        /* \"#utility.yul\":2340:2347   */\n      dup6\n        /* \"#utility.yul\":2336:2359   */\n      sub\n        /* \"#utility.yul\":2332:2364   */\n      slt\n        /* \"#utility.yul\":2329:2448   */\n      iszero\n      tag_180\n      jumpi\n        /* \"#utility.yul\":2367:2446   */\n      tag_181\n      tag_118\n      jump\t// in\n    tag_181:\n        /* \"#utility.yul\":2329:2448   */\n    tag_180:\n        /* \"#utility.yul\":2487:2488   */\n      0x00\n        /* \"#utility.yul\":2512:2565   */\n      tag_182\n        /* \"#utility.yul\":2557:2564   */\n      dup6\n        /* \"#utility.yul\":2548:2554   */\n      dup3\n        /* \"#utility.yul\":2537:2546   */\n      dup7\n        /* \"#utility.yul\":2533:2555   */\n      add\n        /* \"#utility.yul\":2512:2565   */\n      tag_123\n      jump\t// in\n    tag_182:\n        /* \"#utility.yul\":2502:2565   */\n      swap3\n      pop\n        /* \"#utility.yul\":2458:2575   */\n      pop\n        /* \"#utility.yul\":2614:2616   */\n      0x20\n        /* \"#utility.yul\":2640:2693   */\n      tag_183\n        /* \"#utility.yul\":2685:2692   */\n      dup6\n        /* \"#utility.yul\":2676:2682   */\n      dup3\n        /* \"#utility.yul\":2665:2674   */\n      dup7\n        /* \"#utility.yul\":2661:2683   */\n      add\n        /* \"#utility.yul\":2640:2693   */\n      tag_128\n      jump\t// in\n    tag_183:\n        /* \"#utility.yul\":2630:2693   */\n      swap2\n      pop\n        /* \"#utility.yul\":2585:2703   */\n      pop\n        /* \"#utility.yul\":2236:2710   */\n      swap3\n      pop\n      swap3\n      swap1\n      pop\n      jump\t// out\n        /* \"#utility.yul\":2716:2776   */\n    tag_129:\n        /* \"#utility.yul\":2744:2747   */\n      0x00\n        /* \"#utility.yul\":2765:2770   */\n      dup2\n        /* \"#utility.yul\":2758:2770   */\n      swap1\n      pop\n        /* \"#utility.yul\":2716:2776   */\n      swap2\n      swap1\n      pop\n      jump\t// out\n        /* \"#utility.yul\":2782:2924   */\n    tag_130:\n        /* \"#utility.yul\":2832:2841   */\n      0x00\n        /* \"#utility.yul\":2865:2918   */\n      tag_186\n        /* \"#utility.yul\":2883:2917   */\n      tag_187\n        /* \"#utility.yul\":2892:2916   */\n      tag_188\n        /* \"#utility.yul\":2910:2915   */\n      dup5\n        /* \"#utility.yul\":2892:2916   */\n      tag_120\n      jump\t// in\n    tag_188:\n        /* \"#utility.yul\":2883:2917   */\n      tag_129\n      jump\t// in\n    tag_187:\n        /* \"#utility.yul\":2865:2918   */\n      tag_120\n      jump\t// in\n    tag_186:\n        /* \"#utility.yul\":2852:2918   */\n      swap1\n      pop\n        /* \"#utility.yul\":2782:2924   */\n      swap2\n      swap1\n      pop\n      jump\t// out\n        /* \"#utility.yul\":2930:3056   */\n    tag_131:\n        /* \"#utility.yul\":2980:2989   */\n      0x00\n        /* \"#utility.yul\":3013:3050   */\n      tag_190\n        /* \"#utility.yul\":3044:3049   */\n      dup3\n        /* \"#utility.yul\":3013:3050   */\n      tag_130\n      jump\t// in\n    tag_190:\n        /* \"#utility.yul\":3000:3050   */\n      swap1\n      pop\n        /* \"#utility.yul\":2930:3056   */\n      swap2\n      swap1\n      pop\n      jump\t// out\n        /* \"#utility.yul\":3062:3201   */\n    tag_132:\n        /* \"#utility.yul\":3125:3134   */\n      0x00\n        /* \"#utility.yul\":3158:3195   */\n      tag_192\n        /* \"#utility.yul\":3189:3194   */\n      dup3\n        /* \"#utility.yul\":3158:3195   */\n      tag_131\n      jump\t// in\n    tag_192:\n        /* \"#utility.yul\":3145:3195   */\n      swap1\n      pop\n        /* \"#utility.yul\":3062:3201   */\n      swap2\n      swap1\n      pop\n      jump\t// out\n        /* \"#utility.yul\":3207:3364   */\n    tag_133:\n        /* \"#utility.yul\":3307:3357   */\n      tag_194\n        /* \"#utility.yul\":3351:3356   */\n      dup2\n        /* \"#utility.yul\":3307:3357   */\n      tag_132\n      jump\t// in\n    tag_194:\n        /* \"#utility.yul\":3302:3305   */\n      dup3\n        /* \"#utility.yul\":3295:3358   */\n      mstore\n        /* \"#utility.yul\":3207:3364   */\n      pop\n      pop\n      jump\t// out\n        /* \"#utility.yul\":3370:3618   */\n    tag_63:\n        /* \"#utility.yul\":3476:3480   */\n      0x00\n        /* \"#utility.yul\":3514:3516   */\n      0x20\n        /* \"#utility.yul\":3503:3512   */\n      dup3\n        /* \"#utility.yul\":3499:3517   */\n      add\n        /* \"#utility.yul\":3491:3517   */\n      swap1\n      pop\n        /* \"#utility.yul\":3527:3611   */\n      tag_196\n        /* \"#utility.yul\":3608:3609   */\n      0x00\n        /* \"#utility.yul\":3597:3606   */\n      dup4\n        /* \"#utility.yul\":3593:3610   */\n      add\n        /* \"#utility.yul\":3584:3590   */\n      dup5\n        /* \"#utility.yul\":3527:3611   */\n      tag_133\n      jump\t// in\n    tag_196:\n        /* \"#utility.yul\":3370:3618   */\n      swap3\n      swap2\n      pop\n      pop\n      jump\t// out\n        /* \"#utility.yul\":3624:3767   */\n    tag_134:\n        /* \"#utility.yul\":3681:3686   */\n      0x00\n        /* \"#utility.yul\":3712:3718   */\n      dup2\n        /* \"#utility.yul\":3706:3719   */\n      mload\n        /* \"#utility.yul\":3697:3719   */\n      swap1\n      pop\n        /* \"#utility.yul\":3728:3761   */\n      tag_198\n        /* \"#utility.yul\":3755:3760   */\n      dup2\n        /* \"#utility.yul\":3728:3761   */\n      tag_127\n      jump\t// in\n    tag_198:\n        /* \"#utility.yul\":3624:3767   */\n      swap3\n      swap2\n      pop\n      pop\n      jump\t// out\n        /* \"#utility.yul\":3773:4124   */\n    tag_69:\n        /* \"#utility.yul\":3843:3849   */\n      0x00\n        /* \"#utility.yul\":3892:3894   */\n      0x20\n        /* \"#utility.yul\":3880:3889   */\n      dup3\n        /* \"#utility.yul\":3871:3878   */\n      dup5\n        /* \"#utility.yul\":3867:3890   */\n      sub\n        /* \"#utility.yul\":3863:3895   */\n      slt\n        /* \"#utility.yul\":3860:3979   */\n      iszero\n      tag_200\n      jumpi\n        /* \"#utility.yul\":3898:3977   */\n      tag_201\n      tag_118\n      jump\t// in\n    tag_201:\n        /* \"#utility.yul\":3860:3979   */\n    tag_200:\n        /* \"#utility.yul\":4018:4019   */\n      0x00\n        /* \"#utility.yul\":4043:4107   */\n      tag_202\n        /* \"#utility.yul\":4099:4106   */\n      dup5\n        /* \"#utility.yul\":4090:4096   */\n      dup3\n        /* \"#utility.yul\":4079:4088   */\n      dup6\n        /* \"#utility.yul\":4075:4097   */\n      add\n        /* \"#utility.yul\":4043:4107   */\n      tag_134\n      jump\t// in\n    tag_202:\n        /* \"#utility.yul\":4033:4107   */\n      swap2\n      pop\n        /* \"#utility.yul\":3989:4117   */\n      pop\n        /* \"#utility.yul\":3773:4124   */\n      swap3\n      swap2\n      pop\n      pop\n      jump\t// out\n        /* \"#utility.yul\":4130:4299   */\n    tag_135:\n        /* \"#utility.yul\":4214:4225   */\n      0x00\n        /* \"#utility.yul\":4248:4254   */\n      dup3\n        /* \"#utility.yul\":4243:4246   */\n      dup3\n        /* \"#utility.yul\":4236:4255   */\n      mstore\n        /* \"#utility.yul\":4288:4292   */\n      0x20\n        /* \"#utility.yul\":4283:4286   */\n      dup3\n        /* \"#utility.yul\":4279:4293   */\n      add\n        /* \"#utility.yul\":4264:4293   */\n      swap1\n      pop\n        /* \"#utility.yul\":4130:4299   */\n      swap3\n      swap2\n      pop\n      pop\n      jump\t// out\n        /* \"#utility.yul\":4305:4476   */\n    tag_136:\n        /* \"#utility.yul\":4445:4468   */\n      0x436c69666620706572696f64206e6f7420646f6e650000000000000000000000\n        /* \"#utility.yul\":4441:4442   */\n      0x00\n        /* \"#utility.yul\":4433:4439   */\n      dup3\n        /* \"#utility.yul\":4429:4443   */\n      add\n        /* \"#utility.yul\":4422:4469   */\n      mstore\n        /* \"#utility.yul\":4305:4476   */\n      pop\n      jump\t// out\n        /* \"#utility.yul\":4482:4848   */\n    tag_137:\n        /* \"#utility.yul\":4624:4627   */\n      0x00\n        /* \"#utility.yul\":4645:4712   */\n      tag_206\n        /* \"#utility.yul\":4709:4711   */\n      0x15\n        /* \"#utility.yul\":4704:4707   */\n      dup4\n        /* \"#utility.yul\":4645:4712   */\n      tag_135\n      jump\t// in\n    tag_206:\n        /* \"#utility.yul\":4638:4712   */\n      swap2\n      pop\n        /* \"#utility.yul\":4721:4814   */\n      tag_207\n        /* \"#utility.yul\":4810:4813   */\n      dup3\n        /* \"#utility.yul\":4721:4814   */\n      tag_136\n      jump\t// in\n    tag_207:\n        /* \"#utility.yul\":4839:4841   */\n      0x20\n        /* \"#utility.yul\":4834:4837   */\n      dup3\n        /* \"#utility.yul\":4830:4842   */\n      add\n        /* \"#utility.yul\":4823:4842   */\n      swap1\n      pop\n        /* \"#utility.yul\":4482:4848   */\n      swap2\n      swap1\n      pop\n      jump\t// out\n        /* \"#utility.yul\":4854:5273   */\n    tag_73:\n        /* \"#utility.yul\":5020:5024   */\n      0x00\n        /* \"#utility.yul\":5058:5060   */\n      0x20\n        /* \"#utility.yul\":5047:5056   */\n      dup3\n        /* \"#utility.yul\":5043:5061   */\n      add\n        /* \"#utility.yul\":5035:5061   */\n      swap1\n      pop\n        /* \"#utility.yul\":5107:5116   */\n      dup2\n        /* \"#utility.yul\":5101:5105   */\n      dup2\n        /* \"#utility.yul\":5097:5117   */\n      sub\n        /* \"#utility.yul\":5093:5094   */\n      0x00\n        /* \"#utility.yul\":5082:5091   */\n      dup4\n        /* \"#utility.yul\":5078:5095   */\n      add\n        /* \"#utility.yul\":5071:5118   */\n      mstore\n        /* \"#utility.yul\":5135:5266   */\n      tag_209\n        /* \"#utility.yul\":5261:5265   */\n      dup2\n        /* \"#utility.yul\":5135:5266   */\n      tag_137\n      jump\t// in\n    tag_209:\n        /* \"#utility.yul\":5127:5266   */\n      swap1\n      pop\n        /* \"#utility.yul\":4854:5273   */\n      swap2\n      swap1\n      pop\n      jump\t// out\n        /* \"#utility.yul\":5279:5459   */\n    tag_138:\n        /* \"#utility.yul\":5327:5404   */\n      0x4e487b7100000000000000000000000000000000000000000000000000000000\n        /* \"#utility.yul\":5324:5325   */\n      0x00\n        /* \"#utility.yul\":5317:5405   */\n      mstore\n        /* \"#utility.yul\":5424:5428   */\n      0x11\n        /* \"#utility.yul\":5421:5422   */\n      0x04\n        /* \"#utility.yul\":5414:5429   */\n      mstore\n        /* \"#utility.yul\":5448:5452   */\n      0x24\n        /* \"#utility.yul\":5445:5446   */\n      0x00\n        /* \"#utility.yul\":5438:5453   */\n      revert\n        /* \"#utility.yul\":5465:5659   */\n    tag_78:\n        /* \"#utility.yul\":5505:5509   */\n      0x00\n        /* \"#utility.yul\":5525:5545   */\n      tag_212\n        /* \"#utility.yul\":5543:5544   */\n      dup3\n        /* \"#utility.yul\":5525:5545   */\n      tag_124\n      jump\t// in\n    tag_212:\n        /* \"#utility.yul\":5520:5545   */\n      swap2\n      pop\n        /* \"#utility.yul\":5559:5579   */\n      tag_213\n        /* \"#utility.yul\":5577:5578   */\n      dup4\n        /* \"#utility.yul\":5559:5579   */\n      tag_124\n      jump\t// in\n    tag_213:\n        /* \"#utility.yul\":5554:5579   */\n      swap3\n      pop\n        /* \"#utility.yul\":5603:5604   */\n      dup3\n        /* \"#utility.yul\":5600:5601   */\n      dup3\n        /* \"#utility.yul\":5596:5605   */\n      sub\n        /* \"#utility.yul\":5588:5605   */\n      swap1\n      pop\n        /* \"#utility.yul\":5627:5628   */\n      dup2\n        /* \"#utility.yul\":5621:5625   */\n      dup2\n        /* \"#utility.yul\":5618:5629   */\n      gt\n        /* \"#utility.yul\":5615:5652   */\n      iszero\n      tag_214\n      jumpi\n        /* \"#utility.yul\":5632:5650   */\n      tag_215\n      tag_138\n      jump\t// in\n    tag_215:\n        /* \"#utility.yul\":5615:5652   */\n    tag_214:\n        /* \"#utility.yul\":5465:5659   */\n      swap3\n      swap2\n      pop\n      pop\n      jump\t// out\n        /* \"#utility.yul\":5665:5845   */\n    tag_139:\n        /* \"#utility.yul\":5713:5790   */\n      0x4e487b7100000000000000000000000000000000000000000000000000000000\n        /* \"#utility.yul\":5710:5711   */\n      0x00\n        /* \"#utility.yul\":5703:5791   */\n      mstore\n        /* \"#utility.yul\":5810:5814   */\n      0x12\n        /* \"#utility.yul\":5807:5808   */\n      0x04\n        /* \"#utility.yul\":5800:5815   */\n      mstore\n        /* \"#utility.yul\":5834:5838   */\n      0x24\n        /* \"#utility.yul\":5831:5832   */\n      0x00\n        /* \"#utility.yul\":5824:5839   */\n      revert\n        /* \"#utility.yul\":5851:6036   */\n    tag_80:\n        /* \"#utility.yul\":5891:5892   */\n      0x00\n        /* \"#utility.yul\":5908:5928   */\n      tag_218\n        /* \"#utility.yul\":5926:5927   */\n      dup3\n        /* \"#utility.yul\":5908:5928   */\n      tag_124\n      jump\t// in\n    tag_218:\n        /* \"#utility.yul\":5903:5928   */\n      swap2\n      pop\n        /* \"#utility.yul\":5942:5962   */\n      tag_219\n        /* \"#utility.yul\":5960:5961   */\n      dup4\n        /* \"#utility.yul\":5942:5962   */\n      tag_124\n      jump\t// in\n    tag_219:\n        /* \"#utility.yul\":5937:5962   */\n      swap3\n      pop\n        /* \"#utility.yul\":5981:5982   */\n      dup3\n        /* \"#utility.yul\":5971:6006   */\n      tag_220\n      jumpi\n        /* \"#utility.yul\":5986:6004   */\n      tag_221\n      tag_139\n      jump\t// in\n    tag_221:\n        /* \"#utility.yul\":5971:6006   */\n    tag_220:\n        /* \"#utility.yul\":6028:6029   */\n      dup3\n        /* \"#utility.yul\":6025:6026   */\n      dup3\n        /* \"#utility.yul\":6021:6030   */\n      div\n        /* \"#utility.yul\":6016:6030   */\n      swap1\n      pop\n        /* \"#utility.yul\":5851:6036   */\n      swap3\n      swap2\n      pop\n      pop\n      jump\t// out\n        /* \"#utility.yul\":6042:6452   */\n    tag_87:\n        /* \"#utility.yul\":6082:6089   */\n      0x00\n        /* \"#utility.yul\":6105:6125   */\n      tag_223\n        /* \"#utility.yul\":6123:6124   */\n      dup3\n        /* \"#utility.yul\":6105:6125   */\n      tag_124\n      jump\t// in\n    tag_223:\n        /* \"#utility.yul\":6100:6125   */\n      swap2\n      pop\n        /* \"#utility.yul\":6139:6159   */\n      tag_224\n        /* \"#utility.yul\":6157:6158   */\n      dup4\n        /* \"#utility.yul\":6139:6159   */\n      tag_124\n      jump\t// in\n    tag_224:\n        /* \"#utility.yul\":6134:6159   */\n      swap3\n      pop\n        /* \"#utility.yul\":6194:6195   */\n      dup3\n        /* \"#utility.yul\":6191:6192   */\n      dup3\n        /* \"#utility.yul\":6187:6196   */\n      mul\n        /* \"#utility.yul\":6216:6246   */\n      tag_225\n        /* \"#utility.yul\":6234:6245   */\n      dup2\n        /* \"#utility.yul\":6216:6246   */\n      tag_124\n      jump\t// in\n    tag_225:\n        /* \"#utility.yul\":6205:6246   */\n      swap2\n      pop\n        /* \"#utility.yul\":6395:6396   */\n      dup3\n        /* \"#utility.yul\":6386:6393   */\n      dup3\n        /* \"#utility.yul\":6382:6397   */\n      div\n        /* \"#utility.yul\":6379:6380   */\n      dup5\n        /* \"#utility.yul\":6376:6398   */\n      eq\n        /* \"#utility.yul\":6356:6357   */\n      dup4\n        /* \"#utility.yul\":6349:6358   */\n      iszero\n        /* \"#utility.yul\":6329:6412   */\n      or\n        /* \"#utility.yul\":6306:6445   */\n      tag_226\n      jumpi\n        /* \"#utility.yul\":6425:6443   */\n      tag_227\n      tag_138\n      jump\t// in\n    tag_227:\n        /* \"#utility.yul\":6306:6445   */\n    tag_226:\n        /* \"#utility.yul\":6090:6452   */\n      pop\n        /* \"#utility.yul\":6042:6452   */\n      swap3\n      swap2\n      pop\n      pop\n      jump\t// out\n        /* \"#utility.yul\":6458:6632   */\n    tag_140:\n        /* \"#utility.yul\":6598:6624   */\n      0x4f6e6c792062656e656669636961727920616c6c6f7765640000000000000000\n        /* \"#utility.yul\":6594:6595   */\n      0x00\n        /* \"#utility.yul\":6586:6592   */\n      dup3\n        /* \"#utility.yul\":6582:6596   */\n      add\n        /* \"#utility.yul\":6575:6625   */\n      mstore\n        /* \"#utility.yul\":6458:6632   */\n      pop\n      jump\t// out\n        /* \"#utility.yul\":6638:7004   */\n    tag_141:\n        /* \"#utility.yul\":6780:6783   */\n      0x00\n        /* \"#utility.yul\":6801:6868   */\n      tag_230\n        /* \"#utility.yul\":6865:6867   */\n      0x18\n        /* \"#utility.yul\":6860:6863   */\n      dup4\n        /* \"#utility.yul\":6801:6868   */\n      tag_135\n      jump\t// in\n    tag_230:\n        /* \"#utility.yul\":6794:6868   */\n      swap2\n      pop\n        /* \"#utility.yul\":6877:6970   */\n      tag_231\n        /* \"#utility.yul\":6966:6969   */\n      dup3\n        /* \"#utility.yul\":6877:6970   */\n      tag_140\n      jump\t// in\n    tag_231:\n        /* \"#utility.yul\":6995:6997   */\n      0x20\n        /* \"#utility.yul\":6990:6993   */\n      dup3\n        /* \"#utility.yul\":6986:6998   */\n      add\n        /* \"#utility.yul\":6979:6998   */\n      swap1\n      pop\n        /* \"#utility.yul\":6638:7004   */\n      swap2\n      swap1\n      pop\n      jump\t// out\n        /* \"#utility.yul\":7010:7429   */\n    tag_94:\n        /* \"#utility.yul\":7176:7180   */\n      0x00\n        /* \"#utility.yul\":7214:7216   */\n      0x20\n        /* \"#utility.yul\":7203:7212   */\n      dup3\n        /* \"#utility.yul\":7199:7217   */\n      add\n        /* \"#utility.yul\":7191:7217   */\n      swap1\n      pop\n        /* \"#utility.yul\":7263:7272   */\n      dup2\n        /* \"#utility.yul\":7257:7261   */\n      dup2\n        /* \"#utility.yul\":7253:7273   */\n      sub\n        /* \"#utility.yul\":7249:7250   */\n      0x00\n        /* \"#utility.yul\":7238:7247   */\n      dup4\n        /* \"#utility.yul\":7234:7251   */\n      add\n        /* \"#utility.yul\":7227:7274   */\n      mstore\n        /* \"#utility.yul\":7291:7422   */\n      tag_233\n        /* \"#utility.yul\":7417:7421   */\n      dup2\n        /* \"#utility.yul\":7291:7422   */\n      tag_141\n      jump\t// in\n    tag_233:\n        /* \"#utility.yul\":7283:7422   */\n      swap1\n      pop\n        /* \"#utility.yul\":7010:7429   */\n      swap2\n      swap1\n      pop\n      jump\t// out\n        /* \"#utility.yul\":7435:7605   */\n    tag_142:\n        /* \"#utility.yul\":7575:7597   */\n      0x4e6f20746f6b656e7320746f2072656c65617365000000000000000000000000\n        /* \"#utility.yul\":7571:7572   */\n      0x00\n        /* \"#utility.yul\":7563:7569   */\n      dup3\n        /* \"#utility.yul\":7559:7573   */\n      add\n        /* \"#utility.yul\":7552:7598   */\n      mstore\n        /* \"#utility.yul\":7435:7605   */\n      pop\n      jump\t// out\n        /* \"#utility.yul\":7611:7977   */\n    tag_143:\n        /* \"#utility.yul\":7753:7756   */\n      0x00\n        /* \"#utility.yul\":7774:7841   */\n      tag_236\n        /* \"#utility.yul\":7838:7840   */\n      0x14\n        /* \"#utility.yul\":7833:7836   */\n      dup4\n        /* \"#utility.yul\":7774:7841   */\n      tag_135\n      jump\t// in\n    tag_236:\n        /* \"#utility.yul\":7767:7841   */\n      swap2\n      pop\n        /* \"#utility.yul\":7850:7943   */\n      tag_237\n        /* \"#utility.yul\":7939:7942   */\n      dup3\n        /* \"#utility.yul\":7850:7943   */\n      tag_142\n      jump\t// in\n    tag_237:\n        /* \"#utility.yul\":7968:7970   */\n      0x20\n        /* \"#utility.yul\":7963:7966   */\n      dup3\n        /* \"#utility.yul\":7959:7971   */\n      add\n        /* \"#utility.yul\":7952:7971   */\n      swap1\n      pop\n        /* \"#utility.yul\":7611:7977   */\n      swap2\n      swap1\n      pop\n      jump\t// out\n        /* \"#utility.yul\":7983:8402   */\n    tag_102:\n        /* \"#utility.yul\":8149:8153   */\n      0x00\n        /* \"#utility.yul\":8187:8189   */\n      0x20\n        /* \"#utility.yul\":8176:8185   */\n      dup3\n        /* \"#utility.yul\":8172:8190   */\n      add\n        /* \"#utility.yul\":8164:8190   */\n      swap1\n      pop\n        /* \"#utility.yul\":8236:8245   */\n      dup2\n        /* \"#utility.yul\":8230:8234   */\n      dup2\n        /* \"#utility.yul\":8226:8246   */\n      sub\n        /* \"#utility.yul\":8222:8223   */\n      0x00\n        /* \"#utility.yul\":8211:8220   */\n      dup4\n        /* \"#utility.yul\":8207:8224   */\n      add\n        /* \"#utility.yul\":8200:8247   */\n      mstore\n        /* \"#utility.yul\":8264:8395   */\n      tag_239\n        /* \"#utility.yul\":8390:8394   */\n      dup2\n        /* \"#utility.yul\":8264:8395   */\n      tag_143\n      jump\t// in\n    tag_239:\n        /* \"#utility.yul\":8256:8395   */\n      swap1\n      pop\n        /* \"#utility.yul\":7983:8402   */\n      swap2\n      swap1\n      pop\n      jump\t// out\n        /* \"#utility.yul\":8408:8599   */\n    tag_104:\n        /* \"#utility.yul\":8448:8451   */\n      0x00\n        /* \"#utility.yul\":8467:8487   */\n      tag_241\n        /* \"#utility.yul\":8485:8486   */\n      dup3\n        /* \"#utility.yul\":8467:8487   */\n      tag_124\n      jump\t// in\n    tag_241:\n        /* \"#utility.yul\":8462:8487   */\n      swap2\n      pop\n        /* \"#utility.yul\":8501:8521   */\n      tag_242\n        /* \"#utility.yul\":8519:8520   */\n      dup4\n        /* \"#utility.yul\":8501:8521   */\n      tag_124\n      jump\t// in\n    tag_242:\n        /* \"#utility.yul\":8496:8521   */\n      swap3\n      pop\n        /* \"#utility.yul\":8544:8545   */\n      dup3\n        /* \"#utility.yul\":8541:8542   */\n      dup3\n        /* \"#utility.yul\":8537:8546   */\n      add\n        /* \"#utility.yul\":8530:8546   */\n      swap1\n      pop\n        /* \"#utility.yul\":8565:8568   */\n      dup1\n        /* \"#utility.yul\":8562:8563   */\n      dup3\n        /* \"#utility.yul\":8559:8569   */\n      gt\n        /* \"#utility.yul\":8556:8592   */\n      iszero\n      tag_243\n      jumpi\n        /* \"#utility.yul\":8572:8590   */\n      tag_244\n      tag_138\n      jump\t// in\n    tag_244:\n        /* \"#utility.yul\":8556:8592   */\n    tag_243:\n        /* \"#utility.yul\":8408:8599   */\n      swap3\n      swap2\n      pop\n      pop\n      jump\t// out\n        /* \"#utility.yul\":8605:8937   */\n    tag_107:\n        /* \"#utility.yul\":8726:8730   */\n      0x00\n        /* \"#utility.yul\":8764:8766   */\n      0x40\n        /* \"#utility.yul\":8753:8762   */\n      dup3\n        /* \"#utility.yul\":8749:8767   */\n      add\n        /* \"#utility.yul\":8741:8767   */\n      swap1\n      pop\n        /* \"#utility.yul\":8777:8848   */\n      tag_246\n        /* \"#utility.yul\":8845:8846   */\n      0x00\n        /* \"#utility.yul\":8834:8843   */\n      dup4\n        /* \"#utility.yul\":8830:8847   */\n      add\n        /* \"#utility.yul\":8821:8827   */\n      dup6\n        /* \"#utility.yul\":8777:8848   */\n      tag_126\n      jump\t// in\n    tag_246:\n        /* \"#utility.yul\":8858:8930   */\n      tag_247\n        /* \"#utility.yul\":8926:8928   */\n      0x20\n        /* \"#utility.yul\":8915:8924   */\n      dup4\n        /* \"#utility.yul\":8911:8929   */\n      add\n        /* \"#utility.yul\":8902:8908   */\n      dup5\n        /* \"#utility.yul\":8858:8930   */\n      tag_125\n      jump\t// in\n    tag_247:\n        /* \"#utility.yul\":8605:8937   */\n      swap4\n      swap3\n      pop\n      pop\n      pop\n      jump\t// out\n        /* \"#utility.yul\":8943:9033   */\n    tag_144:\n        /* \"#utility.yul\":8977:8984   */\n      0x00\n        /* \"#utility.yul\":9020:9025   */\n      dup2\n        /* \"#utility.yul\":9013:9026   */\n      iszero\n        /* \"#utility.yul\":9006:9027   */\n      iszero\n        /* \"#utility.yul\":8995:9027   */\n      swap1\n      pop\n        /* \"#utility.yul\":8943:9033   */\n      swap2\n      swap1\n      pop\n      jump\t// out\n        /* \"#utility.yul\":9039:9155   */\n    tag_145:\n        /* \"#utility.yul\":9109:9130   */\n      tag_250\n        /* \"#utility.yul\":9124:9129   */\n      dup2\n        /* \"#utility.yul\":9109:9130   */\n      tag_144\n      jump\t// in\n    tag_250:\n        /* \"#utility.yul\":9102:9107   */\n      dup2\n        /* \"#utility.yul\":9099:9131   */\n      eq\n        /* \"#utility.yul\":9089:9149   */\n      tag_251\n      jumpi\n        /* \"#utility.yul\":9145:9146   */\n      0x00\n        /* \"#utility.yul\":9142:9143   */\n      dup1\n        /* \"#utility.yul\":9135:9147   */\n      revert\n        /* \"#utility.yul\":9089:9149   */\n    tag_251:\n        /* \"#utility.yul\":9039:9155   */\n      pop\n      jump\t// out\n        /* \"#utility.yul\":9161:9298   */\n    tag_146:\n        /* \"#utility.yul\":9215:9220   */\n      0x00\n        /* \"#utility.yul\":9246:9252   */\n      dup2\n        /* \"#utility.yul\":9240:9253   */\n      mload\n        /* \"#utility.yul\":9231:9253   */\n      swap1\n      pop\n        /* \"#utility.yul\":9262:9292   */\n      tag_253\n        /* \"#utility.yul\":9286:9291   */\n      dup2\n        /* \"#utility.yul\":9262:9292   */\n      tag_145\n      jump\t// in\n    tag_253:\n        /* \"#utility.yul\":9161:9298   */\n      swap3\n      swap2\n      pop\n      pop\n      jump\t// out\n        /* \"#utility.yul\":9304:9649   */\n    tag_111:\n        /* \"#utility.yul\":9371:9377   */\n      0x00\n        /* \"#utility.yul\":9420:9422   */\n      0x20\n        /* \"#utility.yul\":9408:9417   */\n      dup3\n        /* \"#utility.yul\":9399:9406   */\n      dup5\n        /* \"#utility.yul\":9395:9418   */\n      sub\n        /* \"#utility.yul\":9391:9423   */\n      slt\n        /* \"#utility.yul\":9388:9507   */\n      iszero\n      tag_255\n      jumpi\n        /* \"#utility.yul\":9426:9505   */\n      tag_256\n      tag_118\n      jump\t// in\n    tag_256:\n        /* \"#utility.yul\":9388:9507   */\n    tag_255:\n        /* \"#utility.yul\":9546:9547   */\n      0x00\n        /* \"#utility.yul\":9571:9632   */\n      tag_257\n        /* \"#utility.yul\":9624:9631   */\n      dup5\n        /* \"#utility.yul\":9615:9621   */\n      dup3\n        /* \"#utility.yul\":9604:9613   */\n      dup6\n        /* \"#utility.yul\":9600:9622   */\n      add\n        /* \"#utility.yul\":9571:9632   */\n      tag_146\n      jump\t// in\n    tag_257:\n        /* \"#utility.yul\":9561:9632   */\n      swap2\n      pop\n        /* \"#utility.yul\":9517:9642   */\n      pop\n        /* \"#utility.yul\":9304:9649   */\n      swap3\n      swap2\n      pop\n      pop\n      jump\t// out\n        /* \"#utility.yul\":9655:9823   */\n    tag_147:\n        /* \"#utility.yul\":9795:9815   */\n      0x4f6e6c79206f776e657220616c6c6f7765640000000000000000000000000000\n        /* \"#utility.yul\":9791:9792   */\n      0x00\n        /* \"#utility.yul\":9783:9789   */\n      dup3\n        /* \"#utility.yul\":9779:9793   */\n      add\n        /* \"#utility.yul\":9772:9816   */\n      mstore\n        /* \"#utility.yul\":9655:9823   */\n      pop\n      jump\t// out\n        /* \"#utility.yul\":9829:10195   */\n    tag_148:\n        /* \"#utility.yul\":9971:9974   */\n      0x00\n        /* \"#utility.yul\":9992:10059   */\n      tag_260\n        /* \"#utility.yul\":10056:10058   */\n      0x12\n        /* \"#utility.yul\":10051:10054   */\n      dup4\n        /* \"#utility.yul\":9992:10059   */\n      tag_135\n      jump\t// in\n    tag_260:\n        /* \"#utility.yul\":9985:10059   */\n      swap2\n      pop\n        /* \"#utility.yul\":10068:10161   */\n      tag_261\n        /* \"#utility.yul\":10157:10160   */\n      dup3\n        /* \"#utility.yul\":10068:10161   */\n      tag_147\n      jump\t// in\n    tag_261:\n        /* \"#utility.yul\":10186:10188   */\n      0x20\n        /* \"#utility.yul\":10181:10184   */\n      dup3\n        /* \"#utility.yul\":10177:10189   */\n      add\n        /* \"#utility.yul\":10170:10189   */\n      swap1\n      pop\n        /* \"#utility.yul\":9829:10195   */\n      swap2\n      swap1\n      pop\n      jump\t// out\n        /* \"#utility.yul\":10201:10620   */\n    tag_115:\n        /* \"#utility.yul\":10367:10371   */\n      0x00\n        /* \"#utility.yul\":10405:10407   */\n      0x20\n        /* \"#utility.yul\":10394:10403   */\n      dup3\n        /* \"#utility.yul\":10390:10408   */\n      add\n        /* \"#utility.yul\":10382:10408   */\n      swap1\n      pop\n        /* \"#utility.yul\":10454:10463   */\n      dup2\n        /* \"#utility.yul\":10448:10452   */\n      dup2\n        /* \"#utility.yul\":10444:10464   */\n      sub\n        /* \"#utility.yul\":10440:10441   */\n      0x00\n        /* \"#utility.yul\":10429:10438   */\n      dup4\n        /* \"#utility.yul\":10425:10442   */\n      add\n        /* \"#utility.yul\":10418:10465   */\n      mstore\n        /* \"#utility.yul\":10482:10613   */\n      tag_263\n        /* \"#utility.yul\":10608:10612   */\n      dup2\n        /* \"#utility.yul\":10482:10613   */\n      tag_148\n      jump\t// in\n    tag_263:\n        /* \"#utility.yul\":10474:10613   */\n      swap1\n      pop\n        /* \"#utility.yul\":10201:10620   */\n      swap2\n      swap1\n      pop\n      jump\t// out\n\n    auxdata: 0xa2646970667358221220ec308c80cc1c3ed9cddd4cfd659d4408478cb1d6b3634f0f89c17e8551abcbaf64736f6c63430008120033\n}\n",
				"bytecode": {
					"linkReferences": {},
					"object": "60806040523480156200001157600080fd5b50604051620017303803806200173083398181016040528101906200003791906200050f565b60008651116200007e576040517f08c379a000000000000000000000000000000000000000000000000000000000815260040162000075906200062b565b60405180910390fd5b60008311620000c4576040517f08c379a0000000000000000000000000000000000000000000000000000000008152600401620000bb90620006c3565b60405180910390fd5b828411156200010a576040517f08c379a000000000000000000000000000000000000000000000000000000000815260040162000101906200075b565b60405180910390fd5b8460008190555083816200011f9190620007ac565b6001819055508260028190555081600660006101000a81548173ffffffffffffffffffffffffffffffffffffffff021916908373ffffffffffffffffffffffffffffffffffffffff16021790555033600560006101000a81548173ffffffffffffffffffffffffffffffffffffffff021916908373ffffffffffffffffffffffffffffffffffffffff1602179055508060048190555060005b8651811015620002d957600660009054906101000a900473ffffffffffffffffffffffffffffffffffffffff1673ffffffffffffffffffffffffffffffffffffffff166370a08231306040518263ffffffff1660e01b81526004016200021f9190620007f8565b602060405180830381865afa1580156200023d573d6000803e3d6000fd5b505050506040513d601f19601f8201168201806040525081019062000263919062000815565b600760008984815181106200027d576200027c62000847565b5b602002602001015173ffffffffffffffffffffffffffffffffffffffff1673ffffffffffffffffffffffffffffffffffffffff168152602001908152602001600020819055508080620002d09062000876565b915050620001b8565b50505050505050620008c3565b6000604051905090565b600080fd5b600080fd5b600080fd5b6000601f19601f8301169050919050565b7f4e487b7100000000000000000000000000000000000000000000000000000000600052604160045260246000fd5b6200034a82620002ff565b810181811067ffffffffffffffff821117156200036c576200036b62000310565b5b80604052505050565b600062000381620002e6565b90506200038f82826200033f565b919050565b600067ffffffffffffffff821115620003b257620003b162000310565b5b602082029050602081019050919050565b600080fd5b600073ffffffffffffffffffffffffffffffffffffffff82169050919050565b6000620003f582620003c8565b9050919050565b6200040781620003e8565b81146200041357600080fd5b50565b6000815190506200042781620003fc565b92915050565b6000620004446200043e8462000394565b62000375565b905080838252602082019050602084028301858111156200046a5762000469620003c3565b5b835b8181101562000497578062000482888262000416565b8452602084019350506020810190506200046c565b5050509392505050565b600082601f830112620004b957620004b8620002fa565b5b8151620004cb8482602086016200042d565b91505092915050565b6000819050919050565b620004e981620004d4565b8114620004f557600080fd5b50565b6000815190506200050981620004de565b92915050565b60008060008060008060c087890312156200052f576200052e620002f0565b5b600087015167ffffffffffffffff81111562000550576200054f620002f5565b5b6200055e89828a01620004a1565b96505060206200057189828a01620004f8565b95505060406200058489828a01620004f8565b94505060606200059789828a01620004f8565b9350506080620005aa89828a0162000416565b92505060a0620005bd89828a01620004f8565b9150509295509295509295565b600082825260208201905092915050565b7f4e6f2062656e656669636961726965732070726f766964656400000000000000600082015250565b600062000613601983620005ca565b91506200062082620005db565b602082019050919050565b60006020820190508181036000830152620006468162000604565b9050919050565b7f4475726174696f6e2073686f756c642062652067726561746572207468616e2060008201527f7a65726f00000000000000000000000000000000000000000000000000000000602082015250565b6000620006ab602483620005ca565b9150620006b8826200064d565b604082019050919050565b60006020820190508181036000830152620006de816200069c565b9050919050565b7f436c69666620706572696f642073686f756c64206265206c657373207468616e60008201527f206f7220657175616c20746f206475726174696f6e0000000000000000000000602082015250565b600062000743603583620005ca565b91506200075082620006e5565b604082019050919050565b60006020820190508181036000830152620007768162000734565b9050919050565b7f4e487b7100000000000000000000000000000000000000000000000000000000600052601160045260246000fd5b6000620007b982620004d4565b9150620007c683620004d4565b9250828201905080821115620007e157620007e06200077d565b5b92915050565b620007f281620003e8565b82525050565b60006020820190506200080f6000830184620007e7565b92915050565b6000602082840312156200082e576200082d620002f0565b5b60006200083e84828501620004f8565b91505092915050565b7f4e487b7100000000000000000000000000000000000000000000000000000000600052603260045260246000fd5b60006200088382620004d4565b91507fffffffffffffffffffffffffffffffffffffffffffffffffffffffffffffffff8203620008b857620008b76200077d565b5b600182019050919050565b610e5d80620008d36000396000f3fe608060405234801561001057600080fd5b50600436106100cf5760003560e01c8063763b6d9e1161008c5780638a9e0876116100665780638a9e0876146102045780638da5cb5b1461022257806396074e7014610240578063fc0c546a1461025c576100cf565b8063763b6d9e146101ac57806378e97925146101dc57806386d1a69f146101fa576100cf565b806301567739146100d45780630fb5a6b41461010457806313d033c0146101225780635afd6eb8146101405780636ea419e51461015e5780636f9fb98a1461018e575b600080fd5b6100ee60048036038101906100e991906108ec565b61027a565b6040516100fb9190610932565b60405180910390f35b61010c610292565b6040516101199190610932565b60405180910390f35b61012a610298565b6040516101379190610932565b60405180910390f35b61014861029e565b6040516101559190610932565b60405180910390f35b610178600480360381019061017391906108ec565b6102a4565b6040516101859190610932565b60405180910390f35b6101966102bc565b6040516101a39190610932565b60405180910390f35b6101c660048036038101906101c191906108ec565b61035f565b6040516101d39190610932565b60405180910390f35b6101e461052f565b6040516101f19190610932565b60405180910390f35b610202610535565b005b61020c61075f565b6040516102199190610932565b60405180910390f35b61022a610765565b604051610237919061095c565b60405180910390f35b61025a600480360381019061025591906109a3565b61078b565b005b610264610863565b6040516102719190610a42565b60405180910390f35b60076020528060005260406000206000915090505481565b60025481565b60015481565b60005481565b60086020528060005260406000206000915090505481565b6000600660009054906101000a900473ffffffffffffffffffffffffffffffffffffffff1673ffffffffffffffffffffffffffffffffffffffff166370a08231306040518263ffffffff1660e01b8152600401610319919061095c565b602060405180830381865afa158015610336573d6000803e3d6000fd5b505050506040513d601f19601f8201168201806040525081019061035a9190610a72565b905090565b60006001544210156103a6576040517f08c379a000000000000000000000000000000000000000000000000000000000815260040161039d90610afc565b60405180910390fd5b600080600760008573ffffffffffffffffffffffffffffffffffffffff1673ffffffffffffffffffffffffffffffffffffffff1681526020019081526020016000205490506001544210156103ff57819250505061052a565b60006004544261040f9190610b4b565b905060008054826104209190610bae565b9050600080546002546104339190610bae565b905080821061048e57600860008873ffffffffffffffffffffffffffffffffffffffff1673ffffffffffffffffffffffffffffffffffffffff16815260200190815260200160002054846104879190610b4b565b94506104ae565b6000818561049c9190610bae565b905082816104aa9190610bdf565b9550505b5050506000600860008673ffffffffffffffffffffffffffffffffffffffff1673ffffffffffffffffffffffffffffffffffffffff168152602001908152602001600020549050600081836105039190610b4b565b9050600082856105139190610b4b565b905081811115610521578190505b80955050505050505b919050565b60045481565b6000600760003373ffffffffffffffffffffffffffffffffffffffff1673ffffffffffffffffffffffffffffffffffffffff16815260200190815260200160002054116105b7576040517f08c379a00000000000000000000000000000000000000000000000000000000081526004016105ae90610c6d565b60405180910390fd5b6001544210156105fc576040517f08c379a00000000000000000000000000000000000000000000000000000000081526004016105f390610afc565b60405180910390fd5b60006106073361035f565b90506000811161064c576040517f08c379a000000000000000000000000000000000000000000000000000000000815260040161064390610cd9565b60405180910390fd5b80600860003373ffffffffffffffffffffffffffffffffffffffff1673ffffffffffffffffffffffffffffffffffffffff168152602001908152602001600020600082825461069b9190610cf9565b9250508190555080600360008282546106b49190610cf9565b92505081905550600660009054906101000a900473ffffffffffffffffffffffffffffffffffffffff1673ffffffffffffffffffffffffffffffffffffffff1663a9059cbb33836040518363ffffffff1660e01b8152600401610718929190610d2d565b6020604051808303816000875af1158015610737573d6000803e3d6000fd5b505050506040513d601f19601f8201168201806040525081019061075b9190610d8e565b5050565b60035481565b600560009054906101000a900473ffffffffffffffffffffffffffffffffffffffff1681565b600560009054906101000a900473ffffffffffffffffffffffffffffffffffffffff1673ffffffffffffffffffffffffffffffffffffffff163373ffffffffffffffffffffffffffffffffffffffff161461081b576040517f08c379a000000000000000000000000000000000000000000000000000000000815260040161081290610e07565b60405180910390fd5b80600760008473ffffffffffffffffffffffffffffffffffffffff1673ffffffffffffffffffffffffffffffffffffffff168152602001908152602001600020819055505050565b600660009054906101000a900473ffffffffffffffffffffffffffffffffffffffff1681565b600080fd5b600073ffffffffffffffffffffffffffffffffffffffff82169050919050565b60006108b98261088e565b9050919050565b6108c9816108ae565b81146108d457600080fd5b50565b6000813590506108e6816108c0565b92915050565b60006020828403121561090257610901610889565b5b6000610910848285016108d7565b91505092915050565b6000819050919050565b61092c81610919565b82525050565b60006020820190506109476000830184610923565b92915050565b610956816108ae565b82525050565b6000602082019050610971600083018461094d565b92915050565b61098081610919565b811461098b57600080fd5b50565b60008135905061099d81610977565b92915050565b600080604083850312156109ba576109b9610889565b5b60006109c8858286016108d7565b92505060206109d98582860161098e565b9150509250929050565b6000819050919050565b6000610a08610a036109fe8461088e565b6109e3565b61088e565b9050919050565b6000610a1a826109ed565b9050919050565b6000610a2c82610a0f565b9050919050565b610a3c81610a21565b82525050565b6000602082019050610a576000830184610a33565b92915050565b600081519050610a6c81610977565b92915050565b600060208284031215610a8857610a87610889565b5b6000610a9684828501610a5d565b91505092915050565b600082825260208201905092915050565b7f436c69666620706572696f64206e6f7420646f6e650000000000000000000000600082015250565b6000610ae6601583610a9f565b9150610af182610ab0565b602082019050919050565b60006020820190508181036000830152610b1581610ad9565b9050919050565b7f4e487b7100000000000000000000000000000000000000000000000000000000600052601160045260246000fd5b6000610b5682610919565b9150610b6183610919565b9250828203905081811115610b7957610b78610b1c565b5b92915050565b7f4e487b7100000000000000000000000000000000000000000000000000000000600052601260045260246000fd5b6000610bb982610919565b9150610bc483610919565b925082610bd457610bd3610b7f565b5b828204905092915050565b6000610bea82610919565b9150610bf583610919565b9250828202610c0381610919565b91508282048414831517610c1a57610c19610b1c565b5b5092915050565b7f4f6e6c792062656e656669636961727920616c6c6f7765640000000000000000600082015250565b6000610c57601883610a9f565b9150610c6282610c21565b602082019050919050565b60006020820190508181036000830152610c8681610c4a565b9050919050565b7f4e6f20746f6b656e7320746f2072656c65617365000000000000000000000000600082015250565b6000610cc3601483610a9f565b9150610cce82610c8d565b602082019050919050565b60006020820190508181036000830152610cf281610cb6565b9050919050565b6000610d0482610919565b9150610d0f83610919565b9250828201905080821115610d2757610d26610b1c565b5b92915050565b6000604082019050610d42600083018561094d565b610d4f6020830184610923565b9392505050565b60008115159050919050565b610d6b81610d56565b8114610d7657600080fd5b50565b600081519050610d8881610d62565b92915050565b600060208284031215610da457610da3610889565b5b6000610db284828501610d79565b91505092915050565b7f4f6e6c79206f776e657220616c6c6f7765640000000000000000000000000000600082015250565b6000610df1601283610a9f565b9150610dfc82610dbb565b602082019050919050565b60006020820190508181036000830152610e2081610de4565b905091905056fea2646970667358221220ec308c80cc1c3ed9cddd4cfd659d4408478cb1d6b3634f0f89c17e8551abcbaf64736f6c63430008120033",
					"opcodes": "PUSH1 0x80 PUSH1 0x40 MSTORE CALLVALUE DUP1 ISZERO PUSH3 0x11 JUMPI PUSH1 0x0 DUP1 REVERT JUMPDEST POP PUSH1 0x40 MLOAD PUSH3 0x1730 CODESIZE SUB DUP1 PUSH3 0x1730 DUP4 CODECOPY DUP2 DUP2 ADD PUSH1 0x40 MSTORE DUP2 ADD SWAP1 PUSH3 0x37 SWAP2 SWAP1 PUSH3 0x50F JUMP JUMPDEST PUSH1 0x0 DUP7 MLOAD GT PUSH3 0x7E JUMPI PUSH1 0x40 MLOAD PUSH32 0x8C379A000000000000000000000000000000000000000000000000000000000 DUP2 MSTORE PUSH1 0x4 ADD PUSH3 0x75 SWAP1 PUSH3 0x62B JUMP JUMPDEST PUSH1 0x40 MLOAD DUP1 SWAP2 SUB SWAP1 REVERT JUMPDEST PUSH1 0x0 DUP4 GT PUSH3 0xC4 JUMPI PUSH1 0x40 MLOAD PUSH32 0x8C379A000000000000000000000000000000000000000000000000000000000 DUP2 MSTORE PUSH1 0x4 ADD PUSH3 0xBB SWAP1 PUSH3 0x6C3 JUMP JUMPDEST PUSH1 0x40 MLOAD DUP1 SWAP2 SUB SWAP1 REVERT JUMPDEST DUP3 DUP5 GT ISZERO PUSH3 0x10A JUMPI PUSH1 0x40 MLOAD PUSH32 0x8C379A000000000000000000000000000000000000000000000000000000000 DUP2 MSTORE PUSH1 0x4 ADD PUSH3 0x101 SWAP1 PUSH3 0x75B JUMP JUMPDEST PUSH1 0x40 MLOAD DUP1 SWAP2 SUB SWAP1 REVERT JUMPDEST DUP5 PUSH1 0x0 DUP2 SWAP1 SSTORE POP DUP4 DUP2 PUSH3 0x11F SWAP2 SWAP1 PUSH3 0x7AC JUMP JUMPDEST PUSH1 0x1 DUP2 SWAP1 SSTORE POP DUP3 PUSH1 0x2 DUP2 SWAP1 SSTORE POP DUP2 PUSH1 0x6 PUSH1 0x0 PUSH2 0x100 EXP DUP2 SLOAD DUP2 PUSH20 0xFFFFFFFFFFFFFFFFFFFFFFFFFFFFFFFFFFFFFFFF MUL NOT AND SWAP1 DUP4 PUSH20 0xFFFFFFFFFFFFFFFFFFFFFFFFFFFFFFFFFFFFFFFF AND MUL OR SWAP1 SSTORE POP CALLER PUSH1 0x5 PUSH1 0x0 PUSH2 0x100 EXP DUP2 SLOAD DUP2 PUSH20 0xFFFFFFFFFFFFFFFFFFFFFFFFFFFFFFFFFFFFFFFF MUL NOT AND SWAP1 DUP4 PUSH20 0xFFFFFFFFFFFFFFFFFFFFFFFFFFFFFFFFFFFFFFFF AND MUL OR SWAP1 SSTORE POP DUP1 PUSH1 0x4 DUP2 SWAP1 SSTORE POP PUSH1 0x0 JUMPDEST DUP7 MLOAD DUP2 LT ISZERO PUSH3 0x2D9 JUMPI PUSH1 0x6 PUSH1 0x0 SWAP1 SLOAD SWAP1 PUSH2 0x100 EXP SWAP1 DIV PUSH20 0xFFFFFFFFFFFFFFFFFFFFFFFFFFFFFFFFFFFFFFFF AND PUSH20 0xFFFFFFFFFFFFFFFFFFFFFFFFFFFFFFFFFFFFFFFF AND PUSH4 0x70A08231 ADDRESS PUSH1 0x40 MLOAD DUP3 PUSH4 0xFFFFFFFF AND PUSH1 0xE0 SHL DUP2 MSTORE PUSH1 0x4 ADD PUSH3 0x21F SWAP2 SWAP1 PUSH3 0x7F8 JUMP JUMPDEST PUSH1 0x20 PUSH1 0x40 MLOAD DUP1 DUP4 SUB DUP2 DUP7 GAS STATICCALL ISZERO DUP1 ISZERO PUSH3 0x23D JUMPI RETURNDATASIZE PUSH1 0x0 DUP1 RETURNDATACOPY RETURNDATASIZE PUSH1 0x0 REVERT JUMPDEST POP POP POP POP PUSH1 0x40 MLOAD RETURNDATASIZE PUSH1 0x1F NOT PUSH1 0x1F DUP3 ADD AND DUP3 ADD DUP1 PUSH1 0x40 MSTORE POP DUP2 ADD SWAP1 PUSH3 0x263 SWAP2 SWAP1 PUSH3 0x815 JUMP JUMPDEST PUSH1 0x7 PUSH1 0x0 DUP10 DUP5 DUP2 MLOAD DUP2 LT PUSH3 0x27D JUMPI PUSH3 0x27C PUSH3 0x847 JUMP JUMPDEST JUMPDEST PUSH1 0x20 MUL PUSH1 0x20 ADD ADD MLOAD PUSH20 0xFFFFFFFFFFFFFFFFFFFFFFFFFFFFFFFFFFFFFFFF AND PUSH20 0xFFFFFFFFFFFFFFFFFFFFFFFFFFFFFFFFFFFFFFFF AND DUP2 MSTORE PUSH1 0x20 ADD SWAP1 DUP2 MSTORE PUSH1 0x20 ADD PUSH1 0x0 KECCAK256 DUP2 SWAP1 SSTORE POP DUP1 DUP1 PUSH3 0x2D0 SWAP1 PUSH3 0x876 JUMP JUMPDEST SWAP2 POP POP PUSH3 0x1B8 JUMP JUMPDEST POP POP POP POP POP POP POP PUSH3 0x8C3 JUMP JUMPDEST PUSH1 0x0 PUSH1 0x40 MLOAD SWAP1 POP SWAP1 JUMP JUMPDEST PUSH1 0x0 DUP1 REVERT JUMPDEST PUSH1 0x0 DUP1 REVERT JUMPDEST PUSH1 0x0 DUP1 REVERT JUMPDEST PUSH1 0x0 PUSH1 0x1F NOT PUSH1 0x1F DUP4 ADD AND SWAP1 POP SWAP2 SWAP1 POP JUMP JUMPDEST PUSH32 0x4E487B7100000000000000000000000000000000000000000000000000000000 PUSH1 0x0 MSTORE PUSH1 0x41 PUSH1 0x4 MSTORE PUSH1 0x24 PUSH1 0x0 REVERT JUMPDEST PUSH3 0x34A DUP3 PUSH3 0x2FF JUMP JUMPDEST DUP2 ADD DUP2 DUP2 LT PUSH8 0xFFFFFFFFFFFFFFFF DUP3 GT OR ISZERO PUSH3 0x36C JUMPI PUSH3 0x36B PUSH3 0x310 JUMP JUMPDEST JUMPDEST DUP1 PUSH1 0x40 MSTORE POP POP POP JUMP JUMPDEST PUSH1 0x0 PUSH3 0x381 PUSH3 0x2E6 JUMP JUMPDEST SWAP1 POP PUSH3 0x38F DUP3 DUP3 PUSH3 0x33F JUMP JUMPDEST SWAP2 SWAP1 POP JUMP JUMPDEST PUSH1 0x0 PUSH8 0xFFFFFFFFFFFFFFFF DUP3 GT ISZERO PUSH3 0x3B2 JUMPI PUSH3 0x3B1 PUSH3 0x310 JUMP JUMPDEST JUMPDEST PUSH1 0x20 DUP3 MUL SWAP1 POP PUSH1 0x20 DUP2 ADD SWAP1 POP SWAP2 SWAP1 POP JUMP JUMPDEST PUSH1 0x0 DUP1 REVERT JUMPDEST PUSH1 0x0 PUSH20 0xFFFFFFFFFFFFFFFFFFFFFFFFFFFFFFFFFFFFFFFF DUP3 AND SWAP1 POP SWAP2 SWAP1 POP JUMP JUMPDEST PUSH1 0x0 PUSH3 0x3F5 DUP3 PUSH3 0x3C8 JUMP JUMPDEST SWAP1 POP SWAP2 SWAP1 POP JUMP JUMPDEST PUSH3 0x407 DUP2 PUSH3 0x3E8 JUMP JUMPDEST DUP2 EQ PUSH3 0x413 JUMPI PUSH1 0x0 DUP1 REVERT JUMPDEST POP JUMP JUMPDEST PUSH1 0x0 DUP2 MLOAD SWAP1 POP PUSH3 0x427 DUP2 PUSH3 0x3FC JUMP JUMPDEST SWAP3 SWAP2 POP POP JUMP JUMPDEST PUSH1 0x0 PUSH3 0x444 PUSH3 0x43E DUP5 PUSH3 0x394 JUMP JUMPDEST PUSH3 0x375 JUMP JUMPDEST SWAP1 POP DUP1 DUP4 DUP3 MSTORE PUSH1 0x20 DUP3 ADD SWAP1 POP PUSH1 0x20 DUP5 MUL DUP4 ADD DUP6 DUP2 GT ISZERO PUSH3 0x46A JUMPI PUSH3 0x469 PUSH3 0x3C3 JUMP JUMPDEST JUMPDEST DUP4 JUMPDEST DUP2 DUP2 LT ISZERO PUSH3 0x497 JUMPI DUP1 PUSH3 0x482 DUP9 DUP3 PUSH3 0x416 JUMP JUMPDEST DUP5 MSTORE PUSH1 0x20 DUP5 ADD SWAP4 POP POP PUSH1 0x20 DUP2 ADD SWAP1 POP PUSH3 0x46C JUMP JUMPDEST POP POP POP SWAP4 SWAP3 POP POP POP JUMP JUMPDEST PUSH1 0x0 DUP3 PUSH1 0x1F DUP4 ADD SLT PUSH3 0x4B9 JUMPI PUSH3 0x4B8 PUSH3 0x2FA JUMP JUMPDEST JUMPDEST DUP2 MLOAD PUSH3 0x4CB DUP5 DUP3 PUSH1 0x20 DUP7 ADD PUSH3 0x42D JUMP JUMPDEST SWAP2 POP POP SWAP3 SWAP2 POP POP JUMP JUMPDEST PUSH1 0x0 DUP2 SWAP1 POP SWAP2 SWAP1 POP JUMP JUMPDEST PUSH3 0x4E9 DUP2 PUSH3 0x4D4 JUMP JUMPDEST DUP2 EQ PUSH3 0x4F5 JUMPI PUSH1 0x0 DUP1 REVERT JUMPDEST POP JUMP JUMPDEST PUSH1 0x0 DUP2 MLOAD SWAP1 POP PUSH3 0x509 DUP2 PUSH3 0x4DE JUMP JUMPDEST SWAP3 SWAP2 POP POP JUMP JUMPDEST PUSH1 0x0 DUP1 PUSH1 0x0 DUP1 PUSH1 0x0 DUP1 PUSH1 0xC0 DUP8 DUP10 SUB SLT ISZERO PUSH3 0x52F JUMPI PUSH3 0x52E PUSH3 0x2F0 JUMP JUMPDEST JUMPDEST PUSH1 0x0 DUP8 ADD MLOAD PUSH8 0xFFFFFFFFFFFFFFFF DUP2 GT ISZERO PUSH3 0x550 JUMPI PUSH3 0x54F PUSH3 0x2F5 JUMP JUMPDEST JUMPDEST PUSH3 0x55E DUP10 DUP3 DUP11 ADD PUSH3 0x4A1 JUMP JUMPDEST SWAP7 POP POP PUSH1 0x20 PUSH3 0x571 DUP10 DUP3 DUP11 ADD PUSH3 0x4F8 JUMP JUMPDEST SWAP6 POP POP PUSH1 0x40 PUSH3 0x584 DUP10 DUP3 DUP11 ADD PUSH3 0x4F8 JUMP JUMPDEST SWAP5 POP POP PUSH1 0x60 PUSH3 0x597 DUP10 DUP3 DUP11 ADD PUSH3 0x4F8 JUMP JUMPDEST SWAP4 POP POP PUSH1 0x80 PUSH3 0x5AA DUP10 DUP3 DUP11 ADD PUSH3 0x416 JUMP JUMPDEST SWAP3 POP POP PUSH1 0xA0 PUSH3 0x5BD DUP10 DUP3 DUP11 ADD PUSH3 0x4F8 JUMP JUMPDEST SWAP2 POP POP SWAP3 SWAP6 POP SWAP3 SWAP6 POP SWAP3 SWAP6 JUMP JUMPDEST PUSH1 0x0 DUP3 DUP3 MSTORE PUSH1 0x20 DUP3 ADD SWAP1 POP SWAP3 SWAP2 POP POP JUMP JUMPDEST PUSH32 0x4E6F2062656E656669636961726965732070726F766964656400000000000000 PUSH1 0x0 DUP3 ADD MSTORE POP JUMP JUMPDEST PUSH1 0x0 PUSH3 0x613 PUSH1 0x19 DUP4 PUSH3 0x5CA JUMP JUMPDEST SWAP2 POP PUSH3 0x620 DUP3 PUSH3 0x5DB JUMP JUMPDEST PUSH1 0x20 DUP3 ADD SWAP1 POP SWAP2 SWAP1 POP JUMP JUMPDEST PUSH1 0x0 PUSH1 0x20 DUP3 ADD SWAP1 POP DUP2 DUP2 SUB PUSH1 0x0 DUP4 ADD MSTORE PUSH3 0x646 DUP2 PUSH3 0x604 JUMP JUMPDEST SWAP1 POP SWAP2 SWAP1 POP JUMP JUMPDEST PUSH32 0x4475726174696F6E2073686F756C642062652067726561746572207468616E20 PUSH1 0x0 DUP3 ADD MSTORE PUSH32 0x7A65726F00000000000000000000000000000000000000000000000000000000 PUSH1 0x20 DUP3 ADD MSTORE POP JUMP JUMPDEST PUSH1 0x0 PUSH3 0x6AB PUSH1 0x24 DUP4 PUSH3 0x5CA JUMP JUMPDEST SWAP2 POP PUSH3 0x6B8 DUP3 PUSH3 0x64D JUMP JUMPDEST PUSH1 0x40 DUP3 ADD SWAP1 POP SWAP2 SWAP1 POP JUMP JUMPDEST PUSH1 0x0 PUSH1 0x20 DUP3 ADD SWAP1 POP DUP2 DUP2 SUB PUSH1 0x0 DUP4 ADD MSTORE PUSH3 0x6DE DUP2 PUSH3 0x69C JUMP JUMPDEST SWAP1 POP SWAP2 SWAP1 POP JUMP JUMPDEST PUSH32 0x436C69666620706572696F642073686F756C64206265206C657373207468616E PUSH1 0x0 DUP3 ADD MSTORE PUSH32 0x206F7220657175616C20746F206475726174696F6E0000000000000000000000 PUSH1 0x20 DUP3 ADD MSTORE POP JUMP JUMPDEST PUSH1 0x0 PUSH3 0x743 PUSH1 0x35 DUP4 PUSH3 0x5CA JUMP JUMPDEST SWAP2 POP PUSH3 0x750 DUP3 PUSH3 0x6E5 JUMP JUMPDEST PUSH1 0x40 DUP3 ADD SWAP1 POP SWAP2 SWAP1 POP JUMP JUMPDEST PUSH1 0x0 PUSH1 0x20 DUP3 ADD SWAP1 POP DUP2 DUP2 SUB PUSH1 0x0 DUP4 ADD MSTORE PUSH3 0x776 DUP2 PUSH3 0x734 JUMP JUMPDEST SWAP1 POP SWAP2 SWAP1 POP JUMP JUMPDEST PUSH32 0x4E487B7100000000000000000000000000000000000000000000000000000000 PUSH1 0x0 MSTORE PUSH1 0x11 PUSH1 0x4 MSTORE PUSH1 0x24 PUSH1 0x0 REVERT JUMPDEST PUSH1 0x0 PUSH3 0x7B9 DUP3 PUSH3 0x4D4 JUMP JUMPDEST SWAP2 POP PUSH3 0x7C6 DUP4 PUSH3 0x4D4 JUMP JUMPDEST SWAP3 POP DUP3 DUP3 ADD SWAP1 POP DUP1 DUP3 GT ISZERO PUSH3 0x7E1 JUMPI PUSH3 0x7E0 PUSH3 0x77D JUMP JUMPDEST JUMPDEST SWAP3 SWAP2 POP POP JUMP JUMPDEST PUSH3 0x7F2 DUP2 PUSH3 0x3E8 JUMP JUMPDEST DUP3 MSTORE POP POP JUMP JUMPDEST PUSH1 0x0 PUSH1 0x20 DUP3 ADD SWAP1 POP PUSH3 0x80F PUSH1 0x0 DUP4 ADD DUP5 PUSH3 0x7E7 JUMP JUMPDEST SWAP3 SWAP2 POP POP JUMP JUMPDEST PUSH1 0x0 PUSH1 0x20 DUP3 DUP5 SUB SLT ISZERO PUSH3 0x82E JUMPI PUSH3 0x82D PUSH3 0x2F0 JUMP JUMPDEST JUMPDEST PUSH1 0x0 PUSH3 0x83E DUP5 DUP3 DUP6 ADD PUSH3 0x4F8 JUMP JUMPDEST SWAP2 POP POP SWAP3 SWAP2 POP POP JUMP JUMPDEST PUSH32 0x4E487B7100000000000000000000000000000000000000000000000000000000 PUSH1 0x0 MSTORE PUSH1 0x32 PUSH1 0x4 MSTORE PUSH1 0x24 PUSH1 0x0 REVERT JUMPDEST PUSH1 0x0 PUSH3 0x883 DUP3 PUSH3 0x4D4 JUMP JUMPDEST SWAP2 POP PUSH32 0xFFFFFFFFFFFFFFFFFFFFFFFFFFFFFFFFFFFFFFFFFFFFFFFFFFFFFFFFFFFFFFFF DUP3 SUB PUSH3 0x8B8 JUMPI PUSH3 0x8B7 PUSH3 0x77D JUMP JUMPDEST JUMPDEST PUSH1 0x1 DUP3 ADD SWAP1 POP SWAP2 SWAP1 POP JUMP JUMPDEST PUSH2 0xE5D DUP1 PUSH3 0x8D3 PUSH1 0x0 CODECOPY PUSH1 0x0 RETURN INVALID PUSH1 0x80 PUSH1 0x40 MSTORE CALLVALUE DUP1 ISZERO PUSH2 0x10 JUMPI PUSH1 0x0 DUP1 REVERT JUMPDEST POP PUSH1 0x4 CALLDATASIZE LT PUSH2 0xCF JUMPI PUSH1 0x0 CALLDATALOAD PUSH1 0xE0 SHR DUP1 PUSH4 0x763B6D9E GT PUSH2 0x8C JUMPI DUP1 PUSH4 0x8A9E0876 GT PUSH2 0x66 JUMPI DUP1 PUSH4 0x8A9E0876 EQ PUSH2 0x204 JUMPI DUP1 PUSH4 0x8DA5CB5B EQ PUSH2 0x222 JUMPI DUP1 PUSH4 0x96074E70 EQ PUSH2 0x240 JUMPI DUP1 PUSH4 0xFC0C546A EQ PUSH2 0x25C JUMPI PUSH2 0xCF JUMP JUMPDEST DUP1 PUSH4 0x763B6D9E EQ PUSH2 0x1AC JUMPI DUP1 PUSH4 0x78E97925 EQ PUSH2 0x1DC JUMPI DUP1 PUSH4 0x86D1A69F EQ PUSH2 0x1FA JUMPI PUSH2 0xCF JUMP JUMPDEST DUP1 PUSH4 0x1567739 EQ PUSH2 0xD4 JUMPI DUP1 PUSH4 0xFB5A6B4 EQ PUSH2 0x104 JUMPI DUP1 PUSH4 0x13D033C0 EQ PUSH2 0x122 JUMPI DUP1 PUSH4 0x5AFD6EB8 EQ PUSH2 0x140 JUMPI DUP1 PUSH4 0x6EA419E5 EQ PUSH2 0x15E JUMPI DUP1 PUSH4 0x6F9FB98A EQ PUSH2 0x18E JUMPI JUMPDEST PUSH1 0x0 DUP1 REVERT JUMPDEST PUSH2 0xEE PUSH1 0x4 DUP1 CALLDATASIZE SUB DUP2 ADD SWAP1 PUSH2 0xE9 SWAP2 SWAP1 PUSH2 0x8EC JUMP JUMPDEST PUSH2 0x27A JUMP JUMPDEST PUSH1 0x40 MLOAD PUSH2 0xFB SWAP2 SWAP1 PUSH2 0x932 JUMP JUMPDEST PUSH1 0x40 MLOAD DUP1 SWAP2 SUB SWAP1 RETURN JUMPDEST PUSH2 0x10C PUSH2 0x292 JUMP JUMPDEST PUSH1 0x40 MLOAD PUSH2 0x119 SWAP2 SWAP1 PUSH2 0x932 JUMP JUMPDEST PUSH1 0x40 MLOAD DUP1 SWAP2 SUB SWAP1 RETURN JUMPDEST PUSH2 0x12A PUSH2 0x298 JUMP JUMPDEST PUSH1 0x40 MLOAD PUSH2 0x137 SWAP2 SWAP1 PUSH2 0x932 JUMP JUMPDEST PUSH1 0x40 MLOAD DUP1 SWAP2 SUB SWAP1 RETURN JUMPDEST PUSH2 0x148 PUSH2 0x29E JUMP JUMPDEST PUSH1 0x40 MLOAD PUSH2 0x155 SWAP2 SWAP1 PUSH2 0x932 JUMP JUMPDEST PUSH1 0x40 MLOAD DUP1 SWAP2 SUB SWAP1 RETURN JUMPDEST PUSH2 0x178 PUSH1 0x4 DUP1 CALLDATASIZE SUB DUP2 ADD SWAP1 PUSH2 0x173 SWAP2 SWAP1 PUSH2 0x8EC JUMP JUMPDEST PUSH2 0x2A4 JUMP JUMPDEST PUSH1 0x40 MLOAD PUSH2 0x185 SWAP2 SWAP1 PUSH2 0x932 JUMP JUMPDEST PUSH1 0x40 MLOAD DUP1 SWAP2 SUB SWAP1 RETURN JUMPDEST PUSH2 0x196 PUSH2 0x2BC JUMP JUMPDEST PUSH1 0x40 MLOAD PUSH2 0x1A3 SWAP2 SWAP1 PUSH2 0x932 JUMP JUMPDEST PUSH1 0x40 MLOAD DUP1 SWAP2 SUB SWAP1 RETURN JUMPDEST PUSH2 0x1C6 PUSH1 0x4 DUP1 CALLDATASIZE SUB DUP2 ADD SWAP1 PUSH2 0x1C1 SWAP2 SWAP1 PUSH2 0x8EC JUMP JUMPDEST PUSH2 0x35F JUMP JUMPDEST PUSH1 0x40 MLOAD PUSH2 0x1D3 SWAP2 SWAP1 PUSH2 0x932 JUMP JUMPDEST PUSH1 0x40 MLOAD DUP1 SWAP2 SUB SWAP1 RETURN JUMPDEST PUSH2 0x1E4 PUSH2 0x52F JUMP JUMPDEST PUSH1 0x40 MLOAD PUSH2 0x1F1 SWAP2 SWAP1 PUSH2 0x932 JUMP JUMPDEST PUSH1 0x40 MLOAD DUP1 SWAP2 SUB SWAP1 RETURN JUMPDEST PUSH2 0x202 PUSH2 0x535 JUMP JUMPDEST STOP JUMPDEST PUSH2 0x20C PUSH2 0x75F JUMP JUMPDEST PUSH1 0x40 MLOAD PUSH2 0x219 SWAP2 SWAP1 PUSH2 0x932 JUMP JUMPDEST PUSH1 0x40 MLOAD DUP1 SWAP2 SUB SWAP1 RETURN JUMPDEST PUSH2 0x22A PUSH2 0x765 JUMP JUMPDEST PUSH1 0x40 MLOAD PUSH2 0x237 SWAP2 SWAP1 PUSH2 0x95C JUMP JUMPDEST PUSH1 0x40 MLOAD DUP1 SWAP2 SUB SWAP1 RETURN JUMPDEST PUSH2 0x25A PUSH1 0x4 DUP1 CALLDATASIZE SUB DUP2 ADD SWAP1 PUSH2 0x255 SWAP2 SWAP1 PUSH2 0x9A3 JUMP JUMPDEST PUSH2 0x78B JUMP JUMPDEST STOP JUMPDEST PUSH2 0x264 PUSH2 0x863 JUMP JUMPDEST PUSH1 0x40 MLOAD PUSH2 0x271 SWAP2 SWAP1 PUSH2 0xA42 JUMP JUMPDEST PUSH1 0x40 MLOAD DUP1 SWAP2 SUB SWAP1 RETURN JUMPDEST PUSH1 0x7 PUSH1 0x20 MSTORE DUP1 PUSH1 0x0 MSTORE PUSH1 0x40 PUSH1 0x0 KECCAK256 PUSH1 0x0 SWAP2 POP SWAP1 POP SLOAD DUP2 JUMP JUMPDEST PUSH1 0x2 SLOAD DUP2 JUMP JUMPDEST PUSH1 0x1 SLOAD DUP2 JUMP JUMPDEST PUSH1 0x0 SLOAD DUP2 JUMP JUMPDEST PUSH1 0x8 PUSH1 0x20 MSTORE DUP1 PUSH1 0x0 MSTORE PUSH1 0x40 PUSH1 0x0 KECCAK256 PUSH1 0x0 SWAP2 POP SWAP1 POP SLOAD DUP2 JUMP JUMPDEST PUSH1 0x0 PUSH1 0x6 PUSH1 0x0 SWAP1 SLOAD SWAP1 PUSH2 0x100 EXP SWAP1 DIV PUSH20 0xFFFFFFFFFFFFFFFFFFFFFFFFFFFFFFFFFFFFFFFF AND PUSH20 0xFFFFFFFFFFFFFFFFFFFFFFFFFFFFFFFFFFFFFFFF AND PUSH4 0x70A08231 ADDRESS PUSH1 0x40 MLOAD DUP3 PUSH4 0xFFFFFFFF AND PUSH1 0xE0 SHL DUP2 MSTORE PUSH1 0x4 ADD PUSH2 0x319 SWAP2 SWAP1 PUSH2 0x95C JUMP JUMPDEST PUSH1 0x20 PUSH1 0x40 MLOAD DUP1 DUP4 SUB DUP2 DUP7 GAS STATICCALL ISZERO DUP1 ISZERO PUSH2 0x336 JUMPI RETURNDATASIZE PUSH1 0x0 DUP1 RETURNDATACOPY RETURNDATASIZE PUSH1 0x0 REVERT JUMPDEST POP POP POP POP PUSH1 0x40 MLOAD RETURNDATASIZE PUSH1 0x1F NOT PUSH1 0x1F DUP3 ADD AND DUP3 ADD DUP1 PUSH1 0x40 MSTORE POP DUP2 ADD SWAP1 PUSH2 0x35A SWAP2 SWAP1 PUSH2 0xA72 JUMP JUMPDEST SWAP1 POP SWAP1 JUMP JUMPDEST PUSH1 0x0 PUSH1 0x1 SLOAD TIMESTAMP LT ISZERO PUSH2 0x3A6 JUMPI PUSH1 0x40 MLOAD PUSH32 0x8C379A000000000000000000000000000000000000000000000000000000000 DUP2 MSTORE PUSH1 0x4 ADD PUSH2 0x39D SWAP1 PUSH2 0xAFC JUMP JUMPDEST PUSH1 0x40 MLOAD DUP1 SWAP2 SUB SWAP1 REVERT JUMPDEST PUSH1 0x0 DUP1 PUSH1 0x7 PUSH1 0x0 DUP6 PUSH20 0xFFFFFFFFFFFFFFFFFFFFFFFFFFFFFFFFFFFFFFFF AND PUSH20 0xFFFFFFFFFFFFFFFFFFFFFFFFFFFFFFFFFFFFFFFF AND DUP2 MSTORE PUSH1 0x20 ADD SWAP1 DUP2 MSTORE PUSH1 0x20 ADD PUSH1 0x0 KECCAK256 SLOAD SWAP1 POP PUSH1 0x1 SLOAD TIMESTAMP LT ISZERO PUSH2 0x3FF JUMPI DUP2 SWAP3 POP POP POP PUSH2 0x52A JUMP JUMPDEST PUSH1 0x0 PUSH1 0x4 SLOAD TIMESTAMP PUSH2 0x40F SWAP2 SWAP1 PUSH2 0xB4B JUMP JUMPDEST SWAP1 POP PUSH1 0x0 DUP1 SLOAD DUP3 PUSH2 0x420 SWAP2 SWAP1 PUSH2 0xBAE JUMP JUMPDEST SWAP1 POP PUSH1 0x0 DUP1 SLOAD PUSH1 0x2 SLOAD PUSH2 0x433 SWAP2 SWAP1 PUSH2 0xBAE JUMP JUMPDEST SWAP1 POP DUP1 DUP3 LT PUSH2 0x48E JUMPI PUSH1 0x8 PUSH1 0x0 DUP9 PUSH20 0xFFFFFFFFFFFFFFFFFFFFFFFFFFFFFFFFFFFFFFFF AND PUSH20 0xFFFFFFFFFFFFFFFFFFFFFFFFFFFFFFFFFFFFFFFF AND DUP2 MSTORE PUSH1 0x20 ADD SWAP1 DUP2 MSTORE PUSH1 0x20 ADD PUSH1 0x0 KECCAK256 SLOAD DUP5 PUSH2 0x487 SWAP2 SWAP1 PUSH2 0xB4B JUMP JUMPDEST SWAP5 POP PUSH2 0x4AE JUMP JUMPDEST PUSH1 0x0 DUP2 DUP6 PUSH2 0x49C SWAP2 SWAP1 PUSH2 0xBAE JUMP JUMPDEST SWAP1 POP DUP3 DUP2 PUSH2 0x4AA SWAP2 SWAP1 PUSH2 0xBDF JUMP JUMPDEST SWAP6 POP POP JUMPDEST POP POP POP PUSH1 0x0 PUSH1 0x8 PUSH1 0x0 DUP7 PUSH20 0xFFFFFFFFFFFFFFFFFFFFFFFFFFFFFFFFFFFFFFFF AND PUSH20 0xFFFFFFFFFFFFFFFFFFFFFFFFFFFFFFFFFFFFFFFF AND DUP2 MSTORE PUSH1 0x20 ADD SWAP1 DUP2 MSTORE PUSH1 0x20 ADD PUSH1 0x0 KECCAK256 SLOAD SWAP1 POP PUSH1 0x0 DUP2 DUP4 PUSH2 0x503 SWAP2 SWAP1 PUSH2 0xB4B JUMP JUMPDEST SWAP1 POP PUSH1 0x0 DUP3 DUP6 PUSH2 0x513 SWAP2 SWAP1 PUSH2 0xB4B JUMP JUMPDEST SWAP1 POP DUP2 DUP2 GT ISZERO PUSH2 0x521 JUMPI DUP2 SWAP1 POP JUMPDEST DUP1 SWAP6 POP POP POP POP POP POP JUMPDEST SWAP2 SWAP1 POP JUMP JUMPDEST PUSH1 0x4 SLOAD DUP2 JUMP JUMPDEST PUSH1 0x0 PUSH1 0x7 PUSH1 0x0 CALLER PUSH20 0xFFFFFFFFFFFFFFFFFFFFFFFFFFFFFFFFFFFFFFFF AND PUSH20 0xFFFFFFFFFFFFFFFFFFFFFFFFFFFFFFFFFFFFFFFF AND DUP2 MSTORE PUSH1 0x20 ADD SWAP1 DUP2 MSTORE PUSH1 0x20 ADD PUSH1 0x0 KECCAK256 SLOAD GT PUSH2 0x5B7 JUMPI PUSH1 0x40 MLOAD PUSH32 0x8C379A000000000000000000000000000000000000000000000000000000000 DUP2 MSTORE PUSH1 0x4 ADD PUSH2 0x5AE SWAP1 PUSH2 0xC6D JUMP JUMPDEST PUSH1 0x40 MLOAD DUP1 SWAP2 SUB SWAP1 REVERT JUMPDEST PUSH1 0x1 SLOAD TIMESTAMP LT ISZERO PUSH2 0x5FC JUMPI PUSH1 0x40 MLOAD PUSH32 0x8C379A000000000000000000000000000000000000000000000000000000000 DUP2 MSTORE PUSH1 0x4 ADD PUSH2 0x5F3 SWAP1 PUSH2 0xAFC JUMP JUMPDEST PUSH1 0x40 MLOAD DUP1 SWAP2 SUB SWAP1 REVERT JUMPDEST PUSH1 0x0 PUSH2 0x607 CALLER PUSH2 0x35F JUMP JUMPDEST SWAP1 POP PUSH1 0x0 DUP2 GT PUSH2 0x64C JUMPI PUSH1 0x40 MLOAD PUSH32 0x8C379A000000000000000000000000000000000000000000000000000000000 DUP2 MSTORE PUSH1 0x4 ADD PUSH2 0x643 SWAP1 PUSH2 0xCD9 JUMP JUMPDEST PUSH1 0x40 MLOAD DUP1 SWAP2 SUB SWAP1 REVERT JUMPDEST DUP1 PUSH1 0x8 PUSH1 0x0 CALLER PUSH20 0xFFFFFFFFFFFFFFFFFFFFFFFFFFFFFFFFFFFFFFFF AND PUSH20 0xFFFFFFFFFFFFFFFFFFFFFFFFFFFFFFFFFFFFFFFF AND DUP2 MSTORE PUSH1 0x20 ADD SWAP1 DUP2 MSTORE PUSH1 0x20 ADD PUSH1 0x0 KECCAK256 PUSH1 0x0 DUP3 DUP3 SLOAD PUSH2 0x69B SWAP2 SWAP1 PUSH2 0xCF9 JUMP JUMPDEST SWAP3 POP POP DUP2 SWAP1 SSTORE POP DUP1 PUSH1 0x3 PUSH1 0x0 DUP3 DUP3 SLOAD PUSH2 0x6B4 SWAP2 SWAP1 PUSH2 0xCF9 JUMP JUMPDEST SWAP3 POP POP DUP2 SWAP1 SSTORE POP PUSH1 0x6 PUSH1 0x0 SWAP1 SLOAD SWAP1 PUSH2 0x100 EXP SWAP1 DIV PUSH20 0xFFFFFFFFFFFFFFFFFFFFFFFFFFFFFFFFFFFFFFFF AND PUSH20 0xFFFFFFFFFFFFFFFFFFFFFFFFFFFFFFFFFFFFFFFF AND PUSH4 0xA9059CBB CALLER DUP4 PUSH1 0x40 MLOAD DUP4 PUSH4 0xFFFFFFFF AND PUSH1 0xE0 SHL DUP2 MSTORE PUSH1 0x4 ADD PUSH2 0x718 SWAP3 SWAP2 SWAP1 PUSH2 0xD2D JUMP JUMPDEST PUSH1 0x20 PUSH1 0x40 MLOAD DUP1 DUP4 SUB DUP2 PUSH1 0x0 DUP8 GAS CALL ISZERO DUP1 ISZERO PUSH2 0x737 JUMPI RETURNDATASIZE PUSH1 0x0 DUP1 RETURNDATACOPY RETURNDATASIZE PUSH1 0x0 REVERT JUMPDEST POP POP POP POP PUSH1 0x40 MLOAD RETURNDATASIZE PUSH1 0x1F NOT PUSH1 0x1F DUP3 ADD AND DUP3 ADD DUP1 PUSH1 0x40 MSTORE POP DUP2 ADD SWAP1 PUSH2 0x75B SWAP2 SWAP1 PUSH2 0xD8E JUMP JUMPDEST POP POP JUMP JUMPDEST PUSH1 0x3 SLOAD DUP2 JUMP JUMPDEST PUSH1 0x5 PUSH1 0x0 SWAP1 SLOAD SWAP1 PUSH2 0x100 EXP SWAP1 DIV PUSH20 0xFFFFFFFFFFFFFFFFFFFFFFFFFFFFFFFFFFFFFFFF AND DUP2 JUMP JUMPDEST PUSH1 0x5 PUSH1 0x0 SWAP1 SLOAD SWAP1 PUSH2 0x100 EXP SWAP1 DIV PUSH20 0xFFFFFFFFFFFFFFFFFFFFFFFFFFFFFFFFFFFFFFFF AND PUSH20 0xFFFFFFFFFFFFFFFFFFFFFFFFFFFFFFFFFFFFFFFF AND CALLER PUSH20 0xFFFFFFFFFFFFFFFFFFFFFFFFFFFFFFFFFFFFFFFF AND EQ PUSH2 0x81B JUMPI PUSH1 0x40 MLOAD PUSH32 0x8C379A000000000000000000000000000000000000000000000000000000000 DUP2 MSTORE PUSH1 0x4 ADD PUSH2 0x812 SWAP1 PUSH2 0xE07 JUMP JUMPDEST PUSH1 0x40 MLOAD DUP1 SWAP2 SUB SWAP1 REVERT JUMPDEST DUP1 PUSH1 0x7 PUSH1 0x0 DUP5 PUSH20 0xFFFFFFFFFFFFFFFFFFFFFFFFFFFFFFFFFFFFFFFF AND PUSH20 0xFFFFFFFFFFFFFFFFFFFFFFFFFFFFFFFFFFFFFFFF AND DUP2 MSTORE PUSH1 0x20 ADD SWAP1 DUP2 MSTORE PUSH1 0x20 ADD PUSH1 0x0 KECCAK256 DUP2 SWAP1 SSTORE POP POP POP JUMP JUMPDEST PUSH1 0x6 PUSH1 0x0 SWAP1 SLOAD SWAP1 PUSH2 0x100 EXP SWAP1 DIV PUSH20 0xFFFFFFFFFFFFFFFFFFFFFFFFFFFFFFFFFFFFFFFF AND DUP2 JUMP JUMPDEST PUSH1 0x0 DUP1 REVERT JUMPDEST PUSH1 0x0 PUSH20 0xFFFFFFFFFFFFFFFFFFFFFFFFFFFFFFFFFFFFFFFF DUP3 AND SWAP1 POP SWAP2 SWAP1 POP JUMP JUMPDEST PUSH1 0x0 PUSH2 0x8B9 DUP3 PUSH2 0x88E JUMP JUMPDEST SWAP1 POP SWAP2 SWAP1 POP JUMP JUMPDEST PUSH2 0x8C9 DUP2 PUSH2 0x8AE JUMP JUMPDEST DUP2 EQ PUSH2 0x8D4 JUMPI PUSH1 0x0 DUP1 REVERT JUMPDEST POP JUMP JUMPDEST PUSH1 0x0 DUP2 CALLDATALOAD SWAP1 POP PUSH2 0x8E6 DUP2 PUSH2 0x8C0 JUMP JUMPDEST SWAP3 SWAP2 POP POP JUMP JUMPDEST PUSH1 0x0 PUSH1 0x20 DUP3 DUP5 SUB SLT ISZERO PUSH2 0x902 JUMPI PUSH2 0x901 PUSH2 0x889 JUMP JUMPDEST JUMPDEST PUSH1 0x0 PUSH2 0x910 DUP5 DUP3 DUP6 ADD PUSH2 0x8D7 JUMP JUMPDEST SWAP2 POP POP SWAP3 SWAP2 POP POP JUMP JUMPDEST PUSH1 0x0 DUP2 SWAP1 POP SWAP2 SWAP1 POP JUMP JUMPDEST PUSH2 0x92C DUP2 PUSH2 0x919 JUMP JUMPDEST DUP3 MSTORE POP POP JUMP JUMPDEST PUSH1 0x0 PUSH1 0x20 DUP3 ADD SWAP1 POP PUSH2 0x947 PUSH1 0x0 DUP4 ADD DUP5 PUSH2 0x923 JUMP JUMPDEST SWAP3 SWAP2 POP POP JUMP JUMPDEST PUSH2 0x956 DUP2 PUSH2 0x8AE JUMP JUMPDEST DUP3 MSTORE POP POP JUMP JUMPDEST PUSH1 0x0 PUSH1 0x20 DUP3 ADD SWAP1 POP PUSH2 0x971 PUSH1 0x0 DUP4 ADD DUP5 PUSH2 0x94D JUMP JUMPDEST SWAP3 SWAP2 POP POP JUMP JUMPDEST PUSH2 0x980 DUP2 PUSH2 0x919 JUMP JUMPDEST DUP2 EQ PUSH2 0x98B JUMPI PUSH1 0x0 DUP1 REVERT JUMPDEST POP JUMP JUMPDEST PUSH1 0x0 DUP2 CALLDATALOAD SWAP1 POP PUSH2 0x99D DUP2 PUSH2 0x977 JUMP JUMPDEST SWAP3 SWAP2 POP POP JUMP JUMPDEST PUSH1 0x0 DUP1 PUSH1 0x40 DUP4 DUP6 SUB SLT ISZERO PUSH2 0x9BA JUMPI PUSH2 0x9B9 PUSH2 0x889 JUMP JUMPDEST JUMPDEST PUSH1 0x0 PUSH2 0x9C8 DUP6 DUP3 DUP7 ADD PUSH2 0x8D7 JUMP JUMPDEST SWAP3 POP POP PUSH1 0x20 PUSH2 0x9D9 DUP6 DUP3 DUP7 ADD PUSH2 0x98E JUMP JUMPDEST SWAP2 POP POP SWAP3 POP SWAP3 SWAP1 POP JUMP JUMPDEST PUSH1 0x0 DUP2 SWAP1 POP SWAP2 SWAP1 POP JUMP JUMPDEST PUSH1 0x0 PUSH2 0xA08 PUSH2 0xA03 PUSH2 0x9FE DUP5 PUSH2 0x88E JUMP JUMPDEST PUSH2 0x9E3 JUMP JUMPDEST PUSH2 0x88E JUMP JUMPDEST SWAP1 POP SWAP2 SWAP1 POP JUMP JUMPDEST PUSH1 0x0 PUSH2 0xA1A DUP3 PUSH2 0x9ED JUMP JUMPDEST SWAP1 POP SWAP2 SWAP1 POP JUMP JUMPDEST PUSH1 0x0 PUSH2 0xA2C DUP3 PUSH2 0xA0F JUMP JUMPDEST SWAP1 POP SWAP2 SWAP1 POP JUMP JUMPDEST PUSH2 0xA3C DUP2 PUSH2 0xA21 JUMP JUMPDEST DUP3 MSTORE POP POP JUMP JUMPDEST PUSH1 0x0 PUSH1 0x20 DUP3 ADD SWAP1 POP PUSH2 0xA57 PUSH1 0x0 DUP4 ADD DUP5 PUSH2 0xA33 JUMP JUMPDEST SWAP3 SWAP2 POP POP JUMP JUMPDEST PUSH1 0x0 DUP2 MLOAD SWAP1 POP PUSH2 0xA6C DUP2 PUSH2 0x977 JUMP JUMPDEST SWAP3 SWAP2 POP POP JUMP JUMPDEST PUSH1 0x0 PUSH1 0x20 DUP3 DUP5 SUB SLT ISZERO PUSH2 0xA88 JUMPI PUSH2 0xA87 PUSH2 0x889 JUMP JUMPDEST JUMPDEST PUSH1 0x0 PUSH2 0xA96 DUP5 DUP3 DUP6 ADD PUSH2 0xA5D JUMP JUMPDEST SWAP2 POP POP SWAP3 SWAP2 POP POP JUMP JUMPDEST PUSH1 0x0 DUP3 DUP3 MSTORE PUSH1 0x20 DUP3 ADD SWAP1 POP SWAP3 SWAP2 POP POP JUMP JUMPDEST PUSH32 0x436C69666620706572696F64206E6F7420646F6E650000000000000000000000 PUSH1 0x0 DUP3 ADD MSTORE POP JUMP JUMPDEST PUSH1 0x0 PUSH2 0xAE6 PUSH1 0x15 DUP4 PUSH2 0xA9F JUMP JUMPDEST SWAP2 POP PUSH2 0xAF1 DUP3 PUSH2 0xAB0 JUMP JUMPDEST PUSH1 0x20 DUP3 ADD SWAP1 POP SWAP2 SWAP1 POP JUMP JUMPDEST PUSH1 0x0 PUSH1 0x20 DUP3 ADD SWAP1 POP DUP2 DUP2 SUB PUSH1 0x0 DUP4 ADD MSTORE PUSH2 0xB15 DUP2 PUSH2 0xAD9 JUMP JUMPDEST SWAP1 POP SWAP2 SWAP1 POP JUMP JUMPDEST PUSH32 0x4E487B7100000000000000000000000000000000000000000000000000000000 PUSH1 0x0 MSTORE PUSH1 0x11 PUSH1 0x4 MSTORE PUSH1 0x24 PUSH1 0x0 REVERT JUMPDEST PUSH1 0x0 PUSH2 0xB56 DUP3 PUSH2 0x919 JUMP JUMPDEST SWAP2 POP PUSH2 0xB61 DUP4 PUSH2 0x919 JUMP JUMPDEST SWAP3 POP DUP3 DUP3 SUB SWAP1 POP DUP2 DUP2 GT ISZERO PUSH2 0xB79 JUMPI PUSH2 0xB78 PUSH2 0xB1C JUMP JUMPDEST JUMPDEST SWAP3 SWAP2 POP POP JUMP JUMPDEST PUSH32 0x4E487B7100000000000000000000000000000000000000000000000000000000 PUSH1 0x0 MSTORE PUSH1 0x12 PUSH1 0x4 MSTORE PUSH1 0x24 PUSH1 0x0 REVERT JUMPDEST PUSH1 0x0 PUSH2 0xBB9 DUP3 PUSH2 0x919 JUMP JUMPDEST SWAP2 POP PUSH2 0xBC4 DUP4 PUSH2 0x919 JUMP JUMPDEST SWAP3 POP DUP3 PUSH2 0xBD4 JUMPI PUSH2 0xBD3 PUSH2 0xB7F JUMP JUMPDEST JUMPDEST DUP3 DUP3 DIV SWAP1 POP SWAP3 SWAP2 POP POP JUMP JUMPDEST PUSH1 0x0 PUSH2 0xBEA DUP3 PUSH2 0x919 JUMP JUMPDEST SWAP2 POP PUSH2 0xBF5 DUP4 PUSH2 0x919 JUMP JUMPDEST SWAP3 POP DUP3 DUP3 MUL PUSH2 0xC03 DUP2 PUSH2 0x919 JUMP JUMPDEST SWAP2 POP DUP3 DUP3 DIV DUP5 EQ DUP4 ISZERO OR PUSH2 0xC1A JUMPI PUSH2 0xC19 PUSH2 0xB1C JUMP JUMPDEST JUMPDEST POP SWAP3 SWAP2 POP POP JUMP JUMPDEST PUSH32 0x4F6E6C792062656E656669636961727920616C6C6F7765640000000000000000 PUSH1 0x0 DUP3 ADD MSTORE POP JUMP JUMPDEST PUSH1 0x0 PUSH2 0xC57 PUSH1 0x18 DUP4 PUSH2 0xA9F JUMP JUMPDEST SWAP2 POP PUSH2 0xC62 DUP3 PUSH2 0xC21 JUMP JUMPDEST PUSH1 0x20 DUP3 ADD SWAP1 POP SWAP2 SWAP1 POP JUMP JUMPDEST PUSH1 0x0 PUSH1 0x20 DUP3 ADD SWAP1 POP DUP2 DUP2 SUB PUSH1 0x0 DUP4 ADD MSTORE PUSH2 0xC86 DUP2 PUSH2 0xC4A JUMP JUMPDEST SWAP1 POP SWAP2 SWAP1 POP JUMP JUMPDEST PUSH32 0x4E6F20746F6B656E7320746F2072656C65617365000000000000000000000000 PUSH1 0x0 DUP3 ADD MSTORE POP JUMP JUMPDEST PUSH1 0x0 PUSH2 0xCC3 PUSH1 0x14 DUP4 PUSH2 0xA9F JUMP JUMPDEST SWAP2 POP PUSH2 0xCCE DUP3 PUSH2 0xC8D JUMP JUMPDEST PUSH1 0x20 DUP3 ADD SWAP1 POP SWAP2 SWAP1 POP JUMP JUMPDEST PUSH1 0x0 PUSH1 0x20 DUP3 ADD SWAP1 POP DUP2 DUP2 SUB PUSH1 0x0 DUP4 ADD MSTORE PUSH2 0xCF2 DUP2 PUSH2 0xCB6 JUMP JUMPDEST SWAP1 POP SWAP2 SWAP1 POP JUMP JUMPDEST PUSH1 0x0 PUSH2 0xD04 DUP3 PUSH2 0x919 JUMP JUMPDEST SWAP2 POP PUSH2 0xD0F DUP4 PUSH2 0x919 JUMP JUMPDEST SWAP3 POP DUP3 DUP3 ADD SWAP1 POP DUP1 DUP3 GT ISZERO PUSH2 0xD27 JUMPI PUSH2 0xD26 PUSH2 0xB1C JUMP JUMPDEST JUMPDEST SWAP3 SWAP2 POP POP JUMP JUMPDEST PUSH1 0x0 PUSH1 0x40 DUP3 ADD SWAP1 POP PUSH2 0xD42 PUSH1 0x0 DUP4 ADD DUP6 PUSH2 0x94D JUMP JUMPDEST PUSH2 0xD4F PUSH1 0x20 DUP4 ADD DUP5 PUSH2 0x923 JUMP JUMPDEST SWAP4 SWAP3 POP POP POP JUMP JUMPDEST PUSH1 0x0 DUP2 ISZERO ISZERO SWAP1 POP SWAP2 SWAP1 POP JUMP JUMPDEST PUSH2 0xD6B DUP2 PUSH2 0xD56 JUMP JUMPDEST DUP2 EQ PUSH2 0xD76 JUMPI PUSH1 0x0 DUP1 REVERT JUMPDEST POP JUMP JUMPDEST PUSH1 0x0 DUP2 MLOAD SWAP1 POP PUSH2 0xD88 DUP2 PUSH2 0xD62 JUMP JUMPDEST SWAP3 SWAP2 POP POP JUMP JUMPDEST PUSH1 0x0 PUSH1 0x20 DUP3 DUP5 SUB SLT ISZERO PUSH2 0xDA4 JUMPI PUSH2 0xDA3 PUSH2 0x889 JUMP JUMPDEST JUMPDEST PUSH1 0x0 PUSH2 0xDB2 DUP5 DUP3 DUP6 ADD PUSH2 0xD79 JUMP JUMPDEST SWAP2 POP POP SWAP3 SWAP2 POP POP JUMP JUMPDEST PUSH32 0x4F6E6C79206F776E657220616C6C6F7765640000000000000000000000000000 PUSH1 0x0 DUP3 ADD MSTORE POP JUMP JUMPDEST PUSH1 0x0 PUSH2 0xDF1 PUSH1 0x12 DUP4 PUSH2 0xA9F JUMP JUMPDEST SWAP2 POP PUSH2 0xDFC DUP3 PUSH2 0xDBB JUMP JUMPDEST PUSH1 0x20 DUP3 ADD SWAP1 POP SWAP2 SWAP1 POP JUMP JUMPDEST PUSH1 0x0 PUSH1 0x20 DUP3 ADD SWAP1 POP DUP2 DUP2 SUB PUSH1 0x0 DUP4 ADD MSTORE PUSH2 0xE20 DUP2 PUSH2 0xDE4 JUMP JUMPDEST SWAP1 POP SWAP2 SWAP1 POP JUMP INVALID LOG2 PUSH5 0x6970667358 0x22 SLT KECCAK256 0xEC ADDRESS DUP13 DUP1 0xCC SHR RETURNDATACOPY 0xD9 0xCD 0xDD 0x4C REVERT PUSH6 0x9D4408478CB1 0xD6 0xB3 PUSH4 0x4F0F89C1 PUSH31 0x8551ABCBAF64736F6C63430008120033000000000000000000000000000000 "
				},
				"gasEstimates": {
					"creation": {
						"codeDepositCost": "735400",
						"executionCost": "infinite",
						"totalCost": "infinite"
					},
					"external": {
						"addBeneficiary(address,uint256)": "25068",
						"beneficiaries(address)": "2815",
						"cliff()": "2474",
						"duration()": "2452",
						"getContractBalance()": "infinite",
						"noOfVestedTokens(address)": "2903",
						"owner()": "2558",
						"release()": "infinite",
						"slicePeriod()": "2496",
						"startTime()": "2474",
						"token()": "infinite",
						"tokensReleased()": "2451",
						"vestingTokens(address)": "infinite"
					}
				},
				"methodIdentifiers": {
					"addBeneficiary(address,uint256)": "96074e70",
					"beneficiaries(address)": "01567739",
					"cliff()": "13d033c0",
					"duration()": "0fb5a6b4",
					"getContractBalance()": "6f9fb98a",
					"noOfVestedTokens(address)": "6ea419e5",
					"owner()": "8da5cb5b",
					"release()": "86d1a69f",
					"slicePeriod()": "5afd6eb8",
					"startTime()": "78e97925",
					"token()": "fc0c546a",
					"tokensReleased()": "8a9e0876",
					"vestingTokens(address)": "763b6d9e"
				}
			},
			"storageLayout": {
				"storage": [
					{
						"astId": 82,
						"contract": "contracts/vesting.sol:Vesting",
						"label": "slicePeriod",
						"offset": 0,
						"slot": "0",
						"type": "t_uint256"
					},
					{
						"astId": 84,
						"contract": "contracts/vesting.sol:Vesting",
						"label": "cliff",
						"offset": 0,
						"slot": "1",
						"type": "t_uint256"
					},
					{
						"astId": 86,
						"contract": "contracts/vesting.sol:Vesting",
						"label": "duration",
						"offset": 0,
						"slot": "2",
						"type": "t_uint256"
					},
					{
						"astId": 88,
						"contract": "contracts/vesting.sol:Vesting",
						"label": "tokensReleased",
						"offset": 0,
						"slot": "3",
						"type": "t_uint256"
					},
					{
						"astId": 90,
						"contract": "contracts/vesting.sol:Vesting",
						"label": "startTime",
						"offset": 0,
						"slot": "4",
						"type": "t_uint256"
					},
					{
						"astId": 92,
						"contract": "contracts/vesting.sol:Vesting",
						"label": "owner",
						"offset": 0,
						"slot": "5",
						"type": "t_address"
					},
					{
						"astId": 95,
						"contract": "contracts/vesting.sol:Vesting",
						"label": "token",
						"offset": 0,
						"slot": "6",
						"type": "t_contract(IERC20)77"
					},
					{
						"astId": 99,
						"contract": "contracts/vesting.sol:Vesting",
						"label": "beneficiaries",
						"offset": 0,
						"slot": "7",
						"type": "t_mapping(t_address,t_uint256)"
					},
					{
						"astId": 103,
						"contract": "contracts/vesting.sol:Vesting",
						"label": "noOfVestedTokens",
						"offset": 0,
						"slot": "8",
						"type": "t_mapping(t_address,t_uint256)"
					}
				],
				"types": {
					"t_address": {
						"encoding": "inplace",
						"label": "address",
						"numberOfBytes": "20"
					},
					"t_contract(IERC20)77": {
						"encoding": "inplace",
						"label": "contract IERC20",
						"numberOfBytes": "20"
					},
					"t_mapping(t_address,t_uint256)": {
						"encoding": "mapping",
						"key": "t_address",
						"label": "mapping(address => uint256)",
						"numberOfBytes": "32",
						"value": "t_uint256"
					},
					"t_uint256": {
						"encoding": "inplace",
						"label": "uint256",
						"numberOfBytes": "32"
					}
				}
			},
			"userdoc": {
				"kind": "user",
				"methods": {},
				"version": 1
			}
		}
	}
}