{
	"contracts/TokenVesting.sol": {
		"TokenVesting": {
			"abi": [
				{
					"anonymous": false,
					"inputs": [
						{
							"indexed": false,
							"internalType": "address",
							"name": "beneficiary",
							"type": "address"
						},
						{
							"indexed": false,
							"internalType": "string",
							"name": "message",
							"type": "string"
						}
					],
					"name": "LockTokensEvent",
					"type": "event"
				},
				{
					"anonymous": false,
					"inputs": [
						{
							"indexed": false,
							"internalType": "address",
							"name": "beneficiary",
							"type": "address"
						},
						{
							"indexed": false,
							"internalType": "uint256",
							"name": "amountReleased",
							"type": "uint256"
						},
						{
							"indexed": false,
							"internalType": "string",
							"name": "message",
							"type": "string"
						}
					],
					"name": "ReleaseTokensEvent",
					"type": "event"
				},
				{
					"inputs": [
						{
							"internalType": "address",
							"name": "",
							"type": "address"
						}
					],
					"name": "beneficiaries",
					"outputs": [
						{
							"internalType": "uint256",
							"name": "id",
							"type": "uint256"
						}
					],
					"stateMutability": "view",
					"type": "function"
				},
				{
					"inputs": [
						{
							"internalType": "address",
							"name": "_beneficiaryAddress",
							"type": "address"
						},
						{
							"internalType": "contract IERC20",
							"name": "_token",
							"type": "address"
						},
						{
							"internalType": "uint256",
							"name": "_id",
							"type": "uint256"
						}
					],
					"name": "getVestingDetails",
					"outputs": [
						{
							"components": [
								{
									"internalType": "uint256",
									"name": "vestingId",
									"type": "uint256"
								},
								{
									"internalType": "uint256",
									"name": "startTime",
									"type": "uint256"
								},
								{
									"internalType": "uint256",
									"name": "duration",
									"type": "uint256"
								},
								{
									"internalType": "uint256",
									"name": "cliff",
									"type": "uint256"
								},
								{
									"internalType": "uint256",
									"name": "slicePeriod",
									"type": "uint256"
								},
								{
									"internalType": "uint256",
									"name": "tokensAmount",
									"type": "uint256"
								},
								{
									"internalType": "uint256",
									"name": "releasedTokens",
									"type": "uint256"
								}
							],
							"internalType": "struct TokenVesting.VestingInfo",
							"name": "",
							"type": "tuple"
						}
					],
					"stateMutability": "view",
					"type": "function"
				},
				{
					"inputs": [
						{
							"internalType": "address",
							"name": "_beneficiaryAddress",
							"type": "address"
						},
						{
							"internalType": "uint256",
							"name": "_tokensAmount",
							"type": "uint256"
						},
						{
							"internalType": "uint256",
							"name": "_cliff",
							"type": "uint256"
						},
						{
							"internalType": "uint256",
							"name": "_duration",
							"type": "uint256"
						},
						{
							"internalType": "uint256",
							"name": "_slicePeriod",
							"type": "uint256"
						},
						{
							"internalType": "contract IERC20",
							"name": "_token",
							"type": "address"
						}
					],
					"name": "lockTokens",
					"outputs": [],
					"stateMutability": "nonpayable",
					"type": "function"
				},
				{
					"inputs": [
						{
							"internalType": "address",
							"name": "_beneficiary",
							"type": "address"
						},
						{
							"internalType": "contract IERC20",
							"name": "_token",
							"type": "address"
						},
						{
							"internalType": "uint256",
							"name": "_id",
							"type": "uint256"
						},
						{
							"internalType": "uint256",
							"name": "_claimAmount",
							"type": "uint256"
						}
					],
					"name": "releaseTokens",
					"outputs": [],
					"stateMutability": "nonpayable",
					"type": "function"
				}
			],
			"devdoc": {
				"kind": "dev",
				"methods": {},
				"version": 1
			},
			"evm": {
				"assembly": "    /* \"contracts/TokenVesting.sol\":123:4307  contract TokenVesting{... */\n  mstore(0x40, 0x80)\n  callvalue\n  dup1\n  iszero\n  tag_1\n  jumpi\n  0x00\n  dup1\n  revert\ntag_1:\n  pop\n  dataSize(sub_0)\n  dup1\n  dataOffset(sub_0)\n  0x00\n  codecopy\n  0x00\n  return\nstop\n\nsub_0: assembly {\n        /* \"contracts/TokenVesting.sol\":123:4307  contract TokenVesting{... */\n      mstore(0x40, 0x80)\n      callvalue\n      dup1\n      iszero\n      tag_1\n      jumpi\n      0x00\n      dup1\n      revert\n    tag_1:\n      pop\n      jumpi(tag_2, lt(calldatasize, 0x04))\n      shr(0xe0, calldataload(0x00))\n      dup1\n      0x01567739\n      eq\n      tag_3\n      jumpi\n      dup1\n      0x724d5be4\n      eq\n      tag_4\n      jumpi\n      dup1\n      0x94be50cb\n      eq\n      tag_5\n      jumpi\n      dup1\n      0xa4272f92\n      eq\n      tag_6\n      jumpi\n    tag_2:\n      0x00\n      dup1\n      revert\n        /* \"contracts/TokenVesting.sol\":479:536  mapping (address => BeneficiaryInfo) public beneficiaries */\n    tag_3:\n      tag_7\n      0x04\n      dup1\n      calldatasize\n      sub\n      dup2\n      add\n      swap1\n      tag_8\n      swap2\n      swap1\n      tag_9\n      jump\t// in\n    tag_8:\n      tag_10\n      jump\t// in\n    tag_7:\n      mload(0x40)\n      tag_11\n      swap2\n      swap1\n      tag_12\n      jump\t// in\n    tag_11:\n      mload(0x40)\n      dup1\n      swap2\n      sub\n      swap1\n      return\n        /* \"contracts/TokenVesting.sol\":3577:4298  function releaseTokens(address _beneficiary, IERC20 _token,uint _id ,uint _claimAmount) isBeneficiary(_beneficiary) cliffPeriodOver(_beneficiary,_token,_id) public {... */\n    tag_4:\n      tag_13\n      0x04\n      dup1\n      calldatasize\n      sub\n      dup2\n      add\n      swap1\n      tag_14\n      swap2\n      swap1\n      tag_15\n      jump\t// in\n    tag_14:\n      tag_16\n      jump\t// in\n    tag_13:\n      stop\n        /* \"contracts/TokenVesting.sol\":1164:2186  function lockTokens(address _beneficiaryAddress,uint _tokensAmount,uint _cliff,uint _duration,uint _slicePeriod,IERC20 _token) isBeneficiary(_beneficiaryAddress) public {... */\n    tag_5:\n      tag_17\n      0x04\n      dup1\n      calldatasize\n      sub\n      dup2\n      add\n      swap1\n      tag_18\n      swap2\n      swap1\n      tag_19\n      jump\t// in\n    tag_18:\n      tag_20\n      jump\t// in\n    tag_17:\n      stop\n        /* \"contracts/TokenVesting.sol\":2253:2468  function getVestingDetails(address _beneficiaryAddress, IERC20 _token , uint _id )public view returns(VestingInfo memory){... */\n    tag_6:\n      tag_21\n      0x04\n      dup1\n      calldatasize\n      sub\n      dup2\n      add\n      swap1\n      tag_22\n      swap2\n      swap1\n      tag_23\n      jump\t// in\n    tag_22:\n      tag_24\n      jump\t// in\n    tag_21:\n      mload(0x40)\n      tag_25\n      swap2\n      swap1\n      tag_26\n      jump\t// in\n    tag_25:\n      mload(0x40)\n      dup1\n      swap2\n      sub\n      swap1\n      return\n        /* \"contracts/TokenVesting.sol\":479:536  mapping (address => BeneficiaryInfo) public beneficiaries */\n    tag_10:\n      mstore(0x20, 0x00)\n      dup1\n      0x00\n      mstore\n      keccak256(0x00, 0x40)\n      0x00\n      swap2\n      pop\n      swap1\n      pop\n      dup1\n      0x00\n      add\n      sload\n      swap1\n      pop\n      dup2\n      jump\t// out\n        /* \"contracts/TokenVesting.sol\":3577:4298  function releaseTokens(address _beneficiary, IERC20 _token,uint _id ,uint _claimAmount) isBeneficiary(_beneficiary) cliffPeriodOver(_beneficiary,_token,_id) public {... */\n    tag_16:\n        /* \"contracts/TokenVesting.sol\":3679:3691  _beneficiary */\n      dup4\n        /* \"contracts/TokenVesting.sol\":1037:1049  _beneficiary */\n      dup1\n        /* \"contracts/TokenVesting.sol\":1025:1049  msg.sender==_beneficiary */\n      0xffffffffffffffffffffffffffffffffffffffff\n      and\n        /* \"contracts/TokenVesting.sol\":1025:1035  msg.sender */\n      caller\n        /* \"contracts/TokenVesting.sol\":1025:1049  msg.sender==_beneficiary */\n      0xffffffffffffffffffffffffffffffffffffffff\n      and\n      eq\n        /* \"contracts/TokenVesting.sol\":1016:1097  require( msg.sender==_beneficiary,\"Only Beneficiary can Lock and Release Tokens\") */\n      tag_28\n      jumpi\n      mload(0x40)\n      0x08c379a000000000000000000000000000000000000000000000000000000000\n      dup2\n      mstore\n      0x04\n      add\n      tag_29\n      swap1\n      tag_30\n      jump\t// in\n    tag_29:\n      mload(0x40)\n      dup1\n      swap2\n      sub\n      swap1\n      revert\n    tag_28:\n        /* \"contracts/TokenVesting.sol\":3709:3721  _beneficiary */\n      dup5\n        /* \"contracts/TokenVesting.sol\":3722:3728  _token */\n      dup5\n        /* \"contracts/TokenVesting.sol\":3729:3732  _id */\n      dup5\n        /* \"contracts/TokenVesting.sol\":844:857  beneficiaries */\n      0x00\n        /* \"contracts/TokenVesting.sol\":844:871  beneficiaries[_beneficiary] */\n      dup1\n        /* \"contracts/TokenVesting.sol\":858:870  _beneficiary */\n      dup5\n        /* \"contracts/TokenVesting.sol\":844:871  beneficiaries[_beneficiary] */\n      0xffffffffffffffffffffffffffffffffffffffff\n      and\n      0xffffffffffffffffffffffffffffffffffffffff\n      and\n      dup2\n      mstore\n      0x20\n      add\n      swap1\n      dup2\n      mstore\n      0x20\n      add\n      0x00\n      keccak256\n        /* \"contracts/TokenVesting.sol\":844:888  beneficiaries[_beneficiary].vestingSchedules */\n      0x01\n      add\n        /* \"contracts/TokenVesting.sol\":844:896  beneficiaries[_beneficiary].vestingSchedules[_token] */\n      0x00\n        /* \"contracts/TokenVesting.sol\":889:895  _token */\n      dup4\n        /* \"contracts/TokenVesting.sol\":844:896  beneficiaries[_beneficiary].vestingSchedules[_token] */\n      0xffffffffffffffffffffffffffffffffffffffff\n      and\n      0xffffffffffffffffffffffffffffffffffffffff\n      and\n      dup2\n      mstore\n      0x20\n      add\n      swap1\n      dup2\n      mstore\n      0x20\n      add\n      0x00\n      keccak256\n        /* \"contracts/TokenVesting.sol\":897:900  _id */\n      dup2\n        /* \"contracts/TokenVesting.sol\":844:901  beneficiaries[_beneficiary].vestingSchedules[_token][_id] */\n      dup2\n      sload\n      dup2\n      lt\n      tag_32\n      jumpi\n      tag_33\n      tag_34\n      jump\t// in\n    tag_33:\n    tag_32:\n      swap1\n      0x00\n      mstore\n      keccak256(0x00, 0x20)\n      swap1\n      0x07\n      mul\n      add\n        /* \"contracts/TokenVesting.sol\":844:907  beneficiaries[_beneficiary].vestingSchedules[_token][_id].cliff */\n      0x03\n      add\n      sload\n        /* \"contracts/TokenVesting.sol\":825:840  block.timestamp */\n      timestamp\n        /* \"contracts/TokenVesting.sol\":825:907  block.timestamp >= beneficiaries[_beneficiary].vestingSchedules[_token][_id].cliff */\n      lt\n      iszero\n        /* \"contracts/TokenVesting.sol\":817:934  require(block.timestamp >= beneficiaries[_beneficiary].vestingSchedules[_token][_id].cliff, \"Wait Till Cliff period\") */\n      tag_36\n      jumpi\n      mload(0x40)\n      0x08c379a000000000000000000000000000000000000000000000000000000000\n      dup2\n      mstore\n      0x04\n      add\n      tag_37\n      swap1\n      tag_38\n      jump\t// in\n    tag_37:\n      mload(0x40)\n      dup1\n      swap2\n      sub\n      swap1\n      revert\n    tag_36:\n        /* \"contracts/TokenVesting.sol\":3752:3775  uint tokensToBeReleased */\n      0x00\n        /* \"contracts/TokenVesting.sol\":3778:3821  releasableTokens(_beneficiary, _token, _id) */\n      tag_40\n        /* \"contracts/TokenVesting.sol\":3795:3807  _beneficiary */\n      dup10\n        /* \"contracts/TokenVesting.sol\":3809:3815  _token */\n      dup10\n        /* \"contracts/TokenVesting.sol\":3817:3820  _id */\n      dup10\n        /* \"contracts/TokenVesting.sol\":3778:3794  releasableTokens */\n      tag_41\n        /* \"contracts/TokenVesting.sol\":3778:3821  releasableTokens(_beneficiary, _token, _id) */\n      jump\t// in\n    tag_40:\n        /* \"contracts/TokenVesting.sol\":3752:3821  uint tokensToBeReleased = releasableTokens(_beneficiary, _token, _id) */\n      swap1\n      pop\n        /* \"contracts/TokenVesting.sol\":3861:3862  0 */\n      0x00\n        /* \"contracts/TokenVesting.sol\":3840:3858  tokensToBeReleased */\n      dup2\n        /* \"contracts/TokenVesting.sol\":3840:3862  tokensToBeReleased > 0 */\n      gt\n        /* \"contracts/TokenVesting.sol\":3832:3888  require(tokensToBeReleased > 0, \"No tokens for release\") */\n      tag_42\n      jumpi\n      mload(0x40)\n      0x08c379a000000000000000000000000000000000000000000000000000000000\n      dup2\n      mstore\n      0x04\n      add\n      tag_43\n      swap1\n      tag_44\n      jump\t// in\n    tag_43:\n      mload(0x40)\n      dup1\n      swap2\n      sub\n      swap1\n      revert\n    tag_42:\n        /* \"contracts/TokenVesting.sol\":3921:3939  tokensToBeReleased */\n      dup1\n        /* \"contracts/TokenVesting.sol\":3907:3919  _claimAmount */\n      dup7\n        /* \"contracts/TokenVesting.sol\":3907:3939  _claimAmount<=tokensToBeReleased */\n      gt\n      iszero\n        /* \"contracts/TokenVesting.sol\":3899:3975  require(_claimAmount<=tokensToBeReleased,\"Claim Amount > Releasable tokens\") */\n      tag_45\n      jumpi\n      mload(0x40)\n      0x08c379a000000000000000000000000000000000000000000000000000000000\n      dup2\n      mstore\n      0x04\n      add\n      tag_46\n      swap1\n      tag_47\n      jump\t// in\n    tag_46:\n      mload(0x40)\n      dup1\n      swap2\n      sub\n      swap1\n      revert\n    tag_45:\n        /* \"contracts/TokenVesting.sol\":3986:4022  VestingInfo  storage vestingInstance */\n      0x00\n        /* \"contracts/TokenVesting.sol\":4026:4039  beneficiaries */\n      dup1\n        /* \"contracts/TokenVesting.sol\":4026:4053  beneficiaries[_beneficiary] */\n      0x00\n        /* \"contracts/TokenVesting.sol\":4040:4052  _beneficiary */\n      dup12\n        /* \"contracts/TokenVesting.sol\":4026:4053  beneficiaries[_beneficiary] */\n      0xffffffffffffffffffffffffffffffffffffffff\n      and\n      0xffffffffffffffffffffffffffffffffffffffff\n      and\n      dup2\n      mstore\n      0x20\n      add\n      swap1\n      dup2\n      mstore\n      0x20\n      add\n      0x00\n      keccak256\n        /* \"contracts/TokenVesting.sol\":4026:4070  beneficiaries[_beneficiary].vestingSchedules */\n      0x01\n      add\n        /* \"contracts/TokenVesting.sol\":4026:4078  beneficiaries[_beneficiary].vestingSchedules[_token] */\n      0x00\n        /* \"contracts/TokenVesting.sol\":4071:4077  _token */\n      dup11\n        /* \"contracts/TokenVesting.sol\":4026:4078  beneficiaries[_beneficiary].vestingSchedules[_token] */\n      0xffffffffffffffffffffffffffffffffffffffff\n      and\n      0xffffffffffffffffffffffffffffffffffffffff\n      and\n      dup2\n      mstore\n      0x20\n      add\n      swap1\n      dup2\n      mstore\n      0x20\n      add\n      0x00\n      keccak256\n        /* \"contracts/TokenVesting.sol\":4079:4082  _id */\n      dup9\n        /* \"contracts/TokenVesting.sol\":4026:4083  beneficiaries[_beneficiary].vestingSchedules[_token][_id] */\n      dup2\n      sload\n      dup2\n      lt\n      tag_48\n      jumpi\n      tag_49\n      tag_34\n      jump\t// in\n    tag_49:\n    tag_48:\n      swap1\n      0x00\n      mstore\n      keccak256(0x00, 0x20)\n      swap1\n      0x07\n      mul\n      add\n        /* \"contracts/TokenVesting.sol\":3986:4083  VestingInfo  storage vestingInstance =  beneficiaries[_beneficiary].vestingSchedules[_token][_id] */\n      swap1\n      pop\n        /* \"contracts/TokenVesting.sol\":4128:4140  _claimAmount */\n      dup7\n        /* \"contracts/TokenVesting.sol\":4094:4109  vestingInstance */\n      dup2\n        /* \"contracts/TokenVesting.sol\":4094:4124  vestingInstance.releasedTokens */\n      0x06\n      add\n      0x00\n        /* \"contracts/TokenVesting.sol\":4094:4140  vestingInstance.releasedTokens += _claimAmount */\n      dup3\n      dup3\n      sload\n      tag_51\n      swap2\n      swap1\n      tag_52\n      jump\t// in\n    tag_51:\n      swap3\n      pop\n      pop\n      dup2\n      swap1\n      sstore\n      pop\n        /* \"contracts/TokenVesting.sol\":4151:4157  _token */\n      dup9\n        /* \"contracts/TokenVesting.sol\":4151:4166  _token.transfer */\n      0xffffffffffffffffffffffffffffffffffffffff\n      and\n      0xa9059cbb\n        /* \"contracts/TokenVesting.sol\":4167:4179  _beneficiary */\n      dup12\n        /* \"contracts/TokenVesting.sol\":4181:4193  _claimAmount */\n      dup10\n        /* \"contracts/TokenVesting.sol\":4151:4194  _token.transfer(_beneficiary, _claimAmount) */\n      mload(0x40)\n      dup4\n      0xffffffff\n      and\n      0xe0\n      shl\n      dup2\n      mstore\n      0x04\n      add\n      tag_53\n      swap3\n      swap2\n      swap1\n      tag_54\n      jump\t// in\n    tag_53:\n      0x20\n      mload(0x40)\n      dup1\n      dup4\n      sub\n      dup2\n      0x00\n      dup8\n      gas\n      call\n      iszero\n      dup1\n      iszero\n      tag_56\n      jumpi\n      returndatasize\n      0x00\n      dup1\n      returndatacopy\n      revert(0x00, returndatasize)\n    tag_56:\n      pop\n      pop\n      pop\n      pop\n      mload(0x40)\n      returndatasize\n      not(0x1f)\n      0x1f\n      dup3\n      add\n      and\n      dup3\n      add\n      dup1\n      0x40\n      mstore\n      pop\n      dup2\n      add\n      swap1\n      tag_57\n      swap2\n      swap1\n      tag_58\n      jump\t// in\n    tag_57:\n      pop\n        /* \"contracts/TokenVesting.sol\":4211:4290  ReleaseTokensEvent(_beneficiary, _claimAmount,\"Tokens released to beneficiary\") */\n      0xe76a1b59a572254539faf5af4cebc5bc4a5ee4c1d55436f3c97c5817d3b92681\n        /* \"contracts/TokenVesting.sol\":4230:4242  _beneficiary */\n      dup11\n        /* \"contracts/TokenVesting.sol\":4244:4256  _claimAmount */\n      dup9\n        /* \"contracts/TokenVesting.sol\":4211:4290  ReleaseTokensEvent(_beneficiary, _claimAmount,\"Tokens released to beneficiary\") */\n      mload(0x40)\n      tag_59\n      swap3\n      swap2\n      swap1\n      tag_60\n      jump\t// in\n    tag_59:\n      mload(0x40)\n      dup1\n      swap2\n      sub\n      swap1\n      log1\n        /* \"contracts/TokenVesting.sol\":3741:4298  {... */\n      pop\n      pop\n        /* \"contracts/TokenVesting.sol\":1109:1110  _ */\n      pop\n      pop\n      pop\n        /* \"contracts/TokenVesting.sol\":3577:4298  function releaseTokens(address _beneficiary, IERC20 _token,uint _id ,uint _claimAmount) isBeneficiary(_beneficiary) cliffPeriodOver(_beneficiary,_token,_id) public {... */\n      pop\n      pop\n      pop\n      pop\n      pop\n      jump\t// out\n        /* \"contracts/TokenVesting.sol\":1164:2186  function lockTokens(address _beneficiaryAddress,uint _tokensAmount,uint _cliff,uint _duration,uint _slicePeriod,IERC20 _token) isBeneficiary(_beneficiaryAddress) public {... */\n    tag_20:\n        /* \"contracts/TokenVesting.sol\":1305:1324  _beneficiaryAddress */\n      dup6\n        /* \"contracts/TokenVesting.sol\":1037:1049  _beneficiary */\n      dup1\n        /* \"contracts/TokenVesting.sol\":1025:1049  msg.sender==_beneficiary */\n      0xffffffffffffffffffffffffffffffffffffffff\n      and\n        /* \"contracts/TokenVesting.sol\":1025:1035  msg.sender */\n      caller\n        /* \"contracts/TokenVesting.sol\":1025:1049  msg.sender==_beneficiary */\n      0xffffffffffffffffffffffffffffffffffffffff\n      and\n      eq\n        /* \"contracts/TokenVesting.sol\":1016:1097  require( msg.sender==_beneficiary,\"Only Beneficiary can Lock and Release Tokens\") */\n      tag_62\n      jumpi\n      mload(0x40)\n      0x08c379a000000000000000000000000000000000000000000000000000000000\n      dup2\n      mstore\n      0x04\n      add\n      tag_63\n      swap1\n      tag_30\n      jump\t// in\n    tag_63:\n      mload(0x40)\n      dup1\n      swap2\n      sub\n      swap1\n      revert\n    tag_62:\n        /* \"contracts/TokenVesting.sol\":1366:1375  _duration */\n      dup4\n        /* \"contracts/TokenVesting.sol\":1352:1364  _slicePeriod */\n      dup4\n        /* \"contracts/TokenVesting.sol\":1352:1375  _slicePeriod<=_duration */\n      gt\n      iszero\n        /* \"contracts/TokenVesting.sol\":1352:1395  _slicePeriod<=_duration &&_cliff<=_duration */\n      dup1\n      iszero\n      tag_65\n      jumpi\n      pop\n        /* \"contracts/TokenVesting.sol\":1386:1395  _duration */\n      dup4\n        /* \"contracts/TokenVesting.sol\":1378:1384  _cliff */\n      dup6\n        /* \"contracts/TokenVesting.sol\":1378:1395  _cliff<=_duration */\n      gt\n      iszero\n        /* \"contracts/TokenVesting.sol\":1352:1395  _slicePeriod<=_duration &&_cliff<=_duration */\n    tag_65:\n        /* \"contracts/TokenVesting.sol\":1344:1440  require(_slicePeriod<=_duration &&_cliff<=_duration,\"Slice period & cliff should be < Duration\") */\n      tag_66\n      jumpi\n      mload(0x40)\n      0x08c379a000000000000000000000000000000000000000000000000000000000\n      dup2\n      mstore\n      0x04\n      add\n      tag_67\n      swap1\n      tag_68\n      jump\t// in\n    tag_67:\n      mload(0x40)\n      dup1\n      swap2\n      sub\n      swap1\n      revert\n    tag_66:\n        /* \"contracts/TokenVesting.sol\":1473:1474  0 */\n      0x00\n        /* \"contracts/TokenVesting.sol\":1459:1472  _tokensAmount */\n      dup7\n        /* \"contracts/TokenVesting.sol\":1459:1474  _tokensAmount>0 */\n      gt\n        /* \"contracts/TokenVesting.sol\":1451:1506  require(_tokensAmount>0,\"Tokens to vest should be > 0\") */\n      tag_69\n      jumpi\n      mload(0x40)\n      0x08c379a000000000000000000000000000000000000000000000000000000000\n      dup2\n      mstore\n      0x04\n      add\n      tag_70\n      swap1\n      tag_71\n      jump\t// in\n    tag_70:\n      mload(0x40)\n      dup1\n      swap2\n      sub\n      swap1\n      revert\n    tag_69:\n        /* \"contracts/TokenVesting.sol\":1517:1554  VestingInfo[] storage vestingsOfToken */\n      0x00\n        /* \"contracts/TokenVesting.sol\":1557:1570  beneficiaries */\n      dup1\n        /* \"contracts/TokenVesting.sol\":1557:1591  beneficiaries[_beneficiaryAddress] */\n      0x00\n        /* \"contracts/TokenVesting.sol\":1571:1590  _beneficiaryAddress */\n      dup10\n        /* \"contracts/TokenVesting.sol\":1557:1591  beneficiaries[_beneficiaryAddress] */\n      0xffffffffffffffffffffffffffffffffffffffff\n      and\n      0xffffffffffffffffffffffffffffffffffffffff\n      and\n      dup2\n      mstore\n      0x20\n      add\n      swap1\n      dup2\n      mstore\n      0x20\n      add\n      0x00\n      keccak256\n        /* \"contracts/TokenVesting.sol\":1557:1608  beneficiaries[_beneficiaryAddress].vestingSchedules */\n      0x01\n      add\n        /* \"contracts/TokenVesting.sol\":1557:1616  beneficiaries[_beneficiaryAddress].vestingSchedules[_token] */\n      0x00\n        /* \"contracts/TokenVesting.sol\":1609:1615  _token */\n      dup5\n        /* \"contracts/TokenVesting.sol\":1557:1616  beneficiaries[_beneficiaryAddress].vestingSchedules[_token] */\n      0xffffffffffffffffffffffffffffffffffffffff\n      and\n      0xffffffffffffffffffffffffffffffffffffffff\n      and\n      dup2\n      mstore\n      0x20\n      add\n      swap1\n      dup2\n      mstore\n      0x20\n      add\n      0x00\n      keccak256\n        /* \"contracts/TokenVesting.sol\":1517:1616  VestingInfo[] storage vestingsOfToken = beneficiaries[_beneficiaryAddress].vestingSchedules[_token] */\n      swap1\n      pop\n        /* \"contracts/TokenVesting.sol\":1627:1660  VestingInfo memory currentVesting */\n      0x00\n        /* \"contracts/TokenVesting.sol\":1662:1967  VestingInfo({... */\n      mload(0x40)\n      dup1\n      0xe0\n      add\n      0x40\n      mstore\n      dup1\n        /* \"contracts/TokenVesting.sol\":1700:1715  vestingsOfToken */\n      dup4\n        /* \"contracts/TokenVesting.sol\":1700:1722  vestingsOfToken.length */\n      dup1\n      sload\n      swap1\n      pop\n        /* \"contracts/TokenVesting.sol\":1662:1967  VestingInfo({... */\n      dup2\n      mstore\n      0x20\n      add\n        /* \"contracts/TokenVesting.sol\":1748:1763  block.timestamp */\n      timestamp\n        /* \"contracts/TokenVesting.sol\":1662:1967  VestingInfo({... */\n      dup2\n      mstore\n      0x20\n      add\n        /* \"contracts/TokenVesting.sol\":1788:1797  _duration */\n      dup8\n        /* \"contracts/TokenVesting.sol\":1662:1967  VestingInfo({... */\n      dup2\n      mstore\n      0x20\n      add\n        /* \"contracts/TokenVesting.sol\":1835:1841  _cliff */\n      dup9\n        /* \"contracts/TokenVesting.sol\":1818:1833  block.timestamp */\n      timestamp\n        /* \"contracts/TokenVesting.sol\":1818:1841  block.timestamp+ _cliff */\n      tag_72\n      swap2\n      swap1\n      tag_52\n      jump\t// in\n    tag_72:\n        /* \"contracts/TokenVesting.sol\":1662:1967  VestingInfo({... */\n      dup2\n      mstore\n      0x20\n      add\n        /* \"contracts/TokenVesting.sol\":1869:1881  _slicePeriod */\n      dup7\n        /* \"contracts/TokenVesting.sol\":1662:1967  VestingInfo({... */\n      dup2\n      mstore\n      0x20\n      add\n        /* \"contracts/TokenVesting.sol\":1910:1923  _tokensAmount */\n      dup10\n        /* \"contracts/TokenVesting.sol\":1662:1967  VestingInfo({... */\n      dup2\n      mstore\n      0x20\n      add\n        /* \"contracts/TokenVesting.sol\":1954:1955  0 */\n      0x00\n        /* \"contracts/TokenVesting.sol\":1662:1967  VestingInfo({... */\n      dup2\n      mstore\n      pop\n        /* \"contracts/TokenVesting.sol\":1627:1967  VestingInfo memory currentVesting= VestingInfo({... */\n      swap1\n      pop\n        /* \"contracts/TokenVesting.sol\":1978:1993  vestingsOfToken */\n      dup2\n        /* \"contracts/TokenVesting.sol\":1999:2013  currentVesting */\n      dup2\n        /* \"contracts/TokenVesting.sol\":1978:2014  vestingsOfToken.push(currentVesting) */\n      swap1\n      dup1\n      0x01\n      dup2\n      sload\n      add\n      dup1\n      dup3\n      sstore\n      dup1\n      swap2\n      pop\n      pop\n      0x01\n      swap1\n      sub\n      swap1\n      0x00\n      mstore\n      keccak256(0x00, 0x20)\n      swap1\n      0x07\n      mul\n      add\n      0x00\n      swap1\n      swap2\n      swap1\n      swap2\n      swap1\n      swap2\n      pop\n      0x00\n      dup3\n      add\n      mload\n      dup2\n      0x00\n      add\n      sstore\n      0x20\n      dup3\n      add\n      mload\n      dup2\n      0x01\n      add\n      sstore\n      0x40\n      dup3\n      add\n      mload\n      dup2\n      0x02\n      add\n      sstore\n      0x60\n      dup3\n      add\n      mload\n      dup2\n      0x03\n      add\n      sstore\n      0x80\n      dup3\n      add\n      mload\n      dup2\n      0x04\n      add\n      sstore\n      0xa0\n      dup3\n      add\n      mload\n      dup2\n      0x05\n      add\n      sstore\n      0xc0\n      dup3\n      add\n      mload\n      dup2\n      0x06\n      add\n      sstore\n      pop\n      pop\n        /* \"contracts/TokenVesting.sol\":2025:2031  _token */\n      dup4\n        /* \"contracts/TokenVesting.sol\":2025:2044  _token.transferFrom */\n      0xffffffffffffffffffffffffffffffffffffffff\n      and\n      0x23b872dd\n        /* \"contracts/TokenVesting.sol\":2045:2055  msg.sender */\n      caller\n        /* \"contracts/TokenVesting.sol\":2065:2069  this */\n      address\n        /* \"contracts/TokenVesting.sol\":2072:2085  _tokensAmount */\n      dup12\n        /* \"contracts/TokenVesting.sol\":2025:2086  _token.transferFrom(msg.sender, address(this), _tokensAmount) */\n      mload(0x40)\n      dup5\n      0xffffffff\n      and\n      0xe0\n      shl\n      dup2\n      mstore\n      0x04\n      add\n      tag_74\n      swap4\n      swap3\n      swap2\n      swap1\n      tag_75\n      jump\t// in\n    tag_74:\n      0x20\n      mload(0x40)\n      dup1\n      dup4\n      sub\n      dup2\n      0x00\n      dup8\n      gas\n      call\n      iszero\n      dup1\n      iszero\n      tag_77\n      jumpi\n      returndatasize\n      0x00\n      dup1\n      returndatacopy\n      revert(0x00, returndatasize)\n    tag_77:\n      pop\n      pop\n      pop\n      pop\n      mload(0x40)\n      returndatasize\n      not(0x1f)\n      0x1f\n      dup3\n      add\n      and\n      dup3\n      add\n      dup1\n      0x40\n      mstore\n      pop\n      dup2\n      add\n      swap1\n      tag_78\n      swap2\n      swap1\n      tag_58\n      jump\t// in\n    tag_78:\n      pop\n        /* \"contracts/TokenVesting.sol\":2102:2178  LockTokensEvent(_beneficiaryAddress, \"Tokens are Locked in smart contract \") */\n      0x58061f685b438748cf21469042b11fe4dfb0c77fd2da64032c5adc017fc09a88\n        /* \"contracts/TokenVesting.sol\":2118:2137  _beneficiaryAddress */\n      dup10\n        /* \"contracts/TokenVesting.sol\":2102:2178  LockTokensEvent(_beneficiaryAddress, \"Tokens are Locked in smart contract \") */\n      mload(0x40)\n      tag_79\n      swap2\n      swap1\n      tag_80\n      jump\t// in\n    tag_79:\n      mload(0x40)\n      dup1\n      swap2\n      sub\n      swap1\n      log1\n        /* \"contracts/TokenVesting.sol\":1333:2186  {... */\n      pop\n      pop\n        /* \"contracts/TokenVesting.sol\":1164:2186  function lockTokens(address _beneficiaryAddress,uint _tokensAmount,uint _cliff,uint _duration,uint _slicePeriod,IERC20 _token) isBeneficiary(_beneficiaryAddress) public {... */\n      pop\n      pop\n      pop\n      pop\n      pop\n      pop\n      pop\n      jump\t// out\n        /* \"contracts/TokenVesting.sol\":2253:2468  function getVestingDetails(address _beneficiaryAddress, IERC20 _token , uint _id )public view returns(VestingInfo memory){... */\n    tag_24:\n        /* \"contracts/TokenVesting.sol\":2355:2373  VestingInfo memory */\n      tag_81\n      tag_82\n      jump\t// in\n    tag_81:\n        /* \"contracts/TokenVesting.sol\":2394:2407  beneficiaries */\n      0x00\n        /* \"contracts/TokenVesting.sol\":2394:2428  beneficiaries[_beneficiaryAddress] */\n      dup1\n        /* \"contracts/TokenVesting.sol\":2408:2427  _beneficiaryAddress */\n      dup6\n        /* \"contracts/TokenVesting.sol\":2394:2428  beneficiaries[_beneficiaryAddress] */\n      0xffffffffffffffffffffffffffffffffffffffff\n      and\n      0xffffffffffffffffffffffffffffffffffffffff\n      and\n      dup2\n      mstore\n      0x20\n      add\n      swap1\n      dup2\n      mstore\n      0x20\n      add\n      0x00\n      keccak256\n        /* \"contracts/TokenVesting.sol\":2394:2445  beneficiaries[_beneficiaryAddress].vestingSchedules */\n      0x01\n      add\n        /* \"contracts/TokenVesting.sol\":2394:2453  beneficiaries[_beneficiaryAddress].vestingSchedules[_token] */\n      0x00\n        /* \"contracts/TokenVesting.sol\":2446:2452  _token */\n      dup5\n        /* \"contracts/TokenVesting.sol\":2394:2453  beneficiaries[_beneficiaryAddress].vestingSchedules[_token] */\n      0xffffffffffffffffffffffffffffffffffffffff\n      and\n      0xffffffffffffffffffffffffffffffffffffffff\n      and\n      dup2\n      mstore\n      0x20\n      add\n      swap1\n      dup2\n      mstore\n      0x20\n      add\n      0x00\n      keccak256\n        /* \"contracts/TokenVesting.sol\":2454:2457  _id */\n      dup3\n        /* \"contracts/TokenVesting.sol\":2394:2458  beneficiaries[_beneficiaryAddress].vestingSchedules[_token][_id] */\n      dup2\n      sload\n      dup2\n      lt\n      tag_84\n      jumpi\n      tag_85\n      tag_34\n      jump\t// in\n    tag_85:\n    tag_84:\n      swap1\n      0x00\n      mstore\n      keccak256(0x00, 0x20)\n      swap1\n      0x07\n      mul\n      add\n        /* \"contracts/TokenVesting.sol\":2387:2458  return beneficiaries[_beneficiaryAddress].vestingSchedules[_token][_id] */\n      mload(0x40)\n      dup1\n      0xe0\n      add\n      0x40\n      mstore\n      swap1\n      dup2\n      0x00\n      dup3\n      add\n      sload\n      dup2\n      mstore\n      0x20\n      add\n      0x01\n      dup3\n      add\n      sload\n      dup2\n      mstore\n      0x20\n      add\n      0x02\n      dup3\n      add\n      sload\n      dup2\n      mstore\n      0x20\n      add\n      0x03\n      dup3\n      add\n      sload\n      dup2\n      mstore\n      0x20\n      add\n      0x04\n      dup3\n      add\n      sload\n      dup2\n      mstore\n      0x20\n      add\n      0x05\n      dup3\n      add\n      sload\n      dup2\n      mstore\n      0x20\n      add\n      0x06\n      dup3\n      add\n      sload\n      dup2\n      mstore\n      pop\n      pop\n      swap1\n      pop\n        /* \"contracts/TokenVesting.sol\":2253:2468  function getVestingDetails(address _beneficiaryAddress, IERC20 _token , uint _id )public view returns(VestingInfo memory){... */\n      swap4\n      swap3\n      pop\n      pop\n      pop\n      jump\t// out\n        /* \"contracts/TokenVesting.sol\":2528:3526  function releasableTokens(address _beneficiary,IERC20 _token,uint _id) internal view  returns(uint) {... */\n    tag_41:\n        /* \"contracts/TokenVesting.sol\":2622:2626  uint */\n      0x00\n        /* \"contracts/TokenVesting.sol\":2639:2673  VestingInfo memory vestingInstance */\n      dup1\n        /* \"contracts/TokenVesting.sol\":2677:2690  beneficiaries */\n      0x00\n        /* \"contracts/TokenVesting.sol\":2677:2704  beneficiaries[_beneficiary] */\n      dup1\n        /* \"contracts/TokenVesting.sol\":2691:2703  _beneficiary */\n      dup7\n        /* \"contracts/TokenVesting.sol\":2677:2704  beneficiaries[_beneficiary] */\n      0xffffffffffffffffffffffffffffffffffffffff\n      and\n      0xffffffffffffffffffffffffffffffffffffffff\n      and\n      dup2\n      mstore\n      0x20\n      add\n      swap1\n      dup2\n      mstore\n      0x20\n      add\n      0x00\n      keccak256\n        /* \"contracts/TokenVesting.sol\":2677:2721  beneficiaries[_beneficiary].vestingSchedules */\n      0x01\n      add\n        /* \"contracts/TokenVesting.sol\":2677:2729  beneficiaries[_beneficiary].vestingSchedules[_token] */\n      0x00\n        /* \"contracts/TokenVesting.sol\":2722:2728  _token */\n      dup6\n        /* \"contracts/TokenVesting.sol\":2677:2729  beneficiaries[_beneficiary].vestingSchedules[_token] */\n      0xffffffffffffffffffffffffffffffffffffffff\n      and\n      0xffffffffffffffffffffffffffffffffffffffff\n      and\n      dup2\n      mstore\n      0x20\n      add\n      swap1\n      dup2\n      mstore\n      0x20\n      add\n      0x00\n      keccak256\n        /* \"contracts/TokenVesting.sol\":2730:2733  _id */\n      dup4\n        /* \"contracts/TokenVesting.sol\":2677:2734  beneficiaries[_beneficiary].vestingSchedules[_token][_id] */\n      dup2\n      sload\n      dup2\n      lt\n      tag_88\n      jumpi\n      tag_89\n      tag_34\n      jump\t// in\n    tag_89:\n    tag_88:\n      swap1\n      0x00\n      mstore\n      keccak256(0x00, 0x20)\n      swap1\n      0x07\n      mul\n      add\n        /* \"contracts/TokenVesting.sol\":2639:2734  VestingInfo memory vestingInstance =  beneficiaries[_beneficiary].vestingSchedules[_token][_id] */\n      mload(0x40)\n      dup1\n      0xe0\n      add\n      0x40\n      mstore\n      swap1\n      dup2\n      0x00\n      dup3\n      add\n      sload\n      dup2\n      mstore\n      0x20\n      add\n      0x01\n      dup3\n      add\n      sload\n      dup2\n      mstore\n      0x20\n      add\n      0x02\n      dup3\n      add\n      sload\n      dup2\n      mstore\n      0x20\n      add\n      0x03\n      dup3\n      add\n      sload\n      dup2\n      mstore\n      0x20\n      add\n      0x04\n      dup3\n      add\n      sload\n      dup2\n      mstore\n      0x20\n      add\n      0x05\n      dup3\n      add\n      sload\n      dup2\n      mstore\n      0x20\n      add\n      0x06\n      dup3\n      add\n      sload\n      dup2\n      mstore\n      pop\n      pop\n      swap1\n      pop\n        /* \"contracts/TokenVesting.sol\":2745:2764  uint timeSinceStart */\n      0x00\n        /* \"contracts/TokenVesting.sol\":2785:2800  vestingInstance */\n      dup2\n        /* \"contracts/TokenVesting.sol\":2785:2810  vestingInstance.startTime */\n      0x20\n      add\n      mload\n        /* \"contracts/TokenVesting.sol\":2767:2782  block.timestamp */\n      timestamp\n        /* \"contracts/TokenVesting.sol\":2767:2810  block.timestamp - vestingInstance.startTime */\n      tag_91\n      swap2\n      swap1\n      tag_92\n      jump\t// in\n    tag_91:\n        /* \"contracts/TokenVesting.sol\":2745:2810  uint timeSinceStart = block.timestamp - vestingInstance.startTime */\n      swap1\n      pop\n        /* \"contracts/TokenVesting.sol\":2821:2847  uint noOfPeriodsSinceStart */\n      0x00\n        /* \"contracts/TokenVesting.sol\":2865:2880  vestingInstance */\n      dup3\n        /* \"contracts/TokenVesting.sol\":2865:2892  vestingInstance.slicePeriod */\n      0x80\n      add\n      mload\n        /* \"contracts/TokenVesting.sol\":2850:2864  timeSinceStart */\n      dup3\n        /* \"contracts/TokenVesting.sol\":2850:2892  timeSinceStart/vestingInstance.slicePeriod */\n      tag_93\n      swap2\n      swap1\n      tag_94\n      jump\t// in\n    tag_93:\n        /* \"contracts/TokenVesting.sol\":2821:2892  uint noOfPeriodsSinceStart = timeSinceStart/vestingInstance.slicePeriod */\n      swap1\n      pop\n        /* \"contracts/TokenVesting.sol\":2903:2920  uint totalPeriods */\n      0x00\n        /* \"contracts/TokenVesting.sol\":2948:2963  vestingInstance */\n      dup4\n        /* \"contracts/TokenVesting.sol\":2948:2975  vestingInstance.slicePeriod */\n      0x80\n      add\n      mload\n        /* \"contracts/TokenVesting.sol\":2922:2937  vestingInstance */\n      dup5\n        /* \"contracts/TokenVesting.sol\":2922:2946  vestingInstance.duration */\n      0x40\n      add\n      mload\n        /* \"contracts/TokenVesting.sol\":2922:2975  vestingInstance.duration /vestingInstance.slicePeriod */\n      tag_95\n      swap2\n      swap1\n      tag_94\n      jump\t// in\n    tag_95:\n        /* \"contracts/TokenVesting.sol\":2903:2975  uint totalPeriods =vestingInstance.duration /vestingInstance.slicePeriod */\n      swap1\n      pop\n        /* \"contracts/TokenVesting.sol\":2986:3005  uint releasedTokens */\n      0x00\n        /* \"contracts/TokenVesting.sol\":3006:3021  vestingInstance */\n      dup5\n        /* \"contracts/TokenVesting.sol\":3006:3036  vestingInstance.releasedTokens */\n      0xc0\n      add\n      mload\n        /* \"contracts/TokenVesting.sol\":2986:3036  uint releasedTokens=vestingInstance.releasedTokens */\n      swap1\n      pop\n        /* \"contracts/TokenVesting.sol\":3047:3068  uint totalTokenAmount */\n      0x00\n        /* \"contracts/TokenVesting.sol\":3069:3084  vestingInstance */\n      dup6\n        /* \"contracts/TokenVesting.sol\":3069:3097  vestingInstance.tokensAmount */\n      0xa0\n      add\n      mload\n        /* \"contracts/TokenVesting.sol\":3047:3097  uint totalTokenAmount=vestingInstance.tokensAmount */\n      swap1\n      pop\n        /* \"contracts/TokenVesting.sol\":3137:3149  totalPeriods */\n      dup3\n        /* \"contracts/TokenVesting.sol\":3112:3133  noOfPeriodsSinceStart */\n      dup5\n        /* \"contracts/TokenVesting.sol\":3112:3149  noOfPeriodsSinceStart >= totalPeriods */\n      lt\n        /* \"contracts/TokenVesting.sol\":3108:3519  if (noOfPeriodsSinceStart >= totalPeriods ) {... */\n      tag_96\n      jumpi\n        /* \"contracts/TokenVesting.sol\":3191:3205  releasedTokens */\n      dup2\n        /* \"contracts/TokenVesting.sol\":3174:3190  totalTokenAmount */\n      dup2\n        /* \"contracts/TokenVesting.sol\":3174:3205  totalTokenAmount-releasedTokens */\n      tag_97\n      swap2\n      swap1\n      tag_92\n      jump\t// in\n    tag_97:\n        /* \"contracts/TokenVesting.sol\":3167:3205  return totalTokenAmount-releasedTokens */\n      swap7\n      pop\n      pop\n      pop\n      pop\n      pop\n      pop\n      pop\n      jump(tag_87)\n        /* \"contracts/TokenVesting.sol\":3108:3519  if (noOfPeriodsSinceStart >= totalPeriods ) {... */\n    tag_96:\n        /* \"contracts/TokenVesting.sol\":3248:3278  uint tokensReleasedInOnePeriod */\n      0x00\n        /* \"contracts/TokenVesting.sol\":3298:3310  totalPeriods */\n      dup4\n        /* \"contracts/TokenVesting.sol\":3280:3296  totalTokenAmount */\n      dup3\n        /* \"contracts/TokenVesting.sol\":3280:3310  totalTokenAmount/ totalPeriods */\n      tag_99\n      swap2\n      swap1\n      tag_94\n      jump\t// in\n    tag_99:\n        /* \"contracts/TokenVesting.sol\":3248:3310  uint tokensReleasedInOnePeriod =totalTokenAmount/ totalPeriods */\n      swap1\n      pop\n        /* \"contracts/TokenVesting.sol\":3325:3348  uint tokensToBeReleased */\n      0x00\n        /* \"contracts/TokenVesting.sol\":3379:3400  noOfPeriodsSinceStart */\n      dup6\n        /* \"contracts/TokenVesting.sol\":3351:3376  tokensReleasedInOnePeriod */\n      dup3\n        /* \"contracts/TokenVesting.sol\":3351:3400  tokensReleasedInOnePeriod * noOfPeriodsSinceStart */\n      tag_100\n      swap2\n      swap1\n      tag_101\n      jump\t// in\n    tag_100:\n        /* \"contracts/TokenVesting.sol\":3325:3400  uint tokensToBeReleased = tokensReleasedInOnePeriod * noOfPeriodsSinceStart */\n      swap1\n      pop\n        /* \"contracts/TokenVesting.sol\":3453:3467  releasedTokens */\n      dup4\n        /* \"contracts/TokenVesting.sol\":3434:3452  tokensToBeReleased */\n      dup2\n        /* \"contracts/TokenVesting.sol\":3434:3467  tokensToBeReleased-releasedTokens */\n      tag_102\n      swap2\n      swap1\n      tag_92\n      jump\t// in\n    tag_102:\n        /* \"contracts/TokenVesting.sol\":3415:3467  tokensToBeReleased=tokensToBeReleased-releasedTokens */\n      swap1\n      pop\n        /* \"contracts/TokenVesting.sol\":3489:3507  tokensToBeReleased */\n      dup1\n        /* \"contracts/TokenVesting.sol\":3482:3507  return tokensToBeReleased */\n      swap9\n      pop\n      pop\n      pop\n      pop\n      pop\n      pop\n      pop\n      pop\n      pop\n        /* \"contracts/TokenVesting.sol\":2528:3526  function releasableTokens(address _beneficiary,IERC20 _token,uint _id) internal view  returns(uint) {... */\n    tag_87:\n      swap4\n      swap3\n      pop\n      pop\n      pop\n      jump\t// out\n    tag_82:\n      mload(0x40)\n      dup1\n      0xe0\n      add\n      0x40\n      mstore\n      dup1\n      0x00\n      dup2\n      mstore\n      0x20\n      add\n      0x00\n      dup2\n      mstore\n      0x20\n      add\n      0x00\n      dup2\n      mstore\n      0x20\n      add\n      0x00\n      dup2\n      mstore\n      0x20\n      add\n      0x00\n      dup2\n      mstore\n      0x20\n      add\n      0x00\n      dup2\n      mstore\n      0x20\n      add\n      0x00\n      dup2\n      mstore\n      pop\n      swap1\n      jump\t// out\n        /* \"#utility.yul\":88:205   */\n    tag_104:\n        /* \"#utility.yul\":197:198   */\n      0x00\n        /* \"#utility.yul\":194:195   */\n      dup1\n        /* \"#utility.yul\":187:199   */\n      revert\n        /* \"#utility.yul\":334:460   */\n    tag_106:\n        /* \"#utility.yul\":371:378   */\n      0x00\n        /* \"#utility.yul\":411:453   */\n      0xffffffffffffffffffffffffffffffffffffffff\n        /* \"#utility.yul\":404:409   */\n      dup3\n        /* \"#utility.yul\":400:454   */\n      and\n        /* \"#utility.yul\":389:454   */\n      swap1\n      pop\n        /* \"#utility.yul\":334:460   */\n      swap2\n      swap1\n      pop\n      jump\t// out\n        /* \"#utility.yul\":466:562   */\n    tag_107:\n        /* \"#utility.yul\":503:510   */\n      0x00\n        /* \"#utility.yul\":532:556   */\n      tag_148\n        /* \"#utility.yul\":550:555   */\n      dup3\n        /* \"#utility.yul\":532:556   */\n      tag_106\n      jump\t// in\n    tag_148:\n        /* \"#utility.yul\":521:556   */\n      swap1\n      pop\n        /* \"#utility.yul\":466:562   */\n      swap2\n      swap1\n      pop\n      jump\t// out\n        /* \"#utility.yul\":568:690   */\n    tag_108:\n        /* \"#utility.yul\":641:665   */\n      tag_150\n        /* \"#utility.yul\":659:664   */\n      dup2\n        /* \"#utility.yul\":641:665   */\n      tag_107\n      jump\t// in\n    tag_150:\n        /* \"#utility.yul\":634:639   */\n      dup2\n        /* \"#utility.yul\":631:666   */\n      eq\n        /* \"#utility.yul\":621:684   */\n      tag_151\n      jumpi\n        /* \"#utility.yul\":680:681   */\n      0x00\n        /* \"#utility.yul\":677:678   */\n      dup1\n        /* \"#utility.yul\":670:682   */\n      revert\n        /* \"#utility.yul\":621:684   */\n    tag_151:\n        /* \"#utility.yul\":568:690   */\n      pop\n      jump\t// out\n        /* \"#utility.yul\":696:835   */\n    tag_109:\n        /* \"#utility.yul\":742:747   */\n      0x00\n        /* \"#utility.yul\":780:786   */\n      dup2\n        /* \"#utility.yul\":767:787   */\n      calldataload\n        /* \"#utility.yul\":758:787   */\n      swap1\n      pop\n        /* \"#utility.yul\":796:829   */\n      tag_153\n        /* \"#utility.yul\":823:828   */\n      dup2\n        /* \"#utility.yul\":796:829   */\n      tag_108\n      jump\t// in\n    tag_153:\n        /* \"#utility.yul\":696:835   */\n      swap3\n      swap2\n      pop\n      pop\n      jump\t// out\n        /* \"#utility.yul\":841:1170   */\n    tag_9:\n        /* \"#utility.yul\":900:906   */\n      0x00\n        /* \"#utility.yul\":949:951   */\n      0x20\n        /* \"#utility.yul\":937:946   */\n      dup3\n        /* \"#utility.yul\":928:935   */\n      dup5\n        /* \"#utility.yul\":924:947   */\n      sub\n        /* \"#utility.yul\":920:952   */\n      slt\n        /* \"#utility.yul\":917:1036   */\n      iszero\n      tag_155\n      jumpi\n        /* \"#utility.yul\":955:1034   */\n      tag_156\n      tag_104\n      jump\t// in\n    tag_156:\n        /* \"#utility.yul\":917:1036   */\n    tag_155:\n        /* \"#utility.yul\":1075:1076   */\n      0x00\n        /* \"#utility.yul\":1100:1153   */\n      tag_157\n        /* \"#utility.yul\":1145:1152   */\n      dup5\n        /* \"#utility.yul\":1136:1142   */\n      dup3\n        /* \"#utility.yul\":1125:1134   */\n      dup6\n        /* \"#utility.yul\":1121:1143   */\n      add\n        /* \"#utility.yul\":1100:1153   */\n      tag_109\n      jump\t// in\n    tag_157:\n        /* \"#utility.yul\":1090:1153   */\n      swap2\n      pop\n        /* \"#utility.yul\":1046:1163   */\n      pop\n        /* \"#utility.yul\":841:1170   */\n      swap3\n      swap2\n      pop\n      pop\n      jump\t// out\n        /* \"#utility.yul\":1176:1253   */\n    tag_110:\n        /* \"#utility.yul\":1213:1220   */\n      0x00\n        /* \"#utility.yul\":1242:1247   */\n      dup2\n        /* \"#utility.yul\":1231:1247   */\n      swap1\n      pop\n        /* \"#utility.yul\":1176:1253   */\n      swap2\n      swap1\n      pop\n      jump\t// out\n        /* \"#utility.yul\":1259:1377   */\n    tag_111:\n        /* \"#utility.yul\":1346:1370   */\n      tag_160\n        /* \"#utility.yul\":1364:1369   */\n      dup2\n        /* \"#utility.yul\":1346:1370   */\n      tag_110\n      jump\t// in\n    tag_160:\n        /* \"#utility.yul\":1341:1344   */\n      dup3\n        /* \"#utility.yul\":1334:1371   */\n      mstore\n        /* \"#utility.yul\":1259:1377   */\n      pop\n      pop\n      jump\t// out\n        /* \"#utility.yul\":1383:1605   */\n    tag_12:\n        /* \"#utility.yul\":1476:1480   */\n      0x00\n        /* \"#utility.yul\":1514:1516   */\n      0x20\n        /* \"#utility.yul\":1503:1512   */\n      dup3\n        /* \"#utility.yul\":1499:1517   */\n      add\n        /* \"#utility.yul\":1491:1517   */\n      swap1\n      pop\n        /* \"#utility.yul\":1527:1598   */\n      tag_162\n        /* \"#utility.yul\":1595:1596   */\n      0x00\n        /* \"#utility.yul\":1584:1593   */\n      dup4\n        /* \"#utility.yul\":1580:1597   */\n      add\n        /* \"#utility.yul\":1571:1577   */\n      dup5\n        /* \"#utility.yul\":1527:1598   */\n      tag_111\n      jump\t// in\n    tag_162:\n        /* \"#utility.yul\":1383:1605   */\n      swap3\n      swap2\n      pop\n      pop\n      jump\t// out\n        /* \"#utility.yul\":1611:1720   */\n    tag_112:\n        /* \"#utility.yul\":1661:1668   */\n      0x00\n        /* \"#utility.yul\":1690:1714   */\n      tag_164\n        /* \"#utility.yul\":1708:1713   */\n      dup3\n        /* \"#utility.yul\":1690:1714   */\n      tag_107\n      jump\t// in\n    tag_164:\n        /* \"#utility.yul\":1679:1714   */\n      swap1\n      pop\n        /* \"#utility.yul\":1611:1720   */\n      swap2\n      swap1\n      pop\n      jump\t// out\n        /* \"#utility.yul\":1726:1874   */\n    tag_113:\n        /* \"#utility.yul\":1812:1849   */\n      tag_166\n        /* \"#utility.yul\":1843:1848   */\n      dup2\n        /* \"#utility.yul\":1812:1849   */\n      tag_112\n      jump\t// in\n    tag_166:\n        /* \"#utility.yul\":1805:1810   */\n      dup2\n        /* \"#utility.yul\":1802:1850   */\n      eq\n        /* \"#utility.yul\":1792:1868   */\n      tag_167\n      jumpi\n        /* \"#utility.yul\":1864:1865   */\n      0x00\n        /* \"#utility.yul\":1861:1862   */\n      dup1\n        /* \"#utility.yul\":1854:1866   */\n      revert\n        /* \"#utility.yul\":1792:1868   */\n    tag_167:\n        /* \"#utility.yul\":1726:1874   */\n      pop\n      jump\t// out\n        /* \"#utility.yul\":1880:2045   */\n    tag_114:\n        /* \"#utility.yul\":1939:1944   */\n      0x00\n        /* \"#utility.yul\":1977:1983   */\n      dup2\n        /* \"#utility.yul\":1964:1984   */\n      calldataload\n        /* \"#utility.yul\":1955:1984   */\n      swap1\n      pop\n        /* \"#utility.yul\":1993:2039   */\n      tag_169\n        /* \"#utility.yul\":2033:2038   */\n      dup2\n        /* \"#utility.yul\":1993:2039   */\n      tag_113\n      jump\t// in\n    tag_169:\n        /* \"#utility.yul\":1880:2045   */\n      swap3\n      swap2\n      pop\n      pop\n      jump\t// out\n        /* \"#utility.yul\":2051:2173   */\n    tag_115:\n        /* \"#utility.yul\":2124:2148   */\n      tag_171\n        /* \"#utility.yul\":2142:2147   */\n      dup2\n        /* \"#utility.yul\":2124:2148   */\n      tag_110\n      jump\t// in\n    tag_171:\n        /* \"#utility.yul\":2117:2122   */\n      dup2\n        /* \"#utility.yul\":2114:2149   */\n      eq\n        /* \"#utility.yul\":2104:2167   */\n      tag_172\n      jumpi\n        /* \"#utility.yul\":2163:2164   */\n      0x00\n        /* \"#utility.yul\":2160:2161   */\n      dup1\n        /* \"#utility.yul\":2153:2165   */\n      revert\n        /* \"#utility.yul\":2104:2167   */\n    tag_172:\n        /* \"#utility.yul\":2051:2173   */\n      pop\n      jump\t// out\n        /* \"#utility.yul\":2179:2318   */\n    tag_116:\n        /* \"#utility.yul\":2225:2230   */\n      0x00\n        /* \"#utility.yul\":2263:2269   */\n      dup2\n        /* \"#utility.yul\":2250:2270   */\n      calldataload\n        /* \"#utility.yul\":2241:2270   */\n      swap1\n      pop\n        /* \"#utility.yul\":2279:2312   */\n      tag_174\n        /* \"#utility.yul\":2306:2311   */\n      dup2\n        /* \"#utility.yul\":2279:2312   */\n      tag_115\n      jump\t// in\n    tag_174:\n        /* \"#utility.yul\":2179:2318   */\n      swap3\n      swap2\n      pop\n      pop\n      jump\t// out\n        /* \"#utility.yul\":2324:3115   */\n    tag_15:\n        /* \"#utility.yul\":2423:2429   */\n      0x00\n        /* \"#utility.yul\":2431:2437   */\n      dup1\n        /* \"#utility.yul\":2439:2445   */\n      0x00\n        /* \"#utility.yul\":2447:2453   */\n      dup1\n        /* \"#utility.yul\":2496:2499   */\n      0x80\n        /* \"#utility.yul\":2484:2493   */\n      dup6\n        /* \"#utility.yul\":2475:2482   */\n      dup8\n        /* \"#utility.yul\":2471:2494   */\n      sub\n        /* \"#utility.yul\":2467:2500   */\n      slt\n        /* \"#utility.yul\":2464:2584   */\n      iszero\n      tag_176\n      jumpi\n        /* \"#utility.yul\":2503:2582   */\n      tag_177\n      tag_104\n      jump\t// in\n    tag_177:\n        /* \"#utility.yul\":2464:2584   */\n    tag_176:\n        /* \"#utility.yul\":2623:2624   */\n      0x00\n        /* \"#utility.yul\":2648:2701   */\n      tag_178\n        /* \"#utility.yul\":2693:2700   */\n      dup8\n        /* \"#utility.yul\":2684:2690   */\n      dup3\n        /* \"#utility.yul\":2673:2682   */\n      dup9\n        /* \"#utility.yul\":2669:2691   */\n      add\n        /* \"#utility.yul\":2648:2701   */\n      tag_109\n      jump\t// in\n    tag_178:\n        /* \"#utility.yul\":2638:2701   */\n      swap5\n      pop\n        /* \"#utility.yul\":2594:2711   */\n      pop\n        /* \"#utility.yul\":2750:2752   */\n      0x20\n        /* \"#utility.yul\":2776:2842   */\n      tag_179\n        /* \"#utility.yul\":2834:2841   */\n      dup8\n        /* \"#utility.yul\":2825:2831   */\n      dup3\n        /* \"#utility.yul\":2814:2823   */\n      dup9\n        /* \"#utility.yul\":2810:2832   */\n      add\n        /* \"#utility.yul\":2776:2842   */\n      tag_114\n      jump\t// in\n    tag_179:\n        /* \"#utility.yul\":2766:2842   */\n      swap4\n      pop\n        /* \"#utility.yul\":2721:2852   */\n      pop\n        /* \"#utility.yul\":2891:2893   */\n      0x40\n        /* \"#utility.yul\":2917:2970   */\n      tag_180\n        /* \"#utility.yul\":2962:2969   */\n      dup8\n        /* \"#utility.yul\":2953:2959   */\n      dup3\n        /* \"#utility.yul\":2942:2951   */\n      dup9\n        /* \"#utility.yul\":2938:2960   */\n      add\n        /* \"#utility.yul\":2917:2970   */\n      tag_116\n      jump\t// in\n    tag_180:\n        /* \"#utility.yul\":2907:2970   */\n      swap3\n      pop\n        /* \"#utility.yul\":2862:2980   */\n      pop\n        /* \"#utility.yul\":3019:3021   */\n      0x60\n        /* \"#utility.yul\":3045:3098   */\n      tag_181\n        /* \"#utility.yul\":3090:3097   */\n      dup8\n        /* \"#utility.yul\":3081:3087   */\n      dup3\n        /* \"#utility.yul\":3070:3079   */\n      dup9\n        /* \"#utility.yul\":3066:3088   */\n      add\n        /* \"#utility.yul\":3045:3098   */\n      tag_116\n      jump\t// in\n    tag_181:\n        /* \"#utility.yul\":3035:3098   */\n      swap2\n      pop\n        /* \"#utility.yul\":2990:3108   */\n      pop\n        /* \"#utility.yul\":2324:3115   */\n      swap3\n      swap6\n      swap2\n      swap5\n      pop\n      swap3\n      pop\n      jump\t// out\n        /* \"#utility.yul\":3121:4204   */\n    tag_19:\n        /* \"#utility.yul\":3238:3244   */\n      0x00\n        /* \"#utility.yul\":3246:3252   */\n      dup1\n        /* \"#utility.yul\":3254:3260   */\n      0x00\n        /* \"#utility.yul\":3262:3268   */\n      dup1\n        /* \"#utility.yul\":3270:3276   */\n      0x00\n        /* \"#utility.yul\":3278:3284   */\n      dup1\n        /* \"#utility.yul\":3327:3330   */\n      0xc0\n        /* \"#utility.yul\":3315:3324   */\n      dup8\n        /* \"#utility.yul\":3306:3313   */\n      dup10\n        /* \"#utility.yul\":3302:3325   */\n      sub\n        /* \"#utility.yul\":3298:3331   */\n      slt\n        /* \"#utility.yul\":3295:3415   */\n      iszero\n      tag_183\n      jumpi\n        /* \"#utility.yul\":3334:3413   */\n      tag_184\n      tag_104\n      jump\t// in\n    tag_184:\n        /* \"#utility.yul\":3295:3415   */\n    tag_183:\n        /* \"#utility.yul\":3454:3455   */\n      0x00\n        /* \"#utility.yul\":3479:3532   */\n      tag_185\n        /* \"#utility.yul\":3524:3531   */\n      dup10\n        /* \"#utility.yul\":3515:3521   */\n      dup3\n        /* \"#utility.yul\":3504:3513   */\n      dup11\n        /* \"#utility.yul\":3500:3522   */\n      add\n        /* \"#utility.yul\":3479:3532   */\n      tag_109\n      jump\t// in\n    tag_185:\n        /* \"#utility.yul\":3469:3532   */\n      swap7\n      pop\n        /* \"#utility.yul\":3425:3542   */\n      pop\n        /* \"#utility.yul\":3581:3583   */\n      0x20\n        /* \"#utility.yul\":3607:3660   */\n      tag_186\n        /* \"#utility.yul\":3652:3659   */\n      dup10\n        /* \"#utility.yul\":3643:3649   */\n      dup3\n        /* \"#utility.yul\":3632:3641   */\n      dup11\n        /* \"#utility.yul\":3628:3650   */\n      add\n        /* \"#utility.yul\":3607:3660   */\n      tag_116\n      jump\t// in\n    tag_186:\n        /* \"#utility.yul\":3597:3660   */\n      swap6\n      pop\n        /* \"#utility.yul\":3552:3670   */\n      pop\n        /* \"#utility.yul\":3709:3711   */\n      0x40\n        /* \"#utility.yul\":3735:3788   */\n      tag_187\n        /* \"#utility.yul\":3780:3787   */\n      dup10\n        /* \"#utility.yul\":3771:3777   */\n      dup3\n        /* \"#utility.yul\":3760:3769   */\n      dup11\n        /* \"#utility.yul\":3756:3778   */\n      add\n        /* \"#utility.yul\":3735:3788   */\n      tag_116\n      jump\t// in\n    tag_187:\n        /* \"#utility.yul\":3725:3788   */\n      swap5\n      pop\n        /* \"#utility.yul\":3680:3798   */\n      pop\n        /* \"#utility.yul\":3837:3839   */\n      0x60\n        /* \"#utility.yul\":3863:3916   */\n      tag_188\n        /* \"#utility.yul\":3908:3915   */\n      dup10\n        /* \"#utility.yul\":3899:3905   */\n      dup3\n        /* \"#utility.yul\":3888:3897   */\n      dup11\n        /* \"#utility.yul\":3884:3906   */\n      add\n        /* \"#utility.yul\":3863:3916   */\n      tag_116\n      jump\t// in\n    tag_188:\n        /* \"#utility.yul\":3853:3916   */\n      swap4\n      pop\n        /* \"#utility.yul\":3808:3926   */\n      pop\n        /* \"#utility.yul\":3965:3968   */\n      0x80\n        /* \"#utility.yul\":3992:4045   */\n      tag_189\n        /* \"#utility.yul\":4037:4044   */\n      dup10\n        /* \"#utility.yul\":4028:4034   */\n      dup3\n        /* \"#utility.yul\":4017:4026   */\n      dup11\n        /* \"#utility.yul\":4013:4035   */\n      add\n        /* \"#utility.yul\":3992:4045   */\n      tag_116\n      jump\t// in\n    tag_189:\n        /* \"#utility.yul\":3982:4045   */\n      swap3\n      pop\n        /* \"#utility.yul\":3936:4055   */\n      pop\n        /* \"#utility.yul\":4094:4097   */\n      0xa0\n        /* \"#utility.yul\":4121:4187   */\n      tag_190\n        /* \"#utility.yul\":4179:4186   */\n      dup10\n        /* \"#utility.yul\":4170:4176   */\n      dup3\n        /* \"#utility.yul\":4159:4168   */\n      dup11\n        /* \"#utility.yul\":4155:4177   */\n      add\n        /* \"#utility.yul\":4121:4187   */\n      tag_114\n      jump\t// in\n    tag_190:\n        /* \"#utility.yul\":4111:4187   */\n      swap2\n      pop\n        /* \"#utility.yul\":4065:4197   */\n      pop\n        /* \"#utility.yul\":3121:4204   */\n      swap3\n      swap6\n      pop\n      swap3\n      swap6\n      pop\n      swap3\n      swap6\n      jump\t// out\n        /* \"#utility.yul\":4210:4855   */\n    tag_23:\n        /* \"#utility.yul\":4300:4306   */\n      0x00\n        /* \"#utility.yul\":4308:4314   */\n      dup1\n        /* \"#utility.yul\":4316:4322   */\n      0x00\n        /* \"#utility.yul\":4365:4367   */\n      0x60\n        /* \"#utility.yul\":4353:4362   */\n      dup5\n        /* \"#utility.yul\":4344:4351   */\n      dup7\n        /* \"#utility.yul\":4340:4363   */\n      sub\n        /* \"#utility.yul\":4336:4368   */\n      slt\n        /* \"#utility.yul\":4333:4452   */\n      iszero\n      tag_192\n      jumpi\n        /* \"#utility.yul\":4371:4450   */\n      tag_193\n      tag_104\n      jump\t// in\n    tag_193:\n        /* \"#utility.yul\":4333:4452   */\n    tag_192:\n        /* \"#utility.yul\":4491:4492   */\n      0x00\n        /* \"#utility.yul\":4516:4569   */\n      tag_194\n        /* \"#utility.yul\":4561:4568   */\n      dup7\n        /* \"#utility.yul\":4552:4558   */\n      dup3\n        /* \"#utility.yul\":4541:4550   */\n      dup8\n        /* \"#utility.yul\":4537:4559   */\n      add\n        /* \"#utility.yul\":4516:4569   */\n      tag_109\n      jump\t// in\n    tag_194:\n        /* \"#utility.yul\":4506:4569   */\n      swap4\n      pop\n        /* \"#utility.yul\":4462:4579   */\n      pop\n        /* \"#utility.yul\":4618:4620   */\n      0x20\n        /* \"#utility.yul\":4644:4710   */\n      tag_195\n        /* \"#utility.yul\":4702:4709   */\n      dup7\n        /* \"#utility.yul\":4693:4699   */\n      dup3\n        /* \"#utility.yul\":4682:4691   */\n      dup8\n        /* \"#utility.yul\":4678:4700   */\n      add\n        /* \"#utility.yul\":4644:4710   */\n      tag_114\n      jump\t// in\n    tag_195:\n        /* \"#utility.yul\":4634:4710   */\n      swap3\n      pop\n        /* \"#utility.yul\":4589:4720   */\n      pop\n        /* \"#utility.yul\":4759:4761   */\n      0x40\n        /* \"#utility.yul\":4785:4838   */\n      tag_196\n        /* \"#utility.yul\":4830:4837   */\n      dup7\n        /* \"#utility.yul\":4821:4827   */\n      dup3\n        /* \"#utility.yul\":4810:4819   */\n      dup8\n        /* \"#utility.yul\":4806:4828   */\n      add\n        /* \"#utility.yul\":4785:4838   */\n      tag_116\n      jump\t// in\n    tag_196:\n        /* \"#utility.yul\":4775:4838   */\n      swap2\n      pop\n        /* \"#utility.yul\":4730:4848   */\n      pop\n        /* \"#utility.yul\":4210:4855   */\n      swap3\n      pop\n      swap3\n      pop\n      swap3\n      jump\t// out\n        /* \"#utility.yul\":4861:4969   */\n    tag_117:\n        /* \"#utility.yul\":4938:4962   */\n      tag_198\n        /* \"#utility.yul\":4956:4961   */\n      dup2\n        /* \"#utility.yul\":4938:4962   */\n      tag_110\n      jump\t// in\n    tag_198:\n        /* \"#utility.yul\":4933:4936   */\n      dup3\n        /* \"#utility.yul\":4926:4963   */\n      mstore\n        /* \"#utility.yul\":4861:4969   */\n      pop\n      pop\n      jump\t// out\n        /* \"#utility.yul\":5049:6470   */\n    tag_118:\n        /* \"#utility.yul\":5200:5204   */\n      0xe0\n        /* \"#utility.yul\":5195:5198   */\n      dup3\n        /* \"#utility.yul\":5191:5205   */\n      add\n        /* \"#utility.yul\":5292:5296   */\n      0x00\n        /* \"#utility.yul\":5285:5290   */\n      dup3\n        /* \"#utility.yul\":5281:5297   */\n      add\n        /* \"#utility.yul\":5275:5298   */\n      mload\n        /* \"#utility.yul\":5311:5374   */\n      tag_200\n        /* \"#utility.yul\":5368:5372   */\n      0x00\n        /* \"#utility.yul\":5363:5366   */\n      dup6\n        /* \"#utility.yul\":5359:5373   */\n      add\n        /* \"#utility.yul\":5345:5357   */\n      dup3\n        /* \"#utility.yul\":5311:5374   */\n      tag_117\n      jump\t// in\n    tag_200:\n        /* \"#utility.yul\":5215:5384   */\n      pop\n        /* \"#utility.yul\":5471:5475   */\n      0x20\n        /* \"#utility.yul\":5464:5469   */\n      dup3\n        /* \"#utility.yul\":5460:5476   */\n      add\n        /* \"#utility.yul\":5454:5477   */\n      mload\n        /* \"#utility.yul\":5490:5553   */\n      tag_201\n        /* \"#utility.yul\":5547:5551   */\n      0x20\n        /* \"#utility.yul\":5542:5545   */\n      dup6\n        /* \"#utility.yul\":5538:5552   */\n      add\n        /* \"#utility.yul\":5524:5536   */\n      dup3\n        /* \"#utility.yul\":5490:5553   */\n      tag_117\n      jump\t// in\n    tag_201:\n        /* \"#utility.yul\":5394:5563   */\n      pop\n        /* \"#utility.yul\":5649:5653   */\n      0x40\n        /* \"#utility.yul\":5642:5647   */\n      dup3\n        /* \"#utility.yul\":5638:5654   */\n      add\n        /* \"#utility.yul\":5632:5655   */\n      mload\n        /* \"#utility.yul\":5668:5731   */\n      tag_202\n        /* \"#utility.yul\":5725:5729   */\n      0x40\n        /* \"#utility.yul\":5720:5723   */\n      dup6\n        /* \"#utility.yul\":5716:5730   */\n      add\n        /* \"#utility.yul\":5702:5714   */\n      dup3\n        /* \"#utility.yul\":5668:5731   */\n      tag_117\n      jump\t// in\n    tag_202:\n        /* \"#utility.yul\":5573:5741   */\n      pop\n        /* \"#utility.yul\":5824:5828   */\n      0x60\n        /* \"#utility.yul\":5817:5822   */\n      dup3\n        /* \"#utility.yul\":5813:5829   */\n      add\n        /* \"#utility.yul\":5807:5830   */\n      mload\n        /* \"#utility.yul\":5843:5906   */\n      tag_203\n        /* \"#utility.yul\":5900:5904   */\n      0x60\n        /* \"#utility.yul\":5895:5898   */\n      dup6\n        /* \"#utility.yul\":5891:5905   */\n      add\n        /* \"#utility.yul\":5877:5889   */\n      dup3\n        /* \"#utility.yul\":5843:5906   */\n      tag_117\n      jump\t// in\n    tag_203:\n        /* \"#utility.yul\":5751:5916   */\n      pop\n        /* \"#utility.yul\":6005:6009   */\n      0x80\n        /* \"#utility.yul\":5998:6003   */\n      dup3\n        /* \"#utility.yul\":5994:6010   */\n      add\n        /* \"#utility.yul\":5988:6011   */\n      mload\n        /* \"#utility.yul\":6024:6087   */\n      tag_204\n        /* \"#utility.yul\":6081:6085   */\n      0x80\n        /* \"#utility.yul\":6076:6079   */\n      dup6\n        /* \"#utility.yul\":6072:6086   */\n      add\n        /* \"#utility.yul\":6058:6070   */\n      dup3\n        /* \"#utility.yul\":6024:6087   */\n      tag_117\n      jump\t// in\n    tag_204:\n        /* \"#utility.yul\":5926:6097   */\n      pop\n        /* \"#utility.yul\":6187:6191   */\n      0xa0\n        /* \"#utility.yul\":6180:6185   */\n      dup3\n        /* \"#utility.yul\":6176:6192   */\n      add\n        /* \"#utility.yul\":6170:6193   */\n      mload\n        /* \"#utility.yul\":6206:6269   */\n      tag_205\n        /* \"#utility.yul\":6263:6267   */\n      0xa0\n        /* \"#utility.yul\":6258:6261   */\n      dup6\n        /* \"#utility.yul\":6254:6268   */\n      add\n        /* \"#utility.yul\":6240:6252   */\n      dup3\n        /* \"#utility.yul\":6206:6269   */\n      tag_117\n      jump\t// in\n    tag_205:\n        /* \"#utility.yul\":6107:6279   */\n      pop\n        /* \"#utility.yul\":6371:6375   */\n      0xc0\n        /* \"#utility.yul\":6364:6369   */\n      dup3\n        /* \"#utility.yul\":6360:6376   */\n      add\n        /* \"#utility.yul\":6354:6377   */\n      mload\n        /* \"#utility.yul\":6390:6453   */\n      tag_206\n        /* \"#utility.yul\":6447:6451   */\n      0xc0\n        /* \"#utility.yul\":6442:6445   */\n      dup6\n        /* \"#utility.yul\":6438:6452   */\n      add\n        /* \"#utility.yul\":6424:6436   */\n      dup3\n        /* \"#utility.yul\":6390:6453   */\n      tag_117\n      jump\t// in\n    tag_206:\n        /* \"#utility.yul\":6289:6463   */\n      pop\n        /* \"#utility.yul\":5169:6470   */\n      pop\n        /* \"#utility.yul\":5049:6470   */\n      pop\n      pop\n      jump\t// out\n        /* \"#utility.yul\":6476:6807   */\n    tag_26:\n        /* \"#utility.yul\":6623:6627   */\n      0x00\n        /* \"#utility.yul\":6661:6664   */\n      0xe0\n        /* \"#utility.yul\":6650:6659   */\n      dup3\n        /* \"#utility.yul\":6646:6665   */\n      add\n        /* \"#utility.yul\":6638:6665   */\n      swap1\n      pop\n        /* \"#utility.yul\":6675:6800   */\n      tag_208\n        /* \"#utility.yul\":6797:6798   */\n      0x00\n        /* \"#utility.yul\":6786:6795   */\n      dup4\n        /* \"#utility.yul\":6782:6799   */\n      add\n        /* \"#utility.yul\":6773:6779   */\n      dup5\n        /* \"#utility.yul\":6675:6800   */\n      tag_118\n      jump\t// in\n    tag_208:\n        /* \"#utility.yul\":6476:6807   */\n      swap3\n      swap2\n      pop\n      pop\n      jump\t// out\n        /* \"#utility.yul\":6813:6982   */\n    tag_119:\n        /* \"#utility.yul\":6897:6908   */\n      0x00\n        /* \"#utility.yul\":6931:6937   */\n      dup3\n        /* \"#utility.yul\":6926:6929   */\n      dup3\n        /* \"#utility.yul\":6919:6938   */\n      mstore\n        /* \"#utility.yul\":6971:6975   */\n      0x20\n        /* \"#utility.yul\":6966:6969   */\n      dup3\n        /* \"#utility.yul\":6962:6976   */\n      add\n        /* \"#utility.yul\":6947:6976   */\n      swap1\n      pop\n        /* \"#utility.yul\":6813:6982   */\n      swap3\n      swap2\n      pop\n      pop\n      jump\t// out\n        /* \"#utility.yul\":6988:7219   */\n    tag_120:\n        /* \"#utility.yul\":7128:7162   */\n      0x4f6e6c792042656e65666963696172792063616e204c6f636b20616e64205265\n        /* \"#utility.yul\":7124:7125   */\n      0x00\n        /* \"#utility.yul\":7116:7122   */\n      dup3\n        /* \"#utility.yul\":7112:7126   */\n      add\n        /* \"#utility.yul\":7105:7163   */\n      mstore\n        /* \"#utility.yul\":7197:7211   */\n      0x6c6561736520546f6b656e730000000000000000000000000000000000000000\n        /* \"#utility.yul\":7192:7194   */\n      0x20\n        /* \"#utility.yul\":7184:7190   */\n      dup3\n        /* \"#utility.yul\":7180:7195   */\n      add\n        /* \"#utility.yul\":7173:7212   */\n      mstore\n        /* \"#utility.yul\":6988:7219   */\n      pop\n      jump\t// out\n        /* \"#utility.yul\":7225:7591   */\n    tag_121:\n        /* \"#utility.yul\":7367:7370   */\n      0x00\n        /* \"#utility.yul\":7388:7455   */\n      tag_212\n        /* \"#utility.yul\":7452:7454   */\n      0x2c\n        /* \"#utility.yul\":7447:7450   */\n      dup4\n        /* \"#utility.yul\":7388:7455   */\n      tag_119\n      jump\t// in\n    tag_212:\n        /* \"#utility.yul\":7381:7455   */\n      swap2\n      pop\n        /* \"#utility.yul\":7464:7557   */\n      tag_213\n        /* \"#utility.yul\":7553:7556   */\n      dup3\n        /* \"#utility.yul\":7464:7557   */\n      tag_120\n      jump\t// in\n    tag_213:\n        /* \"#utility.yul\":7582:7584   */\n      0x40\n        /* \"#utility.yul\":7577:7580   */\n      dup3\n        /* \"#utility.yul\":7573:7585   */\n      add\n        /* \"#utility.yul\":7566:7585   */\n      swap1\n      pop\n        /* \"#utility.yul\":7225:7591   */\n      swap2\n      swap1\n      pop\n      jump\t// out\n        /* \"#utility.yul\":7597:8016   */\n    tag_30:\n        /* \"#utility.yul\":7763:7767   */\n      0x00\n        /* \"#utility.yul\":7801:7803   */\n      0x20\n        /* \"#utility.yul\":7790:7799   */\n      dup3\n        /* \"#utility.yul\":7786:7804   */\n      add\n        /* \"#utility.yul\":7778:7804   */\n      swap1\n      pop\n        /* \"#utility.yul\":7850:7859   */\n      dup2\n        /* \"#utility.yul\":7844:7848   */\n      dup2\n        /* \"#utility.yul\":7840:7860   */\n      sub\n        /* \"#utility.yul\":7836:7837   */\n      0x00\n        /* \"#utility.yul\":7825:7834   */\n      dup4\n        /* \"#utility.yul\":7821:7838   */\n      add\n        /* \"#utility.yul\":7814:7861   */\n      mstore\n        /* \"#utility.yul\":7878:8009   */\n      tag_215\n        /* \"#utility.yul\":8004:8008   */\n      dup2\n        /* \"#utility.yul\":7878:8009   */\n      tag_121\n      jump\t// in\n    tag_215:\n        /* \"#utility.yul\":7870:8009   */\n      swap1\n      pop\n        /* \"#utility.yul\":7597:8016   */\n      swap2\n      swap1\n      pop\n      jump\t// out\n        /* \"#utility.yul\":8022:8202   */\n    tag_34:\n        /* \"#utility.yul\":8070:8147   */\n      0x4e487b7100000000000000000000000000000000000000000000000000000000\n        /* \"#utility.yul\":8067:8068   */\n      0x00\n        /* \"#utility.yul\":8060:8148   */\n      mstore\n        /* \"#utility.yul\":8167:8171   */\n      0x32\n        /* \"#utility.yul\":8164:8165   */\n      0x04\n        /* \"#utility.yul\":8157:8172   */\n      mstore\n        /* \"#utility.yul\":8191:8195   */\n      0x24\n        /* \"#utility.yul\":8188:8189   */\n      0x00\n        /* \"#utility.yul\":8181:8196   */\n      revert\n        /* \"#utility.yul\":8208:8380   */\n    tag_122:\n        /* \"#utility.yul\":8348:8372   */\n      0x576169742054696c6c20436c69666620706572696f6400000000000000000000\n        /* \"#utility.yul\":8344:8345   */\n      0x00\n        /* \"#utility.yul\":8336:8342   */\n      dup3\n        /* \"#utility.yul\":8332:8346   */\n      add\n        /* \"#utility.yul\":8325:8373   */\n      mstore\n        /* \"#utility.yul\":8208:8380   */\n      pop\n      jump\t// out\n        /* \"#utility.yul\":8386:8752   */\n    tag_123:\n        /* \"#utility.yul\":8528:8531   */\n      0x00\n        /* \"#utility.yul\":8549:8616   */\n      tag_219\n        /* \"#utility.yul\":8613:8615   */\n      0x16\n        /* \"#utility.yul\":8608:8611   */\n      dup4\n        /* \"#utility.yul\":8549:8616   */\n      tag_119\n      jump\t// in\n    tag_219:\n        /* \"#utility.yul\":8542:8616   */\n      swap2\n      pop\n        /* \"#utility.yul\":8625:8718   */\n      tag_220\n        /* \"#utility.yul\":8714:8717   */\n      dup3\n        /* \"#utility.yul\":8625:8718   */\n      tag_122\n      jump\t// in\n    tag_220:\n        /* \"#utility.yul\":8743:8745   */\n      0x20\n        /* \"#utility.yul\":8738:8741   */\n      dup3\n        /* \"#utility.yul\":8734:8746   */\n      add\n        /* \"#utility.yul\":8727:8746   */\n      swap1\n      pop\n        /* \"#utility.yul\":8386:8752   */\n      swap2\n      swap1\n      pop\n      jump\t// out\n        /* \"#utility.yul\":8758:9177   */\n    tag_38:\n        /* \"#utility.yul\":8924:8928   */\n      0x00\n        /* \"#utility.yul\":8962:8964   */\n      0x20\n        /* \"#utility.yul\":8951:8960   */\n      dup3\n        /* \"#utility.yul\":8947:8965   */\n      add\n        /* \"#utility.yul\":8939:8965   */\n      swap1\n      pop\n        /* \"#utility.yul\":9011:9020   */\n      dup2\n        /* \"#utility.yul\":9005:9009   */\n      dup2\n        /* \"#utility.yul\":9001:9021   */\n      sub\n        /* \"#utility.yul\":8997:8998   */\n      0x00\n        /* \"#utility.yul\":8986:8995   */\n      dup4\n        /* \"#utility.yul\":8982:8999   */\n      add\n        /* \"#utility.yul\":8975:9022   */\n      mstore\n        /* \"#utility.yul\":9039:9170   */\n      tag_222\n        /* \"#utility.yul\":9165:9169   */\n      dup2\n        /* \"#utility.yul\":9039:9170   */\n      tag_123\n      jump\t// in\n    tag_222:\n        /* \"#utility.yul\":9031:9170   */\n      swap1\n      pop\n        /* \"#utility.yul\":8758:9177   */\n      swap2\n      swap1\n      pop\n      jump\t// out\n        /* \"#utility.yul\":9183:9354   */\n    tag_124:\n        /* \"#utility.yul\":9323:9346   */\n      0x4e6f20746f6b656e7320666f722072656c656173650000000000000000000000\n        /* \"#utility.yul\":9319:9320   */\n      0x00\n        /* \"#utility.yul\":9311:9317   */\n      dup3\n        /* \"#utility.yul\":9307:9321   */\n      add\n        /* \"#utility.yul\":9300:9347   */\n      mstore\n        /* \"#utility.yul\":9183:9354   */\n      pop\n      jump\t// out\n        /* \"#utility.yul\":9360:9726   */\n    tag_125:\n        /* \"#utility.yul\":9502:9505   */\n      0x00\n        /* \"#utility.yul\":9523:9590   */\n      tag_225\n        /* \"#utility.yul\":9587:9589   */\n      0x15\n        /* \"#utility.yul\":9582:9585   */\n      dup4\n        /* \"#utility.yul\":9523:9590   */\n      tag_119\n      jump\t// in\n    tag_225:\n        /* \"#utility.yul\":9516:9590   */\n      swap2\n      pop\n        /* \"#utility.yul\":9599:9692   */\n      tag_226\n        /* \"#utility.yul\":9688:9691   */\n      dup3\n        /* \"#utility.yul\":9599:9692   */\n      tag_124\n      jump\t// in\n    tag_226:\n        /* \"#utility.yul\":9717:9719   */\n      0x20\n        /* \"#utility.yul\":9712:9715   */\n      dup3\n        /* \"#utility.yul\":9708:9720   */\n      add\n        /* \"#utility.yul\":9701:9720   */\n      swap1\n      pop\n        /* \"#utility.yul\":9360:9726   */\n      swap2\n      swap1\n      pop\n      jump\t// out\n        /* \"#utility.yul\":9732:10151   */\n    tag_44:\n        /* \"#utility.yul\":9898:9902   */\n      0x00\n        /* \"#utility.yul\":9936:9938   */\n      0x20\n        /* \"#utility.yul\":9925:9934   */\n      dup3\n        /* \"#utility.yul\":9921:9939   */\n      add\n        /* \"#utility.yul\":9913:9939   */\n      swap1\n      pop\n        /* \"#utility.yul\":9985:9994   */\n      dup2\n        /* \"#utility.yul\":9979:9983   */\n      dup2\n        /* \"#utility.yul\":9975:9995   */\n      sub\n        /* \"#utility.yul\":9971:9972   */\n      0x00\n        /* \"#utility.yul\":9960:9969   */\n      dup4\n        /* \"#utility.yul\":9956:9973   */\n      add\n        /* \"#utility.yul\":9949:9996   */\n      mstore\n        /* \"#utility.yul\":10013:10144   */\n      tag_228\n        /* \"#utility.yul\":10139:10143   */\n      dup2\n        /* \"#utility.yul\":10013:10144   */\n      tag_125\n      jump\t// in\n    tag_228:\n        /* \"#utility.yul\":10005:10144   */\n      swap1\n      pop\n        /* \"#utility.yul\":9732:10151   */\n      swap2\n      swap1\n      pop\n      jump\t// out\n        /* \"#utility.yul\":10157:10339   */\n    tag_126:\n        /* \"#utility.yul\":10297:10331   */\n      0x436c61696d20416d6f756e74203e2052656c65617361626c6520746f6b656e73\n        /* \"#utility.yul\":10293:10294   */\n      0x00\n        /* \"#utility.yul\":10285:10291   */\n      dup3\n        /* \"#utility.yul\":10281:10295   */\n      add\n        /* \"#utility.yul\":10274:10332   */\n      mstore\n        /* \"#utility.yul\":10157:10339   */\n      pop\n      jump\t// out\n        /* \"#utility.yul\":10345:10711   */\n    tag_127:\n        /* \"#utility.yul\":10487:10490   */\n      0x00\n        /* \"#utility.yul\":10508:10575   */\n      tag_231\n        /* \"#utility.yul\":10572:10574   */\n      0x20\n        /* \"#utility.yul\":10567:10570   */\n      dup4\n        /* \"#utility.yul\":10508:10575   */\n      tag_119\n      jump\t// in\n    tag_231:\n        /* \"#utility.yul\":10501:10575   */\n      swap2\n      pop\n        /* \"#utility.yul\":10584:10677   */\n      tag_232\n        /* \"#utility.yul\":10673:10676   */\n      dup3\n        /* \"#utility.yul\":10584:10677   */\n      tag_126\n      jump\t// in\n    tag_232:\n        /* \"#utility.yul\":10702:10704   */\n      0x20\n        /* \"#utility.yul\":10697:10700   */\n      dup3\n        /* \"#utility.yul\":10693:10705   */\n      add\n        /* \"#utility.yul\":10686:10705   */\n      swap1\n      pop\n        /* \"#utility.yul\":10345:10711   */\n      swap2\n      swap1\n      pop\n      jump\t// out\n        /* \"#utility.yul\":10717:11136   */\n    tag_47:\n        /* \"#utility.yul\":10883:10887   */\n      0x00\n        /* \"#utility.yul\":10921:10923   */\n      0x20\n        /* \"#utility.yul\":10910:10919   */\n      dup3\n        /* \"#utility.yul\":10906:10924   */\n      add\n        /* \"#utility.yul\":10898:10924   */\n      swap1\n      pop\n        /* \"#utility.yul\":10970:10979   */\n      dup2\n        /* \"#utility.yul\":10964:10968   */\n      dup2\n        /* \"#utility.yul\":10960:10980   */\n      sub\n        /* \"#utility.yul\":10956:10957   */\n      0x00\n        /* \"#utility.yul\":10945:10954   */\n      dup4\n        /* \"#utility.yul\":10941:10958   */\n      add\n        /* \"#utility.yul\":10934:10981   */\n      mstore\n        /* \"#utility.yul\":10998:11129   */\n      tag_234\n        /* \"#utility.yul\":11124:11128   */\n      dup2\n        /* \"#utility.yul\":10998:11129   */\n      tag_127\n      jump\t// in\n    tag_234:\n        /* \"#utility.yul\":10990:11129   */\n      swap1\n      pop\n        /* \"#utility.yul\":10717:11136   */\n      swap2\n      swap1\n      pop\n      jump\t// out\n        /* \"#utility.yul\":11142:11322   */\n    tag_128:\n        /* \"#utility.yul\":11190:11267   */\n      0x4e487b7100000000000000000000000000000000000000000000000000000000\n        /* \"#utility.yul\":11187:11188   */\n      0x00\n        /* \"#utility.yul\":11180:11268   */\n      mstore\n        /* \"#utility.yul\":11287:11291   */\n      0x11\n        /* \"#utility.yul\":11284:11285   */\n      0x04\n        /* \"#utility.yul\":11277:11292   */\n      mstore\n        /* \"#utility.yul\":11311:11315   */\n      0x24\n        /* \"#utility.yul\":11308:11309   */\n      0x00\n        /* \"#utility.yul\":11301:11316   */\n      revert\n        /* \"#utility.yul\":11328:11519   */\n    tag_52:\n        /* \"#utility.yul\":11368:11371   */\n      0x00\n        /* \"#utility.yul\":11387:11407   */\n      tag_237\n        /* \"#utility.yul\":11405:11406   */\n      dup3\n        /* \"#utility.yul\":11387:11407   */\n      tag_110\n      jump\t// in\n    tag_237:\n        /* \"#utility.yul\":11382:11407   */\n      swap2\n      pop\n        /* \"#utility.yul\":11421:11441   */\n      tag_238\n        /* \"#utility.yul\":11439:11440   */\n      dup4\n        /* \"#utility.yul\":11421:11441   */\n      tag_110\n      jump\t// in\n    tag_238:\n        /* \"#utility.yul\":11416:11441   */\n      swap3\n      pop\n        /* \"#utility.yul\":11464:11465   */\n      dup3\n        /* \"#utility.yul\":11461:11462   */\n      dup3\n        /* \"#utility.yul\":11457:11466   */\n      add\n        /* \"#utility.yul\":11450:11466   */\n      swap1\n      pop\n        /* \"#utility.yul\":11485:11488   */\n      dup1\n        /* \"#utility.yul\":11482:11483   */\n      dup3\n        /* \"#utility.yul\":11479:11489   */\n      gt\n        /* \"#utility.yul\":11476:11512   */\n      iszero\n      tag_239\n      jumpi\n        /* \"#utility.yul\":11492:11510   */\n      tag_240\n      tag_128\n      jump\t// in\n    tag_240:\n        /* \"#utility.yul\":11476:11512   */\n    tag_239:\n        /* \"#utility.yul\":11328:11519   */\n      swap3\n      swap2\n      pop\n      pop\n      jump\t// out\n        /* \"#utility.yul\":11525:11643   */\n    tag_129:\n        /* \"#utility.yul\":11612:11636   */\n      tag_242\n        /* \"#utility.yul\":11630:11635   */\n      dup2\n        /* \"#utility.yul\":11612:11636   */\n      tag_107\n      jump\t// in\n    tag_242:\n        /* \"#utility.yul\":11607:11610   */\n      dup3\n        /* \"#utility.yul\":11600:11637   */\n      mstore\n        /* \"#utility.yul\":11525:11643   */\n      pop\n      pop\n      jump\t// out\n        /* \"#utility.yul\":11649:11981   */\n    tag_54:\n        /* \"#utility.yul\":11770:11774   */\n      0x00\n        /* \"#utility.yul\":11808:11810   */\n      0x40\n        /* \"#utility.yul\":11797:11806   */\n      dup3\n        /* \"#utility.yul\":11793:11811   */\n      add\n        /* \"#utility.yul\":11785:11811   */\n      swap1\n      pop\n        /* \"#utility.yul\":11821:11892   */\n      tag_244\n        /* \"#utility.yul\":11889:11890   */\n      0x00\n        /* \"#utility.yul\":11878:11887   */\n      dup4\n        /* \"#utility.yul\":11874:11891   */\n      add\n        /* \"#utility.yul\":11865:11871   */\n      dup6\n        /* \"#utility.yul\":11821:11892   */\n      tag_129\n      jump\t// in\n    tag_244:\n        /* \"#utility.yul\":11902:11974   */\n      tag_245\n        /* \"#utility.yul\":11970:11972   */\n      0x20\n        /* \"#utility.yul\":11959:11968   */\n      dup4\n        /* \"#utility.yul\":11955:11973   */\n      add\n        /* \"#utility.yul\":11946:11952   */\n      dup5\n        /* \"#utility.yul\":11902:11974   */\n      tag_111\n      jump\t// in\n    tag_245:\n        /* \"#utility.yul\":11649:11981   */\n      swap4\n      swap3\n      pop\n      pop\n      pop\n      jump\t// out\n        /* \"#utility.yul\":11987:12077   */\n    tag_130:\n        /* \"#utility.yul\":12021:12028   */\n      0x00\n        /* \"#utility.yul\":12064:12069   */\n      dup2\n        /* \"#utility.yul\":12057:12070   */\n      iszero\n        /* \"#utility.yul\":12050:12071   */\n      iszero\n        /* \"#utility.yul\":12039:12071   */\n      swap1\n      pop\n        /* \"#utility.yul\":11987:12077   */\n      swap2\n      swap1\n      pop\n      jump\t// out\n        /* \"#utility.yul\":12083:12199   */\n    tag_131:\n        /* \"#utility.yul\":12153:12174   */\n      tag_248\n        /* \"#utility.yul\":12168:12173   */\n      dup2\n        /* \"#utility.yul\":12153:12174   */\n      tag_130\n      jump\t// in\n    tag_248:\n        /* \"#utility.yul\":12146:12151   */\n      dup2\n        /* \"#utility.yul\":12143:12175   */\n      eq\n        /* \"#utility.yul\":12133:12193   */\n      tag_249\n      jumpi\n        /* \"#utility.yul\":12189:12190   */\n      0x00\n        /* \"#utility.yul\":12186:12187   */\n      dup1\n        /* \"#utility.yul\":12179:12191   */\n      revert\n        /* \"#utility.yul\":12133:12193   */\n    tag_249:\n        /* \"#utility.yul\":12083:12199   */\n      pop\n      jump\t// out\n        /* \"#utility.yul\":12205:12342   */\n    tag_132:\n        /* \"#utility.yul\":12259:12264   */\n      0x00\n        /* \"#utility.yul\":12290:12296   */\n      dup2\n        /* \"#utility.yul\":12284:12297   */\n      mload\n        /* \"#utility.yul\":12275:12297   */\n      swap1\n      pop\n        /* \"#utility.yul\":12306:12336   */\n      tag_251\n        /* \"#utility.yul\":12330:12335   */\n      dup2\n        /* \"#utility.yul\":12306:12336   */\n      tag_131\n      jump\t// in\n    tag_251:\n        /* \"#utility.yul\":12205:12342   */\n      swap3\n      swap2\n      pop\n      pop\n      jump\t// out\n        /* \"#utility.yul\":12348:12693   */\n    tag_58:\n        /* \"#utility.yul\":12415:12421   */\n      0x00\n        /* \"#utility.yul\":12464:12466   */\n      0x20\n        /* \"#utility.yul\":12452:12461   */\n      dup3\n        /* \"#utility.yul\":12443:12450   */\n      dup5\n        /* \"#utility.yul\":12439:12462   */\n      sub\n        /* \"#utility.yul\":12435:12467   */\n      slt\n        /* \"#utility.yul\":12432:12551   */\n      iszero\n      tag_253\n      jumpi\n        /* \"#utility.yul\":12470:12549   */\n      tag_254\n      tag_104\n      jump\t// in\n    tag_254:\n        /* \"#utility.yul\":12432:12551   */\n    tag_253:\n        /* \"#utility.yul\":12590:12591   */\n      0x00\n        /* \"#utility.yul\":12615:12676   */\n      tag_255\n        /* \"#utility.yul\":12668:12675   */\n      dup5\n        /* \"#utility.yul\":12659:12665   */\n      dup3\n        /* \"#utility.yul\":12648:12657   */\n      dup6\n        /* \"#utility.yul\":12644:12666   */\n      add\n        /* \"#utility.yul\":12615:12676   */\n      tag_132\n      jump\t// in\n    tag_255:\n        /* \"#utility.yul\":12605:12676   */\n      swap2\n      pop\n        /* \"#utility.yul\":12561:12686   */\n      pop\n        /* \"#utility.yul\":12348:12693   */\n      swap3\n      swap2\n      pop\n      pop\n      jump\t// out\n        /* \"#utility.yul\":12699:12879   */\n    tag_133:\n        /* \"#utility.yul\":12839:12871   */\n      0x546f6b656e732072656c656173656420746f2062656e65666963696172790000\n        /* \"#utility.yul\":12835:12836   */\n      0x00\n        /* \"#utility.yul\":12827:12833   */\n      dup3\n        /* \"#utility.yul\":12823:12837   */\n      add\n        /* \"#utility.yul\":12816:12872   */\n      mstore\n        /* \"#utility.yul\":12699:12879   */\n      pop\n      jump\t// out\n        /* \"#utility.yul\":12885:13251   */\n    tag_134:\n        /* \"#utility.yul\":13027:13030   */\n      0x00\n        /* \"#utility.yul\":13048:13115   */\n      tag_258\n        /* \"#utility.yul\":13112:13114   */\n      0x1e\n        /* \"#utility.yul\":13107:13110   */\n      dup4\n        /* \"#utility.yul\":13048:13115   */\n      tag_119\n      jump\t// in\n    tag_258:\n        /* \"#utility.yul\":13041:13115   */\n      swap2\n      pop\n        /* \"#utility.yul\":13124:13217   */\n      tag_259\n        /* \"#utility.yul\":13213:13216   */\n      dup3\n        /* \"#utility.yul\":13124:13217   */\n      tag_133\n      jump\t// in\n    tag_259:\n        /* \"#utility.yul\":13242:13244   */\n      0x20\n        /* \"#utility.yul\":13237:13240   */\n      dup3\n        /* \"#utility.yul\":13233:13245   */\n      add\n        /* \"#utility.yul\":13226:13245   */\n      swap1\n      pop\n        /* \"#utility.yul\":12885:13251   */\n      swap2\n      swap1\n      pop\n      jump\t// out\n        /* \"#utility.yul\":13257:13896   */\n    tag_60:\n        /* \"#utility.yul\":13479:13483   */\n      0x00\n        /* \"#utility.yul\":13517:13519   */\n      0x60\n        /* \"#utility.yul\":13506:13515   */\n      dup3\n        /* \"#utility.yul\":13502:13520   */\n      add\n        /* \"#utility.yul\":13494:13520   */\n      swap1\n      pop\n        /* \"#utility.yul\":13530:13601   */\n      tag_261\n        /* \"#utility.yul\":13598:13599   */\n      0x00\n        /* \"#utility.yul\":13587:13596   */\n      dup4\n        /* \"#utility.yul\":13583:13600   */\n      add\n        /* \"#utility.yul\":13574:13580   */\n      dup6\n        /* \"#utility.yul\":13530:13601   */\n      tag_129\n      jump\t// in\n    tag_261:\n        /* \"#utility.yul\":13611:13683   */\n      tag_262\n        /* \"#utility.yul\":13679:13681   */\n      0x20\n        /* \"#utility.yul\":13668:13677   */\n      dup4\n        /* \"#utility.yul\":13664:13682   */\n      add\n        /* \"#utility.yul\":13655:13661   */\n      dup5\n        /* \"#utility.yul\":13611:13683   */\n      tag_111\n      jump\t// in\n    tag_262:\n        /* \"#utility.yul\":13730:13739   */\n      dup2\n        /* \"#utility.yul\":13724:13728   */\n      dup2\n        /* \"#utility.yul\":13720:13740   */\n      sub\n        /* \"#utility.yul\":13715:13717   */\n      0x40\n        /* \"#utility.yul\":13704:13713   */\n      dup4\n        /* \"#utility.yul\":13700:13718   */\n      add\n        /* \"#utility.yul\":13693:13741   */\n      mstore\n        /* \"#utility.yul\":13758:13889   */\n      tag_263\n        /* \"#utility.yul\":13884:13888   */\n      dup2\n        /* \"#utility.yul\":13758:13889   */\n      tag_134\n      jump\t// in\n    tag_263:\n        /* \"#utility.yul\":13750:13889   */\n      swap1\n      pop\n        /* \"#utility.yul\":13257:13896   */\n      swap4\n      swap3\n      pop\n      pop\n      pop\n      jump\t// out\n        /* \"#utility.yul\":13902:14130   */\n    tag_135:\n        /* \"#utility.yul\":14042:14076   */\n      0x536c69636520706572696f64202620636c6966662073686f756c64206265203c\n        /* \"#utility.yul\":14038:14039   */\n      0x00\n        /* \"#utility.yul\":14030:14036   */\n      dup3\n        /* \"#utility.yul\":14026:14040   */\n      add\n        /* \"#utility.yul\":14019:14077   */\n      mstore\n        /* \"#utility.yul\":14111:14122   */\n      0x204475726174696f6e0000000000000000000000000000000000000000000000\n        /* \"#utility.yul\":14106:14108   */\n      0x20\n        /* \"#utility.yul\":14098:14104   */\n      dup3\n        /* \"#utility.yul\":14094:14109   */\n      add\n        /* \"#utility.yul\":14087:14123   */\n      mstore\n        /* \"#utility.yul\":13902:14130   */\n      pop\n      jump\t// out\n        /* \"#utility.yul\":14136:14502   */\n    tag_136:\n        /* \"#utility.yul\":14278:14281   */\n      0x00\n        /* \"#utility.yul\":14299:14366   */\n      tag_266\n        /* \"#utility.yul\":14363:14365   */\n      0x29\n        /* \"#utility.yul\":14358:14361   */\n      dup4\n        /* \"#utility.yul\":14299:14366   */\n      tag_119\n      jump\t// in\n    tag_266:\n        /* \"#utility.yul\":14292:14366   */\n      swap2\n      pop\n        /* \"#utility.yul\":14375:14468   */\n      tag_267\n        /* \"#utility.yul\":14464:14467   */\n      dup3\n        /* \"#utility.yul\":14375:14468   */\n      tag_135\n      jump\t// in\n    tag_267:\n        /* \"#utility.yul\":14493:14495   */\n      0x40\n        /* \"#utility.yul\":14488:14491   */\n      dup3\n        /* \"#utility.yul\":14484:14496   */\n      add\n        /* \"#utility.yul\":14477:14496   */\n      swap1\n      pop\n        /* \"#utility.yul\":14136:14502   */\n      swap2\n      swap1\n      pop\n      jump\t// out\n        /* \"#utility.yul\":14508:14927   */\n    tag_68:\n        /* \"#utility.yul\":14674:14678   */\n      0x00\n        /* \"#utility.yul\":14712:14714   */\n      0x20\n        /* \"#utility.yul\":14701:14710   */\n      dup3\n        /* \"#utility.yul\":14697:14715   */\n      add\n        /* \"#utility.yul\":14689:14715   */\n      swap1\n      pop\n        /* \"#utility.yul\":14761:14770   */\n      dup2\n        /* \"#utility.yul\":14755:14759   */\n      dup2\n        /* \"#utility.yul\":14751:14771   */\n      sub\n        /* \"#utility.yul\":14747:14748   */\n      0x00\n        /* \"#utility.yul\":14736:14745   */\n      dup4\n        /* \"#utility.yul\":14732:14749   */\n      add\n        /* \"#utility.yul\":14725:14772   */\n      mstore\n        /* \"#utility.yul\":14789:14920   */\n      tag_269\n        /* \"#utility.yul\":14915:14919   */\n      dup2\n        /* \"#utility.yul\":14789:14920   */\n      tag_136\n      jump\t// in\n    tag_269:\n        /* \"#utility.yul\":14781:14920   */\n      swap1\n      pop\n        /* \"#utility.yul\":14508:14927   */\n      swap2\n      swap1\n      pop\n      jump\t// out\n        /* \"#utility.yul\":14933:15111   */\n    tag_137:\n        /* \"#utility.yul\":15073:15103   */\n      0x546f6b656e7320746f20766573742073686f756c64206265203e203000000000\n        /* \"#utility.yul\":15069:15070   */\n      0x00\n        /* \"#utility.yul\":15061:15067   */\n      dup3\n        /* \"#utility.yul\":15057:15071   */\n      add\n        /* \"#utility.yul\":15050:15104   */\n      mstore\n        /* \"#utility.yul\":14933:15111   */\n      pop\n      jump\t// out\n        /* \"#utility.yul\":15117:15483   */\n    tag_138:\n        /* \"#utility.yul\":15259:15262   */\n      0x00\n        /* \"#utility.yul\":15280:15347   */\n      tag_272\n        /* \"#utility.yul\":15344:15346   */\n      0x1c\n        /* \"#utility.yul\":15339:15342   */\n      dup4\n        /* \"#utility.yul\":15280:15347   */\n      tag_119\n      jump\t// in\n    tag_272:\n        /* \"#utility.yul\":15273:15347   */\n      swap2\n      pop\n        /* \"#utility.yul\":15356:15449   */\n      tag_273\n        /* \"#utility.yul\":15445:15448   */\n      dup3\n        /* \"#utility.yul\":15356:15449   */\n      tag_137\n      jump\t// in\n    tag_273:\n        /* \"#utility.yul\":15474:15476   */\n      0x20\n        /* \"#utility.yul\":15469:15472   */\n      dup3\n        /* \"#utility.yul\":15465:15477   */\n      add\n        /* \"#utility.yul\":15458:15477   */\n      swap1\n      pop\n        /* \"#utility.yul\":15117:15483   */\n      swap2\n      swap1\n      pop\n      jump\t// out\n        /* \"#utility.yul\":15489:15908   */\n    tag_71:\n        /* \"#utility.yul\":15655:15659   */\n      0x00\n        /* \"#utility.yul\":15693:15695   */\n      0x20\n        /* \"#utility.yul\":15682:15691   */\n      dup3\n        /* \"#utility.yul\":15678:15696   */\n      add\n        /* \"#utility.yul\":15670:15696   */\n      swap1\n      pop\n        /* \"#utility.yul\":15742:15751   */\n      dup2\n        /* \"#utility.yul\":15736:15740   */\n      dup2\n        /* \"#utility.yul\":15732:15752   */\n      sub\n        /* \"#utility.yul\":15728:15729   */\n      0x00\n        /* \"#utility.yul\":15717:15726   */\n      dup4\n        /* \"#utility.yul\":15713:15730   */\n      add\n        /* \"#utility.yul\":15706:15753   */\n      mstore\n        /* \"#utility.yul\":15770:15901   */\n      tag_275\n        /* \"#utility.yul\":15896:15900   */\n      dup2\n        /* \"#utility.yul\":15770:15901   */\n      tag_138\n      jump\t// in\n    tag_275:\n        /* \"#utility.yul\":15762:15901   */\n      swap1\n      pop\n        /* \"#utility.yul\":15489:15908   */\n      swap2\n      swap1\n      pop\n      jump\t// out\n        /* \"#utility.yul\":15914:16356   */\n    tag_75:\n        /* \"#utility.yul\":16063:16067   */\n      0x00\n        /* \"#utility.yul\":16101:16103   */\n      0x60\n        /* \"#utility.yul\":16090:16099   */\n      dup3\n        /* \"#utility.yul\":16086:16104   */\n      add\n        /* \"#utility.yul\":16078:16104   */\n      swap1\n      pop\n        /* \"#utility.yul\":16114:16185   */\n      tag_277\n        /* \"#utility.yul\":16182:16183   */\n      0x00\n        /* \"#utility.yul\":16171:16180   */\n      dup4\n        /* \"#utility.yul\":16167:16184   */\n      add\n        /* \"#utility.yul\":16158:16164   */\n      dup7\n        /* \"#utility.yul\":16114:16185   */\n      tag_129\n      jump\t// in\n    tag_277:\n        /* \"#utility.yul\":16195:16267   */\n      tag_278\n        /* \"#utility.yul\":16263:16265   */\n      0x20\n        /* \"#utility.yul\":16252:16261   */\n      dup4\n        /* \"#utility.yul\":16248:16266   */\n      add\n        /* \"#utility.yul\":16239:16245   */\n      dup6\n        /* \"#utility.yul\":16195:16267   */\n      tag_129\n      jump\t// in\n    tag_278:\n        /* \"#utility.yul\":16277:16349   */\n      tag_279\n        /* \"#utility.yul\":16345:16347   */\n      0x40\n        /* \"#utility.yul\":16334:16343   */\n      dup4\n        /* \"#utility.yul\":16330:16348   */\n      add\n        /* \"#utility.yul\":16321:16327   */\n      dup5\n        /* \"#utility.yul\":16277:16349   */\n      tag_111\n      jump\t// in\n    tag_279:\n        /* \"#utility.yul\":15914:16356   */\n      swap5\n      swap4\n      pop\n      pop\n      pop\n      pop\n      jump\t// out\n        /* \"#utility.yul\":16362:16585   */\n    tag_139:\n        /* \"#utility.yul\":16502:16536   */\n      0x546f6b656e7320617265204c6f636b656420696e20736d61727420636f6e7472\n        /* \"#utility.yul\":16498:16499   */\n      0x00\n        /* \"#utility.yul\":16490:16496   */\n      dup3\n        /* \"#utility.yul\":16486:16500   */\n      add\n        /* \"#utility.yul\":16479:16537   */\n      mstore\n        /* \"#utility.yul\":16571:16577   */\n      0x6163742000000000000000000000000000000000000000000000000000000000\n        /* \"#utility.yul\":16566:16568   */\n      0x20\n        /* \"#utility.yul\":16558:16564   */\n      dup3\n        /* \"#utility.yul\":16554:16569   */\n      add\n        /* \"#utility.yul\":16547:16578   */\n      mstore\n        /* \"#utility.yul\":16362:16585   */\n      pop\n      jump\t// out\n        /* \"#utility.yul\":16591:16957   */\n    tag_140:\n        /* \"#utility.yul\":16733:16736   */\n      0x00\n        /* \"#utility.yul\":16754:16821   */\n      tag_282\n        /* \"#utility.yul\":16818:16820   */\n      0x24\n        /* \"#utility.yul\":16813:16816   */\n      dup4\n        /* \"#utility.yul\":16754:16821   */\n      tag_119\n      jump\t// in\n    tag_282:\n        /* \"#utility.yul\":16747:16821   */\n      swap2\n      pop\n        /* \"#utility.yul\":16830:16923   */\n      tag_283\n        /* \"#utility.yul\":16919:16922   */\n      dup3\n        /* \"#utility.yul\":16830:16923   */\n      tag_139\n      jump\t// in\n    tag_283:\n        /* \"#utility.yul\":16948:16950   */\n      0x40\n        /* \"#utility.yul\":16943:16946   */\n      dup3\n        /* \"#utility.yul\":16939:16951   */\n      add\n        /* \"#utility.yul\":16932:16951   */\n      swap1\n      pop\n        /* \"#utility.yul\":16591:16957   */\n      swap2\n      swap1\n      pop\n      jump\t// out\n        /* \"#utility.yul\":16963:17492   */\n    tag_80:\n        /* \"#utility.yul\":17157:17161   */\n      0x00\n        /* \"#utility.yul\":17195:17197   */\n      0x40\n        /* \"#utility.yul\":17184:17193   */\n      dup3\n        /* \"#utility.yul\":17180:17198   */\n      add\n        /* \"#utility.yul\":17172:17198   */\n      swap1\n      pop\n        /* \"#utility.yul\":17208:17279   */\n      tag_285\n        /* \"#utility.yul\":17276:17277   */\n      0x00\n        /* \"#utility.yul\":17265:17274   */\n      dup4\n        /* \"#utility.yul\":17261:17278   */\n      add\n        /* \"#utility.yul\":17252:17258   */\n      dup5\n        /* \"#utility.yul\":17208:17279   */\n      tag_129\n      jump\t// in\n    tag_285:\n        /* \"#utility.yul\":17326:17335   */\n      dup2\n        /* \"#utility.yul\":17320:17324   */\n      dup2\n        /* \"#utility.yul\":17316:17336   */\n      sub\n        /* \"#utility.yul\":17311:17313   */\n      0x20\n        /* \"#utility.yul\":17300:17309   */\n      dup4\n        /* \"#utility.yul\":17296:17314   */\n      add\n        /* \"#utility.yul\":17289:17337   */\n      mstore\n        /* \"#utility.yul\":17354:17485   */\n      tag_286\n        /* \"#utility.yul\":17480:17484   */\n      dup2\n        /* \"#utility.yul\":17354:17485   */\n      tag_140\n      jump\t// in\n    tag_286:\n        /* \"#utility.yul\":17346:17485   */\n      swap1\n      pop\n        /* \"#utility.yul\":16963:17492   */\n      swap3\n      swap2\n      pop\n      pop\n      jump\t// out\n        /* \"#utility.yul\":17498:17692   */\n    tag_92:\n        /* \"#utility.yul\":17538:17542   */\n      0x00\n        /* \"#utility.yul\":17558:17578   */\n      tag_288\n        /* \"#utility.yul\":17576:17577   */\n      dup3\n        /* \"#utility.yul\":17558:17578   */\n      tag_110\n      jump\t// in\n    tag_288:\n        /* \"#utility.yul\":17553:17578   */\n      swap2\n      pop\n        /* \"#utility.yul\":17592:17612   */\n      tag_289\n        /* \"#utility.yul\":17610:17611   */\n      dup4\n        /* \"#utility.yul\":17592:17612   */\n      tag_110\n      jump\t// in\n    tag_289:\n        /* \"#utility.yul\":17587:17612   */\n      swap3\n      pop\n        /* \"#utility.yul\":17636:17637   */\n      dup3\n        /* \"#utility.yul\":17633:17634   */\n      dup3\n        /* \"#utility.yul\":17629:17638   */\n      sub\n        /* \"#utility.yul\":17621:17638   */\n      swap1\n      pop\n        /* \"#utility.yul\":17660:17661   */\n      dup2\n        /* \"#utility.yul\":17654:17658   */\n      dup2\n        /* \"#utility.yul\":17651:17662   */\n      gt\n        /* \"#utility.yul\":17648:17685   */\n      iszero\n      tag_290\n      jumpi\n        /* \"#utility.yul\":17665:17683   */\n      tag_291\n      tag_128\n      jump\t// in\n    tag_291:\n        /* \"#utility.yul\":17648:17685   */\n    tag_290:\n        /* \"#utility.yul\":17498:17692   */\n      swap3\n      swap2\n      pop\n      pop\n      jump\t// out\n        /* \"#utility.yul\":17698:17878   */\n    tag_141:\n        /* \"#utility.yul\":17746:17823   */\n      0x4e487b7100000000000000000000000000000000000000000000000000000000\n        /* \"#utility.yul\":17743:17744   */\n      0x00\n        /* \"#utility.yul\":17736:17824   */\n      mstore\n        /* \"#utility.yul\":17843:17847   */\n      0x12\n        /* \"#utility.yul\":17840:17841   */\n      0x04\n        /* \"#utility.yul\":17833:17848   */\n      mstore\n        /* \"#utility.yul\":17867:17871   */\n      0x24\n        /* \"#utility.yul\":17864:17865   */\n      0x00\n        /* \"#utility.yul\":17857:17872   */\n      revert\n        /* \"#utility.yul\":17884:18069   */\n    tag_94:\n        /* \"#utility.yul\":17924:17925   */\n      0x00\n        /* \"#utility.yul\":17941:17961   */\n      tag_294\n        /* \"#utility.yul\":17959:17960   */\n      dup3\n        /* \"#utility.yul\":17941:17961   */\n      tag_110\n      jump\t// in\n    tag_294:\n        /* \"#utility.yul\":17936:17961   */\n      swap2\n      pop\n        /* \"#utility.yul\":17975:17995   */\n      tag_295\n        /* \"#utility.yul\":17993:17994   */\n      dup4\n        /* \"#utility.yul\":17975:17995   */\n      tag_110\n      jump\t// in\n    tag_295:\n        /* \"#utility.yul\":17970:17995   */\n      swap3\n      pop\n        /* \"#utility.yul\":18014:18015   */\n      dup3\n        /* \"#utility.yul\":18004:18039   */\n      tag_296\n      jumpi\n        /* \"#utility.yul\":18019:18037   */\n      tag_297\n      tag_141\n      jump\t// in\n    tag_297:\n        /* \"#utility.yul\":18004:18039   */\n    tag_296:\n        /* \"#utility.yul\":18061:18062   */\n      dup3\n        /* \"#utility.yul\":18058:18059   */\n      dup3\n        /* \"#utility.yul\":18054:18063   */\n      div\n        /* \"#utility.yul\":18049:18063   */\n      swap1\n      pop\n        /* \"#utility.yul\":17884:18069   */\n      swap3\n      swap2\n      pop\n      pop\n      jump\t// out\n        /* \"#utility.yul\":18075:18485   */\n    tag_101:\n        /* \"#utility.yul\":18115:18122   */\n      0x00\n        /* \"#utility.yul\":18138:18158   */\n      tag_299\n        /* \"#utility.yul\":18156:18157   */\n      dup3\n        /* \"#utility.yul\":18138:18158   */\n      tag_110\n      jump\t// in\n    tag_299:\n        /* \"#utility.yul\":18133:18158   */\n      swap2\n      pop\n        /* \"#utility.yul\":18172:18192   */\n      tag_300\n        /* \"#utility.yul\":18190:18191   */\n      dup4\n        /* \"#utility.yul\":18172:18192   */\n      tag_110\n      jump\t// in\n    tag_300:\n        /* \"#utility.yul\":18167:18192   */\n      swap3\n      pop\n        /* \"#utility.yul\":18227:18228   */\n      dup3\n        /* \"#utility.yul\":18224:18225   */\n      dup3\n        /* \"#utility.yul\":18220:18229   */\n      mul\n        /* \"#utility.yul\":18249:18279   */\n      tag_301\n        /* \"#utility.yul\":18267:18278   */\n      dup2\n        /* \"#utility.yul\":18249:18279   */\n      tag_110\n      jump\t// in\n    tag_301:\n        /* \"#utility.yul\":18238:18279   */\n      swap2\n      pop\n        /* \"#utility.yul\":18428:18429   */\n      dup3\n        /* \"#utility.yul\":18419:18426   */\n      dup3\n        /* \"#utility.yul\":18415:18430   */\n      div\n        /* \"#utility.yul\":18412:18413   */\n      dup5\n        /* \"#utility.yul\":18409:18431   */\n      eq\n        /* \"#utility.yul\":18389:18390   */\n      dup4\n        /* \"#utility.yul\":18382:18391   */\n      iszero\n        /* \"#utility.yul\":18362:18445   */\n      or\n        /* \"#utility.yul\":18339:18478   */\n      tag_302\n      jumpi\n        /* \"#utility.yul\":18458:18476   */\n      tag_303\n      tag_128\n      jump\t// in\n    tag_303:\n        /* \"#utility.yul\":18339:18478   */\n    tag_302:\n        /* \"#utility.yul\":18123:18485   */\n      pop\n        /* \"#utility.yul\":18075:18485   */\n      swap3\n      swap2\n      pop\n      pop\n      jump\t// out\n\n    auxdata: 0xa26469706673582212206d2fb27cb6dc2cb094cb022f9917933818dfc15c25e00a66cba141ef4f5f1a1764736f6c63430008120033\n}\n",
				"bytecode": {
					"linkReferences": {},
					"object": "608060405234801561001057600080fd5b50611403806100206000396000f3fe608060405234801561001057600080fd5b506004361061004c5760003560e01c80630156773914610051578063724d5be41461008157806394be50cb1461009d578063a4272f92146100b9575b600080fd5b61006b60048036038101906100669190610aba565b6100e9565b6040516100789190610b00565b60405180910390f35b61009b60048036038101906100969190610b85565b610107565b005b6100b760048036038101906100b29190610bec565b610473565b005b6100d360048036038101906100ce9190610c79565b610773565b6040516100e09190610d69565b60405180910390f35b60006020528060005260406000206000915090508060000154905081565b838073ffffffffffffffffffffffffffffffffffffffff163373ffffffffffffffffffffffffffffffffffffffff1614610176576040517f08c379a000000000000000000000000000000000000000000000000000000000815260040161016d90610e07565b60405180910390fd5b8484846000808473ffffffffffffffffffffffffffffffffffffffff1673ffffffffffffffffffffffffffffffffffffffff16815260200190815260200160002060010160008373ffffffffffffffffffffffffffffffffffffffff1673ffffffffffffffffffffffffffffffffffffffff168152602001908152602001600020818154811061020957610208610e27565b5b90600052602060002090600702016003015442101561025d576040517f08c379a000000000000000000000000000000000000000000000000000000000815260040161025490610ea2565b60405180910390fd5b600061026a898989610873565b9050600081116102af576040517f08c379a00000000000000000000000000000000000000000000000000000000081526004016102a690610f0e565b60405180910390fd5b808611156102f2576040517f08c379a00000000000000000000000000000000000000000000000000000000081526004016102e990610f7a565b60405180910390fd5b60008060008b73ffffffffffffffffffffffffffffffffffffffff1673ffffffffffffffffffffffffffffffffffffffff16815260200190815260200160002060010160008a73ffffffffffffffffffffffffffffffffffffffff1673ffffffffffffffffffffffffffffffffffffffff168152602001908152602001600020888154811061038457610383610e27565b5b90600052602060002090600702019050868160060160008282546103a89190610fc9565b925050819055508873ffffffffffffffffffffffffffffffffffffffff1663a9059cbb8b896040518363ffffffff1660e01b81526004016103ea92919061100c565b6020604051808303816000875af1158015610409573d6000803e3d6000fd5b505050506040513d601f19601f8201168201806040525081019061042d919061106d565b507fe76a1b59a572254539faf5af4cebc5bc4a5ee4c1d55436f3c97c5817d3b926818a8860405161045f9291906110e6565b60405180910390a150505050505050505050565b858073ffffffffffffffffffffffffffffffffffffffff163373ffffffffffffffffffffffffffffffffffffffff16146104e2576040517f08c379a00000000000000000000000000000000000000000000000000000000081526004016104d990610e07565b60405180910390fd5b8383111580156104f25750838511155b610531576040517f08c379a000000000000000000000000000000000000000000000000000000000815260040161052890611194565b60405180910390fd5b60008611610574576040517f08c379a000000000000000000000000000000000000000000000000000000000815260040161056b90611200565b60405180910390fd5b60008060008973ffffffffffffffffffffffffffffffffffffffff1673ffffffffffffffffffffffffffffffffffffffff16815260200190815260200160002060010160008473ffffffffffffffffffffffffffffffffffffffff1673ffffffffffffffffffffffffffffffffffffffff168152602001908152602001600020905060006040518060e001604052808380549050815260200142815260200187815260200188426106259190610fc9565b81526020018681526020018981526020016000815250905081819080600181540180825580915050600190039060005260206000209060070201600090919091909150600082015181600001556020820151816001015560408201518160020155606082015181600301556080820151816004015560a0820151816005015560c0820151816006015550508373ffffffffffffffffffffffffffffffffffffffff166323b872dd33308b6040518463ffffffff1660e01b81526004016106ed93929190611220565b6020604051808303816000875af115801561070c573d6000803e3d6000fd5b505050506040513d601f19601f82011682018060405250810190610730919061106d565b507f58061f685b438748cf21469042b11fe4dfb0c77fd2da64032c5adc017fc09a888960405161076091906112c9565b60405180910390a1505050505050505050565b61077b610a1a565b6000808573ffffffffffffffffffffffffffffffffffffffff1673ffffffffffffffffffffffffffffffffffffffff16815260200190815260200160002060010160008473ffffffffffffffffffffffffffffffffffffffff1673ffffffffffffffffffffffffffffffffffffffff168152602001908152602001600020828154811061080b5761080a610e27565b5b90600052602060002090600702016040518060e001604052908160008201548152602001600182015481526020016002820154815260200160038201548152602001600482015481526020016005820154815260200160068201548152505090509392505050565b6000806000808673ffffffffffffffffffffffffffffffffffffffff1673ffffffffffffffffffffffffffffffffffffffff16815260200190815260200160002060010160008573ffffffffffffffffffffffffffffffffffffffff1673ffffffffffffffffffffffffffffffffffffffff168152602001908152602001600020838154811061090657610905610e27565b5b90600052602060002090600702016040518060e00160405290816000820154815260200160018201548152602001600282015481526020016003820154815260200160048201548152602001600582015481526020016006820154815250509050600081602001514261097991906112f7565b9050600082608001518261098d919061135a565b90506000836080015184604001516109a5919061135a565b905060008460c00151905060008560a0015190508284106109d95781816109cc91906112f7565b9650505050505050610a13565b600083826109e7919061135a565b9050600085826109f7919061138b565b90508381610a0591906112f7565b905080985050505050505050505b9392505050565b6040518060e00160405280600081526020016000815260200160008152602001600081526020016000815260200160008152602001600081525090565b600080fd5b600073ffffffffffffffffffffffffffffffffffffffff82169050919050565b6000610a8782610a5c565b9050919050565b610a9781610a7c565b8114610aa257600080fd5b50565b600081359050610ab481610a8e565b92915050565b600060208284031215610ad057610acf610a57565b5b6000610ade84828501610aa5565b91505092915050565b6000819050919050565b610afa81610ae7565b82525050565b6000602082019050610b156000830184610af1565b92915050565b6000610b2682610a7c565b9050919050565b610b3681610b1b565b8114610b4157600080fd5b50565b600081359050610b5381610b2d565b92915050565b610b6281610ae7565b8114610b6d57600080fd5b50565b600081359050610b7f81610b59565b92915050565b60008060008060808587031215610b9f57610b9e610a57565b5b6000610bad87828801610aa5565b9450506020610bbe87828801610b44565b9350506040610bcf87828801610b70565b9250506060610be087828801610b70565b91505092959194509250565b60008060008060008060c08789031215610c0957610c08610a57565b5b6000610c1789828a01610aa5565b9650506020610c2889828a01610b70565b9550506040610c3989828a01610b70565b9450506060610c4a89828a01610b70565b9350506080610c5b89828a01610b70565b92505060a0610c6c89828a01610b44565b9150509295509295509295565b600080600060608486031215610c9257610c91610a57565b5b6000610ca086828701610aa5565b9350506020610cb186828701610b44565b9250506040610cc286828701610b70565b9150509250925092565b610cd581610ae7565b82525050565b60e082016000820151610cf16000850182610ccc565b506020820151610d046020850182610ccc565b506040820151610d176040850182610ccc565b506060820151610d2a6060850182610ccc565b506080820151610d3d6080850182610ccc565b5060a0820151610d5060a0850182610ccc565b5060c0820151610d6360c0850182610ccc565b50505050565b600060e082019050610d7e6000830184610cdb565b92915050565b600082825260208201905092915050565b7f4f6e6c792042656e65666963696172792063616e204c6f636b20616e6420526560008201527f6c6561736520546f6b656e730000000000000000000000000000000000000000602082015250565b6000610df1602c83610d84565b9150610dfc82610d95565b604082019050919050565b60006020820190508181036000830152610e2081610de4565b9050919050565b7f4e487b7100000000000000000000000000000000000000000000000000000000600052603260045260246000fd5b7f576169742054696c6c20436c69666620706572696f6400000000000000000000600082015250565b6000610e8c601683610d84565b9150610e9782610e56565b602082019050919050565b60006020820190508181036000830152610ebb81610e7f565b9050919050565b7f4e6f20746f6b656e7320666f722072656c656173650000000000000000000000600082015250565b6000610ef8601583610d84565b9150610f0382610ec2565b602082019050919050565b60006020820190508181036000830152610f2781610eeb565b9050919050565b7f436c61696d20416d6f756e74203e2052656c65617361626c6520746f6b656e73600082015250565b6000610f64602083610d84565b9150610f6f82610f2e565b602082019050919050565b60006020820190508181036000830152610f9381610f57565b9050919050565b7f4e487b7100000000000000000000000000000000000000000000000000000000600052601160045260246000fd5b6000610fd482610ae7565b9150610fdf83610ae7565b9250828201905080821115610ff757610ff6610f9a565b5b92915050565b61100681610a7c565b82525050565b60006040820190506110216000830185610ffd565b61102e6020830184610af1565b9392505050565b60008115159050919050565b61104a81611035565b811461105557600080fd5b50565b60008151905061106781611041565b92915050565b60006020828403121561108357611082610a57565b5b600061109184828501611058565b91505092915050565b7f546f6b656e732072656c656173656420746f2062656e65666963696172790000600082015250565b60006110d0601e83610d84565b91506110db8261109a565b602082019050919050565b60006060820190506110fb6000830185610ffd565b6111086020830184610af1565b8181036040830152611119816110c3565b90509392505050565b7f536c69636520706572696f64202620636c6966662073686f756c64206265203c60008201527f204475726174696f6e0000000000000000000000000000000000000000000000602082015250565b600061117e602983610d84565b915061118982611122565b604082019050919050565b600060208201905081810360008301526111ad81611171565b9050919050565b7f546f6b656e7320746f20766573742073686f756c64206265203e203000000000600082015250565b60006111ea601c83610d84565b91506111f5826111b4565b602082019050919050565b60006020820190508181036000830152611219816111dd565b9050919050565b60006060820190506112356000830186610ffd565b6112426020830185610ffd565b61124f6040830184610af1565b949350505050565b7f546f6b656e7320617265204c6f636b656420696e20736d61727420636f6e747260008201527f6163742000000000000000000000000000000000000000000000000000000000602082015250565b60006112b3602483610d84565b91506112be82611257565b604082019050919050565b60006040820190506112de6000830184610ffd565b81810360208301526112ef816112a6565b905092915050565b600061130282610ae7565b915061130d83610ae7565b925082820390508181111561132557611324610f9a565b5b92915050565b7f4e487b7100000000000000000000000000000000000000000000000000000000600052601260045260246000fd5b600061136582610ae7565b915061137083610ae7565b9250826113805761137f61132b565b5b828204905092915050565b600061139682610ae7565b91506113a183610ae7565b92508282026113af81610ae7565b915082820484148315176113c6576113c5610f9a565b5b509291505056fea26469706673582212206d2fb27cb6dc2cb094cb022f9917933818dfc15c25e00a66cba141ef4f5f1a1764736f6c63430008120033",
					"opcodes": "PUSH1 0x80 PUSH1 0x40 MSTORE CALLVALUE DUP1 ISZERO PUSH2 0x10 JUMPI PUSH1 0x0 DUP1 REVERT JUMPDEST POP PUSH2 0x1403 DUP1 PUSH2 0x20 PUSH1 0x0 CODECOPY PUSH1 0x0 RETURN INVALID PUSH1 0x80 PUSH1 0x40 MSTORE CALLVALUE DUP1 ISZERO PUSH2 0x10 JUMPI PUSH1 0x0 DUP1 REVERT JUMPDEST POP PUSH1 0x4 CALLDATASIZE LT PUSH2 0x4C JUMPI PUSH1 0x0 CALLDATALOAD PUSH1 0xE0 SHR DUP1 PUSH4 0x1567739 EQ PUSH2 0x51 JUMPI DUP1 PUSH4 0x724D5BE4 EQ PUSH2 0x81 JUMPI DUP1 PUSH4 0x94BE50CB EQ PUSH2 0x9D JUMPI DUP1 PUSH4 0xA4272F92 EQ PUSH2 0xB9 JUMPI JUMPDEST PUSH1 0x0 DUP1 REVERT JUMPDEST PUSH2 0x6B PUSH1 0x4 DUP1 CALLDATASIZE SUB DUP2 ADD SWAP1 PUSH2 0x66 SWAP2 SWAP1 PUSH2 0xABA JUMP JUMPDEST PUSH2 0xE9 JUMP JUMPDEST PUSH1 0x40 MLOAD PUSH2 0x78 SWAP2 SWAP1 PUSH2 0xB00 JUMP JUMPDEST PUSH1 0x40 MLOAD DUP1 SWAP2 SUB SWAP1 RETURN JUMPDEST PUSH2 0x9B PUSH1 0x4 DUP1 CALLDATASIZE SUB DUP2 ADD SWAP1 PUSH2 0x96 SWAP2 SWAP1 PUSH2 0xB85 JUMP JUMPDEST PUSH2 0x107 JUMP JUMPDEST STOP JUMPDEST PUSH2 0xB7 PUSH1 0x4 DUP1 CALLDATASIZE SUB DUP2 ADD SWAP1 PUSH2 0xB2 SWAP2 SWAP1 PUSH2 0xBEC JUMP JUMPDEST PUSH2 0x473 JUMP JUMPDEST STOP JUMPDEST PUSH2 0xD3 PUSH1 0x4 DUP1 CALLDATASIZE SUB DUP2 ADD SWAP1 PUSH2 0xCE SWAP2 SWAP1 PUSH2 0xC79 JUMP JUMPDEST PUSH2 0x773 JUMP JUMPDEST PUSH1 0x40 MLOAD PUSH2 0xE0 SWAP2 SWAP1 PUSH2 0xD69 JUMP JUMPDEST PUSH1 0x40 MLOAD DUP1 SWAP2 SUB SWAP1 RETURN JUMPDEST PUSH1 0x0 PUSH1 0x20 MSTORE DUP1 PUSH1 0x0 MSTORE PUSH1 0x40 PUSH1 0x0 KECCAK256 PUSH1 0x0 SWAP2 POP SWAP1 POP DUP1 PUSH1 0x0 ADD SLOAD SWAP1 POP DUP2 JUMP JUMPDEST DUP4 DUP1 PUSH20 0xFFFFFFFFFFFFFFFFFFFFFFFFFFFFFFFFFFFFFFFF AND CALLER PUSH20 0xFFFFFFFFFFFFFFFFFFFFFFFFFFFFFFFFFFFFFFFF AND EQ PUSH2 0x176 JUMPI PUSH1 0x40 MLOAD PUSH32 0x8C379A000000000000000000000000000000000000000000000000000000000 DUP2 MSTORE PUSH1 0x4 ADD PUSH2 0x16D SWAP1 PUSH2 0xE07 JUMP JUMPDEST PUSH1 0x40 MLOAD DUP1 SWAP2 SUB SWAP1 REVERT JUMPDEST DUP5 DUP5 DUP5 PUSH1 0x0 DUP1 DUP5 PUSH20 0xFFFFFFFFFFFFFFFFFFFFFFFFFFFFFFFFFFFFFFFF AND PUSH20 0xFFFFFFFFFFFFFFFFFFFFFFFFFFFFFFFFFFFFFFFF AND DUP2 MSTORE PUSH1 0x20 ADD SWAP1 DUP2 MSTORE PUSH1 0x20 ADD PUSH1 0x0 KECCAK256 PUSH1 0x1 ADD PUSH1 0x0 DUP4 PUSH20 0xFFFFFFFFFFFFFFFFFFFFFFFFFFFFFFFFFFFFFFFF AND PUSH20 0xFFFFFFFFFFFFFFFFFFFFFFFFFFFFFFFFFFFFFFFF AND DUP2 MSTORE PUSH1 0x20 ADD SWAP1 DUP2 MSTORE PUSH1 0x20 ADD PUSH1 0x0 KECCAK256 DUP2 DUP2 SLOAD DUP2 LT PUSH2 0x209 JUMPI PUSH2 0x208 PUSH2 0xE27 JUMP JUMPDEST JUMPDEST SWAP1 PUSH1 0x0 MSTORE PUSH1 0x20 PUSH1 0x0 KECCAK256 SWAP1 PUSH1 0x7 MUL ADD PUSH1 0x3 ADD SLOAD TIMESTAMP LT ISZERO PUSH2 0x25D JUMPI PUSH1 0x40 MLOAD PUSH32 0x8C379A000000000000000000000000000000000000000000000000000000000 DUP2 MSTORE PUSH1 0x4 ADD PUSH2 0x254 SWAP1 PUSH2 0xEA2 JUMP JUMPDEST PUSH1 0x40 MLOAD DUP1 SWAP2 SUB SWAP1 REVERT JUMPDEST PUSH1 0x0 PUSH2 0x26A DUP10 DUP10 DUP10 PUSH2 0x873 JUMP JUMPDEST SWAP1 POP PUSH1 0x0 DUP2 GT PUSH2 0x2AF JUMPI PUSH1 0x40 MLOAD PUSH32 0x8C379A000000000000000000000000000000000000000000000000000000000 DUP2 MSTORE PUSH1 0x4 ADD PUSH2 0x2A6 SWAP1 PUSH2 0xF0E JUMP JUMPDEST PUSH1 0x40 MLOAD DUP1 SWAP2 SUB SWAP1 REVERT JUMPDEST DUP1 DUP7 GT ISZERO PUSH2 0x2F2 JUMPI PUSH1 0x40 MLOAD PUSH32 0x8C379A000000000000000000000000000000000000000000000000000000000 DUP2 MSTORE PUSH1 0x4 ADD PUSH2 0x2E9 SWAP1 PUSH2 0xF7A JUMP JUMPDEST PUSH1 0x40 MLOAD DUP1 SWAP2 SUB SWAP1 REVERT JUMPDEST PUSH1 0x0 DUP1 PUSH1 0x0 DUP12 PUSH20 0xFFFFFFFFFFFFFFFFFFFFFFFFFFFFFFFFFFFFFFFF AND PUSH20 0xFFFFFFFFFFFFFFFFFFFFFFFFFFFFFFFFFFFFFFFF AND DUP2 MSTORE PUSH1 0x20 ADD SWAP1 DUP2 MSTORE PUSH1 0x20 ADD PUSH1 0x0 KECCAK256 PUSH1 0x1 ADD PUSH1 0x0 DUP11 PUSH20 0xFFFFFFFFFFFFFFFFFFFFFFFFFFFFFFFFFFFFFFFF AND PUSH20 0xFFFFFFFFFFFFFFFFFFFFFFFFFFFFFFFFFFFFFFFF AND DUP2 MSTORE PUSH1 0x20 ADD SWAP1 DUP2 MSTORE PUSH1 0x20 ADD PUSH1 0x0 KECCAK256 DUP9 DUP2 SLOAD DUP2 LT PUSH2 0x384 JUMPI PUSH2 0x383 PUSH2 0xE27 JUMP JUMPDEST JUMPDEST SWAP1 PUSH1 0x0 MSTORE PUSH1 0x20 PUSH1 0x0 KECCAK256 SWAP1 PUSH1 0x7 MUL ADD SWAP1 POP DUP7 DUP2 PUSH1 0x6 ADD PUSH1 0x0 DUP3 DUP3 SLOAD PUSH2 0x3A8 SWAP2 SWAP1 PUSH2 0xFC9 JUMP JUMPDEST SWAP3 POP POP DUP2 SWAP1 SSTORE POP DUP9 PUSH20 0xFFFFFFFFFFFFFFFFFFFFFFFFFFFFFFFFFFFFFFFF AND PUSH4 0xA9059CBB DUP12 DUP10 PUSH1 0x40 MLOAD DUP4 PUSH4 0xFFFFFFFF AND PUSH1 0xE0 SHL DUP2 MSTORE PUSH1 0x4 ADD PUSH2 0x3EA SWAP3 SWAP2 SWAP1 PUSH2 0x100C JUMP JUMPDEST PUSH1 0x20 PUSH1 0x40 MLOAD DUP1 DUP4 SUB DUP2 PUSH1 0x0 DUP8 GAS CALL ISZERO DUP1 ISZERO PUSH2 0x409 JUMPI RETURNDATASIZE PUSH1 0x0 DUP1 RETURNDATACOPY RETURNDATASIZE PUSH1 0x0 REVERT JUMPDEST POP POP POP POP PUSH1 0x40 MLOAD RETURNDATASIZE PUSH1 0x1F NOT PUSH1 0x1F DUP3 ADD AND DUP3 ADD DUP1 PUSH1 0x40 MSTORE POP DUP2 ADD SWAP1 PUSH2 0x42D SWAP2 SWAP1 PUSH2 0x106D JUMP JUMPDEST POP PUSH32 0xE76A1B59A572254539FAF5AF4CEBC5BC4A5EE4C1D55436F3C97C5817D3B92681 DUP11 DUP9 PUSH1 0x40 MLOAD PUSH2 0x45F SWAP3 SWAP2 SWAP1 PUSH2 0x10E6 JUMP JUMPDEST PUSH1 0x40 MLOAD DUP1 SWAP2 SUB SWAP1 LOG1 POP POP POP POP POP POP POP POP POP POP JUMP JUMPDEST DUP6 DUP1 PUSH20 0xFFFFFFFFFFFFFFFFFFFFFFFFFFFFFFFFFFFFFFFF AND CALLER PUSH20 0xFFFFFFFFFFFFFFFFFFFFFFFFFFFFFFFFFFFFFFFF AND EQ PUSH2 0x4E2 JUMPI PUSH1 0x40 MLOAD PUSH32 0x8C379A000000000000000000000000000000000000000000000000000000000 DUP2 MSTORE PUSH1 0x4 ADD PUSH2 0x4D9 SWAP1 PUSH2 0xE07 JUMP JUMPDEST PUSH1 0x40 MLOAD DUP1 SWAP2 SUB SWAP1 REVERT JUMPDEST DUP4 DUP4 GT ISZERO DUP1 ISZERO PUSH2 0x4F2 JUMPI POP DUP4 DUP6 GT ISZERO JUMPDEST PUSH2 0x531 JUMPI PUSH1 0x40 MLOAD PUSH32 0x8C379A000000000000000000000000000000000000000000000000000000000 DUP2 MSTORE PUSH1 0x4 ADD PUSH2 0x528 SWAP1 PUSH2 0x1194 JUMP JUMPDEST PUSH1 0x40 MLOAD DUP1 SWAP2 SUB SWAP1 REVERT JUMPDEST PUSH1 0x0 DUP7 GT PUSH2 0x574 JUMPI PUSH1 0x40 MLOAD PUSH32 0x8C379A000000000000000000000000000000000000000000000000000000000 DUP2 MSTORE PUSH1 0x4 ADD PUSH2 0x56B SWAP1 PUSH2 0x1200 JUMP JUMPDEST PUSH1 0x40 MLOAD DUP1 SWAP2 SUB SWAP1 REVERT JUMPDEST PUSH1 0x0 DUP1 PUSH1 0x0 DUP10 PUSH20 0xFFFFFFFFFFFFFFFFFFFFFFFFFFFFFFFFFFFFFFFF AND PUSH20 0xFFFFFFFFFFFFFFFFFFFFFFFFFFFFFFFFFFFFFFFF AND DUP2 MSTORE PUSH1 0x20 ADD SWAP1 DUP2 MSTORE PUSH1 0x20 ADD PUSH1 0x0 KECCAK256 PUSH1 0x1 ADD PUSH1 0x0 DUP5 PUSH20 0xFFFFFFFFFFFFFFFFFFFFFFFFFFFFFFFFFFFFFFFF AND PUSH20 0xFFFFFFFFFFFFFFFFFFFFFFFFFFFFFFFFFFFFFFFF AND DUP2 MSTORE PUSH1 0x20 ADD SWAP1 DUP2 MSTORE PUSH1 0x20 ADD PUSH1 0x0 KECCAK256 SWAP1 POP PUSH1 0x0 PUSH1 0x40 MLOAD DUP1 PUSH1 0xE0 ADD PUSH1 0x40 MSTORE DUP1 DUP4 DUP1 SLOAD SWAP1 POP DUP2 MSTORE PUSH1 0x20 ADD TIMESTAMP DUP2 MSTORE PUSH1 0x20 ADD DUP8 DUP2 MSTORE PUSH1 0x20 ADD DUP9 TIMESTAMP PUSH2 0x625 SWAP2 SWAP1 PUSH2 0xFC9 JUMP JUMPDEST DUP2 MSTORE PUSH1 0x20 ADD DUP7 DUP2 MSTORE PUSH1 0x20 ADD DUP10 DUP2 MSTORE PUSH1 0x20 ADD PUSH1 0x0 DUP2 MSTORE POP SWAP1 POP DUP2 DUP2 SWAP1 DUP1 PUSH1 0x1 DUP2 SLOAD ADD DUP1 DUP3 SSTORE DUP1 SWAP2 POP POP PUSH1 0x1 SWAP1 SUB SWAP1 PUSH1 0x0 MSTORE PUSH1 0x20 PUSH1 0x0 KECCAK256 SWAP1 PUSH1 0x7 MUL ADD PUSH1 0x0 SWAP1 SWAP2 SWAP1 SWAP2 SWAP1 SWAP2 POP PUSH1 0x0 DUP3 ADD MLOAD DUP2 PUSH1 0x0 ADD SSTORE PUSH1 0x20 DUP3 ADD MLOAD DUP2 PUSH1 0x1 ADD SSTORE PUSH1 0x40 DUP3 ADD MLOAD DUP2 PUSH1 0x2 ADD SSTORE PUSH1 0x60 DUP3 ADD MLOAD DUP2 PUSH1 0x3 ADD SSTORE PUSH1 0x80 DUP3 ADD MLOAD DUP2 PUSH1 0x4 ADD SSTORE PUSH1 0xA0 DUP3 ADD MLOAD DUP2 PUSH1 0x5 ADD SSTORE PUSH1 0xC0 DUP3 ADD MLOAD DUP2 PUSH1 0x6 ADD SSTORE POP POP DUP4 PUSH20 0xFFFFFFFFFFFFFFFFFFFFFFFFFFFFFFFFFFFFFFFF AND PUSH4 0x23B872DD CALLER ADDRESS DUP12 PUSH1 0x40 MLOAD DUP5 PUSH4 0xFFFFFFFF AND PUSH1 0xE0 SHL DUP2 MSTORE PUSH1 0x4 ADD PUSH2 0x6ED SWAP4 SWAP3 SWAP2 SWAP1 PUSH2 0x1220 JUMP JUMPDEST PUSH1 0x20 PUSH1 0x40 MLOAD DUP1 DUP4 SUB DUP2 PUSH1 0x0 DUP8 GAS CALL ISZERO DUP1 ISZERO PUSH2 0x70C JUMPI RETURNDATASIZE PUSH1 0x0 DUP1 RETURNDATACOPY RETURNDATASIZE PUSH1 0x0 REVERT JUMPDEST POP POP POP POP PUSH1 0x40 MLOAD RETURNDATASIZE PUSH1 0x1F NOT PUSH1 0x1F DUP3 ADD AND DUP3 ADD DUP1 PUSH1 0x40 MSTORE POP DUP2 ADD SWAP1 PUSH2 0x730 SWAP2 SWAP1 PUSH2 0x106D JUMP JUMPDEST POP PUSH32 0x58061F685B438748CF21469042B11FE4DFB0C77FD2DA64032C5ADC017FC09A88 DUP10 PUSH1 0x40 MLOAD PUSH2 0x760 SWAP2 SWAP1 PUSH2 0x12C9 JUMP JUMPDEST PUSH1 0x40 MLOAD DUP1 SWAP2 SUB SWAP1 LOG1 POP POP POP POP POP POP POP POP POP JUMP JUMPDEST PUSH2 0x77B PUSH2 0xA1A JUMP JUMPDEST PUSH1 0x0 DUP1 DUP6 PUSH20 0xFFFFFFFFFFFFFFFFFFFFFFFFFFFFFFFFFFFFFFFF AND PUSH20 0xFFFFFFFFFFFFFFFFFFFFFFFFFFFFFFFFFFFFFFFF AND DUP2 MSTORE PUSH1 0x20 ADD SWAP1 DUP2 MSTORE PUSH1 0x20 ADD PUSH1 0x0 KECCAK256 PUSH1 0x1 ADD PUSH1 0x0 DUP5 PUSH20 0xFFFFFFFFFFFFFFFFFFFFFFFFFFFFFFFFFFFFFFFF AND PUSH20 0xFFFFFFFFFFFFFFFFFFFFFFFFFFFFFFFFFFFFFFFF AND DUP2 MSTORE PUSH1 0x20 ADD SWAP1 DUP2 MSTORE PUSH1 0x20 ADD PUSH1 0x0 KECCAK256 DUP3 DUP2 SLOAD DUP2 LT PUSH2 0x80B JUMPI PUSH2 0x80A PUSH2 0xE27 JUMP JUMPDEST JUMPDEST SWAP1 PUSH1 0x0 MSTORE PUSH1 0x20 PUSH1 0x0 KECCAK256 SWAP1 PUSH1 0x7 MUL ADD PUSH1 0x40 MLOAD DUP1 PUSH1 0xE0 ADD PUSH1 0x40 MSTORE SWAP1 DUP2 PUSH1 0x0 DUP3 ADD SLOAD DUP2 MSTORE PUSH1 0x20 ADD PUSH1 0x1 DUP3 ADD SLOAD DUP2 MSTORE PUSH1 0x20 ADD PUSH1 0x2 DUP3 ADD SLOAD DUP2 MSTORE PUSH1 0x20 ADD PUSH1 0x3 DUP3 ADD SLOAD DUP2 MSTORE PUSH1 0x20 ADD PUSH1 0x4 DUP3 ADD SLOAD DUP2 MSTORE PUSH1 0x20 ADD PUSH1 0x5 DUP3 ADD SLOAD DUP2 MSTORE PUSH1 0x20 ADD PUSH1 0x6 DUP3 ADD SLOAD DUP2 MSTORE POP POP SWAP1 POP SWAP4 SWAP3 POP POP POP JUMP JUMPDEST PUSH1 0x0 DUP1 PUSH1 0x0 DUP1 DUP7 PUSH20 0xFFFFFFFFFFFFFFFFFFFFFFFFFFFFFFFFFFFFFFFF AND PUSH20 0xFFFFFFFFFFFFFFFFFFFFFFFFFFFFFFFFFFFFFFFF AND DUP2 MSTORE PUSH1 0x20 ADD SWAP1 DUP2 MSTORE PUSH1 0x20 ADD PUSH1 0x0 KECCAK256 PUSH1 0x1 ADD PUSH1 0x0 DUP6 PUSH20 0xFFFFFFFFFFFFFFFFFFFFFFFFFFFFFFFFFFFFFFFF AND PUSH20 0xFFFFFFFFFFFFFFFFFFFFFFFFFFFFFFFFFFFFFFFF AND DUP2 MSTORE PUSH1 0x20 ADD SWAP1 DUP2 MSTORE PUSH1 0x20 ADD PUSH1 0x0 KECCAK256 DUP4 DUP2 SLOAD DUP2 LT PUSH2 0x906 JUMPI PUSH2 0x905 PUSH2 0xE27 JUMP JUMPDEST JUMPDEST SWAP1 PUSH1 0x0 MSTORE PUSH1 0x20 PUSH1 0x0 KECCAK256 SWAP1 PUSH1 0x7 MUL ADD PUSH1 0x40 MLOAD DUP1 PUSH1 0xE0 ADD PUSH1 0x40 MSTORE SWAP1 DUP2 PUSH1 0x0 DUP3 ADD SLOAD DUP2 MSTORE PUSH1 0x20 ADD PUSH1 0x1 DUP3 ADD SLOAD DUP2 MSTORE PUSH1 0x20 ADD PUSH1 0x2 DUP3 ADD SLOAD DUP2 MSTORE PUSH1 0x20 ADD PUSH1 0x3 DUP3 ADD SLOAD DUP2 MSTORE PUSH1 0x20 ADD PUSH1 0x4 DUP3 ADD SLOAD DUP2 MSTORE PUSH1 0x20 ADD PUSH1 0x5 DUP3 ADD SLOAD DUP2 MSTORE PUSH1 0x20 ADD PUSH1 0x6 DUP3 ADD SLOAD DUP2 MSTORE POP POP SWAP1 POP PUSH1 0x0 DUP2 PUSH1 0x20 ADD MLOAD TIMESTAMP PUSH2 0x979 SWAP2 SWAP1 PUSH2 0x12F7 JUMP JUMPDEST SWAP1 POP PUSH1 0x0 DUP3 PUSH1 0x80 ADD MLOAD DUP3 PUSH2 0x98D SWAP2 SWAP1 PUSH2 0x135A JUMP JUMPDEST SWAP1 POP PUSH1 0x0 DUP4 PUSH1 0x80 ADD MLOAD DUP5 PUSH1 0x40 ADD MLOAD PUSH2 0x9A5 SWAP2 SWAP1 PUSH2 0x135A JUMP JUMPDEST SWAP1 POP PUSH1 0x0 DUP5 PUSH1 0xC0 ADD MLOAD SWAP1 POP PUSH1 0x0 DUP6 PUSH1 0xA0 ADD MLOAD SWAP1 POP DUP3 DUP5 LT PUSH2 0x9D9 JUMPI DUP2 DUP2 PUSH2 0x9CC SWAP2 SWAP1 PUSH2 0x12F7 JUMP JUMPDEST SWAP7 POP POP POP POP POP POP POP PUSH2 0xA13 JUMP JUMPDEST PUSH1 0x0 DUP4 DUP3 PUSH2 0x9E7 SWAP2 SWAP1 PUSH2 0x135A JUMP JUMPDEST SWAP1 POP PUSH1 0x0 DUP6 DUP3 PUSH2 0x9F7 SWAP2 SWAP1 PUSH2 0x138B JUMP JUMPDEST SWAP1 POP DUP4 DUP2 PUSH2 0xA05 SWAP2 SWAP1 PUSH2 0x12F7 JUMP JUMPDEST SWAP1 POP DUP1 SWAP9 POP POP POP POP POP POP POP POP POP JUMPDEST SWAP4 SWAP3 POP POP POP JUMP JUMPDEST PUSH1 0x40 MLOAD DUP1 PUSH1 0xE0 ADD PUSH1 0x40 MSTORE DUP1 PUSH1 0x0 DUP2 MSTORE PUSH1 0x20 ADD PUSH1 0x0 DUP2 MSTORE PUSH1 0x20 ADD PUSH1 0x0 DUP2 MSTORE PUSH1 0x20 ADD PUSH1 0x0 DUP2 MSTORE PUSH1 0x20 ADD PUSH1 0x0 DUP2 MSTORE PUSH1 0x20 ADD PUSH1 0x0 DUP2 MSTORE PUSH1 0x20 ADD PUSH1 0x0 DUP2 MSTORE POP SWAP1 JUMP JUMPDEST PUSH1 0x0 DUP1 REVERT JUMPDEST PUSH1 0x0 PUSH20 0xFFFFFFFFFFFFFFFFFFFFFFFFFFFFFFFFFFFFFFFF DUP3 AND SWAP1 POP SWAP2 SWAP1 POP JUMP JUMPDEST PUSH1 0x0 PUSH2 0xA87 DUP3 PUSH2 0xA5C JUMP JUMPDEST SWAP1 POP SWAP2 SWAP1 POP JUMP JUMPDEST PUSH2 0xA97 DUP2 PUSH2 0xA7C JUMP JUMPDEST DUP2 EQ PUSH2 0xAA2 JUMPI PUSH1 0x0 DUP1 REVERT JUMPDEST POP JUMP JUMPDEST PUSH1 0x0 DUP2 CALLDATALOAD SWAP1 POP PUSH2 0xAB4 DUP2 PUSH2 0xA8E JUMP JUMPDEST SWAP3 SWAP2 POP POP JUMP JUMPDEST PUSH1 0x0 PUSH1 0x20 DUP3 DUP5 SUB SLT ISZERO PUSH2 0xAD0 JUMPI PUSH2 0xACF PUSH2 0xA57 JUMP JUMPDEST JUMPDEST PUSH1 0x0 PUSH2 0xADE DUP5 DUP3 DUP6 ADD PUSH2 0xAA5 JUMP JUMPDEST SWAP2 POP POP SWAP3 SWAP2 POP POP JUMP JUMPDEST PUSH1 0x0 DUP2 SWAP1 POP SWAP2 SWAP1 POP JUMP JUMPDEST PUSH2 0xAFA DUP2 PUSH2 0xAE7 JUMP JUMPDEST DUP3 MSTORE POP POP JUMP JUMPDEST PUSH1 0x0 PUSH1 0x20 DUP3 ADD SWAP1 POP PUSH2 0xB15 PUSH1 0x0 DUP4 ADD DUP5 PUSH2 0xAF1 JUMP JUMPDEST SWAP3 SWAP2 POP POP JUMP JUMPDEST PUSH1 0x0 PUSH2 0xB26 DUP3 PUSH2 0xA7C JUMP JUMPDEST SWAP1 POP SWAP2 SWAP1 POP JUMP JUMPDEST PUSH2 0xB36 DUP2 PUSH2 0xB1B JUMP JUMPDEST DUP2 EQ PUSH2 0xB41 JUMPI PUSH1 0x0 DUP1 REVERT JUMPDEST POP JUMP JUMPDEST PUSH1 0x0 DUP2 CALLDATALOAD SWAP1 POP PUSH2 0xB53 DUP2 PUSH2 0xB2D JUMP JUMPDEST SWAP3 SWAP2 POP POP JUMP JUMPDEST PUSH2 0xB62 DUP2 PUSH2 0xAE7 JUMP JUMPDEST DUP2 EQ PUSH2 0xB6D JUMPI PUSH1 0x0 DUP1 REVERT JUMPDEST POP JUMP JUMPDEST PUSH1 0x0 DUP2 CALLDATALOAD SWAP1 POP PUSH2 0xB7F DUP2 PUSH2 0xB59 JUMP JUMPDEST SWAP3 SWAP2 POP POP JUMP JUMPDEST PUSH1 0x0 DUP1 PUSH1 0x0 DUP1 PUSH1 0x80 DUP6 DUP8 SUB SLT ISZERO PUSH2 0xB9F JUMPI PUSH2 0xB9E PUSH2 0xA57 JUMP JUMPDEST JUMPDEST PUSH1 0x0 PUSH2 0xBAD DUP8 DUP3 DUP9 ADD PUSH2 0xAA5 JUMP JUMPDEST SWAP5 POP POP PUSH1 0x20 PUSH2 0xBBE DUP8 DUP3 DUP9 ADD PUSH2 0xB44 JUMP JUMPDEST SWAP4 POP POP PUSH1 0x40 PUSH2 0xBCF DUP8 DUP3 DUP9 ADD PUSH2 0xB70 JUMP JUMPDEST SWAP3 POP POP PUSH1 0x60 PUSH2 0xBE0 DUP8 DUP3 DUP9 ADD PUSH2 0xB70 JUMP JUMPDEST SWAP2 POP POP SWAP3 SWAP6 SWAP2 SWAP5 POP SWAP3 POP JUMP JUMPDEST PUSH1 0x0 DUP1 PUSH1 0x0 DUP1 PUSH1 0x0 DUP1 PUSH1 0xC0 DUP8 DUP10 SUB SLT ISZERO PUSH2 0xC09 JUMPI PUSH2 0xC08 PUSH2 0xA57 JUMP JUMPDEST JUMPDEST PUSH1 0x0 PUSH2 0xC17 DUP10 DUP3 DUP11 ADD PUSH2 0xAA5 JUMP JUMPDEST SWAP7 POP POP PUSH1 0x20 PUSH2 0xC28 DUP10 DUP3 DUP11 ADD PUSH2 0xB70 JUMP JUMPDEST SWAP6 POP POP PUSH1 0x40 PUSH2 0xC39 DUP10 DUP3 DUP11 ADD PUSH2 0xB70 JUMP JUMPDEST SWAP5 POP POP PUSH1 0x60 PUSH2 0xC4A DUP10 DUP3 DUP11 ADD PUSH2 0xB70 JUMP JUMPDEST SWAP4 POP POP PUSH1 0x80 PUSH2 0xC5B DUP10 DUP3 DUP11 ADD PUSH2 0xB70 JUMP JUMPDEST SWAP3 POP POP PUSH1 0xA0 PUSH2 0xC6C DUP10 DUP3 DUP11 ADD PUSH2 0xB44 JUMP JUMPDEST SWAP2 POP POP SWAP3 SWAP6 POP SWAP3 SWAP6 POP SWAP3 SWAP6 JUMP JUMPDEST PUSH1 0x0 DUP1 PUSH1 0x0 PUSH1 0x60 DUP5 DUP7 SUB SLT ISZERO PUSH2 0xC92 JUMPI PUSH2 0xC91 PUSH2 0xA57 JUMP JUMPDEST JUMPDEST PUSH1 0x0 PUSH2 0xCA0 DUP7 DUP3 DUP8 ADD PUSH2 0xAA5 JUMP JUMPDEST SWAP4 POP POP PUSH1 0x20 PUSH2 0xCB1 DUP7 DUP3 DUP8 ADD PUSH2 0xB44 JUMP JUMPDEST SWAP3 POP POP PUSH1 0x40 PUSH2 0xCC2 DUP7 DUP3 DUP8 ADD PUSH2 0xB70 JUMP JUMPDEST SWAP2 POP POP SWAP3 POP SWAP3 POP SWAP3 JUMP JUMPDEST PUSH2 0xCD5 DUP2 PUSH2 0xAE7 JUMP JUMPDEST DUP3 MSTORE POP POP JUMP JUMPDEST PUSH1 0xE0 DUP3 ADD PUSH1 0x0 DUP3 ADD MLOAD PUSH2 0xCF1 PUSH1 0x0 DUP6 ADD DUP3 PUSH2 0xCCC JUMP JUMPDEST POP PUSH1 0x20 DUP3 ADD MLOAD PUSH2 0xD04 PUSH1 0x20 DUP6 ADD DUP3 PUSH2 0xCCC JUMP JUMPDEST POP PUSH1 0x40 DUP3 ADD MLOAD PUSH2 0xD17 PUSH1 0x40 DUP6 ADD DUP3 PUSH2 0xCCC JUMP JUMPDEST POP PUSH1 0x60 DUP3 ADD MLOAD PUSH2 0xD2A PUSH1 0x60 DUP6 ADD DUP3 PUSH2 0xCCC JUMP JUMPDEST POP PUSH1 0x80 DUP3 ADD MLOAD PUSH2 0xD3D PUSH1 0x80 DUP6 ADD DUP3 PUSH2 0xCCC JUMP JUMPDEST POP PUSH1 0xA0 DUP3 ADD MLOAD PUSH2 0xD50 PUSH1 0xA0 DUP6 ADD DUP3 PUSH2 0xCCC JUMP JUMPDEST POP PUSH1 0xC0 DUP3 ADD MLOAD PUSH2 0xD63 PUSH1 0xC0 DUP6 ADD DUP3 PUSH2 0xCCC JUMP JUMPDEST POP POP POP POP JUMP JUMPDEST PUSH1 0x0 PUSH1 0xE0 DUP3 ADD SWAP1 POP PUSH2 0xD7E PUSH1 0x0 DUP4 ADD DUP5 PUSH2 0xCDB JUMP JUMPDEST SWAP3 SWAP2 POP POP JUMP JUMPDEST PUSH1 0x0 DUP3 DUP3 MSTORE PUSH1 0x20 DUP3 ADD SWAP1 POP SWAP3 SWAP2 POP POP JUMP JUMPDEST PUSH32 0x4F6E6C792042656E65666963696172792063616E204C6F636B20616E64205265 PUSH1 0x0 DUP3 ADD MSTORE PUSH32 0x6C6561736520546F6B656E730000000000000000000000000000000000000000 PUSH1 0x20 DUP3 ADD MSTORE POP JUMP JUMPDEST PUSH1 0x0 PUSH2 0xDF1 PUSH1 0x2C DUP4 PUSH2 0xD84 JUMP JUMPDEST SWAP2 POP PUSH2 0xDFC DUP3 PUSH2 0xD95 JUMP JUMPDEST PUSH1 0x40 DUP3 ADD SWAP1 POP SWAP2 SWAP1 POP JUMP JUMPDEST PUSH1 0x0 PUSH1 0x20 DUP3 ADD SWAP1 POP DUP2 DUP2 SUB PUSH1 0x0 DUP4 ADD MSTORE PUSH2 0xE20 DUP2 PUSH2 0xDE4 JUMP JUMPDEST SWAP1 POP SWAP2 SWAP1 POP JUMP JUMPDEST PUSH32 0x4E487B7100000000000000000000000000000000000000000000000000000000 PUSH1 0x0 MSTORE PUSH1 0x32 PUSH1 0x4 MSTORE PUSH1 0x24 PUSH1 0x0 REVERT JUMPDEST PUSH32 0x576169742054696C6C20436C69666620706572696F6400000000000000000000 PUSH1 0x0 DUP3 ADD MSTORE POP JUMP JUMPDEST PUSH1 0x0 PUSH2 0xE8C PUSH1 0x16 DUP4 PUSH2 0xD84 JUMP JUMPDEST SWAP2 POP PUSH2 0xE97 DUP3 PUSH2 0xE56 JUMP JUMPDEST PUSH1 0x20 DUP3 ADD SWAP1 POP SWAP2 SWAP1 POP JUMP JUMPDEST PUSH1 0x0 PUSH1 0x20 DUP3 ADD SWAP1 POP DUP2 DUP2 SUB PUSH1 0x0 DUP4 ADD MSTORE PUSH2 0xEBB DUP2 PUSH2 0xE7F JUMP JUMPDEST SWAP1 POP SWAP2 SWAP1 POP JUMP JUMPDEST PUSH32 0x4E6F20746F6B656E7320666F722072656C656173650000000000000000000000 PUSH1 0x0 DUP3 ADD MSTORE POP JUMP JUMPDEST PUSH1 0x0 PUSH2 0xEF8 PUSH1 0x15 DUP4 PUSH2 0xD84 JUMP JUMPDEST SWAP2 POP PUSH2 0xF03 DUP3 PUSH2 0xEC2 JUMP JUMPDEST PUSH1 0x20 DUP3 ADD SWAP1 POP SWAP2 SWAP1 POP JUMP JUMPDEST PUSH1 0x0 PUSH1 0x20 DUP3 ADD SWAP1 POP DUP2 DUP2 SUB PUSH1 0x0 DUP4 ADD MSTORE PUSH2 0xF27 DUP2 PUSH2 0xEEB JUMP JUMPDEST SWAP1 POP SWAP2 SWAP1 POP JUMP JUMPDEST PUSH32 0x436C61696D20416D6F756E74203E2052656C65617361626C6520746F6B656E73 PUSH1 0x0 DUP3 ADD MSTORE POP JUMP JUMPDEST PUSH1 0x0 PUSH2 0xF64 PUSH1 0x20 DUP4 PUSH2 0xD84 JUMP JUMPDEST SWAP2 POP PUSH2 0xF6F DUP3 PUSH2 0xF2E JUMP JUMPDEST PUSH1 0x20 DUP3 ADD SWAP1 POP SWAP2 SWAP1 POP JUMP JUMPDEST PUSH1 0x0 PUSH1 0x20 DUP3 ADD SWAP1 POP DUP2 DUP2 SUB PUSH1 0x0 DUP4 ADD MSTORE PUSH2 0xF93 DUP2 PUSH2 0xF57 JUMP JUMPDEST SWAP1 POP SWAP2 SWAP1 POP JUMP JUMPDEST PUSH32 0x4E487B7100000000000000000000000000000000000000000000000000000000 PUSH1 0x0 MSTORE PUSH1 0x11 PUSH1 0x4 MSTORE PUSH1 0x24 PUSH1 0x0 REVERT JUMPDEST PUSH1 0x0 PUSH2 0xFD4 DUP3 PUSH2 0xAE7 JUMP JUMPDEST SWAP2 POP PUSH2 0xFDF DUP4 PUSH2 0xAE7 JUMP JUMPDEST SWAP3 POP DUP3 DUP3 ADD SWAP1 POP DUP1 DUP3 GT ISZERO PUSH2 0xFF7 JUMPI PUSH2 0xFF6 PUSH2 0xF9A JUMP JUMPDEST JUMPDEST SWAP3 SWAP2 POP POP JUMP JUMPDEST PUSH2 0x1006 DUP2 PUSH2 0xA7C JUMP JUMPDEST DUP3 MSTORE POP POP JUMP JUMPDEST PUSH1 0x0 PUSH1 0x40 DUP3 ADD SWAP1 POP PUSH2 0x1021 PUSH1 0x0 DUP4 ADD DUP6 PUSH2 0xFFD JUMP JUMPDEST PUSH2 0x102E PUSH1 0x20 DUP4 ADD DUP5 PUSH2 0xAF1 JUMP JUMPDEST SWAP4 SWAP3 POP POP POP JUMP JUMPDEST PUSH1 0x0 DUP2 ISZERO ISZERO SWAP1 POP SWAP2 SWAP1 POP JUMP JUMPDEST PUSH2 0x104A DUP2 PUSH2 0x1035 JUMP JUMPDEST DUP2 EQ PUSH2 0x1055 JUMPI PUSH1 0x0 DUP1 REVERT JUMPDEST POP JUMP JUMPDEST PUSH1 0x0 DUP2 MLOAD SWAP1 POP PUSH2 0x1067 DUP2 PUSH2 0x1041 JUMP JUMPDEST SWAP3 SWAP2 POP POP JUMP JUMPDEST PUSH1 0x0 PUSH1 0x20 DUP3 DUP5 SUB SLT ISZERO PUSH2 0x1083 JUMPI PUSH2 0x1082 PUSH2 0xA57 JUMP JUMPDEST JUMPDEST PUSH1 0x0 PUSH2 0x1091 DUP5 DUP3 DUP6 ADD PUSH2 0x1058 JUMP JUMPDEST SWAP2 POP POP SWAP3 SWAP2 POP POP JUMP JUMPDEST PUSH32 0x546F6B656E732072656C656173656420746F2062656E65666963696172790000 PUSH1 0x0 DUP3 ADD MSTORE POP JUMP JUMPDEST PUSH1 0x0 PUSH2 0x10D0 PUSH1 0x1E DUP4 PUSH2 0xD84 JUMP JUMPDEST SWAP2 POP PUSH2 0x10DB DUP3 PUSH2 0x109A JUMP JUMPDEST PUSH1 0x20 DUP3 ADD SWAP1 POP SWAP2 SWAP1 POP JUMP JUMPDEST PUSH1 0x0 PUSH1 0x60 DUP3 ADD SWAP1 POP PUSH2 0x10FB PUSH1 0x0 DUP4 ADD DUP6 PUSH2 0xFFD JUMP JUMPDEST PUSH2 0x1108 PUSH1 0x20 DUP4 ADD DUP5 PUSH2 0xAF1 JUMP JUMPDEST DUP2 DUP2 SUB PUSH1 0x40 DUP4 ADD MSTORE PUSH2 0x1119 DUP2 PUSH2 0x10C3 JUMP JUMPDEST SWAP1 POP SWAP4 SWAP3 POP POP POP JUMP JUMPDEST PUSH32 0x536C69636520706572696F64202620636C6966662073686F756C64206265203C PUSH1 0x0 DUP3 ADD MSTORE PUSH32 0x204475726174696F6E0000000000000000000000000000000000000000000000 PUSH1 0x20 DUP3 ADD MSTORE POP JUMP JUMPDEST PUSH1 0x0 PUSH2 0x117E PUSH1 0x29 DUP4 PUSH2 0xD84 JUMP JUMPDEST SWAP2 POP PUSH2 0x1189 DUP3 PUSH2 0x1122 JUMP JUMPDEST PUSH1 0x40 DUP3 ADD SWAP1 POP SWAP2 SWAP1 POP JUMP JUMPDEST PUSH1 0x0 PUSH1 0x20 DUP3 ADD SWAP1 POP DUP2 DUP2 SUB PUSH1 0x0 DUP4 ADD MSTORE PUSH2 0x11AD DUP2 PUSH2 0x1171 JUMP JUMPDEST SWAP1 POP SWAP2 SWAP1 POP JUMP JUMPDEST PUSH32 0x546F6B656E7320746F20766573742073686F756C64206265203E203000000000 PUSH1 0x0 DUP3 ADD MSTORE POP JUMP JUMPDEST PUSH1 0x0 PUSH2 0x11EA PUSH1 0x1C DUP4 PUSH2 0xD84 JUMP JUMPDEST SWAP2 POP PUSH2 0x11F5 DUP3 PUSH2 0x11B4 JUMP JUMPDEST PUSH1 0x20 DUP3 ADD SWAP1 POP SWAP2 SWAP1 POP JUMP JUMPDEST PUSH1 0x0 PUSH1 0x20 DUP3 ADD SWAP1 POP DUP2 DUP2 SUB PUSH1 0x0 DUP4 ADD MSTORE PUSH2 0x1219 DUP2 PUSH2 0x11DD JUMP JUMPDEST SWAP1 POP SWAP2 SWAP1 POP JUMP JUMPDEST PUSH1 0x0 PUSH1 0x60 DUP3 ADD SWAP1 POP PUSH2 0x1235 PUSH1 0x0 DUP4 ADD DUP7 PUSH2 0xFFD JUMP JUMPDEST PUSH2 0x1242 PUSH1 0x20 DUP4 ADD DUP6 PUSH2 0xFFD JUMP JUMPDEST PUSH2 0x124F PUSH1 0x40 DUP4 ADD DUP5 PUSH2 0xAF1 JUMP JUMPDEST SWAP5 SWAP4 POP POP POP POP JUMP JUMPDEST PUSH32 0x546F6B656E7320617265204C6F636B656420696E20736D61727420636F6E7472 PUSH1 0x0 DUP3 ADD MSTORE PUSH32 0x6163742000000000000000000000000000000000000000000000000000000000 PUSH1 0x20 DUP3 ADD MSTORE POP JUMP JUMPDEST PUSH1 0x0 PUSH2 0x12B3 PUSH1 0x24 DUP4 PUSH2 0xD84 JUMP JUMPDEST SWAP2 POP PUSH2 0x12BE DUP3 PUSH2 0x1257 JUMP JUMPDEST PUSH1 0x40 DUP3 ADD SWAP1 POP SWAP2 SWAP1 POP JUMP JUMPDEST PUSH1 0x0 PUSH1 0x40 DUP3 ADD SWAP1 POP PUSH2 0x12DE PUSH1 0x0 DUP4 ADD DUP5 PUSH2 0xFFD JUMP JUMPDEST DUP2 DUP2 SUB PUSH1 0x20 DUP4 ADD MSTORE PUSH2 0x12EF DUP2 PUSH2 0x12A6 JUMP JUMPDEST SWAP1 POP SWAP3 SWAP2 POP POP JUMP JUMPDEST PUSH1 0x0 PUSH2 0x1302 DUP3 PUSH2 0xAE7 JUMP JUMPDEST SWAP2 POP PUSH2 0x130D DUP4 PUSH2 0xAE7 JUMP JUMPDEST SWAP3 POP DUP3 DUP3 SUB SWAP1 POP DUP2 DUP2 GT ISZERO PUSH2 0x1325 JUMPI PUSH2 0x1324 PUSH2 0xF9A JUMP JUMPDEST JUMPDEST SWAP3 SWAP2 POP POP JUMP JUMPDEST PUSH32 0x4E487B7100000000000000000000000000000000000000000000000000000000 PUSH1 0x0 MSTORE PUSH1 0x12 PUSH1 0x4 MSTORE PUSH1 0x24 PUSH1 0x0 REVERT JUMPDEST PUSH1 0x0 PUSH2 0x1365 DUP3 PUSH2 0xAE7 JUMP JUMPDEST SWAP2 POP PUSH2 0x1370 DUP4 PUSH2 0xAE7 JUMP JUMPDEST SWAP3 POP DUP3 PUSH2 0x1380 JUMPI PUSH2 0x137F PUSH2 0x132B JUMP JUMPDEST JUMPDEST DUP3 DUP3 DIV SWAP1 POP SWAP3 SWAP2 POP POP JUMP JUMPDEST PUSH1 0x0 PUSH2 0x1396 DUP3 PUSH2 0xAE7 JUMP JUMPDEST SWAP2 POP PUSH2 0x13A1 DUP4 PUSH2 0xAE7 JUMP JUMPDEST SWAP3 POP DUP3 DUP3 MUL PUSH2 0x13AF DUP2 PUSH2 0xAE7 JUMP JUMPDEST SWAP2 POP DUP3 DUP3 DIV DUP5 EQ DUP4 ISZERO OR PUSH2 0x13C6 JUMPI PUSH2 0x13C5 PUSH2 0xF9A JUMP JUMPDEST JUMPDEST POP SWAP3 SWAP2 POP POP JUMP INVALID LOG2 PUSH5 0x6970667358 0x22 SLT KECCAK256 PUSH14 0x2FB27CB6DC2CB094CB022F991793 CODESIZE XOR 0xDF 0xC1 0x5C 0x25 0xE0 EXP PUSH7 0xCBA141EF4F5F1A OR PUSH5 0x736F6C6343 STOP ADDMOD SLT STOP CALLER "
				},
				"gasEstimates": {
					"creation": {
						"codeDepositCost": "1024600",
						"executionCost": "1067",
						"totalCost": "1025667"
					},
					"external": {
						"beneficiaries(address)": "2806",
						"getVestingDetails(address,address,uint256)": "infinite",
						"lockTokens(address,uint256,uint256,uint256,uint256,address)": "infinite",
						"releaseTokens(address,address,uint256,uint256)": "infinite"
					},
					"internal": {
						"releasableTokens(address,contract IERC20,uint256)": "infinite"
					}
				},
				"methodIdentifiers": {
					"beneficiaries(address)": "01567739",
					"getVestingDetails(address,address,uint256)": "a4272f92",
					"lockTokens(address,uint256,uint256,uint256,uint256,address)": "94be50cb",
					"releaseTokens(address,address,uint256,uint256)": "724d5be4"
				}
			},
			"storageLayout": {
				"storage": [
					{
						"astId": 110,
						"contract": "contracts/TokenVesting.sol:TokenVesting",
						"label": "beneficiaries",
						"offset": 0,
						"slot": "0",
						"type": "t_mapping(t_address,t_struct(BeneficiaryInfo)105_storage)"
					}
				],
				"types": {
					"t_address": {
						"encoding": "inplace",
						"label": "address",
						"numberOfBytes": "20"
					},
					"t_array(t_struct(VestingInfo)95_storage)dyn_storage": {
						"base": "t_struct(VestingInfo)95_storage",
						"encoding": "dynamic_array",
						"label": "struct TokenVesting.VestingInfo[]",
						"numberOfBytes": "32"
					},
					"t_contract(IERC20)77": {
						"encoding": "inplace",
						"label": "contract IERC20",
						"numberOfBytes": "20"
					},
					"t_mapping(t_address,t_struct(BeneficiaryInfo)105_storage)": {
						"encoding": "mapping",
						"key": "t_address",
						"label": "mapping(address => struct TokenVesting.BeneficiaryInfo)",
						"numberOfBytes": "32",
						"value": "t_struct(BeneficiaryInfo)105_storage"
					},
					"t_mapping(t_contract(IERC20)77,t_array(t_struct(VestingInfo)95_storage)dyn_storage)": {
						"encoding": "mapping",
						"key": "t_contract(IERC20)77",
						"label": "mapping(contract IERC20 => struct TokenVesting.VestingInfo[])",
						"numberOfBytes": "32",
						"value": "t_array(t_struct(VestingInfo)95_storage)dyn_storage"
					},
					"t_struct(BeneficiaryInfo)105_storage": {
						"encoding": "inplace",
						"label": "struct TokenVesting.BeneficiaryInfo",
						"members": [
							{
								"astId": 97,
								"contract": "contracts/TokenVesting.sol:TokenVesting",
								"label": "id",
								"offset": 0,
								"slot": "0",
								"type": "t_uint256"
							},
							{
								"astId": 104,
								"contract": "contracts/TokenVesting.sol:TokenVesting",
								"label": "vestingSchedules",
								"offset": 0,
								"slot": "1",
								"type": "t_mapping(t_contract(IERC20)77,t_array(t_struct(VestingInfo)95_storage)dyn_storage)"
							}
						],
						"numberOfBytes": "64"
					},
					"t_struct(VestingInfo)95_storage": {
						"encoding": "inplace",
						"label": "struct TokenVesting.VestingInfo",
						"members": [
							{
								"astId": 82,
								"contract": "contracts/TokenVesting.sol:TokenVesting",
								"label": "vestingId",
								"offset": 0,
								"slot": "0",
								"type": "t_uint256"
							},
							{
								"astId": 84,
								"contract": "contracts/TokenVesting.sol:TokenVesting",
								"label": "startTime",
								"offset": 0,
								"slot": "1",
								"type": "t_uint256"
							},
							{
								"astId": 86,
								"contract": "contracts/TokenVesting.sol:TokenVesting",
								"label": "duration",
								"offset": 0,
								"slot": "2",
								"type": "t_uint256"
							},
							{
								"astId": 88,
								"contract": "contracts/TokenVesting.sol:TokenVesting",
								"label": "cliff",
								"offset": 0,
								"slot": "3",
								"type": "t_uint256"
							},
							{
								"astId": 90,
								"contract": "contracts/TokenVesting.sol:TokenVesting",
								"label": "slicePeriod",
								"offset": 0,
								"slot": "4",
								"type": "t_uint256"
							},
							{
								"astId": 92,
								"contract": "contracts/TokenVesting.sol:TokenVesting",
								"label": "tokensAmount",
								"offset": 0,
								"slot": "5",
								"type": "t_uint256"
							},
							{
								"astId": 94,
								"contract": "contracts/TokenVesting.sol:TokenVesting",
								"label": "releasedTokens",
								"offset": 0,
								"slot": "6",
								"type": "t_uint256"
							}
						],
						"numberOfBytes": "224"
					},
					"t_uint256": {
						"encoding": "inplace",
						"label": "uint256",
						"numberOfBytes": "32"
					}
				}
			},
			"userdoc": {
				"kind": "user",
				"methods": {},
				"version": 1
			}
		}
	}
}