{
	"contracts/TokenVesting.sol": {
		"TokenVesting": {
			"abi": [
				{
					"inputs": [
						{
							"internalType": "contract IERC20",
							"name": "_token",
							"type": "address"
						},
						{
							"internalType": "uint256",
							"name": "_cliff",
							"type": "uint256"
						},
						{
							"internalType": "uint256",
							"name": "_duration",
							"type": "uint256"
						},
						{
							"internalType": "uint256",
							"name": "_slicePeriod",
							"type": "uint256"
						}
					],
					"stateMutability": "nonpayable",
					"type": "constructor"
				},
				{
					"inputs": [],
					"name": "cliff",
					"outputs": [
						{
							"internalType": "uint256",
							"name": "",
							"type": "uint256"
						}
					],
					"stateMutability": "view",
					"type": "function"
				},
				{
					"inputs": [],
					"name": "duration",
					"outputs": [
						{
							"internalType": "uint256",
							"name": "",
							"type": "uint256"
						}
					],
					"stateMutability": "view",
					"type": "function"
				},
				{
					"inputs": [
						{
							"internalType": "address",
							"name": "_beneficiary",
							"type": "address"
						},
						{
							"internalType": "uint256",
							"name": "tokensAmount",
							"type": "uint256"
						}
					],
					"name": "lockTokens",
					"outputs": [],
					"stateMutability": "nonpayable",
					"type": "function"
				},
				{
					"inputs": [
						{
							"internalType": "address",
							"name": "_beneficiary",
							"type": "address"
						}
					],
					"name": "releasableTokens",
					"outputs": [
						{
							"internalType": "uint256",
							"name": "",
							"type": "uint256"
						}
					],
					"stateMutability": "view",
					"type": "function"
				},
				{
					"inputs": [
						{
							"internalType": "address",
							"name": "_beneficiary",
							"type": "address"
						}
					],
					"name": "releaseTokens",
					"outputs": [],
					"stateMutability": "nonpayable",
					"type": "function"
				},
				{
					"inputs": [
						{
							"internalType": "address",
							"name": "",
							"type": "address"
						}
					],
					"name": "releasedTokens",
					"outputs": [
						{
							"internalType": "uint256",
							"name": "",
							"type": "uint256"
						}
					],
					"stateMutability": "view",
					"type": "function"
				},
				{
					"inputs": [],
					"name": "slicePeriod",
					"outputs": [
						{
							"internalType": "uint256",
							"name": "",
							"type": "uint256"
						}
					],
					"stateMutability": "view",
					"type": "function"
				},
				{
					"inputs": [],
					"name": "startTime",
					"outputs": [
						{
							"internalType": "uint256",
							"name": "",
							"type": "uint256"
						}
					],
					"stateMutability": "view",
					"type": "function"
				},
				{
					"inputs": [],
					"name": "token",
					"outputs": [
						{
							"internalType": "contract IERC20",
							"name": "",
							"type": "address"
						}
					],
					"stateMutability": "view",
					"type": "function"
				},
				{
					"inputs": [
						{
							"internalType": "address",
							"name": "",
							"type": "address"
						}
					],
					"name": "totalTokens",
					"outputs": [
						{
							"internalType": "uint256",
							"name": "",
							"type": "uint256"
						}
					],
					"stateMutability": "view",
					"type": "function"
				}
			],
			"devdoc": {
				"kind": "dev",
				"methods": {},
				"version": 1
			},
			"evm": {
				"assembly": "    /* \"contracts/TokenVesting.sol\":121:1857  contract TokenVesting{... */\n  mstore(0x40, 0x80)\n    /* \"contracts/TokenVesting.sol\":438:665  constructor(IERC20 _token,uint _cliff,uint _duration,uint _slicePeriod){... */\n  callvalue\n  dup1\n  iszero\n  tag_1\n  jumpi\n  0x00\n  dup1\n  revert\ntag_1:\n  pop\n  mload(0x40)\n  sub(codesize, bytecodeSize)\n  dup1\n  bytecodeSize\n  dup4\n  codecopy\n  dup2\n  dup2\n  add\n  0x40\n  mstore\n  dup2\n  add\n  swap1\n  tag_2\n  swap2\n  swap1\n  tag_3\n  jump\t// in\ntag_2:\n    /* \"contracts/TokenVesting.sol\":526:532  _token */\n  dup4\n    /* \"contracts/TokenVesting.sol\":520:525  token */\n  0x07\n  0x00\n    /* \"contracts/TokenVesting.sol\":520:532  token=_token */\n  0x0100\n  exp\n  dup2\n  sload\n  dup2\n  0xffffffffffffffffffffffffffffffffffffffff\n  mul\n  not\n  and\n  swap1\n  dup4\n  0xffffffffffffffffffffffffffffffffffffffff\n  and\n  mul\n  or\n  swap1\n  sstore\n  pop\n    /* \"contracts/TokenVesting.sol\":552:561  _duration */\n  dup2\n    /* \"contracts/TokenVesting.sol\":543:551  duration */\n  0x00\n    /* \"contracts/TokenVesting.sol\":543:561  duration=_duration */\n  dup2\n  swap1\n  sstore\n  pop\n    /* \"contracts/TokenVesting.sol\":578:584  _cliff */\n  dup3\n    /* \"contracts/TokenVesting.sol\":572:577  cliff */\n  0x01\n    /* \"contracts/TokenVesting.sol\":572:584  cliff=_cliff */\n  dup2\n  swap1\n  sstore\n  pop\n    /* \"contracts/TokenVesting.sol\":607:619  _slicePeriod */\n  dup1\n    /* \"contracts/TokenVesting.sol\":595:606  slicePeriod */\n  0x02\n    /* \"contracts/TokenVesting.sol\":595:619  slicePeriod=_slicePeriod */\n  dup2\n  swap1\n  sstore\n  pop\n    /* \"contracts/TokenVesting.sol\":640:655  block.timestamp */\n  timestamp\n    /* \"contracts/TokenVesting.sol\":630:639  startTime */\n  0x03\n    /* \"contracts/TokenVesting.sol\":630:655  startTime=block.timestamp */\n  dup2\n  swap1\n  sstore\n  pop\n    /* \"contracts/TokenVesting.sol\":438:665  constructor(IERC20 _token,uint _cliff,uint _duration,uint _slicePeriod){... */\n  pop\n  pop\n  pop\n  pop\n    /* \"contracts/TokenVesting.sol\":121:1857  contract TokenVesting{... */\n  jump(tag_6)\n    /* \"#utility.yul\":88:205   */\ntag_8:\n    /* \"#utility.yul\":197:198   */\n  0x00\n    /* \"#utility.yul\":194:195   */\n  dup1\n    /* \"#utility.yul\":187:199   */\n  revert\n    /* \"#utility.yul\":334:460   */\ntag_10:\n    /* \"#utility.yul\":371:378   */\n  0x00\n    /* \"#utility.yul\":411:453   */\n  0xffffffffffffffffffffffffffffffffffffffff\n    /* \"#utility.yul\":404:409   */\n  dup3\n    /* \"#utility.yul\":400:454   */\n  and\n    /* \"#utility.yul\":389:454   */\n  swap1\n  pop\n    /* \"#utility.yul\":334:460   */\n  swap2\n  swap1\n  pop\n  jump\t// out\n    /* \"#utility.yul\":466:562   */\ntag_11:\n    /* \"#utility.yul\":503:510   */\n  0x00\n    /* \"#utility.yul\":532:556   */\n  tag_24\n    /* \"#utility.yul\":550:555   */\n  dup3\n    /* \"#utility.yul\":532:556   */\n  tag_10\n  jump\t// in\ntag_24:\n    /* \"#utility.yul\":521:556   */\n  swap1\n  pop\n    /* \"#utility.yul\":466:562   */\n  swap2\n  swap1\n  pop\n  jump\t// out\n    /* \"#utility.yul\":568:677   */\ntag_12:\n    /* \"#utility.yul\":618:625   */\n  0x00\n    /* \"#utility.yul\":647:671   */\n  tag_26\n    /* \"#utility.yul\":665:670   */\n  dup3\n    /* \"#utility.yul\":647:671   */\n  tag_11\n  jump\t// in\ntag_26:\n    /* \"#utility.yul\":636:671   */\n  swap1\n  pop\n    /* \"#utility.yul\":568:677   */\n  swap2\n  swap1\n  pop\n  jump\t// out\n    /* \"#utility.yul\":683:831   */\ntag_13:\n    /* \"#utility.yul\":769:806   */\n  tag_28\n    /* \"#utility.yul\":800:805   */\n  dup2\n    /* \"#utility.yul\":769:806   */\n  tag_12\n  jump\t// in\ntag_28:\n    /* \"#utility.yul\":762:767   */\n  dup2\n    /* \"#utility.yul\":759:807   */\n  eq\n    /* \"#utility.yul\":749:825   */\n  tag_29\n  jumpi\n    /* \"#utility.yul\":821:822   */\n  0x00\n    /* \"#utility.yul\":818:819   */\n  dup1\n    /* \"#utility.yul\":811:823   */\n  revert\n    /* \"#utility.yul\":749:825   */\ntag_29:\n    /* \"#utility.yul\":683:831   */\n  pop\n  jump\t// out\n    /* \"#utility.yul\":837:1006   */\ntag_14:\n    /* \"#utility.yul\":907:912   */\n  0x00\n    /* \"#utility.yul\":938:944   */\n  dup2\n    /* \"#utility.yul\":932:945   */\n  mload\n    /* \"#utility.yul\":923:945   */\n  swap1\n  pop\n    /* \"#utility.yul\":954:1000   */\n  tag_31\n    /* \"#utility.yul\":994:999   */\n  dup2\n    /* \"#utility.yul\":954:1000   */\n  tag_13\n  jump\t// in\ntag_31:\n    /* \"#utility.yul\":837:1006   */\n  swap3\n  swap2\n  pop\n  pop\n  jump\t// out\n    /* \"#utility.yul\":1012:1089   */\ntag_15:\n    /* \"#utility.yul\":1049:1056   */\n  0x00\n    /* \"#utility.yul\":1078:1083   */\n  dup2\n    /* \"#utility.yul\":1067:1083   */\n  swap1\n  pop\n    /* \"#utility.yul\":1012:1089   */\n  swap2\n  swap1\n  pop\n  jump\t// out\n    /* \"#utility.yul\":1095:1217   */\ntag_16:\n    /* \"#utility.yul\":1168:1192   */\n  tag_34\n    /* \"#utility.yul\":1186:1191   */\n  dup2\n    /* \"#utility.yul\":1168:1192   */\n  tag_15\n  jump\t// in\ntag_34:\n    /* \"#utility.yul\":1161:1166   */\n  dup2\n    /* \"#utility.yul\":1158:1193   */\n  eq\n    /* \"#utility.yul\":1148:1211   */\n  tag_35\n  jumpi\n    /* \"#utility.yul\":1207:1208   */\n  0x00\n    /* \"#utility.yul\":1204:1205   */\n  dup1\n    /* \"#utility.yul\":1197:1209   */\n  revert\n    /* \"#utility.yul\":1148:1211   */\ntag_35:\n    /* \"#utility.yul\":1095:1217   */\n  pop\n  jump\t// out\n    /* \"#utility.yul\":1223:1366   */\ntag_17:\n    /* \"#utility.yul\":1280:1285   */\n  0x00\n    /* \"#utility.yul\":1311:1317   */\n  dup2\n    /* \"#utility.yul\":1305:1318   */\n  mload\n    /* \"#utility.yul\":1296:1318   */\n  swap1\n  pop\n    /* \"#utility.yul\":1327:1360   */\n  tag_37\n    /* \"#utility.yul\":1354:1359   */\n  dup2\n    /* \"#utility.yul\":1327:1360   */\n  tag_16\n  jump\t// in\ntag_37:\n    /* \"#utility.yul\":1223:1366   */\n  swap3\n  swap2\n  pop\n  pop\n  jump\t// out\n    /* \"#utility.yul\":1372:2218   */\ntag_3:\n    /* \"#utility.yul\":1482:1488   */\n  0x00\n    /* \"#utility.yul\":1490:1496   */\n  dup1\n    /* \"#utility.yul\":1498:1504   */\n  0x00\n    /* \"#utility.yul\":1506:1512   */\n  dup1\n    /* \"#utility.yul\":1555:1558   */\n  0x80\n    /* \"#utility.yul\":1543:1552   */\n  dup6\n    /* \"#utility.yul\":1534:1541   */\n  dup8\n    /* \"#utility.yul\":1530:1553   */\n  sub\n    /* \"#utility.yul\":1526:1559   */\n  slt\n    /* \"#utility.yul\":1523:1643   */\n  iszero\n  tag_39\n  jumpi\n    /* \"#utility.yul\":1562:1641   */\n  tag_40\n  tag_8\n  jump\t// in\ntag_40:\n    /* \"#utility.yul\":1523:1643   */\ntag_39:\n    /* \"#utility.yul\":1682:1683   */\n  0x00\n    /* \"#utility.yul\":1707:1784   */\n  tag_41\n    /* \"#utility.yul\":1776:1783   */\n  dup8\n    /* \"#utility.yul\":1767:1773   */\n  dup3\n    /* \"#utility.yul\":1756:1765   */\n  dup9\n    /* \"#utility.yul\":1752:1774   */\n  add\n    /* \"#utility.yul\":1707:1784   */\n  tag_14\n  jump\t// in\ntag_41:\n    /* \"#utility.yul\":1697:1784   */\n  swap5\n  pop\n    /* \"#utility.yul\":1653:1794   */\n  pop\n    /* \"#utility.yul\":1833:1835   */\n  0x20\n    /* \"#utility.yul\":1859:1923   */\n  tag_42\n    /* \"#utility.yul\":1915:1922   */\n  dup8\n    /* \"#utility.yul\":1906:1912   */\n  dup3\n    /* \"#utility.yul\":1895:1904   */\n  dup9\n    /* \"#utility.yul\":1891:1913   */\n  add\n    /* \"#utility.yul\":1859:1923   */\n  tag_17\n  jump\t// in\ntag_42:\n    /* \"#utility.yul\":1849:1923   */\n  swap4\n  pop\n    /* \"#utility.yul\":1804:1933   */\n  pop\n    /* \"#utility.yul\":1972:1974   */\n  0x40\n    /* \"#utility.yul\":1998:2062   */\n  tag_43\n    /* \"#utility.yul\":2054:2061   */\n  dup8\n    /* \"#utility.yul\":2045:2051   */\n  dup3\n    /* \"#utility.yul\":2034:2043   */\n  dup9\n    /* \"#utility.yul\":2030:2052   */\n  add\n    /* \"#utility.yul\":1998:2062   */\n  tag_17\n  jump\t// in\ntag_43:\n    /* \"#utility.yul\":1988:2062   */\n  swap3\n  pop\n    /* \"#utility.yul\":1943:2072   */\n  pop\n    /* \"#utility.yul\":2111:2113   */\n  0x60\n    /* \"#utility.yul\":2137:2201   */\n  tag_44\n    /* \"#utility.yul\":2193:2200   */\n  dup8\n    /* \"#utility.yul\":2184:2190   */\n  dup3\n    /* \"#utility.yul\":2173:2182   */\n  dup9\n    /* \"#utility.yul\":2169:2191   */\n  add\n    /* \"#utility.yul\":2137:2201   */\n  tag_17\n  jump\t// in\ntag_44:\n    /* \"#utility.yul\":2127:2201   */\n  swap2\n  pop\n    /* \"#utility.yul\":2082:2211   */\n  pop\n    /* \"#utility.yul\":1372:2218   */\n  swap3\n  swap6\n  swap2\n  swap5\n  pop\n  swap3\n  pop\n  jump\t// out\n    /* \"contracts/TokenVesting.sol\":121:1857  contract TokenVesting{... */\ntag_6:\n  dataSize(sub_0)\n  dup1\n  dataOffset(sub_0)\n  0x00\n  codecopy\n  0x00\n  return\nstop\n\nsub_0: assembly {\n        /* \"contracts/TokenVesting.sol\":121:1857  contract TokenVesting{... */\n      mstore(0x40, 0x80)\n      callvalue\n      dup1\n      iszero\n      tag_1\n      jumpi\n      0x00\n      dup1\n      revert\n    tag_1:\n      pop\n      jumpi(tag_2, lt(calldatasize, 0x04))\n      shr(0xe0, calldataload(0x00))\n      dup1\n      0x87b0be48\n      gt\n      tag_13\n      jumpi\n      dup1\n      0x87b0be48\n      eq\n      tag_8\n      jumpi\n      dup1\n      0xb1c25586\n      eq\n      tag_9\n      jumpi\n      dup1\n      0xc4684e9d\n      eq\n      tag_10\n      jumpi\n      dup1\n      0xcb9199a2\n      eq\n      tag_11\n      jumpi\n      dup1\n      0xfc0c546a\n      eq\n      tag_12\n      jumpi\n      jump(tag_2)\n    tag_13:\n      dup1\n      0x0fb5a6b4\n      eq\n      tag_3\n      jumpi\n      dup1\n      0x13d033c0\n      eq\n      tag_4\n      jumpi\n      dup1\n      0x5afd6eb8\n      eq\n      tag_5\n      jumpi\n      dup1\n      0x70ff852b\n      eq\n      tag_6\n      jumpi\n      dup1\n      0x78e97925\n      eq\n      tag_7\n      jumpi\n    tag_2:\n      0x00\n      dup1\n      revert\n        /* \"contracts/TokenVesting.sol\":149:169  uint public duration */\n    tag_3:\n      tag_14\n      tag_15\n      jump\t// in\n    tag_14:\n      mload(0x40)\n      tag_16\n      swap2\n      swap1\n      tag_17\n      jump\t// in\n    tag_16:\n      mload(0x40)\n      dup1\n      swap2\n      sub\n      swap1\n      return\n        /* \"contracts/TokenVesting.sol\":176:193  uint public cliff */\n    tag_4:\n      tag_18\n      tag_19\n      jump\t// in\n    tag_18:\n      mload(0x40)\n      tag_20\n      swap2\n      swap1\n      tag_17\n      jump\t// in\n    tag_20:\n      mload(0x40)\n      dup1\n      swap2\n      sub\n      swap1\n      return\n        /* \"contracts/TokenVesting.sol\":200:223  uint public slicePeriod */\n    tag_5:\n      tag_21\n      tag_22\n      jump\t// in\n    tag_21:\n      mload(0x40)\n      tag_23\n      swap2\n      swap1\n      tag_17\n      jump\t// in\n    tag_23:\n      mload(0x40)\n      dup1\n      swap2\n      sub\n      swap1\n      return\n        /* \"contracts/TokenVesting.sol\":354:403  mapping(address => uint256) public releasedTokens */\n    tag_6:\n      tag_24\n      0x04\n      dup1\n      calldatasize\n      sub\n      dup2\n      add\n      swap1\n      tag_25\n      swap2\n      swap1\n      tag_26\n      jump\t// in\n    tag_25:\n      tag_27\n      jump\t// in\n    tag_24:\n      mload(0x40)\n      tag_28\n      swap2\n      swap1\n      tag_17\n      jump\t// in\n    tag_28:\n      mload(0x40)\n      dup1\n      swap2\n      sub\n      swap1\n      return\n        /* \"contracts/TokenVesting.sol\":230:251  uint public startTime */\n    tag_7:\n      tag_29\n      tag_30\n      jump\t// in\n    tag_29:\n      mload(0x40)\n      tag_31\n      swap2\n      swap1\n      tag_17\n      jump\t// in\n    tag_31:\n      mload(0x40)\n      dup1\n      swap2\n      sub\n      swap1\n      return\n        /* \"contracts/TokenVesting.sol\":1628:1852  function releaseTokens(address _beneficiary) public { ... */\n    tag_8:\n      tag_32\n      0x04\n      dup1\n      calldatasize\n      sub\n      dup2\n      add\n      swap1\n      tag_33\n      swap2\n      swap1\n      tag_26\n      jump\t// in\n    tag_33:\n      tag_34\n      jump\t// in\n    tag_32:\n      stop\n        /* \"contracts/TokenVesting.sol\":671:913  function lockTokens(address _beneficiary,uint tokensAmount)public {... */\n    tag_9:\n      tag_35\n      0x04\n      dup1\n      calldatasize\n      sub\n      dup2\n      add\n      swap1\n      tag_36\n      swap2\n      swap1\n      tag_37\n      jump\t// in\n    tag_36:\n      tag_38\n      jump\t// in\n    tag_35:\n      stop\n        /* \"contracts/TokenVesting.sol\":919:1622  function releasableTokens(address _beneficiary) public view returns(uint){... */\n    tag_10:\n      tag_39\n      0x04\n      dup1\n      calldatasize\n      sub\n      dup2\n      add\n      swap1\n      tag_40\n      swap2\n      swap1\n      tag_26\n      jump\t// in\n    tag_40:\n      tag_41\n      jump\t// in\n    tag_39:\n      mload(0x40)\n      tag_42\n      swap2\n      swap1\n      tag_17\n      jump\t// in\n    tag_42:\n      mload(0x40)\n      dup1\n      swap2\n      sub\n      swap1\n      return\n        /* \"contracts/TokenVesting.sol\":301:347  mapping(address => uint256) public totalTokens */\n    tag_11:\n      tag_43\n      0x04\n      dup1\n      calldatasize\n      sub\n      dup2\n      add\n      swap1\n      tag_44\n      swap2\n      swap1\n      tag_26\n      jump\t// in\n    tag_44:\n      tag_45\n      jump\t// in\n    tag_43:\n      mload(0x40)\n      tag_46\n      swap2\n      swap1\n      tag_17\n      jump\t// in\n    tag_46:\n      mload(0x40)\n      dup1\n      swap2\n      sub\n      swap1\n      return\n        /* \"contracts/TokenVesting.sol\":410:429  IERC20 public token */\n    tag_12:\n      tag_47\n      tag_48\n      jump\t// in\n    tag_47:\n      mload(0x40)\n      tag_49\n      swap2\n      swap1\n      tag_50\n      jump\t// in\n    tag_49:\n      mload(0x40)\n      dup1\n      swap2\n      sub\n      swap1\n      return\n        /* \"contracts/TokenVesting.sol\":149:169  uint public duration */\n    tag_15:\n      sload(0x00)\n      dup2\n      jump\t// out\n        /* \"contracts/TokenVesting.sol\":176:193  uint public cliff */\n    tag_19:\n      sload(0x01)\n      dup2\n      jump\t// out\n        /* \"contracts/TokenVesting.sol\":200:223  uint public slicePeriod */\n    tag_22:\n      sload(0x02)\n      dup2\n      jump\t// out\n        /* \"contracts/TokenVesting.sol\":354:403  mapping(address => uint256) public releasedTokens */\n    tag_27:\n      mstore(0x20, 0x06)\n      dup1\n      0x00\n      mstore\n      keccak256(0x00, 0x40)\n      0x00\n      swap2\n      pop\n      swap1\n      pop\n      sload\n      dup2\n      jump\t// out\n        /* \"contracts/TokenVesting.sol\":230:251  uint public startTime */\n    tag_30:\n      sload(0x03)\n      dup2\n      jump\t// out\n        /* \"contracts/TokenVesting.sol\":1628:1852  function releaseTokens(address _beneficiary) public { ... */\n    tag_34:\n        /* \"contracts/TokenVesting.sol\":1691:1709  uint tokensClaimed */\n      0x00\n        /* \"contracts/TokenVesting.sol\":1710:1740  releasableTokens(_beneficiary) */\n      tag_52\n        /* \"contracts/TokenVesting.sol\":1727:1739  _beneficiary */\n      dup3\n        /* \"contracts/TokenVesting.sol\":1710:1726  releasableTokens */\n      tag_41\n        /* \"contracts/TokenVesting.sol\":1710:1740  releasableTokens(_beneficiary) */\n      jump\t// in\n    tag_52:\n        /* \"contracts/TokenVesting.sol\":1691:1740  uint tokensClaimed=releasableTokens(_beneficiary) */\n      swap1\n      pop\n        /* \"contracts/TokenVesting.sol\":1750:1755  token */\n      0x07\n      0x00\n      swap1\n      sload\n      swap1\n      0x0100\n      exp\n      swap1\n      div\n      0xffffffffffffffffffffffffffffffffffffffff\n      and\n        /* \"contracts/TokenVesting.sol\":1750:1764  token.transfer */\n      0xffffffffffffffffffffffffffffffffffffffff\n      and\n      0xa9059cbb\n        /* \"contracts/TokenVesting.sol\":1765:1777  _beneficiary */\n      dup4\n        /* \"contracts/TokenVesting.sol\":1778:1791  tokensClaimed */\n      dup4\n        /* \"contracts/TokenVesting.sol\":1750:1792  token.transfer(_beneficiary,tokensClaimed) */\n      mload(0x40)\n      dup4\n      0xffffffff\n      and\n      0xe0\n      shl\n      dup2\n      mstore\n      0x04\n      add\n      tag_53\n      swap3\n      swap2\n      swap1\n      tag_54\n      jump\t// in\n    tag_53:\n      0x20\n      mload(0x40)\n      dup1\n      dup4\n      sub\n      dup2\n      0x00\n      dup8\n      gas\n      call\n      iszero\n      dup1\n      iszero\n      tag_56\n      jumpi\n      returndatasize\n      0x00\n      dup1\n      returndatacopy\n      revert(0x00, returndatasize)\n    tag_56:\n      pop\n      pop\n      pop\n      pop\n      mload(0x40)\n      returndatasize\n      not(0x1f)\n      0x1f\n      dup3\n      add\n      and\n      dup3\n      add\n      dup1\n      0x40\n      mstore\n      pop\n      dup2\n      add\n      swap1\n      tag_57\n      swap2\n      swap1\n      tag_58\n      jump\t// in\n    tag_57:\n      pop\n        /* \"contracts/TokenVesting.sol\":1831:1844  tokensClaimed */\n      dup1\n        /* \"contracts/TokenVesting.sol\":1802:1816  releasedTokens */\n      0x06\n        /* \"contracts/TokenVesting.sol\":1802:1830  releasedTokens[_beneficiary] */\n      0x00\n        /* \"contracts/TokenVesting.sol\":1817:1829  _beneficiary */\n      dup5\n        /* \"contracts/TokenVesting.sol\":1802:1830  releasedTokens[_beneficiary] */\n      0xffffffffffffffffffffffffffffffffffffffff\n      and\n      0xffffffffffffffffffffffffffffffffffffffff\n      and\n      dup2\n      mstore\n      0x20\n      add\n      swap1\n      dup2\n      mstore\n      0x20\n      add\n      0x00\n      keccak256\n        /* \"contracts/TokenVesting.sol\":1802:1844  releasedTokens[_beneficiary]=tokensClaimed */\n      dup2\n      swap1\n      sstore\n      pop\n        /* \"contracts/TokenVesting.sol\":1680:1852  { ... */\n      pop\n        /* \"contracts/TokenVesting.sol\":1628:1852  function releaseTokens(address _beneficiary) public { ... */\n      pop\n      jump\t// out\n        /* \"contracts/TokenVesting.sol\":671:913  function lockTokens(address _beneficiary,uint tokensAmount)public {... */\n    tag_38:\n        /* \"contracts/TokenVesting.sol\":776:788  tokensAmount */\n      dup1\n        /* \"contracts/TokenVesting.sol\":748:761  beneficiaries */\n      0x04\n        /* \"contracts/TokenVesting.sol\":748:775  beneficiaries[_beneficiary] */\n      0x00\n        /* \"contracts/TokenVesting.sol\":762:774  _beneficiary */\n      dup5\n        /* \"contracts/TokenVesting.sol\":748:775  beneficiaries[_beneficiary] */\n      0xffffffffffffffffffffffffffffffffffffffff\n      and\n      0xffffffffffffffffffffffffffffffffffffffff\n      and\n      dup2\n      mstore\n      0x20\n      add\n      swap1\n      dup2\n      mstore\n      0x20\n      add\n      0x00\n      keccak256\n        /* \"contracts/TokenVesting.sol\":748:788  beneficiaries[_beneficiary]=tokensAmount */\n      dup2\n      swap1\n      sstore\n      pop\n        /* \"contracts/TokenVesting.sol\":799:804  token */\n      0x07\n      0x00\n      swap1\n      sload\n      swap1\n      0x0100\n      exp\n      swap1\n      div\n      0xffffffffffffffffffffffffffffffffffffffff\n      and\n        /* \"contracts/TokenVesting.sol\":799:813  token.transfer */\n      0xffffffffffffffffffffffffffffffffffffffff\n      and\n      0xa9059cbb\n        /* \"contracts/TokenVesting.sol\":822:826  this */\n      address\n        /* \"contracts/TokenVesting.sol\":828:840  tokensAmount */\n      dup4\n        /* \"contracts/TokenVesting.sol\":799:841  token.transfer(address(this),tokensAmount) */\n      mload(0x40)\n      dup4\n      0xffffffff\n      and\n      0xe0\n      shl\n      dup2\n      mstore\n      0x04\n      add\n      tag_60\n      swap3\n      swap2\n      swap1\n      tag_54\n      jump\t// in\n    tag_60:\n      0x20\n      mload(0x40)\n      dup1\n      dup4\n      sub\n      dup2\n      0x00\n      dup8\n      gas\n      call\n      iszero\n      dup1\n      iszero\n      tag_62\n      jumpi\n      returndatasize\n      0x00\n      dup1\n      returndatacopy\n      revert(0x00, returndatasize)\n    tag_62:\n      pop\n      pop\n      pop\n      pop\n      mload(0x40)\n      returndatasize\n      not(0x1f)\n      0x1f\n      dup3\n      add\n      and\n      dup3\n      add\n      dup1\n      0x40\n      mstore\n      pop\n      dup2\n      add\n      swap1\n      tag_63\n      swap2\n      swap1\n      tag_58\n      jump\t// in\n    tag_63:\n      pop\n        /* \"contracts/TokenVesting.sol\":878:891  beneficiaries */\n      0x04\n        /* \"contracts/TokenVesting.sol\":878:905  beneficiaries[_beneficiary] */\n      0x00\n        /* \"contracts/TokenVesting.sol\":892:904  _beneficiary */\n      dup4\n        /* \"contracts/TokenVesting.sol\":878:905  beneficiaries[_beneficiary] */\n      0xffffffffffffffffffffffffffffffffffffffff\n      and\n      0xffffffffffffffffffffffffffffffffffffffff\n      and\n      dup2\n      mstore\n      0x20\n      add\n      swap1\n      dup2\n      mstore\n      0x20\n      add\n      0x00\n      keccak256\n      sload\n        /* \"contracts/TokenVesting.sol\":852:863  totalTokens */\n      0x05\n        /* \"contracts/TokenVesting.sol\":852:877  totalTokens[_beneficiary] */\n      0x00\n        /* \"contracts/TokenVesting.sol\":864:876  _beneficiary */\n      dup5\n        /* \"contracts/TokenVesting.sol\":852:877  totalTokens[_beneficiary] */\n      0xffffffffffffffffffffffffffffffffffffffff\n      and\n      0xffffffffffffffffffffffffffffffffffffffff\n      and\n      dup2\n      mstore\n      0x20\n      add\n      swap1\n      dup2\n      mstore\n      0x20\n      add\n      0x00\n      keccak256\n        /* \"contracts/TokenVesting.sol\":852:905  totalTokens[_beneficiary]=beneficiaries[_beneficiary] */\n      dup2\n      swap1\n      sstore\n      pop\n        /* \"contracts/TokenVesting.sol\":671:913  function lockTokens(address _beneficiary,uint tokensAmount)public {... */\n      pop\n      pop\n      jump\t// out\n        /* \"contracts/TokenVesting.sol\":919:1622  function releasableTokens(address _beneficiary) public view returns(uint){... */\n    tag_41:\n        /* \"contracts/TokenVesting.sol\":987:991  uint */\n      0x00\n        /* \"contracts/TokenVesting.sol\":1028:1033  cliff */\n      sload(0x01)\n        /* \"contracts/TokenVesting.sol\":1012:1027  block.timestamp */\n      timestamp\n        /* \"contracts/TokenVesting.sol\":1012:1033  block.timestamp<cliff */\n      lt\n        /* \"contracts/TokenVesting.sol\":1009:1615  if(block.timestamp<cliff){... */\n      iszero\n      tag_65\n      jumpi\n        /* \"contracts/TokenVesting.sol\":1052:1053  0 */\n      0x00\n        /* \"contracts/TokenVesting.sol\":1045:1053  return 0 */\n      swap1\n      pop\n      jump(tag_64)\n        /* \"contracts/TokenVesting.sol\":1009:1615  if(block.timestamp<cliff){... */\n    tag_65:\n        /* \"contracts/TokenVesting.sol\":1083:1102  uint timeSinceStart */\n      0x00\n        /* \"contracts/TokenVesting.sol\":1123:1132  startTime */\n      sload(0x03)\n        /* \"contracts/TokenVesting.sol\":1105:1120  block.timestamp */\n      timestamp\n        /* \"contracts/TokenVesting.sol\":1105:1132  block.timestamp - startTime */\n      tag_67\n      swap2\n      swap1\n      tag_68\n      jump\t// in\n    tag_67:\n        /* \"contracts/TokenVesting.sol\":1083:1132  uint timeSinceStart = block.timestamp - startTime */\n      swap1\n      pop\n        /* \"contracts/TokenVesting.sol\":1143:1169  uint noOfPeriodsSinceStart */\n      0x00\n        /* \"contracts/TokenVesting.sol\":1189:1200  slicePeriod */\n      sload(0x02)\n        /* \"contracts/TokenVesting.sol\":1172:1186  timeSinceStart */\n      dup3\n        /* \"contracts/TokenVesting.sol\":1172:1200  timeSinceStart / slicePeriod */\n      tag_69\n      swap2\n      swap1\n      tag_70\n      jump\t// in\n    tag_69:\n        /* \"contracts/TokenVesting.sol\":1143:1200  uint noOfPeriodsSinceStart = timeSinceStart / slicePeriod */\n      swap1\n      pop\n        /* \"contracts/TokenVesting.sol\":1211:1228  uint totalPeriods */\n      0x00\n        /* \"contracts/TokenVesting.sol\":1242:1253  slicePeriod */\n      sload(0x02)\n        /* \"contracts/TokenVesting.sol\":1231:1239  duration */\n      sload(0x00)\n        /* \"contracts/TokenVesting.sol\":1231:1253  duration / slicePeriod */\n      tag_71\n      swap2\n      swap1\n      tag_70\n      jump\t// in\n    tag_71:\n        /* \"contracts/TokenVesting.sol\":1211:1253  uint totalPeriods = duration / slicePeriod */\n      swap1\n      pop\n        /* \"contracts/TokenVesting.sol\":1293:1305  totalPeriods */\n      dup1\n        /* \"contracts/TokenVesting.sol\":1268:1289  noOfPeriodsSinceStart */\n      dup3\n        /* \"contracts/TokenVesting.sol\":1268:1305  noOfPeriodsSinceStart >= totalPeriods */\n      lt\n        /* \"contracts/TokenVesting.sol\":1264:1608  if (noOfPeriodsSinceStart >= totalPeriods) {... */\n      tag_72\n      jumpi\n        /* \"contracts/TokenVesting.sol\":1329:1342  beneficiaries */\n      0x04\n        /* \"contracts/TokenVesting.sol\":1329:1356  beneficiaries[_beneficiary] */\n      0x00\n        /* \"contracts/TokenVesting.sol\":1343:1355  _beneficiary */\n      dup7\n        /* \"contracts/TokenVesting.sol\":1329:1356  beneficiaries[_beneficiary] */\n      0xffffffffffffffffffffffffffffffffffffffff\n      and\n      0xffffffffffffffffffffffffffffffffffffffff\n      and\n      dup2\n      mstore\n      0x20\n      add\n      swap1\n      dup2\n      mstore\n      0x20\n      add\n      0x00\n      keccak256\n      sload\n        /* \"contracts/TokenVesting.sol\":1322:1356  return beneficiaries[_beneficiary] */\n      swap4\n      pop\n      pop\n      pop\n      pop\n      jump(tag_64)\n        /* \"contracts/TokenVesting.sol\":1264:1608  if (noOfPeriodsSinceStart >= totalPeriods) {... */\n    tag_72:\n        /* \"contracts/TokenVesting.sol\":1399:1427  uint tokensVestedInOnePeriod */\n      0x00\n        /* \"contracts/TokenVesting.sol\":1460:1472  totalPeriods */\n      dup2\n        /* \"contracts/TokenVesting.sol\":1430:1443  beneficiaries */\n      0x04\n        /* \"contracts/TokenVesting.sol\":1430:1457  beneficiaries[_beneficiary] */\n      0x00\n        /* \"contracts/TokenVesting.sol\":1444:1456  _beneficiary */\n      dup9\n        /* \"contracts/TokenVesting.sol\":1430:1457  beneficiaries[_beneficiary] */\n      0xffffffffffffffffffffffffffffffffffffffff\n      and\n      0xffffffffffffffffffffffffffffffffffffffff\n      and\n      dup2\n      mstore\n      0x20\n      add\n      swap1\n      dup2\n      mstore\n      0x20\n      add\n      0x00\n      keccak256\n      sload\n        /* \"contracts/TokenVesting.sol\":1430:1472  beneficiaries[_beneficiary] / totalPeriods */\n      tag_74\n      swap2\n      swap1\n      tag_70\n      jump\t// in\n    tag_74:\n        /* \"contracts/TokenVesting.sol\":1399:1472  uint tokensVestedInOnePeriod = beneficiaries[_beneficiary] / totalPeriods */\n      swap1\n      pop\n        /* \"contracts/TokenVesting.sol\":1487:1508  uint tokensToBeVested */\n      0x00\n        /* \"contracts/TokenVesting.sol\":1537:1558  noOfPeriodsSinceStart */\n      dup4\n        /* \"contracts/TokenVesting.sol\":1511:1534  tokensVestedInOnePeriod */\n      dup3\n        /* \"contracts/TokenVesting.sol\":1511:1558  tokensVestedInOnePeriod * noOfPeriodsSinceStart */\n      tag_75\n      swap2\n      swap1\n      tag_76\n      jump\t// in\n    tag_75:\n        /* \"contracts/TokenVesting.sol\":1487:1558  uint tokensToBeVested = tokensVestedInOnePeriod * noOfPeriodsSinceStart */\n      swap1\n      pop\n        /* \"contracts/TokenVesting.sol\":1580:1596  tokensToBeVested */\n      dup1\n        /* \"contracts/TokenVesting.sol\":1573:1596  return tokensToBeVested */\n      swap6\n      pop\n      pop\n      pop\n      pop\n      pop\n      pop\n        /* \"contracts/TokenVesting.sol\":919:1622  function releasableTokens(address _beneficiary) public view returns(uint){... */\n    tag_64:\n      swap2\n      swap1\n      pop\n      jump\t// out\n        /* \"contracts/TokenVesting.sol\":301:347  mapping(address => uint256) public totalTokens */\n    tag_45:\n      mstore(0x20, 0x05)\n      dup1\n      0x00\n      mstore\n      keccak256(0x00, 0x40)\n      0x00\n      swap2\n      pop\n      swap1\n      pop\n      sload\n      dup2\n      jump\t// out\n        /* \"contracts/TokenVesting.sol\":410:429  IERC20 public token */\n    tag_48:\n      0x07\n      0x00\n      swap1\n      sload\n      swap1\n      0x0100\n      exp\n      swap1\n      div\n      0xffffffffffffffffffffffffffffffffffffffff\n      and\n      dup2\n      jump\t// out\n        /* \"#utility.yul\":7:84   */\n    tag_77:\n        /* \"#utility.yul\":44:51   */\n      0x00\n        /* \"#utility.yul\":73:78   */\n      dup2\n        /* \"#utility.yul\":62:78   */\n      swap1\n      pop\n        /* \"#utility.yul\":7:84   */\n      swap2\n      swap1\n      pop\n      jump\t// out\n        /* \"#utility.yul\":90:208   */\n    tag_78:\n        /* \"#utility.yul\":177:201   */\n      tag_102\n        /* \"#utility.yul\":195:200   */\n      dup2\n        /* \"#utility.yul\":177:201   */\n      tag_77\n      jump\t// in\n    tag_102:\n        /* \"#utility.yul\":172:175   */\n      dup3\n        /* \"#utility.yul\":165:202   */\n      mstore\n        /* \"#utility.yul\":90:208   */\n      pop\n      pop\n      jump\t// out\n        /* \"#utility.yul\":214:436   */\n    tag_17:\n        /* \"#utility.yul\":307:311   */\n      0x00\n        /* \"#utility.yul\":345:347   */\n      0x20\n        /* \"#utility.yul\":334:343   */\n      dup3\n        /* \"#utility.yul\":330:348   */\n      add\n        /* \"#utility.yul\":322:348   */\n      swap1\n      pop\n        /* \"#utility.yul\":358:429   */\n      tag_104\n        /* \"#utility.yul\":426:427   */\n      0x00\n        /* \"#utility.yul\":415:424   */\n      dup4\n        /* \"#utility.yul\":411:428   */\n      add\n        /* \"#utility.yul\":402:408   */\n      dup5\n        /* \"#utility.yul\":358:429   */\n      tag_78\n      jump\t// in\n    tag_104:\n        /* \"#utility.yul\":214:436   */\n      swap3\n      swap2\n      pop\n      pop\n      jump\t// out\n        /* \"#utility.yul\":523:640   */\n    tag_80:\n        /* \"#utility.yul\":632:633   */\n      0x00\n        /* \"#utility.yul\":629:630   */\n      dup1\n        /* \"#utility.yul\":622:634   */\n      revert\n        /* \"#utility.yul\":769:895   */\n    tag_82:\n        /* \"#utility.yul\":806:813   */\n      0x00\n        /* \"#utility.yul\":846:888   */\n      0xffffffffffffffffffffffffffffffffffffffff\n        /* \"#utility.yul\":839:844   */\n      dup3\n        /* \"#utility.yul\":835:889   */\n      and\n        /* \"#utility.yul\":824:889   */\n      swap1\n      pop\n        /* \"#utility.yul\":769:895   */\n      swap2\n      swap1\n      pop\n      jump\t// out\n        /* \"#utility.yul\":901:997   */\n    tag_83:\n        /* \"#utility.yul\":938:945   */\n      0x00\n        /* \"#utility.yul\":967:991   */\n      tag_110\n        /* \"#utility.yul\":985:990   */\n      dup3\n        /* \"#utility.yul\":967:991   */\n      tag_82\n      jump\t// in\n    tag_110:\n        /* \"#utility.yul\":956:991   */\n      swap1\n      pop\n        /* \"#utility.yul\":901:997   */\n      swap2\n      swap1\n      pop\n      jump\t// out\n        /* \"#utility.yul\":1003:1125   */\n    tag_84:\n        /* \"#utility.yul\":1076:1100   */\n      tag_112\n        /* \"#utility.yul\":1094:1099   */\n      dup2\n        /* \"#utility.yul\":1076:1100   */\n      tag_83\n      jump\t// in\n    tag_112:\n        /* \"#utility.yul\":1069:1074   */\n      dup2\n        /* \"#utility.yul\":1066:1101   */\n      eq\n        /* \"#utility.yul\":1056:1119   */\n      tag_113\n      jumpi\n        /* \"#utility.yul\":1115:1116   */\n      0x00\n        /* \"#utility.yul\":1112:1113   */\n      dup1\n        /* \"#utility.yul\":1105:1117   */\n      revert\n        /* \"#utility.yul\":1056:1119   */\n    tag_113:\n        /* \"#utility.yul\":1003:1125   */\n      pop\n      jump\t// out\n        /* \"#utility.yul\":1131:1270   */\n    tag_85:\n        /* \"#utility.yul\":1177:1182   */\n      0x00\n        /* \"#utility.yul\":1215:1221   */\n      dup2\n        /* \"#utility.yul\":1202:1222   */\n      calldataload\n        /* \"#utility.yul\":1193:1222   */\n      swap1\n      pop\n        /* \"#utility.yul\":1231:1264   */\n      tag_115\n        /* \"#utility.yul\":1258:1263   */\n      dup2\n        /* \"#utility.yul\":1231:1264   */\n      tag_84\n      jump\t// in\n    tag_115:\n        /* \"#utility.yul\":1131:1270   */\n      swap3\n      swap2\n      pop\n      pop\n      jump\t// out\n        /* \"#utility.yul\":1276:1605   */\n    tag_26:\n        /* \"#utility.yul\":1335:1341   */\n      0x00\n        /* \"#utility.yul\":1384:1386   */\n      0x20\n        /* \"#utility.yul\":1372:1381   */\n      dup3\n        /* \"#utility.yul\":1363:1370   */\n      dup5\n        /* \"#utility.yul\":1359:1382   */\n      sub\n        /* \"#utility.yul\":1355:1387   */\n      slt\n        /* \"#utility.yul\":1352:1471   */\n      iszero\n      tag_117\n      jumpi\n        /* \"#utility.yul\":1390:1469   */\n      tag_118\n      tag_80\n      jump\t// in\n    tag_118:\n        /* \"#utility.yul\":1352:1471   */\n    tag_117:\n        /* \"#utility.yul\":1510:1511   */\n      0x00\n        /* \"#utility.yul\":1535:1588   */\n      tag_119\n        /* \"#utility.yul\":1580:1587   */\n      dup5\n        /* \"#utility.yul\":1571:1577   */\n      dup3\n        /* \"#utility.yul\":1560:1569   */\n      dup6\n        /* \"#utility.yul\":1556:1578   */\n      add\n        /* \"#utility.yul\":1535:1588   */\n      tag_85\n      jump\t// in\n    tag_119:\n        /* \"#utility.yul\":1525:1588   */\n      swap2\n      pop\n        /* \"#utility.yul\":1481:1598   */\n      pop\n        /* \"#utility.yul\":1276:1605   */\n      swap3\n      swap2\n      pop\n      pop\n      jump\t// out\n        /* \"#utility.yul\":1611:1733   */\n    tag_86:\n        /* \"#utility.yul\":1684:1708   */\n      tag_121\n        /* \"#utility.yul\":1702:1707   */\n      dup2\n        /* \"#utility.yul\":1684:1708   */\n      tag_77\n      jump\t// in\n    tag_121:\n        /* \"#utility.yul\":1677:1682   */\n      dup2\n        /* \"#utility.yul\":1674:1709   */\n      eq\n        /* \"#utility.yul\":1664:1727   */\n      tag_122\n      jumpi\n        /* \"#utility.yul\":1723:1724   */\n      0x00\n        /* \"#utility.yul\":1720:1721   */\n      dup1\n        /* \"#utility.yul\":1713:1725   */\n      revert\n        /* \"#utility.yul\":1664:1727   */\n    tag_122:\n        /* \"#utility.yul\":1611:1733   */\n      pop\n      jump\t// out\n        /* \"#utility.yul\":1739:1878   */\n    tag_87:\n        /* \"#utility.yul\":1785:1790   */\n      0x00\n        /* \"#utility.yul\":1823:1829   */\n      dup2\n        /* \"#utility.yul\":1810:1830   */\n      calldataload\n        /* \"#utility.yul\":1801:1830   */\n      swap1\n      pop\n        /* \"#utility.yul\":1839:1872   */\n      tag_124\n        /* \"#utility.yul\":1866:1871   */\n      dup2\n        /* \"#utility.yul\":1839:1872   */\n      tag_86\n      jump\t// in\n    tag_124:\n        /* \"#utility.yul\":1739:1878   */\n      swap3\n      swap2\n      pop\n      pop\n      jump\t// out\n        /* \"#utility.yul\":1884:2358   */\n    tag_37:\n        /* \"#utility.yul\":1952:1958   */\n      0x00\n        /* \"#utility.yul\":1960:1966   */\n      dup1\n        /* \"#utility.yul\":2009:2011   */\n      0x40\n        /* \"#utility.yul\":1997:2006   */\n      dup4\n        /* \"#utility.yul\":1988:1995   */\n      dup6\n        /* \"#utility.yul\":1984:2007   */\n      sub\n        /* \"#utility.yul\":1980:2012   */\n      slt\n        /* \"#utility.yul\":1977:2096   */\n      iszero\n      tag_126\n      jumpi\n        /* \"#utility.yul\":2015:2094   */\n      tag_127\n      tag_80\n      jump\t// in\n    tag_127:\n        /* \"#utility.yul\":1977:2096   */\n    tag_126:\n        /* \"#utility.yul\":2135:2136   */\n      0x00\n        /* \"#utility.yul\":2160:2213   */\n      tag_128\n        /* \"#utility.yul\":2205:2212   */\n      dup6\n        /* \"#utility.yul\":2196:2202   */\n      dup3\n        /* \"#utility.yul\":2185:2194   */\n      dup7\n        /* \"#utility.yul\":2181:2203   */\n      add\n        /* \"#utility.yul\":2160:2213   */\n      tag_85\n      jump\t// in\n    tag_128:\n        /* \"#utility.yul\":2150:2213   */\n      swap3\n      pop\n        /* \"#utility.yul\":2106:2223   */\n      pop\n        /* \"#utility.yul\":2262:2264   */\n      0x20\n        /* \"#utility.yul\":2288:2341   */\n      tag_129\n        /* \"#utility.yul\":2333:2340   */\n      dup6\n        /* \"#utility.yul\":2324:2330   */\n      dup3\n        /* \"#utility.yul\":2313:2322   */\n      dup7\n        /* \"#utility.yul\":2309:2331   */\n      add\n        /* \"#utility.yul\":2288:2341   */\n      tag_87\n      jump\t// in\n    tag_129:\n        /* \"#utility.yul\":2278:2341   */\n      swap2\n      pop\n        /* \"#utility.yul\":2233:2351   */\n      pop\n        /* \"#utility.yul\":1884:2358   */\n      swap3\n      pop\n      swap3\n      swap1\n      pop\n      jump\t// out\n        /* \"#utility.yul\":2364:2424   */\n    tag_88:\n        /* \"#utility.yul\":2392:2395   */\n      0x00\n        /* \"#utility.yul\":2413:2418   */\n      dup2\n        /* \"#utility.yul\":2406:2418   */\n      swap1\n      pop\n        /* \"#utility.yul\":2364:2424   */\n      swap2\n      swap1\n      pop\n      jump\t// out\n        /* \"#utility.yul\":2430:2572   */\n    tag_89:\n        /* \"#utility.yul\":2480:2489   */\n      0x00\n        /* \"#utility.yul\":2513:2566   */\n      tag_132\n        /* \"#utility.yul\":2531:2565   */\n      tag_133\n        /* \"#utility.yul\":2540:2564   */\n      tag_134\n        /* \"#utility.yul\":2558:2563   */\n      dup5\n        /* \"#utility.yul\":2540:2564   */\n      tag_82\n      jump\t// in\n    tag_134:\n        /* \"#utility.yul\":2531:2565   */\n      tag_88\n      jump\t// in\n    tag_133:\n        /* \"#utility.yul\":2513:2566   */\n      tag_82\n      jump\t// in\n    tag_132:\n        /* \"#utility.yul\":2500:2566   */\n      swap1\n      pop\n        /* \"#utility.yul\":2430:2572   */\n      swap2\n      swap1\n      pop\n      jump\t// out\n        /* \"#utility.yul\":2578:2704   */\n    tag_90:\n        /* \"#utility.yul\":2628:2637   */\n      0x00\n        /* \"#utility.yul\":2661:2698   */\n      tag_136\n        /* \"#utility.yul\":2692:2697   */\n      dup3\n        /* \"#utility.yul\":2661:2698   */\n      tag_89\n      jump\t// in\n    tag_136:\n        /* \"#utility.yul\":2648:2698   */\n      swap1\n      pop\n        /* \"#utility.yul\":2578:2704   */\n      swap2\n      swap1\n      pop\n      jump\t// out\n        /* \"#utility.yul\":2710:2849   */\n    tag_91:\n        /* \"#utility.yul\":2773:2782   */\n      0x00\n        /* \"#utility.yul\":2806:2843   */\n      tag_138\n        /* \"#utility.yul\":2837:2842   */\n      dup3\n        /* \"#utility.yul\":2806:2843   */\n      tag_90\n      jump\t// in\n    tag_138:\n        /* \"#utility.yul\":2793:2843   */\n      swap1\n      pop\n        /* \"#utility.yul\":2710:2849   */\n      swap2\n      swap1\n      pop\n      jump\t// out\n        /* \"#utility.yul\":2855:3012   */\n    tag_92:\n        /* \"#utility.yul\":2955:3005   */\n      tag_140\n        /* \"#utility.yul\":2999:3004   */\n      dup2\n        /* \"#utility.yul\":2955:3005   */\n      tag_91\n      jump\t// in\n    tag_140:\n        /* \"#utility.yul\":2950:2953   */\n      dup3\n        /* \"#utility.yul\":2943:3006   */\n      mstore\n        /* \"#utility.yul\":2855:3012   */\n      pop\n      pop\n      jump\t// out\n        /* \"#utility.yul\":3018:3266   */\n    tag_50:\n        /* \"#utility.yul\":3124:3128   */\n      0x00\n        /* \"#utility.yul\":3162:3164   */\n      0x20\n        /* \"#utility.yul\":3151:3160   */\n      dup3\n        /* \"#utility.yul\":3147:3165   */\n      add\n        /* \"#utility.yul\":3139:3165   */\n      swap1\n      pop\n        /* \"#utility.yul\":3175:3259   */\n      tag_142\n        /* \"#utility.yul\":3256:3257   */\n      0x00\n        /* \"#utility.yul\":3245:3254   */\n      dup4\n        /* \"#utility.yul\":3241:3258   */\n      add\n        /* \"#utility.yul\":3232:3238   */\n      dup5\n        /* \"#utility.yul\":3175:3259   */\n      tag_92\n      jump\t// in\n    tag_142:\n        /* \"#utility.yul\":3018:3266   */\n      swap3\n      swap2\n      pop\n      pop\n      jump\t// out\n        /* \"#utility.yul\":3272:3390   */\n    tag_93:\n        /* \"#utility.yul\":3359:3383   */\n      tag_144\n        /* \"#utility.yul\":3377:3382   */\n      dup2\n        /* \"#utility.yul\":3359:3383   */\n      tag_83\n      jump\t// in\n    tag_144:\n        /* \"#utility.yul\":3354:3357   */\n      dup3\n        /* \"#utility.yul\":3347:3384   */\n      mstore\n        /* \"#utility.yul\":3272:3390   */\n      pop\n      pop\n      jump\t// out\n        /* \"#utility.yul\":3396:3728   */\n    tag_54:\n        /* \"#utility.yul\":3517:3521   */\n      0x00\n        /* \"#utility.yul\":3555:3557   */\n      0x40\n        /* \"#utility.yul\":3544:3553   */\n      dup3\n        /* \"#utility.yul\":3540:3558   */\n      add\n        /* \"#utility.yul\":3532:3558   */\n      swap1\n      pop\n        /* \"#utility.yul\":3568:3639   */\n      tag_146\n        /* \"#utility.yul\":3636:3637   */\n      0x00\n        /* \"#utility.yul\":3625:3634   */\n      dup4\n        /* \"#utility.yul\":3621:3638   */\n      add\n        /* \"#utility.yul\":3612:3618   */\n      dup6\n        /* \"#utility.yul\":3568:3639   */\n      tag_93\n      jump\t// in\n    tag_146:\n        /* \"#utility.yul\":3649:3721   */\n      tag_147\n        /* \"#utility.yul\":3717:3719   */\n      0x20\n        /* \"#utility.yul\":3706:3715   */\n      dup4\n        /* \"#utility.yul\":3702:3720   */\n      add\n        /* \"#utility.yul\":3693:3699   */\n      dup5\n        /* \"#utility.yul\":3649:3721   */\n      tag_78\n      jump\t// in\n    tag_147:\n        /* \"#utility.yul\":3396:3728   */\n      swap4\n      swap3\n      pop\n      pop\n      pop\n      jump\t// out\n        /* \"#utility.yul\":3734:3824   */\n    tag_94:\n        /* \"#utility.yul\":3768:3775   */\n      0x00\n        /* \"#utility.yul\":3811:3816   */\n      dup2\n        /* \"#utility.yul\":3804:3817   */\n      iszero\n        /* \"#utility.yul\":3797:3818   */\n      iszero\n        /* \"#utility.yul\":3786:3818   */\n      swap1\n      pop\n        /* \"#utility.yul\":3734:3824   */\n      swap2\n      swap1\n      pop\n      jump\t// out\n        /* \"#utility.yul\":3830:3946   */\n    tag_95:\n        /* \"#utility.yul\":3900:3921   */\n      tag_150\n        /* \"#utility.yul\":3915:3920   */\n      dup2\n        /* \"#utility.yul\":3900:3921   */\n      tag_94\n      jump\t// in\n    tag_150:\n        /* \"#utility.yul\":3893:3898   */\n      dup2\n        /* \"#utility.yul\":3890:3922   */\n      eq\n        /* \"#utility.yul\":3880:3940   */\n      tag_151\n      jumpi\n        /* \"#utility.yul\":3936:3937   */\n      0x00\n        /* \"#utility.yul\":3933:3934   */\n      dup1\n        /* \"#utility.yul\":3926:3938   */\n      revert\n        /* \"#utility.yul\":3880:3940   */\n    tag_151:\n        /* \"#utility.yul\":3830:3946   */\n      pop\n      jump\t// out\n        /* \"#utility.yul\":3952:4089   */\n    tag_96:\n        /* \"#utility.yul\":4006:4011   */\n      0x00\n        /* \"#utility.yul\":4037:4043   */\n      dup2\n        /* \"#utility.yul\":4031:4044   */\n      mload\n        /* \"#utility.yul\":4022:4044   */\n      swap1\n      pop\n        /* \"#utility.yul\":4053:4083   */\n      tag_153\n        /* \"#utility.yul\":4077:4082   */\n      dup2\n        /* \"#utility.yul\":4053:4083   */\n      tag_95\n      jump\t// in\n    tag_153:\n        /* \"#utility.yul\":3952:4089   */\n      swap3\n      swap2\n      pop\n      pop\n      jump\t// out\n        /* \"#utility.yul\":4095:4440   */\n    tag_58:\n        /* \"#utility.yul\":4162:4168   */\n      0x00\n        /* \"#utility.yul\":4211:4213   */\n      0x20\n        /* \"#utility.yul\":4199:4208   */\n      dup3\n        /* \"#utility.yul\":4190:4197   */\n      dup5\n        /* \"#utility.yul\":4186:4209   */\n      sub\n        /* \"#utility.yul\":4182:4214   */\n      slt\n        /* \"#utility.yul\":4179:4298   */\n      iszero\n      tag_155\n      jumpi\n        /* \"#utility.yul\":4217:4296   */\n      tag_156\n      tag_80\n      jump\t// in\n    tag_156:\n        /* \"#utility.yul\":4179:4298   */\n    tag_155:\n        /* \"#utility.yul\":4337:4338   */\n      0x00\n        /* \"#utility.yul\":4362:4423   */\n      tag_157\n        /* \"#utility.yul\":4415:4422   */\n      dup5\n        /* \"#utility.yul\":4406:4412   */\n      dup3\n        /* \"#utility.yul\":4395:4404   */\n      dup6\n        /* \"#utility.yul\":4391:4413   */\n      add\n        /* \"#utility.yul\":4362:4423   */\n      tag_96\n      jump\t// in\n    tag_157:\n        /* \"#utility.yul\":4352:4423   */\n      swap2\n      pop\n        /* \"#utility.yul\":4308:4433   */\n      pop\n        /* \"#utility.yul\":4095:4440   */\n      swap3\n      swap2\n      pop\n      pop\n      jump\t// out\n        /* \"#utility.yul\":4446:4626   */\n    tag_97:\n        /* \"#utility.yul\":4494:4571   */\n      0x4e487b7100000000000000000000000000000000000000000000000000000000\n        /* \"#utility.yul\":4491:4492   */\n      0x00\n        /* \"#utility.yul\":4484:4572   */\n      mstore\n        /* \"#utility.yul\":4591:4595   */\n      0x11\n        /* \"#utility.yul\":4588:4589   */\n      0x04\n        /* \"#utility.yul\":4581:4596   */\n      mstore\n        /* \"#utility.yul\":4615:4619   */\n      0x24\n        /* \"#utility.yul\":4612:4613   */\n      0x00\n        /* \"#utility.yul\":4605:4620   */\n      revert\n        /* \"#utility.yul\":4632:4826   */\n    tag_68:\n        /* \"#utility.yul\":4672:4676   */\n      0x00\n        /* \"#utility.yul\":4692:4712   */\n      tag_160\n        /* \"#utility.yul\":4710:4711   */\n      dup3\n        /* \"#utility.yul\":4692:4712   */\n      tag_77\n      jump\t// in\n    tag_160:\n        /* \"#utility.yul\":4687:4712   */\n      swap2\n      pop\n        /* \"#utility.yul\":4726:4746   */\n      tag_161\n        /* \"#utility.yul\":4744:4745   */\n      dup4\n        /* \"#utility.yul\":4726:4746   */\n      tag_77\n      jump\t// in\n    tag_161:\n        /* \"#utility.yul\":4721:4746   */\n      swap3\n      pop\n        /* \"#utility.yul\":4770:4771   */\n      dup3\n        /* \"#utility.yul\":4767:4768   */\n      dup3\n        /* \"#utility.yul\":4763:4772   */\n      sub\n        /* \"#utility.yul\":4755:4772   */\n      swap1\n      pop\n        /* \"#utility.yul\":4794:4795   */\n      dup2\n        /* \"#utility.yul\":4788:4792   */\n      dup2\n        /* \"#utility.yul\":4785:4796   */\n      gt\n        /* \"#utility.yul\":4782:4819   */\n      iszero\n      tag_162\n      jumpi\n        /* \"#utility.yul\":4799:4817   */\n      tag_163\n      tag_97\n      jump\t// in\n    tag_163:\n        /* \"#utility.yul\":4782:4819   */\n    tag_162:\n        /* \"#utility.yul\":4632:4826   */\n      swap3\n      swap2\n      pop\n      pop\n      jump\t// out\n        /* \"#utility.yul\":4832:5012   */\n    tag_98:\n        /* \"#utility.yul\":4880:4957   */\n      0x4e487b7100000000000000000000000000000000000000000000000000000000\n        /* \"#utility.yul\":4877:4878   */\n      0x00\n        /* \"#utility.yul\":4870:4958   */\n      mstore\n        /* \"#utility.yul\":4977:4981   */\n      0x12\n        /* \"#utility.yul\":4974:4975   */\n      0x04\n        /* \"#utility.yul\":4967:4982   */\n      mstore\n        /* \"#utility.yul\":5001:5005   */\n      0x24\n        /* \"#utility.yul\":4998:4999   */\n      0x00\n        /* \"#utility.yul\":4991:5006   */\n      revert\n        /* \"#utility.yul\":5018:5203   */\n    tag_70:\n        /* \"#utility.yul\":5058:5059   */\n      0x00\n        /* \"#utility.yul\":5075:5095   */\n      tag_166\n        /* \"#utility.yul\":5093:5094   */\n      dup3\n        /* \"#utility.yul\":5075:5095   */\n      tag_77\n      jump\t// in\n    tag_166:\n        /* \"#utility.yul\":5070:5095   */\n      swap2\n      pop\n        /* \"#utility.yul\":5109:5129   */\n      tag_167\n        /* \"#utility.yul\":5127:5128   */\n      dup4\n        /* \"#utility.yul\":5109:5129   */\n      tag_77\n      jump\t// in\n    tag_167:\n        /* \"#utility.yul\":5104:5129   */\n      swap3\n      pop\n        /* \"#utility.yul\":5148:5149   */\n      dup3\n        /* \"#utility.yul\":5138:5173   */\n      tag_168\n      jumpi\n        /* \"#utility.yul\":5153:5171   */\n      tag_169\n      tag_98\n      jump\t// in\n    tag_169:\n        /* \"#utility.yul\":5138:5173   */\n    tag_168:\n        /* \"#utility.yul\":5195:5196   */\n      dup3\n        /* \"#utility.yul\":5192:5193   */\n      dup3\n        /* \"#utility.yul\":5188:5197   */\n      div\n        /* \"#utility.yul\":5183:5197   */\n      swap1\n      pop\n        /* \"#utility.yul\":5018:5203   */\n      swap3\n      swap2\n      pop\n      pop\n      jump\t// out\n        /* \"#utility.yul\":5209:5619   */\n    tag_76:\n        /* \"#utility.yul\":5249:5256   */\n      0x00\n        /* \"#utility.yul\":5272:5292   */\n      tag_171\n        /* \"#utility.yul\":5290:5291   */\n      dup3\n        /* \"#utility.yul\":5272:5292   */\n      tag_77\n      jump\t// in\n    tag_171:\n        /* \"#utility.yul\":5267:5292   */\n      swap2\n      pop\n        /* \"#utility.yul\":5306:5326   */\n      tag_172\n        /* \"#utility.yul\":5324:5325   */\n      dup4\n        /* \"#utility.yul\":5306:5326   */\n      tag_77\n      jump\t// in\n    tag_172:\n        /* \"#utility.yul\":5301:5326   */\n      swap3\n      pop\n        /* \"#utility.yul\":5361:5362   */\n      dup3\n        /* \"#utility.yul\":5358:5359   */\n      dup3\n        /* \"#utility.yul\":5354:5363   */\n      mul\n        /* \"#utility.yul\":5383:5413   */\n      tag_173\n        /* \"#utility.yul\":5401:5412   */\n      dup2\n        /* \"#utility.yul\":5383:5413   */\n      tag_77\n      jump\t// in\n    tag_173:\n        /* \"#utility.yul\":5372:5413   */\n      swap2\n      pop\n        /* \"#utility.yul\":5562:5563   */\n      dup3\n        /* \"#utility.yul\":5553:5560   */\n      dup3\n        /* \"#utility.yul\":5549:5564   */\n      div\n        /* \"#utility.yul\":5546:5547   */\n      dup5\n        /* \"#utility.yul\":5543:5565   */\n      eq\n        /* \"#utility.yul\":5523:5524   */\n      dup4\n        /* \"#utility.yul\":5516:5525   */\n      iszero\n        /* \"#utility.yul\":5496:5579   */\n      or\n        /* \"#utility.yul\":5473:5612   */\n      tag_174\n      jumpi\n        /* \"#utility.yul\":5592:5610   */\n      tag_175\n      tag_97\n      jump\t// in\n    tag_175:\n        /* \"#utility.yul\":5473:5612   */\n    tag_174:\n        /* \"#utility.yul\":5257:5619   */\n      pop\n        /* \"#utility.yul\":5209:5619   */\n      swap3\n      swap2\n      pop\n      pop\n      jump\t// out\n\n    auxdata: 0xa2646970667358221220d0b5b3138ceef70b2427088ad4e326b544de15cebbf0280f8ddf783edcb1617464736f6c63430008120033\n}\n",
				"bytecode": {
					"linkReferences": {},
					"object": "60806040523480156200001157600080fd5b5060405162000b3738038062000b37833981810160405281019062000037919062000157565b83600760006101000a81548173ffffffffffffffffffffffffffffffffffffffff021916908373ffffffffffffffffffffffffffffffffffffffff1602179055508160008190555082600181905550806002819055504260038190555050505050620001c9565b600080fd5b600073ffffffffffffffffffffffffffffffffffffffff82169050919050565b6000620000d082620000a3565b9050919050565b6000620000e482620000c3565b9050919050565b620000f681620000d7565b81146200010257600080fd5b50565b6000815190506200011681620000eb565b92915050565b6000819050919050565b62000131816200011c565b81146200013d57600080fd5b50565b600081519050620001518162000126565b92915050565b600080600080608085870312156200017457620001736200009e565b5b6000620001848782880162000105565b9450506020620001978782880162000140565b9350506040620001aa8782880162000140565b9250506060620001bd8782880162000140565b91505092959194509250565b61095e80620001d96000396000f3fe608060405234801561001057600080fd5b506004361061009e5760003560e01c806387b0be481161006657806387b0be481461014b578063b1c2558614610167578063c4684e9d14610183578063cb9199a2146101b3578063fc0c546a146101e35761009e565b80630fb5a6b4146100a357806313d033c0146100c15780635afd6eb8146100df57806370ff852b146100fd57806378e979251461012d575b600080fd5b6100ab610201565b6040516100b891906105f5565b60405180910390f35b6100c9610207565b6040516100d691906105f5565b60405180910390f35b6100e761020d565b6040516100f491906105f5565b60405180910390f35b61011760048036038101906101129190610673565b610213565b60405161012491906105f5565b60405180910390f35b61013561022b565b60405161014291906105f5565b60405180910390f35b61016560048036038101906101609190610673565b610231565b005b610181600480360381019061017c91906106cc565b610327565b005b61019d60048036038101906101989190610673565b610493565b6040516101aa91906105f5565b60405180910390f35b6101cd60048036038101906101c89190610673565b61059e565b6040516101da91906105f5565b60405180910390f35b6101eb6105b6565b6040516101f8919061076b565b60405180910390f35b60005481565b60015481565b60025481565b60066020528060005260406000206000915090505481565b60035481565b600061023c82610493565b9050600760009054906101000a900473ffffffffffffffffffffffffffffffffffffffff1673ffffffffffffffffffffffffffffffffffffffff1663a9059cbb83836040518363ffffffff1660e01b815260040161029b929190610795565b6020604051808303816000875af11580156102ba573d6000803e3d6000fd5b505050506040513d601f19601f820116820180604052508101906102de91906107f6565b5080600660008473ffffffffffffffffffffffffffffffffffffffff1673ffffffffffffffffffffffffffffffffffffffff168152602001908152602001600020819055505050565b80600460008473ffffffffffffffffffffffffffffffffffffffff1673ffffffffffffffffffffffffffffffffffffffff16815260200190815260200160002081905550600760009054906101000a900473ffffffffffffffffffffffffffffffffffffffff1673ffffffffffffffffffffffffffffffffffffffff1663a9059cbb30836040518363ffffffff1660e01b81526004016103c8929190610795565b6020604051808303816000875af11580156103e7573d6000803e3d6000fd5b505050506040513d601f19601f8201168201806040525081019061040b91906107f6565b50600460008373ffffffffffffffffffffffffffffffffffffffff1673ffffffffffffffffffffffffffffffffffffffff16815260200190815260200160002054600560008473ffffffffffffffffffffffffffffffffffffffff1673ffffffffffffffffffffffffffffffffffffffff168152602001908152602001600020819055505050565b60006001544210156104a85760009050610599565b6000600354426104b89190610852565b90506000600254826104ca91906108b5565b905060006002546000546104de91906108b5565b905080821061053157600460008673ffffffffffffffffffffffffffffffffffffffff1673ffffffffffffffffffffffffffffffffffffffff168152602001908152602001600020549350505050610599565b600081600460008873ffffffffffffffffffffffffffffffffffffffff1673ffffffffffffffffffffffffffffffffffffffff1681526020019081526020016000205461057e91906108b5565b90506000838261058e91906108e6565b905080955050505050505b919050565b60056020528060005260406000206000915090505481565b600760009054906101000a900473ffffffffffffffffffffffffffffffffffffffff1681565b6000819050919050565b6105ef816105dc565b82525050565b600060208201905061060a60008301846105e6565b92915050565b600080fd5b600073ffffffffffffffffffffffffffffffffffffffff82169050919050565b600061064082610615565b9050919050565b61065081610635565b811461065b57600080fd5b50565b60008135905061066d81610647565b92915050565b60006020828403121561068957610688610610565b5b60006106978482850161065e565b91505092915050565b6106a9816105dc565b81146106b457600080fd5b50565b6000813590506106c6816106a0565b92915050565b600080604083850312156106e3576106e2610610565b5b60006106f18582860161065e565b9250506020610702858286016106b7565b9150509250929050565b6000819050919050565b600061073161072c61072784610615565b61070c565b610615565b9050919050565b600061074382610716565b9050919050565b600061075582610738565b9050919050565b6107658161074a565b82525050565b6000602082019050610780600083018461075c565b92915050565b61078f81610635565b82525050565b60006040820190506107aa6000830185610786565b6107b760208301846105e6565b9392505050565b60008115159050919050565b6107d3816107be565b81146107de57600080fd5b50565b6000815190506107f0816107ca565b92915050565b60006020828403121561080c5761080b610610565b5b600061081a848285016107e1565b91505092915050565b7f4e487b7100000000000000000000000000000000000000000000000000000000600052601160045260246000fd5b600061085d826105dc565b9150610868836105dc565b92508282039050818111156108805761087f610823565b5b92915050565b7f4e487b7100000000000000000000000000000000000000000000000000000000600052601260045260246000fd5b60006108c0826105dc565b91506108cb836105dc565b9250826108db576108da610886565b5b828204905092915050565b60006108f1826105dc565b91506108fc836105dc565b925082820261090a816105dc565b9150828204841483151761092157610920610823565b5b509291505056fea2646970667358221220d0b5b3138ceef70b2427088ad4e326b544de15cebbf0280f8ddf783edcb1617464736f6c63430008120033",
					"opcodes": "PUSH1 0x80 PUSH1 0x40 MSTORE CALLVALUE DUP1 ISZERO PUSH3 0x11 JUMPI PUSH1 0x0 DUP1 REVERT JUMPDEST POP PUSH1 0x40 MLOAD PUSH3 0xB37 CODESIZE SUB DUP1 PUSH3 0xB37 DUP4 CODECOPY DUP2 DUP2 ADD PUSH1 0x40 MSTORE DUP2 ADD SWAP1 PUSH3 0x37 SWAP2 SWAP1 PUSH3 0x157 JUMP JUMPDEST DUP4 PUSH1 0x7 PUSH1 0x0 PUSH2 0x100 EXP DUP2 SLOAD DUP2 PUSH20 0xFFFFFFFFFFFFFFFFFFFFFFFFFFFFFFFFFFFFFFFF MUL NOT AND SWAP1 DUP4 PUSH20 0xFFFFFFFFFFFFFFFFFFFFFFFFFFFFFFFFFFFFFFFF AND MUL OR SWAP1 SSTORE POP DUP2 PUSH1 0x0 DUP2 SWAP1 SSTORE POP DUP3 PUSH1 0x1 DUP2 SWAP1 SSTORE POP DUP1 PUSH1 0x2 DUP2 SWAP1 SSTORE POP TIMESTAMP PUSH1 0x3 DUP2 SWAP1 SSTORE POP POP POP POP POP PUSH3 0x1C9 JUMP JUMPDEST PUSH1 0x0 DUP1 REVERT JUMPDEST PUSH1 0x0 PUSH20 0xFFFFFFFFFFFFFFFFFFFFFFFFFFFFFFFFFFFFFFFF DUP3 AND SWAP1 POP SWAP2 SWAP1 POP JUMP JUMPDEST PUSH1 0x0 PUSH3 0xD0 DUP3 PUSH3 0xA3 JUMP JUMPDEST SWAP1 POP SWAP2 SWAP1 POP JUMP JUMPDEST PUSH1 0x0 PUSH3 0xE4 DUP3 PUSH3 0xC3 JUMP JUMPDEST SWAP1 POP SWAP2 SWAP1 POP JUMP JUMPDEST PUSH3 0xF6 DUP2 PUSH3 0xD7 JUMP JUMPDEST DUP2 EQ PUSH3 0x102 JUMPI PUSH1 0x0 DUP1 REVERT JUMPDEST POP JUMP JUMPDEST PUSH1 0x0 DUP2 MLOAD SWAP1 POP PUSH3 0x116 DUP2 PUSH3 0xEB JUMP JUMPDEST SWAP3 SWAP2 POP POP JUMP JUMPDEST PUSH1 0x0 DUP2 SWAP1 POP SWAP2 SWAP1 POP JUMP JUMPDEST PUSH3 0x131 DUP2 PUSH3 0x11C JUMP JUMPDEST DUP2 EQ PUSH3 0x13D JUMPI PUSH1 0x0 DUP1 REVERT JUMPDEST POP JUMP JUMPDEST PUSH1 0x0 DUP2 MLOAD SWAP1 POP PUSH3 0x151 DUP2 PUSH3 0x126 JUMP JUMPDEST SWAP3 SWAP2 POP POP JUMP JUMPDEST PUSH1 0x0 DUP1 PUSH1 0x0 DUP1 PUSH1 0x80 DUP6 DUP8 SUB SLT ISZERO PUSH3 0x174 JUMPI PUSH3 0x173 PUSH3 0x9E JUMP JUMPDEST JUMPDEST PUSH1 0x0 PUSH3 0x184 DUP8 DUP3 DUP9 ADD PUSH3 0x105 JUMP JUMPDEST SWAP5 POP POP PUSH1 0x20 PUSH3 0x197 DUP8 DUP3 DUP9 ADD PUSH3 0x140 JUMP JUMPDEST SWAP4 POP POP PUSH1 0x40 PUSH3 0x1AA DUP8 DUP3 DUP9 ADD PUSH3 0x140 JUMP JUMPDEST SWAP3 POP POP PUSH1 0x60 PUSH3 0x1BD DUP8 DUP3 DUP9 ADD PUSH3 0x140 JUMP JUMPDEST SWAP2 POP POP SWAP3 SWAP6 SWAP2 SWAP5 POP SWAP3 POP JUMP JUMPDEST PUSH2 0x95E DUP1 PUSH3 0x1D9 PUSH1 0x0 CODECOPY PUSH1 0x0 RETURN INVALID PUSH1 0x80 PUSH1 0x40 MSTORE CALLVALUE DUP1 ISZERO PUSH2 0x10 JUMPI PUSH1 0x0 DUP1 REVERT JUMPDEST POP PUSH1 0x4 CALLDATASIZE LT PUSH2 0x9E JUMPI PUSH1 0x0 CALLDATALOAD PUSH1 0xE0 SHR DUP1 PUSH4 0x87B0BE48 GT PUSH2 0x66 JUMPI DUP1 PUSH4 0x87B0BE48 EQ PUSH2 0x14B JUMPI DUP1 PUSH4 0xB1C25586 EQ PUSH2 0x167 JUMPI DUP1 PUSH4 0xC4684E9D EQ PUSH2 0x183 JUMPI DUP1 PUSH4 0xCB9199A2 EQ PUSH2 0x1B3 JUMPI DUP1 PUSH4 0xFC0C546A EQ PUSH2 0x1E3 JUMPI PUSH2 0x9E JUMP JUMPDEST DUP1 PUSH4 0xFB5A6B4 EQ PUSH2 0xA3 JUMPI DUP1 PUSH4 0x13D033C0 EQ PUSH2 0xC1 JUMPI DUP1 PUSH4 0x5AFD6EB8 EQ PUSH2 0xDF JUMPI DUP1 PUSH4 0x70FF852B EQ PUSH2 0xFD JUMPI DUP1 PUSH4 0x78E97925 EQ PUSH2 0x12D JUMPI JUMPDEST PUSH1 0x0 DUP1 REVERT JUMPDEST PUSH2 0xAB PUSH2 0x201 JUMP JUMPDEST PUSH1 0x40 MLOAD PUSH2 0xB8 SWAP2 SWAP1 PUSH2 0x5F5 JUMP JUMPDEST PUSH1 0x40 MLOAD DUP1 SWAP2 SUB SWAP1 RETURN JUMPDEST PUSH2 0xC9 PUSH2 0x207 JUMP JUMPDEST PUSH1 0x40 MLOAD PUSH2 0xD6 SWAP2 SWAP1 PUSH2 0x5F5 JUMP JUMPDEST PUSH1 0x40 MLOAD DUP1 SWAP2 SUB SWAP1 RETURN JUMPDEST PUSH2 0xE7 PUSH2 0x20D JUMP JUMPDEST PUSH1 0x40 MLOAD PUSH2 0xF4 SWAP2 SWAP1 PUSH2 0x5F5 JUMP JUMPDEST PUSH1 0x40 MLOAD DUP1 SWAP2 SUB SWAP1 RETURN JUMPDEST PUSH2 0x117 PUSH1 0x4 DUP1 CALLDATASIZE SUB DUP2 ADD SWAP1 PUSH2 0x112 SWAP2 SWAP1 PUSH2 0x673 JUMP JUMPDEST PUSH2 0x213 JUMP JUMPDEST PUSH1 0x40 MLOAD PUSH2 0x124 SWAP2 SWAP1 PUSH2 0x5F5 JUMP JUMPDEST PUSH1 0x40 MLOAD DUP1 SWAP2 SUB SWAP1 RETURN JUMPDEST PUSH2 0x135 PUSH2 0x22B JUMP JUMPDEST PUSH1 0x40 MLOAD PUSH2 0x142 SWAP2 SWAP1 PUSH2 0x5F5 JUMP JUMPDEST PUSH1 0x40 MLOAD DUP1 SWAP2 SUB SWAP1 RETURN JUMPDEST PUSH2 0x165 PUSH1 0x4 DUP1 CALLDATASIZE SUB DUP2 ADD SWAP1 PUSH2 0x160 SWAP2 SWAP1 PUSH2 0x673 JUMP JUMPDEST PUSH2 0x231 JUMP JUMPDEST STOP JUMPDEST PUSH2 0x181 PUSH1 0x4 DUP1 CALLDATASIZE SUB DUP2 ADD SWAP1 PUSH2 0x17C SWAP2 SWAP1 PUSH2 0x6CC JUMP JUMPDEST PUSH2 0x327 JUMP JUMPDEST STOP JUMPDEST PUSH2 0x19D PUSH1 0x4 DUP1 CALLDATASIZE SUB DUP2 ADD SWAP1 PUSH2 0x198 SWAP2 SWAP1 PUSH2 0x673 JUMP JUMPDEST PUSH2 0x493 JUMP JUMPDEST PUSH1 0x40 MLOAD PUSH2 0x1AA SWAP2 SWAP1 PUSH2 0x5F5 JUMP JUMPDEST PUSH1 0x40 MLOAD DUP1 SWAP2 SUB SWAP1 RETURN JUMPDEST PUSH2 0x1CD PUSH1 0x4 DUP1 CALLDATASIZE SUB DUP2 ADD SWAP1 PUSH2 0x1C8 SWAP2 SWAP1 PUSH2 0x673 JUMP JUMPDEST PUSH2 0x59E JUMP JUMPDEST PUSH1 0x40 MLOAD PUSH2 0x1DA SWAP2 SWAP1 PUSH2 0x5F5 JUMP JUMPDEST PUSH1 0x40 MLOAD DUP1 SWAP2 SUB SWAP1 RETURN JUMPDEST PUSH2 0x1EB PUSH2 0x5B6 JUMP JUMPDEST PUSH1 0x40 MLOAD PUSH2 0x1F8 SWAP2 SWAP1 PUSH2 0x76B JUMP JUMPDEST PUSH1 0x40 MLOAD DUP1 SWAP2 SUB SWAP1 RETURN JUMPDEST PUSH1 0x0 SLOAD DUP2 JUMP JUMPDEST PUSH1 0x1 SLOAD DUP2 JUMP JUMPDEST PUSH1 0x2 SLOAD DUP2 JUMP JUMPDEST PUSH1 0x6 PUSH1 0x20 MSTORE DUP1 PUSH1 0x0 MSTORE PUSH1 0x40 PUSH1 0x0 KECCAK256 PUSH1 0x0 SWAP2 POP SWAP1 POP SLOAD DUP2 JUMP JUMPDEST PUSH1 0x3 SLOAD DUP2 JUMP JUMPDEST PUSH1 0x0 PUSH2 0x23C DUP3 PUSH2 0x493 JUMP JUMPDEST SWAP1 POP PUSH1 0x7 PUSH1 0x0 SWAP1 SLOAD SWAP1 PUSH2 0x100 EXP SWAP1 DIV PUSH20 0xFFFFFFFFFFFFFFFFFFFFFFFFFFFFFFFFFFFFFFFF AND PUSH20 0xFFFFFFFFFFFFFFFFFFFFFFFFFFFFFFFFFFFFFFFF AND PUSH4 0xA9059CBB DUP4 DUP4 PUSH1 0x40 MLOAD DUP4 PUSH4 0xFFFFFFFF AND PUSH1 0xE0 SHL DUP2 MSTORE PUSH1 0x4 ADD PUSH2 0x29B SWAP3 SWAP2 SWAP1 PUSH2 0x795 JUMP JUMPDEST PUSH1 0x20 PUSH1 0x40 MLOAD DUP1 DUP4 SUB DUP2 PUSH1 0x0 DUP8 GAS CALL ISZERO DUP1 ISZERO PUSH2 0x2BA JUMPI RETURNDATASIZE PUSH1 0x0 DUP1 RETURNDATACOPY RETURNDATASIZE PUSH1 0x0 REVERT JUMPDEST POP POP POP POP PUSH1 0x40 MLOAD RETURNDATASIZE PUSH1 0x1F NOT PUSH1 0x1F DUP3 ADD AND DUP3 ADD DUP1 PUSH1 0x40 MSTORE POP DUP2 ADD SWAP1 PUSH2 0x2DE SWAP2 SWAP1 PUSH2 0x7F6 JUMP JUMPDEST POP DUP1 PUSH1 0x6 PUSH1 0x0 DUP5 PUSH20 0xFFFFFFFFFFFFFFFFFFFFFFFFFFFFFFFFFFFFFFFF AND PUSH20 0xFFFFFFFFFFFFFFFFFFFFFFFFFFFFFFFFFFFFFFFF AND DUP2 MSTORE PUSH1 0x20 ADD SWAP1 DUP2 MSTORE PUSH1 0x20 ADD PUSH1 0x0 KECCAK256 DUP2 SWAP1 SSTORE POP POP POP JUMP JUMPDEST DUP1 PUSH1 0x4 PUSH1 0x0 DUP5 PUSH20 0xFFFFFFFFFFFFFFFFFFFFFFFFFFFFFFFFFFFFFFFF AND PUSH20 0xFFFFFFFFFFFFFFFFFFFFFFFFFFFFFFFFFFFFFFFF AND DUP2 MSTORE PUSH1 0x20 ADD SWAP1 DUP2 MSTORE PUSH1 0x20 ADD PUSH1 0x0 KECCAK256 DUP2 SWAP1 SSTORE POP PUSH1 0x7 PUSH1 0x0 SWAP1 SLOAD SWAP1 PUSH2 0x100 EXP SWAP1 DIV PUSH20 0xFFFFFFFFFFFFFFFFFFFFFFFFFFFFFFFFFFFFFFFF AND PUSH20 0xFFFFFFFFFFFFFFFFFFFFFFFFFFFFFFFFFFFFFFFF AND PUSH4 0xA9059CBB ADDRESS DUP4 PUSH1 0x40 MLOAD DUP4 PUSH4 0xFFFFFFFF AND PUSH1 0xE0 SHL DUP2 MSTORE PUSH1 0x4 ADD PUSH2 0x3C8 SWAP3 SWAP2 SWAP1 PUSH2 0x795 JUMP JUMPDEST PUSH1 0x20 PUSH1 0x40 MLOAD DUP1 DUP4 SUB DUP2 PUSH1 0x0 DUP8 GAS CALL ISZERO DUP1 ISZERO PUSH2 0x3E7 JUMPI RETURNDATASIZE PUSH1 0x0 DUP1 RETURNDATACOPY RETURNDATASIZE PUSH1 0x0 REVERT JUMPDEST POP POP POP POP PUSH1 0x40 MLOAD RETURNDATASIZE PUSH1 0x1F NOT PUSH1 0x1F DUP3 ADD AND DUP3 ADD DUP1 PUSH1 0x40 MSTORE POP DUP2 ADD SWAP1 PUSH2 0x40B SWAP2 SWAP1 PUSH2 0x7F6 JUMP JUMPDEST POP PUSH1 0x4 PUSH1 0x0 DUP4 PUSH20 0xFFFFFFFFFFFFFFFFFFFFFFFFFFFFFFFFFFFFFFFF AND PUSH20 0xFFFFFFFFFFFFFFFFFFFFFFFFFFFFFFFFFFFFFFFF AND DUP2 MSTORE PUSH1 0x20 ADD SWAP1 DUP2 MSTORE PUSH1 0x20 ADD PUSH1 0x0 KECCAK256 SLOAD PUSH1 0x5 PUSH1 0x0 DUP5 PUSH20 0xFFFFFFFFFFFFFFFFFFFFFFFFFFFFFFFFFFFFFFFF AND PUSH20 0xFFFFFFFFFFFFFFFFFFFFFFFFFFFFFFFFFFFFFFFF AND DUP2 MSTORE PUSH1 0x20 ADD SWAP1 DUP2 MSTORE PUSH1 0x20 ADD PUSH1 0x0 KECCAK256 DUP2 SWAP1 SSTORE POP POP POP JUMP JUMPDEST PUSH1 0x0 PUSH1 0x1 SLOAD TIMESTAMP LT ISZERO PUSH2 0x4A8 JUMPI PUSH1 0x0 SWAP1 POP PUSH2 0x599 JUMP JUMPDEST PUSH1 0x0 PUSH1 0x3 SLOAD TIMESTAMP PUSH2 0x4B8 SWAP2 SWAP1 PUSH2 0x852 JUMP JUMPDEST SWAP1 POP PUSH1 0x0 PUSH1 0x2 SLOAD DUP3 PUSH2 0x4CA SWAP2 SWAP1 PUSH2 0x8B5 JUMP JUMPDEST SWAP1 POP PUSH1 0x0 PUSH1 0x2 SLOAD PUSH1 0x0 SLOAD PUSH2 0x4DE SWAP2 SWAP1 PUSH2 0x8B5 JUMP JUMPDEST SWAP1 POP DUP1 DUP3 LT PUSH2 0x531 JUMPI PUSH1 0x4 PUSH1 0x0 DUP7 PUSH20 0xFFFFFFFFFFFFFFFFFFFFFFFFFFFFFFFFFFFFFFFF AND PUSH20 0xFFFFFFFFFFFFFFFFFFFFFFFFFFFFFFFFFFFFFFFF AND DUP2 MSTORE PUSH1 0x20 ADD SWAP1 DUP2 MSTORE PUSH1 0x20 ADD PUSH1 0x0 KECCAK256 SLOAD SWAP4 POP POP POP POP PUSH2 0x599 JUMP JUMPDEST PUSH1 0x0 DUP2 PUSH1 0x4 PUSH1 0x0 DUP9 PUSH20 0xFFFFFFFFFFFFFFFFFFFFFFFFFFFFFFFFFFFFFFFF AND PUSH20 0xFFFFFFFFFFFFFFFFFFFFFFFFFFFFFFFFFFFFFFFF AND DUP2 MSTORE PUSH1 0x20 ADD SWAP1 DUP2 MSTORE PUSH1 0x20 ADD PUSH1 0x0 KECCAK256 SLOAD PUSH2 0x57E SWAP2 SWAP1 PUSH2 0x8B5 JUMP JUMPDEST SWAP1 POP PUSH1 0x0 DUP4 DUP3 PUSH2 0x58E SWAP2 SWAP1 PUSH2 0x8E6 JUMP JUMPDEST SWAP1 POP DUP1 SWAP6 POP POP POP POP POP POP JUMPDEST SWAP2 SWAP1 POP JUMP JUMPDEST PUSH1 0x5 PUSH1 0x20 MSTORE DUP1 PUSH1 0x0 MSTORE PUSH1 0x40 PUSH1 0x0 KECCAK256 PUSH1 0x0 SWAP2 POP SWAP1 POP SLOAD DUP2 JUMP JUMPDEST PUSH1 0x7 PUSH1 0x0 SWAP1 SLOAD SWAP1 PUSH2 0x100 EXP SWAP1 DIV PUSH20 0xFFFFFFFFFFFFFFFFFFFFFFFFFFFFFFFFFFFFFFFF AND DUP2 JUMP JUMPDEST PUSH1 0x0 DUP2 SWAP1 POP SWAP2 SWAP1 POP JUMP JUMPDEST PUSH2 0x5EF DUP2 PUSH2 0x5DC JUMP JUMPDEST DUP3 MSTORE POP POP JUMP JUMPDEST PUSH1 0x0 PUSH1 0x20 DUP3 ADD SWAP1 POP PUSH2 0x60A PUSH1 0x0 DUP4 ADD DUP5 PUSH2 0x5E6 JUMP JUMPDEST SWAP3 SWAP2 POP POP JUMP JUMPDEST PUSH1 0x0 DUP1 REVERT JUMPDEST PUSH1 0x0 PUSH20 0xFFFFFFFFFFFFFFFFFFFFFFFFFFFFFFFFFFFFFFFF DUP3 AND SWAP1 POP SWAP2 SWAP1 POP JUMP JUMPDEST PUSH1 0x0 PUSH2 0x640 DUP3 PUSH2 0x615 JUMP JUMPDEST SWAP1 POP SWAP2 SWAP1 POP JUMP JUMPDEST PUSH2 0x650 DUP2 PUSH2 0x635 JUMP JUMPDEST DUP2 EQ PUSH2 0x65B JUMPI PUSH1 0x0 DUP1 REVERT JUMPDEST POP JUMP JUMPDEST PUSH1 0x0 DUP2 CALLDATALOAD SWAP1 POP PUSH2 0x66D DUP2 PUSH2 0x647 JUMP JUMPDEST SWAP3 SWAP2 POP POP JUMP JUMPDEST PUSH1 0x0 PUSH1 0x20 DUP3 DUP5 SUB SLT ISZERO PUSH2 0x689 JUMPI PUSH2 0x688 PUSH2 0x610 JUMP JUMPDEST JUMPDEST PUSH1 0x0 PUSH2 0x697 DUP5 DUP3 DUP6 ADD PUSH2 0x65E JUMP JUMPDEST SWAP2 POP POP SWAP3 SWAP2 POP POP JUMP JUMPDEST PUSH2 0x6A9 DUP2 PUSH2 0x5DC JUMP JUMPDEST DUP2 EQ PUSH2 0x6B4 JUMPI PUSH1 0x0 DUP1 REVERT JUMPDEST POP JUMP JUMPDEST PUSH1 0x0 DUP2 CALLDATALOAD SWAP1 POP PUSH2 0x6C6 DUP2 PUSH2 0x6A0 JUMP JUMPDEST SWAP3 SWAP2 POP POP JUMP JUMPDEST PUSH1 0x0 DUP1 PUSH1 0x40 DUP4 DUP6 SUB SLT ISZERO PUSH2 0x6E3 JUMPI PUSH2 0x6E2 PUSH2 0x610 JUMP JUMPDEST JUMPDEST PUSH1 0x0 PUSH2 0x6F1 DUP6 DUP3 DUP7 ADD PUSH2 0x65E JUMP JUMPDEST SWAP3 POP POP PUSH1 0x20 PUSH2 0x702 DUP6 DUP3 DUP7 ADD PUSH2 0x6B7 JUMP JUMPDEST SWAP2 POP POP SWAP3 POP SWAP3 SWAP1 POP JUMP JUMPDEST PUSH1 0x0 DUP2 SWAP1 POP SWAP2 SWAP1 POP JUMP JUMPDEST PUSH1 0x0 PUSH2 0x731 PUSH2 0x72C PUSH2 0x727 DUP5 PUSH2 0x615 JUMP JUMPDEST PUSH2 0x70C JUMP JUMPDEST PUSH2 0x615 JUMP JUMPDEST SWAP1 POP SWAP2 SWAP1 POP JUMP JUMPDEST PUSH1 0x0 PUSH2 0x743 DUP3 PUSH2 0x716 JUMP JUMPDEST SWAP1 POP SWAP2 SWAP1 POP JUMP JUMPDEST PUSH1 0x0 PUSH2 0x755 DUP3 PUSH2 0x738 JUMP JUMPDEST SWAP1 POP SWAP2 SWAP1 POP JUMP JUMPDEST PUSH2 0x765 DUP2 PUSH2 0x74A JUMP JUMPDEST DUP3 MSTORE POP POP JUMP JUMPDEST PUSH1 0x0 PUSH1 0x20 DUP3 ADD SWAP1 POP PUSH2 0x780 PUSH1 0x0 DUP4 ADD DUP5 PUSH2 0x75C JUMP JUMPDEST SWAP3 SWAP2 POP POP JUMP JUMPDEST PUSH2 0x78F DUP2 PUSH2 0x635 JUMP JUMPDEST DUP3 MSTORE POP POP JUMP JUMPDEST PUSH1 0x0 PUSH1 0x40 DUP3 ADD SWAP1 POP PUSH2 0x7AA PUSH1 0x0 DUP4 ADD DUP6 PUSH2 0x786 JUMP JUMPDEST PUSH2 0x7B7 PUSH1 0x20 DUP4 ADD DUP5 PUSH2 0x5E6 JUMP JUMPDEST SWAP4 SWAP3 POP POP POP JUMP JUMPDEST PUSH1 0x0 DUP2 ISZERO ISZERO SWAP1 POP SWAP2 SWAP1 POP JUMP JUMPDEST PUSH2 0x7D3 DUP2 PUSH2 0x7BE JUMP JUMPDEST DUP2 EQ PUSH2 0x7DE JUMPI PUSH1 0x0 DUP1 REVERT JUMPDEST POP JUMP JUMPDEST PUSH1 0x0 DUP2 MLOAD SWAP1 POP PUSH2 0x7F0 DUP2 PUSH2 0x7CA JUMP JUMPDEST SWAP3 SWAP2 POP POP JUMP JUMPDEST PUSH1 0x0 PUSH1 0x20 DUP3 DUP5 SUB SLT ISZERO PUSH2 0x80C JUMPI PUSH2 0x80B PUSH2 0x610 JUMP JUMPDEST JUMPDEST PUSH1 0x0 PUSH2 0x81A DUP5 DUP3 DUP6 ADD PUSH2 0x7E1 JUMP JUMPDEST SWAP2 POP POP SWAP3 SWAP2 POP POP JUMP JUMPDEST PUSH32 0x4E487B7100000000000000000000000000000000000000000000000000000000 PUSH1 0x0 MSTORE PUSH1 0x11 PUSH1 0x4 MSTORE PUSH1 0x24 PUSH1 0x0 REVERT JUMPDEST PUSH1 0x0 PUSH2 0x85D DUP3 PUSH2 0x5DC JUMP JUMPDEST SWAP2 POP PUSH2 0x868 DUP4 PUSH2 0x5DC JUMP JUMPDEST SWAP3 POP DUP3 DUP3 SUB SWAP1 POP DUP2 DUP2 GT ISZERO PUSH2 0x880 JUMPI PUSH2 0x87F PUSH2 0x823 JUMP JUMPDEST JUMPDEST SWAP3 SWAP2 POP POP JUMP JUMPDEST PUSH32 0x4E487B7100000000000000000000000000000000000000000000000000000000 PUSH1 0x0 MSTORE PUSH1 0x12 PUSH1 0x4 MSTORE PUSH1 0x24 PUSH1 0x0 REVERT JUMPDEST PUSH1 0x0 PUSH2 0x8C0 DUP3 PUSH2 0x5DC JUMP JUMPDEST SWAP2 POP PUSH2 0x8CB DUP4 PUSH2 0x5DC JUMP JUMPDEST SWAP3 POP DUP3 PUSH2 0x8DB JUMPI PUSH2 0x8DA PUSH2 0x886 JUMP JUMPDEST JUMPDEST DUP3 DUP3 DIV SWAP1 POP SWAP3 SWAP2 POP POP JUMP JUMPDEST PUSH1 0x0 PUSH2 0x8F1 DUP3 PUSH2 0x5DC JUMP JUMPDEST SWAP2 POP PUSH2 0x8FC DUP4 PUSH2 0x5DC JUMP JUMPDEST SWAP3 POP DUP3 DUP3 MUL PUSH2 0x90A DUP2 PUSH2 0x5DC JUMP JUMPDEST SWAP2 POP DUP3 DUP3 DIV DUP5 EQ DUP4 ISZERO OR PUSH2 0x921 JUMPI PUSH2 0x920 PUSH2 0x823 JUMP JUMPDEST JUMPDEST POP SWAP3 SWAP2 POP POP JUMP INVALID LOG2 PUSH5 0x6970667358 0x22 SLT KECCAK256 0xD0 0xB5 0xB3 SGT DUP13 0xEE 0xF7 SIGNEXTEND 0x24 0x27 ADDMOD DUP11 0xD4 0xE3 0x26 0xB5 PREVRANDAO 0xDE ISZERO 0xCE 0xBB CREATE 0x28 0xF DUP14 0xDF PUSH25 0x3EDCB1617464736F6C63430008120033000000000000000000 "
				},
				"gasEstimates": {
					"creation": {
						"codeDepositCost": "479600",
						"executionCost": "infinite",
						"totalCost": "infinite"
					},
					"external": {
						"cliff()": "2452",
						"duration()": "2430",
						"lockTokens(address,uint256)": "infinite",
						"releasableTokens(address)": "infinite",
						"releaseTokens(address)": "infinite",
						"releasedTokens(address)": "2881",
						"slicePeriod()": "2474",
						"startTime()": "2518",
						"token()": "infinite",
						"totalTokens(address)": "2880"
					}
				},
				"methodIdentifiers": {
					"cliff()": "13d033c0",
					"duration()": "0fb5a6b4",
					"lockTokens(address,uint256)": "b1c25586",
					"releasableTokens(address)": "c4684e9d",
					"releaseTokens(address)": "87b0be48",
					"releasedTokens(address)": "70ff852b",
					"slicePeriod()": "5afd6eb8",
					"startTime()": "78e97925",
					"token()": "fc0c546a",
					"totalTokens(address)": "cb9199a2"
				}
			},
			"storageLayout": {
				"storage": [
					{
						"astId": 82,
						"contract": "contracts/TokenVesting.sol:TokenVesting",
						"label": "duration",
						"offset": 0,
						"slot": "0",
						"type": "t_uint256"
					},
					{
						"astId": 84,
						"contract": "contracts/TokenVesting.sol:TokenVesting",
						"label": "cliff",
						"offset": 0,
						"slot": "1",
						"type": "t_uint256"
					},
					{
						"astId": 86,
						"contract": "contracts/TokenVesting.sol:TokenVesting",
						"label": "slicePeriod",
						"offset": 0,
						"slot": "2",
						"type": "t_uint256"
					},
					{
						"astId": 88,
						"contract": "contracts/TokenVesting.sol:TokenVesting",
						"label": "startTime",
						"offset": 0,
						"slot": "3",
						"type": "t_uint256"
					},
					{
						"astId": 92,
						"contract": "contracts/TokenVesting.sol:TokenVesting",
						"label": "beneficiaries",
						"offset": 0,
						"slot": "4",
						"type": "t_mapping(t_address,t_uint256)"
					},
					{
						"astId": 96,
						"contract": "contracts/TokenVesting.sol:TokenVesting",
						"label": "totalTokens",
						"offset": 0,
						"slot": "5",
						"type": "t_mapping(t_address,t_uint256)"
					},
					{
						"astId": 100,
						"contract": "contracts/TokenVesting.sol:TokenVesting",
						"label": "releasedTokens",
						"offset": 0,
						"slot": "6",
						"type": "t_mapping(t_address,t_uint256)"
					},
					{
						"astId": 103,
						"contract": "contracts/TokenVesting.sol:TokenVesting",
						"label": "token",
						"offset": 0,
						"slot": "7",
						"type": "t_contract(IERC20)77"
					}
				],
				"types": {
					"t_address": {
						"encoding": "inplace",
						"label": "address",
						"numberOfBytes": "20"
					},
					"t_contract(IERC20)77": {
						"encoding": "inplace",
						"label": "contract IERC20",
						"numberOfBytes": "20"
					},
					"t_mapping(t_address,t_uint256)": {
						"encoding": "mapping",
						"key": "t_address",
						"label": "mapping(address => uint256)",
						"numberOfBytes": "32",
						"value": "t_uint256"
					},
					"t_uint256": {
						"encoding": "inplace",
						"label": "uint256",
						"numberOfBytes": "32"
					}
				}
			},
			"userdoc": {
				"kind": "user",
				"methods": {},
				"version": 1
			}
		}
	}
}