{
	"contracts/Vesting.sol": {
		"Vesting": {
			"abi": [
				{
					"inputs": [
						{
							"internalType": "address[]",
							"name": "_beneficiaries",
							"type": "address[]"
						},
						{
							"internalType": "uint256",
							"name": "_slicePeriod",
							"type": "uint256"
						},
						{
							"internalType": "uint256",
							"name": "_cliff",
							"type": "uint256"
						},
						{
							"internalType": "uint256",
							"name": "_duration",
							"type": "uint256"
						},
						{
							"internalType": "address",
							"name": "_token",
							"type": "address"
						},
						{
							"internalType": "uint256",
							"name": "_startTime",
							"type": "uint256"
						}
					],
					"stateMutability": "nonpayable",
					"type": "constructor"
				},
				{
					"inputs": [
						{
							"internalType": "address",
							"name": "_newBeneficiary",
							"type": "address"
						},
						{
							"internalType": "uint256",
							"name": "_tokensToLock",
							"type": "uint256"
						}
					],
					"name": "addBeneificiary",
					"outputs": [],
					"stateMutability": "nonpayable",
					"type": "function"
				},
				{
					"inputs": [],
					"name": "cliff",
					"outputs": [
						{
							"internalType": "uint256",
							"name": "",
							"type": "uint256"
						}
					],
					"stateMutability": "view",
					"type": "function"
				},
				{
					"inputs": [],
					"name": "duration",
					"outputs": [
						{
							"internalType": "uint256",
							"name": "",
							"type": "uint256"
						}
					],
					"stateMutability": "view",
					"type": "function"
				},
				{
					"inputs": [],
					"name": "getContractBalance",
					"outputs": [
						{
							"internalType": "uint256",
							"name": "",
							"type": "uint256"
						}
					],
					"stateMutability": "view",
					"type": "function"
				},
				{
					"inputs": [
						{
							"internalType": "address",
							"name": "beneficiary",
							"type": "address"
						}
					],
					"name": "lockTokens",
					"outputs": [],
					"stateMutability": "payable",
					"type": "function"
				},
				{
					"inputs": [
						{
							"internalType": "address",
							"name": "_beneficiary",
							"type": "address"
						}
					],
					"name": "release",
					"outputs": [],
					"stateMutability": "payable",
					"type": "function"
				},
				{
					"inputs": [
						{
							"internalType": "address",
							"name": "_beneficiary",
							"type": "address"
						}
					],
					"name": "showTokenOfBeneficiary",
					"outputs": [
						{
							"internalType": "uint256",
							"name": "",
							"type": "uint256"
						}
					],
					"stateMutability": "view",
					"type": "function"
				},
				{
					"inputs": [],
					"name": "slicePeriod",
					"outputs": [
						{
							"internalType": "uint256",
							"name": "",
							"type": "uint256"
						}
					],
					"stateMutability": "view",
					"type": "function"
				},
				{
					"inputs": [],
					"name": "startTime",
					"outputs": [
						{
							"internalType": "uint256",
							"name": "",
							"type": "uint256"
						}
					],
					"stateMutability": "view",
					"type": "function"
				},
				{
					"inputs": [],
					"name": "token",
					"outputs": [
						{
							"internalType": "contract IERC20",
							"name": "",
							"type": "address"
						}
					],
					"stateMutability": "view",
					"type": "function"
				},
				{
					"inputs": [],
					"name": "tokensReleased",
					"outputs": [
						{
							"internalType": "uint256",
							"name": "",
							"type": "uint256"
						}
					],
					"stateMutability": "view",
					"type": "function"
				},
				{
					"inputs": [
						{
							"internalType": "address",
							"name": "beneficiary",
							"type": "address"
						}
					],
					"name": "vestingTokens",
					"outputs": [
						{
							"internalType": "uint256",
							"name": "",
							"type": "uint256"
						}
					],
					"stateMutability": "view",
					"type": "function"
				}
			],
			"devdoc": {
				"kind": "dev",
				"methods": {},
				"version": 1
			},
			"evm": {
				"assembly": "    /* \"contracts/Vesting.sol\":115:2853  contract Vesting{... */\n  mstore(0x40, 0x80)\n    /* \"contracts/Vesting.sol\":487:876  constructor(address[] memory _beneficiaries, uint _slicePeriod,uint _cliff, uint _duration,address _token ,uint _startTime){  ... */\n  callvalue\n  dup1\n  iszero\n  tag_1\n  jumpi\n  0x00\n  dup1\n  revert\ntag_1:\n  pop\n  mload(0x40)\n  sub(codesize, bytecodeSize)\n  dup1\n  bytecodeSize\n  dup4\n  codecopy\n  dup2\n  dup2\n  add\n  0x40\n  mstore\n  dup2\n  add\n  swap1\n  tag_2\n  swap2\n  swap1\n  tag_3\n  jump\t// in\ntag_2:\n    /* \"contracts/Vesting.sol\":634:646  _slicePeriod */\n  dup5\n    /* \"contracts/Vesting.sol\":622:633  slicePeriod */\n  0x00\n    /* \"contracts/Vesting.sol\":622:646  slicePeriod=_slicePeriod */\n  dup2\n  swap1\n  sstore\n  pop\n    /* \"contracts/Vesting.sol\":673:679  _cliff */\n  dup4\n    /* \"contracts/Vesting.sol\":662:672  _startTime */\n  dup2\n    /* \"contracts/Vesting.sol\":662:679  _startTime+_cliff */\n  tag_6\n  swap2\n  swap1\n  tag_7\n  jump\t// in\ntag_6:\n    /* \"contracts/Vesting.sol\":656:661  cliff */\n  0x01\n    /* \"contracts/Vesting.sol\":656:679  cliff=_startTime+_cliff */\n  dup2\n  swap1\n  sstore\n  pop\n    /* \"contracts/Vesting.sol\":698:707  _duration */\n  dup3\n    /* \"contracts/Vesting.sol\":689:697  duration */\n  0x02\n    /* \"contracts/Vesting.sol\":689:707  duration=_duration */\n  dup2\n  swap1\n  sstore\n  pop\n    /* \"contracts/Vesting.sol\":730:736  _token */\n  dup2\n    /* \"contracts/Vesting.sol\":717:722  token */\n  0x08\n  0x00\n    /* \"contracts/Vesting.sol\":717:737  token=IERC20(_token) */\n  0x0100\n  exp\n  dup2\n  sload\n  dup2\n  0xffffffffffffffffffffffffffffffffffffffff\n  mul\n  not\n  and\n  swap1\n  dup4\n  0xffffffffffffffffffffffffffffffffffffffff\n  and\n  mul\n  or\n  swap1\n  sstore\n  pop\n    /* \"contracts/Vesting.sol\":753:763  msg.sender */\n  caller\n    /* \"contracts/Vesting.sol\":747:752  owner */\n  0x05\n  0x00\n    /* \"contracts/Vesting.sol\":747:763  owner=msg.sender */\n  0x0100\n  exp\n  dup2\n  sload\n  dup2\n  0xffffffffffffffffffffffffffffffffffffffff\n  mul\n  not\n  and\n  swap1\n  dup4\n  0xffffffffffffffffffffffffffffffffffffffff\n  and\n  mul\n  or\n  swap1\n  sstore\n  pop\n    /* \"contracts/Vesting.sol\":783:793  _startTime */\n  dup1\n    /* \"contracts/Vesting.sol\":773:782  startTime */\n  0x04\n    /* \"contracts/Vesting.sol\":773:793  startTime=_startTime */\n  dup2\n  swap1\n  sstore\n  pop\n    /* \"contracts/Vesting.sol\":839:840  0 */\n  0x00\n    /* \"contracts/Vesting.sol\":817:831  _beneficiaries */\n  dup7\n    /* \"contracts/Vesting.sol\":817:838  _beneficiaries.length */\n  mload\n    /* \"contracts/Vesting.sol\":817:840  _beneficiaries.length>0 */\n  gt\n    /* \"contracts/Vesting.sol\":809:869  require(_beneficiaries.length>0,\"No Beneficiaries provided\") */\n  tag_8\n  jumpi\n  mload(0x40)\n  0x08c379a000000000000000000000000000000000000000000000000000000000\n  dup2\n  mstore\n  0x04\n  add\n  tag_9\n  swap1\n  tag_10\n  jump\t// in\ntag_9:\n  mload(0x40)\n  dup1\n  swap2\n  sub\n  swap1\n  revert\ntag_8:\n    /* \"contracts/Vesting.sol\":487:876  constructor(address[] memory _beneficiaries, uint _slicePeriod,uint _cliff, uint _duration,address _token ,uint _startTime){  ... */\n  pop\n  pop\n  pop\n  pop\n  pop\n  pop\n    /* \"contracts/Vesting.sol\":115:2853  contract Vesting{... */\n  jump(tag_11)\n    /* \"#utility.yul\":7:82   */\ntag_12:\n    /* \"#utility.yul\":40:46   */\n  0x00\n    /* \"#utility.yul\":73:75   */\n  0x40\n    /* \"#utility.yul\":67:76   */\n  mload\n    /* \"#utility.yul\":57:76   */\n  swap1\n  pop\n    /* \"#utility.yul\":7:82   */\n  swap1\n  jump\t// out\n    /* \"#utility.yul\":88:205   */\ntag_13:\n    /* \"#utility.yul\":197:198   */\n  0x00\n    /* \"#utility.yul\":194:195   */\n  dup1\n    /* \"#utility.yul\":187:199   */\n  revert\n    /* \"#utility.yul\":211:328   */\ntag_14:\n    /* \"#utility.yul\":320:321   */\n  0x00\n    /* \"#utility.yul\":317:318   */\n  dup1\n    /* \"#utility.yul\":310:322   */\n  revert\n    /* \"#utility.yul\":334:451   */\ntag_15:\n    /* \"#utility.yul\":443:444   */\n  0x00\n    /* \"#utility.yul\":440:441   */\n  dup1\n    /* \"#utility.yul\":433:445   */\n  revert\n    /* \"#utility.yul\":457:559   */\ntag_16:\n    /* \"#utility.yul\":498:504   */\n  0x00\n    /* \"#utility.yul\":549:551   */\n  0x1f\n    /* \"#utility.yul\":545:552   */\n  not\n    /* \"#utility.yul\":540:542   */\n  0x1f\n    /* \"#utility.yul\":533:538   */\n  dup4\n    /* \"#utility.yul\":529:543   */\n  add\n    /* \"#utility.yul\":525:553   */\n  and\n    /* \"#utility.yul\":515:553   */\n  swap1\n  pop\n    /* \"#utility.yul\":457:559   */\n  swap2\n  swap1\n  pop\n  jump\t// out\n    /* \"#utility.yul\":565:745   */\ntag_17:\n    /* \"#utility.yul\":613:690   */\n  0x4e487b7100000000000000000000000000000000000000000000000000000000\n    /* \"#utility.yul\":610:611   */\n  0x00\n    /* \"#utility.yul\":603:691   */\n  mstore\n    /* \"#utility.yul\":710:714   */\n  0x41\n    /* \"#utility.yul\":707:708   */\n  0x04\n    /* \"#utility.yul\":700:715   */\n  mstore\n    /* \"#utility.yul\":734:738   */\n  0x24\n    /* \"#utility.yul\":731:732   */\n  0x00\n    /* \"#utility.yul\":724:739   */\n  revert\n    /* \"#utility.yul\":751:1032   */\ntag_18:\n    /* \"#utility.yul\":834:861   */\n  tag_43\n    /* \"#utility.yul\":856:860   */\n  dup3\n    /* \"#utility.yul\":834:861   */\n  tag_16\n  jump\t// in\ntag_43:\n    /* \"#utility.yul\":826:832   */\n  dup2\n    /* \"#utility.yul\":822:862   */\n  add\n    /* \"#utility.yul\":964:970   */\n  dup2\n    /* \"#utility.yul\":952:962   */\n  dup2\n    /* \"#utility.yul\":949:971   */\n  lt\n    /* \"#utility.yul\":928:946   */\n  0xffffffffffffffff\n    /* \"#utility.yul\":916:926   */\n  dup3\n    /* \"#utility.yul\":913:947   */\n  gt\n    /* \"#utility.yul\":910:972   */\n  or\n    /* \"#utility.yul\":907:995   */\n  iszero\n  tag_44\n  jumpi\n    /* \"#utility.yul\":975:993   */\n  tag_45\n  tag_17\n  jump\t// in\ntag_45:\n    /* \"#utility.yul\":907:995   */\ntag_44:\n    /* \"#utility.yul\":1015:1025   */\n  dup1\n    /* \"#utility.yul\":1011:1013   */\n  0x40\n    /* \"#utility.yul\":1004:1026   */\n  mstore\n    /* \"#utility.yul\":794:1032   */\n  pop\n    /* \"#utility.yul\":751:1032   */\n  pop\n  pop\n  jump\t// out\n    /* \"#utility.yul\":1038:1167   */\ntag_19:\n    /* \"#utility.yul\":1072:1078   */\n  0x00\n    /* \"#utility.yul\":1099:1119   */\n  tag_47\n  tag_12\n  jump\t// in\ntag_47:\n    /* \"#utility.yul\":1089:1119   */\n  swap1\n  pop\n    /* \"#utility.yul\":1128:1161   */\n  tag_48\n    /* \"#utility.yul\":1156:1160   */\n  dup3\n    /* \"#utility.yul\":1148:1154   */\n  dup3\n    /* \"#utility.yul\":1128:1161   */\n  tag_18\n  jump\t// in\ntag_48:\n    /* \"#utility.yul\":1038:1167   */\n  swap2\n  swap1\n  pop\n  jump\t// out\n    /* \"#utility.yul\":1173:1484   */\ntag_20:\n    /* \"#utility.yul\":1250:1254   */\n  0x00\n    /* \"#utility.yul\":1340:1358   */\n  0xffffffffffffffff\n    /* \"#utility.yul\":1332:1338   */\n  dup3\n    /* \"#utility.yul\":1329:1359   */\n  gt\n    /* \"#utility.yul\":1326:1382   */\n  iszero\n  tag_50\n  jumpi\n    /* \"#utility.yul\":1362:1380   */\n  tag_51\n  tag_17\n  jump\t// in\ntag_51:\n    /* \"#utility.yul\":1326:1382   */\ntag_50:\n    /* \"#utility.yul\":1412:1416   */\n  0x20\n    /* \"#utility.yul\":1404:1410   */\n  dup3\n    /* \"#utility.yul\":1400:1417   */\n  mul\n    /* \"#utility.yul\":1392:1417   */\n  swap1\n  pop\n    /* \"#utility.yul\":1472:1476   */\n  0x20\n    /* \"#utility.yul\":1466:1470   */\n  dup2\n    /* \"#utility.yul\":1462:1477   */\n  add\n    /* \"#utility.yul\":1454:1477   */\n  swap1\n  pop\n    /* \"#utility.yul\":1173:1484   */\n  swap2\n  swap1\n  pop\n  jump\t// out\n    /* \"#utility.yul\":1490:1607   */\ntag_21:\n    /* \"#utility.yul\":1599:1600   */\n  0x00\n    /* \"#utility.yul\":1596:1597   */\n  dup1\n    /* \"#utility.yul\":1589:1601   */\n  revert\n    /* \"#utility.yul\":1613:1739   */\ntag_22:\n    /* \"#utility.yul\":1650:1657   */\n  0x00\n    /* \"#utility.yul\":1690:1732   */\n  0xffffffffffffffffffffffffffffffffffffffff\n    /* \"#utility.yul\":1683:1688   */\n  dup3\n    /* \"#utility.yul\":1679:1733   */\n  and\n    /* \"#utility.yul\":1668:1733   */\n  swap1\n  pop\n    /* \"#utility.yul\":1613:1739   */\n  swap2\n  swap1\n  pop\n  jump\t// out\n    /* \"#utility.yul\":1745:1841   */\ntag_23:\n    /* \"#utility.yul\":1782:1789   */\n  0x00\n    /* \"#utility.yul\":1811:1835   */\n  tag_55\n    /* \"#utility.yul\":1829:1834   */\n  dup3\n    /* \"#utility.yul\":1811:1835   */\n  tag_22\n  jump\t// in\ntag_55:\n    /* \"#utility.yul\":1800:1835   */\n  swap1\n  pop\n    /* \"#utility.yul\":1745:1841   */\n  swap2\n  swap1\n  pop\n  jump\t// out\n    /* \"#utility.yul\":1847:1969   */\ntag_24:\n    /* \"#utility.yul\":1920:1944   */\n  tag_57\n    /* \"#utility.yul\":1938:1943   */\n  dup2\n    /* \"#utility.yul\":1920:1944   */\n  tag_23\n  jump\t// in\ntag_57:\n    /* \"#utility.yul\":1913:1918   */\n  dup2\n    /* \"#utility.yul\":1910:1945   */\n  eq\n    /* \"#utility.yul\":1900:1963   */\n  tag_58\n  jumpi\n    /* \"#utility.yul\":1959:1960   */\n  0x00\n    /* \"#utility.yul\":1956:1957   */\n  dup1\n    /* \"#utility.yul\":1949:1961   */\n  revert\n    /* \"#utility.yul\":1900:1963   */\ntag_58:\n    /* \"#utility.yul\":1847:1969   */\n  pop\n  jump\t// out\n    /* \"#utility.yul\":1975:2118   */\ntag_25:\n    /* \"#utility.yul\":2032:2037   */\n  0x00\n    /* \"#utility.yul\":2063:2069   */\n  dup2\n    /* \"#utility.yul\":2057:2070   */\n  mload\n    /* \"#utility.yul\":2048:2070   */\n  swap1\n  pop\n    /* \"#utility.yul\":2079:2112   */\n  tag_60\n    /* \"#utility.yul\":2106:2111   */\n  dup2\n    /* \"#utility.yul\":2079:2112   */\n  tag_24\n  jump\t// in\ntag_60:\n    /* \"#utility.yul\":1975:2118   */\n  swap3\n  swap2\n  pop\n  pop\n  jump\t// out\n    /* \"#utility.yul\":2141:2873   */\ntag_26:\n    /* \"#utility.yul\":2248:2253   */\n  0x00\n    /* \"#utility.yul\":2273:2354   */\n  tag_62\n    /* \"#utility.yul\":2289:2353   */\n  tag_63\n    /* \"#utility.yul\":2346:2352   */\n  dup5\n    /* \"#utility.yul\":2289:2353   */\n  tag_20\n  jump\t// in\ntag_63:\n    /* \"#utility.yul\":2273:2354   */\n  tag_19\n  jump\t// in\ntag_62:\n    /* \"#utility.yul\":2264:2354   */\n  swap1\n  pop\n    /* \"#utility.yul\":2374:2379   */\n  dup1\n    /* \"#utility.yul\":2403:2409   */\n  dup4\n    /* \"#utility.yul\":2396:2401   */\n  dup3\n    /* \"#utility.yul\":2389:2410   */\n  mstore\n    /* \"#utility.yul\":2437:2441   */\n  0x20\n    /* \"#utility.yul\":2430:2435   */\n  dup3\n    /* \"#utility.yul\":2426:2442   */\n  add\n    /* \"#utility.yul\":2419:2442   */\n  swap1\n  pop\n    /* \"#utility.yul\":2490:2494   */\n  0x20\n    /* \"#utility.yul\":2482:2488   */\n  dup5\n    /* \"#utility.yul\":2478:2495   */\n  mul\n    /* \"#utility.yul\":2470:2476   */\n  dup4\n    /* \"#utility.yul\":2466:2496   */\n  add\n    /* \"#utility.yul\":2519:2522   */\n  dup6\n    /* \"#utility.yul\":2511:2517   */\n  dup2\n    /* \"#utility.yul\":2508:2523   */\n  gt\n    /* \"#utility.yul\":2505:2627   */\n  iszero\n  tag_64\n  jumpi\n    /* \"#utility.yul\":2538:2617   */\n  tag_65\n  tag_21\n  jump\t// in\ntag_65:\n    /* \"#utility.yul\":2505:2627   */\ntag_64:\n    /* \"#utility.yul\":2653:2659   */\n  dup4\n    /* \"#utility.yul\":2636:2867   */\ntag_66:\n    /* \"#utility.yul\":2670:2676   */\n  dup2\n    /* \"#utility.yul\":2665:2668   */\n  dup2\n    /* \"#utility.yul\":2662:2677   */\n  lt\n    /* \"#utility.yul\":2636:2867   */\n  iszero\n  tag_68\n  jumpi\n    /* \"#utility.yul\":2745:2748   */\n  dup1\n    /* \"#utility.yul\":2774:2822   */\n  tag_69\n    /* \"#utility.yul\":2818:2821   */\n  dup9\n    /* \"#utility.yul\":2806:2816   */\n  dup3\n    /* \"#utility.yul\":2774:2822   */\n  tag_25\n  jump\t// in\ntag_69:\n    /* \"#utility.yul\":2769:2772   */\n  dup5\n    /* \"#utility.yul\":2762:2823   */\n  mstore\n    /* \"#utility.yul\":2852:2856   */\n  0x20\n    /* \"#utility.yul\":2847:2850   */\n  dup5\n    /* \"#utility.yul\":2843:2857   */\n  add\n    /* \"#utility.yul\":2836:2857   */\n  swap4\n  pop\n    /* \"#utility.yul\":2712:2867   */\n  pop\n    /* \"#utility.yul\":2696:2700   */\n  0x20\n    /* \"#utility.yul\":2691:2694   */\n  dup2\n    /* \"#utility.yul\":2687:2701   */\n  add\n    /* \"#utility.yul\":2680:2701   */\n  swap1\n  pop\n    /* \"#utility.yul\":2636:2867   */\n  jump(tag_66)\ntag_68:\n    /* \"#utility.yul\":2640:2661   */\n  pop\n    /* \"#utility.yul\":2254:2873   */\n  pop\n  pop\n    /* \"#utility.yul\":2141:2873   */\n  swap4\n  swap3\n  pop\n  pop\n  pop\n  jump\t// out\n    /* \"#utility.yul\":2896:3281   */\ntag_27:\n    /* \"#utility.yul\":2978:2983   */\n  0x00\n    /* \"#utility.yul\":3027:3030   */\n  dup3\n    /* \"#utility.yul\":3020:3024   */\n  0x1f\n    /* \"#utility.yul\":3012:3018   */\n  dup4\n    /* \"#utility.yul\":3008:3025   */\n  add\n    /* \"#utility.yul\":3004:3031   */\n  slt\n    /* \"#utility.yul\":2994:3116   */\n  tag_71\n  jumpi\n    /* \"#utility.yul\":3035:3114   */\n  tag_72\n  tag_15\n  jump\t// in\ntag_72:\n    /* \"#utility.yul\":2994:3116   */\ntag_71:\n    /* \"#utility.yul\":3145:3151   */\n  dup2\n    /* \"#utility.yul\":3139:3152   */\n  mload\n    /* \"#utility.yul\":3170:3275   */\n  tag_73\n    /* \"#utility.yul\":3271:3274   */\n  dup5\n    /* \"#utility.yul\":3263:3269   */\n  dup3\n    /* \"#utility.yul\":3256:3260   */\n  0x20\n    /* \"#utility.yul\":3248:3254   */\n  dup7\n    /* \"#utility.yul\":3244:3261   */\n  add\n    /* \"#utility.yul\":3170:3275   */\n  tag_26\n  jump\t// in\ntag_73:\n    /* \"#utility.yul\":3161:3275   */\n  swap2\n  pop\n    /* \"#utility.yul\":2984:3281   */\n  pop\n    /* \"#utility.yul\":2896:3281   */\n  swap3\n  swap2\n  pop\n  pop\n  jump\t// out\n    /* \"#utility.yul\":3287:3364   */\ntag_28:\n    /* \"#utility.yul\":3324:3331   */\n  0x00\n    /* \"#utility.yul\":3353:3358   */\n  dup2\n    /* \"#utility.yul\":3342:3358   */\n  swap1\n  pop\n    /* \"#utility.yul\":3287:3364   */\n  swap2\n  swap1\n  pop\n  jump\t// out\n    /* \"#utility.yul\":3370:3492   */\ntag_29:\n    /* \"#utility.yul\":3443:3467   */\n  tag_76\n    /* \"#utility.yul\":3461:3466   */\n  dup2\n    /* \"#utility.yul\":3443:3467   */\n  tag_28\n  jump\t// in\ntag_76:\n    /* \"#utility.yul\":3436:3441   */\n  dup2\n    /* \"#utility.yul\":3433:3468   */\n  eq\n    /* \"#utility.yul\":3423:3486   */\n  tag_77\n  jumpi\n    /* \"#utility.yul\":3482:3483   */\n  0x00\n    /* \"#utility.yul\":3479:3480   */\n  dup1\n    /* \"#utility.yul\":3472:3484   */\n  revert\n    /* \"#utility.yul\":3423:3486   */\ntag_77:\n    /* \"#utility.yul\":3370:3492   */\n  pop\n  jump\t// out\n    /* \"#utility.yul\":3498:3641   */\ntag_30:\n    /* \"#utility.yul\":3555:3560   */\n  0x00\n    /* \"#utility.yul\":3586:3592   */\n  dup2\n    /* \"#utility.yul\":3580:3593   */\n  mload\n    /* \"#utility.yul\":3571:3593   */\n  swap1\n  pop\n    /* \"#utility.yul\":3602:3635   */\n  tag_79\n    /* \"#utility.yul\":3629:3634   */\n  dup2\n    /* \"#utility.yul\":3602:3635   */\n  tag_29\n  jump\t// in\ntag_79:\n    /* \"#utility.yul\":3498:3641   */\n  swap3\n  swap2\n  pop\n  pop\n  jump\t// out\n    /* \"#utility.yul\":3647:4984   */\ntag_3:\n    /* \"#utility.yul\":3787:3793   */\n  0x00\n    /* \"#utility.yul\":3795:3801   */\n  dup1\n    /* \"#utility.yul\":3803:3809   */\n  0x00\n    /* \"#utility.yul\":3811:3817   */\n  dup1\n    /* \"#utility.yul\":3819:3825   */\n  0x00\n    /* \"#utility.yul\":3827:3833   */\n  dup1\n    /* \"#utility.yul\":3876:3879   */\n  0xc0\n    /* \"#utility.yul\":3864:3873   */\n  dup8\n    /* \"#utility.yul\":3855:3862   */\n  dup10\n    /* \"#utility.yul\":3851:3874   */\n  sub\n    /* \"#utility.yul\":3847:3880   */\n  slt\n    /* \"#utility.yul\":3844:3964   */\n  iszero\n  tag_81\n  jumpi\n    /* \"#utility.yul\":3883:3962   */\n  tag_82\n  tag_13\n  jump\t// in\ntag_82:\n    /* \"#utility.yul\":3844:3964   */\ntag_81:\n    /* \"#utility.yul\":4024:4025   */\n  0x00\n    /* \"#utility.yul\":4013:4022   */\n  dup8\n    /* \"#utility.yul\":4009:4026   */\n  add\n    /* \"#utility.yul\":4003:4027   */\n  mload\n    /* \"#utility.yul\":4054:4072   */\n  0xffffffffffffffff\n    /* \"#utility.yul\":4046:4052   */\n  dup2\n    /* \"#utility.yul\":4043:4073   */\n  gt\n    /* \"#utility.yul\":4040:4157   */\n  iszero\n  tag_83\n  jumpi\n    /* \"#utility.yul\":4076:4155   */\n  tag_84\n  tag_14\n  jump\t// in\ntag_84:\n    /* \"#utility.yul\":4040:4157   */\ntag_83:\n    /* \"#utility.yul\":4181:4270   */\n  tag_85\n    /* \"#utility.yul\":4262:4269   */\n  dup10\n    /* \"#utility.yul\":4253:4259   */\n  dup3\n    /* \"#utility.yul\":4242:4251   */\n  dup11\n    /* \"#utility.yul\":4238:4260   */\n  add\n    /* \"#utility.yul\":4181:4270   */\n  tag_27\n  jump\t// in\ntag_85:\n    /* \"#utility.yul\":4171:4270   */\n  swap7\n  pop\n    /* \"#utility.yul\":3974:4280   */\n  pop\n    /* \"#utility.yul\":4319:4321   */\n  0x20\n    /* \"#utility.yul\":4345:4409   */\n  tag_86\n    /* \"#utility.yul\":4401:4408   */\n  dup10\n    /* \"#utility.yul\":4392:4398   */\n  dup3\n    /* \"#utility.yul\":4381:4390   */\n  dup11\n    /* \"#utility.yul\":4377:4399   */\n  add\n    /* \"#utility.yul\":4345:4409   */\n  tag_30\n  jump\t// in\ntag_86:\n    /* \"#utility.yul\":4335:4409   */\n  swap6\n  pop\n    /* \"#utility.yul\":4290:4419   */\n  pop\n    /* \"#utility.yul\":4458:4460   */\n  0x40\n    /* \"#utility.yul\":4484:4548   */\n  tag_87\n    /* \"#utility.yul\":4540:4547   */\n  dup10\n    /* \"#utility.yul\":4531:4537   */\n  dup3\n    /* \"#utility.yul\":4520:4529   */\n  dup11\n    /* \"#utility.yul\":4516:4538   */\n  add\n    /* \"#utility.yul\":4484:4548   */\n  tag_30\n  jump\t// in\ntag_87:\n    /* \"#utility.yul\":4474:4548   */\n  swap5\n  pop\n    /* \"#utility.yul\":4429:4558   */\n  pop\n    /* \"#utility.yul\":4597:4599   */\n  0x60\n    /* \"#utility.yul\":4623:4687   */\n  tag_88\n    /* \"#utility.yul\":4679:4686   */\n  dup10\n    /* \"#utility.yul\":4670:4676   */\n  dup3\n    /* \"#utility.yul\":4659:4668   */\n  dup11\n    /* \"#utility.yul\":4655:4677   */\n  add\n    /* \"#utility.yul\":4623:4687   */\n  tag_30\n  jump\t// in\ntag_88:\n    /* \"#utility.yul\":4613:4687   */\n  swap4\n  pop\n    /* \"#utility.yul\":4568:4697   */\n  pop\n    /* \"#utility.yul\":4736:4739   */\n  0x80\n    /* \"#utility.yul\":4763:4827   */\n  tag_89\n    /* \"#utility.yul\":4819:4826   */\n  dup10\n    /* \"#utility.yul\":4810:4816   */\n  dup3\n    /* \"#utility.yul\":4799:4808   */\n  dup11\n    /* \"#utility.yul\":4795:4817   */\n  add\n    /* \"#utility.yul\":4763:4827   */\n  tag_25\n  jump\t// in\ntag_89:\n    /* \"#utility.yul\":4753:4827   */\n  swap3\n  pop\n    /* \"#utility.yul\":4707:4837   */\n  pop\n    /* \"#utility.yul\":4876:4879   */\n  0xa0\n    /* \"#utility.yul\":4903:4967   */\n  tag_90\n    /* \"#utility.yul\":4959:4966   */\n  dup10\n    /* \"#utility.yul\":4950:4956   */\n  dup3\n    /* \"#utility.yul\":4939:4948   */\n  dup11\n    /* \"#utility.yul\":4935:4957   */\n  add\n    /* \"#utility.yul\":4903:4967   */\n  tag_30\n  jump\t// in\ntag_90:\n    /* \"#utility.yul\":4893:4967   */\n  swap2\n  pop\n    /* \"#utility.yul\":4847:4977   */\n  pop\n    /* \"#utility.yul\":3647:4984   */\n  swap3\n  swap6\n  pop\n  swap3\n  swap6\n  pop\n  swap3\n  swap6\n  jump\t// out\n    /* \"#utility.yul\":4990:5170   */\ntag_31:\n    /* \"#utility.yul\":5038:5115   */\n  0x4e487b7100000000000000000000000000000000000000000000000000000000\n    /* \"#utility.yul\":5035:5036   */\n  0x00\n    /* \"#utility.yul\":5028:5116   */\n  mstore\n    /* \"#utility.yul\":5135:5139   */\n  0x11\n    /* \"#utility.yul\":5132:5133   */\n  0x04\n    /* \"#utility.yul\":5125:5140   */\n  mstore\n    /* \"#utility.yul\":5159:5163   */\n  0x24\n    /* \"#utility.yul\":5156:5157   */\n  0x00\n    /* \"#utility.yul\":5149:5164   */\n  revert\n    /* \"#utility.yul\":5176:5367   */\ntag_7:\n    /* \"#utility.yul\":5216:5219   */\n  0x00\n    /* \"#utility.yul\":5235:5255   */\n  tag_93\n    /* \"#utility.yul\":5253:5254   */\n  dup3\n    /* \"#utility.yul\":5235:5255   */\n  tag_28\n  jump\t// in\ntag_93:\n    /* \"#utility.yul\":5230:5255   */\n  swap2\n  pop\n    /* \"#utility.yul\":5269:5289   */\n  tag_94\n    /* \"#utility.yul\":5287:5288   */\n  dup4\n    /* \"#utility.yul\":5269:5289   */\n  tag_28\n  jump\t// in\ntag_94:\n    /* \"#utility.yul\":5264:5289   */\n  swap3\n  pop\n    /* \"#utility.yul\":5312:5313   */\n  dup3\n    /* \"#utility.yul\":5309:5310   */\n  dup3\n    /* \"#utility.yul\":5305:5314   */\n  add\n    /* \"#utility.yul\":5298:5314   */\n  swap1\n  pop\n    /* \"#utility.yul\":5333:5336   */\n  dup1\n    /* \"#utility.yul\":5330:5331   */\n  dup3\n    /* \"#utility.yul\":5327:5337   */\n  gt\n    /* \"#utility.yul\":5324:5360   */\n  iszero\n  tag_95\n  jumpi\n    /* \"#utility.yul\":5340:5358   */\n  tag_96\n  tag_31\n  jump\t// in\ntag_96:\n    /* \"#utility.yul\":5324:5360   */\ntag_95:\n    /* \"#utility.yul\":5176:5367   */\n  swap3\n  swap2\n  pop\n  pop\n  jump\t// out\n    /* \"#utility.yul\":5373:5542   */\ntag_32:\n    /* \"#utility.yul\":5457:5468   */\n  0x00\n    /* \"#utility.yul\":5491:5497   */\n  dup3\n    /* \"#utility.yul\":5486:5489   */\n  dup3\n    /* \"#utility.yul\":5479:5498   */\n  mstore\n    /* \"#utility.yul\":5531:5535   */\n  0x20\n    /* \"#utility.yul\":5526:5529   */\n  dup3\n    /* \"#utility.yul\":5522:5536   */\n  add\n    /* \"#utility.yul\":5507:5536   */\n  swap1\n  pop\n    /* \"#utility.yul\":5373:5542   */\n  swap3\n  swap2\n  pop\n  pop\n  jump\t// out\n    /* \"#utility.yul\":5548:5723   */\ntag_33:\n    /* \"#utility.yul\":5688:5715   */\n  0x4e6f2042656e656669636961726965732070726f766964656400000000000000\n    /* \"#utility.yul\":5684:5685   */\n  0x00\n    /* \"#utility.yul\":5676:5682   */\n  dup3\n    /* \"#utility.yul\":5672:5686   */\n  add\n    /* \"#utility.yul\":5665:5716   */\n  mstore\n    /* \"#utility.yul\":5548:5723   */\n  pop\n  jump\t// out\n    /* \"#utility.yul\":5729:6095   */\ntag_34:\n    /* \"#utility.yul\":5871:5874   */\n  0x00\n    /* \"#utility.yul\":5892:5959   */\n  tag_100\n    /* \"#utility.yul\":5956:5958   */\n  0x19\n    /* \"#utility.yul\":5951:5954   */\n  dup4\n    /* \"#utility.yul\":5892:5959   */\n  tag_32\n  jump\t// in\ntag_100:\n    /* \"#utility.yul\":5885:5959   */\n  swap2\n  pop\n    /* \"#utility.yul\":5968:6061   */\n  tag_101\n    /* \"#utility.yul\":6057:6060   */\n  dup3\n    /* \"#utility.yul\":5968:6061   */\n  tag_33\n  jump\t// in\ntag_101:\n    /* \"#utility.yul\":6086:6088   */\n  0x20\n    /* \"#utility.yul\":6081:6084   */\n  dup3\n    /* \"#utility.yul\":6077:6089   */\n  add\n    /* \"#utility.yul\":6070:6089   */\n  swap1\n  pop\n    /* \"#utility.yul\":5729:6095   */\n  swap2\n  swap1\n  pop\n  jump\t// out\n    /* \"#utility.yul\":6101:6520   */\ntag_10:\n    /* \"#utility.yul\":6267:6271   */\n  0x00\n    /* \"#utility.yul\":6305:6307   */\n  0x20\n    /* \"#utility.yul\":6294:6303   */\n  dup3\n    /* \"#utility.yul\":6290:6308   */\n  add\n    /* \"#utility.yul\":6282:6308   */\n  swap1\n  pop\n    /* \"#utility.yul\":6354:6363   */\n  dup2\n    /* \"#utility.yul\":6348:6352   */\n  dup2\n    /* \"#utility.yul\":6344:6364   */\n  sub\n    /* \"#utility.yul\":6340:6341   */\n  0x00\n    /* \"#utility.yul\":6329:6338   */\n  dup4\n    /* \"#utility.yul\":6325:6342   */\n  add\n    /* \"#utility.yul\":6318:6365   */\n  mstore\n    /* \"#utility.yul\":6382:6513   */\n  tag_103\n    /* \"#utility.yul\":6508:6512   */\n  dup2\n    /* \"#utility.yul\":6382:6513   */\n  tag_34\n  jump\t// in\ntag_103:\n    /* \"#utility.yul\":6374:6513   */\n  swap1\n  pop\n    /* \"#utility.yul\":6101:6520   */\n  swap2\n  swap1\n  pop\n  jump\t// out\n    /* \"contracts/Vesting.sol\":115:2853  contract Vesting{... */\ntag_11:\n  dataSize(sub_0)\n  dup1\n  dataOffset(sub_0)\n  0x00\n  codecopy\n  0x00\n  return\nstop\n\nsub_0: assembly {\n        /* \"contracts/Vesting.sol\":115:2853  contract Vesting{... */\n      mstore(0x40, 0x80)\n      jumpi(tag_1, lt(calldatasize, 0x04))\n      shr(0xe0, calldataload(0x00))\n      dup1\n      0x5afd6eb8\n      gt\n      tag_14\n      jumpi\n      dup1\n      0x5afd6eb8\n      eq\n      tag_8\n      jumpi\n      dup1\n      0x6f9fb98a\n      eq\n      tag_9\n      jumpi\n      dup1\n      0x763b6d9e\n      eq\n      tag_10\n      jumpi\n      dup1\n      0x78e97925\n      eq\n      tag_11\n      jumpi\n      dup1\n      0x8a9e0876\n      eq\n      tag_12\n      jumpi\n      dup1\n      0xfc0c546a\n      eq\n      tag_13\n      jumpi\n      jump(tag_1)\n    tag_14:\n      dup1\n      0x0cfc297e\n      eq\n      tag_2\n      jumpi\n      dup1\n      0x0fb5a6b4\n      eq\n      tag_3\n      jumpi\n      dup1\n      0x1270863d\n      eq\n      tag_4\n      jumpi\n      dup1\n      0x13d033c0\n      eq\n      tag_5\n      jumpi\n      dup1\n      0x19165587\n      eq\n      tag_6\n      jumpi\n      dup1\n      0x2a947fd2\n      eq\n      tag_7\n      jumpi\n    tag_1:\n      0x00\n      dup1\n      revert\n        /* \"contracts/Vesting.sol\":1385:1514  function showTokenOfBeneficiary(address _beneficiary) public view returns (uint){... */\n    tag_2:\n      callvalue\n      dup1\n      iszero\n      tag_15\n      jumpi\n      0x00\n      dup1\n      revert\n    tag_15:\n      pop\n      tag_16\n      0x04\n      dup1\n      calldatasize\n      sub\n      dup2\n      add\n      swap1\n      tag_17\n      swap2\n      swap1\n      tag_18\n      jump\t// in\n    tag_17:\n      tag_19\n      jump\t// in\n    tag_16:\n      mload(0x40)\n      tag_20\n      swap2\n      swap1\n      tag_21\n      jump\t// in\n    tag_20:\n      mload(0x40)\n      dup1\n      swap2\n      sub\n      swap1\n      return\n        /* \"contracts/Vesting.sol\":271:291  uint public duration */\n    tag_3:\n      callvalue\n      dup1\n      iszero\n      tag_22\n      jumpi\n      0x00\n      dup1\n      revert\n    tag_22:\n      pop\n      tag_23\n      tag_24\n      jump\t// in\n    tag_23:\n      mload(0x40)\n      tag_25\n      swap2\n      swap1\n      tag_21\n      jump\t// in\n    tag_25:\n      mload(0x40)\n      dup1\n      swap2\n      sub\n      swap1\n      return\n        /* \"contracts/Vesting.sol\":1515:1651  function lockTokens(address beneficiary) public payable{... */\n    tag_4:\n      tag_26\n      0x04\n      dup1\n      calldatasize\n      sub\n      dup2\n      add\n      swap1\n      tag_27\n      swap2\n      swap1\n      tag_18\n      jump\t// in\n    tag_27:\n      tag_28\n      jump\t// in\n    tag_26:\n      stop\n        /* \"contracts/Vesting.sol\":248:265  uint public cliff */\n    tag_5:\n      callvalue\n      dup1\n      iszero\n      tag_29\n      jumpi\n      0x00\n      dup1\n      revert\n    tag_29:\n      pop\n      tag_30\n      tag_31\n      jump\t// in\n    tag_30:\n      mload(0x40)\n      tag_32\n      swap2\n      swap1\n      tag_21\n      jump\t// in\n    tag_32:\n      mload(0x40)\n      dup1\n      swap2\n      sub\n      swap1\n      return\n        /* \"contracts/Vesting.sol\":1652:2084  function release(address _beneficiary) public payable {... */\n    tag_6:\n      tag_33\n      0x04\n      dup1\n      calldatasize\n      sub\n      dup2\n      add\n      swap1\n      tag_34\n      swap2\n      swap1\n      tag_18\n      jump\t// in\n    tag_34:\n      tag_35\n      jump\t// in\n    tag_33:\n      stop\n        /* \"contracts/Vesting.sol\":1242:1381  function addBeneificiary(address _newBeneficiary,uint _tokensToLock) public isOwner{... */\n    tag_7:\n      callvalue\n      dup1\n      iszero\n      tag_36\n      jumpi\n      0x00\n      dup1\n      revert\n    tag_36:\n      pop\n      tag_37\n      0x04\n      dup1\n      calldatasize\n      sub\n      dup2\n      add\n      swap1\n      tag_38\n      swap2\n      swap1\n      tag_39\n      jump\t// in\n    tag_38:\n      tag_40\n      jump\t// in\n    tag_37:\n      stop\n        /* \"contracts/Vesting.sol\":219:242  uint public slicePeriod */\n    tag_8:\n      callvalue\n      dup1\n      iszero\n      tag_41\n      jumpi\n      0x00\n      dup1\n      revert\n    tag_41:\n      pop\n      tag_42\n      tag_43\n      jump\t// in\n    tag_42:\n      mload(0x40)\n      tag_44\n      swap2\n      swap1\n      tag_21\n      jump\t// in\n    tag_44:\n      mload(0x40)\n      dup1\n      swap2\n      sub\n      swap1\n      return\n        /* \"contracts/Vesting.sol\":2757:2851  function getContractBalance() public view returns (uint) {... */\n    tag_9:\n      callvalue\n      dup1\n      iszero\n      tag_45\n      jumpi\n      0x00\n      dup1\n      revert\n    tag_45:\n      pop\n      tag_46\n      tag_47\n      jump\t// in\n    tag_46:\n      mload(0x40)\n      tag_48\n      swap2\n      swap1\n      tag_21\n      jump\t// in\n    tag_48:\n      mload(0x40)\n      dup1\n      swap2\n      sub\n      swap1\n      return\n        /* \"contracts/Vesting.sol\":2086:2754  function vestingTokens(address beneficiary) public view returns (uint) {... */\n    tag_10:\n      callvalue\n      dup1\n      iszero\n      tag_49\n      jumpi\n      0x00\n      dup1\n      revert\n    tag_49:\n      pop\n      tag_50\n      0x04\n      dup1\n      calldatasize\n      sub\n      dup2\n      add\n      swap1\n      tag_51\n      swap2\n      swap1\n      tag_18\n      jump\t// in\n    tag_51:\n      tag_52\n      jump\t// in\n    tag_50:\n      mload(0x40)\n      tag_53\n      swap2\n      swap1\n      tag_21\n      jump\t// in\n    tag_53:\n      mload(0x40)\n      dup1\n      swap2\n      sub\n      swap1\n      return\n        /* \"contracts/Vesting.sol\":329:350  uint public startTime */\n    tag_11:\n      callvalue\n      dup1\n      iszero\n      tag_54\n      jumpi\n      0x00\n      dup1\n      revert\n    tag_54:\n      pop\n      tag_55\n      tag_56\n      jump\t// in\n    tag_55:\n      mload(0x40)\n      tag_57\n      swap2\n      swap1\n      tag_21\n      jump\t// in\n    tag_57:\n      mload(0x40)\n      dup1\n      swap2\n      sub\n      swap1\n      return\n        /* \"contracts/Vesting.sol\":297:323  uint public tokensReleased */\n    tag_12:\n      callvalue\n      dup1\n      iszero\n      tag_58\n      jumpi\n      0x00\n      dup1\n      revert\n    tag_58:\n      pop\n      tag_59\n      tag_60\n      jump\t// in\n    tag_59:\n      mload(0x40)\n      tag_61\n      swap2\n      swap1\n      tag_21\n      jump\t// in\n    tag_61:\n      mload(0x40)\n      dup1\n      swap2\n      sub\n      swap1\n      return\n        /* \"contracts/Vesting.sol\":462:481  IERC20 public token */\n    tag_13:\n      callvalue\n      dup1\n      iszero\n      tag_62\n      jumpi\n      0x00\n      dup1\n      revert\n    tag_62:\n      pop\n      tag_63\n      tag_64\n      jump\t// in\n    tag_63:\n      mload(0x40)\n      tag_65\n      swap2\n      swap1\n      tag_66\n      jump\t// in\n    tag_65:\n      mload(0x40)\n      dup1\n      swap2\n      sub\n      swap1\n      return\n        /* \"contracts/Vesting.sol\":1385:1514  function showTokenOfBeneficiary(address _beneficiary) public view returns (uint){... */\n    tag_19:\n        /* \"contracts/Vesting.sol\":1460:1464  uint */\n      0x00\n        /* \"contracts/Vesting.sol\":1481:1494  beneficiaries */\n      0x06\n        /* \"contracts/Vesting.sol\":1481:1508  beneficiaries[_beneficiary] */\n      0x00\n        /* \"contracts/Vesting.sol\":1495:1507  _beneficiary */\n      dup4\n        /* \"contracts/Vesting.sol\":1481:1508  beneficiaries[_beneficiary] */\n      0xffffffffffffffffffffffffffffffffffffffff\n      and\n      0xffffffffffffffffffffffffffffffffffffffff\n      and\n      dup2\n      mstore\n      0x20\n      add\n      swap1\n      dup2\n      mstore\n      0x20\n      add\n      0x00\n      keccak256\n      sload\n        /* \"contracts/Vesting.sol\":1474:1508  return beneficiaries[_beneficiary] */\n      swap1\n      pop\n        /* \"contracts/Vesting.sol\":1385:1514  function showTokenOfBeneficiary(address _beneficiary) public view returns (uint){... */\n      swap2\n      swap1\n      pop\n      jump\t// out\n        /* \"contracts/Vesting.sol\":271:291  uint public duration */\n    tag_24:\n      sload(0x02)\n      dup2\n      jump\t// out\n        /* \"contracts/Vesting.sol\":1515:1651  function lockTokens(address beneficiary) public payable{... */\n    tag_28:\n        /* \"contracts/Vesting.sol\":1576:1581  token */\n      0x08\n      0x00\n      swap1\n      sload\n      swap1\n      0x0100\n      exp\n      swap1\n      div\n      0xffffffffffffffffffffffffffffffffffffffff\n      and\n        /* \"contracts/Vesting.sol\":1576:1594  token.transferFrom */\n      0xffffffffffffffffffffffffffffffffffffffff\n      and\n      0x23b872dd\n        /* \"contracts/Vesting.sol\":1595:1606  beneficiary */\n      dup3\n        /* \"contracts/Vesting.sol\":1615:1619  this */\n      address\n        /* \"contracts/Vesting.sol\":1621:1634  beneficiaries */\n      0x06\n        /* \"contracts/Vesting.sol\":1621:1647  beneficiaries[beneficiary] */\n      0x00\n        /* \"contracts/Vesting.sol\":1635:1646  beneficiary */\n      dup7\n        /* \"contracts/Vesting.sol\":1621:1647  beneficiaries[beneficiary] */\n      0xffffffffffffffffffffffffffffffffffffffff\n      and\n      0xffffffffffffffffffffffffffffffffffffffff\n      and\n      dup2\n      mstore\n      0x20\n      add\n      swap1\n      dup2\n      mstore\n      0x20\n      add\n      0x00\n      keccak256\n      sload\n        /* \"contracts/Vesting.sol\":1576:1648  token.transferFrom(beneficiary,address(this),beneficiaries[beneficiary]) */\n      mload(0x40)\n      dup5\n      0xffffffff\n      and\n      0xe0\n      shl\n      dup2\n      mstore\n      0x04\n      add\n      tag_69\n      swap4\n      swap3\n      swap2\n      swap1\n      tag_70\n      jump\t// in\n    tag_69:\n      0x20\n      mload(0x40)\n      dup1\n      dup4\n      sub\n      dup2\n      0x00\n      dup8\n      gas\n      call\n      iszero\n      dup1\n      iszero\n      tag_72\n      jumpi\n      returndatasize\n      0x00\n      dup1\n      returndatacopy\n      revert(0x00, returndatasize)\n    tag_72:\n      pop\n      pop\n      pop\n      pop\n      mload(0x40)\n      returndatasize\n      not(0x1f)\n      0x1f\n      dup3\n      add\n      and\n      dup3\n      add\n      dup1\n      0x40\n      mstore\n      pop\n      dup2\n      add\n      swap1\n      tag_73\n      swap2\n      swap1\n      tag_74\n      jump\t// in\n    tag_73:\n      pop\n        /* \"contracts/Vesting.sol\":1515:1651  function lockTokens(address beneficiary) public payable{... */\n      pop\n      jump\t// out\n        /* \"contracts/Vesting.sol\":248:265  uint public cliff */\n    tag_31:\n      sload(0x01)\n      dup2\n      jump\t// out\n        /* \"contracts/Vesting.sol\":1652:2084  function release(address _beneficiary) public payable {... */\n    tag_35:\n        /* \"contracts/Vesting.sol\":1712:1723  uint amount */\n      0x00\n        /* \"contracts/Vesting.sol\":1726:1753  vestingTokens(_beneficiary) */\n      tag_76\n        /* \"contracts/Vesting.sol\":1740:1752  _beneficiary */\n      dup3\n        /* \"contracts/Vesting.sol\":1726:1739  vestingTokens */\n      tag_52\n        /* \"contracts/Vesting.sol\":1726:1753  vestingTokens(_beneficiary) */\n      jump\t// in\n    tag_76:\n        /* \"contracts/Vesting.sol\":1712:1753  uint amount = vestingTokens(_beneficiary) */\n      swap1\n      pop\n        /* \"contracts/Vesting.sol\":1775:1776  0 */\n      0x00\n        /* \"contracts/Vesting.sol\":1767:1773  amount */\n      dup2\n        /* \"contracts/Vesting.sol\":1767:1776  amount >0 */\n      gt\n        /* \"contracts/Vesting.sol\":1759:1802  require(amount >0 , \"No tokens to release\") */\n      tag_77\n      jumpi\n      mload(0x40)\n      0x08c379a000000000000000000000000000000000000000000000000000000000\n      dup2\n      mstore\n      0x04\n      add\n      tag_78\n      swap1\n      tag_79\n      jump\t// in\n    tag_78:\n      mload(0x40)\n      dup1\n      swap2\n      sub\n      swap1\n      revert\n    tag_77:\n        /* \"contracts/Vesting.sol\":1946:1952  amount */\n      dup1\n        /* \"contracts/Vesting.sol\":1912:1928  noOfvestedTokens */\n      0x07\n        /* \"contracts/Vesting.sol\":1912:1942  noOfvestedTokens[_beneficiary] */\n      0x00\n        /* \"contracts/Vesting.sol\":1929:1941  _beneficiary */\n      dup5\n        /* \"contracts/Vesting.sol\":1912:1942  noOfvestedTokens[_beneficiary] */\n      0xffffffffffffffffffffffffffffffffffffffff\n      and\n      0xffffffffffffffffffffffffffffffffffffffff\n      and\n      dup2\n      mstore\n      0x20\n      add\n      swap1\n      dup2\n      mstore\n      0x20\n      add\n      0x00\n      keccak256\n      0x00\n        /* \"contracts/Vesting.sol\":1912:1952  noOfvestedTokens[_beneficiary] += amount */\n      dup3\n      dup3\n      sload\n      tag_80\n      swap2\n      swap1\n      tag_81\n      jump\t// in\n    tag_80:\n      swap3\n      pop\n      pop\n      dup2\n      swap1\n      sstore\n      pop\n        /* \"contracts/Vesting.sol\":1976:1982  amount */\n      dup1\n        /* \"contracts/Vesting.sol\":1958:1972  tokensReleased */\n      0x03\n      0x00\n        /* \"contracts/Vesting.sol\":1958:1982  tokensReleased += amount */\n      dup3\n      dup3\n      sload\n      tag_82\n      swap2\n      swap1\n      tag_81\n      jump\t// in\n    tag_82:\n      swap3\n      pop\n      pop\n      dup2\n      swap1\n      sstore\n      pop\n        /* \"contracts/Vesting.sol\":1988:1993  token */\n      0x08\n      0x00\n      swap1\n      sload\n      swap1\n      0x0100\n      exp\n      swap1\n      div\n      0xffffffffffffffffffffffffffffffffffffffff\n      and\n        /* \"contracts/Vesting.sol\":1988:2001  token.approve */\n      0xffffffffffffffffffffffffffffffffffffffff\n      and\n      0x095ea7b3\n        /* \"contracts/Vesting.sol\":2002:2012  msg.sender */\n      caller\n        /* \"contracts/Vesting.sol\":2014:2020  amount */\n      dup4\n        /* \"contracts/Vesting.sol\":1988:2021  token.approve(msg.sender, amount) */\n      mload(0x40)\n      dup4\n      0xffffffff\n      and\n      0xe0\n      shl\n      dup2\n      mstore\n      0x04\n      add\n      tag_83\n      swap3\n      swap2\n      swap1\n      tag_84\n      jump\t// in\n    tag_83:\n      0x20\n      mload(0x40)\n      dup1\n      dup4\n      sub\n      dup2\n      0x00\n      dup8\n      gas\n      call\n      iszero\n      dup1\n      iszero\n      tag_86\n      jumpi\n      returndatasize\n      0x00\n      dup1\n      returndatacopy\n      revert(0x00, returndatasize)\n    tag_86:\n      pop\n      pop\n      pop\n      pop\n      mload(0x40)\n      returndatasize\n      not(0x1f)\n      0x1f\n      dup3\n      add\n      and\n      dup3\n      add\n      dup1\n      0x40\n      mstore\n      pop\n      dup2\n      add\n      swap1\n      tag_87\n      swap2\n      swap1\n      tag_74\n      jump\t// in\n    tag_87:\n      pop\n        /* \"contracts/Vesting.sol\":2027:2032  token */\n      0x08\n      0x00\n      swap1\n      sload\n      swap1\n      0x0100\n      exp\n      swap1\n      div\n      0xffffffffffffffffffffffffffffffffffffffff\n      and\n        /* \"contracts/Vesting.sol\":2027:2045  token.transferFrom */\n      0xffffffffffffffffffffffffffffffffffffffff\n      and\n      0x23b872dd\n        /* \"contracts/Vesting.sol\":2046:2058  _beneficiary */\n      dup4\n        /* \"contracts/Vesting.sol\":2060:2072  _beneficiary */\n      dup5\n        /* \"contracts/Vesting.sol\":2074:2080  amount */\n      dup5\n        /* \"contracts/Vesting.sol\":2027:2081  token.transferFrom(_beneficiary, _beneficiary, amount) */\n      mload(0x40)\n      dup5\n      0xffffffff\n      and\n      0xe0\n      shl\n      dup2\n      mstore\n      0x04\n      add\n      tag_88\n      swap4\n      swap3\n      swap2\n      swap1\n      tag_70\n      jump\t// in\n    tag_88:\n      0x20\n      mload(0x40)\n      dup1\n      dup4\n      sub\n      dup2\n      0x00\n      dup8\n      gas\n      call\n      iszero\n      dup1\n      iszero\n      tag_90\n      jumpi\n      returndatasize\n      0x00\n      dup1\n      returndatacopy\n      revert(0x00, returndatasize)\n    tag_90:\n      pop\n      pop\n      pop\n      pop\n      mload(0x40)\n      returndatasize\n      not(0x1f)\n      0x1f\n      dup3\n      add\n      and\n      dup3\n      add\n      dup1\n      0x40\n      mstore\n      pop\n      dup2\n      add\n      swap1\n      tag_91\n      swap2\n      swap1\n      tag_74\n      jump\t// in\n    tag_91:\n      pop\n        /* \"contracts/Vesting.sol\":1706:2084  {... */\n      pop\n        /* \"contracts/Vesting.sol\":1652:2084  function release(address _beneficiary) public payable {... */\n      pop\n      jump\t// out\n        /* \"contracts/Vesting.sol\":1242:1381  function addBeneificiary(address _newBeneficiary,uint _tokensToLock) public isOwner{... */\n    tag_40:\n        /* \"contracts/Vesting.sol\":1362:1375  _tokensToLock */\n      dup1\n        /* \"contracts/Vesting.sol\":1331:1344  beneficiaries */\n      0x06\n        /* \"contracts/Vesting.sol\":1331:1361  beneficiaries[_newBeneficiary] */\n      0x00\n        /* \"contracts/Vesting.sol\":1345:1360  _newBeneficiary */\n      dup5\n        /* \"contracts/Vesting.sol\":1331:1361  beneficiaries[_newBeneficiary] */\n      0xffffffffffffffffffffffffffffffffffffffff\n      and\n      0xffffffffffffffffffffffffffffffffffffffff\n      and\n      dup2\n      mstore\n      0x20\n      add\n      swap1\n      dup2\n      mstore\n      0x20\n      add\n      0x00\n      keccak256\n        /* \"contracts/Vesting.sol\":1331:1375  beneficiaries[_newBeneficiary]=_tokensToLock */\n      dup2\n      swap1\n      sstore\n      pop\n        /* \"contracts/Vesting.sol\":936:946  msg.sender */\n      caller\n        /* \"contracts/Vesting.sol\":929:946  owner==msg.sender */\n      0xffffffffffffffffffffffffffffffffffffffff\n      and\n        /* \"contracts/Vesting.sol\":929:934  owner */\n      0x05\n      0x00\n      swap1\n      sload\n      swap1\n      0x0100\n      exp\n      swap1\n      div\n      0xffffffffffffffffffffffffffffffffffffffff\n      and\n        /* \"contracts/Vesting.sol\":929:946  owner==msg.sender */\n      0xffffffffffffffffffffffffffffffffffffffff\n      and\n      eq\n        /* \"contracts/Vesting.sol\":921:968  require(owner==msg.sender,\"Only owner allowed\") */\n      tag_94\n      jumpi\n      mload(0x40)\n      0x08c379a000000000000000000000000000000000000000000000000000000000\n      dup2\n      mstore\n      0x04\n      add\n      tag_95\n      swap1\n      tag_96\n      jump\t// in\n    tag_95:\n      mload(0x40)\n      dup1\n      swap2\n      sub\n      swap1\n      revert\n    tag_94:\n        /* \"contracts/Vesting.sol\":1242:1381  function addBeneificiary(address _newBeneficiary,uint _tokensToLock) public isOwner{... */\n      pop\n      pop\n      jump\t// out\n        /* \"contracts/Vesting.sol\":219:242  uint public slicePeriod */\n    tag_43:\n      sload(0x00)\n      dup2\n      jump\t// out\n        /* \"contracts/Vesting.sol\":2757:2851  function getContractBalance() public view returns (uint) {... */\n    tag_47:\n        /* \"contracts/Vesting.sol\":2808:2812  uint */\n      0x00\n        /* \"contracts/Vesting.sol\":2827:2848  address(this).balance */\n      selfbalance\n        /* \"contracts/Vesting.sol\":2820:2848  return address(this).balance */\n      swap1\n      pop\n        /* \"contracts/Vesting.sol\":2757:2851  function getContractBalance() public view returns (uint) {... */\n      swap1\n      jump\t// out\n        /* \"contracts/Vesting.sol\":2086:2754  function vestingTokens(address beneficiary) public view returns (uint) {... */\n    tag_52:\n        /* \"contracts/Vesting.sol\":2151:2155  uint */\n      0x00\n        /* \"contracts/Vesting.sol\":2182:2187  cliff */\n      sload(0x01)\n        /* \"contracts/Vesting.sol\":2166:2181  block.timestamp */\n      timestamp\n        /* \"contracts/Vesting.sol\":2166:2187  block.timestamp<cliff */\n      lt\n        /* \"contracts/Vesting.sol\":2163:2752  if(block.timestamp<cliff){... */\n      iszero\n      tag_99\n      jumpi\n        /* \"contracts/Vesting.sol\":2205:2206  0 */\n      0x00\n        /* \"contracts/Vesting.sol\":2198:2206  return 0 */\n      swap1\n      pop\n      jump(tag_98)\n        /* \"contracts/Vesting.sol\":2163:2752  if(block.timestamp<cliff){... */\n    tag_99:\n        /* \"contracts/Vesting.sol\":2233:2252  uint timeSinceStart */\n      0x00\n        /* \"contracts/Vesting.sol\":2273:2282  startTime */\n      sload(0x04)\n        /* \"contracts/Vesting.sol\":2255:2270  block.timestamp */\n      timestamp\n        /* \"contracts/Vesting.sol\":2255:2282  block.timestamp - startTime */\n      tag_101\n      swap2\n      swap1\n      tag_102\n      jump\t// in\n    tag_101:\n        /* \"contracts/Vesting.sol\":2233:2282  uint timeSinceStart = block.timestamp - startTime */\n      swap1\n      pop\n        /* \"contracts/Vesting.sol\":2292:2318  uint noOfPeriodsSinceStart */\n      0x00\n        /* \"contracts/Vesting.sol\":2338:2349  slicePeriod */\n      dup1\n      sload\n        /* \"contracts/Vesting.sol\":2321:2335  timeSinceStart */\n      dup3\n        /* \"contracts/Vesting.sol\":2321:2349  timeSinceStart / slicePeriod */\n      tag_103\n      swap2\n      swap1\n      tag_104\n      jump\t// in\n    tag_103:\n        /* \"contracts/Vesting.sol\":2292:2349  uint noOfPeriodsSinceStart = timeSinceStart / slicePeriod */\n      swap1\n      pop\n        /* \"contracts/Vesting.sol\":2359:2376  uint totalPeriods */\n      0x00\n        /* \"contracts/Vesting.sol\":2390:2401  slicePeriod */\n      dup1\n      sload\n        /* \"contracts/Vesting.sol\":2379:2387  duration */\n      sload(0x02)\n        /* \"contracts/Vesting.sol\":2379:2401  duration / slicePeriod */\n      tag_105\n      swap2\n      swap1\n      tag_104\n      jump\t// in\n    tag_105:\n        /* \"contracts/Vesting.sol\":2359:2401  uint totalPeriods = duration / slicePeriod */\n      swap1\n      pop\n        /* \"contracts/Vesting.sol\":2440:2452  totalPeriods */\n      dup1\n        /* \"contracts/Vesting.sol\":2415:2436  noOfPeriodsSinceStart */\n      dup3\n        /* \"contracts/Vesting.sol\":2415:2452  noOfPeriodsSinceStart >= totalPeriods */\n      lt\n        /* \"contracts/Vesting.sol\":2411:2746  if (noOfPeriodsSinceStart >= totalPeriods) {... */\n      tag_106\n      jumpi\n        /* \"contracts/Vesting.sol\":2475:2488  beneficiaries */\n      0x06\n        /* \"contracts/Vesting.sol\":2475:2501  beneficiaries[beneficiary] */\n      0x00\n        /* \"contracts/Vesting.sol\":2489:2500  beneficiary */\n      dup7\n        /* \"contracts/Vesting.sol\":2475:2501  beneficiaries[beneficiary] */\n      0xffffffffffffffffffffffffffffffffffffffff\n      and\n      0xffffffffffffffffffffffffffffffffffffffff\n      and\n      dup2\n      mstore\n      0x20\n      add\n      swap1\n      dup2\n      mstore\n      0x20\n      add\n      0x00\n      keccak256\n      sload\n        /* \"contracts/Vesting.sol\":2468:2501  return beneficiaries[beneficiary] */\n      swap4\n      pop\n      pop\n      pop\n      pop\n      jump(tag_98)\n        /* \"contracts/Vesting.sol\":2411:2746  if (noOfPeriodsSinceStart >= totalPeriods) {... */\n    tag_106:\n        /* \"contracts/Vesting.sol\":2541:2569  uint tokensVestedInOnePeriod */\n      0x00\n        /* \"contracts/Vesting.sol\":2601:2613  totalPeriods */\n      dup2\n        /* \"contracts/Vesting.sol\":2572:2585  beneficiaries */\n      0x06\n        /* \"contracts/Vesting.sol\":2572:2598  beneficiaries[beneficiary] */\n      0x00\n        /* \"contracts/Vesting.sol\":2586:2597  beneficiary */\n      dup9\n        /* \"contracts/Vesting.sol\":2572:2598  beneficiaries[beneficiary] */\n      0xffffffffffffffffffffffffffffffffffffffff\n      and\n      0xffffffffffffffffffffffffffffffffffffffff\n      and\n      dup2\n      mstore\n      0x20\n      add\n      swap1\n      dup2\n      mstore\n      0x20\n      add\n      0x00\n      keccak256\n      sload\n        /* \"contracts/Vesting.sol\":2572:2613  beneficiaries[beneficiary] / totalPeriods */\n      tag_108\n      swap2\n      swap1\n      tag_104\n      jump\t// in\n    tag_108:\n        /* \"contracts/Vesting.sol\":2541:2613  uint tokensVestedInOnePeriod = beneficiaries[beneficiary] / totalPeriods */\n      swap1\n      pop\n        /* \"contracts/Vesting.sol\":2627:2648  uint tokensToBeVested */\n      0x00\n        /* \"contracts/Vesting.sol\":2677:2698  noOfPeriodsSinceStart */\n      dup4\n        /* \"contracts/Vesting.sol\":2651:2674  tokensVestedInOnePeriod */\n      dup3\n        /* \"contracts/Vesting.sol\":2651:2698  tokensVestedInOnePeriod * noOfPeriodsSinceStart */\n      tag_109\n      swap2\n      swap1\n      tag_110\n      jump\t// in\n    tag_109:\n        /* \"contracts/Vesting.sol\":2627:2698  uint tokensToBeVested = tokensVestedInOnePeriod * noOfPeriodsSinceStart */\n      swap1\n      pop\n        /* \"contracts/Vesting.sol\":2719:2735  tokensToBeVested */\n      dup1\n        /* \"contracts/Vesting.sol\":2712:2735  return tokensToBeVested */\n      swap6\n      pop\n      pop\n      pop\n      pop\n      pop\n      pop\n        /* \"contracts/Vesting.sol\":2086:2754  function vestingTokens(address beneficiary) public view returns (uint) {... */\n    tag_98:\n      swap2\n      swap1\n      pop\n      jump\t// out\n        /* \"contracts/Vesting.sol\":329:350  uint public startTime */\n    tag_56:\n      sload(0x04)\n      dup2\n      jump\t// out\n        /* \"contracts/Vesting.sol\":297:323  uint public tokensReleased */\n    tag_60:\n      sload(0x03)\n      dup2\n      jump\t// out\n        /* \"contracts/Vesting.sol\":462:481  IERC20 public token */\n    tag_64:\n      0x08\n      0x00\n      swap1\n      sload\n      swap1\n      0x0100\n      exp\n      swap1\n      div\n      0xffffffffffffffffffffffffffffffffffffffff\n      and\n      dup2\n      jump\t// out\n        /* \"#utility.yul\":88:205   */\n    tag_112:\n        /* \"#utility.yul\":197:198   */\n      0x00\n        /* \"#utility.yul\":194:195   */\n      dup1\n        /* \"#utility.yul\":187:199   */\n      revert\n        /* \"#utility.yul\":334:460   */\n    tag_114:\n        /* \"#utility.yul\":371:378   */\n      0x00\n        /* \"#utility.yul\":411:453   */\n      0xffffffffffffffffffffffffffffffffffffffff\n        /* \"#utility.yul\":404:409   */\n      dup3\n        /* \"#utility.yul\":400:454   */\n      and\n        /* \"#utility.yul\":389:454   */\n      swap1\n      pop\n        /* \"#utility.yul\":334:460   */\n      swap2\n      swap1\n      pop\n      jump\t// out\n        /* \"#utility.yul\":466:562   */\n    tag_115:\n        /* \"#utility.yul\":503:510   */\n      0x00\n        /* \"#utility.yul\":532:556   */\n      tag_144\n        /* \"#utility.yul\":550:555   */\n      dup3\n        /* \"#utility.yul\":532:556   */\n      tag_114\n      jump\t// in\n    tag_144:\n        /* \"#utility.yul\":521:556   */\n      swap1\n      pop\n        /* \"#utility.yul\":466:562   */\n      swap2\n      swap1\n      pop\n      jump\t// out\n        /* \"#utility.yul\":568:690   */\n    tag_116:\n        /* \"#utility.yul\":641:665   */\n      tag_146\n        /* \"#utility.yul\":659:664   */\n      dup2\n        /* \"#utility.yul\":641:665   */\n      tag_115\n      jump\t// in\n    tag_146:\n        /* \"#utility.yul\":634:639   */\n      dup2\n        /* \"#utility.yul\":631:666   */\n      eq\n        /* \"#utility.yul\":621:684   */\n      tag_147\n      jumpi\n        /* \"#utility.yul\":680:681   */\n      0x00\n        /* \"#utility.yul\":677:678   */\n      dup1\n        /* \"#utility.yul\":670:682   */\n      revert\n        /* \"#utility.yul\":621:684   */\n    tag_147:\n        /* \"#utility.yul\":568:690   */\n      pop\n      jump\t// out\n        /* \"#utility.yul\":696:835   */\n    tag_117:\n        /* \"#utility.yul\":742:747   */\n      0x00\n        /* \"#utility.yul\":780:786   */\n      dup2\n        /* \"#utility.yul\":767:787   */\n      calldataload\n        /* \"#utility.yul\":758:787   */\n      swap1\n      pop\n        /* \"#utility.yul\":796:829   */\n      tag_149\n        /* \"#utility.yul\":823:828   */\n      dup2\n        /* \"#utility.yul\":796:829   */\n      tag_116\n      jump\t// in\n    tag_149:\n        /* \"#utility.yul\":696:835   */\n      swap3\n      swap2\n      pop\n      pop\n      jump\t// out\n        /* \"#utility.yul\":841:1170   */\n    tag_18:\n        /* \"#utility.yul\":900:906   */\n      0x00\n        /* \"#utility.yul\":949:951   */\n      0x20\n        /* \"#utility.yul\":937:946   */\n      dup3\n        /* \"#utility.yul\":928:935   */\n      dup5\n        /* \"#utility.yul\":924:947   */\n      sub\n        /* \"#utility.yul\":920:952   */\n      slt\n        /* \"#utility.yul\":917:1036   */\n      iszero\n      tag_151\n      jumpi\n        /* \"#utility.yul\":955:1034   */\n      tag_152\n      tag_112\n      jump\t// in\n    tag_152:\n        /* \"#utility.yul\":917:1036   */\n    tag_151:\n        /* \"#utility.yul\":1075:1076   */\n      0x00\n        /* \"#utility.yul\":1100:1153   */\n      tag_153\n        /* \"#utility.yul\":1145:1152   */\n      dup5\n        /* \"#utility.yul\":1136:1142   */\n      dup3\n        /* \"#utility.yul\":1125:1134   */\n      dup6\n        /* \"#utility.yul\":1121:1143   */\n      add\n        /* \"#utility.yul\":1100:1153   */\n      tag_117\n      jump\t// in\n    tag_153:\n        /* \"#utility.yul\":1090:1153   */\n      swap2\n      pop\n        /* \"#utility.yul\":1046:1163   */\n      pop\n        /* \"#utility.yul\":841:1170   */\n      swap3\n      swap2\n      pop\n      pop\n      jump\t// out\n        /* \"#utility.yul\":1176:1253   */\n    tag_118:\n        /* \"#utility.yul\":1213:1220   */\n      0x00\n        /* \"#utility.yul\":1242:1247   */\n      dup2\n        /* \"#utility.yul\":1231:1247   */\n      swap1\n      pop\n        /* \"#utility.yul\":1176:1253   */\n      swap2\n      swap1\n      pop\n      jump\t// out\n        /* \"#utility.yul\":1259:1377   */\n    tag_119:\n        /* \"#utility.yul\":1346:1370   */\n      tag_156\n        /* \"#utility.yul\":1364:1369   */\n      dup2\n        /* \"#utility.yul\":1346:1370   */\n      tag_118\n      jump\t// in\n    tag_156:\n        /* \"#utility.yul\":1341:1344   */\n      dup3\n        /* \"#utility.yul\":1334:1371   */\n      mstore\n        /* \"#utility.yul\":1259:1377   */\n      pop\n      pop\n      jump\t// out\n        /* \"#utility.yul\":1383:1605   */\n    tag_21:\n        /* \"#utility.yul\":1476:1480   */\n      0x00\n        /* \"#utility.yul\":1514:1516   */\n      0x20\n        /* \"#utility.yul\":1503:1512   */\n      dup3\n        /* \"#utility.yul\":1499:1517   */\n      add\n        /* \"#utility.yul\":1491:1517   */\n      swap1\n      pop\n        /* \"#utility.yul\":1527:1598   */\n      tag_158\n        /* \"#utility.yul\":1595:1596   */\n      0x00\n        /* \"#utility.yul\":1584:1593   */\n      dup4\n        /* \"#utility.yul\":1580:1597   */\n      add\n        /* \"#utility.yul\":1571:1577   */\n      dup5\n        /* \"#utility.yul\":1527:1598   */\n      tag_119\n      jump\t// in\n    tag_158:\n        /* \"#utility.yul\":1383:1605   */\n      swap3\n      swap2\n      pop\n      pop\n      jump\t// out\n        /* \"#utility.yul\":1611:1733   */\n    tag_120:\n        /* \"#utility.yul\":1684:1708   */\n      tag_160\n        /* \"#utility.yul\":1702:1707   */\n      dup2\n        /* \"#utility.yul\":1684:1708   */\n      tag_118\n      jump\t// in\n    tag_160:\n        /* \"#utility.yul\":1677:1682   */\n      dup2\n        /* \"#utility.yul\":1674:1709   */\n      eq\n        /* \"#utility.yul\":1664:1727   */\n      tag_161\n      jumpi\n        /* \"#utility.yul\":1723:1724   */\n      0x00\n        /* \"#utility.yul\":1720:1721   */\n      dup1\n        /* \"#utility.yul\":1713:1725   */\n      revert\n        /* \"#utility.yul\":1664:1727   */\n    tag_161:\n        /* \"#utility.yul\":1611:1733   */\n      pop\n      jump\t// out\n        /* \"#utility.yul\":1739:1878   */\n    tag_121:\n        /* \"#utility.yul\":1785:1790   */\n      0x00\n        /* \"#utility.yul\":1823:1829   */\n      dup2\n        /* \"#utility.yul\":1810:1830   */\n      calldataload\n        /* \"#utility.yul\":1801:1830   */\n      swap1\n      pop\n        /* \"#utility.yul\":1839:1872   */\n      tag_163\n        /* \"#utility.yul\":1866:1871   */\n      dup2\n        /* \"#utility.yul\":1839:1872   */\n      tag_120\n      jump\t// in\n    tag_163:\n        /* \"#utility.yul\":1739:1878   */\n      swap3\n      swap2\n      pop\n      pop\n      jump\t// out\n        /* \"#utility.yul\":1884:2358   */\n    tag_39:\n        /* \"#utility.yul\":1952:1958   */\n      0x00\n        /* \"#utility.yul\":1960:1966   */\n      dup1\n        /* \"#utility.yul\":2009:2011   */\n      0x40\n        /* \"#utility.yul\":1997:2006   */\n      dup4\n        /* \"#utility.yul\":1988:1995   */\n      dup6\n        /* \"#utility.yul\":1984:2007   */\n      sub\n        /* \"#utility.yul\":1980:2012   */\n      slt\n        /* \"#utility.yul\":1977:2096   */\n      iszero\n      tag_165\n      jumpi\n        /* \"#utility.yul\":2015:2094   */\n      tag_166\n      tag_112\n      jump\t// in\n    tag_166:\n        /* \"#utility.yul\":1977:2096   */\n    tag_165:\n        /* \"#utility.yul\":2135:2136   */\n      0x00\n        /* \"#utility.yul\":2160:2213   */\n      tag_167\n        /* \"#utility.yul\":2205:2212   */\n      dup6\n        /* \"#utility.yul\":2196:2202   */\n      dup3\n        /* \"#utility.yul\":2185:2194   */\n      dup7\n        /* \"#utility.yul\":2181:2203   */\n      add\n        /* \"#utility.yul\":2160:2213   */\n      tag_117\n      jump\t// in\n    tag_167:\n        /* \"#utility.yul\":2150:2213   */\n      swap3\n      pop\n        /* \"#utility.yul\":2106:2223   */\n      pop\n        /* \"#utility.yul\":2262:2264   */\n      0x20\n        /* \"#utility.yul\":2288:2341   */\n      tag_168\n        /* \"#utility.yul\":2333:2340   */\n      dup6\n        /* \"#utility.yul\":2324:2330   */\n      dup3\n        /* \"#utility.yul\":2313:2322   */\n      dup7\n        /* \"#utility.yul\":2309:2331   */\n      add\n        /* \"#utility.yul\":2288:2341   */\n      tag_121\n      jump\t// in\n    tag_168:\n        /* \"#utility.yul\":2278:2341   */\n      swap2\n      pop\n        /* \"#utility.yul\":2233:2351   */\n      pop\n        /* \"#utility.yul\":1884:2358   */\n      swap3\n      pop\n      swap3\n      swap1\n      pop\n      jump\t// out\n        /* \"#utility.yul\":2364:2424   */\n    tag_122:\n        /* \"#utility.yul\":2392:2395   */\n      0x00\n        /* \"#utility.yul\":2413:2418   */\n      dup2\n        /* \"#utility.yul\":2406:2418   */\n      swap1\n      pop\n        /* \"#utility.yul\":2364:2424   */\n      swap2\n      swap1\n      pop\n      jump\t// out\n        /* \"#utility.yul\":2430:2572   */\n    tag_123:\n        /* \"#utility.yul\":2480:2489   */\n      0x00\n        /* \"#utility.yul\":2513:2566   */\n      tag_171\n        /* \"#utility.yul\":2531:2565   */\n      tag_172\n        /* \"#utility.yul\":2540:2564   */\n      tag_173\n        /* \"#utility.yul\":2558:2563   */\n      dup5\n        /* \"#utility.yul\":2540:2564   */\n      tag_114\n      jump\t// in\n    tag_173:\n        /* \"#utility.yul\":2531:2565   */\n      tag_122\n      jump\t// in\n    tag_172:\n        /* \"#utility.yul\":2513:2566   */\n      tag_114\n      jump\t// in\n    tag_171:\n        /* \"#utility.yul\":2500:2566   */\n      swap1\n      pop\n        /* \"#utility.yul\":2430:2572   */\n      swap2\n      swap1\n      pop\n      jump\t// out\n        /* \"#utility.yul\":2578:2704   */\n    tag_124:\n        /* \"#utility.yul\":2628:2637   */\n      0x00\n        /* \"#utility.yul\":2661:2698   */\n      tag_175\n        /* \"#utility.yul\":2692:2697   */\n      dup3\n        /* \"#utility.yul\":2661:2698   */\n      tag_123\n      jump\t// in\n    tag_175:\n        /* \"#utility.yul\":2648:2698   */\n      swap1\n      pop\n        /* \"#utility.yul\":2578:2704   */\n      swap2\n      swap1\n      pop\n      jump\t// out\n        /* \"#utility.yul\":2710:2849   */\n    tag_125:\n        /* \"#utility.yul\":2773:2782   */\n      0x00\n        /* \"#utility.yul\":2806:2843   */\n      tag_177\n        /* \"#utility.yul\":2837:2842   */\n      dup3\n        /* \"#utility.yul\":2806:2843   */\n      tag_124\n      jump\t// in\n    tag_177:\n        /* \"#utility.yul\":2793:2843   */\n      swap1\n      pop\n        /* \"#utility.yul\":2710:2849   */\n      swap2\n      swap1\n      pop\n      jump\t// out\n        /* \"#utility.yul\":2855:3012   */\n    tag_126:\n        /* \"#utility.yul\":2955:3005   */\n      tag_179\n        /* \"#utility.yul\":2999:3004   */\n      dup2\n        /* \"#utility.yul\":2955:3005   */\n      tag_125\n      jump\t// in\n    tag_179:\n        /* \"#utility.yul\":2950:2953   */\n      dup3\n        /* \"#utility.yul\":2943:3006   */\n      mstore\n        /* \"#utility.yul\":2855:3012   */\n      pop\n      pop\n      jump\t// out\n        /* \"#utility.yul\":3018:3266   */\n    tag_66:\n        /* \"#utility.yul\":3124:3128   */\n      0x00\n        /* \"#utility.yul\":3162:3164   */\n      0x20\n        /* \"#utility.yul\":3151:3160   */\n      dup3\n        /* \"#utility.yul\":3147:3165   */\n      add\n        /* \"#utility.yul\":3139:3165   */\n      swap1\n      pop\n        /* \"#utility.yul\":3175:3259   */\n      tag_181\n        /* \"#utility.yul\":3256:3257   */\n      0x00\n        /* \"#utility.yul\":3245:3254   */\n      dup4\n        /* \"#utility.yul\":3241:3258   */\n      add\n        /* \"#utility.yul\":3232:3238   */\n      dup5\n        /* \"#utility.yul\":3175:3259   */\n      tag_126\n      jump\t// in\n    tag_181:\n        /* \"#utility.yul\":3018:3266   */\n      swap3\n      swap2\n      pop\n      pop\n      jump\t// out\n        /* \"#utility.yul\":3272:3390   */\n    tag_127:\n        /* \"#utility.yul\":3359:3383   */\n      tag_183\n        /* \"#utility.yul\":3377:3382   */\n      dup2\n        /* \"#utility.yul\":3359:3383   */\n      tag_115\n      jump\t// in\n    tag_183:\n        /* \"#utility.yul\":3354:3357   */\n      dup3\n        /* \"#utility.yul\":3347:3384   */\n      mstore\n        /* \"#utility.yul\":3272:3390   */\n      pop\n      pop\n      jump\t// out\n        /* \"#utility.yul\":3396:3838   */\n    tag_70:\n        /* \"#utility.yul\":3545:3549   */\n      0x00\n        /* \"#utility.yul\":3583:3585   */\n      0x60\n        /* \"#utility.yul\":3572:3581   */\n      dup3\n        /* \"#utility.yul\":3568:3586   */\n      add\n        /* \"#utility.yul\":3560:3586   */\n      swap1\n      pop\n        /* \"#utility.yul\":3596:3667   */\n      tag_185\n        /* \"#utility.yul\":3664:3665   */\n      0x00\n        /* \"#utility.yul\":3653:3662   */\n      dup4\n        /* \"#utility.yul\":3649:3666   */\n      add\n        /* \"#utility.yul\":3640:3646   */\n      dup7\n        /* \"#utility.yul\":3596:3667   */\n      tag_127\n      jump\t// in\n    tag_185:\n        /* \"#utility.yul\":3677:3749   */\n      tag_186\n        /* \"#utility.yul\":3745:3747   */\n      0x20\n        /* \"#utility.yul\":3734:3743   */\n      dup4\n        /* \"#utility.yul\":3730:3748   */\n      add\n        /* \"#utility.yul\":3721:3727   */\n      dup6\n        /* \"#utility.yul\":3677:3749   */\n      tag_127\n      jump\t// in\n    tag_186:\n        /* \"#utility.yul\":3759:3831   */\n      tag_187\n        /* \"#utility.yul\":3827:3829   */\n      0x40\n        /* \"#utility.yul\":3816:3825   */\n      dup4\n        /* \"#utility.yul\":3812:3830   */\n      add\n        /* \"#utility.yul\":3803:3809   */\n      dup5\n        /* \"#utility.yul\":3759:3831   */\n      tag_119\n      jump\t// in\n    tag_187:\n        /* \"#utility.yul\":3396:3838   */\n      swap5\n      swap4\n      pop\n      pop\n      pop\n      pop\n      jump\t// out\n        /* \"#utility.yul\":3844:3934   */\n    tag_128:\n        /* \"#utility.yul\":3878:3885   */\n      0x00\n        /* \"#utility.yul\":3921:3926   */\n      dup2\n        /* \"#utility.yul\":3914:3927   */\n      iszero\n        /* \"#utility.yul\":3907:3928   */\n      iszero\n        /* \"#utility.yul\":3896:3928   */\n      swap1\n      pop\n        /* \"#utility.yul\":3844:3934   */\n      swap2\n      swap1\n      pop\n      jump\t// out\n        /* \"#utility.yul\":3940:4056   */\n    tag_129:\n        /* \"#utility.yul\":4010:4031   */\n      tag_190\n        /* \"#utility.yul\":4025:4030   */\n      dup2\n        /* \"#utility.yul\":4010:4031   */\n      tag_128\n      jump\t// in\n    tag_190:\n        /* \"#utility.yul\":4003:4008   */\n      dup2\n        /* \"#utility.yul\":4000:4032   */\n      eq\n        /* \"#utility.yul\":3990:4050   */\n      tag_191\n      jumpi\n        /* \"#utility.yul\":4046:4047   */\n      0x00\n        /* \"#utility.yul\":4043:4044   */\n      dup1\n        /* \"#utility.yul\":4036:4048   */\n      revert\n        /* \"#utility.yul\":3990:4050   */\n    tag_191:\n        /* \"#utility.yul\":3940:4056   */\n      pop\n      jump\t// out\n        /* \"#utility.yul\":4062:4199   */\n    tag_130:\n        /* \"#utility.yul\":4116:4121   */\n      0x00\n        /* \"#utility.yul\":4147:4153   */\n      dup2\n        /* \"#utility.yul\":4141:4154   */\n      mload\n        /* \"#utility.yul\":4132:4154   */\n      swap1\n      pop\n        /* \"#utility.yul\":4163:4193   */\n      tag_193\n        /* \"#utility.yul\":4187:4192   */\n      dup2\n        /* \"#utility.yul\":4163:4193   */\n      tag_129\n      jump\t// in\n    tag_193:\n        /* \"#utility.yul\":4062:4199   */\n      swap3\n      swap2\n      pop\n      pop\n      jump\t// out\n        /* \"#utility.yul\":4205:4550   */\n    tag_74:\n        /* \"#utility.yul\":4272:4278   */\n      0x00\n        /* \"#utility.yul\":4321:4323   */\n      0x20\n        /* \"#utility.yul\":4309:4318   */\n      dup3\n        /* \"#utility.yul\":4300:4307   */\n      dup5\n        /* \"#utility.yul\":4296:4319   */\n      sub\n        /* \"#utility.yul\":4292:4324   */\n      slt\n        /* \"#utility.yul\":4289:4408   */\n      iszero\n      tag_195\n      jumpi\n        /* \"#utility.yul\":4327:4406   */\n      tag_196\n      tag_112\n      jump\t// in\n    tag_196:\n        /* \"#utility.yul\":4289:4408   */\n    tag_195:\n        /* \"#utility.yul\":4447:4448   */\n      0x00\n        /* \"#utility.yul\":4472:4533   */\n      tag_197\n        /* \"#utility.yul\":4525:4532   */\n      dup5\n        /* \"#utility.yul\":4516:4522   */\n      dup3\n        /* \"#utility.yul\":4505:4514   */\n      dup6\n        /* \"#utility.yul\":4501:4523   */\n      add\n        /* \"#utility.yul\":4472:4533   */\n      tag_130\n      jump\t// in\n    tag_197:\n        /* \"#utility.yul\":4462:4533   */\n      swap2\n      pop\n        /* \"#utility.yul\":4418:4543   */\n      pop\n        /* \"#utility.yul\":4205:4550   */\n      swap3\n      swap2\n      pop\n      pop\n      jump\t// out\n        /* \"#utility.yul\":4556:4725   */\n    tag_131:\n        /* \"#utility.yul\":4640:4651   */\n      0x00\n        /* \"#utility.yul\":4674:4680   */\n      dup3\n        /* \"#utility.yul\":4669:4672   */\n      dup3\n        /* \"#utility.yul\":4662:4681   */\n      mstore\n        /* \"#utility.yul\":4714:4718   */\n      0x20\n        /* \"#utility.yul\":4709:4712   */\n      dup3\n        /* \"#utility.yul\":4705:4719   */\n      add\n        /* \"#utility.yul\":4690:4719   */\n      swap1\n      pop\n        /* \"#utility.yul\":4556:4725   */\n      swap3\n      swap2\n      pop\n      pop\n      jump\t// out\n        /* \"#utility.yul\":4731:4901   */\n    tag_132:\n        /* \"#utility.yul\":4871:4893   */\n      0x4e6f20746f6b656e7320746f2072656c65617365000000000000000000000000\n        /* \"#utility.yul\":4867:4868   */\n      0x00\n        /* \"#utility.yul\":4859:4865   */\n      dup3\n        /* \"#utility.yul\":4855:4869   */\n      add\n        /* \"#utility.yul\":4848:4894   */\n      mstore\n        /* \"#utility.yul\":4731:4901   */\n      pop\n      jump\t// out\n        /* \"#utility.yul\":4907:5273   */\n    tag_133:\n        /* \"#utility.yul\":5049:5052   */\n      0x00\n        /* \"#utility.yul\":5070:5137   */\n      tag_201\n        /* \"#utility.yul\":5134:5136   */\n      0x14\n        /* \"#utility.yul\":5129:5132   */\n      dup4\n        /* \"#utility.yul\":5070:5137   */\n      tag_131\n      jump\t// in\n    tag_201:\n        /* \"#utility.yul\":5063:5137   */\n      swap2\n      pop\n        /* \"#utility.yul\":5146:5239   */\n      tag_202\n        /* \"#utility.yul\":5235:5238   */\n      dup3\n        /* \"#utility.yul\":5146:5239   */\n      tag_132\n      jump\t// in\n    tag_202:\n        /* \"#utility.yul\":5264:5266   */\n      0x20\n        /* \"#utility.yul\":5259:5262   */\n      dup3\n        /* \"#utility.yul\":5255:5267   */\n      add\n        /* \"#utility.yul\":5248:5267   */\n      swap1\n      pop\n        /* \"#utility.yul\":4907:5273   */\n      swap2\n      swap1\n      pop\n      jump\t// out\n        /* \"#utility.yul\":5279:5698   */\n    tag_79:\n        /* \"#utility.yul\":5445:5449   */\n      0x00\n        /* \"#utility.yul\":5483:5485   */\n      0x20\n        /* \"#utility.yul\":5472:5481   */\n      dup3\n        /* \"#utility.yul\":5468:5486   */\n      add\n        /* \"#utility.yul\":5460:5486   */\n      swap1\n      pop\n        /* \"#utility.yul\":5532:5541   */\n      dup2\n        /* \"#utility.yul\":5526:5530   */\n      dup2\n        /* \"#utility.yul\":5522:5542   */\n      sub\n        /* \"#utility.yul\":5518:5519   */\n      0x00\n        /* \"#utility.yul\":5507:5516   */\n      dup4\n        /* \"#utility.yul\":5503:5520   */\n      add\n        /* \"#utility.yul\":5496:5543   */\n      mstore\n        /* \"#utility.yul\":5560:5691   */\n      tag_204\n        /* \"#utility.yul\":5686:5690   */\n      dup2\n        /* \"#utility.yul\":5560:5691   */\n      tag_133\n      jump\t// in\n    tag_204:\n        /* \"#utility.yul\":5552:5691   */\n      swap1\n      pop\n        /* \"#utility.yul\":5279:5698   */\n      swap2\n      swap1\n      pop\n      jump\t// out\n        /* \"#utility.yul\":5704:5884   */\n    tag_134:\n        /* \"#utility.yul\":5752:5829   */\n      0x4e487b7100000000000000000000000000000000000000000000000000000000\n        /* \"#utility.yul\":5749:5750   */\n      0x00\n        /* \"#utility.yul\":5742:5830   */\n      mstore\n        /* \"#utility.yul\":5849:5853   */\n      0x11\n        /* \"#utility.yul\":5846:5847   */\n      0x04\n        /* \"#utility.yul\":5839:5854   */\n      mstore\n        /* \"#utility.yul\":5873:5877   */\n      0x24\n        /* \"#utility.yul\":5870:5871   */\n      0x00\n        /* \"#utility.yul\":5863:5878   */\n      revert\n        /* \"#utility.yul\":5890:6081   */\n    tag_81:\n        /* \"#utility.yul\":5930:5933   */\n      0x00\n        /* \"#utility.yul\":5949:5969   */\n      tag_207\n        /* \"#utility.yul\":5967:5968   */\n      dup3\n        /* \"#utility.yul\":5949:5969   */\n      tag_118\n      jump\t// in\n    tag_207:\n        /* \"#utility.yul\":5944:5969   */\n      swap2\n      pop\n        /* \"#utility.yul\":5983:6003   */\n      tag_208\n        /* \"#utility.yul\":6001:6002   */\n      dup4\n        /* \"#utility.yul\":5983:6003   */\n      tag_118\n      jump\t// in\n    tag_208:\n        /* \"#utility.yul\":5978:6003   */\n      swap3\n      pop\n        /* \"#utility.yul\":6026:6027   */\n      dup3\n        /* \"#utility.yul\":6023:6024   */\n      dup3\n        /* \"#utility.yul\":6019:6028   */\n      add\n        /* \"#utility.yul\":6012:6028   */\n      swap1\n      pop\n        /* \"#utility.yul\":6047:6050   */\n      dup1\n        /* \"#utility.yul\":6044:6045   */\n      dup3\n        /* \"#utility.yul\":6041:6051   */\n      gt\n        /* \"#utility.yul\":6038:6074   */\n      iszero\n      tag_209\n      jumpi\n        /* \"#utility.yul\":6054:6072   */\n      tag_210\n      tag_134\n      jump\t// in\n    tag_210:\n        /* \"#utility.yul\":6038:6074   */\n    tag_209:\n        /* \"#utility.yul\":5890:6081   */\n      swap3\n      swap2\n      pop\n      pop\n      jump\t// out\n        /* \"#utility.yul\":6087:6419   */\n    tag_84:\n        /* \"#utility.yul\":6208:6212   */\n      0x00\n        /* \"#utility.yul\":6246:6248   */\n      0x40\n        /* \"#utility.yul\":6235:6244   */\n      dup3\n        /* \"#utility.yul\":6231:6249   */\n      add\n        /* \"#utility.yul\":6223:6249   */\n      swap1\n      pop\n        /* \"#utility.yul\":6259:6330   */\n      tag_212\n        /* \"#utility.yul\":6327:6328   */\n      0x00\n        /* \"#utility.yul\":6316:6325   */\n      dup4\n        /* \"#utility.yul\":6312:6329   */\n      add\n        /* \"#utility.yul\":6303:6309   */\n      dup6\n        /* \"#utility.yul\":6259:6330   */\n      tag_127\n      jump\t// in\n    tag_212:\n        /* \"#utility.yul\":6340:6412   */\n      tag_213\n        /* \"#utility.yul\":6408:6410   */\n      0x20\n        /* \"#utility.yul\":6397:6406   */\n      dup4\n        /* \"#utility.yul\":6393:6411   */\n      add\n        /* \"#utility.yul\":6384:6390   */\n      dup5\n        /* \"#utility.yul\":6340:6412   */\n      tag_119\n      jump\t// in\n    tag_213:\n        /* \"#utility.yul\":6087:6419   */\n      swap4\n      swap3\n      pop\n      pop\n      pop\n      jump\t// out\n        /* \"#utility.yul\":6425:6593   */\n    tag_135:\n        /* \"#utility.yul\":6565:6585   */\n      0x4f6e6c79206f776e657220616c6c6f7765640000000000000000000000000000\n        /* \"#utility.yul\":6561:6562   */\n      0x00\n        /* \"#utility.yul\":6553:6559   */\n      dup3\n        /* \"#utility.yul\":6549:6563   */\n      add\n        /* \"#utility.yul\":6542:6586   */\n      mstore\n        /* \"#utility.yul\":6425:6593   */\n      pop\n      jump\t// out\n        /* \"#utility.yul\":6599:6965   */\n    tag_136:\n        /* \"#utility.yul\":6741:6744   */\n      0x00\n        /* \"#utility.yul\":6762:6829   */\n      tag_216\n        /* \"#utility.yul\":6826:6828   */\n      0x12\n        /* \"#utility.yul\":6821:6824   */\n      dup4\n        /* \"#utility.yul\":6762:6829   */\n      tag_131\n      jump\t// in\n    tag_216:\n        /* \"#utility.yul\":6755:6829   */\n      swap2\n      pop\n        /* \"#utility.yul\":6838:6931   */\n      tag_217\n        /* \"#utility.yul\":6927:6930   */\n      dup3\n        /* \"#utility.yul\":6838:6931   */\n      tag_135\n      jump\t// in\n    tag_217:\n        /* \"#utility.yul\":6956:6958   */\n      0x20\n        /* \"#utility.yul\":6951:6954   */\n      dup3\n        /* \"#utility.yul\":6947:6959   */\n      add\n        /* \"#utility.yul\":6940:6959   */\n      swap1\n      pop\n        /* \"#utility.yul\":6599:6965   */\n      swap2\n      swap1\n      pop\n      jump\t// out\n        /* \"#utility.yul\":6971:7390   */\n    tag_96:\n        /* \"#utility.yul\":7137:7141   */\n      0x00\n        /* \"#utility.yul\":7175:7177   */\n      0x20\n        /* \"#utility.yul\":7164:7173   */\n      dup3\n        /* \"#utility.yul\":7160:7178   */\n      add\n        /* \"#utility.yul\":7152:7178   */\n      swap1\n      pop\n        /* \"#utility.yul\":7224:7233   */\n      dup2\n        /* \"#utility.yul\":7218:7222   */\n      dup2\n        /* \"#utility.yul\":7214:7234   */\n      sub\n        /* \"#utility.yul\":7210:7211   */\n      0x00\n        /* \"#utility.yul\":7199:7208   */\n      dup4\n        /* \"#utility.yul\":7195:7212   */\n      add\n        /* \"#utility.yul\":7188:7235   */\n      mstore\n        /* \"#utility.yul\":7252:7383   */\n      tag_219\n        /* \"#utility.yul\":7378:7382   */\n      dup2\n        /* \"#utility.yul\":7252:7383   */\n      tag_136\n      jump\t// in\n    tag_219:\n        /* \"#utility.yul\":7244:7383   */\n      swap1\n      pop\n        /* \"#utility.yul\":6971:7390   */\n      swap2\n      swap1\n      pop\n      jump\t// out\n        /* \"#utility.yul\":7396:7590   */\n    tag_102:\n        /* \"#utility.yul\":7436:7440   */\n      0x00\n        /* \"#utility.yul\":7456:7476   */\n      tag_221\n        /* \"#utility.yul\":7474:7475   */\n      dup3\n        /* \"#utility.yul\":7456:7476   */\n      tag_118\n      jump\t// in\n    tag_221:\n        /* \"#utility.yul\":7451:7476   */\n      swap2\n      pop\n        /* \"#utility.yul\":7490:7510   */\n      tag_222\n        /* \"#utility.yul\":7508:7509   */\n      dup4\n        /* \"#utility.yul\":7490:7510   */\n      tag_118\n      jump\t// in\n    tag_222:\n        /* \"#utility.yul\":7485:7510   */\n      swap3\n      pop\n        /* \"#utility.yul\":7534:7535   */\n      dup3\n        /* \"#utility.yul\":7531:7532   */\n      dup3\n        /* \"#utility.yul\":7527:7536   */\n      sub\n        /* \"#utility.yul\":7519:7536   */\n      swap1\n      pop\n        /* \"#utility.yul\":7558:7559   */\n      dup2\n        /* \"#utility.yul\":7552:7556   */\n      dup2\n        /* \"#utility.yul\":7549:7560   */\n      gt\n        /* \"#utility.yul\":7546:7583   */\n      iszero\n      tag_223\n      jumpi\n        /* \"#utility.yul\":7563:7581   */\n      tag_224\n      tag_134\n      jump\t// in\n    tag_224:\n        /* \"#utility.yul\":7546:7583   */\n    tag_223:\n        /* \"#utility.yul\":7396:7590   */\n      swap3\n      swap2\n      pop\n      pop\n      jump\t// out\n        /* \"#utility.yul\":7596:7776   */\n    tag_137:\n        /* \"#utility.yul\":7644:7721   */\n      0x4e487b7100000000000000000000000000000000000000000000000000000000\n        /* \"#utility.yul\":7641:7642   */\n      0x00\n        /* \"#utility.yul\":7634:7722   */\n      mstore\n        /* \"#utility.yul\":7741:7745   */\n      0x12\n        /* \"#utility.yul\":7738:7739   */\n      0x04\n        /* \"#utility.yul\":7731:7746   */\n      mstore\n        /* \"#utility.yul\":7765:7769   */\n      0x24\n        /* \"#utility.yul\":7762:7763   */\n      0x00\n        /* \"#utility.yul\":7755:7770   */\n      revert\n        /* \"#utility.yul\":7782:7967   */\n    tag_104:\n        /* \"#utility.yul\":7822:7823   */\n      0x00\n        /* \"#utility.yul\":7839:7859   */\n      tag_227\n        /* \"#utility.yul\":7857:7858   */\n      dup3\n        /* \"#utility.yul\":7839:7859   */\n      tag_118\n      jump\t// in\n    tag_227:\n        /* \"#utility.yul\":7834:7859   */\n      swap2\n      pop\n        /* \"#utility.yul\":7873:7893   */\n      tag_228\n        /* \"#utility.yul\":7891:7892   */\n      dup4\n        /* \"#utility.yul\":7873:7893   */\n      tag_118\n      jump\t// in\n    tag_228:\n        /* \"#utility.yul\":7868:7893   */\n      swap3\n      pop\n        /* \"#utility.yul\":7912:7913   */\n      dup3\n        /* \"#utility.yul\":7902:7937   */\n      tag_229\n      jumpi\n        /* \"#utility.yul\":7917:7935   */\n      tag_230\n      tag_137\n      jump\t// in\n    tag_230:\n        /* \"#utility.yul\":7902:7937   */\n    tag_229:\n        /* \"#utility.yul\":7959:7960   */\n      dup3\n        /* \"#utility.yul\":7956:7957   */\n      dup3\n        /* \"#utility.yul\":7952:7961   */\n      div\n        /* \"#utility.yul\":7947:7961   */\n      swap1\n      pop\n        /* \"#utility.yul\":7782:7967   */\n      swap3\n      swap2\n      pop\n      pop\n      jump\t// out\n        /* \"#utility.yul\":7973:8383   */\n    tag_110:\n        /* \"#utility.yul\":8013:8020   */\n      0x00\n        /* \"#utility.yul\":8036:8056   */\n      tag_232\n        /* \"#utility.yul\":8054:8055   */\n      dup3\n        /* \"#utility.yul\":8036:8056   */\n      tag_118\n      jump\t// in\n    tag_232:\n        /* \"#utility.yul\":8031:8056   */\n      swap2\n      pop\n        /* \"#utility.yul\":8070:8090   */\n      tag_233\n        /* \"#utility.yul\":8088:8089   */\n      dup4\n        /* \"#utility.yul\":8070:8090   */\n      tag_118\n      jump\t// in\n    tag_233:\n        /* \"#utility.yul\":8065:8090   */\n      swap3\n      pop\n        /* \"#utility.yul\":8125:8126   */\n      dup3\n        /* \"#utility.yul\":8122:8123   */\n      dup3\n        /* \"#utility.yul\":8118:8127   */\n      mul\n        /* \"#utility.yul\":8147:8177   */\n      tag_234\n        /* \"#utility.yul\":8165:8176   */\n      dup2\n        /* \"#utility.yul\":8147:8177   */\n      tag_118\n      jump\t// in\n    tag_234:\n        /* \"#utility.yul\":8136:8177   */\n      swap2\n      pop\n        /* \"#utility.yul\":8326:8327   */\n      dup3\n        /* \"#utility.yul\":8317:8324   */\n      dup3\n        /* \"#utility.yul\":8313:8328   */\n      div\n        /* \"#utility.yul\":8310:8311   */\n      dup5\n        /* \"#utility.yul\":8307:8329   */\n      eq\n        /* \"#utility.yul\":8287:8288   */\n      dup4\n        /* \"#utility.yul\":8280:8289   */\n      iszero\n        /* \"#utility.yul\":8260:8343   */\n      or\n        /* \"#utility.yul\":8237:8376   */\n      tag_235\n      jumpi\n        /* \"#utility.yul\":8356:8374   */\n      tag_236\n      tag_134\n      jump\t// in\n    tag_236:\n        /* \"#utility.yul\":8237:8376   */\n    tag_235:\n        /* \"#utility.yul\":8021:8383   */\n      pop\n        /* \"#utility.yul\":7973:8383   */\n      swap3\n      swap2\n      pop\n      pop\n      jump\t// out\n\n    auxdata: 0xa2646970667358221220751326a6929b417c3892e38fbceb544f5321dab3dbcd01c83f54f9a9093e098264736f6c63430008120033\n}\n",
				"bytecode": {
					"linkReferences": {},
					"object": "60806040523480156200001157600080fd5b50604051620012023803806200120283398181016040528101906200003791906200035e565b8460008190555083816200004c919062000448565b6001819055508260028190555081600860006101000a81548173ffffffffffffffffffffffffffffffffffffffff021916908373ffffffffffffffffffffffffffffffffffffffff16021790555033600560006101000a81548173ffffffffffffffffffffffffffffffffffffffff021916908373ffffffffffffffffffffffffffffffffffffffff16021790555080600481905550600086511162000129576040517f08c379a00000000000000000000000000000000000000000000000000000000081526004016200012090620004e4565b60405180910390fd5b50505050505062000506565b6000604051905090565b600080fd5b600080fd5b600080fd5b6000601f19601f8301169050919050565b7f4e487b7100000000000000000000000000000000000000000000000000000000600052604160045260246000fd5b62000199826200014e565b810181811067ffffffffffffffff82111715620001bb57620001ba6200015f565b5b80604052505050565b6000620001d062000135565b9050620001de82826200018e565b919050565b600067ffffffffffffffff8211156200020157620002006200015f565b5b602082029050602081019050919050565b600080fd5b600073ffffffffffffffffffffffffffffffffffffffff82169050919050565b6000620002448262000217565b9050919050565b620002568162000237565b81146200026257600080fd5b50565b60008151905062000276816200024b565b92915050565b6000620002936200028d84620001e3565b620001c4565b90508083825260208201905060208402830185811115620002b957620002b862000212565b5b835b81811015620002e65780620002d1888262000265565b845260208401935050602081019050620002bb565b5050509392505050565b600082601f83011262000308576200030762000149565b5b81516200031a8482602086016200027c565b91505092915050565b6000819050919050565b620003388162000323565b81146200034457600080fd5b50565b60008151905062000358816200032d565b92915050565b60008060008060008060c087890312156200037e576200037d6200013f565b5b600087015167ffffffffffffffff8111156200039f576200039e62000144565b5b620003ad89828a01620002f0565b9650506020620003c089828a0162000347565b9550506040620003d389828a0162000347565b9450506060620003e689828a0162000347565b9350506080620003f989828a0162000265565b92505060a06200040c89828a0162000347565b9150509295509295509295565b7f4e487b7100000000000000000000000000000000000000000000000000000000600052601160045260246000fd5b6000620004558262000323565b9150620004628362000323565b92508282019050808211156200047d576200047c62000419565b5b92915050565b600082825260208201905092915050565b7f4e6f2042656e656669636961726965732070726f766964656400000000000000600082015250565b6000620004cc60198362000483565b9150620004d98262000494565b602082019050919050565b60006020820190508181036000830152620004ff81620004bd565b9050919050565b610cec80620005166000396000f3fe6080604052600436106100a75760003560e01c80635afd6eb8116100645780635afd6eb8146101a05780636f9fb98a146101cb578063763b6d9e146101f657806378e97925146102335780638a9e08761461025e578063fc0c546a14610289576100a7565b80630cfc297e146100ac5780630fb5a6b4146100e95780631270863d1461011457806313d033c014610130578063191655871461015b5780632a947fd214610177575b600080fd5b3480156100b857600080fd5b506100d360048036038101906100ce9190610879565b6102b4565b6040516100e091906108bf565b60405180910390f35b3480156100f557600080fd5b506100fe6102fd565b60405161010b91906108bf565b60405180910390f35b61012e60048036038101906101299190610879565b610303565b005b34801561013c57600080fd5b506101456103e8565b60405161015291906108bf565b60405180910390f35b61017560048036038101906101709190610879565b6103ee565b005b34801561018357600080fd5b5061019e60048036038101906101999190610906565b6105f5565b005b3480156101ac57600080fd5b506101b56106cd565b6040516101c291906108bf565b60405180910390f35b3480156101d757600080fd5b506101e06106d3565b6040516101ed91906108bf565b60405180910390f35b34801561020257600080fd5b5061021d60048036038101906102189190610879565b6106db565b60405161022a91906108bf565b60405180910390f35b34801561023f57600080fd5b506102486107e4565b60405161025591906108bf565b60405180910390f35b34801561026a57600080fd5b506102736107ea565b60405161028091906108bf565b60405180910390f35b34801561029557600080fd5b5061029e6107f0565b6040516102ab91906109a5565b60405180910390f35b6000600660008373ffffffffffffffffffffffffffffffffffffffff1673ffffffffffffffffffffffffffffffffffffffff168152602001908152602001600020549050919050565b60025481565b600860009054906101000a900473ffffffffffffffffffffffffffffffffffffffff1673ffffffffffffffffffffffffffffffffffffffff166323b872dd8230600660008673ffffffffffffffffffffffffffffffffffffffff1673ffffffffffffffffffffffffffffffffffffffff168152602001908152602001600020546040518463ffffffff1660e01b81526004016103a1939291906109cf565b6020604051808303816000875af11580156103c0573d6000803e3d6000fd5b505050506040513d601f19601f820116820180604052508101906103e49190610a3e565b5050565b60015481565b60006103f9826106db565b90506000811161043e576040517f08c379a000000000000000000000000000000000000000000000000000000000815260040161043590610ac8565b60405180910390fd5b80600760008473ffffffffffffffffffffffffffffffffffffffff1673ffffffffffffffffffffffffffffffffffffffff168152602001908152602001600020600082825461048d9190610b17565b9250508190555080600360008282546104a69190610b17565b92505081905550600860009054906101000a900473ffffffffffffffffffffffffffffffffffffffff1673ffffffffffffffffffffffffffffffffffffffff1663095ea7b333836040518363ffffffff1660e01b815260040161050a929190610b4b565b6020604051808303816000875af1158015610529573d6000803e3d6000fd5b505050506040513d601f19601f8201168201806040525081019061054d9190610a3e565b50600860009054906101000a900473ffffffffffffffffffffffffffffffffffffffff1673ffffffffffffffffffffffffffffffffffffffff166323b872dd8384846040518463ffffffff1660e01b81526004016105ad939291906109cf565b6020604051808303816000875af11580156105cc573d6000803e3d6000fd5b505050506040513d601f19601f820116820180604052508101906105f09190610a3e565b505050565b80600660008473ffffffffffffffffffffffffffffffffffffffff1673ffffffffffffffffffffffffffffffffffffffff168152602001908152602001600020819055503373ffffffffffffffffffffffffffffffffffffffff16600560009054906101000a900473ffffffffffffffffffffffffffffffffffffffff1673ffffffffffffffffffffffffffffffffffffffff16146106c9576040517f08c379a00000000000000000000000000000000000000000000000000000000081526004016106c090610bc0565b60405180910390fd5b5050565b60005481565b600047905090565b60006001544210156106f057600090506107df565b6000600454426107009190610be0565b905060008054826107119190610c43565b9050600080546002546107249190610c43565b905080821061077757600660008673ffffffffffffffffffffffffffffffffffffffff1673ffffffffffffffffffffffffffffffffffffffff1681526020019081526020016000205493505050506107df565b600081600660008873ffffffffffffffffffffffffffffffffffffffff1673ffffffffffffffffffffffffffffffffffffffff168152602001908152602001600020546107c49190610c43565b9050600083826107d49190610c74565b905080955050505050505b919050565b60045481565b60035481565b600860009054906101000a900473ffffffffffffffffffffffffffffffffffffffff1681565b600080fd5b600073ffffffffffffffffffffffffffffffffffffffff82169050919050565b60006108468261081b565b9050919050565b6108568161083b565b811461086157600080fd5b50565b6000813590506108738161084d565b92915050565b60006020828403121561088f5761088e610816565b5b600061089d84828501610864565b91505092915050565b6000819050919050565b6108b9816108a6565b82525050565b60006020820190506108d460008301846108b0565b92915050565b6108e3816108a6565b81146108ee57600080fd5b50565b600081359050610900816108da565b92915050565b6000806040838503121561091d5761091c610816565b5b600061092b85828601610864565b925050602061093c858286016108f1565b9150509250929050565b6000819050919050565b600061096b6109666109618461081b565b610946565b61081b565b9050919050565b600061097d82610950565b9050919050565b600061098f82610972565b9050919050565b61099f81610984565b82525050565b60006020820190506109ba6000830184610996565b92915050565b6109c98161083b565b82525050565b60006060820190506109e460008301866109c0565b6109f160208301856109c0565b6109fe60408301846108b0565b949350505050565b60008115159050919050565b610a1b81610a06565b8114610a2657600080fd5b50565b600081519050610a3881610a12565b92915050565b600060208284031215610a5457610a53610816565b5b6000610a6284828501610a29565b91505092915050565b600082825260208201905092915050565b7f4e6f20746f6b656e7320746f2072656c65617365000000000000000000000000600082015250565b6000610ab2601483610a6b565b9150610abd82610a7c565b602082019050919050565b60006020820190508181036000830152610ae181610aa5565b9050919050565b7f4e487b7100000000000000000000000000000000000000000000000000000000600052601160045260246000fd5b6000610b22826108a6565b9150610b2d836108a6565b9250828201905080821115610b4557610b44610ae8565b5b92915050565b6000604082019050610b6060008301856109c0565b610b6d60208301846108b0565b9392505050565b7f4f6e6c79206f776e657220616c6c6f7765640000000000000000000000000000600082015250565b6000610baa601283610a6b565b9150610bb582610b74565b602082019050919050565b60006020820190508181036000830152610bd981610b9d565b9050919050565b6000610beb826108a6565b9150610bf6836108a6565b9250828203905081811115610c0e57610c0d610ae8565b5b92915050565b7f4e487b7100000000000000000000000000000000000000000000000000000000600052601260045260246000fd5b6000610c4e826108a6565b9150610c59836108a6565b925082610c6957610c68610c14565b5b828204905092915050565b6000610c7f826108a6565b9150610c8a836108a6565b9250828202610c98816108a6565b91508282048414831517610caf57610cae610ae8565b5b509291505056fea2646970667358221220751326a6929b417c3892e38fbceb544f5321dab3dbcd01c83f54f9a9093e098264736f6c63430008120033",
					"opcodes": "PUSH1 0x80 PUSH1 0x40 MSTORE CALLVALUE DUP1 ISZERO PUSH3 0x11 JUMPI PUSH1 0x0 DUP1 REVERT JUMPDEST POP PUSH1 0x40 MLOAD PUSH3 0x1202 CODESIZE SUB DUP1 PUSH3 0x1202 DUP4 CODECOPY DUP2 DUP2 ADD PUSH1 0x40 MSTORE DUP2 ADD SWAP1 PUSH3 0x37 SWAP2 SWAP1 PUSH3 0x35E JUMP JUMPDEST DUP5 PUSH1 0x0 DUP2 SWAP1 SSTORE POP DUP4 DUP2 PUSH3 0x4C SWAP2 SWAP1 PUSH3 0x448 JUMP JUMPDEST PUSH1 0x1 DUP2 SWAP1 SSTORE POP DUP3 PUSH1 0x2 DUP2 SWAP1 SSTORE POP DUP2 PUSH1 0x8 PUSH1 0x0 PUSH2 0x100 EXP DUP2 SLOAD DUP2 PUSH20 0xFFFFFFFFFFFFFFFFFFFFFFFFFFFFFFFFFFFFFFFF MUL NOT AND SWAP1 DUP4 PUSH20 0xFFFFFFFFFFFFFFFFFFFFFFFFFFFFFFFFFFFFFFFF AND MUL OR SWAP1 SSTORE POP CALLER PUSH1 0x5 PUSH1 0x0 PUSH2 0x100 EXP DUP2 SLOAD DUP2 PUSH20 0xFFFFFFFFFFFFFFFFFFFFFFFFFFFFFFFFFFFFFFFF MUL NOT AND SWAP1 DUP4 PUSH20 0xFFFFFFFFFFFFFFFFFFFFFFFFFFFFFFFFFFFFFFFF AND MUL OR SWAP1 SSTORE POP DUP1 PUSH1 0x4 DUP2 SWAP1 SSTORE POP PUSH1 0x0 DUP7 MLOAD GT PUSH3 0x129 JUMPI PUSH1 0x40 MLOAD PUSH32 0x8C379A000000000000000000000000000000000000000000000000000000000 DUP2 MSTORE PUSH1 0x4 ADD PUSH3 0x120 SWAP1 PUSH3 0x4E4 JUMP JUMPDEST PUSH1 0x40 MLOAD DUP1 SWAP2 SUB SWAP1 REVERT JUMPDEST POP POP POP POP POP POP PUSH3 0x506 JUMP JUMPDEST PUSH1 0x0 PUSH1 0x40 MLOAD SWAP1 POP SWAP1 JUMP JUMPDEST PUSH1 0x0 DUP1 REVERT JUMPDEST PUSH1 0x0 DUP1 REVERT JUMPDEST PUSH1 0x0 DUP1 REVERT JUMPDEST PUSH1 0x0 PUSH1 0x1F NOT PUSH1 0x1F DUP4 ADD AND SWAP1 POP SWAP2 SWAP1 POP JUMP JUMPDEST PUSH32 0x4E487B7100000000000000000000000000000000000000000000000000000000 PUSH1 0x0 MSTORE PUSH1 0x41 PUSH1 0x4 MSTORE PUSH1 0x24 PUSH1 0x0 REVERT JUMPDEST PUSH3 0x199 DUP3 PUSH3 0x14E JUMP JUMPDEST DUP2 ADD DUP2 DUP2 LT PUSH8 0xFFFFFFFFFFFFFFFF DUP3 GT OR ISZERO PUSH3 0x1BB JUMPI PUSH3 0x1BA PUSH3 0x15F JUMP JUMPDEST JUMPDEST DUP1 PUSH1 0x40 MSTORE POP POP POP JUMP JUMPDEST PUSH1 0x0 PUSH3 0x1D0 PUSH3 0x135 JUMP JUMPDEST SWAP1 POP PUSH3 0x1DE DUP3 DUP3 PUSH3 0x18E JUMP JUMPDEST SWAP2 SWAP1 POP JUMP JUMPDEST PUSH1 0x0 PUSH8 0xFFFFFFFFFFFFFFFF DUP3 GT ISZERO PUSH3 0x201 JUMPI PUSH3 0x200 PUSH3 0x15F JUMP JUMPDEST JUMPDEST PUSH1 0x20 DUP3 MUL SWAP1 POP PUSH1 0x20 DUP2 ADD SWAP1 POP SWAP2 SWAP1 POP JUMP JUMPDEST PUSH1 0x0 DUP1 REVERT JUMPDEST PUSH1 0x0 PUSH20 0xFFFFFFFFFFFFFFFFFFFFFFFFFFFFFFFFFFFFFFFF DUP3 AND SWAP1 POP SWAP2 SWAP1 POP JUMP JUMPDEST PUSH1 0x0 PUSH3 0x244 DUP3 PUSH3 0x217 JUMP JUMPDEST SWAP1 POP SWAP2 SWAP1 POP JUMP JUMPDEST PUSH3 0x256 DUP2 PUSH3 0x237 JUMP JUMPDEST DUP2 EQ PUSH3 0x262 JUMPI PUSH1 0x0 DUP1 REVERT JUMPDEST POP JUMP JUMPDEST PUSH1 0x0 DUP2 MLOAD SWAP1 POP PUSH3 0x276 DUP2 PUSH3 0x24B JUMP JUMPDEST SWAP3 SWAP2 POP POP JUMP JUMPDEST PUSH1 0x0 PUSH3 0x293 PUSH3 0x28D DUP5 PUSH3 0x1E3 JUMP JUMPDEST PUSH3 0x1C4 JUMP JUMPDEST SWAP1 POP DUP1 DUP4 DUP3 MSTORE PUSH1 0x20 DUP3 ADD SWAP1 POP PUSH1 0x20 DUP5 MUL DUP4 ADD DUP6 DUP2 GT ISZERO PUSH3 0x2B9 JUMPI PUSH3 0x2B8 PUSH3 0x212 JUMP JUMPDEST JUMPDEST DUP4 JUMPDEST DUP2 DUP2 LT ISZERO PUSH3 0x2E6 JUMPI DUP1 PUSH3 0x2D1 DUP9 DUP3 PUSH3 0x265 JUMP JUMPDEST DUP5 MSTORE PUSH1 0x20 DUP5 ADD SWAP4 POP POP PUSH1 0x20 DUP2 ADD SWAP1 POP PUSH3 0x2BB JUMP JUMPDEST POP POP POP SWAP4 SWAP3 POP POP POP JUMP JUMPDEST PUSH1 0x0 DUP3 PUSH1 0x1F DUP4 ADD SLT PUSH3 0x308 JUMPI PUSH3 0x307 PUSH3 0x149 JUMP JUMPDEST JUMPDEST DUP2 MLOAD PUSH3 0x31A DUP5 DUP3 PUSH1 0x20 DUP7 ADD PUSH3 0x27C JUMP JUMPDEST SWAP2 POP POP SWAP3 SWAP2 POP POP JUMP JUMPDEST PUSH1 0x0 DUP2 SWAP1 POP SWAP2 SWAP1 POP JUMP JUMPDEST PUSH3 0x338 DUP2 PUSH3 0x323 JUMP JUMPDEST DUP2 EQ PUSH3 0x344 JUMPI PUSH1 0x0 DUP1 REVERT JUMPDEST POP JUMP JUMPDEST PUSH1 0x0 DUP2 MLOAD SWAP1 POP PUSH3 0x358 DUP2 PUSH3 0x32D JUMP JUMPDEST SWAP3 SWAP2 POP POP JUMP JUMPDEST PUSH1 0x0 DUP1 PUSH1 0x0 DUP1 PUSH1 0x0 DUP1 PUSH1 0xC0 DUP8 DUP10 SUB SLT ISZERO PUSH3 0x37E JUMPI PUSH3 0x37D PUSH3 0x13F JUMP JUMPDEST JUMPDEST PUSH1 0x0 DUP8 ADD MLOAD PUSH8 0xFFFFFFFFFFFFFFFF DUP2 GT ISZERO PUSH3 0x39F JUMPI PUSH3 0x39E PUSH3 0x144 JUMP JUMPDEST JUMPDEST PUSH3 0x3AD DUP10 DUP3 DUP11 ADD PUSH3 0x2F0 JUMP JUMPDEST SWAP7 POP POP PUSH1 0x20 PUSH3 0x3C0 DUP10 DUP3 DUP11 ADD PUSH3 0x347 JUMP JUMPDEST SWAP6 POP POP PUSH1 0x40 PUSH3 0x3D3 DUP10 DUP3 DUP11 ADD PUSH3 0x347 JUMP JUMPDEST SWAP5 POP POP PUSH1 0x60 PUSH3 0x3E6 DUP10 DUP3 DUP11 ADD PUSH3 0x347 JUMP JUMPDEST SWAP4 POP POP PUSH1 0x80 PUSH3 0x3F9 DUP10 DUP3 DUP11 ADD PUSH3 0x265 JUMP JUMPDEST SWAP3 POP POP PUSH1 0xA0 PUSH3 0x40C DUP10 DUP3 DUP11 ADD PUSH3 0x347 JUMP JUMPDEST SWAP2 POP POP SWAP3 SWAP6 POP SWAP3 SWAP6 POP SWAP3 SWAP6 JUMP JUMPDEST PUSH32 0x4E487B7100000000000000000000000000000000000000000000000000000000 PUSH1 0x0 MSTORE PUSH1 0x11 PUSH1 0x4 MSTORE PUSH1 0x24 PUSH1 0x0 REVERT JUMPDEST PUSH1 0x0 PUSH3 0x455 DUP3 PUSH3 0x323 JUMP JUMPDEST SWAP2 POP PUSH3 0x462 DUP4 PUSH3 0x323 JUMP JUMPDEST SWAP3 POP DUP3 DUP3 ADD SWAP1 POP DUP1 DUP3 GT ISZERO PUSH3 0x47D JUMPI PUSH3 0x47C PUSH3 0x419 JUMP JUMPDEST JUMPDEST SWAP3 SWAP2 POP POP JUMP JUMPDEST PUSH1 0x0 DUP3 DUP3 MSTORE PUSH1 0x20 DUP3 ADD SWAP1 POP SWAP3 SWAP2 POP POP JUMP JUMPDEST PUSH32 0x4E6F2042656E656669636961726965732070726F766964656400000000000000 PUSH1 0x0 DUP3 ADD MSTORE POP JUMP JUMPDEST PUSH1 0x0 PUSH3 0x4CC PUSH1 0x19 DUP4 PUSH3 0x483 JUMP JUMPDEST SWAP2 POP PUSH3 0x4D9 DUP3 PUSH3 0x494 JUMP JUMPDEST PUSH1 0x20 DUP3 ADD SWAP1 POP SWAP2 SWAP1 POP JUMP JUMPDEST PUSH1 0x0 PUSH1 0x20 DUP3 ADD SWAP1 POP DUP2 DUP2 SUB PUSH1 0x0 DUP4 ADD MSTORE PUSH3 0x4FF DUP2 PUSH3 0x4BD JUMP JUMPDEST SWAP1 POP SWAP2 SWAP1 POP JUMP JUMPDEST PUSH2 0xCEC DUP1 PUSH3 0x516 PUSH1 0x0 CODECOPY PUSH1 0x0 RETURN INVALID PUSH1 0x80 PUSH1 0x40 MSTORE PUSH1 0x4 CALLDATASIZE LT PUSH2 0xA7 JUMPI PUSH1 0x0 CALLDATALOAD PUSH1 0xE0 SHR DUP1 PUSH4 0x5AFD6EB8 GT PUSH2 0x64 JUMPI DUP1 PUSH4 0x5AFD6EB8 EQ PUSH2 0x1A0 JUMPI DUP1 PUSH4 0x6F9FB98A EQ PUSH2 0x1CB JUMPI DUP1 PUSH4 0x763B6D9E EQ PUSH2 0x1F6 JUMPI DUP1 PUSH4 0x78E97925 EQ PUSH2 0x233 JUMPI DUP1 PUSH4 0x8A9E0876 EQ PUSH2 0x25E JUMPI DUP1 PUSH4 0xFC0C546A EQ PUSH2 0x289 JUMPI PUSH2 0xA7 JUMP JUMPDEST DUP1 PUSH4 0xCFC297E EQ PUSH2 0xAC JUMPI DUP1 PUSH4 0xFB5A6B4 EQ PUSH2 0xE9 JUMPI DUP1 PUSH4 0x1270863D EQ PUSH2 0x114 JUMPI DUP1 PUSH4 0x13D033C0 EQ PUSH2 0x130 JUMPI DUP1 PUSH4 0x19165587 EQ PUSH2 0x15B JUMPI DUP1 PUSH4 0x2A947FD2 EQ PUSH2 0x177 JUMPI JUMPDEST PUSH1 0x0 DUP1 REVERT JUMPDEST CALLVALUE DUP1 ISZERO PUSH2 0xB8 JUMPI PUSH1 0x0 DUP1 REVERT JUMPDEST POP PUSH2 0xD3 PUSH1 0x4 DUP1 CALLDATASIZE SUB DUP2 ADD SWAP1 PUSH2 0xCE SWAP2 SWAP1 PUSH2 0x879 JUMP JUMPDEST PUSH2 0x2B4 JUMP JUMPDEST PUSH1 0x40 MLOAD PUSH2 0xE0 SWAP2 SWAP1 PUSH2 0x8BF JUMP JUMPDEST PUSH1 0x40 MLOAD DUP1 SWAP2 SUB SWAP1 RETURN JUMPDEST CALLVALUE DUP1 ISZERO PUSH2 0xF5 JUMPI PUSH1 0x0 DUP1 REVERT JUMPDEST POP PUSH2 0xFE PUSH2 0x2FD JUMP JUMPDEST PUSH1 0x40 MLOAD PUSH2 0x10B SWAP2 SWAP1 PUSH2 0x8BF JUMP JUMPDEST PUSH1 0x40 MLOAD DUP1 SWAP2 SUB SWAP1 RETURN JUMPDEST PUSH2 0x12E PUSH1 0x4 DUP1 CALLDATASIZE SUB DUP2 ADD SWAP1 PUSH2 0x129 SWAP2 SWAP1 PUSH2 0x879 JUMP JUMPDEST PUSH2 0x303 JUMP JUMPDEST STOP JUMPDEST CALLVALUE DUP1 ISZERO PUSH2 0x13C JUMPI PUSH1 0x0 DUP1 REVERT JUMPDEST POP PUSH2 0x145 PUSH2 0x3E8 JUMP JUMPDEST PUSH1 0x40 MLOAD PUSH2 0x152 SWAP2 SWAP1 PUSH2 0x8BF JUMP JUMPDEST PUSH1 0x40 MLOAD DUP1 SWAP2 SUB SWAP1 RETURN JUMPDEST PUSH2 0x175 PUSH1 0x4 DUP1 CALLDATASIZE SUB DUP2 ADD SWAP1 PUSH2 0x170 SWAP2 SWAP1 PUSH2 0x879 JUMP JUMPDEST PUSH2 0x3EE JUMP JUMPDEST STOP JUMPDEST CALLVALUE DUP1 ISZERO PUSH2 0x183 JUMPI PUSH1 0x0 DUP1 REVERT JUMPDEST POP PUSH2 0x19E PUSH1 0x4 DUP1 CALLDATASIZE SUB DUP2 ADD SWAP1 PUSH2 0x199 SWAP2 SWAP1 PUSH2 0x906 JUMP JUMPDEST PUSH2 0x5F5 JUMP JUMPDEST STOP JUMPDEST CALLVALUE DUP1 ISZERO PUSH2 0x1AC JUMPI PUSH1 0x0 DUP1 REVERT JUMPDEST POP PUSH2 0x1B5 PUSH2 0x6CD JUMP JUMPDEST PUSH1 0x40 MLOAD PUSH2 0x1C2 SWAP2 SWAP1 PUSH2 0x8BF JUMP JUMPDEST PUSH1 0x40 MLOAD DUP1 SWAP2 SUB SWAP1 RETURN JUMPDEST CALLVALUE DUP1 ISZERO PUSH2 0x1D7 JUMPI PUSH1 0x0 DUP1 REVERT JUMPDEST POP PUSH2 0x1E0 PUSH2 0x6D3 JUMP JUMPDEST PUSH1 0x40 MLOAD PUSH2 0x1ED SWAP2 SWAP1 PUSH2 0x8BF JUMP JUMPDEST PUSH1 0x40 MLOAD DUP1 SWAP2 SUB SWAP1 RETURN JUMPDEST CALLVALUE DUP1 ISZERO PUSH2 0x202 JUMPI PUSH1 0x0 DUP1 REVERT JUMPDEST POP PUSH2 0x21D PUSH1 0x4 DUP1 CALLDATASIZE SUB DUP2 ADD SWAP1 PUSH2 0x218 SWAP2 SWAP1 PUSH2 0x879 JUMP JUMPDEST PUSH2 0x6DB JUMP JUMPDEST PUSH1 0x40 MLOAD PUSH2 0x22A SWAP2 SWAP1 PUSH2 0x8BF JUMP JUMPDEST PUSH1 0x40 MLOAD DUP1 SWAP2 SUB SWAP1 RETURN JUMPDEST CALLVALUE DUP1 ISZERO PUSH2 0x23F JUMPI PUSH1 0x0 DUP1 REVERT JUMPDEST POP PUSH2 0x248 PUSH2 0x7E4 JUMP JUMPDEST PUSH1 0x40 MLOAD PUSH2 0x255 SWAP2 SWAP1 PUSH2 0x8BF JUMP JUMPDEST PUSH1 0x40 MLOAD DUP1 SWAP2 SUB SWAP1 RETURN JUMPDEST CALLVALUE DUP1 ISZERO PUSH2 0x26A JUMPI PUSH1 0x0 DUP1 REVERT JUMPDEST POP PUSH2 0x273 PUSH2 0x7EA JUMP JUMPDEST PUSH1 0x40 MLOAD PUSH2 0x280 SWAP2 SWAP1 PUSH2 0x8BF JUMP JUMPDEST PUSH1 0x40 MLOAD DUP1 SWAP2 SUB SWAP1 RETURN JUMPDEST CALLVALUE DUP1 ISZERO PUSH2 0x295 JUMPI PUSH1 0x0 DUP1 REVERT JUMPDEST POP PUSH2 0x29E PUSH2 0x7F0 JUMP JUMPDEST PUSH1 0x40 MLOAD PUSH2 0x2AB SWAP2 SWAP1 PUSH2 0x9A5 JUMP JUMPDEST PUSH1 0x40 MLOAD DUP1 SWAP2 SUB SWAP1 RETURN JUMPDEST PUSH1 0x0 PUSH1 0x6 PUSH1 0x0 DUP4 PUSH20 0xFFFFFFFFFFFFFFFFFFFFFFFFFFFFFFFFFFFFFFFF AND PUSH20 0xFFFFFFFFFFFFFFFFFFFFFFFFFFFFFFFFFFFFFFFF AND DUP2 MSTORE PUSH1 0x20 ADD SWAP1 DUP2 MSTORE PUSH1 0x20 ADD PUSH1 0x0 KECCAK256 SLOAD SWAP1 POP SWAP2 SWAP1 POP JUMP JUMPDEST PUSH1 0x2 SLOAD DUP2 JUMP JUMPDEST PUSH1 0x8 PUSH1 0x0 SWAP1 SLOAD SWAP1 PUSH2 0x100 EXP SWAP1 DIV PUSH20 0xFFFFFFFFFFFFFFFFFFFFFFFFFFFFFFFFFFFFFFFF AND PUSH20 0xFFFFFFFFFFFFFFFFFFFFFFFFFFFFFFFFFFFFFFFF AND PUSH4 0x23B872DD DUP3 ADDRESS PUSH1 0x6 PUSH1 0x0 DUP7 PUSH20 0xFFFFFFFFFFFFFFFFFFFFFFFFFFFFFFFFFFFFFFFF AND PUSH20 0xFFFFFFFFFFFFFFFFFFFFFFFFFFFFFFFFFFFFFFFF AND DUP2 MSTORE PUSH1 0x20 ADD SWAP1 DUP2 MSTORE PUSH1 0x20 ADD PUSH1 0x0 KECCAK256 SLOAD PUSH1 0x40 MLOAD DUP5 PUSH4 0xFFFFFFFF AND PUSH1 0xE0 SHL DUP2 MSTORE PUSH1 0x4 ADD PUSH2 0x3A1 SWAP4 SWAP3 SWAP2 SWAP1 PUSH2 0x9CF JUMP JUMPDEST PUSH1 0x20 PUSH1 0x40 MLOAD DUP1 DUP4 SUB DUP2 PUSH1 0x0 DUP8 GAS CALL ISZERO DUP1 ISZERO PUSH2 0x3C0 JUMPI RETURNDATASIZE PUSH1 0x0 DUP1 RETURNDATACOPY RETURNDATASIZE PUSH1 0x0 REVERT JUMPDEST POP POP POP POP PUSH1 0x40 MLOAD RETURNDATASIZE PUSH1 0x1F NOT PUSH1 0x1F DUP3 ADD AND DUP3 ADD DUP1 PUSH1 0x40 MSTORE POP DUP2 ADD SWAP1 PUSH2 0x3E4 SWAP2 SWAP1 PUSH2 0xA3E JUMP JUMPDEST POP POP JUMP JUMPDEST PUSH1 0x1 SLOAD DUP2 JUMP JUMPDEST PUSH1 0x0 PUSH2 0x3F9 DUP3 PUSH2 0x6DB JUMP JUMPDEST SWAP1 POP PUSH1 0x0 DUP2 GT PUSH2 0x43E JUMPI PUSH1 0x40 MLOAD PUSH32 0x8C379A000000000000000000000000000000000000000000000000000000000 DUP2 MSTORE PUSH1 0x4 ADD PUSH2 0x435 SWAP1 PUSH2 0xAC8 JUMP JUMPDEST PUSH1 0x40 MLOAD DUP1 SWAP2 SUB SWAP1 REVERT JUMPDEST DUP1 PUSH1 0x7 PUSH1 0x0 DUP5 PUSH20 0xFFFFFFFFFFFFFFFFFFFFFFFFFFFFFFFFFFFFFFFF AND PUSH20 0xFFFFFFFFFFFFFFFFFFFFFFFFFFFFFFFFFFFFFFFF AND DUP2 MSTORE PUSH1 0x20 ADD SWAP1 DUP2 MSTORE PUSH1 0x20 ADD PUSH1 0x0 KECCAK256 PUSH1 0x0 DUP3 DUP3 SLOAD PUSH2 0x48D SWAP2 SWAP1 PUSH2 0xB17 JUMP JUMPDEST SWAP3 POP POP DUP2 SWAP1 SSTORE POP DUP1 PUSH1 0x3 PUSH1 0x0 DUP3 DUP3 SLOAD PUSH2 0x4A6 SWAP2 SWAP1 PUSH2 0xB17 JUMP JUMPDEST SWAP3 POP POP DUP2 SWAP1 SSTORE POP PUSH1 0x8 PUSH1 0x0 SWAP1 SLOAD SWAP1 PUSH2 0x100 EXP SWAP1 DIV PUSH20 0xFFFFFFFFFFFFFFFFFFFFFFFFFFFFFFFFFFFFFFFF AND PUSH20 0xFFFFFFFFFFFFFFFFFFFFFFFFFFFFFFFFFFFFFFFF AND PUSH4 0x95EA7B3 CALLER DUP4 PUSH1 0x40 MLOAD DUP4 PUSH4 0xFFFFFFFF AND PUSH1 0xE0 SHL DUP2 MSTORE PUSH1 0x4 ADD PUSH2 0x50A SWAP3 SWAP2 SWAP1 PUSH2 0xB4B JUMP JUMPDEST PUSH1 0x20 PUSH1 0x40 MLOAD DUP1 DUP4 SUB DUP2 PUSH1 0x0 DUP8 GAS CALL ISZERO DUP1 ISZERO PUSH2 0x529 JUMPI RETURNDATASIZE PUSH1 0x0 DUP1 RETURNDATACOPY RETURNDATASIZE PUSH1 0x0 REVERT JUMPDEST POP POP POP POP PUSH1 0x40 MLOAD RETURNDATASIZE PUSH1 0x1F NOT PUSH1 0x1F DUP3 ADD AND DUP3 ADD DUP1 PUSH1 0x40 MSTORE POP DUP2 ADD SWAP1 PUSH2 0x54D SWAP2 SWAP1 PUSH2 0xA3E JUMP JUMPDEST POP PUSH1 0x8 PUSH1 0x0 SWAP1 SLOAD SWAP1 PUSH2 0x100 EXP SWAP1 DIV PUSH20 0xFFFFFFFFFFFFFFFFFFFFFFFFFFFFFFFFFFFFFFFF AND PUSH20 0xFFFFFFFFFFFFFFFFFFFFFFFFFFFFFFFFFFFFFFFF AND PUSH4 0x23B872DD DUP4 DUP5 DUP5 PUSH1 0x40 MLOAD DUP5 PUSH4 0xFFFFFFFF AND PUSH1 0xE0 SHL DUP2 MSTORE PUSH1 0x4 ADD PUSH2 0x5AD SWAP4 SWAP3 SWAP2 SWAP1 PUSH2 0x9CF JUMP JUMPDEST PUSH1 0x20 PUSH1 0x40 MLOAD DUP1 DUP4 SUB DUP2 PUSH1 0x0 DUP8 GAS CALL ISZERO DUP1 ISZERO PUSH2 0x5CC JUMPI RETURNDATASIZE PUSH1 0x0 DUP1 RETURNDATACOPY RETURNDATASIZE PUSH1 0x0 REVERT JUMPDEST POP POP POP POP PUSH1 0x40 MLOAD RETURNDATASIZE PUSH1 0x1F NOT PUSH1 0x1F DUP3 ADD AND DUP3 ADD DUP1 PUSH1 0x40 MSTORE POP DUP2 ADD SWAP1 PUSH2 0x5F0 SWAP2 SWAP1 PUSH2 0xA3E JUMP JUMPDEST POP POP POP JUMP JUMPDEST DUP1 PUSH1 0x6 PUSH1 0x0 DUP5 PUSH20 0xFFFFFFFFFFFFFFFFFFFFFFFFFFFFFFFFFFFFFFFF AND PUSH20 0xFFFFFFFFFFFFFFFFFFFFFFFFFFFFFFFFFFFFFFFF AND DUP2 MSTORE PUSH1 0x20 ADD SWAP1 DUP2 MSTORE PUSH1 0x20 ADD PUSH1 0x0 KECCAK256 DUP2 SWAP1 SSTORE POP CALLER PUSH20 0xFFFFFFFFFFFFFFFFFFFFFFFFFFFFFFFFFFFFFFFF AND PUSH1 0x5 PUSH1 0x0 SWAP1 SLOAD SWAP1 PUSH2 0x100 EXP SWAP1 DIV PUSH20 0xFFFFFFFFFFFFFFFFFFFFFFFFFFFFFFFFFFFFFFFF AND PUSH20 0xFFFFFFFFFFFFFFFFFFFFFFFFFFFFFFFFFFFFFFFF AND EQ PUSH2 0x6C9 JUMPI PUSH1 0x40 MLOAD PUSH32 0x8C379A000000000000000000000000000000000000000000000000000000000 DUP2 MSTORE PUSH1 0x4 ADD PUSH2 0x6C0 SWAP1 PUSH2 0xBC0 JUMP JUMPDEST PUSH1 0x40 MLOAD DUP1 SWAP2 SUB SWAP1 REVERT JUMPDEST POP POP JUMP JUMPDEST PUSH1 0x0 SLOAD DUP2 JUMP JUMPDEST PUSH1 0x0 SELFBALANCE SWAP1 POP SWAP1 JUMP JUMPDEST PUSH1 0x0 PUSH1 0x1 SLOAD TIMESTAMP LT ISZERO PUSH2 0x6F0 JUMPI PUSH1 0x0 SWAP1 POP PUSH2 0x7DF JUMP JUMPDEST PUSH1 0x0 PUSH1 0x4 SLOAD TIMESTAMP PUSH2 0x700 SWAP2 SWAP1 PUSH2 0xBE0 JUMP JUMPDEST SWAP1 POP PUSH1 0x0 DUP1 SLOAD DUP3 PUSH2 0x711 SWAP2 SWAP1 PUSH2 0xC43 JUMP JUMPDEST SWAP1 POP PUSH1 0x0 DUP1 SLOAD PUSH1 0x2 SLOAD PUSH2 0x724 SWAP2 SWAP1 PUSH2 0xC43 JUMP JUMPDEST SWAP1 POP DUP1 DUP3 LT PUSH2 0x777 JUMPI PUSH1 0x6 PUSH1 0x0 DUP7 PUSH20 0xFFFFFFFFFFFFFFFFFFFFFFFFFFFFFFFFFFFFFFFF AND PUSH20 0xFFFFFFFFFFFFFFFFFFFFFFFFFFFFFFFFFFFFFFFF AND DUP2 MSTORE PUSH1 0x20 ADD SWAP1 DUP2 MSTORE PUSH1 0x20 ADD PUSH1 0x0 KECCAK256 SLOAD SWAP4 POP POP POP POP PUSH2 0x7DF JUMP JUMPDEST PUSH1 0x0 DUP2 PUSH1 0x6 PUSH1 0x0 DUP9 PUSH20 0xFFFFFFFFFFFFFFFFFFFFFFFFFFFFFFFFFFFFFFFF AND PUSH20 0xFFFFFFFFFFFFFFFFFFFFFFFFFFFFFFFFFFFFFFFF AND DUP2 MSTORE PUSH1 0x20 ADD SWAP1 DUP2 MSTORE PUSH1 0x20 ADD PUSH1 0x0 KECCAK256 SLOAD PUSH2 0x7C4 SWAP2 SWAP1 PUSH2 0xC43 JUMP JUMPDEST SWAP1 POP PUSH1 0x0 DUP4 DUP3 PUSH2 0x7D4 SWAP2 SWAP1 PUSH2 0xC74 JUMP JUMPDEST SWAP1 POP DUP1 SWAP6 POP POP POP POP POP POP JUMPDEST SWAP2 SWAP1 POP JUMP JUMPDEST PUSH1 0x4 SLOAD DUP2 JUMP JUMPDEST PUSH1 0x3 SLOAD DUP2 JUMP JUMPDEST PUSH1 0x8 PUSH1 0x0 SWAP1 SLOAD SWAP1 PUSH2 0x100 EXP SWAP1 DIV PUSH20 0xFFFFFFFFFFFFFFFFFFFFFFFFFFFFFFFFFFFFFFFF AND DUP2 JUMP JUMPDEST PUSH1 0x0 DUP1 REVERT JUMPDEST PUSH1 0x0 PUSH20 0xFFFFFFFFFFFFFFFFFFFFFFFFFFFFFFFFFFFFFFFF DUP3 AND SWAP1 POP SWAP2 SWAP1 POP JUMP JUMPDEST PUSH1 0x0 PUSH2 0x846 DUP3 PUSH2 0x81B JUMP JUMPDEST SWAP1 POP SWAP2 SWAP1 POP JUMP JUMPDEST PUSH2 0x856 DUP2 PUSH2 0x83B JUMP JUMPDEST DUP2 EQ PUSH2 0x861 JUMPI PUSH1 0x0 DUP1 REVERT JUMPDEST POP JUMP JUMPDEST PUSH1 0x0 DUP2 CALLDATALOAD SWAP1 POP PUSH2 0x873 DUP2 PUSH2 0x84D JUMP JUMPDEST SWAP3 SWAP2 POP POP JUMP JUMPDEST PUSH1 0x0 PUSH1 0x20 DUP3 DUP5 SUB SLT ISZERO PUSH2 0x88F JUMPI PUSH2 0x88E PUSH2 0x816 JUMP JUMPDEST JUMPDEST PUSH1 0x0 PUSH2 0x89D DUP5 DUP3 DUP6 ADD PUSH2 0x864 JUMP JUMPDEST SWAP2 POP POP SWAP3 SWAP2 POP POP JUMP JUMPDEST PUSH1 0x0 DUP2 SWAP1 POP SWAP2 SWAP1 POP JUMP JUMPDEST PUSH2 0x8B9 DUP2 PUSH2 0x8A6 JUMP JUMPDEST DUP3 MSTORE POP POP JUMP JUMPDEST PUSH1 0x0 PUSH1 0x20 DUP3 ADD SWAP1 POP PUSH2 0x8D4 PUSH1 0x0 DUP4 ADD DUP5 PUSH2 0x8B0 JUMP JUMPDEST SWAP3 SWAP2 POP POP JUMP JUMPDEST PUSH2 0x8E3 DUP2 PUSH2 0x8A6 JUMP JUMPDEST DUP2 EQ PUSH2 0x8EE JUMPI PUSH1 0x0 DUP1 REVERT JUMPDEST POP JUMP JUMPDEST PUSH1 0x0 DUP2 CALLDATALOAD SWAP1 POP PUSH2 0x900 DUP2 PUSH2 0x8DA JUMP JUMPDEST SWAP3 SWAP2 POP POP JUMP JUMPDEST PUSH1 0x0 DUP1 PUSH1 0x40 DUP4 DUP6 SUB SLT ISZERO PUSH2 0x91D JUMPI PUSH2 0x91C PUSH2 0x816 JUMP JUMPDEST JUMPDEST PUSH1 0x0 PUSH2 0x92B DUP6 DUP3 DUP7 ADD PUSH2 0x864 JUMP JUMPDEST SWAP3 POP POP PUSH1 0x20 PUSH2 0x93C DUP6 DUP3 DUP7 ADD PUSH2 0x8F1 JUMP JUMPDEST SWAP2 POP POP SWAP3 POP SWAP3 SWAP1 POP JUMP JUMPDEST PUSH1 0x0 DUP2 SWAP1 POP SWAP2 SWAP1 POP JUMP JUMPDEST PUSH1 0x0 PUSH2 0x96B PUSH2 0x966 PUSH2 0x961 DUP5 PUSH2 0x81B JUMP JUMPDEST PUSH2 0x946 JUMP JUMPDEST PUSH2 0x81B JUMP JUMPDEST SWAP1 POP SWAP2 SWAP1 POP JUMP JUMPDEST PUSH1 0x0 PUSH2 0x97D DUP3 PUSH2 0x950 JUMP JUMPDEST SWAP1 POP SWAP2 SWAP1 POP JUMP JUMPDEST PUSH1 0x0 PUSH2 0x98F DUP3 PUSH2 0x972 JUMP JUMPDEST SWAP1 POP SWAP2 SWAP1 POP JUMP JUMPDEST PUSH2 0x99F DUP2 PUSH2 0x984 JUMP JUMPDEST DUP3 MSTORE POP POP JUMP JUMPDEST PUSH1 0x0 PUSH1 0x20 DUP3 ADD SWAP1 POP PUSH2 0x9BA PUSH1 0x0 DUP4 ADD DUP5 PUSH2 0x996 JUMP JUMPDEST SWAP3 SWAP2 POP POP JUMP JUMPDEST PUSH2 0x9C9 DUP2 PUSH2 0x83B JUMP JUMPDEST DUP3 MSTORE POP POP JUMP JUMPDEST PUSH1 0x0 PUSH1 0x60 DUP3 ADD SWAP1 POP PUSH2 0x9E4 PUSH1 0x0 DUP4 ADD DUP7 PUSH2 0x9C0 JUMP JUMPDEST PUSH2 0x9F1 PUSH1 0x20 DUP4 ADD DUP6 PUSH2 0x9C0 JUMP JUMPDEST PUSH2 0x9FE PUSH1 0x40 DUP4 ADD DUP5 PUSH2 0x8B0 JUMP JUMPDEST SWAP5 SWAP4 POP POP POP POP JUMP JUMPDEST PUSH1 0x0 DUP2 ISZERO ISZERO SWAP1 POP SWAP2 SWAP1 POP JUMP JUMPDEST PUSH2 0xA1B DUP2 PUSH2 0xA06 JUMP JUMPDEST DUP2 EQ PUSH2 0xA26 JUMPI PUSH1 0x0 DUP1 REVERT JUMPDEST POP JUMP JUMPDEST PUSH1 0x0 DUP2 MLOAD SWAP1 POP PUSH2 0xA38 DUP2 PUSH2 0xA12 JUMP JUMPDEST SWAP3 SWAP2 POP POP JUMP JUMPDEST PUSH1 0x0 PUSH1 0x20 DUP3 DUP5 SUB SLT ISZERO PUSH2 0xA54 JUMPI PUSH2 0xA53 PUSH2 0x816 JUMP JUMPDEST JUMPDEST PUSH1 0x0 PUSH2 0xA62 DUP5 DUP3 DUP6 ADD PUSH2 0xA29 JUMP JUMPDEST SWAP2 POP POP SWAP3 SWAP2 POP POP JUMP JUMPDEST PUSH1 0x0 DUP3 DUP3 MSTORE PUSH1 0x20 DUP3 ADD SWAP1 POP SWAP3 SWAP2 POP POP JUMP JUMPDEST PUSH32 0x4E6F20746F6B656E7320746F2072656C65617365000000000000000000000000 PUSH1 0x0 DUP3 ADD MSTORE POP JUMP JUMPDEST PUSH1 0x0 PUSH2 0xAB2 PUSH1 0x14 DUP4 PUSH2 0xA6B JUMP JUMPDEST SWAP2 POP PUSH2 0xABD DUP3 PUSH2 0xA7C JUMP JUMPDEST PUSH1 0x20 DUP3 ADD SWAP1 POP SWAP2 SWAP1 POP JUMP JUMPDEST PUSH1 0x0 PUSH1 0x20 DUP3 ADD SWAP1 POP DUP2 DUP2 SUB PUSH1 0x0 DUP4 ADD MSTORE PUSH2 0xAE1 DUP2 PUSH2 0xAA5 JUMP JUMPDEST SWAP1 POP SWAP2 SWAP1 POP JUMP JUMPDEST PUSH32 0x4E487B7100000000000000000000000000000000000000000000000000000000 PUSH1 0x0 MSTORE PUSH1 0x11 PUSH1 0x4 MSTORE PUSH1 0x24 PUSH1 0x0 REVERT JUMPDEST PUSH1 0x0 PUSH2 0xB22 DUP3 PUSH2 0x8A6 JUMP JUMPDEST SWAP2 POP PUSH2 0xB2D DUP4 PUSH2 0x8A6 JUMP JUMPDEST SWAP3 POP DUP3 DUP3 ADD SWAP1 POP DUP1 DUP3 GT ISZERO PUSH2 0xB45 JUMPI PUSH2 0xB44 PUSH2 0xAE8 JUMP JUMPDEST JUMPDEST SWAP3 SWAP2 POP POP JUMP JUMPDEST PUSH1 0x0 PUSH1 0x40 DUP3 ADD SWAP1 POP PUSH2 0xB60 PUSH1 0x0 DUP4 ADD DUP6 PUSH2 0x9C0 JUMP JUMPDEST PUSH2 0xB6D PUSH1 0x20 DUP4 ADD DUP5 PUSH2 0x8B0 JUMP JUMPDEST SWAP4 SWAP3 POP POP POP JUMP JUMPDEST PUSH32 0x4F6E6C79206F776E657220616C6C6F7765640000000000000000000000000000 PUSH1 0x0 DUP3 ADD MSTORE POP JUMP JUMPDEST PUSH1 0x0 PUSH2 0xBAA PUSH1 0x12 DUP4 PUSH2 0xA6B JUMP JUMPDEST SWAP2 POP PUSH2 0xBB5 DUP3 PUSH2 0xB74 JUMP JUMPDEST PUSH1 0x20 DUP3 ADD SWAP1 POP SWAP2 SWAP1 POP JUMP JUMPDEST PUSH1 0x0 PUSH1 0x20 DUP3 ADD SWAP1 POP DUP2 DUP2 SUB PUSH1 0x0 DUP4 ADD MSTORE PUSH2 0xBD9 DUP2 PUSH2 0xB9D JUMP JUMPDEST SWAP1 POP SWAP2 SWAP1 POP JUMP JUMPDEST PUSH1 0x0 PUSH2 0xBEB DUP3 PUSH2 0x8A6 JUMP JUMPDEST SWAP2 POP PUSH2 0xBF6 DUP4 PUSH2 0x8A6 JUMP JUMPDEST SWAP3 POP DUP3 DUP3 SUB SWAP1 POP DUP2 DUP2 GT ISZERO PUSH2 0xC0E JUMPI PUSH2 0xC0D PUSH2 0xAE8 JUMP JUMPDEST JUMPDEST SWAP3 SWAP2 POP POP JUMP JUMPDEST PUSH32 0x4E487B7100000000000000000000000000000000000000000000000000000000 PUSH1 0x0 MSTORE PUSH1 0x12 PUSH1 0x4 MSTORE PUSH1 0x24 PUSH1 0x0 REVERT JUMPDEST PUSH1 0x0 PUSH2 0xC4E DUP3 PUSH2 0x8A6 JUMP JUMPDEST SWAP2 POP PUSH2 0xC59 DUP4 PUSH2 0x8A6 JUMP JUMPDEST SWAP3 POP DUP3 PUSH2 0xC69 JUMPI PUSH2 0xC68 PUSH2 0xC14 JUMP JUMPDEST JUMPDEST DUP3 DUP3 DIV SWAP1 POP SWAP3 SWAP2 POP POP JUMP JUMPDEST PUSH1 0x0 PUSH2 0xC7F DUP3 PUSH2 0x8A6 JUMP JUMPDEST SWAP2 POP PUSH2 0xC8A DUP4 PUSH2 0x8A6 JUMP JUMPDEST SWAP3 POP DUP3 DUP3 MUL PUSH2 0xC98 DUP2 PUSH2 0x8A6 JUMP JUMPDEST SWAP2 POP DUP3 DUP3 DIV DUP5 EQ DUP4 ISZERO OR PUSH2 0xCAF JUMPI PUSH2 0xCAE PUSH2 0xAE8 JUMP JUMPDEST JUMPDEST POP SWAP3 SWAP2 POP POP JUMP INVALID LOG2 PUSH5 0x6970667358 0x22 SLT KECCAK256 PUSH22 0x1326A6929B417C3892E38FBCEB544F5321DAB3DBCD01 0xC8 EXTCODEHASH SLOAD 0xF9 0xA9 MULMOD RETURNDATACOPY MULMOD DUP3 PUSH5 0x736F6C6343 STOP ADDMOD SLT STOP CALLER "
				},
				"gasEstimates": {
					"creation": {
						"codeDepositCost": "661600",
						"executionCost": "infinite",
						"totalCost": "infinite"
					},
					"external": {
						"addBeneificiary(address,uint256)": "25398",
						"cliff()": "2496",
						"duration()": "2452",
						"getContractBalance()": "361",
						"lockTokens(address)": "infinite",
						"release(address)": "infinite",
						"showTokenOfBeneficiary(address)": "2842",
						"slicePeriod()": "2429",
						"startTime()": "2495",
						"token()": "infinite",
						"tokensReleased()": "2517",
						"vestingTokens(address)": "infinite"
					}
				},
				"methodIdentifiers": {
					"addBeneificiary(address,uint256)": "2a947fd2",
					"cliff()": "13d033c0",
					"duration()": "0fb5a6b4",
					"getContractBalance()": "6f9fb98a",
					"lockTokens(address)": "1270863d",
					"release(address)": "19165587",
					"showTokenOfBeneficiary(address)": "0cfc297e",
					"slicePeriod()": "5afd6eb8",
					"startTime()": "78e97925",
					"token()": "fc0c546a",
					"tokensReleased()": "8a9e0876",
					"vestingTokens(address)": "763b6d9e"
				}
			},
			"storageLayout": {
				"storage": [
					{
						"astId": 82,
						"contract": "contracts/Vesting.sol:Vesting",
						"label": "slicePeriod",
						"offset": 0,
						"slot": "0",
						"type": "t_uint256"
					},
					{
						"astId": 84,
						"contract": "contracts/Vesting.sol:Vesting",
						"label": "cliff",
						"offset": 0,
						"slot": "1",
						"type": "t_uint256"
					},
					{
						"astId": 86,
						"contract": "contracts/Vesting.sol:Vesting",
						"label": "duration",
						"offset": 0,
						"slot": "2",
						"type": "t_uint256"
					},
					{
						"astId": 88,
						"contract": "contracts/Vesting.sol:Vesting",
						"label": "tokensReleased",
						"offset": 0,
						"slot": "3",
						"type": "t_uint256"
					},
					{
						"astId": 90,
						"contract": "contracts/Vesting.sol:Vesting",
						"label": "startTime",
						"offset": 0,
						"slot": "4",
						"type": "t_uint256"
					},
					{
						"astId": 92,
						"contract": "contracts/Vesting.sol:Vesting",
						"label": "owner",
						"offset": 0,
						"slot": "5",
						"type": "t_address"
					},
					{
						"astId": 96,
						"contract": "contracts/Vesting.sol:Vesting",
						"label": "beneficiaries",
						"offset": 0,
						"slot": "6",
						"type": "t_mapping(t_address,t_uint256)"
					},
					{
						"astId": 100,
						"contract": "contracts/Vesting.sol:Vesting",
						"label": "noOfvestedTokens",
						"offset": 0,
						"slot": "7",
						"type": "t_mapping(t_address,t_uint256)"
					},
					{
						"astId": 103,
						"contract": "contracts/Vesting.sol:Vesting",
						"label": "token",
						"offset": 0,
						"slot": "8",
						"type": "t_contract(IERC20)77"
					}
				],
				"types": {
					"t_address": {
						"encoding": "inplace",
						"label": "address",
						"numberOfBytes": "20"
					},
					"t_contract(IERC20)77": {
						"encoding": "inplace",
						"label": "contract IERC20",
						"numberOfBytes": "20"
					},
					"t_mapping(t_address,t_uint256)": {
						"encoding": "mapping",
						"key": "t_address",
						"label": "mapping(address => uint256)",
						"numberOfBytes": "32",
						"value": "t_uint256"
					},
					"t_uint256": {
						"encoding": "inplace",
						"label": "uint256",
						"numberOfBytes": "32"
					}
				}
			},
			"userdoc": {
				"kind": "user",
				"methods": {},
				"version": 1
			}
		}
	}
}