{
	"contracts/TokenVesting.sol": {
		"TokenVesting": {
			"abi": [
				{
					"inputs": [
						{
							"internalType": "contract IERC20",
							"name": "_token",
							"type": "address"
						}
					],
					"stateMutability": "nonpayable",
					"type": "constructor"
				},
				{
					"anonymous": false,
					"inputs": [
						{
							"indexed": false,
							"internalType": "address",
							"name": "beneficiary",
							"type": "address"
						},
						{
							"indexed": false,
							"internalType": "string",
							"name": "message",
							"type": "string"
						}
					],
					"name": "AddBeneficiaryEvent",
					"type": "event"
				},
				{
					"anonymous": false,
					"inputs": [
						{
							"indexed": false,
							"internalType": "address",
							"name": "beneficiary",
							"type": "address"
						},
						{
							"indexed": false,
							"internalType": "string",
							"name": "message",
							"type": "string"
						}
					],
					"name": "LockTokensEvent",
					"type": "event"
				},
				{
					"anonymous": false,
					"inputs": [
						{
							"indexed": false,
							"internalType": "address",
							"name": "beneficiary",
							"type": "address"
						},
						{
							"indexed": false,
							"internalType": "string",
							"name": "message",
							"type": "string"
						}
					],
					"name": "ReleaseTokensEvent",
					"type": "event"
				},
				{
					"inputs": [
						{
							"internalType": "address",
							"name": "_beneficiary",
							"type": "address"
						},
						{
							"internalType": "uint256",
							"name": "tokensToLock",
							"type": "uint256"
						}
					],
					"name": "addBeneficiary",
					"outputs": [],
					"stateMutability": "nonpayable",
					"type": "function"
				},
				{
					"inputs": [],
					"name": "cliff",
					"outputs": [
						{
							"internalType": "uint256",
							"name": "",
							"type": "uint256"
						}
					],
					"stateMutability": "view",
					"type": "function"
				},
				{
					"inputs": [],
					"name": "duration",
					"outputs": [
						{
							"internalType": "uint256",
							"name": "",
							"type": "uint256"
						}
					],
					"stateMutability": "view",
					"type": "function"
				},
				{
					"inputs": [
						{
							"internalType": "address",
							"name": "_beneficiary",
							"type": "address"
						},
						{
							"internalType": "uint256",
							"name": "tokensAmount",
							"type": "uint256"
						},
						{
							"internalType": "uint256",
							"name": "_cliff",
							"type": "uint256"
						},
						{
							"internalType": "uint256",
							"name": "_duration",
							"type": "uint256"
						},
						{
							"internalType": "uint256",
							"name": "_slicePeriod",
							"type": "uint256"
						}
					],
					"name": "lockTokens",
					"outputs": [],
					"stateMutability": "nonpayable",
					"type": "function"
				},
				{
					"inputs": [
						{
							"internalType": "address",
							"name": "_beneficiary",
							"type": "address"
						}
					],
					"name": "releasableTokens",
					"outputs": [
						{
							"internalType": "uint256",
							"name": "",
							"type": "uint256"
						}
					],
					"stateMutability": "view",
					"type": "function"
				},
				{
					"inputs": [
						{
							"internalType": "address",
							"name": "_beneficiary",
							"type": "address"
						}
					],
					"name": "releaseTokens",
					"outputs": [],
					"stateMutability": "nonpayable",
					"type": "function"
				},
				{
					"inputs": [
						{
							"internalType": "address",
							"name": "",
							"type": "address"
						}
					],
					"name": "releasedTokens",
					"outputs": [
						{
							"internalType": "uint256",
							"name": "",
							"type": "uint256"
						}
					],
					"stateMutability": "view",
					"type": "function"
				},
				{
					"inputs": [],
					"name": "slicePeriod",
					"outputs": [
						{
							"internalType": "uint256",
							"name": "",
							"type": "uint256"
						}
					],
					"stateMutability": "view",
					"type": "function"
				},
				{
					"inputs": [],
					"name": "startTime",
					"outputs": [
						{
							"internalType": "uint256",
							"name": "",
							"type": "uint256"
						}
					],
					"stateMutability": "view",
					"type": "function"
				},
				{
					"inputs": [],
					"name": "token",
					"outputs": [
						{
							"internalType": "contract IERC20",
							"name": "",
							"type": "address"
						}
					],
					"stateMutability": "view",
					"type": "function"
				},
				{
					"inputs": [
						{
							"internalType": "address",
							"name": "",
							"type": "address"
						}
					],
					"name": "totalTokens",
					"outputs": [
						{
							"internalType": "uint256",
							"name": "",
							"type": "uint256"
						}
					],
					"stateMutability": "view",
					"type": "function"
				}
			],
			"devdoc": {
				"kind": "dev",
				"methods": {},
				"version": 1
			},
			"evm": {
				"assembly": "    /* \"contracts/TokenVesting.sol\":121:3220  contract TokenVesting{... */\n  mstore(0x40, 0x80)\n    /* \"contracts/TokenVesting.sol\":460:526  constructor(IERC20 _token){... */\n  callvalue\n  dup1\n  iszero\n  tag_1\n  jumpi\n  0x00\n  dup1\n  revert\ntag_1:\n  pop\n  mload(0x40)\n  sub(codesize, bytecodeSize)\n  dup1\n  bytecodeSize\n  dup4\n  codecopy\n  dup2\n  dup2\n  add\n  0x40\n  mstore\n  dup2\n  add\n  swap1\n  tag_2\n  swap2\n  swap1\n  tag_3\n  jump\t// in\ntag_2:\n    /* \"contracts/TokenVesting.sol\":503:509  _token */\n  dup1\n    /* \"contracts/TokenVesting.sol\":497:502  token */\n  0x08\n  0x00\n    /* \"contracts/TokenVesting.sol\":497:509  token=_token */\n  0x0100\n  exp\n  dup2\n  sload\n  dup2\n  0xffffffffffffffffffffffffffffffffffffffff\n  mul\n  not\n  and\n  swap1\n  dup4\n  0xffffffffffffffffffffffffffffffffffffffff\n  and\n  mul\n  or\n  swap1\n  sstore\n  pop\n    /* \"contracts/TokenVesting.sol\":460:526  constructor(IERC20 _token){... */\n  pop\n    /* \"contracts/TokenVesting.sol\":121:3220  contract TokenVesting{... */\n  jump(tag_6)\n    /* \"#utility.yul\":88:205   */\ntag_8:\n    /* \"#utility.yul\":197:198   */\n  0x00\n    /* \"#utility.yul\":194:195   */\n  dup1\n    /* \"#utility.yul\":187:199   */\n  revert\n    /* \"#utility.yul\":334:460   */\ntag_10:\n    /* \"#utility.yul\":371:378   */\n  0x00\n    /* \"#utility.yul\":411:453   */\n  0xffffffffffffffffffffffffffffffffffffffff\n    /* \"#utility.yul\":404:409   */\n  dup3\n    /* \"#utility.yul\":400:454   */\n  and\n    /* \"#utility.yul\":389:454   */\n  swap1\n  pop\n    /* \"#utility.yul\":334:460   */\n  swap2\n  swap1\n  pop\n  jump\t// out\n    /* \"#utility.yul\":466:562   */\ntag_11:\n    /* \"#utility.yul\":503:510   */\n  0x00\n    /* \"#utility.yul\":532:556   */\n  tag_21\n    /* \"#utility.yul\":550:555   */\n  dup3\n    /* \"#utility.yul\":532:556   */\n  tag_10\n  jump\t// in\ntag_21:\n    /* \"#utility.yul\":521:556   */\n  swap1\n  pop\n    /* \"#utility.yul\":466:562   */\n  swap2\n  swap1\n  pop\n  jump\t// out\n    /* \"#utility.yul\":568:677   */\ntag_12:\n    /* \"#utility.yul\":618:625   */\n  0x00\n    /* \"#utility.yul\":647:671   */\n  tag_23\n    /* \"#utility.yul\":665:670   */\n  dup3\n    /* \"#utility.yul\":647:671   */\n  tag_11\n  jump\t// in\ntag_23:\n    /* \"#utility.yul\":636:671   */\n  swap1\n  pop\n    /* \"#utility.yul\":568:677   */\n  swap2\n  swap1\n  pop\n  jump\t// out\n    /* \"#utility.yul\":683:831   */\ntag_13:\n    /* \"#utility.yul\":769:806   */\n  tag_25\n    /* \"#utility.yul\":800:805   */\n  dup2\n    /* \"#utility.yul\":769:806   */\n  tag_12\n  jump\t// in\ntag_25:\n    /* \"#utility.yul\":762:767   */\n  dup2\n    /* \"#utility.yul\":759:807   */\n  eq\n    /* \"#utility.yul\":749:825   */\n  tag_26\n  jumpi\n    /* \"#utility.yul\":821:822   */\n  0x00\n    /* \"#utility.yul\":818:819   */\n  dup1\n    /* \"#utility.yul\":811:823   */\n  revert\n    /* \"#utility.yul\":749:825   */\ntag_26:\n    /* \"#utility.yul\":683:831   */\n  pop\n  jump\t// out\n    /* \"#utility.yul\":837:1006   */\ntag_14:\n    /* \"#utility.yul\":907:912   */\n  0x00\n    /* \"#utility.yul\":938:944   */\n  dup2\n    /* \"#utility.yul\":932:945   */\n  mload\n    /* \"#utility.yul\":923:945   */\n  swap1\n  pop\n    /* \"#utility.yul\":954:1000   */\n  tag_28\n    /* \"#utility.yul\":994:999   */\n  dup2\n    /* \"#utility.yul\":954:1000   */\n  tag_13\n  jump\t// in\ntag_28:\n    /* \"#utility.yul\":837:1006   */\n  swap3\n  swap2\n  pop\n  pop\n  jump\t// out\n    /* \"#utility.yul\":1012:1389   */\ntag_3:\n    /* \"#utility.yul\":1095:1101   */\n  0x00\n    /* \"#utility.yul\":1144:1146   */\n  0x20\n    /* \"#utility.yul\":1132:1141   */\n  dup3\n    /* \"#utility.yul\":1123:1130   */\n  dup5\n    /* \"#utility.yul\":1119:1142   */\n  sub\n    /* \"#utility.yul\":1115:1147   */\n  slt\n    /* \"#utility.yul\":1112:1231   */\n  iszero\n  tag_30\n  jumpi\n    /* \"#utility.yul\":1150:1229   */\n  tag_31\n  tag_8\n  jump\t// in\ntag_31:\n    /* \"#utility.yul\":1112:1231   */\ntag_30:\n    /* \"#utility.yul\":1270:1271   */\n  0x00\n    /* \"#utility.yul\":1295:1372   */\n  tag_32\n    /* \"#utility.yul\":1364:1371   */\n  dup5\n    /* \"#utility.yul\":1355:1361   */\n  dup3\n    /* \"#utility.yul\":1344:1353   */\n  dup6\n    /* \"#utility.yul\":1340:1362   */\n  add\n    /* \"#utility.yul\":1295:1372   */\n  tag_14\n  jump\t// in\ntag_32:\n    /* \"#utility.yul\":1285:1372   */\n  swap2\n  pop\n    /* \"#utility.yul\":1241:1382   */\n  pop\n    /* \"#utility.yul\":1012:1389   */\n  swap3\n  swap2\n  pop\n  pop\n  jump\t// out\n    /* \"contracts/TokenVesting.sol\":121:3220  contract TokenVesting{... */\ntag_6:\n  dataSize(sub_0)\n  dup1\n  dataOffset(sub_0)\n  0x00\n  codecopy\n  0x00\n  return\nstop\n\nsub_0: assembly {\n        /* \"contracts/TokenVesting.sol\":121:3220  contract TokenVesting{... */\n      mstore(0x40, 0x80)\n      callvalue\n      dup1\n      iszero\n      tag_1\n      jumpi\n      0x00\n      dup1\n      revert\n    tag_1:\n      pop\n      jumpi(tag_2, lt(calldatasize, 0x04))\n      shr(0xe0, calldataload(0x00))\n      dup1\n      0x78e97925\n      gt\n      tag_14\n      jumpi\n      dup1\n      0x78e97925\n      eq\n      tag_8\n      jumpi\n      dup1\n      0x87b0be48\n      eq\n      tag_9\n      jumpi\n      dup1\n      0x96074e70\n      eq\n      tag_10\n      jumpi\n      dup1\n      0xc4684e9d\n      eq\n      tag_11\n      jumpi\n      dup1\n      0xcb9199a2\n      eq\n      tag_12\n      jumpi\n      dup1\n      0xfc0c546a\n      eq\n      tag_13\n      jumpi\n      jump(tag_2)\n    tag_14:\n      dup1\n      0x0fb5a6b4\n      eq\n      tag_3\n      jumpi\n      dup1\n      0x13d033c0\n      eq\n      tag_4\n      jumpi\n      dup1\n      0x3ce301e5\n      eq\n      tag_5\n      jumpi\n      dup1\n      0x5afd6eb8\n      eq\n      tag_6\n      jumpi\n      dup1\n      0x70ff852b\n      eq\n      tag_7\n      jumpi\n    tag_2:\n      0x00\n      dup1\n      revert\n        /* \"contracts/TokenVesting.sol\":151:171  uint public duration */\n    tag_3:\n      tag_15\n      tag_16\n      jump\t// in\n    tag_15:\n      mload(0x40)\n      tag_17\n      swap2\n      swap1\n      tag_18\n      jump\t// in\n    tag_17:\n      mload(0x40)\n      dup1\n      swap2\n      sub\n      swap1\n      return\n        /* \"contracts/TokenVesting.sol\":178:195  uint public cliff */\n    tag_4:\n      tag_19\n      tag_20\n      jump\t// in\n    tag_19:\n      mload(0x40)\n      tag_21\n      swap2\n      swap1\n      tag_18\n      jump\t// in\n    tag_21:\n      mload(0x40)\n      dup1\n      swap2\n      sub\n      swap1\n      return\n        /* \"contracts/TokenVesting.sol\":1473:1997  function lockTokens(address _beneficiary,uint tokensAmount,uint _cliff,uint _duration,uint _slicePeriod)  public {... */\n    tag_5:\n      tag_22\n      0x04\n      dup1\n      calldatasize\n      sub\n      dup2\n      add\n      swap1\n      tag_23\n      swap2\n      swap1\n      tag_24\n      jump\t// in\n    tag_23:\n      tag_25\n      jump\t// in\n    tag_22:\n      stop\n        /* \"contracts/TokenVesting.sol\":202:225  uint public slicePeriod */\n    tag_6:\n      tag_26\n      tag_27\n      jump\t// in\n    tag_26:\n      mload(0x40)\n      tag_28\n      swap2\n      swap1\n      tag_18\n      jump\t// in\n    tag_28:\n      mload(0x40)\n      dup1\n      swap2\n      sub\n      swap1\n      return\n        /* \"contracts/TokenVesting.sol\":356:405  mapping(address => uint256) public releasedTokens */\n    tag_7:\n      tag_29\n      0x04\n      dup1\n      calldatasize\n      sub\n      dup2\n      add\n      swap1\n      tag_30\n      swap2\n      swap1\n      tag_31\n      jump\t// in\n    tag_30:\n      tag_32\n      jump\t// in\n    tag_29:\n      mload(0x40)\n      tag_33\n      swap2\n      swap1\n      tag_18\n      jump\t// in\n    tag_33:\n      mload(0x40)\n      dup1\n      swap2\n      sub\n      swap1\n      return\n        /* \"contracts/TokenVesting.sol\":232:253  uint public startTime */\n    tag_8:\n      tag_34\n      tag_35\n      jump\t// in\n    tag_34:\n      mload(0x40)\n      tag_36\n      swap2\n      swap1\n      tag_18\n      jump\t// in\n    tag_36:\n      mload(0x40)\n      dup1\n      swap2\n      sub\n      swap1\n      return\n        /* \"contracts/TokenVesting.sol\":2743:3217  function releaseTokens(address _beneficiary) isBeneficiaryOrContractOwner(_beneficiary) public { ... */\n    tag_9:\n      tag_37\n      0x04\n      dup1\n      calldatasize\n      sub\n      dup2\n      add\n      swap1\n      tag_38\n      swap2\n      swap1\n      tag_31\n      jump\t// in\n    tag_38:\n      tag_39\n      jump\t// in\n    tag_37:\n      stop\n        /* \"contracts/TokenVesting.sol\":1232:1446  function addBeneficiary(address _beneficiary,uint tokensToLock) onlyOwner public {... */\n    tag_10:\n      tag_40\n      0x04\n      dup1\n      calldatasize\n      sub\n      dup2\n      add\n      swap1\n      tag_41\n      swap2\n      swap1\n      tag_42\n      jump\t// in\n    tag_41:\n      tag_43\n      jump\t// in\n    tag_40:\n      stop\n        /* \"contracts/TokenVesting.sol\":2053:2701  function releasableTokens(address _beneficiary) public view cliffPeriodOver returns(uint) {... */\n    tag_11:\n      tag_44\n      0x04\n      dup1\n      calldatasize\n      sub\n      dup2\n      add\n      swap1\n      tag_45\n      swap2\n      swap1\n      tag_31\n      jump\t// in\n    tag_45:\n      tag_46\n      jump\t// in\n    tag_44:\n      mload(0x40)\n      tag_47\n      swap2\n      swap1\n      tag_18\n      jump\t// in\n    tag_47:\n      mload(0x40)\n      dup1\n      swap2\n      sub\n      swap1\n      return\n        /* \"contracts/TokenVesting.sol\":303:349  mapping(address => uint256) public totalTokens */\n    tag_12:\n      tag_48\n      0x04\n      dup1\n      calldatasize\n      sub\n      dup2\n      add\n      swap1\n      tag_49\n      swap2\n      swap1\n      tag_31\n      jump\t// in\n    tag_49:\n      tag_50\n      jump\t// in\n    tag_48:\n      mload(0x40)\n      tag_51\n      swap2\n      swap1\n      tag_18\n      jump\t// in\n    tag_51:\n      mload(0x40)\n      dup1\n      swap2\n      sub\n      swap1\n      return\n        /* \"contracts/TokenVesting.sol\":432:451  IERC20 public token */\n    tag_13:\n      tag_52\n      tag_53\n      jump\t// in\n    tag_52:\n      mload(0x40)\n      tag_54\n      swap2\n      swap1\n      tag_55\n      jump\t// in\n    tag_54:\n      mload(0x40)\n      dup1\n      swap2\n      sub\n      swap1\n      return\n        /* \"contracts/TokenVesting.sol\":151:171  uint public duration */\n    tag_16:\n      sload(0x00)\n      dup2\n      jump\t// out\n        /* \"contracts/TokenVesting.sol\":178:195  uint public cliff */\n    tag_20:\n      sload(0x01)\n      dup2\n      jump\t// out\n        /* \"contracts/TokenVesting.sol\":1473:1997  function lockTokens(address _beneficiary,uint tokensAmount,uint _cliff,uint _duration,uint _slicePeriod)  public {... */\n    tag_25:\n        /* \"contracts/TokenVesting.sol\":1606:1615  _duration */\n      dup2\n        /* \"contracts/TokenVesting.sol\":1597:1605  duration */\n      0x00\n        /* \"contracts/TokenVesting.sol\":1597:1615  duration=_duration */\n      dup2\n      swap1\n      sstore\n      pop\n        /* \"contracts/TokenVesting.sol\":1632:1638  _cliff */\n      dup3\n        /* \"contracts/TokenVesting.sol\":1626:1631  cliff */\n      0x01\n        /* \"contracts/TokenVesting.sol\":1626:1638  cliff=_cliff */\n      dup2\n      swap1\n      sstore\n      pop\n        /* \"contracts/TokenVesting.sol\":1661:1673  _slicePeriod */\n      dup1\n        /* \"contracts/TokenVesting.sol\":1649:1660  slicePeriod */\n      0x02\n        /* \"contracts/TokenVesting.sol\":1649:1673  slicePeriod=_slicePeriod */\n      dup2\n      swap1\n      sstore\n      pop\n        /* \"contracts/TokenVesting.sol\":1694:1709  block.timestamp */\n      timestamp\n        /* \"contracts/TokenVesting.sol\":1684:1693  startTime */\n      0x03\n        /* \"contracts/TokenVesting.sol\":1684:1709  startTime=block.timestamp */\n      dup2\n      swap1\n      sstore\n      pop\n        /* \"contracts/TokenVesting.sol\":1726:1736  msg.sender */\n      caller\n        /* \"contracts/TokenVesting.sol\":1720:1725  owner */\n      0x07\n      0x00\n        /* \"contracts/TokenVesting.sol\":1720:1736  owner=msg.sender */\n      0x0100\n      exp\n      dup2\n      sload\n      dup2\n      0xffffffffffffffffffffffffffffffffffffffff\n      mul\n      not\n      and\n      swap1\n      dup4\n      0xffffffffffffffffffffffffffffffffffffffff\n      and\n      mul\n      or\n      swap1\n      sstore\n      pop\n        /* \"contracts/TokenVesting.sol\":1775:1787  tokensAmount */\n      dup4\n        /* \"contracts/TokenVesting.sol\":1747:1760  beneficiaries */\n      0x04\n        /* \"contracts/TokenVesting.sol\":1747:1774  beneficiaries[_beneficiary] */\n      0x00\n        /* \"contracts/TokenVesting.sol\":1761:1773  _beneficiary */\n      dup8\n        /* \"contracts/TokenVesting.sol\":1747:1774  beneficiaries[_beneficiary] */\n      0xffffffffffffffffffffffffffffffffffffffff\n      and\n      0xffffffffffffffffffffffffffffffffffffffff\n      and\n      dup2\n      mstore\n      0x20\n      add\n      swap1\n      dup2\n      mstore\n      0x20\n      add\n      0x00\n      keccak256\n        /* \"contracts/TokenVesting.sol\":1747:1787  beneficiaries[_beneficiary]=tokensAmount */\n      dup2\n      swap1\n      sstore\n      pop\n        /* \"contracts/TokenVesting.sol\":1824:1837  beneficiaries */\n      0x04\n        /* \"contracts/TokenVesting.sol\":1824:1851  beneficiaries[_beneficiary] */\n      0x00\n        /* \"contracts/TokenVesting.sol\":1838:1850  _beneficiary */\n      dup7\n        /* \"contracts/TokenVesting.sol\":1824:1851  beneficiaries[_beneficiary] */\n      0xffffffffffffffffffffffffffffffffffffffff\n      and\n      0xffffffffffffffffffffffffffffffffffffffff\n      and\n      dup2\n      mstore\n      0x20\n      add\n      swap1\n      dup2\n      mstore\n      0x20\n      add\n      0x00\n      keccak256\n      sload\n        /* \"contracts/TokenVesting.sol\":1798:1809  totalTokens */\n      0x05\n        /* \"contracts/TokenVesting.sol\":1798:1823  totalTokens[_beneficiary] */\n      0x00\n        /* \"contracts/TokenVesting.sol\":1810:1822  _beneficiary */\n      dup8\n        /* \"contracts/TokenVesting.sol\":1798:1823  totalTokens[_beneficiary] */\n      0xffffffffffffffffffffffffffffffffffffffff\n      and\n      0xffffffffffffffffffffffffffffffffffffffff\n      and\n      dup2\n      mstore\n      0x20\n      add\n      swap1\n      dup2\n      mstore\n      0x20\n      add\n      0x00\n      keccak256\n        /* \"contracts/TokenVesting.sol\":1798:1851  totalTokens[_beneficiary]=beneficiaries[_beneficiary] */\n      dup2\n      swap1\n      sstore\n      pop\n        /* \"contracts/TokenVesting.sol\":1862:1867  token */\n      0x08\n      0x00\n      swap1\n      sload\n      swap1\n      0x0100\n      exp\n      swap1\n      div\n      0xffffffffffffffffffffffffffffffffffffffff\n      and\n        /* \"contracts/TokenVesting.sol\":1862:1876  token.transfer */\n      0xffffffffffffffffffffffffffffffffffffffff\n      and\n      0xa9059cbb\n        /* \"contracts/TokenVesting.sol\":1885:1889  this */\n      address\n        /* \"contracts/TokenVesting.sol\":1891:1903  tokensAmount */\n      dup7\n        /* \"contracts/TokenVesting.sol\":1862:1904  token.transfer(address(this),tokensAmount) */\n      mload(0x40)\n      dup4\n      0xffffffff\n      and\n      0xe0\n      shl\n      dup2\n      mstore\n      0x04\n      add\n      tag_57\n      swap3\n      swap2\n      swap1\n      tag_58\n      jump\t// in\n    tag_57:\n      0x20\n      mload(0x40)\n      dup1\n      dup4\n      sub\n      dup2\n      0x00\n      dup8\n      gas\n      call\n      iszero\n      dup1\n      iszero\n      tag_60\n      jumpi\n      returndatasize\n      0x00\n      dup1\n      returndatacopy\n      revert(0x00, returndatasize)\n    tag_60:\n      pop\n      pop\n      pop\n      pop\n      mload(0x40)\n      returndatasize\n      not(0x1f)\n      0x1f\n      dup3\n      add\n      and\n      dup3\n      add\n      dup1\n      0x40\n      mstore\n      pop\n      dup2\n      add\n      swap1\n      tag_61\n      swap2\n      swap1\n      tag_62\n      jump\t// in\n    tag_61:\n      pop\n        /* \"contracts/TokenVesting.sol\":1920:1989  LockTokensEvent(_beneficiary, \"Tokens are Locked in smart contract \") */\n      0x58061f685b438748cf21469042b11fe4dfb0c77fd2da64032c5adc017fc09a88\n        /* \"contracts/TokenVesting.sol\":1936:1948  _beneficiary */\n      dup6\n        /* \"contracts/TokenVesting.sol\":1920:1989  LockTokensEvent(_beneficiary, \"Tokens are Locked in smart contract \") */\n      mload(0x40)\n      tag_63\n      swap2\n      swap1\n      tag_64\n      jump\t// in\n    tag_63:\n      mload(0x40)\n      dup1\n      swap2\n      sub\n      swap1\n      log1\n        /* \"contracts/TokenVesting.sol\":1473:1997  function lockTokens(address _beneficiary,uint tokensAmount,uint _cliff,uint _duration,uint _slicePeriod)  public {... */\n      pop\n      pop\n      pop\n      pop\n      pop\n      jump\t// out\n        /* \"contracts/TokenVesting.sol\":202:225  uint public slicePeriod */\n    tag_27:\n      sload(0x02)\n      dup2\n      jump\t// out\n        /* \"contracts/TokenVesting.sol\":356:405  mapping(address => uint256) public releasedTokens */\n    tag_32:\n      mstore(0x20, 0x06)\n      dup1\n      0x00\n      mstore\n      keccak256(0x00, 0x40)\n      0x00\n      swap2\n      pop\n      swap1\n      pop\n      sload\n      dup2\n      jump\t// out\n        /* \"contracts/TokenVesting.sol\":232:253  uint public startTime */\n    tag_35:\n      sload(0x03)\n      dup2\n      jump\t// out\n        /* \"contracts/TokenVesting.sol\":2743:3217  function releaseTokens(address _beneficiary) isBeneficiaryOrContractOwner(_beneficiary) public { ... */\n    tag_39:\n        /* \"contracts/TokenVesting.sol\":2817:2829  _beneficiary */\n      dup1\n        /* \"contracts/TokenVesting.sol\":2849:2867  uint tokensClaimed */\n      0x00\n        /* \"contracts/TokenVesting.sol\":2868:2898  releasableTokens(_beneficiary) */\n      tag_67\n        /* \"contracts/TokenVesting.sol\":2885:2897  _beneficiary */\n      dup4\n        /* \"contracts/TokenVesting.sol\":2868:2884  releasableTokens */\n      tag_46\n        /* \"contracts/TokenVesting.sol\":2868:2898  releasableTokens(_beneficiary) */\n      jump\t// in\n    tag_67:\n        /* \"contracts/TokenVesting.sol\":2849:2898  uint tokensClaimed=releasableTokens(_beneficiary) */\n      swap1\n      pop\n        /* \"contracts/TokenVesting.sol\":2931:2944  beneficiaries */\n      0x04\n        /* \"contracts/TokenVesting.sol\":2931:2958  beneficiaries[_beneficiary] */\n      0x00\n        /* \"contracts/TokenVesting.sol\":2945:2957  _beneficiary */\n      dup5\n        /* \"contracts/TokenVesting.sol\":2931:2958  beneficiaries[_beneficiary] */\n      0xffffffffffffffffffffffffffffffffffffffff\n      and\n      0xffffffffffffffffffffffffffffffffffffffff\n      and\n      dup2\n      mstore\n      0x20\n      add\n      swap1\n      dup2\n      mstore\n      0x20\n      add\n      0x00\n      keccak256\n      sload\n        /* \"contracts/TokenVesting.sol\":2916:2929  tokensClaimed */\n      dup2\n        /* \"contracts/TokenVesting.sol\":2916:2958  tokensClaimed<=beneficiaries[_beneficiary] */\n      gt\n      iszero\n        /* \"contracts/TokenVesting.sol\":2908:3008  require(tokensClaimed<=beneficiaries[_beneficiary],\"Tokens Claiming are greater than tokens locked\") */\n      tag_68\n      jumpi\n      mload(0x40)\n      0x08c379a000000000000000000000000000000000000000000000000000000000\n      dup2\n      mstore\n      0x04\n      add\n      tag_69\n      swap1\n      tag_70\n      jump\t// in\n    tag_69:\n      mload(0x40)\n      dup1\n      swap2\n      sub\n      swap1\n      revert\n    tag_68:\n        /* \"contracts/TokenVesting.sol\":3047:3060  tokensClaimed */\n      dup1\n        /* \"contracts/TokenVesting.sol\":3018:3032  releasedTokens */\n      0x06\n        /* \"contracts/TokenVesting.sol\":3018:3046  releasedTokens[_beneficiary] */\n      0x00\n        /* \"contracts/TokenVesting.sol\":3033:3045  _beneficiary */\n      dup6\n        /* \"contracts/TokenVesting.sol\":3018:3046  releasedTokens[_beneficiary] */\n      0xffffffffffffffffffffffffffffffffffffffff\n      and\n      0xffffffffffffffffffffffffffffffffffffffff\n      and\n      dup2\n      mstore\n      0x20\n      add\n      swap1\n      dup2\n      mstore\n      0x20\n      add\n      0x00\n      keccak256\n        /* \"contracts/TokenVesting.sol\":3018:3060  releasedTokens[_beneficiary]=tokensClaimed */\n      dup2\n      swap1\n      sstore\n      pop\n        /* \"contracts/TokenVesting.sol\":3070:3075  token */\n      0x08\n      0x00\n      swap1\n      sload\n      swap1\n      0x0100\n      exp\n      swap1\n      div\n      0xffffffffffffffffffffffffffffffffffffffff\n      and\n        /* \"contracts/TokenVesting.sol\":3070:3084  token.transfer */\n      0xffffffffffffffffffffffffffffffffffffffff\n      and\n      0xa9059cbb\n        /* \"contracts/TokenVesting.sol\":3085:3097  _beneficiary */\n      dup5\n        /* \"contracts/TokenVesting.sol\":3098:3111  tokensClaimed */\n      dup4\n        /* \"contracts/TokenVesting.sol\":3070:3112  token.transfer(_beneficiary,tokensClaimed) */\n      mload(0x40)\n      dup4\n      0xffffffff\n      and\n      0xe0\n      shl\n      dup2\n      mstore\n      0x04\n      add\n      tag_71\n      swap3\n      swap2\n      swap1\n      tag_58\n      jump\t// in\n    tag_71:\n      0x20\n      mload(0x40)\n      dup1\n      dup4\n      sub\n      dup2\n      0x00\n      dup8\n      gas\n      call\n      iszero\n      dup1\n      iszero\n      tag_73\n      jumpi\n      returndatasize\n      0x00\n      dup1\n      returndatacopy\n      revert(0x00, returndatasize)\n    tag_73:\n      pop\n      pop\n      pop\n      pop\n      mload(0x40)\n      returndatasize\n      not(0x1f)\n      0x1f\n      dup3\n      add\n      and\n      dup3\n      add\n      dup1\n      0x40\n      mstore\n      pop\n      dup2\n      add\n      swap1\n      tag_74\n      swap2\n      swap1\n      tag_62\n      jump\t// in\n    tag_74:\n      pop\n        /* \"contracts/TokenVesting.sol\":3127:3209  ReleaseTokensEvent(_beneficiary, \"Tokens are Released in account of beneficiary \") */\n      0xa13f186497986e7b059df4137d98a76d0cb346d0e9a294755b01975e190434a9\n        /* \"contracts/TokenVesting.sol\":3146:3158  _beneficiary */\n      dup4\n        /* \"contracts/TokenVesting.sol\":3127:3209  ReleaseTokensEvent(_beneficiary, \"Tokens are Released in account of beneficiary \") */\n      mload(0x40)\n      tag_75\n      swap2\n      swap1\n      tag_76\n      jump\t// in\n    tag_75:\n      mload(0x40)\n      dup1\n      swap2\n      sub\n      swap1\n      log1\n        /* \"contracts/TokenVesting.sol\":2838:3217  { ... */\n      pop\n        /* \"contracts/TokenVesting.sol\":1001:1002  0 */\n      0x00\n        /* \"contracts/TokenVesting.sol\":973:986  beneficiaries */\n      0x04\n        /* \"contracts/TokenVesting.sol\":973:1000  beneficiaries[_beneficiary] */\n      0x00\n        /* \"contracts/TokenVesting.sol\":987:999  _beneficiary */\n      dup4\n        /* \"contracts/TokenVesting.sol\":973:1000  beneficiaries[_beneficiary] */\n      0xffffffffffffffffffffffffffffffffffffffff\n      and\n      0xffffffffffffffffffffffffffffffffffffffff\n      and\n      dup2\n      mstore\n      0x20\n      add\n      swap1\n      dup2\n      mstore\n      0x20\n      add\n      0x00\n      keccak256\n      sload\n        /* \"contracts/TokenVesting.sol\":973:1002  beneficiaries[_beneficiary]>0 */\n      gt\n        /* \"contracts/TokenVesting.sol\":973:1023  beneficiaries[_beneficiary]>0 || msg.sender==owner */\n      dup1\n      tag_77\n      jumpi\n      pop\n        /* \"contracts/TokenVesting.sol\":1018:1023  owner */\n      0x07\n      0x00\n      swap1\n      sload\n      swap1\n      0x0100\n      exp\n      swap1\n      div\n      0xffffffffffffffffffffffffffffffffffffffff\n      and\n        /* \"contracts/TokenVesting.sol\":1006:1023  msg.sender==owner */\n      0xffffffffffffffffffffffffffffffffffffffff\n      and\n        /* \"contracts/TokenVesting.sol\":1006:1016  msg.sender */\n      caller\n        /* \"contracts/TokenVesting.sol\":1006:1023  msg.sender==owner */\n      0xffffffffffffffffffffffffffffffffffffffff\n      and\n      eq\n        /* \"contracts/TokenVesting.sol\":973:1023  beneficiaries[_beneficiary]>0 || msg.sender==owner */\n    tag_77:\n        /* \"contracts/TokenVesting.sol\":965:1071  require(beneficiaries[_beneficiary]>0 || msg.sender==owner,\"Only Beneficiary Or Owner can Release Tokens\") */\n      tag_78\n      jumpi\n      mload(0x40)\n      0x08c379a000000000000000000000000000000000000000000000000000000000\n      dup2\n      mstore\n      0x04\n      add\n      tag_79\n      swap1\n      tag_80\n      jump\t// in\n    tag_79:\n      mload(0x40)\n      dup1\n      swap2\n      sub\n      swap1\n      revert\n    tag_78:\n        /* \"contracts/TokenVesting.sol\":2743:3217  function releaseTokens(address _beneficiary) isBeneficiaryOrContractOwner(_beneficiary) public { ... */\n      pop\n      pop\n      jump\t// out\n        /* \"contracts/TokenVesting.sol\":1232:1446  function addBeneficiary(address _beneficiary,uint tokensToLock) onlyOwner public {... */\n    tag_43:\n        /* \"contracts/TokenVesting.sol\":1352:1364  tokensToLock */\n      dup1\n        /* \"contracts/TokenVesting.sol\":1324:1337  beneficiaries */\n      0x04\n        /* \"contracts/TokenVesting.sol\":1324:1351  beneficiaries[_beneficiary] */\n      0x00\n        /* \"contracts/TokenVesting.sol\":1338:1350  _beneficiary */\n      dup5\n        /* \"contracts/TokenVesting.sol\":1324:1351  beneficiaries[_beneficiary] */\n      0xffffffffffffffffffffffffffffffffffffffff\n      and\n      0xffffffffffffffffffffffffffffffffffffffff\n      and\n      dup2\n      mstore\n      0x20\n      add\n      swap1\n      dup2\n      mstore\n      0x20\n      add\n      0x00\n      keccak256\n        /* \"contracts/TokenVesting.sol\":1324:1364  beneficiaries[_beneficiary]=tokensToLock */\n      dup2\n      swap1\n      sstore\n      pop\n        /* \"contracts/TokenVesting.sol\":1380:1438  AddBeneficiaryEvent(_beneficiary, \"New Beneficiary Added\") */\n      0x557197374edb4e72999d5d4c84ca4715c58797739aab2f2b7e300db81b4cd1c3\n        /* \"contracts/TokenVesting.sol\":1400:1412  _beneficiary */\n      dup3\n        /* \"contracts/TokenVesting.sol\":1380:1438  AddBeneficiaryEvent(_beneficiary, \"New Beneficiary Added\") */\n      mload(0x40)\n      tag_83\n      swap2\n      swap1\n      tag_84\n      jump\t// in\n    tag_83:\n      mload(0x40)\n      dup1\n      swap2\n      sub\n      swap1\n      log1\n        /* \"contracts/TokenVesting.sol\":1148:1153  owner */\n      0x07\n      0x00\n      swap1\n      sload\n      swap1\n      0x0100\n      exp\n      swap1\n      div\n      0xffffffffffffffffffffffffffffffffffffffff\n      and\n        /* \"contracts/TokenVesting.sol\":1136:1153  msg.sender==owner */\n      0xffffffffffffffffffffffffffffffffffffffff\n      and\n        /* \"contracts/TokenVesting.sol\":1136:1146  msg.sender */\n      caller\n        /* \"contracts/TokenVesting.sol\":1136:1153  msg.sender==owner */\n      0xffffffffffffffffffffffffffffffffffffffff\n      and\n      eq\n        /* \"contracts/TokenVesting.sol\":1128:1191  require(msg.sender==owner,\" Only Owner can Add benefeiciaries\") */\n      tag_85\n      jumpi\n      mload(0x40)\n      0x08c379a000000000000000000000000000000000000000000000000000000000\n      dup2\n      mstore\n      0x04\n      add\n      tag_86\n      swap1\n      tag_87\n      jump\t// in\n    tag_86:\n      mload(0x40)\n      dup1\n      swap2\n      sub\n      swap1\n      revert\n    tag_85:\n        /* \"contracts/TokenVesting.sol\":1232:1446  function addBeneficiary(address _beneficiary,uint tokensToLock) onlyOwner public {... */\n      pop\n      pop\n      jump\t// out\n        /* \"contracts/TokenVesting.sol\":2053:2701  function releasableTokens(address _beneficiary) public view cliffPeriodOver returns(uint) {... */\n    tag_46:\n        /* \"contracts/TokenVesting.sol\":2137:2141  uint */\n      0x00\n        /* \"contracts/TokenVesting.sol\":2154:2173  uint timeSinceStart */\n      dup1\n        /* \"contracts/TokenVesting.sol\":2194:2203  startTime */\n      sload(0x03)\n        /* \"contracts/TokenVesting.sol\":2176:2191  block.timestamp */\n      timestamp\n        /* \"contracts/TokenVesting.sol\":2176:2203  block.timestamp - startTime */\n      tag_90\n      swap2\n      swap1\n      tag_91\n      jump\t// in\n    tag_90:\n        /* \"contracts/TokenVesting.sol\":2154:2203  uint timeSinceStart = block.timestamp - startTime */\n      swap1\n      pop\n        /* \"contracts/TokenVesting.sol\":2214:2240  uint noOfPeriodsSinceStart */\n      0x00\n        /* \"contracts/TokenVesting.sol\":2260:2271  slicePeriod */\n      sload(0x02)\n        /* \"contracts/TokenVesting.sol\":2243:2257  timeSinceStart */\n      dup3\n        /* \"contracts/TokenVesting.sol\":2243:2271  timeSinceStart / slicePeriod */\n      tag_92\n      swap2\n      swap1\n      tag_93\n      jump\t// in\n    tag_92:\n        /* \"contracts/TokenVesting.sol\":2214:2271  uint noOfPeriodsSinceStart = timeSinceStart / slicePeriod */\n      swap1\n      pop\n        /* \"contracts/TokenVesting.sol\":2282:2299  uint totalPeriods */\n      0x00\n        /* \"contracts/TokenVesting.sol\":2313:2324  slicePeriod */\n      sload(0x02)\n        /* \"contracts/TokenVesting.sol\":2302:2310  duration */\n      sload(0x00)\n        /* \"contracts/TokenVesting.sol\":2302:2324  duration / slicePeriod */\n      tag_94\n      swap2\n      swap1\n      tag_93\n      jump\t// in\n    tag_94:\n        /* \"contracts/TokenVesting.sol\":2282:2324  uint totalPeriods = duration / slicePeriod */\n      swap1\n      pop\n        /* \"contracts/TokenVesting.sol\":2364:2376  totalPeriods */\n      dup1\n        /* \"contracts/TokenVesting.sol\":2339:2360  noOfPeriodsSinceStart */\n      dup3\n        /* \"contracts/TokenVesting.sol\":2339:2376  noOfPeriodsSinceStart >= totalPeriods */\n      lt\n        /* \"contracts/TokenVesting.sol\":2335:2694  if (noOfPeriodsSinceStart >= totalPeriods ) {... */\n      tag_95\n      jumpi\n        /* \"contracts/TokenVesting.sol\":2415:2428  beneficiaries */\n      0x04\n        /* \"contracts/TokenVesting.sol\":2415:2442  beneficiaries[_beneficiary] */\n      0x00\n        /* \"contracts/TokenVesting.sol\":2429:2441  _beneficiary */\n      dup7\n        /* \"contracts/TokenVesting.sol\":2415:2442  beneficiaries[_beneficiary] */\n      0xffffffffffffffffffffffffffffffffffffffff\n      and\n      0xffffffffffffffffffffffffffffffffffffffff\n      and\n      dup2\n      mstore\n      0x20\n      add\n      swap1\n      dup2\n      mstore\n      0x20\n      add\n      0x00\n      keccak256\n      sload\n        /* \"contracts/TokenVesting.sol\":2408:2442  return beneficiaries[_beneficiary] */\n      swap4\n      pop\n      pop\n      pop\n      pop\n      jump(tag_89)\n        /* \"contracts/TokenVesting.sol\":2335:2694  if (noOfPeriodsSinceStart >= totalPeriods ) {... */\n    tag_95:\n        /* \"contracts/TokenVesting.sol\":2485:2513  uint tokensVestedInOnePeriod */\n      0x00\n        /* \"contracts/TokenVesting.sol\":2546:2558  totalPeriods */\n      dup2\n        /* \"contracts/TokenVesting.sol\":2516:2529  beneficiaries */\n      0x04\n        /* \"contracts/TokenVesting.sol\":2516:2543  beneficiaries[_beneficiary] */\n      0x00\n        /* \"contracts/TokenVesting.sol\":2530:2542  _beneficiary */\n      dup9\n        /* \"contracts/TokenVesting.sol\":2516:2543  beneficiaries[_beneficiary] */\n      0xffffffffffffffffffffffffffffffffffffffff\n      and\n      0xffffffffffffffffffffffffffffffffffffffff\n      and\n      dup2\n      mstore\n      0x20\n      add\n      swap1\n      dup2\n      mstore\n      0x20\n      add\n      0x00\n      keccak256\n      sload\n        /* \"contracts/TokenVesting.sol\":2516:2558  beneficiaries[_beneficiary] / totalPeriods */\n      tag_97\n      swap2\n      swap1\n      tag_93\n      jump\t// in\n    tag_97:\n        /* \"contracts/TokenVesting.sol\":2485:2558  uint tokensVestedInOnePeriod = beneficiaries[_beneficiary] / totalPeriods */\n      swap1\n      pop\n        /* \"contracts/TokenVesting.sol\":2573:2594  uint tokensToBeVested */\n      0x00\n        /* \"contracts/TokenVesting.sol\":2623:2644  noOfPeriodsSinceStart */\n      dup4\n        /* \"contracts/TokenVesting.sol\":2597:2620  tokensVestedInOnePeriod */\n      dup3\n        /* \"contracts/TokenVesting.sol\":2597:2644  tokensVestedInOnePeriod * noOfPeriodsSinceStart */\n      tag_98\n      swap2\n      swap1\n      tag_99\n      jump\t// in\n    tag_98:\n        /* \"contracts/TokenVesting.sol\":2573:2644  uint tokensToBeVested = tokensVestedInOnePeriod * noOfPeriodsSinceStart */\n      swap1\n      pop\n        /* \"contracts/TokenVesting.sol\":2666:2682  tokensToBeVested */\n      dup1\n        /* \"contracts/TokenVesting.sol\":2659:2682  return tokensToBeVested */\n      swap6\n      pop\n      pop\n      pop\n      pop\n      pop\n      pop\n        /* \"contracts/TokenVesting.sol\":801:802  _ */\n    tag_89:\n        /* \"contracts/TokenVesting.sol\":838:843  cliff */\n      sload(0x01)\n        /* \"contracts/TokenVesting.sol\":821:836  block.timestamp */\n      timestamp\n        /* \"contracts/TokenVesting.sol\":821:843  block.timestamp>=cliff */\n      lt\n      iszero\n        /* \"contracts/TokenVesting.sol\":813:869  require(block.timestamp>=cliff,\"Wait Till Cliff period\") */\n      tag_100\n      jumpi\n      mload(0x40)\n      0x08c379a000000000000000000000000000000000000000000000000000000000\n      dup2\n      mstore\n      0x04\n      add\n      tag_101\n      swap1\n      tag_102\n      jump\t// in\n    tag_101:\n      mload(0x40)\n      dup1\n      swap2\n      sub\n      swap1\n      revert\n    tag_100:\n        /* \"contracts/TokenVesting.sol\":2053:2701  function releasableTokens(address _beneficiary) public view cliffPeriodOver returns(uint) {... */\n      swap2\n      swap1\n      pop\n      jump\t// out\n        /* \"contracts/TokenVesting.sol\":303:349  mapping(address => uint256) public totalTokens */\n    tag_50:\n      mstore(0x20, 0x05)\n      dup1\n      0x00\n      mstore\n      keccak256(0x00, 0x40)\n      0x00\n      swap2\n      pop\n      swap1\n      pop\n      sload\n      dup2\n      jump\t// out\n        /* \"contracts/TokenVesting.sol\":432:451  IERC20 public token */\n    tag_53:\n      0x08\n      0x00\n      swap1\n      sload\n      swap1\n      0x0100\n      exp\n      swap1\n      div\n      0xffffffffffffffffffffffffffffffffffffffff\n      and\n      dup2\n      jump\t// out\n        /* \"#utility.yul\":7:84   */\n    tag_103:\n        /* \"#utility.yul\":44:51   */\n      0x00\n        /* \"#utility.yul\":73:78   */\n      dup2\n        /* \"#utility.yul\":62:78   */\n      swap1\n      pop\n        /* \"#utility.yul\":7:84   */\n      swap2\n      swap1\n      pop\n      jump\t// out\n        /* \"#utility.yul\":90:208   */\n    tag_104:\n        /* \"#utility.yul\":177:201   */\n      tag_143\n        /* \"#utility.yul\":195:200   */\n      dup2\n        /* \"#utility.yul\":177:201   */\n      tag_103\n      jump\t// in\n    tag_143:\n        /* \"#utility.yul\":172:175   */\n      dup3\n        /* \"#utility.yul\":165:202   */\n      mstore\n        /* \"#utility.yul\":90:208   */\n      pop\n      pop\n      jump\t// out\n        /* \"#utility.yul\":214:436   */\n    tag_18:\n        /* \"#utility.yul\":307:311   */\n      0x00\n        /* \"#utility.yul\":345:347   */\n      0x20\n        /* \"#utility.yul\":334:343   */\n      dup3\n        /* \"#utility.yul\":330:348   */\n      add\n        /* \"#utility.yul\":322:348   */\n      swap1\n      pop\n        /* \"#utility.yul\":358:429   */\n      tag_145\n        /* \"#utility.yul\":426:427   */\n      0x00\n        /* \"#utility.yul\":415:424   */\n      dup4\n        /* \"#utility.yul\":411:428   */\n      add\n        /* \"#utility.yul\":402:408   */\n      dup5\n        /* \"#utility.yul\":358:429   */\n      tag_104\n      jump\t// in\n    tag_145:\n        /* \"#utility.yul\":214:436   */\n      swap3\n      swap2\n      pop\n      pop\n      jump\t// out\n        /* \"#utility.yul\":523:640   */\n    tag_106:\n        /* \"#utility.yul\":632:633   */\n      0x00\n        /* \"#utility.yul\":629:630   */\n      dup1\n        /* \"#utility.yul\":622:634   */\n      revert\n        /* \"#utility.yul\":769:895   */\n    tag_108:\n        /* \"#utility.yul\":806:813   */\n      0x00\n        /* \"#utility.yul\":846:888   */\n      0xffffffffffffffffffffffffffffffffffffffff\n        /* \"#utility.yul\":839:844   */\n      dup3\n        /* \"#utility.yul\":835:889   */\n      and\n        /* \"#utility.yul\":824:889   */\n      swap1\n      pop\n        /* \"#utility.yul\":769:895   */\n      swap2\n      swap1\n      pop\n      jump\t// out\n        /* \"#utility.yul\":901:997   */\n    tag_109:\n        /* \"#utility.yul\":938:945   */\n      0x00\n        /* \"#utility.yul\":967:991   */\n      tag_151\n        /* \"#utility.yul\":985:990   */\n      dup3\n        /* \"#utility.yul\":967:991   */\n      tag_108\n      jump\t// in\n    tag_151:\n        /* \"#utility.yul\":956:991   */\n      swap1\n      pop\n        /* \"#utility.yul\":901:997   */\n      swap2\n      swap1\n      pop\n      jump\t// out\n        /* \"#utility.yul\":1003:1125   */\n    tag_110:\n        /* \"#utility.yul\":1076:1100   */\n      tag_153\n        /* \"#utility.yul\":1094:1099   */\n      dup2\n        /* \"#utility.yul\":1076:1100   */\n      tag_109\n      jump\t// in\n    tag_153:\n        /* \"#utility.yul\":1069:1074   */\n      dup2\n        /* \"#utility.yul\":1066:1101   */\n      eq\n        /* \"#utility.yul\":1056:1119   */\n      tag_154\n      jumpi\n        /* \"#utility.yul\":1115:1116   */\n      0x00\n        /* \"#utility.yul\":1112:1113   */\n      dup1\n        /* \"#utility.yul\":1105:1117   */\n      revert\n        /* \"#utility.yul\":1056:1119   */\n    tag_154:\n        /* \"#utility.yul\":1003:1125   */\n      pop\n      jump\t// out\n        /* \"#utility.yul\":1131:1270   */\n    tag_111:\n        /* \"#utility.yul\":1177:1182   */\n      0x00\n        /* \"#utility.yul\":1215:1221   */\n      dup2\n        /* \"#utility.yul\":1202:1222   */\n      calldataload\n        /* \"#utility.yul\":1193:1222   */\n      swap1\n      pop\n        /* \"#utility.yul\":1231:1264   */\n      tag_156\n        /* \"#utility.yul\":1258:1263   */\n      dup2\n        /* \"#utility.yul\":1231:1264   */\n      tag_110\n      jump\t// in\n    tag_156:\n        /* \"#utility.yul\":1131:1270   */\n      swap3\n      swap2\n      pop\n      pop\n      jump\t// out\n        /* \"#utility.yul\":1276:1398   */\n    tag_112:\n        /* \"#utility.yul\":1349:1373   */\n      tag_158\n        /* \"#utility.yul\":1367:1372   */\n      dup2\n        /* \"#utility.yul\":1349:1373   */\n      tag_103\n      jump\t// in\n    tag_158:\n        /* \"#utility.yul\":1342:1347   */\n      dup2\n        /* \"#utility.yul\":1339:1374   */\n      eq\n        /* \"#utility.yul\":1329:1392   */\n      tag_159\n      jumpi\n        /* \"#utility.yul\":1388:1389   */\n      0x00\n        /* \"#utility.yul\":1385:1386   */\n      dup1\n        /* \"#utility.yul\":1378:1390   */\n      revert\n        /* \"#utility.yul\":1329:1392   */\n    tag_159:\n        /* \"#utility.yul\":1276:1398   */\n      pop\n      jump\t// out\n        /* \"#utility.yul\":1404:1543   */\n    tag_113:\n        /* \"#utility.yul\":1450:1455   */\n      0x00\n        /* \"#utility.yul\":1488:1494   */\n      dup2\n        /* \"#utility.yul\":1475:1495   */\n      calldataload\n        /* \"#utility.yul\":1466:1495   */\n      swap1\n      pop\n        /* \"#utility.yul\":1504:1537   */\n      tag_161\n        /* \"#utility.yul\":1531:1536   */\n      dup2\n        /* \"#utility.yul\":1504:1537   */\n      tag_112\n      jump\t// in\n    tag_161:\n        /* \"#utility.yul\":1404:1543   */\n      swap3\n      swap2\n      pop\n      pop\n      jump\t// out\n        /* \"#utility.yul\":1549:2460   */\n    tag_24:\n        /* \"#utility.yul\":1644:1650   */\n      0x00\n        /* \"#utility.yul\":1652:1658   */\n      dup1\n        /* \"#utility.yul\":1660:1666   */\n      0x00\n        /* \"#utility.yul\":1668:1674   */\n      dup1\n        /* \"#utility.yul\":1676:1682   */\n      0x00\n        /* \"#utility.yul\":1725:1728   */\n      0xa0\n        /* \"#utility.yul\":1713:1722   */\n      dup7\n        /* \"#utility.yul\":1704:1711   */\n      dup9\n        /* \"#utility.yul\":1700:1723   */\n      sub\n        /* \"#utility.yul\":1696:1729   */\n      slt\n        /* \"#utility.yul\":1693:1813   */\n      iszero\n      tag_163\n      jumpi\n        /* \"#utility.yul\":1732:1811   */\n      tag_164\n      tag_106\n      jump\t// in\n    tag_164:\n        /* \"#utility.yul\":1693:1813   */\n    tag_163:\n        /* \"#utility.yul\":1852:1853   */\n      0x00\n        /* \"#utility.yul\":1877:1930   */\n      tag_165\n        /* \"#utility.yul\":1922:1929   */\n      dup9\n        /* \"#utility.yul\":1913:1919   */\n      dup3\n        /* \"#utility.yul\":1902:1911   */\n      dup10\n        /* \"#utility.yul\":1898:1920   */\n      add\n        /* \"#utility.yul\":1877:1930   */\n      tag_111\n      jump\t// in\n    tag_165:\n        /* \"#utility.yul\":1867:1930   */\n      swap6\n      pop\n        /* \"#utility.yul\":1823:1940   */\n      pop\n        /* \"#utility.yul\":1979:1981   */\n      0x20\n        /* \"#utility.yul\":2005:2058   */\n      tag_166\n        /* \"#utility.yul\":2050:2057   */\n      dup9\n        /* \"#utility.yul\":2041:2047   */\n      dup3\n        /* \"#utility.yul\":2030:2039   */\n      dup10\n        /* \"#utility.yul\":2026:2048   */\n      add\n        /* \"#utility.yul\":2005:2058   */\n      tag_113\n      jump\t// in\n    tag_166:\n        /* \"#utility.yul\":1995:2058   */\n      swap5\n      pop\n        /* \"#utility.yul\":1950:2068   */\n      pop\n        /* \"#utility.yul\":2107:2109   */\n      0x40\n        /* \"#utility.yul\":2133:2186   */\n      tag_167\n        /* \"#utility.yul\":2178:2185   */\n      dup9\n        /* \"#utility.yul\":2169:2175   */\n      dup3\n        /* \"#utility.yul\":2158:2167   */\n      dup10\n        /* \"#utility.yul\":2154:2176   */\n      add\n        /* \"#utility.yul\":2133:2186   */\n      tag_113\n      jump\t// in\n    tag_167:\n        /* \"#utility.yul\":2123:2186   */\n      swap4\n      pop\n        /* \"#utility.yul\":2078:2196   */\n      pop\n        /* \"#utility.yul\":2235:2237   */\n      0x60\n        /* \"#utility.yul\":2261:2314   */\n      tag_168\n        /* \"#utility.yul\":2306:2313   */\n      dup9\n        /* \"#utility.yul\":2297:2303   */\n      dup3\n        /* \"#utility.yul\":2286:2295   */\n      dup10\n        /* \"#utility.yul\":2282:2304   */\n      add\n        /* \"#utility.yul\":2261:2314   */\n      tag_113\n      jump\t// in\n    tag_168:\n        /* \"#utility.yul\":2251:2314   */\n      swap3\n      pop\n        /* \"#utility.yul\":2206:2324   */\n      pop\n        /* \"#utility.yul\":2363:2366   */\n      0x80\n        /* \"#utility.yul\":2390:2443   */\n      tag_169\n        /* \"#utility.yul\":2435:2442   */\n      dup9\n        /* \"#utility.yul\":2426:2432   */\n      dup3\n        /* \"#utility.yul\":2415:2424   */\n      dup10\n        /* \"#utility.yul\":2411:2433   */\n      add\n        /* \"#utility.yul\":2390:2443   */\n      tag_113\n      jump\t// in\n    tag_169:\n        /* \"#utility.yul\":2380:2443   */\n      swap2\n      pop\n        /* \"#utility.yul\":2334:2453   */\n      pop\n        /* \"#utility.yul\":1549:2460   */\n      swap3\n      swap6\n      pop\n      swap3\n      swap6\n      swap1\n      swap4\n      pop\n      jump\t// out\n        /* \"#utility.yul\":2466:2795   */\n    tag_31:\n        /* \"#utility.yul\":2525:2531   */\n      0x00\n        /* \"#utility.yul\":2574:2576   */\n      0x20\n        /* \"#utility.yul\":2562:2571   */\n      dup3\n        /* \"#utility.yul\":2553:2560   */\n      dup5\n        /* \"#utility.yul\":2549:2572   */\n      sub\n        /* \"#utility.yul\":2545:2577   */\n      slt\n        /* \"#utility.yul\":2542:2661   */\n      iszero\n      tag_171\n      jumpi\n        /* \"#utility.yul\":2580:2659   */\n      tag_172\n      tag_106\n      jump\t// in\n    tag_172:\n        /* \"#utility.yul\":2542:2661   */\n    tag_171:\n        /* \"#utility.yul\":2700:2701   */\n      0x00\n        /* \"#utility.yul\":2725:2778   */\n      tag_173\n        /* \"#utility.yul\":2770:2777   */\n      dup5\n        /* \"#utility.yul\":2761:2767   */\n      dup3\n        /* \"#utility.yul\":2750:2759   */\n      dup6\n        /* \"#utility.yul\":2746:2768   */\n      add\n        /* \"#utility.yul\":2725:2778   */\n      tag_111\n      jump\t// in\n    tag_173:\n        /* \"#utility.yul\":2715:2778   */\n      swap2\n      pop\n        /* \"#utility.yul\":2671:2788   */\n      pop\n        /* \"#utility.yul\":2466:2795   */\n      swap3\n      swap2\n      pop\n      pop\n      jump\t// out\n        /* \"#utility.yul\":2801:3275   */\n    tag_42:\n        /* \"#utility.yul\":2869:2875   */\n      0x00\n        /* \"#utility.yul\":2877:2883   */\n      dup1\n        /* \"#utility.yul\":2926:2928   */\n      0x40\n        /* \"#utility.yul\":2914:2923   */\n      dup4\n        /* \"#utility.yul\":2905:2912   */\n      dup6\n        /* \"#utility.yul\":2901:2924   */\n      sub\n        /* \"#utility.yul\":2897:2929   */\n      slt\n        /* \"#utility.yul\":2894:3013   */\n      iszero\n      tag_175\n      jumpi\n        /* \"#utility.yul\":2932:3011   */\n      tag_176\n      tag_106\n      jump\t// in\n    tag_176:\n        /* \"#utility.yul\":2894:3013   */\n    tag_175:\n        /* \"#utility.yul\":3052:3053   */\n      0x00\n        /* \"#utility.yul\":3077:3130   */\n      tag_177\n        /* \"#utility.yul\":3122:3129   */\n      dup6\n        /* \"#utility.yul\":3113:3119   */\n      dup3\n        /* \"#utility.yul\":3102:3111   */\n      dup7\n        /* \"#utility.yul\":3098:3120   */\n      add\n        /* \"#utility.yul\":3077:3130   */\n      tag_111\n      jump\t// in\n    tag_177:\n        /* \"#utility.yul\":3067:3130   */\n      swap3\n      pop\n        /* \"#utility.yul\":3023:3140   */\n      pop\n        /* \"#utility.yul\":3179:3181   */\n      0x20\n        /* \"#utility.yul\":3205:3258   */\n      tag_178\n        /* \"#utility.yul\":3250:3257   */\n      dup6\n        /* \"#utility.yul\":3241:3247   */\n      dup3\n        /* \"#utility.yul\":3230:3239   */\n      dup7\n        /* \"#utility.yul\":3226:3248   */\n      add\n        /* \"#utility.yul\":3205:3258   */\n      tag_113\n      jump\t// in\n    tag_178:\n        /* \"#utility.yul\":3195:3258   */\n      swap2\n      pop\n        /* \"#utility.yul\":3150:3268   */\n      pop\n        /* \"#utility.yul\":2801:3275   */\n      swap3\n      pop\n      swap3\n      swap1\n      pop\n      jump\t// out\n        /* \"#utility.yul\":3281:3341   */\n    tag_114:\n        /* \"#utility.yul\":3309:3312   */\n      0x00\n        /* \"#utility.yul\":3330:3335   */\n      dup2\n        /* \"#utility.yul\":3323:3335   */\n      swap1\n      pop\n        /* \"#utility.yul\":3281:3341   */\n      swap2\n      swap1\n      pop\n      jump\t// out\n        /* \"#utility.yul\":3347:3489   */\n    tag_115:\n        /* \"#utility.yul\":3397:3406   */\n      0x00\n        /* \"#utility.yul\":3430:3483   */\n      tag_181\n        /* \"#utility.yul\":3448:3482   */\n      tag_182\n        /* \"#utility.yul\":3457:3481   */\n      tag_183\n        /* \"#utility.yul\":3475:3480   */\n      dup5\n        /* \"#utility.yul\":3457:3481   */\n      tag_108\n      jump\t// in\n    tag_183:\n        /* \"#utility.yul\":3448:3482   */\n      tag_114\n      jump\t// in\n    tag_182:\n        /* \"#utility.yul\":3430:3483   */\n      tag_108\n      jump\t// in\n    tag_181:\n        /* \"#utility.yul\":3417:3483   */\n      swap1\n      pop\n        /* \"#utility.yul\":3347:3489   */\n      swap2\n      swap1\n      pop\n      jump\t// out\n        /* \"#utility.yul\":3495:3621   */\n    tag_116:\n        /* \"#utility.yul\":3545:3554   */\n      0x00\n        /* \"#utility.yul\":3578:3615   */\n      tag_185\n        /* \"#utility.yul\":3609:3614   */\n      dup3\n        /* \"#utility.yul\":3578:3615   */\n      tag_115\n      jump\t// in\n    tag_185:\n        /* \"#utility.yul\":3565:3615   */\n      swap1\n      pop\n        /* \"#utility.yul\":3495:3621   */\n      swap2\n      swap1\n      pop\n      jump\t// out\n        /* \"#utility.yul\":3627:3766   */\n    tag_117:\n        /* \"#utility.yul\":3690:3699   */\n      0x00\n        /* \"#utility.yul\":3723:3760   */\n      tag_187\n        /* \"#utility.yul\":3754:3759   */\n      dup3\n        /* \"#utility.yul\":3723:3760   */\n      tag_116\n      jump\t// in\n    tag_187:\n        /* \"#utility.yul\":3710:3760   */\n      swap1\n      pop\n        /* \"#utility.yul\":3627:3766   */\n      swap2\n      swap1\n      pop\n      jump\t// out\n        /* \"#utility.yul\":3772:3929   */\n    tag_118:\n        /* \"#utility.yul\":3872:3922   */\n      tag_189\n        /* \"#utility.yul\":3916:3921   */\n      dup2\n        /* \"#utility.yul\":3872:3922   */\n      tag_117\n      jump\t// in\n    tag_189:\n        /* \"#utility.yul\":3867:3870   */\n      dup3\n        /* \"#utility.yul\":3860:3923   */\n      mstore\n        /* \"#utility.yul\":3772:3929   */\n      pop\n      pop\n      jump\t// out\n        /* \"#utility.yul\":3935:4183   */\n    tag_55:\n        /* \"#utility.yul\":4041:4045   */\n      0x00\n        /* \"#utility.yul\":4079:4081   */\n      0x20\n        /* \"#utility.yul\":4068:4077   */\n      dup3\n        /* \"#utility.yul\":4064:4082   */\n      add\n        /* \"#utility.yul\":4056:4082   */\n      swap1\n      pop\n        /* \"#utility.yul\":4092:4176   */\n      tag_191\n        /* \"#utility.yul\":4173:4174   */\n      0x00\n        /* \"#utility.yul\":4162:4171   */\n      dup4\n        /* \"#utility.yul\":4158:4175   */\n      add\n        /* \"#utility.yul\":4149:4155   */\n      dup5\n        /* \"#utility.yul\":4092:4176   */\n      tag_118\n      jump\t// in\n    tag_191:\n        /* \"#utility.yul\":3935:4183   */\n      swap3\n      swap2\n      pop\n      pop\n      jump\t// out\n        /* \"#utility.yul\":4189:4307   */\n    tag_119:\n        /* \"#utility.yul\":4276:4300   */\n      tag_193\n        /* \"#utility.yul\":4294:4299   */\n      dup2\n        /* \"#utility.yul\":4276:4300   */\n      tag_109\n      jump\t// in\n    tag_193:\n        /* \"#utility.yul\":4271:4274   */\n      dup3\n        /* \"#utility.yul\":4264:4301   */\n      mstore\n        /* \"#utility.yul\":4189:4307   */\n      pop\n      pop\n      jump\t// out\n        /* \"#utility.yul\":4313:4645   */\n    tag_58:\n        /* \"#utility.yul\":4434:4438   */\n      0x00\n        /* \"#utility.yul\":4472:4474   */\n      0x40\n        /* \"#utility.yul\":4461:4470   */\n      dup3\n        /* \"#utility.yul\":4457:4475   */\n      add\n        /* \"#utility.yul\":4449:4475   */\n      swap1\n      pop\n        /* \"#utility.yul\":4485:4556   */\n      tag_195\n        /* \"#utility.yul\":4553:4554   */\n      0x00\n        /* \"#utility.yul\":4542:4551   */\n      dup4\n        /* \"#utility.yul\":4538:4555   */\n      add\n        /* \"#utility.yul\":4529:4535   */\n      dup6\n        /* \"#utility.yul\":4485:4556   */\n      tag_119\n      jump\t// in\n    tag_195:\n        /* \"#utility.yul\":4566:4638   */\n      tag_196\n        /* \"#utility.yul\":4634:4636   */\n      0x20\n        /* \"#utility.yul\":4623:4632   */\n      dup4\n        /* \"#utility.yul\":4619:4637   */\n      add\n        /* \"#utility.yul\":4610:4616   */\n      dup5\n        /* \"#utility.yul\":4566:4638   */\n      tag_104\n      jump\t// in\n    tag_196:\n        /* \"#utility.yul\":4313:4645   */\n      swap4\n      swap3\n      pop\n      pop\n      pop\n      jump\t// out\n        /* \"#utility.yul\":4651:4741   */\n    tag_120:\n        /* \"#utility.yul\":4685:4692   */\n      0x00\n        /* \"#utility.yul\":4728:4733   */\n      dup2\n        /* \"#utility.yul\":4721:4734   */\n      iszero\n        /* \"#utility.yul\":4714:4735   */\n      iszero\n        /* \"#utility.yul\":4703:4735   */\n      swap1\n      pop\n        /* \"#utility.yul\":4651:4741   */\n      swap2\n      swap1\n      pop\n      jump\t// out\n        /* \"#utility.yul\":4747:4863   */\n    tag_121:\n        /* \"#utility.yul\":4817:4838   */\n      tag_199\n        /* \"#utility.yul\":4832:4837   */\n      dup2\n        /* \"#utility.yul\":4817:4838   */\n      tag_120\n      jump\t// in\n    tag_199:\n        /* \"#utility.yul\":4810:4815   */\n      dup2\n        /* \"#utility.yul\":4807:4839   */\n      eq\n        /* \"#utility.yul\":4797:4857   */\n      tag_200\n      jumpi\n        /* \"#utility.yul\":4853:4854   */\n      0x00\n        /* \"#utility.yul\":4850:4851   */\n      dup1\n        /* \"#utility.yul\":4843:4855   */\n      revert\n        /* \"#utility.yul\":4797:4857   */\n    tag_200:\n        /* \"#utility.yul\":4747:4863   */\n      pop\n      jump\t// out\n        /* \"#utility.yul\":4869:5006   */\n    tag_122:\n        /* \"#utility.yul\":4923:4928   */\n      0x00\n        /* \"#utility.yul\":4954:4960   */\n      dup2\n        /* \"#utility.yul\":4948:4961   */\n      mload\n        /* \"#utility.yul\":4939:4961   */\n      swap1\n      pop\n        /* \"#utility.yul\":4970:5000   */\n      tag_202\n        /* \"#utility.yul\":4994:4999   */\n      dup2\n        /* \"#utility.yul\":4970:5000   */\n      tag_121\n      jump\t// in\n    tag_202:\n        /* \"#utility.yul\":4869:5006   */\n      swap3\n      swap2\n      pop\n      pop\n      jump\t// out\n        /* \"#utility.yul\":5012:5357   */\n    tag_62:\n        /* \"#utility.yul\":5079:5085   */\n      0x00\n        /* \"#utility.yul\":5128:5130   */\n      0x20\n        /* \"#utility.yul\":5116:5125   */\n      dup3\n        /* \"#utility.yul\":5107:5114   */\n      dup5\n        /* \"#utility.yul\":5103:5126   */\n      sub\n        /* \"#utility.yul\":5099:5131   */\n      slt\n        /* \"#utility.yul\":5096:5215   */\n      iszero\n      tag_204\n      jumpi\n        /* \"#utility.yul\":5134:5213   */\n      tag_205\n      tag_106\n      jump\t// in\n    tag_205:\n        /* \"#utility.yul\":5096:5215   */\n    tag_204:\n        /* \"#utility.yul\":5254:5255   */\n      0x00\n        /* \"#utility.yul\":5279:5340   */\n      tag_206\n        /* \"#utility.yul\":5332:5339   */\n      dup5\n        /* \"#utility.yul\":5323:5329   */\n      dup3\n        /* \"#utility.yul\":5312:5321   */\n      dup6\n        /* \"#utility.yul\":5308:5330   */\n      add\n        /* \"#utility.yul\":5279:5340   */\n      tag_122\n      jump\t// in\n    tag_206:\n        /* \"#utility.yul\":5269:5340   */\n      swap2\n      pop\n        /* \"#utility.yul\":5225:5350   */\n      pop\n        /* \"#utility.yul\":5012:5357   */\n      swap3\n      swap2\n      pop\n      pop\n      jump\t// out\n        /* \"#utility.yul\":5363:5532   */\n    tag_123:\n        /* \"#utility.yul\":5447:5458   */\n      0x00\n        /* \"#utility.yul\":5481:5487   */\n      dup3\n        /* \"#utility.yul\":5476:5479   */\n      dup3\n        /* \"#utility.yul\":5469:5488   */\n      mstore\n        /* \"#utility.yul\":5521:5525   */\n      0x20\n        /* \"#utility.yul\":5516:5519   */\n      dup3\n        /* \"#utility.yul\":5512:5526   */\n      add\n        /* \"#utility.yul\":5497:5526   */\n      swap1\n      pop\n        /* \"#utility.yul\":5363:5532   */\n      swap3\n      swap2\n      pop\n      pop\n      jump\t// out\n        /* \"#utility.yul\":5538:5761   */\n    tag_124:\n        /* \"#utility.yul\":5678:5712   */\n      0x546f6b656e7320617265204c6f636b656420696e20736d61727420636f6e7472\n        /* \"#utility.yul\":5674:5675   */\n      0x00\n        /* \"#utility.yul\":5666:5672   */\n      dup3\n        /* \"#utility.yul\":5662:5676   */\n      add\n        /* \"#utility.yul\":5655:5713   */\n      mstore\n        /* \"#utility.yul\":5747:5753   */\n      0x6163742000000000000000000000000000000000000000000000000000000000\n        /* \"#utility.yul\":5742:5744   */\n      0x20\n        /* \"#utility.yul\":5734:5740   */\n      dup3\n        /* \"#utility.yul\":5730:5745   */\n      add\n        /* \"#utility.yul\":5723:5754   */\n      mstore\n        /* \"#utility.yul\":5538:5761   */\n      pop\n      jump\t// out\n        /* \"#utility.yul\":5767:6133   */\n    tag_125:\n        /* \"#utility.yul\":5909:5912   */\n      0x00\n        /* \"#utility.yul\":5930:5997   */\n      tag_210\n        /* \"#utility.yul\":5994:5996   */\n      0x24\n        /* \"#utility.yul\":5989:5992   */\n      dup4\n        /* \"#utility.yul\":5930:5997   */\n      tag_123\n      jump\t// in\n    tag_210:\n        /* \"#utility.yul\":5923:5997   */\n      swap2\n      pop\n        /* \"#utility.yul\":6006:6099   */\n      tag_211\n        /* \"#utility.yul\":6095:6098   */\n      dup3\n        /* \"#utility.yul\":6006:6099   */\n      tag_124\n      jump\t// in\n    tag_211:\n        /* \"#utility.yul\":6124:6126   */\n      0x40\n        /* \"#utility.yul\":6119:6122   */\n      dup3\n        /* \"#utility.yul\":6115:6127   */\n      add\n        /* \"#utility.yul\":6108:6127   */\n      swap1\n      pop\n        /* \"#utility.yul\":5767:6133   */\n      swap2\n      swap1\n      pop\n      jump\t// out\n        /* \"#utility.yul\":6139:6668   */\n    tag_64:\n        /* \"#utility.yul\":6333:6337   */\n      0x00\n        /* \"#utility.yul\":6371:6373   */\n      0x40\n        /* \"#utility.yul\":6360:6369   */\n      dup3\n        /* \"#utility.yul\":6356:6374   */\n      add\n        /* \"#utility.yul\":6348:6374   */\n      swap1\n      pop\n        /* \"#utility.yul\":6384:6455   */\n      tag_213\n        /* \"#utility.yul\":6452:6453   */\n      0x00\n        /* \"#utility.yul\":6441:6450   */\n      dup4\n        /* \"#utility.yul\":6437:6454   */\n      add\n        /* \"#utility.yul\":6428:6434   */\n      dup5\n        /* \"#utility.yul\":6384:6455   */\n      tag_119\n      jump\t// in\n    tag_213:\n        /* \"#utility.yul\":6502:6511   */\n      dup2\n        /* \"#utility.yul\":6496:6500   */\n      dup2\n        /* \"#utility.yul\":6492:6512   */\n      sub\n        /* \"#utility.yul\":6487:6489   */\n      0x20\n        /* \"#utility.yul\":6476:6485   */\n      dup4\n        /* \"#utility.yul\":6472:6490   */\n      add\n        /* \"#utility.yul\":6465:6513   */\n      mstore\n        /* \"#utility.yul\":6530:6661   */\n      tag_214\n        /* \"#utility.yul\":6656:6660   */\n      dup2\n        /* \"#utility.yul\":6530:6661   */\n      tag_125\n      jump\t// in\n    tag_214:\n        /* \"#utility.yul\":6522:6661   */\n      swap1\n      pop\n        /* \"#utility.yul\":6139:6668   */\n      swap3\n      swap2\n      pop\n      pop\n      jump\t// out\n        /* \"#utility.yul\":6674:6907   */\n    tag_126:\n        /* \"#utility.yul\":6814:6848   */\n      0x546f6b656e7320436c61696d696e67206172652067726561746572207468616e\n        /* \"#utility.yul\":6810:6811   */\n      0x00\n        /* \"#utility.yul\":6802:6808   */\n      dup3\n        /* \"#utility.yul\":6798:6812   */\n      add\n        /* \"#utility.yul\":6791:6849   */\n      mstore\n        /* \"#utility.yul\":6883:6899   */\n      0x20746f6b656e73206c6f636b6564000000000000000000000000000000000000\n        /* \"#utility.yul\":6878:6880   */\n      0x20\n        /* \"#utility.yul\":6870:6876   */\n      dup3\n        /* \"#utility.yul\":6866:6881   */\n      add\n        /* \"#utility.yul\":6859:6900   */\n      mstore\n        /* \"#utility.yul\":6674:6907   */\n      pop\n      jump\t// out\n        /* \"#utility.yul\":6913:7279   */\n    tag_127:\n        /* \"#utility.yul\":7055:7058   */\n      0x00\n        /* \"#utility.yul\":7076:7143   */\n      tag_217\n        /* \"#utility.yul\":7140:7142   */\n      0x2e\n        /* \"#utility.yul\":7135:7138   */\n      dup4\n        /* \"#utility.yul\":7076:7143   */\n      tag_123\n      jump\t// in\n    tag_217:\n        /* \"#utility.yul\":7069:7143   */\n      swap2\n      pop\n        /* \"#utility.yul\":7152:7245   */\n      tag_218\n        /* \"#utility.yul\":7241:7244   */\n      dup3\n        /* \"#utility.yul\":7152:7245   */\n      tag_126\n      jump\t// in\n    tag_218:\n        /* \"#utility.yul\":7270:7272   */\n      0x40\n        /* \"#utility.yul\":7265:7268   */\n      dup3\n        /* \"#utility.yul\":7261:7273   */\n      add\n        /* \"#utility.yul\":7254:7273   */\n      swap1\n      pop\n        /* \"#utility.yul\":6913:7279   */\n      swap2\n      swap1\n      pop\n      jump\t// out\n        /* \"#utility.yul\":7285:7704   */\n    tag_70:\n        /* \"#utility.yul\":7451:7455   */\n      0x00\n        /* \"#utility.yul\":7489:7491   */\n      0x20\n        /* \"#utility.yul\":7478:7487   */\n      dup3\n        /* \"#utility.yul\":7474:7492   */\n      add\n        /* \"#utility.yul\":7466:7492   */\n      swap1\n      pop\n        /* \"#utility.yul\":7538:7547   */\n      dup2\n        /* \"#utility.yul\":7532:7536   */\n      dup2\n        /* \"#utility.yul\":7528:7548   */\n      sub\n        /* \"#utility.yul\":7524:7525   */\n      0x00\n        /* \"#utility.yul\":7513:7522   */\n      dup4\n        /* \"#utility.yul\":7509:7526   */\n      add\n        /* \"#utility.yul\":7502:7549   */\n      mstore\n        /* \"#utility.yul\":7566:7697   */\n      tag_220\n        /* \"#utility.yul\":7692:7696   */\n      dup2\n        /* \"#utility.yul\":7566:7697   */\n      tag_127\n      jump\t// in\n    tag_220:\n        /* \"#utility.yul\":7558:7697   */\n      swap1\n      pop\n        /* \"#utility.yul\":7285:7704   */\n      swap2\n      swap1\n      pop\n      jump\t// out\n        /* \"#utility.yul\":7710:7943   */\n    tag_128:\n        /* \"#utility.yul\":7850:7884   */\n      0x546f6b656e73206172652052656c656173656420696e206163636f756e74206f\n        /* \"#utility.yul\":7846:7847   */\n      0x00\n        /* \"#utility.yul\":7838:7844   */\n      dup3\n        /* \"#utility.yul\":7834:7848   */\n      add\n        /* \"#utility.yul\":7827:7885   */\n      mstore\n        /* \"#utility.yul\":7919:7935   */\n      0x662062656e656669636961727920000000000000000000000000000000000000\n        /* \"#utility.yul\":7914:7916   */\n      0x20\n        /* \"#utility.yul\":7906:7912   */\n      dup3\n        /* \"#utility.yul\":7902:7917   */\n      add\n        /* \"#utility.yul\":7895:7936   */\n      mstore\n        /* \"#utility.yul\":7710:7943   */\n      pop\n      jump\t// out\n        /* \"#utility.yul\":7949:8315   */\n    tag_129:\n        /* \"#utility.yul\":8091:8094   */\n      0x00\n        /* \"#utility.yul\":8112:8179   */\n      tag_223\n        /* \"#utility.yul\":8176:8178   */\n      0x2e\n        /* \"#utility.yul\":8171:8174   */\n      dup4\n        /* \"#utility.yul\":8112:8179   */\n      tag_123\n      jump\t// in\n    tag_223:\n        /* \"#utility.yul\":8105:8179   */\n      swap2\n      pop\n        /* \"#utility.yul\":8188:8281   */\n      tag_224\n        /* \"#utility.yul\":8277:8280   */\n      dup3\n        /* \"#utility.yul\":8188:8281   */\n      tag_128\n      jump\t// in\n    tag_224:\n        /* \"#utility.yul\":8306:8308   */\n      0x40\n        /* \"#utility.yul\":8301:8304   */\n      dup3\n        /* \"#utility.yul\":8297:8309   */\n      add\n        /* \"#utility.yul\":8290:8309   */\n      swap1\n      pop\n        /* \"#utility.yul\":7949:8315   */\n      swap2\n      swap1\n      pop\n      jump\t// out\n        /* \"#utility.yul\":8321:8850   */\n    tag_76:\n        /* \"#utility.yul\":8515:8519   */\n      0x00\n        /* \"#utility.yul\":8553:8555   */\n      0x40\n        /* \"#utility.yul\":8542:8551   */\n      dup3\n        /* \"#utility.yul\":8538:8556   */\n      add\n        /* \"#utility.yul\":8530:8556   */\n      swap1\n      pop\n        /* \"#utility.yul\":8566:8637   */\n      tag_226\n        /* \"#utility.yul\":8634:8635   */\n      0x00\n        /* \"#utility.yul\":8623:8632   */\n      dup4\n        /* \"#utility.yul\":8619:8636   */\n      add\n        /* \"#utility.yul\":8610:8616   */\n      dup5\n        /* \"#utility.yul\":8566:8637   */\n      tag_119\n      jump\t// in\n    tag_226:\n        /* \"#utility.yul\":8684:8693   */\n      dup2\n        /* \"#utility.yul\":8678:8682   */\n      dup2\n        /* \"#utility.yul\":8674:8694   */\n      sub\n        /* \"#utility.yul\":8669:8671   */\n      0x20\n        /* \"#utility.yul\":8658:8667   */\n      dup4\n        /* \"#utility.yul\":8654:8672   */\n      add\n        /* \"#utility.yul\":8647:8695   */\n      mstore\n        /* \"#utility.yul\":8712:8843   */\n      tag_227\n        /* \"#utility.yul\":8838:8842   */\n      dup2\n        /* \"#utility.yul\":8712:8843   */\n      tag_129\n      jump\t// in\n    tag_227:\n        /* \"#utility.yul\":8704:8843   */\n      swap1\n      pop\n        /* \"#utility.yul\":8321:8850   */\n      swap3\n      swap2\n      pop\n      pop\n      jump\t// out\n        /* \"#utility.yul\":8856:9087   */\n    tag_130:\n        /* \"#utility.yul\":8996:9030   */\n      0x4f6e6c792042656e6566696369617279204f72204f776e65722063616e205265\n        /* \"#utility.yul\":8992:8993   */\n      0x00\n        /* \"#utility.yul\":8984:8990   */\n      dup3\n        /* \"#utility.yul\":8980:8994   */\n      add\n        /* \"#utility.yul\":8973:9031   */\n      mstore\n        /* \"#utility.yul\":9065:9079   */\n      0x6c6561736520546f6b656e730000000000000000000000000000000000000000\n        /* \"#utility.yul\":9060:9062   */\n      0x20\n        /* \"#utility.yul\":9052:9058   */\n      dup3\n        /* \"#utility.yul\":9048:9063   */\n      add\n        /* \"#utility.yul\":9041:9080   */\n      mstore\n        /* \"#utility.yul\":8856:9087   */\n      pop\n      jump\t// out\n        /* \"#utility.yul\":9093:9459   */\n    tag_131:\n        /* \"#utility.yul\":9235:9238   */\n      0x00\n        /* \"#utility.yul\":9256:9323   */\n      tag_230\n        /* \"#utility.yul\":9320:9322   */\n      0x2c\n        /* \"#utility.yul\":9315:9318   */\n      dup4\n        /* \"#utility.yul\":9256:9323   */\n      tag_123\n      jump\t// in\n    tag_230:\n        /* \"#utility.yul\":9249:9323   */\n      swap2\n      pop\n        /* \"#utility.yul\":9332:9425   */\n      tag_231\n        /* \"#utility.yul\":9421:9424   */\n      dup3\n        /* \"#utility.yul\":9332:9425   */\n      tag_130\n      jump\t// in\n    tag_231:\n        /* \"#utility.yul\":9450:9452   */\n      0x40\n        /* \"#utility.yul\":9445:9448   */\n      dup3\n        /* \"#utility.yul\":9441:9453   */\n      add\n        /* \"#utility.yul\":9434:9453   */\n      swap1\n      pop\n        /* \"#utility.yul\":9093:9459   */\n      swap2\n      swap1\n      pop\n      jump\t// out\n        /* \"#utility.yul\":9465:9884   */\n    tag_80:\n        /* \"#utility.yul\":9631:9635   */\n      0x00\n        /* \"#utility.yul\":9669:9671   */\n      0x20\n        /* \"#utility.yul\":9658:9667   */\n      dup3\n        /* \"#utility.yul\":9654:9672   */\n      add\n        /* \"#utility.yul\":9646:9672   */\n      swap1\n      pop\n        /* \"#utility.yul\":9718:9727   */\n      dup2\n        /* \"#utility.yul\":9712:9716   */\n      dup2\n        /* \"#utility.yul\":9708:9728   */\n      sub\n        /* \"#utility.yul\":9704:9705   */\n      0x00\n        /* \"#utility.yul\":9693:9702   */\n      dup4\n        /* \"#utility.yul\":9689:9706   */\n      add\n        /* \"#utility.yul\":9682:9729   */\n      mstore\n        /* \"#utility.yul\":9746:9877   */\n      tag_233\n        /* \"#utility.yul\":9872:9876   */\n      dup2\n        /* \"#utility.yul\":9746:9877   */\n      tag_131\n      jump\t// in\n    tag_233:\n        /* \"#utility.yul\":9738:9877   */\n      swap1\n      pop\n        /* \"#utility.yul\":9465:9884   */\n      swap2\n      swap1\n      pop\n      jump\t// out\n        /* \"#utility.yul\":9890:10061   */\n    tag_132:\n        /* \"#utility.yul\":10030:10053   */\n      0x4e65772042656e65666963696172792041646465640000000000000000000000\n        /* \"#utility.yul\":10026:10027   */\n      0x00\n        /* \"#utility.yul\":10018:10024   */\n      dup3\n        /* \"#utility.yul\":10014:10028   */\n      add\n        /* \"#utility.yul\":10007:10054   */\n      mstore\n        /* \"#utility.yul\":9890:10061   */\n      pop\n      jump\t// out\n        /* \"#utility.yul\":10067:10433   */\n    tag_133:\n        /* \"#utility.yul\":10209:10212   */\n      0x00\n        /* \"#utility.yul\":10230:10297   */\n      tag_236\n        /* \"#utility.yul\":10294:10296   */\n      0x15\n        /* \"#utility.yul\":10289:10292   */\n      dup4\n        /* \"#utility.yul\":10230:10297   */\n      tag_123\n      jump\t// in\n    tag_236:\n        /* \"#utility.yul\":10223:10297   */\n      swap2\n      pop\n        /* \"#utility.yul\":10306:10399   */\n      tag_237\n        /* \"#utility.yul\":10395:10398   */\n      dup3\n        /* \"#utility.yul\":10306:10399   */\n      tag_132\n      jump\t// in\n    tag_237:\n        /* \"#utility.yul\":10424:10426   */\n      0x20\n        /* \"#utility.yul\":10419:10422   */\n      dup3\n        /* \"#utility.yul\":10415:10427   */\n      add\n        /* \"#utility.yul\":10408:10427   */\n      swap1\n      pop\n        /* \"#utility.yul\":10067:10433   */\n      swap2\n      swap1\n      pop\n      jump\t// out\n        /* \"#utility.yul\":10439:10968   */\n    tag_84:\n        /* \"#utility.yul\":10633:10637   */\n      0x00\n        /* \"#utility.yul\":10671:10673   */\n      0x40\n        /* \"#utility.yul\":10660:10669   */\n      dup3\n        /* \"#utility.yul\":10656:10674   */\n      add\n        /* \"#utility.yul\":10648:10674   */\n      swap1\n      pop\n        /* \"#utility.yul\":10684:10755   */\n      tag_239\n        /* \"#utility.yul\":10752:10753   */\n      0x00\n        /* \"#utility.yul\":10741:10750   */\n      dup4\n        /* \"#utility.yul\":10737:10754   */\n      add\n        /* \"#utility.yul\":10728:10734   */\n      dup5\n        /* \"#utility.yul\":10684:10755   */\n      tag_119\n      jump\t// in\n    tag_239:\n        /* \"#utility.yul\":10802:10811   */\n      dup2\n        /* \"#utility.yul\":10796:10800   */\n      dup2\n        /* \"#utility.yul\":10792:10812   */\n      sub\n        /* \"#utility.yul\":10787:10789   */\n      0x20\n        /* \"#utility.yul\":10776:10785   */\n      dup4\n        /* \"#utility.yul\":10772:10790   */\n      add\n        /* \"#utility.yul\":10765:10813   */\n      mstore\n        /* \"#utility.yul\":10830:10961   */\n      tag_240\n        /* \"#utility.yul\":10956:10960   */\n      dup2\n        /* \"#utility.yul\":10830:10961   */\n      tag_133\n      jump\t// in\n    tag_240:\n        /* \"#utility.yul\":10822:10961   */\n      swap1\n      pop\n        /* \"#utility.yul\":10439:10968   */\n      swap3\n      swap2\n      pop\n      pop\n      jump\t// out\n        /* \"#utility.yul\":10974:11195   */\n    tag_134:\n        /* \"#utility.yul\":11114:11148   */\n      0x204f6e6c79204f776e65722063616e204164642062656e656665696369617269\n        /* \"#utility.yul\":11110:11111   */\n      0x00\n        /* \"#utility.yul\":11102:11108   */\n      dup3\n        /* \"#utility.yul\":11098:11112   */\n      add\n        /* \"#utility.yul\":11091:11149   */\n      mstore\n        /* \"#utility.yul\":11183:11187   */\n      0x6573000000000000000000000000000000000000000000000000000000000000\n        /* \"#utility.yul\":11178:11180   */\n      0x20\n        /* \"#utility.yul\":11170:11176   */\n      dup3\n        /* \"#utility.yul\":11166:11181   */\n      add\n        /* \"#utility.yul\":11159:11188   */\n      mstore\n        /* \"#utility.yul\":10974:11195   */\n      pop\n      jump\t// out\n        /* \"#utility.yul\":11201:11567   */\n    tag_135:\n        /* \"#utility.yul\":11343:11346   */\n      0x00\n        /* \"#utility.yul\":11364:11431   */\n      tag_243\n        /* \"#utility.yul\":11428:11430   */\n      0x22\n        /* \"#utility.yul\":11423:11426   */\n      dup4\n        /* \"#utility.yul\":11364:11431   */\n      tag_123\n      jump\t// in\n    tag_243:\n        /* \"#utility.yul\":11357:11431   */\n      swap2\n      pop\n        /* \"#utility.yul\":11440:11533   */\n      tag_244\n        /* \"#utility.yul\":11529:11532   */\n      dup3\n        /* \"#utility.yul\":11440:11533   */\n      tag_134\n      jump\t// in\n    tag_244:\n        /* \"#utility.yul\":11558:11560   */\n      0x40\n        /* \"#utility.yul\":11553:11556   */\n      dup3\n        /* \"#utility.yul\":11549:11561   */\n      add\n        /* \"#utility.yul\":11542:11561   */\n      swap1\n      pop\n        /* \"#utility.yul\":11201:11567   */\n      swap2\n      swap1\n      pop\n      jump\t// out\n        /* \"#utility.yul\":11573:11992   */\n    tag_87:\n        /* \"#utility.yul\":11739:11743   */\n      0x00\n        /* \"#utility.yul\":11777:11779   */\n      0x20\n        /* \"#utility.yul\":11766:11775   */\n      dup3\n        /* \"#utility.yul\":11762:11780   */\n      add\n        /* \"#utility.yul\":11754:11780   */\n      swap1\n      pop\n        /* \"#utility.yul\":11826:11835   */\n      dup2\n        /* \"#utility.yul\":11820:11824   */\n      dup2\n        /* \"#utility.yul\":11816:11836   */\n      sub\n        /* \"#utility.yul\":11812:11813   */\n      0x00\n        /* \"#utility.yul\":11801:11810   */\n      dup4\n        /* \"#utility.yul\":11797:11814   */\n      add\n        /* \"#utility.yul\":11790:11837   */\n      mstore\n        /* \"#utility.yul\":11854:11985   */\n      tag_246\n        /* \"#utility.yul\":11980:11984   */\n      dup2\n        /* \"#utility.yul\":11854:11985   */\n      tag_135\n      jump\t// in\n    tag_246:\n        /* \"#utility.yul\":11846:11985   */\n      swap1\n      pop\n        /* \"#utility.yul\":11573:11992   */\n      swap2\n      swap1\n      pop\n      jump\t// out\n        /* \"#utility.yul\":11998:12178   */\n    tag_136:\n        /* \"#utility.yul\":12046:12123   */\n      0x4e487b7100000000000000000000000000000000000000000000000000000000\n        /* \"#utility.yul\":12043:12044   */\n      0x00\n        /* \"#utility.yul\":12036:12124   */\n      mstore\n        /* \"#utility.yul\":12143:12147   */\n      0x11\n        /* \"#utility.yul\":12140:12141   */\n      0x04\n        /* \"#utility.yul\":12133:12148   */\n      mstore\n        /* \"#utility.yul\":12167:12171   */\n      0x24\n        /* \"#utility.yul\":12164:12165   */\n      0x00\n        /* \"#utility.yul\":12157:12172   */\n      revert\n        /* \"#utility.yul\":12184:12378   */\n    tag_91:\n        /* \"#utility.yul\":12224:12228   */\n      0x00\n        /* \"#utility.yul\":12244:12264   */\n      tag_249\n        /* \"#utility.yul\":12262:12263   */\n      dup3\n        /* \"#utility.yul\":12244:12264   */\n      tag_103\n      jump\t// in\n    tag_249:\n        /* \"#utility.yul\":12239:12264   */\n      swap2\n      pop\n        /* \"#utility.yul\":12278:12298   */\n      tag_250\n        /* \"#utility.yul\":12296:12297   */\n      dup4\n        /* \"#utility.yul\":12278:12298   */\n      tag_103\n      jump\t// in\n    tag_250:\n        /* \"#utility.yul\":12273:12298   */\n      swap3\n      pop\n        /* \"#utility.yul\":12322:12323   */\n      dup3\n        /* \"#utility.yul\":12319:12320   */\n      dup3\n        /* \"#utility.yul\":12315:12324   */\n      sub\n        /* \"#utility.yul\":12307:12324   */\n      swap1\n      pop\n        /* \"#utility.yul\":12346:12347   */\n      dup2\n        /* \"#utility.yul\":12340:12344   */\n      dup2\n        /* \"#utility.yul\":12337:12348   */\n      gt\n        /* \"#utility.yul\":12334:12371   */\n      iszero\n      tag_251\n      jumpi\n        /* \"#utility.yul\":12351:12369   */\n      tag_252\n      tag_136\n      jump\t// in\n    tag_252:\n        /* \"#utility.yul\":12334:12371   */\n    tag_251:\n        /* \"#utility.yul\":12184:12378   */\n      swap3\n      swap2\n      pop\n      pop\n      jump\t// out\n        /* \"#utility.yul\":12384:12564   */\n    tag_137:\n        /* \"#utility.yul\":12432:12509   */\n      0x4e487b7100000000000000000000000000000000000000000000000000000000\n        /* \"#utility.yul\":12429:12430   */\n      0x00\n        /* \"#utility.yul\":12422:12510   */\n      mstore\n        /* \"#utility.yul\":12529:12533   */\n      0x12\n        /* \"#utility.yul\":12526:12527   */\n      0x04\n        /* \"#utility.yul\":12519:12534   */\n      mstore\n        /* \"#utility.yul\":12553:12557   */\n      0x24\n        /* \"#utility.yul\":12550:12551   */\n      0x00\n        /* \"#utility.yul\":12543:12558   */\n      revert\n        /* \"#utility.yul\":12570:12755   */\n    tag_93:\n        /* \"#utility.yul\":12610:12611   */\n      0x00\n        /* \"#utility.yul\":12627:12647   */\n      tag_255\n        /* \"#utility.yul\":12645:12646   */\n      dup3\n        /* \"#utility.yul\":12627:12647   */\n      tag_103\n      jump\t// in\n    tag_255:\n        /* \"#utility.yul\":12622:12647   */\n      swap2\n      pop\n        /* \"#utility.yul\":12661:12681   */\n      tag_256\n        /* \"#utility.yul\":12679:12680   */\n      dup4\n        /* \"#utility.yul\":12661:12681   */\n      tag_103\n      jump\t// in\n    tag_256:\n        /* \"#utility.yul\":12656:12681   */\n      swap3\n      pop\n        /* \"#utility.yul\":12700:12701   */\n      dup3\n        /* \"#utility.yul\":12690:12725   */\n      tag_257\n      jumpi\n        /* \"#utility.yul\":12705:12723   */\n      tag_258\n      tag_137\n      jump\t// in\n    tag_258:\n        /* \"#utility.yul\":12690:12725   */\n    tag_257:\n        /* \"#utility.yul\":12747:12748   */\n      dup3\n        /* \"#utility.yul\":12744:12745   */\n      dup3\n        /* \"#utility.yul\":12740:12749   */\n      div\n        /* \"#utility.yul\":12735:12749   */\n      swap1\n      pop\n        /* \"#utility.yul\":12570:12755   */\n      swap3\n      swap2\n      pop\n      pop\n      jump\t// out\n        /* \"#utility.yul\":12761:13171   */\n    tag_99:\n        /* \"#utility.yul\":12801:12808   */\n      0x00\n        /* \"#utility.yul\":12824:12844   */\n      tag_260\n        /* \"#utility.yul\":12842:12843   */\n      dup3\n        /* \"#utility.yul\":12824:12844   */\n      tag_103\n      jump\t// in\n    tag_260:\n        /* \"#utility.yul\":12819:12844   */\n      swap2\n      pop\n        /* \"#utility.yul\":12858:12878   */\n      tag_261\n        /* \"#utility.yul\":12876:12877   */\n      dup4\n        /* \"#utility.yul\":12858:12878   */\n      tag_103\n      jump\t// in\n    tag_261:\n        /* \"#utility.yul\":12853:12878   */\n      swap3\n      pop\n        /* \"#utility.yul\":12913:12914   */\n      dup3\n        /* \"#utility.yul\":12910:12911   */\n      dup3\n        /* \"#utility.yul\":12906:12915   */\n      mul\n        /* \"#utility.yul\":12935:12965   */\n      tag_262\n        /* \"#utility.yul\":12953:12964   */\n      dup2\n        /* \"#utility.yul\":12935:12965   */\n      tag_103\n      jump\t// in\n    tag_262:\n        /* \"#utility.yul\":12924:12965   */\n      swap2\n      pop\n        /* \"#utility.yul\":13114:13115   */\n      dup3\n        /* \"#utility.yul\":13105:13112   */\n      dup3\n        /* \"#utility.yul\":13101:13116   */\n      div\n        /* \"#utility.yul\":13098:13099   */\n      dup5\n        /* \"#utility.yul\":13095:13117   */\n      eq\n        /* \"#utility.yul\":13075:13076   */\n      dup4\n        /* \"#utility.yul\":13068:13077   */\n      iszero\n        /* \"#utility.yul\":13048:13131   */\n      or\n        /* \"#utility.yul\":13025:13164   */\n      tag_263\n      jumpi\n        /* \"#utility.yul\":13144:13162   */\n      tag_264\n      tag_136\n      jump\t// in\n    tag_264:\n        /* \"#utility.yul\":13025:13164   */\n    tag_263:\n        /* \"#utility.yul\":12809:13171   */\n      pop\n        /* \"#utility.yul\":12761:13171   */\n      swap3\n      swap2\n      pop\n      pop\n      jump\t// out\n        /* \"#utility.yul\":13177:13349   */\n    tag_138:\n        /* \"#utility.yul\":13317:13341   */\n      0x576169742054696c6c20436c69666620706572696f6400000000000000000000\n        /* \"#utility.yul\":13313:13314   */\n      0x00\n        /* \"#utility.yul\":13305:13311   */\n      dup3\n        /* \"#utility.yul\":13301:13315   */\n      add\n        /* \"#utility.yul\":13294:13342   */\n      mstore\n        /* \"#utility.yul\":13177:13349   */\n      pop\n      jump\t// out\n        /* \"#utility.yul\":13355:13721   */\n    tag_139:\n        /* \"#utility.yul\":13497:13500   */\n      0x00\n        /* \"#utility.yul\":13518:13585   */\n      tag_267\n        /* \"#utility.yul\":13582:13584   */\n      0x16\n        /* \"#utility.yul\":13577:13580   */\n      dup4\n        /* \"#utility.yul\":13518:13585   */\n      tag_123\n      jump\t// in\n    tag_267:\n        /* \"#utility.yul\":13511:13585   */\n      swap2\n      pop\n        /* \"#utility.yul\":13594:13687   */\n      tag_268\n        /* \"#utility.yul\":13683:13686   */\n      dup3\n        /* \"#utility.yul\":13594:13687   */\n      tag_138\n      jump\t// in\n    tag_268:\n        /* \"#utility.yul\":13712:13714   */\n      0x20\n        /* \"#utility.yul\":13707:13710   */\n      dup3\n        /* \"#utility.yul\":13703:13715   */\n      add\n        /* \"#utility.yul\":13696:13715   */\n      swap1\n      pop\n        /* \"#utility.yul\":13355:13721   */\n      swap2\n      swap1\n      pop\n      jump\t// out\n        /* \"#utility.yul\":13727:14146   */\n    tag_102:\n        /* \"#utility.yul\":13893:13897   */\n      0x00\n        /* \"#utility.yul\":13931:13933   */\n      0x20\n        /* \"#utility.yul\":13920:13929   */\n      dup3\n        /* \"#utility.yul\":13916:13934   */\n      add\n        /* \"#utility.yul\":13908:13934   */\n      swap1\n      pop\n        /* \"#utility.yul\":13980:13989   */\n      dup2\n        /* \"#utility.yul\":13974:13978   */\n      dup2\n        /* \"#utility.yul\":13970:13990   */\n      sub\n        /* \"#utility.yul\":13966:13967   */\n      0x00\n        /* \"#utility.yul\":13955:13964   */\n      dup4\n        /* \"#utility.yul\":13951:13968   */\n      add\n        /* \"#utility.yul\":13944:13991   */\n      mstore\n        /* \"#utility.yul\":14008:14139   */\n      tag_270\n        /* \"#utility.yul\":14134:14138   */\n      dup2\n        /* \"#utility.yul\":14008:14139   */\n      tag_139\n      jump\t// in\n    tag_270:\n        /* \"#utility.yul\":14000:14139   */\n      swap1\n      pop\n        /* \"#utility.yul\":13727:14146   */\n      swap2\n      swap1\n      pop\n      jump\t// out\n\n    auxdata: 0xa264697066735822122045d2df4c7478d526671cf06eb9b09e617748ab2ba2151b7cb31afdd1dcca2a6964736f6c63430008120033\n}\n",
				"bytecode": {
					"linkReferences": {},
					"object": "60806040523480156200001157600080fd5b5060405162001298380380620012988339818101604052810190620000379190620000fd565b80600860006101000a81548173ffffffffffffffffffffffffffffffffffffffff021916908373ffffffffffffffffffffffffffffffffffffffff160217905550506200012f565b600080fd5b600073ffffffffffffffffffffffffffffffffffffffff82169050919050565b6000620000b18262000084565b9050919050565b6000620000c582620000a4565b9050919050565b620000d781620000b8565b8114620000e357600080fd5b50565b600081519050620000f781620000cc565b92915050565b6000602082840312156200011657620001156200007f565b5b60006200012684828501620000e6565b91505092915050565b611159806200013f6000396000f3fe608060405234801561001057600080fd5b50600436106100a95760003560e01c806378e979251161007157806378e979251461015457806387b0be481461017257806396074e701461018e578063c4684e9d146101aa578063cb9199a2146101da578063fc0c546a1461020a576100a9565b80630fb5a6b4146100ae57806313d033c0146100cc5780633ce301e5146100ea5780635afd6eb81461010657806370ff852b14610124575b600080fd5b6100b6610228565b6040516100c39190610988565b60405180910390f35b6100d461022e565b6040516100e19190610988565b60405180910390f35b61010460048036038101906100ff9190610a32565b610234565b005b61010e610437565b60405161011b9190610988565b60405180910390f35b61013e60048036038101906101399190610aad565b61043d565b60405161014b9190610988565b60405180910390f35b61015c610455565b6040516101699190610988565b60405180910390f35b61018c60048036038101906101879190610aad565b61045b565b005b6101a860048036038101906101a39190610ada565b6106e6565b005b6101c460048036038101906101bf9190610aad565b6107f5565b6040516101d19190610988565b60405180910390f35b6101f460048036038101906101ef9190610aad565b610931565b6040516102019190610988565b60405180910390f35b610212610949565b60405161021f9190610b79565b60405180910390f35b60005481565b60015481565b8160008190555082600181905550806002819055504260038190555033600760006101000a81548173ffffffffffffffffffffffffffffffffffffffff021916908373ffffffffffffffffffffffffffffffffffffffff16021790555083600460008773ffffffffffffffffffffffffffffffffffffffff1673ffffffffffffffffffffffffffffffffffffffff16815260200190815260200160002081905550600460008673ffffffffffffffffffffffffffffffffffffffff1673ffffffffffffffffffffffffffffffffffffffff16815260200190815260200160002054600560008773ffffffffffffffffffffffffffffffffffffffff1673ffffffffffffffffffffffffffffffffffffffff16815260200190815260200160002081905550600860009054906101000a900473ffffffffffffffffffffffffffffffffffffffff1673ffffffffffffffffffffffffffffffffffffffff1663a9059cbb30866040518363ffffffff1660e01b81526004016103b5929190610ba3565b6020604051808303816000875af11580156103d4573d6000803e3d6000fd5b505050506040513d601f19601f820116820180604052508101906103f89190610c04565b507f58061f685b438748cf21469042b11fe4dfb0c77fd2da64032c5adc017fc09a88856040516104289190610cb4565b60405180910390a15050505050565b60025481565b60066020528060005260406000206000915090505481565b60035481565b806000610467836107f5565b9050600460008473ffffffffffffffffffffffffffffffffffffffff1673ffffffffffffffffffffffffffffffffffffffff168152602001908152602001600020548111156104eb576040517f08c379a00000000000000000000000000000000000000000000000000000000081526004016104e290610d54565b60405180910390fd5b80600660008573ffffffffffffffffffffffffffffffffffffffff1673ffffffffffffffffffffffffffffffffffffffff16815260200190815260200160002081905550600860009054906101000a900473ffffffffffffffffffffffffffffffffffffffff1673ffffffffffffffffffffffffffffffffffffffff1663a9059cbb84836040518363ffffffff1660e01b815260040161058c929190610ba3565b6020604051808303816000875af11580156105ab573d6000803e3d6000fd5b505050506040513d601f19601f820116820180604052508101906105cf9190610c04565b507fa13f186497986e7b059df4137d98a76d0cb346d0e9a294755b01975e190434a9836040516105ff9190610de6565b60405180910390a1506000600460008373ffffffffffffffffffffffffffffffffffffffff1673ffffffffffffffffffffffffffffffffffffffff1681526020019081526020016000205411806106a35750600760009054906101000a900473ffffffffffffffffffffffffffffffffffffffff1673ffffffffffffffffffffffffffffffffffffffff163373ffffffffffffffffffffffffffffffffffffffff16145b6106e2576040517f08c379a00000000000000000000000000000000000000000000000000000000081526004016106d990610e86565b60405180910390fd5b5050565b80600460008473ffffffffffffffffffffffffffffffffffffffff1673ffffffffffffffffffffffffffffffffffffffff168152602001908152602001600020819055507f557197374edb4e72999d5d4c84ca4715c58797739aab2f2b7e300db81b4cd1c3826040516107599190610ef2565b60405180910390a1600760009054906101000a900473ffffffffffffffffffffffffffffffffffffffff1673ffffffffffffffffffffffffffffffffffffffff163373ffffffffffffffffffffffffffffffffffffffff16146107f1576040517f08c379a00000000000000000000000000000000000000000000000000000000081526004016107e890610f92565b60405180910390fd5b5050565b600080600354426108069190610fe1565b90506000600254826108189190611044565b9050600060025460005461082c9190611044565b905080821061087f57600460008673ffffffffffffffffffffffffffffffffffffffff1673ffffffffffffffffffffffffffffffffffffffff1681526020019081526020016000205493505050506108e7565b600081600460008873ffffffffffffffffffffffffffffffffffffffff1673ffffffffffffffffffffffffffffffffffffffff168152602001908152602001600020546108cc9190611044565b9050600083826108dc9190611075565b905080955050505050505b60015442101561092c576040517f08c379a000000000000000000000000000000000000000000000000000000000815260040161092390611103565b60405180910390fd5b919050565b60056020528060005260406000206000915090505481565b600860009054906101000a900473ffffffffffffffffffffffffffffffffffffffff1681565b6000819050919050565b6109828161096f565b82525050565b600060208201905061099d6000830184610979565b92915050565b600080fd5b600073ffffffffffffffffffffffffffffffffffffffff82169050919050565b60006109d3826109a8565b9050919050565b6109e3816109c8565b81146109ee57600080fd5b50565b600081359050610a00816109da565b92915050565b610a0f8161096f565b8114610a1a57600080fd5b50565b600081359050610a2c81610a06565b92915050565b600080600080600060a08688031215610a4e57610a4d6109a3565b5b6000610a5c888289016109f1565b9550506020610a6d88828901610a1d565b9450506040610a7e88828901610a1d565b9350506060610a8f88828901610a1d565b9250506080610aa088828901610a1d565b9150509295509295909350565b600060208284031215610ac357610ac26109a3565b5b6000610ad1848285016109f1565b91505092915050565b60008060408385031215610af157610af06109a3565b5b6000610aff858286016109f1565b9250506020610b1085828601610a1d565b9150509250929050565b6000819050919050565b6000610b3f610b3a610b35846109a8565b610b1a565b6109a8565b9050919050565b6000610b5182610b24565b9050919050565b6000610b6382610b46565b9050919050565b610b7381610b58565b82525050565b6000602082019050610b8e6000830184610b6a565b92915050565b610b9d816109c8565b82525050565b6000604082019050610bb86000830185610b94565b610bc56020830184610979565b9392505050565b60008115159050919050565b610be181610bcc565b8114610bec57600080fd5b50565b600081519050610bfe81610bd8565b92915050565b600060208284031215610c1a57610c196109a3565b5b6000610c2884828501610bef565b91505092915050565b600082825260208201905092915050565b7f546f6b656e7320617265204c6f636b656420696e20736d61727420636f6e747260008201527f6163742000000000000000000000000000000000000000000000000000000000602082015250565b6000610c9e602483610c31565b9150610ca982610c42565b604082019050919050565b6000604082019050610cc96000830184610b94565b8181036020830152610cda81610c91565b905092915050565b7f546f6b656e7320436c61696d696e67206172652067726561746572207468616e60008201527f20746f6b656e73206c6f636b6564000000000000000000000000000000000000602082015250565b6000610d3e602e83610c31565b9150610d4982610ce2565b604082019050919050565b60006020820190508181036000830152610d6d81610d31565b9050919050565b7f546f6b656e73206172652052656c656173656420696e206163636f756e74206f60008201527f662062656e656669636961727920000000000000000000000000000000000000602082015250565b6000610dd0602e83610c31565b9150610ddb82610d74565b604082019050919050565b6000604082019050610dfb6000830184610b94565b8181036020830152610e0c81610dc3565b905092915050565b7f4f6e6c792042656e6566696369617279204f72204f776e65722063616e20526560008201527f6c6561736520546f6b656e730000000000000000000000000000000000000000602082015250565b6000610e70602c83610c31565b9150610e7b82610e14565b604082019050919050565b60006020820190508181036000830152610e9f81610e63565b9050919050565b7f4e65772042656e65666963696172792041646465640000000000000000000000600082015250565b6000610edc601583610c31565b9150610ee782610ea6565b602082019050919050565b6000604082019050610f076000830184610b94565b8181036020830152610f1881610ecf565b905092915050565b7f204f6e6c79204f776e65722063616e204164642062656e65666569636961726960008201527f6573000000000000000000000000000000000000000000000000000000000000602082015250565b6000610f7c602283610c31565b9150610f8782610f20565b604082019050919050565b60006020820190508181036000830152610fab81610f6f565b9050919050565b7f4e487b7100000000000000000000000000000000000000000000000000000000600052601160045260246000fd5b6000610fec8261096f565b9150610ff78361096f565b925082820390508181111561100f5761100e610fb2565b5b92915050565b7f4e487b7100000000000000000000000000000000000000000000000000000000600052601260045260246000fd5b600061104f8261096f565b915061105a8361096f565b92508261106a57611069611015565b5b828204905092915050565b60006110808261096f565b915061108b8361096f565b92508282026110998161096f565b915082820484148315176110b0576110af610fb2565b5b5092915050565b7f576169742054696c6c20436c69666620706572696f6400000000000000000000600082015250565b60006110ed601683610c31565b91506110f8826110b7565b602082019050919050565b6000602082019050818103600083015261111c816110e0565b905091905056fea264697066735822122045d2df4c7478d526671cf06eb9b09e617748ab2ba2151b7cb31afdd1dcca2a6964736f6c63430008120033",
					"opcodes": "PUSH1 0x80 PUSH1 0x40 MSTORE CALLVALUE DUP1 ISZERO PUSH3 0x11 JUMPI PUSH1 0x0 DUP1 REVERT JUMPDEST POP PUSH1 0x40 MLOAD PUSH3 0x1298 CODESIZE SUB DUP1 PUSH3 0x1298 DUP4 CODECOPY DUP2 DUP2 ADD PUSH1 0x40 MSTORE DUP2 ADD SWAP1 PUSH3 0x37 SWAP2 SWAP1 PUSH3 0xFD JUMP JUMPDEST DUP1 PUSH1 0x8 PUSH1 0x0 PUSH2 0x100 EXP DUP2 SLOAD DUP2 PUSH20 0xFFFFFFFFFFFFFFFFFFFFFFFFFFFFFFFFFFFFFFFF MUL NOT AND SWAP1 DUP4 PUSH20 0xFFFFFFFFFFFFFFFFFFFFFFFFFFFFFFFFFFFFFFFF AND MUL OR SWAP1 SSTORE POP POP PUSH3 0x12F JUMP JUMPDEST PUSH1 0x0 DUP1 REVERT JUMPDEST PUSH1 0x0 PUSH20 0xFFFFFFFFFFFFFFFFFFFFFFFFFFFFFFFFFFFFFFFF DUP3 AND SWAP1 POP SWAP2 SWAP1 POP JUMP JUMPDEST PUSH1 0x0 PUSH3 0xB1 DUP3 PUSH3 0x84 JUMP JUMPDEST SWAP1 POP SWAP2 SWAP1 POP JUMP JUMPDEST PUSH1 0x0 PUSH3 0xC5 DUP3 PUSH3 0xA4 JUMP JUMPDEST SWAP1 POP SWAP2 SWAP1 POP JUMP JUMPDEST PUSH3 0xD7 DUP2 PUSH3 0xB8 JUMP JUMPDEST DUP2 EQ PUSH3 0xE3 JUMPI PUSH1 0x0 DUP1 REVERT JUMPDEST POP JUMP JUMPDEST PUSH1 0x0 DUP2 MLOAD SWAP1 POP PUSH3 0xF7 DUP2 PUSH3 0xCC JUMP JUMPDEST SWAP3 SWAP2 POP POP JUMP JUMPDEST PUSH1 0x0 PUSH1 0x20 DUP3 DUP5 SUB SLT ISZERO PUSH3 0x116 JUMPI PUSH3 0x115 PUSH3 0x7F JUMP JUMPDEST JUMPDEST PUSH1 0x0 PUSH3 0x126 DUP5 DUP3 DUP6 ADD PUSH3 0xE6 JUMP JUMPDEST SWAP2 POP POP SWAP3 SWAP2 POP POP JUMP JUMPDEST PUSH2 0x1159 DUP1 PUSH3 0x13F PUSH1 0x0 CODECOPY PUSH1 0x0 RETURN INVALID PUSH1 0x80 PUSH1 0x40 MSTORE CALLVALUE DUP1 ISZERO PUSH2 0x10 JUMPI PUSH1 0x0 DUP1 REVERT JUMPDEST POP PUSH1 0x4 CALLDATASIZE LT PUSH2 0xA9 JUMPI PUSH1 0x0 CALLDATALOAD PUSH1 0xE0 SHR DUP1 PUSH4 0x78E97925 GT PUSH2 0x71 JUMPI DUP1 PUSH4 0x78E97925 EQ PUSH2 0x154 JUMPI DUP1 PUSH4 0x87B0BE48 EQ PUSH2 0x172 JUMPI DUP1 PUSH4 0x96074E70 EQ PUSH2 0x18E JUMPI DUP1 PUSH4 0xC4684E9D EQ PUSH2 0x1AA JUMPI DUP1 PUSH4 0xCB9199A2 EQ PUSH2 0x1DA JUMPI DUP1 PUSH4 0xFC0C546A EQ PUSH2 0x20A JUMPI PUSH2 0xA9 JUMP JUMPDEST DUP1 PUSH4 0xFB5A6B4 EQ PUSH2 0xAE JUMPI DUP1 PUSH4 0x13D033C0 EQ PUSH2 0xCC JUMPI DUP1 PUSH4 0x3CE301E5 EQ PUSH2 0xEA JUMPI DUP1 PUSH4 0x5AFD6EB8 EQ PUSH2 0x106 JUMPI DUP1 PUSH4 0x70FF852B EQ PUSH2 0x124 JUMPI JUMPDEST PUSH1 0x0 DUP1 REVERT JUMPDEST PUSH2 0xB6 PUSH2 0x228 JUMP JUMPDEST PUSH1 0x40 MLOAD PUSH2 0xC3 SWAP2 SWAP1 PUSH2 0x988 JUMP JUMPDEST PUSH1 0x40 MLOAD DUP1 SWAP2 SUB SWAP1 RETURN JUMPDEST PUSH2 0xD4 PUSH2 0x22E JUMP JUMPDEST PUSH1 0x40 MLOAD PUSH2 0xE1 SWAP2 SWAP1 PUSH2 0x988 JUMP JUMPDEST PUSH1 0x40 MLOAD DUP1 SWAP2 SUB SWAP1 RETURN JUMPDEST PUSH2 0x104 PUSH1 0x4 DUP1 CALLDATASIZE SUB DUP2 ADD SWAP1 PUSH2 0xFF SWAP2 SWAP1 PUSH2 0xA32 JUMP JUMPDEST PUSH2 0x234 JUMP JUMPDEST STOP JUMPDEST PUSH2 0x10E PUSH2 0x437 JUMP JUMPDEST PUSH1 0x40 MLOAD PUSH2 0x11B SWAP2 SWAP1 PUSH2 0x988 JUMP JUMPDEST PUSH1 0x40 MLOAD DUP1 SWAP2 SUB SWAP1 RETURN JUMPDEST PUSH2 0x13E PUSH1 0x4 DUP1 CALLDATASIZE SUB DUP2 ADD SWAP1 PUSH2 0x139 SWAP2 SWAP1 PUSH2 0xAAD JUMP JUMPDEST PUSH2 0x43D JUMP JUMPDEST PUSH1 0x40 MLOAD PUSH2 0x14B SWAP2 SWAP1 PUSH2 0x988 JUMP JUMPDEST PUSH1 0x40 MLOAD DUP1 SWAP2 SUB SWAP1 RETURN JUMPDEST PUSH2 0x15C PUSH2 0x455 JUMP JUMPDEST PUSH1 0x40 MLOAD PUSH2 0x169 SWAP2 SWAP1 PUSH2 0x988 JUMP JUMPDEST PUSH1 0x40 MLOAD DUP1 SWAP2 SUB SWAP1 RETURN JUMPDEST PUSH2 0x18C PUSH1 0x4 DUP1 CALLDATASIZE SUB DUP2 ADD SWAP1 PUSH2 0x187 SWAP2 SWAP1 PUSH2 0xAAD JUMP JUMPDEST PUSH2 0x45B JUMP JUMPDEST STOP JUMPDEST PUSH2 0x1A8 PUSH1 0x4 DUP1 CALLDATASIZE SUB DUP2 ADD SWAP1 PUSH2 0x1A3 SWAP2 SWAP1 PUSH2 0xADA JUMP JUMPDEST PUSH2 0x6E6 JUMP JUMPDEST STOP JUMPDEST PUSH2 0x1C4 PUSH1 0x4 DUP1 CALLDATASIZE SUB DUP2 ADD SWAP1 PUSH2 0x1BF SWAP2 SWAP1 PUSH2 0xAAD JUMP JUMPDEST PUSH2 0x7F5 JUMP JUMPDEST PUSH1 0x40 MLOAD PUSH2 0x1D1 SWAP2 SWAP1 PUSH2 0x988 JUMP JUMPDEST PUSH1 0x40 MLOAD DUP1 SWAP2 SUB SWAP1 RETURN JUMPDEST PUSH2 0x1F4 PUSH1 0x4 DUP1 CALLDATASIZE SUB DUP2 ADD SWAP1 PUSH2 0x1EF SWAP2 SWAP1 PUSH2 0xAAD JUMP JUMPDEST PUSH2 0x931 JUMP JUMPDEST PUSH1 0x40 MLOAD PUSH2 0x201 SWAP2 SWAP1 PUSH2 0x988 JUMP JUMPDEST PUSH1 0x40 MLOAD DUP1 SWAP2 SUB SWAP1 RETURN JUMPDEST PUSH2 0x212 PUSH2 0x949 JUMP JUMPDEST PUSH1 0x40 MLOAD PUSH2 0x21F SWAP2 SWAP1 PUSH2 0xB79 JUMP JUMPDEST PUSH1 0x40 MLOAD DUP1 SWAP2 SUB SWAP1 RETURN JUMPDEST PUSH1 0x0 SLOAD DUP2 JUMP JUMPDEST PUSH1 0x1 SLOAD DUP2 JUMP JUMPDEST DUP2 PUSH1 0x0 DUP2 SWAP1 SSTORE POP DUP3 PUSH1 0x1 DUP2 SWAP1 SSTORE POP DUP1 PUSH1 0x2 DUP2 SWAP1 SSTORE POP TIMESTAMP PUSH1 0x3 DUP2 SWAP1 SSTORE POP CALLER PUSH1 0x7 PUSH1 0x0 PUSH2 0x100 EXP DUP2 SLOAD DUP2 PUSH20 0xFFFFFFFFFFFFFFFFFFFFFFFFFFFFFFFFFFFFFFFF MUL NOT AND SWAP1 DUP4 PUSH20 0xFFFFFFFFFFFFFFFFFFFFFFFFFFFFFFFFFFFFFFFF AND MUL OR SWAP1 SSTORE POP DUP4 PUSH1 0x4 PUSH1 0x0 DUP8 PUSH20 0xFFFFFFFFFFFFFFFFFFFFFFFFFFFFFFFFFFFFFFFF AND PUSH20 0xFFFFFFFFFFFFFFFFFFFFFFFFFFFFFFFFFFFFFFFF AND DUP2 MSTORE PUSH1 0x20 ADD SWAP1 DUP2 MSTORE PUSH1 0x20 ADD PUSH1 0x0 KECCAK256 DUP2 SWAP1 SSTORE POP PUSH1 0x4 PUSH1 0x0 DUP7 PUSH20 0xFFFFFFFFFFFFFFFFFFFFFFFFFFFFFFFFFFFFFFFF AND PUSH20 0xFFFFFFFFFFFFFFFFFFFFFFFFFFFFFFFFFFFFFFFF AND DUP2 MSTORE PUSH1 0x20 ADD SWAP1 DUP2 MSTORE PUSH1 0x20 ADD PUSH1 0x0 KECCAK256 SLOAD PUSH1 0x5 PUSH1 0x0 DUP8 PUSH20 0xFFFFFFFFFFFFFFFFFFFFFFFFFFFFFFFFFFFFFFFF AND PUSH20 0xFFFFFFFFFFFFFFFFFFFFFFFFFFFFFFFFFFFFFFFF AND DUP2 MSTORE PUSH1 0x20 ADD SWAP1 DUP2 MSTORE PUSH1 0x20 ADD PUSH1 0x0 KECCAK256 DUP2 SWAP1 SSTORE POP PUSH1 0x8 PUSH1 0x0 SWAP1 SLOAD SWAP1 PUSH2 0x100 EXP SWAP1 DIV PUSH20 0xFFFFFFFFFFFFFFFFFFFFFFFFFFFFFFFFFFFFFFFF AND PUSH20 0xFFFFFFFFFFFFFFFFFFFFFFFFFFFFFFFFFFFFFFFF AND PUSH4 0xA9059CBB ADDRESS DUP7 PUSH1 0x40 MLOAD DUP4 PUSH4 0xFFFFFFFF AND PUSH1 0xE0 SHL DUP2 MSTORE PUSH1 0x4 ADD PUSH2 0x3B5 SWAP3 SWAP2 SWAP1 PUSH2 0xBA3 JUMP JUMPDEST PUSH1 0x20 PUSH1 0x40 MLOAD DUP1 DUP4 SUB DUP2 PUSH1 0x0 DUP8 GAS CALL ISZERO DUP1 ISZERO PUSH2 0x3D4 JUMPI RETURNDATASIZE PUSH1 0x0 DUP1 RETURNDATACOPY RETURNDATASIZE PUSH1 0x0 REVERT JUMPDEST POP POP POP POP PUSH1 0x40 MLOAD RETURNDATASIZE PUSH1 0x1F NOT PUSH1 0x1F DUP3 ADD AND DUP3 ADD DUP1 PUSH1 0x40 MSTORE POP DUP2 ADD SWAP1 PUSH2 0x3F8 SWAP2 SWAP1 PUSH2 0xC04 JUMP JUMPDEST POP PUSH32 0x58061F685B438748CF21469042B11FE4DFB0C77FD2DA64032C5ADC017FC09A88 DUP6 PUSH1 0x40 MLOAD PUSH2 0x428 SWAP2 SWAP1 PUSH2 0xCB4 JUMP JUMPDEST PUSH1 0x40 MLOAD DUP1 SWAP2 SUB SWAP1 LOG1 POP POP POP POP POP JUMP JUMPDEST PUSH1 0x2 SLOAD DUP2 JUMP JUMPDEST PUSH1 0x6 PUSH1 0x20 MSTORE DUP1 PUSH1 0x0 MSTORE PUSH1 0x40 PUSH1 0x0 KECCAK256 PUSH1 0x0 SWAP2 POP SWAP1 POP SLOAD DUP2 JUMP JUMPDEST PUSH1 0x3 SLOAD DUP2 JUMP JUMPDEST DUP1 PUSH1 0x0 PUSH2 0x467 DUP4 PUSH2 0x7F5 JUMP JUMPDEST SWAP1 POP PUSH1 0x4 PUSH1 0x0 DUP5 PUSH20 0xFFFFFFFFFFFFFFFFFFFFFFFFFFFFFFFFFFFFFFFF AND PUSH20 0xFFFFFFFFFFFFFFFFFFFFFFFFFFFFFFFFFFFFFFFF AND DUP2 MSTORE PUSH1 0x20 ADD SWAP1 DUP2 MSTORE PUSH1 0x20 ADD PUSH1 0x0 KECCAK256 SLOAD DUP2 GT ISZERO PUSH2 0x4EB JUMPI PUSH1 0x40 MLOAD PUSH32 0x8C379A000000000000000000000000000000000000000000000000000000000 DUP2 MSTORE PUSH1 0x4 ADD PUSH2 0x4E2 SWAP1 PUSH2 0xD54 JUMP JUMPDEST PUSH1 0x40 MLOAD DUP1 SWAP2 SUB SWAP1 REVERT JUMPDEST DUP1 PUSH1 0x6 PUSH1 0x0 DUP6 PUSH20 0xFFFFFFFFFFFFFFFFFFFFFFFFFFFFFFFFFFFFFFFF AND PUSH20 0xFFFFFFFFFFFFFFFFFFFFFFFFFFFFFFFFFFFFFFFF AND DUP2 MSTORE PUSH1 0x20 ADD SWAP1 DUP2 MSTORE PUSH1 0x20 ADD PUSH1 0x0 KECCAK256 DUP2 SWAP1 SSTORE POP PUSH1 0x8 PUSH1 0x0 SWAP1 SLOAD SWAP1 PUSH2 0x100 EXP SWAP1 DIV PUSH20 0xFFFFFFFFFFFFFFFFFFFFFFFFFFFFFFFFFFFFFFFF AND PUSH20 0xFFFFFFFFFFFFFFFFFFFFFFFFFFFFFFFFFFFFFFFF AND PUSH4 0xA9059CBB DUP5 DUP4 PUSH1 0x40 MLOAD DUP4 PUSH4 0xFFFFFFFF AND PUSH1 0xE0 SHL DUP2 MSTORE PUSH1 0x4 ADD PUSH2 0x58C SWAP3 SWAP2 SWAP1 PUSH2 0xBA3 JUMP JUMPDEST PUSH1 0x20 PUSH1 0x40 MLOAD DUP1 DUP4 SUB DUP2 PUSH1 0x0 DUP8 GAS CALL ISZERO DUP1 ISZERO PUSH2 0x5AB JUMPI RETURNDATASIZE PUSH1 0x0 DUP1 RETURNDATACOPY RETURNDATASIZE PUSH1 0x0 REVERT JUMPDEST POP POP POP POP PUSH1 0x40 MLOAD RETURNDATASIZE PUSH1 0x1F NOT PUSH1 0x1F DUP3 ADD AND DUP3 ADD DUP1 PUSH1 0x40 MSTORE POP DUP2 ADD SWAP1 PUSH2 0x5CF SWAP2 SWAP1 PUSH2 0xC04 JUMP JUMPDEST POP PUSH32 0xA13F186497986E7B059DF4137D98A76D0CB346D0E9A294755B01975E190434A9 DUP4 PUSH1 0x40 MLOAD PUSH2 0x5FF SWAP2 SWAP1 PUSH2 0xDE6 JUMP JUMPDEST PUSH1 0x40 MLOAD DUP1 SWAP2 SUB SWAP1 LOG1 POP PUSH1 0x0 PUSH1 0x4 PUSH1 0x0 DUP4 PUSH20 0xFFFFFFFFFFFFFFFFFFFFFFFFFFFFFFFFFFFFFFFF AND PUSH20 0xFFFFFFFFFFFFFFFFFFFFFFFFFFFFFFFFFFFFFFFF AND DUP2 MSTORE PUSH1 0x20 ADD SWAP1 DUP2 MSTORE PUSH1 0x20 ADD PUSH1 0x0 KECCAK256 SLOAD GT DUP1 PUSH2 0x6A3 JUMPI POP PUSH1 0x7 PUSH1 0x0 SWAP1 SLOAD SWAP1 PUSH2 0x100 EXP SWAP1 DIV PUSH20 0xFFFFFFFFFFFFFFFFFFFFFFFFFFFFFFFFFFFFFFFF AND PUSH20 0xFFFFFFFFFFFFFFFFFFFFFFFFFFFFFFFFFFFFFFFF AND CALLER PUSH20 0xFFFFFFFFFFFFFFFFFFFFFFFFFFFFFFFFFFFFFFFF AND EQ JUMPDEST PUSH2 0x6E2 JUMPI PUSH1 0x40 MLOAD PUSH32 0x8C379A000000000000000000000000000000000000000000000000000000000 DUP2 MSTORE PUSH1 0x4 ADD PUSH2 0x6D9 SWAP1 PUSH2 0xE86 JUMP JUMPDEST PUSH1 0x40 MLOAD DUP1 SWAP2 SUB SWAP1 REVERT JUMPDEST POP POP JUMP JUMPDEST DUP1 PUSH1 0x4 PUSH1 0x0 DUP5 PUSH20 0xFFFFFFFFFFFFFFFFFFFFFFFFFFFFFFFFFFFFFFFF AND PUSH20 0xFFFFFFFFFFFFFFFFFFFFFFFFFFFFFFFFFFFFFFFF AND DUP2 MSTORE PUSH1 0x20 ADD SWAP1 DUP2 MSTORE PUSH1 0x20 ADD PUSH1 0x0 KECCAK256 DUP2 SWAP1 SSTORE POP PUSH32 0x557197374EDB4E72999D5D4C84CA4715C58797739AAB2F2B7E300DB81B4CD1C3 DUP3 PUSH1 0x40 MLOAD PUSH2 0x759 SWAP2 SWAP1 PUSH2 0xEF2 JUMP JUMPDEST PUSH1 0x40 MLOAD DUP1 SWAP2 SUB SWAP1 LOG1 PUSH1 0x7 PUSH1 0x0 SWAP1 SLOAD SWAP1 PUSH2 0x100 EXP SWAP1 DIV PUSH20 0xFFFFFFFFFFFFFFFFFFFFFFFFFFFFFFFFFFFFFFFF AND PUSH20 0xFFFFFFFFFFFFFFFFFFFFFFFFFFFFFFFFFFFFFFFF AND CALLER PUSH20 0xFFFFFFFFFFFFFFFFFFFFFFFFFFFFFFFFFFFFFFFF AND EQ PUSH2 0x7F1 JUMPI PUSH1 0x40 MLOAD PUSH32 0x8C379A000000000000000000000000000000000000000000000000000000000 DUP2 MSTORE PUSH1 0x4 ADD PUSH2 0x7E8 SWAP1 PUSH2 0xF92 JUMP JUMPDEST PUSH1 0x40 MLOAD DUP1 SWAP2 SUB SWAP1 REVERT JUMPDEST POP POP JUMP JUMPDEST PUSH1 0x0 DUP1 PUSH1 0x3 SLOAD TIMESTAMP PUSH2 0x806 SWAP2 SWAP1 PUSH2 0xFE1 JUMP JUMPDEST SWAP1 POP PUSH1 0x0 PUSH1 0x2 SLOAD DUP3 PUSH2 0x818 SWAP2 SWAP1 PUSH2 0x1044 JUMP JUMPDEST SWAP1 POP PUSH1 0x0 PUSH1 0x2 SLOAD PUSH1 0x0 SLOAD PUSH2 0x82C SWAP2 SWAP1 PUSH2 0x1044 JUMP JUMPDEST SWAP1 POP DUP1 DUP3 LT PUSH2 0x87F JUMPI PUSH1 0x4 PUSH1 0x0 DUP7 PUSH20 0xFFFFFFFFFFFFFFFFFFFFFFFFFFFFFFFFFFFFFFFF AND PUSH20 0xFFFFFFFFFFFFFFFFFFFFFFFFFFFFFFFFFFFFFFFF AND DUP2 MSTORE PUSH1 0x20 ADD SWAP1 DUP2 MSTORE PUSH1 0x20 ADD PUSH1 0x0 KECCAK256 SLOAD SWAP4 POP POP POP POP PUSH2 0x8E7 JUMP JUMPDEST PUSH1 0x0 DUP2 PUSH1 0x4 PUSH1 0x0 DUP9 PUSH20 0xFFFFFFFFFFFFFFFFFFFFFFFFFFFFFFFFFFFFFFFF AND PUSH20 0xFFFFFFFFFFFFFFFFFFFFFFFFFFFFFFFFFFFFFFFF AND DUP2 MSTORE PUSH1 0x20 ADD SWAP1 DUP2 MSTORE PUSH1 0x20 ADD PUSH1 0x0 KECCAK256 SLOAD PUSH2 0x8CC SWAP2 SWAP1 PUSH2 0x1044 JUMP JUMPDEST SWAP1 POP PUSH1 0x0 DUP4 DUP3 PUSH2 0x8DC SWAP2 SWAP1 PUSH2 0x1075 JUMP JUMPDEST SWAP1 POP DUP1 SWAP6 POP POP POP POP POP POP JUMPDEST PUSH1 0x1 SLOAD TIMESTAMP LT ISZERO PUSH2 0x92C JUMPI PUSH1 0x40 MLOAD PUSH32 0x8C379A000000000000000000000000000000000000000000000000000000000 DUP2 MSTORE PUSH1 0x4 ADD PUSH2 0x923 SWAP1 PUSH2 0x1103 JUMP JUMPDEST PUSH1 0x40 MLOAD DUP1 SWAP2 SUB SWAP1 REVERT JUMPDEST SWAP2 SWAP1 POP JUMP JUMPDEST PUSH1 0x5 PUSH1 0x20 MSTORE DUP1 PUSH1 0x0 MSTORE PUSH1 0x40 PUSH1 0x0 KECCAK256 PUSH1 0x0 SWAP2 POP SWAP1 POP SLOAD DUP2 JUMP JUMPDEST PUSH1 0x8 PUSH1 0x0 SWAP1 SLOAD SWAP1 PUSH2 0x100 EXP SWAP1 DIV PUSH20 0xFFFFFFFFFFFFFFFFFFFFFFFFFFFFFFFFFFFFFFFF AND DUP2 JUMP JUMPDEST PUSH1 0x0 DUP2 SWAP1 POP SWAP2 SWAP1 POP JUMP JUMPDEST PUSH2 0x982 DUP2 PUSH2 0x96F JUMP JUMPDEST DUP3 MSTORE POP POP JUMP JUMPDEST PUSH1 0x0 PUSH1 0x20 DUP3 ADD SWAP1 POP PUSH2 0x99D PUSH1 0x0 DUP4 ADD DUP5 PUSH2 0x979 JUMP JUMPDEST SWAP3 SWAP2 POP POP JUMP JUMPDEST PUSH1 0x0 DUP1 REVERT JUMPDEST PUSH1 0x0 PUSH20 0xFFFFFFFFFFFFFFFFFFFFFFFFFFFFFFFFFFFFFFFF DUP3 AND SWAP1 POP SWAP2 SWAP1 POP JUMP JUMPDEST PUSH1 0x0 PUSH2 0x9D3 DUP3 PUSH2 0x9A8 JUMP JUMPDEST SWAP1 POP SWAP2 SWAP1 POP JUMP JUMPDEST PUSH2 0x9E3 DUP2 PUSH2 0x9C8 JUMP JUMPDEST DUP2 EQ PUSH2 0x9EE JUMPI PUSH1 0x0 DUP1 REVERT JUMPDEST POP JUMP JUMPDEST PUSH1 0x0 DUP2 CALLDATALOAD SWAP1 POP PUSH2 0xA00 DUP2 PUSH2 0x9DA JUMP JUMPDEST SWAP3 SWAP2 POP POP JUMP JUMPDEST PUSH2 0xA0F DUP2 PUSH2 0x96F JUMP JUMPDEST DUP2 EQ PUSH2 0xA1A JUMPI PUSH1 0x0 DUP1 REVERT JUMPDEST POP JUMP JUMPDEST PUSH1 0x0 DUP2 CALLDATALOAD SWAP1 POP PUSH2 0xA2C DUP2 PUSH2 0xA06 JUMP JUMPDEST SWAP3 SWAP2 POP POP JUMP JUMPDEST PUSH1 0x0 DUP1 PUSH1 0x0 DUP1 PUSH1 0x0 PUSH1 0xA0 DUP7 DUP9 SUB SLT ISZERO PUSH2 0xA4E JUMPI PUSH2 0xA4D PUSH2 0x9A3 JUMP JUMPDEST JUMPDEST PUSH1 0x0 PUSH2 0xA5C DUP9 DUP3 DUP10 ADD PUSH2 0x9F1 JUMP JUMPDEST SWAP6 POP POP PUSH1 0x20 PUSH2 0xA6D DUP9 DUP3 DUP10 ADD PUSH2 0xA1D JUMP JUMPDEST SWAP5 POP POP PUSH1 0x40 PUSH2 0xA7E DUP9 DUP3 DUP10 ADD PUSH2 0xA1D JUMP JUMPDEST SWAP4 POP POP PUSH1 0x60 PUSH2 0xA8F DUP9 DUP3 DUP10 ADD PUSH2 0xA1D JUMP JUMPDEST SWAP3 POP POP PUSH1 0x80 PUSH2 0xAA0 DUP9 DUP3 DUP10 ADD PUSH2 0xA1D JUMP JUMPDEST SWAP2 POP POP SWAP3 SWAP6 POP SWAP3 SWAP6 SWAP1 SWAP4 POP JUMP JUMPDEST PUSH1 0x0 PUSH1 0x20 DUP3 DUP5 SUB SLT ISZERO PUSH2 0xAC3 JUMPI PUSH2 0xAC2 PUSH2 0x9A3 JUMP JUMPDEST JUMPDEST PUSH1 0x0 PUSH2 0xAD1 DUP5 DUP3 DUP6 ADD PUSH2 0x9F1 JUMP JUMPDEST SWAP2 POP POP SWAP3 SWAP2 POP POP JUMP JUMPDEST PUSH1 0x0 DUP1 PUSH1 0x40 DUP4 DUP6 SUB SLT ISZERO PUSH2 0xAF1 JUMPI PUSH2 0xAF0 PUSH2 0x9A3 JUMP JUMPDEST JUMPDEST PUSH1 0x0 PUSH2 0xAFF DUP6 DUP3 DUP7 ADD PUSH2 0x9F1 JUMP JUMPDEST SWAP3 POP POP PUSH1 0x20 PUSH2 0xB10 DUP6 DUP3 DUP7 ADD PUSH2 0xA1D JUMP JUMPDEST SWAP2 POP POP SWAP3 POP SWAP3 SWAP1 POP JUMP JUMPDEST PUSH1 0x0 DUP2 SWAP1 POP SWAP2 SWAP1 POP JUMP JUMPDEST PUSH1 0x0 PUSH2 0xB3F PUSH2 0xB3A PUSH2 0xB35 DUP5 PUSH2 0x9A8 JUMP JUMPDEST PUSH2 0xB1A JUMP JUMPDEST PUSH2 0x9A8 JUMP JUMPDEST SWAP1 POP SWAP2 SWAP1 POP JUMP JUMPDEST PUSH1 0x0 PUSH2 0xB51 DUP3 PUSH2 0xB24 JUMP JUMPDEST SWAP1 POP SWAP2 SWAP1 POP JUMP JUMPDEST PUSH1 0x0 PUSH2 0xB63 DUP3 PUSH2 0xB46 JUMP JUMPDEST SWAP1 POP SWAP2 SWAP1 POP JUMP JUMPDEST PUSH2 0xB73 DUP2 PUSH2 0xB58 JUMP JUMPDEST DUP3 MSTORE POP POP JUMP JUMPDEST PUSH1 0x0 PUSH1 0x20 DUP3 ADD SWAP1 POP PUSH2 0xB8E PUSH1 0x0 DUP4 ADD DUP5 PUSH2 0xB6A JUMP JUMPDEST SWAP3 SWAP2 POP POP JUMP JUMPDEST PUSH2 0xB9D DUP2 PUSH2 0x9C8 JUMP JUMPDEST DUP3 MSTORE POP POP JUMP JUMPDEST PUSH1 0x0 PUSH1 0x40 DUP3 ADD SWAP1 POP PUSH2 0xBB8 PUSH1 0x0 DUP4 ADD DUP6 PUSH2 0xB94 JUMP JUMPDEST PUSH2 0xBC5 PUSH1 0x20 DUP4 ADD DUP5 PUSH2 0x979 JUMP JUMPDEST SWAP4 SWAP3 POP POP POP JUMP JUMPDEST PUSH1 0x0 DUP2 ISZERO ISZERO SWAP1 POP SWAP2 SWAP1 POP JUMP JUMPDEST PUSH2 0xBE1 DUP2 PUSH2 0xBCC JUMP JUMPDEST DUP2 EQ PUSH2 0xBEC JUMPI PUSH1 0x0 DUP1 REVERT JUMPDEST POP JUMP JUMPDEST PUSH1 0x0 DUP2 MLOAD SWAP1 POP PUSH2 0xBFE DUP2 PUSH2 0xBD8 JUMP JUMPDEST SWAP3 SWAP2 POP POP JUMP JUMPDEST PUSH1 0x0 PUSH1 0x20 DUP3 DUP5 SUB SLT ISZERO PUSH2 0xC1A JUMPI PUSH2 0xC19 PUSH2 0x9A3 JUMP JUMPDEST JUMPDEST PUSH1 0x0 PUSH2 0xC28 DUP5 DUP3 DUP6 ADD PUSH2 0xBEF JUMP JUMPDEST SWAP2 POP POP SWAP3 SWAP2 POP POP JUMP JUMPDEST PUSH1 0x0 DUP3 DUP3 MSTORE PUSH1 0x20 DUP3 ADD SWAP1 POP SWAP3 SWAP2 POP POP JUMP JUMPDEST PUSH32 0x546F6B656E7320617265204C6F636B656420696E20736D61727420636F6E7472 PUSH1 0x0 DUP3 ADD MSTORE PUSH32 0x6163742000000000000000000000000000000000000000000000000000000000 PUSH1 0x20 DUP3 ADD MSTORE POP JUMP JUMPDEST PUSH1 0x0 PUSH2 0xC9E PUSH1 0x24 DUP4 PUSH2 0xC31 JUMP JUMPDEST SWAP2 POP PUSH2 0xCA9 DUP3 PUSH2 0xC42 JUMP JUMPDEST PUSH1 0x40 DUP3 ADD SWAP1 POP SWAP2 SWAP1 POP JUMP JUMPDEST PUSH1 0x0 PUSH1 0x40 DUP3 ADD SWAP1 POP PUSH2 0xCC9 PUSH1 0x0 DUP4 ADD DUP5 PUSH2 0xB94 JUMP JUMPDEST DUP2 DUP2 SUB PUSH1 0x20 DUP4 ADD MSTORE PUSH2 0xCDA DUP2 PUSH2 0xC91 JUMP JUMPDEST SWAP1 POP SWAP3 SWAP2 POP POP JUMP JUMPDEST PUSH32 0x546F6B656E7320436C61696D696E67206172652067726561746572207468616E PUSH1 0x0 DUP3 ADD MSTORE PUSH32 0x20746F6B656E73206C6F636B6564000000000000000000000000000000000000 PUSH1 0x20 DUP3 ADD MSTORE POP JUMP JUMPDEST PUSH1 0x0 PUSH2 0xD3E PUSH1 0x2E DUP4 PUSH2 0xC31 JUMP JUMPDEST SWAP2 POP PUSH2 0xD49 DUP3 PUSH2 0xCE2 JUMP JUMPDEST PUSH1 0x40 DUP3 ADD SWAP1 POP SWAP2 SWAP1 POP JUMP JUMPDEST PUSH1 0x0 PUSH1 0x20 DUP3 ADD SWAP1 POP DUP2 DUP2 SUB PUSH1 0x0 DUP4 ADD MSTORE PUSH2 0xD6D DUP2 PUSH2 0xD31 JUMP JUMPDEST SWAP1 POP SWAP2 SWAP1 POP JUMP JUMPDEST PUSH32 0x546F6B656E73206172652052656C656173656420696E206163636F756E74206F PUSH1 0x0 DUP3 ADD MSTORE PUSH32 0x662062656E656669636961727920000000000000000000000000000000000000 PUSH1 0x20 DUP3 ADD MSTORE POP JUMP JUMPDEST PUSH1 0x0 PUSH2 0xDD0 PUSH1 0x2E DUP4 PUSH2 0xC31 JUMP JUMPDEST SWAP2 POP PUSH2 0xDDB DUP3 PUSH2 0xD74 JUMP JUMPDEST PUSH1 0x40 DUP3 ADD SWAP1 POP SWAP2 SWAP1 POP JUMP JUMPDEST PUSH1 0x0 PUSH1 0x40 DUP3 ADD SWAP1 POP PUSH2 0xDFB PUSH1 0x0 DUP4 ADD DUP5 PUSH2 0xB94 JUMP JUMPDEST DUP2 DUP2 SUB PUSH1 0x20 DUP4 ADD MSTORE PUSH2 0xE0C DUP2 PUSH2 0xDC3 JUMP JUMPDEST SWAP1 POP SWAP3 SWAP2 POP POP JUMP JUMPDEST PUSH32 0x4F6E6C792042656E6566696369617279204F72204F776E65722063616E205265 PUSH1 0x0 DUP3 ADD MSTORE PUSH32 0x6C6561736520546F6B656E730000000000000000000000000000000000000000 PUSH1 0x20 DUP3 ADD MSTORE POP JUMP JUMPDEST PUSH1 0x0 PUSH2 0xE70 PUSH1 0x2C DUP4 PUSH2 0xC31 JUMP JUMPDEST SWAP2 POP PUSH2 0xE7B DUP3 PUSH2 0xE14 JUMP JUMPDEST PUSH1 0x40 DUP3 ADD SWAP1 POP SWAP2 SWAP1 POP JUMP JUMPDEST PUSH1 0x0 PUSH1 0x20 DUP3 ADD SWAP1 POP DUP2 DUP2 SUB PUSH1 0x0 DUP4 ADD MSTORE PUSH2 0xE9F DUP2 PUSH2 0xE63 JUMP JUMPDEST SWAP1 POP SWAP2 SWAP1 POP JUMP JUMPDEST PUSH32 0x4E65772042656E65666963696172792041646465640000000000000000000000 PUSH1 0x0 DUP3 ADD MSTORE POP JUMP JUMPDEST PUSH1 0x0 PUSH2 0xEDC PUSH1 0x15 DUP4 PUSH2 0xC31 JUMP JUMPDEST SWAP2 POP PUSH2 0xEE7 DUP3 PUSH2 0xEA6 JUMP JUMPDEST PUSH1 0x20 DUP3 ADD SWAP1 POP SWAP2 SWAP1 POP JUMP JUMPDEST PUSH1 0x0 PUSH1 0x40 DUP3 ADD SWAP1 POP PUSH2 0xF07 PUSH1 0x0 DUP4 ADD DUP5 PUSH2 0xB94 JUMP JUMPDEST DUP2 DUP2 SUB PUSH1 0x20 DUP4 ADD MSTORE PUSH2 0xF18 DUP2 PUSH2 0xECF JUMP JUMPDEST SWAP1 POP SWAP3 SWAP2 POP POP JUMP JUMPDEST PUSH32 0x204F6E6C79204F776E65722063616E204164642062656E656665696369617269 PUSH1 0x0 DUP3 ADD MSTORE PUSH32 0x6573000000000000000000000000000000000000000000000000000000000000 PUSH1 0x20 DUP3 ADD MSTORE POP JUMP JUMPDEST PUSH1 0x0 PUSH2 0xF7C PUSH1 0x22 DUP4 PUSH2 0xC31 JUMP JUMPDEST SWAP2 POP PUSH2 0xF87 DUP3 PUSH2 0xF20 JUMP JUMPDEST PUSH1 0x40 DUP3 ADD SWAP1 POP SWAP2 SWAP1 POP JUMP JUMPDEST PUSH1 0x0 PUSH1 0x20 DUP3 ADD SWAP1 POP DUP2 DUP2 SUB PUSH1 0x0 DUP4 ADD MSTORE PUSH2 0xFAB DUP2 PUSH2 0xF6F JUMP JUMPDEST SWAP1 POP SWAP2 SWAP1 POP JUMP JUMPDEST PUSH32 0x4E487B7100000000000000000000000000000000000000000000000000000000 PUSH1 0x0 MSTORE PUSH1 0x11 PUSH1 0x4 MSTORE PUSH1 0x24 PUSH1 0x0 REVERT JUMPDEST PUSH1 0x0 PUSH2 0xFEC DUP3 PUSH2 0x96F JUMP JUMPDEST SWAP2 POP PUSH2 0xFF7 DUP4 PUSH2 0x96F JUMP JUMPDEST SWAP3 POP DUP3 DUP3 SUB SWAP1 POP DUP2 DUP2 GT ISZERO PUSH2 0x100F JUMPI PUSH2 0x100E PUSH2 0xFB2 JUMP JUMPDEST JUMPDEST SWAP3 SWAP2 POP POP JUMP JUMPDEST PUSH32 0x4E487B7100000000000000000000000000000000000000000000000000000000 PUSH1 0x0 MSTORE PUSH1 0x12 PUSH1 0x4 MSTORE PUSH1 0x24 PUSH1 0x0 REVERT JUMPDEST PUSH1 0x0 PUSH2 0x104F DUP3 PUSH2 0x96F JUMP JUMPDEST SWAP2 POP PUSH2 0x105A DUP4 PUSH2 0x96F JUMP JUMPDEST SWAP3 POP DUP3 PUSH2 0x106A JUMPI PUSH2 0x1069 PUSH2 0x1015 JUMP JUMPDEST JUMPDEST DUP3 DUP3 DIV SWAP1 POP SWAP3 SWAP2 POP POP JUMP JUMPDEST PUSH1 0x0 PUSH2 0x1080 DUP3 PUSH2 0x96F JUMP JUMPDEST SWAP2 POP PUSH2 0x108B DUP4 PUSH2 0x96F JUMP JUMPDEST SWAP3 POP DUP3 DUP3 MUL PUSH2 0x1099 DUP2 PUSH2 0x96F JUMP JUMPDEST SWAP2 POP DUP3 DUP3 DIV DUP5 EQ DUP4 ISZERO OR PUSH2 0x10B0 JUMPI PUSH2 0x10AF PUSH2 0xFB2 JUMP JUMPDEST JUMPDEST POP SWAP3 SWAP2 POP POP JUMP JUMPDEST PUSH32 0x576169742054696C6C20436C69666620706572696F6400000000000000000000 PUSH1 0x0 DUP3 ADD MSTORE POP JUMP JUMPDEST PUSH1 0x0 PUSH2 0x10ED PUSH1 0x16 DUP4 PUSH2 0xC31 JUMP JUMPDEST SWAP2 POP PUSH2 0x10F8 DUP3 PUSH2 0x10B7 JUMP JUMPDEST PUSH1 0x20 DUP3 ADD SWAP1 POP SWAP2 SWAP1 POP JUMP JUMPDEST PUSH1 0x0 PUSH1 0x20 DUP3 ADD SWAP1 POP DUP2 DUP2 SUB PUSH1 0x0 DUP4 ADD MSTORE PUSH2 0x111C DUP2 PUSH2 0x10E0 JUMP JUMPDEST SWAP1 POP SWAP2 SWAP1 POP JUMP INVALID LOG2 PUSH5 0x6970667358 0x22 SLT KECCAK256 GASLIMIT 0xD2 0xDF 0x4C PUSH21 0x78D526671CF06EB9B09E617748AB2BA2151B7CB31A REVERT 0xD1 0xDC 0xCA 0x2A PUSH10 0x64736F6C634300081200 CALLER "
				},
				"gasEstimates": {
					"creation": {
						"codeDepositCost": "888200",
						"executionCost": "infinite",
						"totalCost": "infinite"
					},
					"external": {
						"addBeneficiary(address,uint256)": "infinite",
						"cliff()": "2452",
						"duration()": "2430",
						"lockTokens(address,uint256,uint256,uint256,uint256)": "infinite",
						"releasableTokens(address)": "infinite",
						"releaseTokens(address)": "infinite",
						"releasedTokens(address)": "2903",
						"slicePeriod()": "2496",
						"startTime()": "2429",
						"token()": "infinite",
						"totalTokens(address)": "2902"
					}
				},
				"methodIdentifiers": {
					"addBeneficiary(address,uint256)": "96074e70",
					"cliff()": "13d033c0",
					"duration()": "0fb5a6b4",
					"lockTokens(address,uint256,uint256,uint256,uint256)": "3ce301e5",
					"releasableTokens(address)": "c4684e9d",
					"releaseTokens(address)": "87b0be48",
					"releasedTokens(address)": "70ff852b",
					"slicePeriod()": "5afd6eb8",
					"startTime()": "78e97925",
					"token()": "fc0c546a",
					"totalTokens(address)": "cb9199a2"
				}
			},
			"storageLayout": {
				"storage": [
					{
						"astId": 82,
						"contract": "contracts/TokenVesting.sol:TokenVesting",
						"label": "duration",
						"offset": 0,
						"slot": "0",
						"type": "t_uint256"
					},
					{
						"astId": 84,
						"contract": "contracts/TokenVesting.sol:TokenVesting",
						"label": "cliff",
						"offset": 0,
						"slot": "1",
						"type": "t_uint256"
					},
					{
						"astId": 86,
						"contract": "contracts/TokenVesting.sol:TokenVesting",
						"label": "slicePeriod",
						"offset": 0,
						"slot": "2",
						"type": "t_uint256"
					},
					{
						"astId": 88,
						"contract": "contracts/TokenVesting.sol:TokenVesting",
						"label": "startTime",
						"offset": 0,
						"slot": "3",
						"type": "t_uint256"
					},
					{
						"astId": 92,
						"contract": "contracts/TokenVesting.sol:TokenVesting",
						"label": "beneficiaries",
						"offset": 0,
						"slot": "4",
						"type": "t_mapping(t_address,t_uint256)"
					},
					{
						"astId": 96,
						"contract": "contracts/TokenVesting.sol:TokenVesting",
						"label": "totalTokens",
						"offset": 0,
						"slot": "5",
						"type": "t_mapping(t_address,t_uint256)"
					},
					{
						"astId": 100,
						"contract": "contracts/TokenVesting.sol:TokenVesting",
						"label": "releasedTokens",
						"offset": 0,
						"slot": "6",
						"type": "t_mapping(t_address,t_uint256)"
					},
					{
						"astId": 102,
						"contract": "contracts/TokenVesting.sol:TokenVesting",
						"label": "owner",
						"offset": 0,
						"slot": "7",
						"type": "t_address"
					},
					{
						"astId": 105,
						"contract": "contracts/TokenVesting.sol:TokenVesting",
						"label": "token",
						"offset": 0,
						"slot": "8",
						"type": "t_contract(IERC20)77"
					}
				],
				"types": {
					"t_address": {
						"encoding": "inplace",
						"label": "address",
						"numberOfBytes": "20"
					},
					"t_contract(IERC20)77": {
						"encoding": "inplace",
						"label": "contract IERC20",
						"numberOfBytes": "20"
					},
					"t_mapping(t_address,t_uint256)": {
						"encoding": "mapping",
						"key": "t_address",
						"label": "mapping(address => uint256)",
						"numberOfBytes": "32",
						"value": "t_uint256"
					},
					"t_uint256": {
						"encoding": "inplace",
						"label": "uint256",
						"numberOfBytes": "32"
					}
				}
			},
			"userdoc": {
				"kind": "user",
				"methods": {},
				"version": 1
			}
		}
	}
}