{
	"contracts/Vesting.sol": {
		"Vesting": {
			"abi": [
				{
					"inputs": [
						{
							"internalType": "address[]",
							"name": "_beneficiaries",
							"type": "address[]"
						},
						{
							"internalType": "uint256",
							"name": "_slicePeriod",
							"type": "uint256"
						},
						{
							"internalType": "uint256",
							"name": "_cliff",
							"type": "uint256"
						},
						{
							"internalType": "uint256",
							"name": "_duration",
							"type": "uint256"
						},
						{
							"internalType": "address",
							"name": "_token",
							"type": "address"
						},
						{
							"internalType": "uint256",
							"name": "_startTime",
							"type": "uint256"
						}
					],
					"stateMutability": "nonpayable",
					"type": "constructor"
				},
				{
					"inputs": [
						{
							"internalType": "address",
							"name": "_newBeneficiary",
							"type": "address"
						},
						{
							"internalType": "uint256",
							"name": "_tokensToLock",
							"type": "uint256"
						}
					],
					"name": "addBeneificiary",
					"outputs": [],
					"stateMutability": "nonpayable",
					"type": "function"
				},
				{
					"inputs": [],
					"name": "cliff",
					"outputs": [
						{
							"internalType": "uint256",
							"name": "",
							"type": "uint256"
						}
					],
					"stateMutability": "view",
					"type": "function"
				},
				{
					"inputs": [],
					"name": "duration",
					"outputs": [
						{
							"internalType": "uint256",
							"name": "",
							"type": "uint256"
						}
					],
					"stateMutability": "view",
					"type": "function"
				},
				{
					"inputs": [],
					"name": "getContractBalance",
					"outputs": [
						{
							"internalType": "uint256",
							"name": "",
							"type": "uint256"
						}
					],
					"stateMutability": "view",
					"type": "function"
				},
				{
					"inputs": [
						{
							"internalType": "address",
							"name": "_beneficiary",
							"type": "address"
						}
					],
					"name": "release",
					"outputs": [],
					"stateMutability": "payable",
					"type": "function"
				},
				{
					"inputs": [
						{
							"internalType": "address",
							"name": "_beneficiary",
							"type": "address"
						}
					],
					"name": "showTokenOfBeneficiary",
					"outputs": [
						{
							"internalType": "uint256",
							"name": "",
							"type": "uint256"
						}
					],
					"stateMutability": "view",
					"type": "function"
				},
				{
					"inputs": [],
					"name": "slicePeriod",
					"outputs": [
						{
							"internalType": "uint256",
							"name": "",
							"type": "uint256"
						}
					],
					"stateMutability": "view",
					"type": "function"
				},
				{
					"inputs": [],
					"name": "startTime",
					"outputs": [
						{
							"internalType": "uint256",
							"name": "",
							"type": "uint256"
						}
					],
					"stateMutability": "view",
					"type": "function"
				},
				{
					"inputs": [],
					"name": "token",
					"outputs": [
						{
							"internalType": "contract IERC20",
							"name": "",
							"type": "address"
						}
					],
					"stateMutability": "view",
					"type": "function"
				},
				{
					"inputs": [],
					"name": "tokensReleased",
					"outputs": [
						{
							"internalType": "uint256",
							"name": "",
							"type": "uint256"
						}
					],
					"stateMutability": "view",
					"type": "function"
				},
				{
					"inputs": [
						{
							"internalType": "address",
							"name": "beneficiary",
							"type": "address"
						}
					],
					"name": "vestingTokens",
					"outputs": [
						{
							"internalType": "uint256",
							"name": "",
							"type": "uint256"
						}
					],
					"stateMutability": "view",
					"type": "function"
				}
			],
			"devdoc": {
				"kind": "dev",
				"methods": {},
				"version": 1
			},
			"evm": {
				"assembly": "    /* \"contracts/Vesting.sol\":115:2717  contract Vesting{... */\n  mstore(0x40, 0x80)\n    /* \"contracts/Vesting.sol\":487:876  constructor(address[] memory _beneficiaries, uint _slicePeriod,uint _cliff, uint _duration,address _token ,uint _startTime){  ... */\n  callvalue\n  dup1\n  iszero\n  tag_1\n  jumpi\n  0x00\n  dup1\n  revert\ntag_1:\n  pop\n  mload(0x40)\n  sub(codesize, bytecodeSize)\n  dup1\n  bytecodeSize\n  dup4\n  codecopy\n  dup2\n  dup2\n  add\n  0x40\n  mstore\n  dup2\n  add\n  swap1\n  tag_2\n  swap2\n  swap1\n  tag_3\n  jump\t// in\ntag_2:\n    /* \"contracts/Vesting.sol\":634:646  _slicePeriod */\n  dup5\n    /* \"contracts/Vesting.sol\":622:633  slicePeriod */\n  0x00\n    /* \"contracts/Vesting.sol\":622:646  slicePeriod=_slicePeriod */\n  dup2\n  swap1\n  sstore\n  pop\n    /* \"contracts/Vesting.sol\":673:679  _cliff */\n  dup4\n    /* \"contracts/Vesting.sol\":662:672  _startTime */\n  dup2\n    /* \"contracts/Vesting.sol\":662:679  _startTime+_cliff */\n  tag_6\n  swap2\n  swap1\n  tag_7\n  jump\t// in\ntag_6:\n    /* \"contracts/Vesting.sol\":656:661  cliff */\n  0x01\n    /* \"contracts/Vesting.sol\":656:679  cliff=_startTime+_cliff */\n  dup2\n  swap1\n  sstore\n  pop\n    /* \"contracts/Vesting.sol\":698:707  _duration */\n  dup3\n    /* \"contracts/Vesting.sol\":689:697  duration */\n  0x02\n    /* \"contracts/Vesting.sol\":689:707  duration=_duration */\n  dup2\n  swap1\n  sstore\n  pop\n    /* \"contracts/Vesting.sol\":730:736  _token */\n  dup2\n    /* \"contracts/Vesting.sol\":717:722  token */\n  0x08\n  0x00\n    /* \"contracts/Vesting.sol\":717:737  token=IERC20(_token) */\n  0x0100\n  exp\n  dup2\n  sload\n  dup2\n  0xffffffffffffffffffffffffffffffffffffffff\n  mul\n  not\n  and\n  swap1\n  dup4\n  0xffffffffffffffffffffffffffffffffffffffff\n  and\n  mul\n  or\n  swap1\n  sstore\n  pop\n    /* \"contracts/Vesting.sol\":753:763  msg.sender */\n  caller\n    /* \"contracts/Vesting.sol\":747:752  owner */\n  0x05\n  0x00\n    /* \"contracts/Vesting.sol\":747:763  owner=msg.sender */\n  0x0100\n  exp\n  dup2\n  sload\n  dup2\n  0xffffffffffffffffffffffffffffffffffffffff\n  mul\n  not\n  and\n  swap1\n  dup4\n  0xffffffffffffffffffffffffffffffffffffffff\n  and\n  mul\n  or\n  swap1\n  sstore\n  pop\n    /* \"contracts/Vesting.sol\":783:793  _startTime */\n  dup1\n    /* \"contracts/Vesting.sol\":773:782  startTime */\n  0x04\n    /* \"contracts/Vesting.sol\":773:793  startTime=_startTime */\n  dup2\n  swap1\n  sstore\n  pop\n    /* \"contracts/Vesting.sol\":839:840  0 */\n  0x00\n    /* \"contracts/Vesting.sol\":817:831  _beneficiaries */\n  dup7\n    /* \"contracts/Vesting.sol\":817:838  _beneficiaries.length */\n  mload\n    /* \"contracts/Vesting.sol\":817:840  _beneficiaries.length>0 */\n  gt\n    /* \"contracts/Vesting.sol\":809:869  require(_beneficiaries.length>0,\"No Beneficiaries provided\") */\n  tag_8\n  jumpi\n  mload(0x40)\n  0x08c379a000000000000000000000000000000000000000000000000000000000\n  dup2\n  mstore\n  0x04\n  add\n  tag_9\n  swap1\n  tag_10\n  jump\t// in\ntag_9:\n  mload(0x40)\n  dup1\n  swap2\n  sub\n  swap1\n  revert\ntag_8:\n    /* \"contracts/Vesting.sol\":487:876  constructor(address[] memory _beneficiaries, uint _slicePeriod,uint _cliff, uint _duration,address _token ,uint _startTime){  ... */\n  pop\n  pop\n  pop\n  pop\n  pop\n  pop\n    /* \"contracts/Vesting.sol\":115:2717  contract Vesting{... */\n  jump(tag_11)\n    /* \"#utility.yul\":7:82   */\ntag_12:\n    /* \"#utility.yul\":40:46   */\n  0x00\n    /* \"#utility.yul\":73:75   */\n  0x40\n    /* \"#utility.yul\":67:76   */\n  mload\n    /* \"#utility.yul\":57:76   */\n  swap1\n  pop\n    /* \"#utility.yul\":7:82   */\n  swap1\n  jump\t// out\n    /* \"#utility.yul\":88:205   */\ntag_13:\n    /* \"#utility.yul\":197:198   */\n  0x00\n    /* \"#utility.yul\":194:195   */\n  dup1\n    /* \"#utility.yul\":187:199   */\n  revert\n    /* \"#utility.yul\":211:328   */\ntag_14:\n    /* \"#utility.yul\":320:321   */\n  0x00\n    /* \"#utility.yul\":317:318   */\n  dup1\n    /* \"#utility.yul\":310:322   */\n  revert\n    /* \"#utility.yul\":334:451   */\ntag_15:\n    /* \"#utility.yul\":443:444   */\n  0x00\n    /* \"#utility.yul\":440:441   */\n  dup1\n    /* \"#utility.yul\":433:445   */\n  revert\n    /* \"#utility.yul\":457:559   */\ntag_16:\n    /* \"#utility.yul\":498:504   */\n  0x00\n    /* \"#utility.yul\":549:551   */\n  0x1f\n    /* \"#utility.yul\":545:552   */\n  not\n    /* \"#utility.yul\":540:542   */\n  0x1f\n    /* \"#utility.yul\":533:538   */\n  dup4\n    /* \"#utility.yul\":529:543   */\n  add\n    /* \"#utility.yul\":525:553   */\n  and\n    /* \"#utility.yul\":515:553   */\n  swap1\n  pop\n    /* \"#utility.yul\":457:559   */\n  swap2\n  swap1\n  pop\n  jump\t// out\n    /* \"#utility.yul\":565:745   */\ntag_17:\n    /* \"#utility.yul\":613:690   */\n  0x4e487b7100000000000000000000000000000000000000000000000000000000\n    /* \"#utility.yul\":610:611   */\n  0x00\n    /* \"#utility.yul\":603:691   */\n  mstore\n    /* \"#utility.yul\":710:714   */\n  0x41\n    /* \"#utility.yul\":707:708   */\n  0x04\n    /* \"#utility.yul\":700:715   */\n  mstore\n    /* \"#utility.yul\":734:738   */\n  0x24\n    /* \"#utility.yul\":731:732   */\n  0x00\n    /* \"#utility.yul\":724:739   */\n  revert\n    /* \"#utility.yul\":751:1032   */\ntag_18:\n    /* \"#utility.yul\":834:861   */\n  tag_43\n    /* \"#utility.yul\":856:860   */\n  dup3\n    /* \"#utility.yul\":834:861   */\n  tag_16\n  jump\t// in\ntag_43:\n    /* \"#utility.yul\":826:832   */\n  dup2\n    /* \"#utility.yul\":822:862   */\n  add\n    /* \"#utility.yul\":964:970   */\n  dup2\n    /* \"#utility.yul\":952:962   */\n  dup2\n    /* \"#utility.yul\":949:971   */\n  lt\n    /* \"#utility.yul\":928:946   */\n  0xffffffffffffffff\n    /* \"#utility.yul\":916:926   */\n  dup3\n    /* \"#utility.yul\":913:947   */\n  gt\n    /* \"#utility.yul\":910:972   */\n  or\n    /* \"#utility.yul\":907:995   */\n  iszero\n  tag_44\n  jumpi\n    /* \"#utility.yul\":975:993   */\n  tag_45\n  tag_17\n  jump\t// in\ntag_45:\n    /* \"#utility.yul\":907:995   */\ntag_44:\n    /* \"#utility.yul\":1015:1025   */\n  dup1\n    /* \"#utility.yul\":1011:1013   */\n  0x40\n    /* \"#utility.yul\":1004:1026   */\n  mstore\n    /* \"#utility.yul\":794:1032   */\n  pop\n    /* \"#utility.yul\":751:1032   */\n  pop\n  pop\n  jump\t// out\n    /* \"#utility.yul\":1038:1167   */\ntag_19:\n    /* \"#utility.yul\":1072:1078   */\n  0x00\n    /* \"#utility.yul\":1099:1119   */\n  tag_47\n  tag_12\n  jump\t// in\ntag_47:\n    /* \"#utility.yul\":1089:1119   */\n  swap1\n  pop\n    /* \"#utility.yul\":1128:1161   */\n  tag_48\n    /* \"#utility.yul\":1156:1160   */\n  dup3\n    /* \"#utility.yul\":1148:1154   */\n  dup3\n    /* \"#utility.yul\":1128:1161   */\n  tag_18\n  jump\t// in\ntag_48:\n    /* \"#utility.yul\":1038:1167   */\n  swap2\n  swap1\n  pop\n  jump\t// out\n    /* \"#utility.yul\":1173:1484   */\ntag_20:\n    /* \"#utility.yul\":1250:1254   */\n  0x00\n    /* \"#utility.yul\":1340:1358   */\n  0xffffffffffffffff\n    /* \"#utility.yul\":1332:1338   */\n  dup3\n    /* \"#utility.yul\":1329:1359   */\n  gt\n    /* \"#utility.yul\":1326:1382   */\n  iszero\n  tag_50\n  jumpi\n    /* \"#utility.yul\":1362:1380   */\n  tag_51\n  tag_17\n  jump\t// in\ntag_51:\n    /* \"#utility.yul\":1326:1382   */\ntag_50:\n    /* \"#utility.yul\":1412:1416   */\n  0x20\n    /* \"#utility.yul\":1404:1410   */\n  dup3\n    /* \"#utility.yul\":1400:1417   */\n  mul\n    /* \"#utility.yul\":1392:1417   */\n  swap1\n  pop\n    /* \"#utility.yul\":1472:1476   */\n  0x20\n    /* \"#utility.yul\":1466:1470   */\n  dup2\n    /* \"#utility.yul\":1462:1477   */\n  add\n    /* \"#utility.yul\":1454:1477   */\n  swap1\n  pop\n    /* \"#utility.yul\":1173:1484   */\n  swap2\n  swap1\n  pop\n  jump\t// out\n    /* \"#utility.yul\":1490:1607   */\ntag_21:\n    /* \"#utility.yul\":1599:1600   */\n  0x00\n    /* \"#utility.yul\":1596:1597   */\n  dup1\n    /* \"#utility.yul\":1589:1601   */\n  revert\n    /* \"#utility.yul\":1613:1739   */\ntag_22:\n    /* \"#utility.yul\":1650:1657   */\n  0x00\n    /* \"#utility.yul\":1690:1732   */\n  0xffffffffffffffffffffffffffffffffffffffff\n    /* \"#utility.yul\":1683:1688   */\n  dup3\n    /* \"#utility.yul\":1679:1733   */\n  and\n    /* \"#utility.yul\":1668:1733   */\n  swap1\n  pop\n    /* \"#utility.yul\":1613:1739   */\n  swap2\n  swap1\n  pop\n  jump\t// out\n    /* \"#utility.yul\":1745:1841   */\ntag_23:\n    /* \"#utility.yul\":1782:1789   */\n  0x00\n    /* \"#utility.yul\":1811:1835   */\n  tag_55\n    /* \"#utility.yul\":1829:1834   */\n  dup3\n    /* \"#utility.yul\":1811:1835   */\n  tag_22\n  jump\t// in\ntag_55:\n    /* \"#utility.yul\":1800:1835   */\n  swap1\n  pop\n    /* \"#utility.yul\":1745:1841   */\n  swap2\n  swap1\n  pop\n  jump\t// out\n    /* \"#utility.yul\":1847:1969   */\ntag_24:\n    /* \"#utility.yul\":1920:1944   */\n  tag_57\n    /* \"#utility.yul\":1938:1943   */\n  dup2\n    /* \"#utility.yul\":1920:1944   */\n  tag_23\n  jump\t// in\ntag_57:\n    /* \"#utility.yul\":1913:1918   */\n  dup2\n    /* \"#utility.yul\":1910:1945   */\n  eq\n    /* \"#utility.yul\":1900:1963   */\n  tag_58\n  jumpi\n    /* \"#utility.yul\":1959:1960   */\n  0x00\n    /* \"#utility.yul\":1956:1957   */\n  dup1\n    /* \"#utility.yul\":1949:1961   */\n  revert\n    /* \"#utility.yul\":1900:1963   */\ntag_58:\n    /* \"#utility.yul\":1847:1969   */\n  pop\n  jump\t// out\n    /* \"#utility.yul\":1975:2118   */\ntag_25:\n    /* \"#utility.yul\":2032:2037   */\n  0x00\n    /* \"#utility.yul\":2063:2069   */\n  dup2\n    /* \"#utility.yul\":2057:2070   */\n  mload\n    /* \"#utility.yul\":2048:2070   */\n  swap1\n  pop\n    /* \"#utility.yul\":2079:2112   */\n  tag_60\n    /* \"#utility.yul\":2106:2111   */\n  dup2\n    /* \"#utility.yul\":2079:2112   */\n  tag_24\n  jump\t// in\ntag_60:\n    /* \"#utility.yul\":1975:2118   */\n  swap3\n  swap2\n  pop\n  pop\n  jump\t// out\n    /* \"#utility.yul\":2141:2873   */\ntag_26:\n    /* \"#utility.yul\":2248:2253   */\n  0x00\n    /* \"#utility.yul\":2273:2354   */\n  tag_62\n    /* \"#utility.yul\":2289:2353   */\n  tag_63\n    /* \"#utility.yul\":2346:2352   */\n  dup5\n    /* \"#utility.yul\":2289:2353   */\n  tag_20\n  jump\t// in\ntag_63:\n    /* \"#utility.yul\":2273:2354   */\n  tag_19\n  jump\t// in\ntag_62:\n    /* \"#utility.yul\":2264:2354   */\n  swap1\n  pop\n    /* \"#utility.yul\":2374:2379   */\n  dup1\n    /* \"#utility.yul\":2403:2409   */\n  dup4\n    /* \"#utility.yul\":2396:2401   */\n  dup3\n    /* \"#utility.yul\":2389:2410   */\n  mstore\n    /* \"#utility.yul\":2437:2441   */\n  0x20\n    /* \"#utility.yul\":2430:2435   */\n  dup3\n    /* \"#utility.yul\":2426:2442   */\n  add\n    /* \"#utility.yul\":2419:2442   */\n  swap1\n  pop\n    /* \"#utility.yul\":2490:2494   */\n  0x20\n    /* \"#utility.yul\":2482:2488   */\n  dup5\n    /* \"#utility.yul\":2478:2495   */\n  mul\n    /* \"#utility.yul\":2470:2476   */\n  dup4\n    /* \"#utility.yul\":2466:2496   */\n  add\n    /* \"#utility.yul\":2519:2522   */\n  dup6\n    /* \"#utility.yul\":2511:2517   */\n  dup2\n    /* \"#utility.yul\":2508:2523   */\n  gt\n    /* \"#utility.yul\":2505:2627   */\n  iszero\n  tag_64\n  jumpi\n    /* \"#utility.yul\":2538:2617   */\n  tag_65\n  tag_21\n  jump\t// in\ntag_65:\n    /* \"#utility.yul\":2505:2627   */\ntag_64:\n    /* \"#utility.yul\":2653:2659   */\n  dup4\n    /* \"#utility.yul\":2636:2867   */\ntag_66:\n    /* \"#utility.yul\":2670:2676   */\n  dup2\n    /* \"#utility.yul\":2665:2668   */\n  dup2\n    /* \"#utility.yul\":2662:2677   */\n  lt\n    /* \"#utility.yul\":2636:2867   */\n  iszero\n  tag_68\n  jumpi\n    /* \"#utility.yul\":2745:2748   */\n  dup1\n    /* \"#utility.yul\":2774:2822   */\n  tag_69\n    /* \"#utility.yul\":2818:2821   */\n  dup9\n    /* \"#utility.yul\":2806:2816   */\n  dup3\n    /* \"#utility.yul\":2774:2822   */\n  tag_25\n  jump\t// in\ntag_69:\n    /* \"#utility.yul\":2769:2772   */\n  dup5\n    /* \"#utility.yul\":2762:2823   */\n  mstore\n    /* \"#utility.yul\":2852:2856   */\n  0x20\n    /* \"#utility.yul\":2847:2850   */\n  dup5\n    /* \"#utility.yul\":2843:2857   */\n  add\n    /* \"#utility.yul\":2836:2857   */\n  swap4\n  pop\n    /* \"#utility.yul\":2712:2867   */\n  pop\n    /* \"#utility.yul\":2696:2700   */\n  0x20\n    /* \"#utility.yul\":2691:2694   */\n  dup2\n    /* \"#utility.yul\":2687:2701   */\n  add\n    /* \"#utility.yul\":2680:2701   */\n  swap1\n  pop\n    /* \"#utility.yul\":2636:2867   */\n  jump(tag_66)\ntag_68:\n    /* \"#utility.yul\":2640:2661   */\n  pop\n    /* \"#utility.yul\":2254:2873   */\n  pop\n  pop\n    /* \"#utility.yul\":2141:2873   */\n  swap4\n  swap3\n  pop\n  pop\n  pop\n  jump\t// out\n    /* \"#utility.yul\":2896:3281   */\ntag_27:\n    /* \"#utility.yul\":2978:2983   */\n  0x00\n    /* \"#utility.yul\":3027:3030   */\n  dup3\n    /* \"#utility.yul\":3020:3024   */\n  0x1f\n    /* \"#utility.yul\":3012:3018   */\n  dup4\n    /* \"#utility.yul\":3008:3025   */\n  add\n    /* \"#utility.yul\":3004:3031   */\n  slt\n    /* \"#utility.yul\":2994:3116   */\n  tag_71\n  jumpi\n    /* \"#utility.yul\":3035:3114   */\n  tag_72\n  tag_15\n  jump\t// in\ntag_72:\n    /* \"#utility.yul\":2994:3116   */\ntag_71:\n    /* \"#utility.yul\":3145:3151   */\n  dup2\n    /* \"#utility.yul\":3139:3152   */\n  mload\n    /* \"#utility.yul\":3170:3275   */\n  tag_73\n    /* \"#utility.yul\":3271:3274   */\n  dup5\n    /* \"#utility.yul\":3263:3269   */\n  dup3\n    /* \"#utility.yul\":3256:3260   */\n  0x20\n    /* \"#utility.yul\":3248:3254   */\n  dup7\n    /* \"#utility.yul\":3244:3261   */\n  add\n    /* \"#utility.yul\":3170:3275   */\n  tag_26\n  jump\t// in\ntag_73:\n    /* \"#utility.yul\":3161:3275   */\n  swap2\n  pop\n    /* \"#utility.yul\":2984:3281   */\n  pop\n    /* \"#utility.yul\":2896:3281   */\n  swap3\n  swap2\n  pop\n  pop\n  jump\t// out\n    /* \"#utility.yul\":3287:3364   */\ntag_28:\n    /* \"#utility.yul\":3324:3331   */\n  0x00\n    /* \"#utility.yul\":3353:3358   */\n  dup2\n    /* \"#utility.yul\":3342:3358   */\n  swap1\n  pop\n    /* \"#utility.yul\":3287:3364   */\n  swap2\n  swap1\n  pop\n  jump\t// out\n    /* \"#utility.yul\":3370:3492   */\ntag_29:\n    /* \"#utility.yul\":3443:3467   */\n  tag_76\n    /* \"#utility.yul\":3461:3466   */\n  dup2\n    /* \"#utility.yul\":3443:3467   */\n  tag_28\n  jump\t// in\ntag_76:\n    /* \"#utility.yul\":3436:3441   */\n  dup2\n    /* \"#utility.yul\":3433:3468   */\n  eq\n    /* \"#utility.yul\":3423:3486   */\n  tag_77\n  jumpi\n    /* \"#utility.yul\":3482:3483   */\n  0x00\n    /* \"#utility.yul\":3479:3480   */\n  dup1\n    /* \"#utility.yul\":3472:3484   */\n  revert\n    /* \"#utility.yul\":3423:3486   */\ntag_77:\n    /* \"#utility.yul\":3370:3492   */\n  pop\n  jump\t// out\n    /* \"#utility.yul\":3498:3641   */\ntag_30:\n    /* \"#utility.yul\":3555:3560   */\n  0x00\n    /* \"#utility.yul\":3586:3592   */\n  dup2\n    /* \"#utility.yul\":3580:3593   */\n  mload\n    /* \"#utility.yul\":3571:3593   */\n  swap1\n  pop\n    /* \"#utility.yul\":3602:3635   */\n  tag_79\n    /* \"#utility.yul\":3629:3634   */\n  dup2\n    /* \"#utility.yul\":3602:3635   */\n  tag_29\n  jump\t// in\ntag_79:\n    /* \"#utility.yul\":3498:3641   */\n  swap3\n  swap2\n  pop\n  pop\n  jump\t// out\n    /* \"#utility.yul\":3647:4984   */\ntag_3:\n    /* \"#utility.yul\":3787:3793   */\n  0x00\n    /* \"#utility.yul\":3795:3801   */\n  dup1\n    /* \"#utility.yul\":3803:3809   */\n  0x00\n    /* \"#utility.yul\":3811:3817   */\n  dup1\n    /* \"#utility.yul\":3819:3825   */\n  0x00\n    /* \"#utility.yul\":3827:3833   */\n  dup1\n    /* \"#utility.yul\":3876:3879   */\n  0xc0\n    /* \"#utility.yul\":3864:3873   */\n  dup8\n    /* \"#utility.yul\":3855:3862   */\n  dup10\n    /* \"#utility.yul\":3851:3874   */\n  sub\n    /* \"#utility.yul\":3847:3880   */\n  slt\n    /* \"#utility.yul\":3844:3964   */\n  iszero\n  tag_81\n  jumpi\n    /* \"#utility.yul\":3883:3962   */\n  tag_82\n  tag_13\n  jump\t// in\ntag_82:\n    /* \"#utility.yul\":3844:3964   */\ntag_81:\n    /* \"#utility.yul\":4024:4025   */\n  0x00\n    /* \"#utility.yul\":4013:4022   */\n  dup8\n    /* \"#utility.yul\":4009:4026   */\n  add\n    /* \"#utility.yul\":4003:4027   */\n  mload\n    /* \"#utility.yul\":4054:4072   */\n  0xffffffffffffffff\n    /* \"#utility.yul\":4046:4052   */\n  dup2\n    /* \"#utility.yul\":4043:4073   */\n  gt\n    /* \"#utility.yul\":4040:4157   */\n  iszero\n  tag_83\n  jumpi\n    /* \"#utility.yul\":4076:4155   */\n  tag_84\n  tag_14\n  jump\t// in\ntag_84:\n    /* \"#utility.yul\":4040:4157   */\ntag_83:\n    /* \"#utility.yul\":4181:4270   */\n  tag_85\n    /* \"#utility.yul\":4262:4269   */\n  dup10\n    /* \"#utility.yul\":4253:4259   */\n  dup3\n    /* \"#utility.yul\":4242:4251   */\n  dup11\n    /* \"#utility.yul\":4238:4260   */\n  add\n    /* \"#utility.yul\":4181:4270   */\n  tag_27\n  jump\t// in\ntag_85:\n    /* \"#utility.yul\":4171:4270   */\n  swap7\n  pop\n    /* \"#utility.yul\":3974:4280   */\n  pop\n    /* \"#utility.yul\":4319:4321   */\n  0x20\n    /* \"#utility.yul\":4345:4409   */\n  tag_86\n    /* \"#utility.yul\":4401:4408   */\n  dup10\n    /* \"#utility.yul\":4392:4398   */\n  dup3\n    /* \"#utility.yul\":4381:4390   */\n  dup11\n    /* \"#utility.yul\":4377:4399   */\n  add\n    /* \"#utility.yul\":4345:4409   */\n  tag_30\n  jump\t// in\ntag_86:\n    /* \"#utility.yul\":4335:4409   */\n  swap6\n  pop\n    /* \"#utility.yul\":4290:4419   */\n  pop\n    /* \"#utility.yul\":4458:4460   */\n  0x40\n    /* \"#utility.yul\":4484:4548   */\n  tag_87\n    /* \"#utility.yul\":4540:4547   */\n  dup10\n    /* \"#utility.yul\":4531:4537   */\n  dup3\n    /* \"#utility.yul\":4520:4529   */\n  dup11\n    /* \"#utility.yul\":4516:4538   */\n  add\n    /* \"#utility.yul\":4484:4548   */\n  tag_30\n  jump\t// in\ntag_87:\n    /* \"#utility.yul\":4474:4548   */\n  swap5\n  pop\n    /* \"#utility.yul\":4429:4558   */\n  pop\n    /* \"#utility.yul\":4597:4599   */\n  0x60\n    /* \"#utility.yul\":4623:4687   */\n  tag_88\n    /* \"#utility.yul\":4679:4686   */\n  dup10\n    /* \"#utility.yul\":4670:4676   */\n  dup3\n    /* \"#utility.yul\":4659:4668   */\n  dup11\n    /* \"#utility.yul\":4655:4677   */\n  add\n    /* \"#utility.yul\":4623:4687   */\n  tag_30\n  jump\t// in\ntag_88:\n    /* \"#utility.yul\":4613:4687   */\n  swap4\n  pop\n    /* \"#utility.yul\":4568:4697   */\n  pop\n    /* \"#utility.yul\":4736:4739   */\n  0x80\n    /* \"#utility.yul\":4763:4827   */\n  tag_89\n    /* \"#utility.yul\":4819:4826   */\n  dup10\n    /* \"#utility.yul\":4810:4816   */\n  dup3\n    /* \"#utility.yul\":4799:4808   */\n  dup11\n    /* \"#utility.yul\":4795:4817   */\n  add\n    /* \"#utility.yul\":4763:4827   */\n  tag_25\n  jump\t// in\ntag_89:\n    /* \"#utility.yul\":4753:4827   */\n  swap3\n  pop\n    /* \"#utility.yul\":4707:4837   */\n  pop\n    /* \"#utility.yul\":4876:4879   */\n  0xa0\n    /* \"#utility.yul\":4903:4967   */\n  tag_90\n    /* \"#utility.yul\":4959:4966   */\n  dup10\n    /* \"#utility.yul\":4950:4956   */\n  dup3\n    /* \"#utility.yul\":4939:4948   */\n  dup11\n    /* \"#utility.yul\":4935:4957   */\n  add\n    /* \"#utility.yul\":4903:4967   */\n  tag_30\n  jump\t// in\ntag_90:\n    /* \"#utility.yul\":4893:4967   */\n  swap2\n  pop\n    /* \"#utility.yul\":4847:4977   */\n  pop\n    /* \"#utility.yul\":3647:4984   */\n  swap3\n  swap6\n  pop\n  swap3\n  swap6\n  pop\n  swap3\n  swap6\n  jump\t// out\n    /* \"#utility.yul\":4990:5170   */\ntag_31:\n    /* \"#utility.yul\":5038:5115   */\n  0x4e487b7100000000000000000000000000000000000000000000000000000000\n    /* \"#utility.yul\":5035:5036   */\n  0x00\n    /* \"#utility.yul\":5028:5116   */\n  mstore\n    /* \"#utility.yul\":5135:5139   */\n  0x11\n    /* \"#utility.yul\":5132:5133   */\n  0x04\n    /* \"#utility.yul\":5125:5140   */\n  mstore\n    /* \"#utility.yul\":5159:5163   */\n  0x24\n    /* \"#utility.yul\":5156:5157   */\n  0x00\n    /* \"#utility.yul\":5149:5164   */\n  revert\n    /* \"#utility.yul\":5176:5367   */\ntag_7:\n    /* \"#utility.yul\":5216:5219   */\n  0x00\n    /* \"#utility.yul\":5235:5255   */\n  tag_93\n    /* \"#utility.yul\":5253:5254   */\n  dup3\n    /* \"#utility.yul\":5235:5255   */\n  tag_28\n  jump\t// in\ntag_93:\n    /* \"#utility.yul\":5230:5255   */\n  swap2\n  pop\n    /* \"#utility.yul\":5269:5289   */\n  tag_94\n    /* \"#utility.yul\":5287:5288   */\n  dup4\n    /* \"#utility.yul\":5269:5289   */\n  tag_28\n  jump\t// in\ntag_94:\n    /* \"#utility.yul\":5264:5289   */\n  swap3\n  pop\n    /* \"#utility.yul\":5312:5313   */\n  dup3\n    /* \"#utility.yul\":5309:5310   */\n  dup3\n    /* \"#utility.yul\":5305:5314   */\n  add\n    /* \"#utility.yul\":5298:5314   */\n  swap1\n  pop\n    /* \"#utility.yul\":5333:5336   */\n  dup1\n    /* \"#utility.yul\":5330:5331   */\n  dup3\n    /* \"#utility.yul\":5327:5337   */\n  gt\n    /* \"#utility.yul\":5324:5360   */\n  iszero\n  tag_95\n  jumpi\n    /* \"#utility.yul\":5340:5358   */\n  tag_96\n  tag_31\n  jump\t// in\ntag_96:\n    /* \"#utility.yul\":5324:5360   */\ntag_95:\n    /* \"#utility.yul\":5176:5367   */\n  swap3\n  swap2\n  pop\n  pop\n  jump\t// out\n    /* \"#utility.yul\":5373:5542   */\ntag_32:\n    /* \"#utility.yul\":5457:5468   */\n  0x00\n    /* \"#utility.yul\":5491:5497   */\n  dup3\n    /* \"#utility.yul\":5486:5489   */\n  dup3\n    /* \"#utility.yul\":5479:5498   */\n  mstore\n    /* \"#utility.yul\":5531:5535   */\n  0x20\n    /* \"#utility.yul\":5526:5529   */\n  dup3\n    /* \"#utility.yul\":5522:5536   */\n  add\n    /* \"#utility.yul\":5507:5536   */\n  swap1\n  pop\n    /* \"#utility.yul\":5373:5542   */\n  swap3\n  swap2\n  pop\n  pop\n  jump\t// out\n    /* \"#utility.yul\":5548:5723   */\ntag_33:\n    /* \"#utility.yul\":5688:5715   */\n  0x4e6f2042656e656669636961726965732070726f766964656400000000000000\n    /* \"#utility.yul\":5684:5685   */\n  0x00\n    /* \"#utility.yul\":5676:5682   */\n  dup3\n    /* \"#utility.yul\":5672:5686   */\n  add\n    /* \"#utility.yul\":5665:5716   */\n  mstore\n    /* \"#utility.yul\":5548:5723   */\n  pop\n  jump\t// out\n    /* \"#utility.yul\":5729:6095   */\ntag_34:\n    /* \"#utility.yul\":5871:5874   */\n  0x00\n    /* \"#utility.yul\":5892:5959   */\n  tag_100\n    /* \"#utility.yul\":5956:5958   */\n  0x19\n    /* \"#utility.yul\":5951:5954   */\n  dup4\n    /* \"#utility.yul\":5892:5959   */\n  tag_32\n  jump\t// in\ntag_100:\n    /* \"#utility.yul\":5885:5959   */\n  swap2\n  pop\n    /* \"#utility.yul\":5968:6061   */\n  tag_101\n    /* \"#utility.yul\":6057:6060   */\n  dup3\n    /* \"#utility.yul\":5968:6061   */\n  tag_33\n  jump\t// in\ntag_101:\n    /* \"#utility.yul\":6086:6088   */\n  0x20\n    /* \"#utility.yul\":6081:6084   */\n  dup3\n    /* \"#utility.yul\":6077:6089   */\n  add\n    /* \"#utility.yul\":6070:6089   */\n  swap1\n  pop\n    /* \"#utility.yul\":5729:6095   */\n  swap2\n  swap1\n  pop\n  jump\t// out\n    /* \"#utility.yul\":6101:6520   */\ntag_10:\n    /* \"#utility.yul\":6267:6271   */\n  0x00\n    /* \"#utility.yul\":6305:6307   */\n  0x20\n    /* \"#utility.yul\":6294:6303   */\n  dup3\n    /* \"#utility.yul\":6290:6308   */\n  add\n    /* \"#utility.yul\":6282:6308   */\n  swap1\n  pop\n    /* \"#utility.yul\":6354:6363   */\n  dup2\n    /* \"#utility.yul\":6348:6352   */\n  dup2\n    /* \"#utility.yul\":6344:6364   */\n  sub\n    /* \"#utility.yul\":6340:6341   */\n  0x00\n    /* \"#utility.yul\":6329:6338   */\n  dup4\n    /* \"#utility.yul\":6325:6342   */\n  add\n    /* \"#utility.yul\":6318:6365   */\n  mstore\n    /* \"#utility.yul\":6382:6513   */\n  tag_103\n    /* \"#utility.yul\":6508:6512   */\n  dup2\n    /* \"#utility.yul\":6382:6513   */\n  tag_34\n  jump\t// in\ntag_103:\n    /* \"#utility.yul\":6374:6513   */\n  swap1\n  pop\n    /* \"#utility.yul\":6101:6520   */\n  swap2\n  swap1\n  pop\n  jump\t// out\n    /* \"contracts/Vesting.sol\":115:2717  contract Vesting{... */\ntag_11:\n  dataSize(sub_0)\n  dup1\n  dataOffset(sub_0)\n  0x00\n  codecopy\n  0x00\n  return\nstop\n\nsub_0: assembly {\n        /* \"contracts/Vesting.sol\":115:2717  contract Vesting{... */\n      mstore(0x40, 0x80)\n      jumpi(tag_1, lt(calldatasize, 0x04))\n      shr(0xe0, calldataload(0x00))\n      dup1\n      0x5afd6eb8\n      gt\n      tag_13\n      jumpi\n      dup1\n      0x5afd6eb8\n      eq\n      tag_7\n      jumpi\n      dup1\n      0x6f9fb98a\n      eq\n      tag_8\n      jumpi\n      dup1\n      0x763b6d9e\n      eq\n      tag_9\n      jumpi\n      dup1\n      0x78e97925\n      eq\n      tag_10\n      jumpi\n      dup1\n      0x8a9e0876\n      eq\n      tag_11\n      jumpi\n      dup1\n      0xfc0c546a\n      eq\n      tag_12\n      jumpi\n      jump(tag_1)\n    tag_13:\n      dup1\n      0x0cfc297e\n      eq\n      tag_2\n      jumpi\n      dup1\n      0x0fb5a6b4\n      eq\n      tag_3\n      jumpi\n      dup1\n      0x13d033c0\n      eq\n      tag_4\n      jumpi\n      dup1\n      0x19165587\n      eq\n      tag_5\n      jumpi\n      dup1\n      0x2a947fd2\n      eq\n      tag_6\n      jumpi\n    tag_1:\n      0x00\n      dup1\n      revert\n        /* \"contracts/Vesting.sol\":1385:1514  function showTokenOfBeneficiary(address _beneficiary) public view returns (uint){... */\n    tag_2:\n      callvalue\n      dup1\n      iszero\n      tag_14\n      jumpi\n      0x00\n      dup1\n      revert\n    tag_14:\n      pop\n      tag_15\n      0x04\n      dup1\n      calldatasize\n      sub\n      dup2\n      add\n      swap1\n      tag_16\n      swap2\n      swap1\n      tag_17\n      jump\t// in\n    tag_16:\n      tag_18\n      jump\t// in\n    tag_15:\n      mload(0x40)\n      tag_19\n      swap2\n      swap1\n      tag_20\n      jump\t// in\n    tag_19:\n      mload(0x40)\n      dup1\n      swap2\n      sub\n      swap1\n      return\n        /* \"contracts/Vesting.sol\":271:291  uint public duration */\n    tag_3:\n      callvalue\n      dup1\n      iszero\n      tag_21\n      jumpi\n      0x00\n      dup1\n      revert\n    tag_21:\n      pop\n      tag_22\n      tag_23\n      jump\t// in\n    tag_22:\n      mload(0x40)\n      tag_24\n      swap2\n      swap1\n      tag_20\n      jump\t// in\n    tag_24:\n      mload(0x40)\n      dup1\n      swap2\n      sub\n      swap1\n      return\n        /* \"contracts/Vesting.sol\":248:265  uint public cliff */\n    tag_4:\n      callvalue\n      dup1\n      iszero\n      tag_25\n      jumpi\n      0x00\n      dup1\n      revert\n    tag_25:\n      pop\n      tag_26\n      tag_27\n      jump\t// in\n    tag_26:\n      mload(0x40)\n      tag_28\n      swap2\n      swap1\n      tag_20\n      jump\t// in\n    tag_28:\n      mload(0x40)\n      dup1\n      swap2\n      sub\n      swap1\n      return\n        /* \"contracts/Vesting.sol\":1516:1948  function release(address _beneficiary) public payable {... */\n    tag_5:\n      tag_29\n      0x04\n      dup1\n      calldatasize\n      sub\n      dup2\n      add\n      swap1\n      tag_30\n      swap2\n      swap1\n      tag_17\n      jump\t// in\n    tag_30:\n      tag_31\n      jump\t// in\n    tag_29:\n      stop\n        /* \"contracts/Vesting.sol\":1242:1381  function addBeneificiary(address _newBeneficiary,uint _tokensToLock) public isOwner{... */\n    tag_6:\n      callvalue\n      dup1\n      iszero\n      tag_32\n      jumpi\n      0x00\n      dup1\n      revert\n    tag_32:\n      pop\n      tag_33\n      0x04\n      dup1\n      calldatasize\n      sub\n      dup2\n      add\n      swap1\n      tag_34\n      swap2\n      swap1\n      tag_35\n      jump\t// in\n    tag_34:\n      tag_36\n      jump\t// in\n    tag_33:\n      stop\n        /* \"contracts/Vesting.sol\":219:242  uint public slicePeriod */\n    tag_7:\n      callvalue\n      dup1\n      iszero\n      tag_37\n      jumpi\n      0x00\n      dup1\n      revert\n    tag_37:\n      pop\n      tag_38\n      tag_39\n      jump\t// in\n    tag_38:\n      mload(0x40)\n      tag_40\n      swap2\n      swap1\n      tag_20\n      jump\t// in\n    tag_40:\n      mload(0x40)\n      dup1\n      swap2\n      sub\n      swap1\n      return\n        /* \"contracts/Vesting.sol\":2621:2715  function getContractBalance() public view returns (uint) {... */\n    tag_8:\n      callvalue\n      dup1\n      iszero\n      tag_41\n      jumpi\n      0x00\n      dup1\n      revert\n    tag_41:\n      pop\n      tag_42\n      tag_43\n      jump\t// in\n    tag_42:\n      mload(0x40)\n      tag_44\n      swap2\n      swap1\n      tag_20\n      jump\t// in\n    tag_44:\n      mload(0x40)\n      dup1\n      swap2\n      sub\n      swap1\n      return\n        /* \"contracts/Vesting.sol\":1950:2618  function vestingTokens(address beneficiary) public view returns (uint) {... */\n    tag_9:\n      callvalue\n      dup1\n      iszero\n      tag_45\n      jumpi\n      0x00\n      dup1\n      revert\n    tag_45:\n      pop\n      tag_46\n      0x04\n      dup1\n      calldatasize\n      sub\n      dup2\n      add\n      swap1\n      tag_47\n      swap2\n      swap1\n      tag_17\n      jump\t// in\n    tag_47:\n      tag_48\n      jump\t// in\n    tag_46:\n      mload(0x40)\n      tag_49\n      swap2\n      swap1\n      tag_20\n      jump\t// in\n    tag_49:\n      mload(0x40)\n      dup1\n      swap2\n      sub\n      swap1\n      return\n        /* \"contracts/Vesting.sol\":329:350  uint public startTime */\n    tag_10:\n      callvalue\n      dup1\n      iszero\n      tag_50\n      jumpi\n      0x00\n      dup1\n      revert\n    tag_50:\n      pop\n      tag_51\n      tag_52\n      jump\t// in\n    tag_51:\n      mload(0x40)\n      tag_53\n      swap2\n      swap1\n      tag_20\n      jump\t// in\n    tag_53:\n      mload(0x40)\n      dup1\n      swap2\n      sub\n      swap1\n      return\n        /* \"contracts/Vesting.sol\":297:323  uint public tokensReleased */\n    tag_11:\n      callvalue\n      dup1\n      iszero\n      tag_54\n      jumpi\n      0x00\n      dup1\n      revert\n    tag_54:\n      pop\n      tag_55\n      tag_56\n      jump\t// in\n    tag_55:\n      mload(0x40)\n      tag_57\n      swap2\n      swap1\n      tag_20\n      jump\t// in\n    tag_57:\n      mload(0x40)\n      dup1\n      swap2\n      sub\n      swap1\n      return\n        /* \"contracts/Vesting.sol\":462:481  IERC20 public token */\n    tag_12:\n      callvalue\n      dup1\n      iszero\n      tag_58\n      jumpi\n      0x00\n      dup1\n      revert\n    tag_58:\n      pop\n      tag_59\n      tag_60\n      jump\t// in\n    tag_59:\n      mload(0x40)\n      tag_61\n      swap2\n      swap1\n      tag_62\n      jump\t// in\n    tag_61:\n      mload(0x40)\n      dup1\n      swap2\n      sub\n      swap1\n      return\n        /* \"contracts/Vesting.sol\":1385:1514  function showTokenOfBeneficiary(address _beneficiary) public view returns (uint){... */\n    tag_18:\n        /* \"contracts/Vesting.sol\":1460:1464  uint */\n      0x00\n        /* \"contracts/Vesting.sol\":1481:1494  beneficiaries */\n      0x06\n        /* \"contracts/Vesting.sol\":1481:1508  beneficiaries[_beneficiary] */\n      0x00\n        /* \"contracts/Vesting.sol\":1495:1507  _beneficiary */\n      dup4\n        /* \"contracts/Vesting.sol\":1481:1508  beneficiaries[_beneficiary] */\n      0xffffffffffffffffffffffffffffffffffffffff\n      and\n      0xffffffffffffffffffffffffffffffffffffffff\n      and\n      dup2\n      mstore\n      0x20\n      add\n      swap1\n      dup2\n      mstore\n      0x20\n      add\n      0x00\n      keccak256\n      sload\n        /* \"contracts/Vesting.sol\":1474:1508  return beneficiaries[_beneficiary] */\n      swap1\n      pop\n        /* \"contracts/Vesting.sol\":1385:1514  function showTokenOfBeneficiary(address _beneficiary) public view returns (uint){... */\n      swap2\n      swap1\n      pop\n      jump\t// out\n        /* \"contracts/Vesting.sol\":271:291  uint public duration */\n    tag_23:\n      sload(0x02)\n      dup2\n      jump\t// out\n        /* \"contracts/Vesting.sol\":248:265  uint public cliff */\n    tag_27:\n      sload(0x01)\n      dup2\n      jump\t// out\n        /* \"contracts/Vesting.sol\":1516:1948  function release(address _beneficiary) public payable {... */\n    tag_31:\n        /* \"contracts/Vesting.sol\":1576:1587  uint amount */\n      0x00\n        /* \"contracts/Vesting.sol\":1590:1617  vestingTokens(_beneficiary) */\n      tag_65\n        /* \"contracts/Vesting.sol\":1604:1616  _beneficiary */\n      dup3\n        /* \"contracts/Vesting.sol\":1590:1603  vestingTokens */\n      tag_48\n        /* \"contracts/Vesting.sol\":1590:1617  vestingTokens(_beneficiary) */\n      jump\t// in\n    tag_65:\n        /* \"contracts/Vesting.sol\":1576:1617  uint amount = vestingTokens(_beneficiary) */\n      swap1\n      pop\n        /* \"contracts/Vesting.sol\":1639:1640  0 */\n      0x00\n        /* \"contracts/Vesting.sol\":1631:1637  amount */\n      dup2\n        /* \"contracts/Vesting.sol\":1631:1640  amount >0 */\n      gt\n        /* \"contracts/Vesting.sol\":1623:1666  require(amount >0 , \"No tokens to release\") */\n      tag_66\n      jumpi\n      mload(0x40)\n      0x08c379a000000000000000000000000000000000000000000000000000000000\n      dup2\n      mstore\n      0x04\n      add\n      tag_67\n      swap1\n      tag_68\n      jump\t// in\n    tag_67:\n      mload(0x40)\n      dup1\n      swap2\n      sub\n      swap1\n      revert\n    tag_66:\n        /* \"contracts/Vesting.sol\":1810:1816  amount */\n      dup1\n        /* \"contracts/Vesting.sol\":1776:1792  noOfvestedTokens */\n      0x07\n        /* \"contracts/Vesting.sol\":1776:1806  noOfvestedTokens[_beneficiary] */\n      0x00\n        /* \"contracts/Vesting.sol\":1793:1805  _beneficiary */\n      dup5\n        /* \"contracts/Vesting.sol\":1776:1806  noOfvestedTokens[_beneficiary] */\n      0xffffffffffffffffffffffffffffffffffffffff\n      and\n      0xffffffffffffffffffffffffffffffffffffffff\n      and\n      dup2\n      mstore\n      0x20\n      add\n      swap1\n      dup2\n      mstore\n      0x20\n      add\n      0x00\n      keccak256\n      0x00\n        /* \"contracts/Vesting.sol\":1776:1816  noOfvestedTokens[_beneficiary] += amount */\n      dup3\n      dup3\n      sload\n      tag_69\n      swap2\n      swap1\n      tag_70\n      jump\t// in\n    tag_69:\n      swap3\n      pop\n      pop\n      dup2\n      swap1\n      sstore\n      pop\n        /* \"contracts/Vesting.sol\":1840:1846  amount */\n      dup1\n        /* \"contracts/Vesting.sol\":1822:1836  tokensReleased */\n      0x03\n      0x00\n        /* \"contracts/Vesting.sol\":1822:1846  tokensReleased += amount */\n      dup3\n      dup3\n      sload\n      tag_71\n      swap2\n      swap1\n      tag_70\n      jump\t// in\n    tag_71:\n      swap3\n      pop\n      pop\n      dup2\n      swap1\n      sstore\n      pop\n        /* \"contracts/Vesting.sol\":1852:1857  token */\n      0x08\n      0x00\n      swap1\n      sload\n      swap1\n      0x0100\n      exp\n      swap1\n      div\n      0xffffffffffffffffffffffffffffffffffffffff\n      and\n        /* \"contracts/Vesting.sol\":1852:1865  token.approve */\n      0xffffffffffffffffffffffffffffffffffffffff\n      and\n      0x095ea7b3\n        /* \"contracts/Vesting.sol\":1866:1876  msg.sender */\n      caller\n        /* \"contracts/Vesting.sol\":1878:1884  amount */\n      dup4\n        /* \"contracts/Vesting.sol\":1852:1885  token.approve(msg.sender, amount) */\n      mload(0x40)\n      dup4\n      0xffffffff\n      and\n      0xe0\n      shl\n      dup2\n      mstore\n      0x04\n      add\n      tag_72\n      swap3\n      swap2\n      swap1\n      tag_73\n      jump\t// in\n    tag_72:\n      0x20\n      mload(0x40)\n      dup1\n      dup4\n      sub\n      dup2\n      0x00\n      dup8\n      gas\n      call\n      iszero\n      dup1\n      iszero\n      tag_75\n      jumpi\n      returndatasize\n      0x00\n      dup1\n      returndatacopy\n      revert(0x00, returndatasize)\n    tag_75:\n      pop\n      pop\n      pop\n      pop\n      mload(0x40)\n      returndatasize\n      not(0x1f)\n      0x1f\n      dup3\n      add\n      and\n      dup3\n      add\n      dup1\n      0x40\n      mstore\n      pop\n      dup2\n      add\n      swap1\n      tag_76\n      swap2\n      swap1\n      tag_77\n      jump\t// in\n    tag_76:\n      pop\n        /* \"contracts/Vesting.sol\":1891:1896  token */\n      0x08\n      0x00\n      swap1\n      sload\n      swap1\n      0x0100\n      exp\n      swap1\n      div\n      0xffffffffffffffffffffffffffffffffffffffff\n      and\n        /* \"contracts/Vesting.sol\":1891:1909  token.transferFrom */\n      0xffffffffffffffffffffffffffffffffffffffff\n      and\n      0x23b872dd\n        /* \"contracts/Vesting.sol\":1910:1922  _beneficiary */\n      dup4\n        /* \"contracts/Vesting.sol\":1924:1936  _beneficiary */\n      dup5\n        /* \"contracts/Vesting.sol\":1938:1944  amount */\n      dup5\n        /* \"contracts/Vesting.sol\":1891:1945  token.transferFrom(_beneficiary, _beneficiary, amount) */\n      mload(0x40)\n      dup5\n      0xffffffff\n      and\n      0xe0\n      shl\n      dup2\n      mstore\n      0x04\n      add\n      tag_78\n      swap4\n      swap3\n      swap2\n      swap1\n      tag_79\n      jump\t// in\n    tag_78:\n      0x20\n      mload(0x40)\n      dup1\n      dup4\n      sub\n      dup2\n      0x00\n      dup8\n      gas\n      call\n      iszero\n      dup1\n      iszero\n      tag_81\n      jumpi\n      returndatasize\n      0x00\n      dup1\n      returndatacopy\n      revert(0x00, returndatasize)\n    tag_81:\n      pop\n      pop\n      pop\n      pop\n      mload(0x40)\n      returndatasize\n      not(0x1f)\n      0x1f\n      dup3\n      add\n      and\n      dup3\n      add\n      dup1\n      0x40\n      mstore\n      pop\n      dup2\n      add\n      swap1\n      tag_82\n      swap2\n      swap1\n      tag_77\n      jump\t// in\n    tag_82:\n      pop\n        /* \"contracts/Vesting.sol\":1570:1948  {... */\n      pop\n        /* \"contracts/Vesting.sol\":1516:1948  function release(address _beneficiary) public payable {... */\n      pop\n      jump\t// out\n        /* \"contracts/Vesting.sol\":1242:1381  function addBeneificiary(address _newBeneficiary,uint _tokensToLock) public isOwner{... */\n    tag_36:\n        /* \"contracts/Vesting.sol\":1362:1375  _tokensToLock */\n      dup1\n        /* \"contracts/Vesting.sol\":1331:1344  beneficiaries */\n      0x06\n        /* \"contracts/Vesting.sol\":1331:1361  beneficiaries[_newBeneficiary] */\n      0x00\n        /* \"contracts/Vesting.sol\":1345:1360  _newBeneficiary */\n      dup5\n        /* \"contracts/Vesting.sol\":1331:1361  beneficiaries[_newBeneficiary] */\n      0xffffffffffffffffffffffffffffffffffffffff\n      and\n      0xffffffffffffffffffffffffffffffffffffffff\n      and\n      dup2\n      mstore\n      0x20\n      add\n      swap1\n      dup2\n      mstore\n      0x20\n      add\n      0x00\n      keccak256\n        /* \"contracts/Vesting.sol\":1331:1375  beneficiaries[_newBeneficiary]=_tokensToLock */\n      dup2\n      swap1\n      sstore\n      pop\n        /* \"contracts/Vesting.sol\":936:946  msg.sender */\n      caller\n        /* \"contracts/Vesting.sol\":929:946  owner==msg.sender */\n      0xffffffffffffffffffffffffffffffffffffffff\n      and\n        /* \"contracts/Vesting.sol\":929:934  owner */\n      0x05\n      0x00\n      swap1\n      sload\n      swap1\n      0x0100\n      exp\n      swap1\n      div\n      0xffffffffffffffffffffffffffffffffffffffff\n      and\n        /* \"contracts/Vesting.sol\":929:946  owner==msg.sender */\n      0xffffffffffffffffffffffffffffffffffffffff\n      and\n      eq\n        /* \"contracts/Vesting.sol\":921:968  require(owner==msg.sender,\"Only owner allowed\") */\n      tag_85\n      jumpi\n      mload(0x40)\n      0x08c379a000000000000000000000000000000000000000000000000000000000\n      dup2\n      mstore\n      0x04\n      add\n      tag_86\n      swap1\n      tag_87\n      jump\t// in\n    tag_86:\n      mload(0x40)\n      dup1\n      swap2\n      sub\n      swap1\n      revert\n    tag_85:\n        /* \"contracts/Vesting.sol\":1242:1381  function addBeneificiary(address _newBeneficiary,uint _tokensToLock) public isOwner{... */\n      pop\n      pop\n      jump\t// out\n        /* \"contracts/Vesting.sol\":219:242  uint public slicePeriod */\n    tag_39:\n      sload(0x00)\n      dup2\n      jump\t// out\n        /* \"contracts/Vesting.sol\":2621:2715  function getContractBalance() public view returns (uint) {... */\n    tag_43:\n        /* \"contracts/Vesting.sol\":2672:2676  uint */\n      0x00\n        /* \"contracts/Vesting.sol\":2691:2712  address(this).balance */\n      selfbalance\n        /* \"contracts/Vesting.sol\":2684:2712  return address(this).balance */\n      swap1\n      pop\n        /* \"contracts/Vesting.sol\":2621:2715  function getContractBalance() public view returns (uint) {... */\n      swap1\n      jump\t// out\n        /* \"contracts/Vesting.sol\":1950:2618  function vestingTokens(address beneficiary) public view returns (uint) {... */\n    tag_48:\n        /* \"contracts/Vesting.sol\":2015:2019  uint */\n      0x00\n        /* \"contracts/Vesting.sol\":2046:2051  cliff */\n      sload(0x01)\n        /* \"contracts/Vesting.sol\":2030:2045  block.timestamp */\n      timestamp\n        /* \"contracts/Vesting.sol\":2030:2051  block.timestamp<cliff */\n      lt\n        /* \"contracts/Vesting.sol\":2027:2616  if(block.timestamp<cliff){... */\n      iszero\n      tag_90\n      jumpi\n        /* \"contracts/Vesting.sol\":2069:2070  0 */\n      0x00\n        /* \"contracts/Vesting.sol\":2062:2070  return 0 */\n      swap1\n      pop\n      jump(tag_89)\n        /* \"contracts/Vesting.sol\":2027:2616  if(block.timestamp<cliff){... */\n    tag_90:\n        /* \"contracts/Vesting.sol\":2097:2116  uint timeSinceStart */\n      0x00\n        /* \"contracts/Vesting.sol\":2137:2146  startTime */\n      sload(0x04)\n        /* \"contracts/Vesting.sol\":2119:2134  block.timestamp */\n      timestamp\n        /* \"contracts/Vesting.sol\":2119:2146  block.timestamp - startTime */\n      tag_92\n      swap2\n      swap1\n      tag_93\n      jump\t// in\n    tag_92:\n        /* \"contracts/Vesting.sol\":2097:2146  uint timeSinceStart = block.timestamp - startTime */\n      swap1\n      pop\n        /* \"contracts/Vesting.sol\":2156:2182  uint noOfPeriodsSinceStart */\n      0x00\n        /* \"contracts/Vesting.sol\":2202:2213  slicePeriod */\n      dup1\n      sload\n        /* \"contracts/Vesting.sol\":2185:2199  timeSinceStart */\n      dup3\n        /* \"contracts/Vesting.sol\":2185:2213  timeSinceStart / slicePeriod */\n      tag_94\n      swap2\n      swap1\n      tag_95\n      jump\t// in\n    tag_94:\n        /* \"contracts/Vesting.sol\":2156:2213  uint noOfPeriodsSinceStart = timeSinceStart / slicePeriod */\n      swap1\n      pop\n        /* \"contracts/Vesting.sol\":2223:2240  uint totalPeriods */\n      0x00\n        /* \"contracts/Vesting.sol\":2254:2265  slicePeriod */\n      dup1\n      sload\n        /* \"contracts/Vesting.sol\":2243:2251  duration */\n      sload(0x02)\n        /* \"contracts/Vesting.sol\":2243:2265  duration / slicePeriod */\n      tag_96\n      swap2\n      swap1\n      tag_95\n      jump\t// in\n    tag_96:\n        /* \"contracts/Vesting.sol\":2223:2265  uint totalPeriods = duration / slicePeriod */\n      swap1\n      pop\n        /* \"contracts/Vesting.sol\":2304:2316  totalPeriods */\n      dup1\n        /* \"contracts/Vesting.sol\":2279:2300  noOfPeriodsSinceStart */\n      dup3\n        /* \"contracts/Vesting.sol\":2279:2316  noOfPeriodsSinceStart >= totalPeriods */\n      lt\n        /* \"contracts/Vesting.sol\":2275:2610  if (noOfPeriodsSinceStart >= totalPeriods) {... */\n      tag_97\n      jumpi\n        /* \"contracts/Vesting.sol\":2339:2352  beneficiaries */\n      0x06\n        /* \"contracts/Vesting.sol\":2339:2365  beneficiaries[beneficiary] */\n      0x00\n        /* \"contracts/Vesting.sol\":2353:2364  beneficiary */\n      dup7\n        /* \"contracts/Vesting.sol\":2339:2365  beneficiaries[beneficiary] */\n      0xffffffffffffffffffffffffffffffffffffffff\n      and\n      0xffffffffffffffffffffffffffffffffffffffff\n      and\n      dup2\n      mstore\n      0x20\n      add\n      swap1\n      dup2\n      mstore\n      0x20\n      add\n      0x00\n      keccak256\n      sload\n        /* \"contracts/Vesting.sol\":2332:2365  return beneficiaries[beneficiary] */\n      swap4\n      pop\n      pop\n      pop\n      pop\n      jump(tag_89)\n        /* \"contracts/Vesting.sol\":2275:2610  if (noOfPeriodsSinceStart >= totalPeriods) {... */\n    tag_97:\n        /* \"contracts/Vesting.sol\":2405:2433  uint tokensVestedInOnePeriod */\n      0x00\n        /* \"contracts/Vesting.sol\":2465:2477  totalPeriods */\n      dup2\n        /* \"contracts/Vesting.sol\":2436:2449  beneficiaries */\n      0x06\n        /* \"contracts/Vesting.sol\":2436:2462  beneficiaries[beneficiary] */\n      0x00\n        /* \"contracts/Vesting.sol\":2450:2461  beneficiary */\n      dup9\n        /* \"contracts/Vesting.sol\":2436:2462  beneficiaries[beneficiary] */\n      0xffffffffffffffffffffffffffffffffffffffff\n      and\n      0xffffffffffffffffffffffffffffffffffffffff\n      and\n      dup2\n      mstore\n      0x20\n      add\n      swap1\n      dup2\n      mstore\n      0x20\n      add\n      0x00\n      keccak256\n      sload\n        /* \"contracts/Vesting.sol\":2436:2477  beneficiaries[beneficiary] / totalPeriods */\n      tag_99\n      swap2\n      swap1\n      tag_95\n      jump\t// in\n    tag_99:\n        /* \"contracts/Vesting.sol\":2405:2477  uint tokensVestedInOnePeriod = beneficiaries[beneficiary] / totalPeriods */\n      swap1\n      pop\n        /* \"contracts/Vesting.sol\":2491:2512  uint tokensToBeVested */\n      0x00\n        /* \"contracts/Vesting.sol\":2541:2562  noOfPeriodsSinceStart */\n      dup4\n        /* \"contracts/Vesting.sol\":2515:2538  tokensVestedInOnePeriod */\n      dup3\n        /* \"contracts/Vesting.sol\":2515:2562  tokensVestedInOnePeriod * noOfPeriodsSinceStart */\n      tag_100\n      swap2\n      swap1\n      tag_101\n      jump\t// in\n    tag_100:\n        /* \"contracts/Vesting.sol\":2491:2562  uint tokensToBeVested = tokensVestedInOnePeriod * noOfPeriodsSinceStart */\n      swap1\n      pop\n        /* \"contracts/Vesting.sol\":2583:2599  tokensToBeVested */\n      dup1\n        /* \"contracts/Vesting.sol\":2576:2599  return tokensToBeVested */\n      swap6\n      pop\n      pop\n      pop\n      pop\n      pop\n      pop\n        /* \"contracts/Vesting.sol\":1950:2618  function vestingTokens(address beneficiary) public view returns (uint) {... */\n    tag_89:\n      swap2\n      swap1\n      pop\n      jump\t// out\n        /* \"contracts/Vesting.sol\":329:350  uint public startTime */\n    tag_52:\n      sload(0x04)\n      dup2\n      jump\t// out\n        /* \"contracts/Vesting.sol\":297:323  uint public tokensReleased */\n    tag_56:\n      sload(0x03)\n      dup2\n      jump\t// out\n        /* \"contracts/Vesting.sol\":462:481  IERC20 public token */\n    tag_60:\n      0x08\n      0x00\n      swap1\n      sload\n      swap1\n      0x0100\n      exp\n      swap1\n      div\n      0xffffffffffffffffffffffffffffffffffffffff\n      and\n      dup2\n      jump\t// out\n        /* \"#utility.yul\":88:205   */\n    tag_103:\n        /* \"#utility.yul\":197:198   */\n      0x00\n        /* \"#utility.yul\":194:195   */\n      dup1\n        /* \"#utility.yul\":187:199   */\n      revert\n        /* \"#utility.yul\":334:460   */\n    tag_105:\n        /* \"#utility.yul\":371:378   */\n      0x00\n        /* \"#utility.yul\":411:453   */\n      0xffffffffffffffffffffffffffffffffffffffff\n        /* \"#utility.yul\":404:409   */\n      dup3\n        /* \"#utility.yul\":400:454   */\n      and\n        /* \"#utility.yul\":389:454   */\n      swap1\n      pop\n        /* \"#utility.yul\":334:460   */\n      swap2\n      swap1\n      pop\n      jump\t// out\n        /* \"#utility.yul\":466:562   */\n    tag_106:\n        /* \"#utility.yul\":503:510   */\n      0x00\n        /* \"#utility.yul\":532:556   */\n      tag_135\n        /* \"#utility.yul\":550:555   */\n      dup3\n        /* \"#utility.yul\":532:556   */\n      tag_105\n      jump\t// in\n    tag_135:\n        /* \"#utility.yul\":521:556   */\n      swap1\n      pop\n        /* \"#utility.yul\":466:562   */\n      swap2\n      swap1\n      pop\n      jump\t// out\n        /* \"#utility.yul\":568:690   */\n    tag_107:\n        /* \"#utility.yul\":641:665   */\n      tag_137\n        /* \"#utility.yul\":659:664   */\n      dup2\n        /* \"#utility.yul\":641:665   */\n      tag_106\n      jump\t// in\n    tag_137:\n        /* \"#utility.yul\":634:639   */\n      dup2\n        /* \"#utility.yul\":631:666   */\n      eq\n        /* \"#utility.yul\":621:684   */\n      tag_138\n      jumpi\n        /* \"#utility.yul\":680:681   */\n      0x00\n        /* \"#utility.yul\":677:678   */\n      dup1\n        /* \"#utility.yul\":670:682   */\n      revert\n        /* \"#utility.yul\":621:684   */\n    tag_138:\n        /* \"#utility.yul\":568:690   */\n      pop\n      jump\t// out\n        /* \"#utility.yul\":696:835   */\n    tag_108:\n        /* \"#utility.yul\":742:747   */\n      0x00\n        /* \"#utility.yul\":780:786   */\n      dup2\n        /* \"#utility.yul\":767:787   */\n      calldataload\n        /* \"#utility.yul\":758:787   */\n      swap1\n      pop\n        /* \"#utility.yul\":796:829   */\n      tag_140\n        /* \"#utility.yul\":823:828   */\n      dup2\n        /* \"#utility.yul\":796:829   */\n      tag_107\n      jump\t// in\n    tag_140:\n        /* \"#utility.yul\":696:835   */\n      swap3\n      swap2\n      pop\n      pop\n      jump\t// out\n        /* \"#utility.yul\":841:1170   */\n    tag_17:\n        /* \"#utility.yul\":900:906   */\n      0x00\n        /* \"#utility.yul\":949:951   */\n      0x20\n        /* \"#utility.yul\":937:946   */\n      dup3\n        /* \"#utility.yul\":928:935   */\n      dup5\n        /* \"#utility.yul\":924:947   */\n      sub\n        /* \"#utility.yul\":920:952   */\n      slt\n        /* \"#utility.yul\":917:1036   */\n      iszero\n      tag_142\n      jumpi\n        /* \"#utility.yul\":955:1034   */\n      tag_143\n      tag_103\n      jump\t// in\n    tag_143:\n        /* \"#utility.yul\":917:1036   */\n    tag_142:\n        /* \"#utility.yul\":1075:1076   */\n      0x00\n        /* \"#utility.yul\":1100:1153   */\n      tag_144\n        /* \"#utility.yul\":1145:1152   */\n      dup5\n        /* \"#utility.yul\":1136:1142   */\n      dup3\n        /* \"#utility.yul\":1125:1134   */\n      dup6\n        /* \"#utility.yul\":1121:1143   */\n      add\n        /* \"#utility.yul\":1100:1153   */\n      tag_108\n      jump\t// in\n    tag_144:\n        /* \"#utility.yul\":1090:1153   */\n      swap2\n      pop\n        /* \"#utility.yul\":1046:1163   */\n      pop\n        /* \"#utility.yul\":841:1170   */\n      swap3\n      swap2\n      pop\n      pop\n      jump\t// out\n        /* \"#utility.yul\":1176:1253   */\n    tag_109:\n        /* \"#utility.yul\":1213:1220   */\n      0x00\n        /* \"#utility.yul\":1242:1247   */\n      dup2\n        /* \"#utility.yul\":1231:1247   */\n      swap1\n      pop\n        /* \"#utility.yul\":1176:1253   */\n      swap2\n      swap1\n      pop\n      jump\t// out\n        /* \"#utility.yul\":1259:1377   */\n    tag_110:\n        /* \"#utility.yul\":1346:1370   */\n      tag_147\n        /* \"#utility.yul\":1364:1369   */\n      dup2\n        /* \"#utility.yul\":1346:1370   */\n      tag_109\n      jump\t// in\n    tag_147:\n        /* \"#utility.yul\":1341:1344   */\n      dup3\n        /* \"#utility.yul\":1334:1371   */\n      mstore\n        /* \"#utility.yul\":1259:1377   */\n      pop\n      pop\n      jump\t// out\n        /* \"#utility.yul\":1383:1605   */\n    tag_20:\n        /* \"#utility.yul\":1476:1480   */\n      0x00\n        /* \"#utility.yul\":1514:1516   */\n      0x20\n        /* \"#utility.yul\":1503:1512   */\n      dup3\n        /* \"#utility.yul\":1499:1517   */\n      add\n        /* \"#utility.yul\":1491:1517   */\n      swap1\n      pop\n        /* \"#utility.yul\":1527:1598   */\n      tag_149\n        /* \"#utility.yul\":1595:1596   */\n      0x00\n        /* \"#utility.yul\":1584:1593   */\n      dup4\n        /* \"#utility.yul\":1580:1597   */\n      add\n        /* \"#utility.yul\":1571:1577   */\n      dup5\n        /* \"#utility.yul\":1527:1598   */\n      tag_110\n      jump\t// in\n    tag_149:\n        /* \"#utility.yul\":1383:1605   */\n      swap3\n      swap2\n      pop\n      pop\n      jump\t// out\n        /* \"#utility.yul\":1611:1733   */\n    tag_111:\n        /* \"#utility.yul\":1684:1708   */\n      tag_151\n        /* \"#utility.yul\":1702:1707   */\n      dup2\n        /* \"#utility.yul\":1684:1708   */\n      tag_109\n      jump\t// in\n    tag_151:\n        /* \"#utility.yul\":1677:1682   */\n      dup2\n        /* \"#utility.yul\":1674:1709   */\n      eq\n        /* \"#utility.yul\":1664:1727   */\n      tag_152\n      jumpi\n        /* \"#utility.yul\":1723:1724   */\n      0x00\n        /* \"#utility.yul\":1720:1721   */\n      dup1\n        /* \"#utility.yul\":1713:1725   */\n      revert\n        /* \"#utility.yul\":1664:1727   */\n    tag_152:\n        /* \"#utility.yul\":1611:1733   */\n      pop\n      jump\t// out\n        /* \"#utility.yul\":1739:1878   */\n    tag_112:\n        /* \"#utility.yul\":1785:1790   */\n      0x00\n        /* \"#utility.yul\":1823:1829   */\n      dup2\n        /* \"#utility.yul\":1810:1830   */\n      calldataload\n        /* \"#utility.yul\":1801:1830   */\n      swap1\n      pop\n        /* \"#utility.yul\":1839:1872   */\n      tag_154\n        /* \"#utility.yul\":1866:1871   */\n      dup2\n        /* \"#utility.yul\":1839:1872   */\n      tag_111\n      jump\t// in\n    tag_154:\n        /* \"#utility.yul\":1739:1878   */\n      swap3\n      swap2\n      pop\n      pop\n      jump\t// out\n        /* \"#utility.yul\":1884:2358   */\n    tag_35:\n        /* \"#utility.yul\":1952:1958   */\n      0x00\n        /* \"#utility.yul\":1960:1966   */\n      dup1\n        /* \"#utility.yul\":2009:2011   */\n      0x40\n        /* \"#utility.yul\":1997:2006   */\n      dup4\n        /* \"#utility.yul\":1988:1995   */\n      dup6\n        /* \"#utility.yul\":1984:2007   */\n      sub\n        /* \"#utility.yul\":1980:2012   */\n      slt\n        /* \"#utility.yul\":1977:2096   */\n      iszero\n      tag_156\n      jumpi\n        /* \"#utility.yul\":2015:2094   */\n      tag_157\n      tag_103\n      jump\t// in\n    tag_157:\n        /* \"#utility.yul\":1977:2096   */\n    tag_156:\n        /* \"#utility.yul\":2135:2136   */\n      0x00\n        /* \"#utility.yul\":2160:2213   */\n      tag_158\n        /* \"#utility.yul\":2205:2212   */\n      dup6\n        /* \"#utility.yul\":2196:2202   */\n      dup3\n        /* \"#utility.yul\":2185:2194   */\n      dup7\n        /* \"#utility.yul\":2181:2203   */\n      add\n        /* \"#utility.yul\":2160:2213   */\n      tag_108\n      jump\t// in\n    tag_158:\n        /* \"#utility.yul\":2150:2213   */\n      swap3\n      pop\n        /* \"#utility.yul\":2106:2223   */\n      pop\n        /* \"#utility.yul\":2262:2264   */\n      0x20\n        /* \"#utility.yul\":2288:2341   */\n      tag_159\n        /* \"#utility.yul\":2333:2340   */\n      dup6\n        /* \"#utility.yul\":2324:2330   */\n      dup3\n        /* \"#utility.yul\":2313:2322   */\n      dup7\n        /* \"#utility.yul\":2309:2331   */\n      add\n        /* \"#utility.yul\":2288:2341   */\n      tag_112\n      jump\t// in\n    tag_159:\n        /* \"#utility.yul\":2278:2341   */\n      swap2\n      pop\n        /* \"#utility.yul\":2233:2351   */\n      pop\n        /* \"#utility.yul\":1884:2358   */\n      swap3\n      pop\n      swap3\n      swap1\n      pop\n      jump\t// out\n        /* \"#utility.yul\":2364:2424   */\n    tag_113:\n        /* \"#utility.yul\":2392:2395   */\n      0x00\n        /* \"#utility.yul\":2413:2418   */\n      dup2\n        /* \"#utility.yul\":2406:2418   */\n      swap1\n      pop\n        /* \"#utility.yul\":2364:2424   */\n      swap2\n      swap1\n      pop\n      jump\t// out\n        /* \"#utility.yul\":2430:2572   */\n    tag_114:\n        /* \"#utility.yul\":2480:2489   */\n      0x00\n        /* \"#utility.yul\":2513:2566   */\n      tag_162\n        /* \"#utility.yul\":2531:2565   */\n      tag_163\n        /* \"#utility.yul\":2540:2564   */\n      tag_164\n        /* \"#utility.yul\":2558:2563   */\n      dup5\n        /* \"#utility.yul\":2540:2564   */\n      tag_105\n      jump\t// in\n    tag_164:\n        /* \"#utility.yul\":2531:2565   */\n      tag_113\n      jump\t// in\n    tag_163:\n        /* \"#utility.yul\":2513:2566   */\n      tag_105\n      jump\t// in\n    tag_162:\n        /* \"#utility.yul\":2500:2566   */\n      swap1\n      pop\n        /* \"#utility.yul\":2430:2572   */\n      swap2\n      swap1\n      pop\n      jump\t// out\n        /* \"#utility.yul\":2578:2704   */\n    tag_115:\n        /* \"#utility.yul\":2628:2637   */\n      0x00\n        /* \"#utility.yul\":2661:2698   */\n      tag_166\n        /* \"#utility.yul\":2692:2697   */\n      dup3\n        /* \"#utility.yul\":2661:2698   */\n      tag_114\n      jump\t// in\n    tag_166:\n        /* \"#utility.yul\":2648:2698   */\n      swap1\n      pop\n        /* \"#utility.yul\":2578:2704   */\n      swap2\n      swap1\n      pop\n      jump\t// out\n        /* \"#utility.yul\":2710:2849   */\n    tag_116:\n        /* \"#utility.yul\":2773:2782   */\n      0x00\n        /* \"#utility.yul\":2806:2843   */\n      tag_168\n        /* \"#utility.yul\":2837:2842   */\n      dup3\n        /* \"#utility.yul\":2806:2843   */\n      tag_115\n      jump\t// in\n    tag_168:\n        /* \"#utility.yul\":2793:2843   */\n      swap1\n      pop\n        /* \"#utility.yul\":2710:2849   */\n      swap2\n      swap1\n      pop\n      jump\t// out\n        /* \"#utility.yul\":2855:3012   */\n    tag_117:\n        /* \"#utility.yul\":2955:3005   */\n      tag_170\n        /* \"#utility.yul\":2999:3004   */\n      dup2\n        /* \"#utility.yul\":2955:3005   */\n      tag_116\n      jump\t// in\n    tag_170:\n        /* \"#utility.yul\":2950:2953   */\n      dup3\n        /* \"#utility.yul\":2943:3006   */\n      mstore\n        /* \"#utility.yul\":2855:3012   */\n      pop\n      pop\n      jump\t// out\n        /* \"#utility.yul\":3018:3266   */\n    tag_62:\n        /* \"#utility.yul\":3124:3128   */\n      0x00\n        /* \"#utility.yul\":3162:3164   */\n      0x20\n        /* \"#utility.yul\":3151:3160   */\n      dup3\n        /* \"#utility.yul\":3147:3165   */\n      add\n        /* \"#utility.yul\":3139:3165   */\n      swap1\n      pop\n        /* \"#utility.yul\":3175:3259   */\n      tag_172\n        /* \"#utility.yul\":3256:3257   */\n      0x00\n        /* \"#utility.yul\":3245:3254   */\n      dup4\n        /* \"#utility.yul\":3241:3258   */\n      add\n        /* \"#utility.yul\":3232:3238   */\n      dup5\n        /* \"#utility.yul\":3175:3259   */\n      tag_117\n      jump\t// in\n    tag_172:\n        /* \"#utility.yul\":3018:3266   */\n      swap3\n      swap2\n      pop\n      pop\n      jump\t// out\n        /* \"#utility.yul\":3272:3441   */\n    tag_118:\n        /* \"#utility.yul\":3356:3367   */\n      0x00\n        /* \"#utility.yul\":3390:3396   */\n      dup3\n        /* \"#utility.yul\":3385:3388   */\n      dup3\n        /* \"#utility.yul\":3378:3397   */\n      mstore\n        /* \"#utility.yul\":3430:3434   */\n      0x20\n        /* \"#utility.yul\":3425:3428   */\n      dup3\n        /* \"#utility.yul\":3421:3435   */\n      add\n        /* \"#utility.yul\":3406:3435   */\n      swap1\n      pop\n        /* \"#utility.yul\":3272:3441   */\n      swap3\n      swap2\n      pop\n      pop\n      jump\t// out\n        /* \"#utility.yul\":3447:3617   */\n    tag_119:\n        /* \"#utility.yul\":3587:3609   */\n      0x4e6f20746f6b656e7320746f2072656c65617365000000000000000000000000\n        /* \"#utility.yul\":3583:3584   */\n      0x00\n        /* \"#utility.yul\":3575:3581   */\n      dup3\n        /* \"#utility.yul\":3571:3585   */\n      add\n        /* \"#utility.yul\":3564:3610   */\n      mstore\n        /* \"#utility.yul\":3447:3617   */\n      pop\n      jump\t// out\n        /* \"#utility.yul\":3623:3989   */\n    tag_120:\n        /* \"#utility.yul\":3765:3768   */\n      0x00\n        /* \"#utility.yul\":3786:3853   */\n      tag_176\n        /* \"#utility.yul\":3850:3852   */\n      0x14\n        /* \"#utility.yul\":3845:3848   */\n      dup4\n        /* \"#utility.yul\":3786:3853   */\n      tag_118\n      jump\t// in\n    tag_176:\n        /* \"#utility.yul\":3779:3853   */\n      swap2\n      pop\n        /* \"#utility.yul\":3862:3955   */\n      tag_177\n        /* \"#utility.yul\":3951:3954   */\n      dup3\n        /* \"#utility.yul\":3862:3955   */\n      tag_119\n      jump\t// in\n    tag_177:\n        /* \"#utility.yul\":3980:3982   */\n      0x20\n        /* \"#utility.yul\":3975:3978   */\n      dup3\n        /* \"#utility.yul\":3971:3983   */\n      add\n        /* \"#utility.yul\":3964:3983   */\n      swap1\n      pop\n        /* \"#utility.yul\":3623:3989   */\n      swap2\n      swap1\n      pop\n      jump\t// out\n        /* \"#utility.yul\":3995:4414   */\n    tag_68:\n        /* \"#utility.yul\":4161:4165   */\n      0x00\n        /* \"#utility.yul\":4199:4201   */\n      0x20\n        /* \"#utility.yul\":4188:4197   */\n      dup3\n        /* \"#utility.yul\":4184:4202   */\n      add\n        /* \"#utility.yul\":4176:4202   */\n      swap1\n      pop\n        /* \"#utility.yul\":4248:4257   */\n      dup2\n        /* \"#utility.yul\":4242:4246   */\n      dup2\n        /* \"#utility.yul\":4238:4258   */\n      sub\n        /* \"#utility.yul\":4234:4235   */\n      0x00\n        /* \"#utility.yul\":4223:4232   */\n      dup4\n        /* \"#utility.yul\":4219:4236   */\n      add\n        /* \"#utility.yul\":4212:4259   */\n      mstore\n        /* \"#utility.yul\":4276:4407   */\n      tag_179\n        /* \"#utility.yul\":4402:4406   */\n      dup2\n        /* \"#utility.yul\":4276:4407   */\n      tag_120\n      jump\t// in\n    tag_179:\n        /* \"#utility.yul\":4268:4407   */\n      swap1\n      pop\n        /* \"#utility.yul\":3995:4414   */\n      swap2\n      swap1\n      pop\n      jump\t// out\n        /* \"#utility.yul\":4420:4600   */\n    tag_121:\n        /* \"#utility.yul\":4468:4545   */\n      0x4e487b7100000000000000000000000000000000000000000000000000000000\n        /* \"#utility.yul\":4465:4466   */\n      0x00\n        /* \"#utility.yul\":4458:4546   */\n      mstore\n        /* \"#utility.yul\":4565:4569   */\n      0x11\n        /* \"#utility.yul\":4562:4563   */\n      0x04\n        /* \"#utility.yul\":4555:4570   */\n      mstore\n        /* \"#utility.yul\":4589:4593   */\n      0x24\n        /* \"#utility.yul\":4586:4587   */\n      0x00\n        /* \"#utility.yul\":4579:4594   */\n      revert\n        /* \"#utility.yul\":4606:4797   */\n    tag_70:\n        /* \"#utility.yul\":4646:4649   */\n      0x00\n        /* \"#utility.yul\":4665:4685   */\n      tag_182\n        /* \"#utility.yul\":4683:4684   */\n      dup3\n        /* \"#utility.yul\":4665:4685   */\n      tag_109\n      jump\t// in\n    tag_182:\n        /* \"#utility.yul\":4660:4685   */\n      swap2\n      pop\n        /* \"#utility.yul\":4699:4719   */\n      tag_183\n        /* \"#utility.yul\":4717:4718   */\n      dup4\n        /* \"#utility.yul\":4699:4719   */\n      tag_109\n      jump\t// in\n    tag_183:\n        /* \"#utility.yul\":4694:4719   */\n      swap3\n      pop\n        /* \"#utility.yul\":4742:4743   */\n      dup3\n        /* \"#utility.yul\":4739:4740   */\n      dup3\n        /* \"#utility.yul\":4735:4744   */\n      add\n        /* \"#utility.yul\":4728:4744   */\n      swap1\n      pop\n        /* \"#utility.yul\":4763:4766   */\n      dup1\n        /* \"#utility.yul\":4760:4761   */\n      dup3\n        /* \"#utility.yul\":4757:4767   */\n      gt\n        /* \"#utility.yul\":4754:4790   */\n      iszero\n      tag_184\n      jumpi\n        /* \"#utility.yul\":4770:4788   */\n      tag_185\n      tag_121\n      jump\t// in\n    tag_185:\n        /* \"#utility.yul\":4754:4790   */\n    tag_184:\n        /* \"#utility.yul\":4606:4797   */\n      swap3\n      swap2\n      pop\n      pop\n      jump\t// out\n        /* \"#utility.yul\":4803:4921   */\n    tag_122:\n        /* \"#utility.yul\":4890:4914   */\n      tag_187\n        /* \"#utility.yul\":4908:4913   */\n      dup2\n        /* \"#utility.yul\":4890:4914   */\n      tag_106\n      jump\t// in\n    tag_187:\n        /* \"#utility.yul\":4885:4888   */\n      dup3\n        /* \"#utility.yul\":4878:4915   */\n      mstore\n        /* \"#utility.yul\":4803:4921   */\n      pop\n      pop\n      jump\t// out\n        /* \"#utility.yul\":4927:5259   */\n    tag_73:\n        /* \"#utility.yul\":5048:5052   */\n      0x00\n        /* \"#utility.yul\":5086:5088   */\n      0x40\n        /* \"#utility.yul\":5075:5084   */\n      dup3\n        /* \"#utility.yul\":5071:5089   */\n      add\n        /* \"#utility.yul\":5063:5089   */\n      swap1\n      pop\n        /* \"#utility.yul\":5099:5170   */\n      tag_189\n        /* \"#utility.yul\":5167:5168   */\n      0x00\n        /* \"#utility.yul\":5156:5165   */\n      dup4\n        /* \"#utility.yul\":5152:5169   */\n      add\n        /* \"#utility.yul\":5143:5149   */\n      dup6\n        /* \"#utility.yul\":5099:5170   */\n      tag_122\n      jump\t// in\n    tag_189:\n        /* \"#utility.yul\":5180:5252   */\n      tag_190\n        /* \"#utility.yul\":5248:5250   */\n      0x20\n        /* \"#utility.yul\":5237:5246   */\n      dup4\n        /* \"#utility.yul\":5233:5251   */\n      add\n        /* \"#utility.yul\":5224:5230   */\n      dup5\n        /* \"#utility.yul\":5180:5252   */\n      tag_110\n      jump\t// in\n    tag_190:\n        /* \"#utility.yul\":4927:5259   */\n      swap4\n      swap3\n      pop\n      pop\n      pop\n      jump\t// out\n        /* \"#utility.yul\":5265:5355   */\n    tag_123:\n        /* \"#utility.yul\":5299:5306   */\n      0x00\n        /* \"#utility.yul\":5342:5347   */\n      dup2\n        /* \"#utility.yul\":5335:5348   */\n      iszero\n        /* \"#utility.yul\":5328:5349   */\n      iszero\n        /* \"#utility.yul\":5317:5349   */\n      swap1\n      pop\n        /* \"#utility.yul\":5265:5355   */\n      swap2\n      swap1\n      pop\n      jump\t// out\n        /* \"#utility.yul\":5361:5477   */\n    tag_124:\n        /* \"#utility.yul\":5431:5452   */\n      tag_193\n        /* \"#utility.yul\":5446:5451   */\n      dup2\n        /* \"#utility.yul\":5431:5452   */\n      tag_123\n      jump\t// in\n    tag_193:\n        /* \"#utility.yul\":5424:5429   */\n      dup2\n        /* \"#utility.yul\":5421:5453   */\n      eq\n        /* \"#utility.yul\":5411:5471   */\n      tag_194\n      jumpi\n        /* \"#utility.yul\":5467:5468   */\n      0x00\n        /* \"#utility.yul\":5464:5465   */\n      dup1\n        /* \"#utility.yul\":5457:5469   */\n      revert\n        /* \"#utility.yul\":5411:5471   */\n    tag_194:\n        /* \"#utility.yul\":5361:5477   */\n      pop\n      jump\t// out\n        /* \"#utility.yul\":5483:5620   */\n    tag_125:\n        /* \"#utility.yul\":5537:5542   */\n      0x00\n        /* \"#utility.yul\":5568:5574   */\n      dup2\n        /* \"#utility.yul\":5562:5575   */\n      mload\n        /* \"#utility.yul\":5553:5575   */\n      swap1\n      pop\n        /* \"#utility.yul\":5584:5614   */\n      tag_196\n        /* \"#utility.yul\":5608:5613   */\n      dup2\n        /* \"#utility.yul\":5584:5614   */\n      tag_124\n      jump\t// in\n    tag_196:\n        /* \"#utility.yul\":5483:5620   */\n      swap3\n      swap2\n      pop\n      pop\n      jump\t// out\n        /* \"#utility.yul\":5626:5971   */\n    tag_77:\n        /* \"#utility.yul\":5693:5699   */\n      0x00\n        /* \"#utility.yul\":5742:5744   */\n      0x20\n        /* \"#utility.yul\":5730:5739   */\n      dup3\n        /* \"#utility.yul\":5721:5728   */\n      dup5\n        /* \"#utility.yul\":5717:5740   */\n      sub\n        /* \"#utility.yul\":5713:5745   */\n      slt\n        /* \"#utility.yul\":5710:5829   */\n      iszero\n      tag_198\n      jumpi\n        /* \"#utility.yul\":5748:5827   */\n      tag_199\n      tag_103\n      jump\t// in\n    tag_199:\n        /* \"#utility.yul\":5710:5829   */\n    tag_198:\n        /* \"#utility.yul\":5868:5869   */\n      0x00\n        /* \"#utility.yul\":5893:5954   */\n      tag_200\n        /* \"#utility.yul\":5946:5953   */\n      dup5\n        /* \"#utility.yul\":5937:5943   */\n      dup3\n        /* \"#utility.yul\":5926:5935   */\n      dup6\n        /* \"#utility.yul\":5922:5944   */\n      add\n        /* \"#utility.yul\":5893:5954   */\n      tag_125\n      jump\t// in\n    tag_200:\n        /* \"#utility.yul\":5883:5954   */\n      swap2\n      pop\n        /* \"#utility.yul\":5839:5964   */\n      pop\n        /* \"#utility.yul\":5626:5971   */\n      swap3\n      swap2\n      pop\n      pop\n      jump\t// out\n        /* \"#utility.yul\":5977:6419   */\n    tag_79:\n        /* \"#utility.yul\":6126:6130   */\n      0x00\n        /* \"#utility.yul\":6164:6166   */\n      0x60\n        /* \"#utility.yul\":6153:6162   */\n      dup3\n        /* \"#utility.yul\":6149:6167   */\n      add\n        /* \"#utility.yul\":6141:6167   */\n      swap1\n      pop\n        /* \"#utility.yul\":6177:6248   */\n      tag_202\n        /* \"#utility.yul\":6245:6246   */\n      0x00\n        /* \"#utility.yul\":6234:6243   */\n      dup4\n        /* \"#utility.yul\":6230:6247   */\n      add\n        /* \"#utility.yul\":6221:6227   */\n      dup7\n        /* \"#utility.yul\":6177:6248   */\n      tag_122\n      jump\t// in\n    tag_202:\n        /* \"#utility.yul\":6258:6330   */\n      tag_203\n        /* \"#utility.yul\":6326:6328   */\n      0x20\n        /* \"#utility.yul\":6315:6324   */\n      dup4\n        /* \"#utility.yul\":6311:6329   */\n      add\n        /* \"#utility.yul\":6302:6308   */\n      dup6\n        /* \"#utility.yul\":6258:6330   */\n      tag_122\n      jump\t// in\n    tag_203:\n        /* \"#utility.yul\":6340:6412   */\n      tag_204\n        /* \"#utility.yul\":6408:6410   */\n      0x40\n        /* \"#utility.yul\":6397:6406   */\n      dup4\n        /* \"#utility.yul\":6393:6411   */\n      add\n        /* \"#utility.yul\":6384:6390   */\n      dup5\n        /* \"#utility.yul\":6340:6412   */\n      tag_110\n      jump\t// in\n    tag_204:\n        /* \"#utility.yul\":5977:6419   */\n      swap5\n      swap4\n      pop\n      pop\n      pop\n      pop\n      jump\t// out\n        /* \"#utility.yul\":6425:6593   */\n    tag_126:\n        /* \"#utility.yul\":6565:6585   */\n      0x4f6e6c79206f776e657220616c6c6f7765640000000000000000000000000000\n        /* \"#utility.yul\":6561:6562   */\n      0x00\n        /* \"#utility.yul\":6553:6559   */\n      dup3\n        /* \"#utility.yul\":6549:6563   */\n      add\n        /* \"#utility.yul\":6542:6586   */\n      mstore\n        /* \"#utility.yul\":6425:6593   */\n      pop\n      jump\t// out\n        /* \"#utility.yul\":6599:6965   */\n    tag_127:\n        /* \"#utility.yul\":6741:6744   */\n      0x00\n        /* \"#utility.yul\":6762:6829   */\n      tag_207\n        /* \"#utility.yul\":6826:6828   */\n      0x12\n        /* \"#utility.yul\":6821:6824   */\n      dup4\n        /* \"#utility.yul\":6762:6829   */\n      tag_118\n      jump\t// in\n    tag_207:\n        /* \"#utility.yul\":6755:6829   */\n      swap2\n      pop\n        /* \"#utility.yul\":6838:6931   */\n      tag_208\n        /* \"#utility.yul\":6927:6930   */\n      dup3\n        /* \"#utility.yul\":6838:6931   */\n      tag_126\n      jump\t// in\n    tag_208:\n        /* \"#utility.yul\":6956:6958   */\n      0x20\n        /* \"#utility.yul\":6951:6954   */\n      dup3\n        /* \"#utility.yul\":6947:6959   */\n      add\n        /* \"#utility.yul\":6940:6959   */\n      swap1\n      pop\n        /* \"#utility.yul\":6599:6965   */\n      swap2\n      swap1\n      pop\n      jump\t// out\n        /* \"#utility.yul\":6971:7390   */\n    tag_87:\n        /* \"#utility.yul\":7137:7141   */\n      0x00\n        /* \"#utility.yul\":7175:7177   */\n      0x20\n        /* \"#utility.yul\":7164:7173   */\n      dup3\n        /* \"#utility.yul\":7160:7178   */\n      add\n        /* \"#utility.yul\":7152:7178   */\n      swap1\n      pop\n        /* \"#utility.yul\":7224:7233   */\n      dup2\n        /* \"#utility.yul\":7218:7222   */\n      dup2\n        /* \"#utility.yul\":7214:7234   */\n      sub\n        /* \"#utility.yul\":7210:7211   */\n      0x00\n        /* \"#utility.yul\":7199:7208   */\n      dup4\n        /* \"#utility.yul\":7195:7212   */\n      add\n        /* \"#utility.yul\":7188:7235   */\n      mstore\n        /* \"#utility.yul\":7252:7383   */\n      tag_210\n        /* \"#utility.yul\":7378:7382   */\n      dup2\n        /* \"#utility.yul\":7252:7383   */\n      tag_127\n      jump\t// in\n    tag_210:\n        /* \"#utility.yul\":7244:7383   */\n      swap1\n      pop\n        /* \"#utility.yul\":6971:7390   */\n      swap2\n      swap1\n      pop\n      jump\t// out\n        /* \"#utility.yul\":7396:7590   */\n    tag_93:\n        /* \"#utility.yul\":7436:7440   */\n      0x00\n        /* \"#utility.yul\":7456:7476   */\n      tag_212\n        /* \"#utility.yul\":7474:7475   */\n      dup3\n        /* \"#utility.yul\":7456:7476   */\n      tag_109\n      jump\t// in\n    tag_212:\n        /* \"#utility.yul\":7451:7476   */\n      swap2\n      pop\n        /* \"#utility.yul\":7490:7510   */\n      tag_213\n        /* \"#utility.yul\":7508:7509   */\n      dup4\n        /* \"#utility.yul\":7490:7510   */\n      tag_109\n      jump\t// in\n    tag_213:\n        /* \"#utility.yul\":7485:7510   */\n      swap3\n      pop\n        /* \"#utility.yul\":7534:7535   */\n      dup3\n        /* \"#utility.yul\":7531:7532   */\n      dup3\n        /* \"#utility.yul\":7527:7536   */\n      sub\n        /* \"#utility.yul\":7519:7536   */\n      swap1\n      pop\n        /* \"#utility.yul\":7558:7559   */\n      dup2\n        /* \"#utility.yul\":7552:7556   */\n      dup2\n        /* \"#utility.yul\":7549:7560   */\n      gt\n        /* \"#utility.yul\":7546:7583   */\n      iszero\n      tag_214\n      jumpi\n        /* \"#utility.yul\":7563:7581   */\n      tag_215\n      tag_121\n      jump\t// in\n    tag_215:\n        /* \"#utility.yul\":7546:7583   */\n    tag_214:\n        /* \"#utility.yul\":7396:7590   */\n      swap3\n      swap2\n      pop\n      pop\n      jump\t// out\n        /* \"#utility.yul\":7596:7776   */\n    tag_128:\n        /* \"#utility.yul\":7644:7721   */\n      0x4e487b7100000000000000000000000000000000000000000000000000000000\n        /* \"#utility.yul\":7641:7642   */\n      0x00\n        /* \"#utility.yul\":7634:7722   */\n      mstore\n        /* \"#utility.yul\":7741:7745   */\n      0x12\n        /* \"#utility.yul\":7738:7739   */\n      0x04\n        /* \"#utility.yul\":7731:7746   */\n      mstore\n        /* \"#utility.yul\":7765:7769   */\n      0x24\n        /* \"#utility.yul\":7762:7763   */\n      0x00\n        /* \"#utility.yul\":7755:7770   */\n      revert\n        /* \"#utility.yul\":7782:7967   */\n    tag_95:\n        /* \"#utility.yul\":7822:7823   */\n      0x00\n        /* \"#utility.yul\":7839:7859   */\n      tag_218\n        /* \"#utility.yul\":7857:7858   */\n      dup3\n        /* \"#utility.yul\":7839:7859   */\n      tag_109\n      jump\t// in\n    tag_218:\n        /* \"#utility.yul\":7834:7859   */\n      swap2\n      pop\n        /* \"#utility.yul\":7873:7893   */\n      tag_219\n        /* \"#utility.yul\":7891:7892   */\n      dup4\n        /* \"#utility.yul\":7873:7893   */\n      tag_109\n      jump\t// in\n    tag_219:\n        /* \"#utility.yul\":7868:7893   */\n      swap3\n      pop\n        /* \"#utility.yul\":7912:7913   */\n      dup3\n        /* \"#utility.yul\":7902:7937   */\n      tag_220\n      jumpi\n        /* \"#utility.yul\":7917:7935   */\n      tag_221\n      tag_128\n      jump\t// in\n    tag_221:\n        /* \"#utility.yul\":7902:7937   */\n    tag_220:\n        /* \"#utility.yul\":7959:7960   */\n      dup3\n        /* \"#utility.yul\":7956:7957   */\n      dup3\n        /* \"#utility.yul\":7952:7961   */\n      div\n        /* \"#utility.yul\":7947:7961   */\n      swap1\n      pop\n        /* \"#utility.yul\":7782:7967   */\n      swap3\n      swap2\n      pop\n      pop\n      jump\t// out\n        /* \"#utility.yul\":7973:8383   */\n    tag_101:\n        /* \"#utility.yul\":8013:8020   */\n      0x00\n        /* \"#utility.yul\":8036:8056   */\n      tag_223\n        /* \"#utility.yul\":8054:8055   */\n      dup3\n        /* \"#utility.yul\":8036:8056   */\n      tag_109\n      jump\t// in\n    tag_223:\n        /* \"#utility.yul\":8031:8056   */\n      swap2\n      pop\n        /* \"#utility.yul\":8070:8090   */\n      tag_224\n        /* \"#utility.yul\":8088:8089   */\n      dup4\n        /* \"#utility.yul\":8070:8090   */\n      tag_109\n      jump\t// in\n    tag_224:\n        /* \"#utility.yul\":8065:8090   */\n      swap3\n      pop\n        /* \"#utility.yul\":8125:8126   */\n      dup3\n        /* \"#utility.yul\":8122:8123   */\n      dup3\n        /* \"#utility.yul\":8118:8127   */\n      mul\n        /* \"#utility.yul\":8147:8177   */\n      tag_225\n        /* \"#utility.yul\":8165:8176   */\n      dup2\n        /* \"#utility.yul\":8147:8177   */\n      tag_109\n      jump\t// in\n    tag_225:\n        /* \"#utility.yul\":8136:8177   */\n      swap2\n      pop\n        /* \"#utility.yul\":8326:8327   */\n      dup3\n        /* \"#utility.yul\":8317:8324   */\n      dup3\n        /* \"#utility.yul\":8313:8328   */\n      div\n        /* \"#utility.yul\":8310:8311   */\n      dup5\n        /* \"#utility.yul\":8307:8329   */\n      eq\n        /* \"#utility.yul\":8287:8288   */\n      dup4\n        /* \"#utility.yul\":8280:8289   */\n      iszero\n        /* \"#utility.yul\":8260:8343   */\n      or\n        /* \"#utility.yul\":8237:8376   */\n      tag_226\n      jumpi\n        /* \"#utility.yul\":8356:8374   */\n      tag_227\n      tag_121\n      jump\t// in\n    tag_227:\n        /* \"#utility.yul\":8237:8376   */\n    tag_226:\n        /* \"#utility.yul\":8021:8383   */\n      pop\n        /* \"#utility.yul\":7973:8383   */\n      swap3\n      swap2\n      pop\n      pop\n      jump\t// out\n\n    auxdata: 0xa2646970667358221220d3c2616d4209b623cb6808400d10efc8edcb118e7f1228e22ed64096e4a2868f64736f6c63430008120033\n}\n",
				"bytecode": {
					"linkReferences": {},
					"object": "60806040523480156200001157600080fd5b50604051620010f6380380620010f683398181016040528101906200003791906200035e565b8460008190555083816200004c919062000448565b6001819055508260028190555081600860006101000a81548173ffffffffffffffffffffffffffffffffffffffff021916908373ffffffffffffffffffffffffffffffffffffffff16021790555033600560006101000a81548173ffffffffffffffffffffffffffffffffffffffff021916908373ffffffffffffffffffffffffffffffffffffffff16021790555080600481905550600086511162000129576040517f08c379a00000000000000000000000000000000000000000000000000000000081526004016200012090620004e4565b60405180910390fd5b50505050505062000506565b6000604051905090565b600080fd5b600080fd5b600080fd5b6000601f19601f8301169050919050565b7f4e487b7100000000000000000000000000000000000000000000000000000000600052604160045260246000fd5b62000199826200014e565b810181811067ffffffffffffffff82111715620001bb57620001ba6200015f565b5b80604052505050565b6000620001d062000135565b9050620001de82826200018e565b919050565b600067ffffffffffffffff8211156200020157620002006200015f565b5b602082029050602081019050919050565b600080fd5b600073ffffffffffffffffffffffffffffffffffffffff82169050919050565b6000620002448262000217565b9050919050565b620002568162000237565b81146200026257600080fd5b50565b60008151905062000276816200024b565b92915050565b6000620002936200028d84620001e3565b620001c4565b90508083825260208201905060208402830185811115620002b957620002b862000212565b5b835b81811015620002e65780620002d1888262000265565b845260208401935050602081019050620002bb565b5050509392505050565b600082601f83011262000308576200030762000149565b5b81516200031a8482602086016200027c565b91505092915050565b6000819050919050565b620003388162000323565b81146200034457600080fd5b50565b60008151905062000358816200032d565b92915050565b60008060008060008060c087890312156200037e576200037d6200013f565b5b600087015167ffffffffffffffff8111156200039f576200039e62000144565b5b620003ad89828a01620002f0565b9650506020620003c089828a0162000347565b9550506040620003d389828a0162000347565b9450506060620003e689828a0162000347565b9350506080620003f989828a0162000265565b92505060a06200040c89828a0162000347565b9150509295509295509295565b7f4e487b7100000000000000000000000000000000000000000000000000000000600052601160045260246000fd5b6000620004558262000323565b9150620004628362000323565b92508282019050808211156200047d576200047c62000419565b5b92915050565b600082825260208201905092915050565b7f4e6f2042656e656669636961726965732070726f766964656400000000000000600082015250565b6000620004cc60198362000483565b9150620004d98262000494565b602082019050919050565b60006020820190508181036000830152620004ff81620004bd565b9050919050565b610be080620005166000396000f3fe60806040526004361061009c5760003560e01c80635afd6eb8116100645780635afd6eb8146101795780636f9fb98a146101a4578063763b6d9e146101cf57806378e979251461020c5780638a9e087614610237578063fc0c546a146102625761009c565b80630cfc297e146100a15780630fb5a6b4146100de57806313d033c01461010957806319165587146101345780632a947fd214610150575b600080fd5b3480156100ad57600080fd5b506100c860048036038101906100c3919061076d565b61028d565b6040516100d591906107b3565b60405180910390f35b3480156100ea57600080fd5b506100f36102d6565b60405161010091906107b3565b60405180910390f35b34801561011557600080fd5b5061011e6102dc565b60405161012b91906107b3565b60405180910390f35b61014e6004803603810190610149919061076d565b6102e2565b005b34801561015c57600080fd5b50610177600480360381019061017291906107fa565b6104e9565b005b34801561018557600080fd5b5061018e6105c1565b60405161019b91906107b3565b60405180910390f35b3480156101b057600080fd5b506101b96105c7565b6040516101c691906107b3565b60405180910390f35b3480156101db57600080fd5b506101f660048036038101906101f1919061076d565b6105cf565b60405161020391906107b3565b60405180910390f35b34801561021857600080fd5b506102216106d8565b60405161022e91906107b3565b60405180910390f35b34801561024357600080fd5b5061024c6106de565b60405161025991906107b3565b60405180910390f35b34801561026e57600080fd5b506102776106e4565b6040516102849190610899565b60405180910390f35b6000600660008373ffffffffffffffffffffffffffffffffffffffff1673ffffffffffffffffffffffffffffffffffffffff168152602001908152602001600020549050919050565b60025481565b60015481565b60006102ed826105cf565b905060008111610332576040517f08c379a000000000000000000000000000000000000000000000000000000000815260040161032990610911565b60405180910390fd5b80600760008473ffffffffffffffffffffffffffffffffffffffff1673ffffffffffffffffffffffffffffffffffffffff16815260200190815260200160002060008282546103819190610960565b92505081905550806003600082825461039a9190610960565b92505081905550600860009054906101000a900473ffffffffffffffffffffffffffffffffffffffff1673ffffffffffffffffffffffffffffffffffffffff1663095ea7b333836040518363ffffffff1660e01b81526004016103fe9291906109a3565b6020604051808303816000875af115801561041d573d6000803e3d6000fd5b505050506040513d601f19601f820116820180604052508101906104419190610a04565b50600860009054906101000a900473ffffffffffffffffffffffffffffffffffffffff1673ffffffffffffffffffffffffffffffffffffffff166323b872dd8384846040518463ffffffff1660e01b81526004016104a193929190610a31565b6020604051808303816000875af11580156104c0573d6000803e3d6000fd5b505050506040513d601f19601f820116820180604052508101906104e49190610a04565b505050565b80600660008473ffffffffffffffffffffffffffffffffffffffff1673ffffffffffffffffffffffffffffffffffffffff168152602001908152602001600020819055503373ffffffffffffffffffffffffffffffffffffffff16600560009054906101000a900473ffffffffffffffffffffffffffffffffffffffff1673ffffffffffffffffffffffffffffffffffffffff16146105bd576040517f08c379a00000000000000000000000000000000000000000000000000000000081526004016105b490610ab4565b60405180910390fd5b5050565b60005481565b600047905090565b60006001544210156105e457600090506106d3565b6000600454426105f49190610ad4565b905060008054826106059190610b37565b9050600080546002546106189190610b37565b905080821061066b57600660008673ffffffffffffffffffffffffffffffffffffffff1673ffffffffffffffffffffffffffffffffffffffff1681526020019081526020016000205493505050506106d3565b600081600660008873ffffffffffffffffffffffffffffffffffffffff1673ffffffffffffffffffffffffffffffffffffffff168152602001908152602001600020546106b89190610b37565b9050600083826106c89190610b68565b905080955050505050505b919050565b60045481565b60035481565b600860009054906101000a900473ffffffffffffffffffffffffffffffffffffffff1681565b600080fd5b600073ffffffffffffffffffffffffffffffffffffffff82169050919050565b600061073a8261070f565b9050919050565b61074a8161072f565b811461075557600080fd5b50565b60008135905061076781610741565b92915050565b6000602082840312156107835761078261070a565b5b600061079184828501610758565b91505092915050565b6000819050919050565b6107ad8161079a565b82525050565b60006020820190506107c860008301846107a4565b92915050565b6107d78161079a565b81146107e257600080fd5b50565b6000813590506107f4816107ce565b92915050565b600080604083850312156108115761081061070a565b5b600061081f85828601610758565b9250506020610830858286016107e5565b9150509250929050565b6000819050919050565b600061085f61085a6108558461070f565b61083a565b61070f565b9050919050565b600061087182610844565b9050919050565b600061088382610866565b9050919050565b61089381610878565b82525050565b60006020820190506108ae600083018461088a565b92915050565b600082825260208201905092915050565b7f4e6f20746f6b656e7320746f2072656c65617365000000000000000000000000600082015250565b60006108fb6014836108b4565b9150610906826108c5565b602082019050919050565b6000602082019050818103600083015261092a816108ee565b9050919050565b7f4e487b7100000000000000000000000000000000000000000000000000000000600052601160045260246000fd5b600061096b8261079a565b91506109768361079a565b925082820190508082111561098e5761098d610931565b5b92915050565b61099d8161072f565b82525050565b60006040820190506109b86000830185610994565b6109c560208301846107a4565b9392505050565b60008115159050919050565b6109e1816109cc565b81146109ec57600080fd5b50565b6000815190506109fe816109d8565b92915050565b600060208284031215610a1a57610a1961070a565b5b6000610a28848285016109ef565b91505092915050565b6000606082019050610a466000830186610994565b610a536020830185610994565b610a6060408301846107a4565b949350505050565b7f4f6e6c79206f776e657220616c6c6f7765640000000000000000000000000000600082015250565b6000610a9e6012836108b4565b9150610aa982610a68565b602082019050919050565b60006020820190508181036000830152610acd81610a91565b9050919050565b6000610adf8261079a565b9150610aea8361079a565b9250828203905081811115610b0257610b01610931565b5b92915050565b7f4e487b7100000000000000000000000000000000000000000000000000000000600052601260045260246000fd5b6000610b428261079a565b9150610b4d8361079a565b925082610b5d57610b5c610b08565b5b828204905092915050565b6000610b738261079a565b9150610b7e8361079a565b9250828202610b8c8161079a565b91508282048414831517610ba357610ba2610931565b5b509291505056fea2646970667358221220d3c2616d4209b623cb6808400d10efc8edcb118e7f1228e22ed64096e4a2868f64736f6c63430008120033",
					"opcodes": "PUSH1 0x80 PUSH1 0x40 MSTORE CALLVALUE DUP1 ISZERO PUSH3 0x11 JUMPI PUSH1 0x0 DUP1 REVERT JUMPDEST POP PUSH1 0x40 MLOAD PUSH3 0x10F6 CODESIZE SUB DUP1 PUSH3 0x10F6 DUP4 CODECOPY DUP2 DUP2 ADD PUSH1 0x40 MSTORE DUP2 ADD SWAP1 PUSH3 0x37 SWAP2 SWAP1 PUSH3 0x35E JUMP JUMPDEST DUP5 PUSH1 0x0 DUP2 SWAP1 SSTORE POP DUP4 DUP2 PUSH3 0x4C SWAP2 SWAP1 PUSH3 0x448 JUMP JUMPDEST PUSH1 0x1 DUP2 SWAP1 SSTORE POP DUP3 PUSH1 0x2 DUP2 SWAP1 SSTORE POP DUP2 PUSH1 0x8 PUSH1 0x0 PUSH2 0x100 EXP DUP2 SLOAD DUP2 PUSH20 0xFFFFFFFFFFFFFFFFFFFFFFFFFFFFFFFFFFFFFFFF MUL NOT AND SWAP1 DUP4 PUSH20 0xFFFFFFFFFFFFFFFFFFFFFFFFFFFFFFFFFFFFFFFF AND MUL OR SWAP1 SSTORE POP CALLER PUSH1 0x5 PUSH1 0x0 PUSH2 0x100 EXP DUP2 SLOAD DUP2 PUSH20 0xFFFFFFFFFFFFFFFFFFFFFFFFFFFFFFFFFFFFFFFF MUL NOT AND SWAP1 DUP4 PUSH20 0xFFFFFFFFFFFFFFFFFFFFFFFFFFFFFFFFFFFFFFFF AND MUL OR SWAP1 SSTORE POP DUP1 PUSH1 0x4 DUP2 SWAP1 SSTORE POP PUSH1 0x0 DUP7 MLOAD GT PUSH3 0x129 JUMPI PUSH1 0x40 MLOAD PUSH32 0x8C379A000000000000000000000000000000000000000000000000000000000 DUP2 MSTORE PUSH1 0x4 ADD PUSH3 0x120 SWAP1 PUSH3 0x4E4 JUMP JUMPDEST PUSH1 0x40 MLOAD DUP1 SWAP2 SUB SWAP1 REVERT JUMPDEST POP POP POP POP POP POP PUSH3 0x506 JUMP JUMPDEST PUSH1 0x0 PUSH1 0x40 MLOAD SWAP1 POP SWAP1 JUMP JUMPDEST PUSH1 0x0 DUP1 REVERT JUMPDEST PUSH1 0x0 DUP1 REVERT JUMPDEST PUSH1 0x0 DUP1 REVERT JUMPDEST PUSH1 0x0 PUSH1 0x1F NOT PUSH1 0x1F DUP4 ADD AND SWAP1 POP SWAP2 SWAP1 POP JUMP JUMPDEST PUSH32 0x4E487B7100000000000000000000000000000000000000000000000000000000 PUSH1 0x0 MSTORE PUSH1 0x41 PUSH1 0x4 MSTORE PUSH1 0x24 PUSH1 0x0 REVERT JUMPDEST PUSH3 0x199 DUP3 PUSH3 0x14E JUMP JUMPDEST DUP2 ADD DUP2 DUP2 LT PUSH8 0xFFFFFFFFFFFFFFFF DUP3 GT OR ISZERO PUSH3 0x1BB JUMPI PUSH3 0x1BA PUSH3 0x15F JUMP JUMPDEST JUMPDEST DUP1 PUSH1 0x40 MSTORE POP POP POP JUMP JUMPDEST PUSH1 0x0 PUSH3 0x1D0 PUSH3 0x135 JUMP JUMPDEST SWAP1 POP PUSH3 0x1DE DUP3 DUP3 PUSH3 0x18E JUMP JUMPDEST SWAP2 SWAP1 POP JUMP JUMPDEST PUSH1 0x0 PUSH8 0xFFFFFFFFFFFFFFFF DUP3 GT ISZERO PUSH3 0x201 JUMPI PUSH3 0x200 PUSH3 0x15F JUMP JUMPDEST JUMPDEST PUSH1 0x20 DUP3 MUL SWAP1 POP PUSH1 0x20 DUP2 ADD SWAP1 POP SWAP2 SWAP1 POP JUMP JUMPDEST PUSH1 0x0 DUP1 REVERT JUMPDEST PUSH1 0x0 PUSH20 0xFFFFFFFFFFFFFFFFFFFFFFFFFFFFFFFFFFFFFFFF DUP3 AND SWAP1 POP SWAP2 SWAP1 POP JUMP JUMPDEST PUSH1 0x0 PUSH3 0x244 DUP3 PUSH3 0x217 JUMP JUMPDEST SWAP1 POP SWAP2 SWAP1 POP JUMP JUMPDEST PUSH3 0x256 DUP2 PUSH3 0x237 JUMP JUMPDEST DUP2 EQ PUSH3 0x262 JUMPI PUSH1 0x0 DUP1 REVERT JUMPDEST POP JUMP JUMPDEST PUSH1 0x0 DUP2 MLOAD SWAP1 POP PUSH3 0x276 DUP2 PUSH3 0x24B JUMP JUMPDEST SWAP3 SWAP2 POP POP JUMP JUMPDEST PUSH1 0x0 PUSH3 0x293 PUSH3 0x28D DUP5 PUSH3 0x1E3 JUMP JUMPDEST PUSH3 0x1C4 JUMP JUMPDEST SWAP1 POP DUP1 DUP4 DUP3 MSTORE PUSH1 0x20 DUP3 ADD SWAP1 POP PUSH1 0x20 DUP5 MUL DUP4 ADD DUP6 DUP2 GT ISZERO PUSH3 0x2B9 JUMPI PUSH3 0x2B8 PUSH3 0x212 JUMP JUMPDEST JUMPDEST DUP4 JUMPDEST DUP2 DUP2 LT ISZERO PUSH3 0x2E6 JUMPI DUP1 PUSH3 0x2D1 DUP9 DUP3 PUSH3 0x265 JUMP JUMPDEST DUP5 MSTORE PUSH1 0x20 DUP5 ADD SWAP4 POP POP PUSH1 0x20 DUP2 ADD SWAP1 POP PUSH3 0x2BB JUMP JUMPDEST POP POP POP SWAP4 SWAP3 POP POP POP JUMP JUMPDEST PUSH1 0x0 DUP3 PUSH1 0x1F DUP4 ADD SLT PUSH3 0x308 JUMPI PUSH3 0x307 PUSH3 0x149 JUMP JUMPDEST JUMPDEST DUP2 MLOAD PUSH3 0x31A DUP5 DUP3 PUSH1 0x20 DUP7 ADD PUSH3 0x27C JUMP JUMPDEST SWAP2 POP POP SWAP3 SWAP2 POP POP JUMP JUMPDEST PUSH1 0x0 DUP2 SWAP1 POP SWAP2 SWAP1 POP JUMP JUMPDEST PUSH3 0x338 DUP2 PUSH3 0x323 JUMP JUMPDEST DUP2 EQ PUSH3 0x344 JUMPI PUSH1 0x0 DUP1 REVERT JUMPDEST POP JUMP JUMPDEST PUSH1 0x0 DUP2 MLOAD SWAP1 POP PUSH3 0x358 DUP2 PUSH3 0x32D JUMP JUMPDEST SWAP3 SWAP2 POP POP JUMP JUMPDEST PUSH1 0x0 DUP1 PUSH1 0x0 DUP1 PUSH1 0x0 DUP1 PUSH1 0xC0 DUP8 DUP10 SUB SLT ISZERO PUSH3 0x37E JUMPI PUSH3 0x37D PUSH3 0x13F JUMP JUMPDEST JUMPDEST PUSH1 0x0 DUP8 ADD MLOAD PUSH8 0xFFFFFFFFFFFFFFFF DUP2 GT ISZERO PUSH3 0x39F JUMPI PUSH3 0x39E PUSH3 0x144 JUMP JUMPDEST JUMPDEST PUSH3 0x3AD DUP10 DUP3 DUP11 ADD PUSH3 0x2F0 JUMP JUMPDEST SWAP7 POP POP PUSH1 0x20 PUSH3 0x3C0 DUP10 DUP3 DUP11 ADD PUSH3 0x347 JUMP JUMPDEST SWAP6 POP POP PUSH1 0x40 PUSH3 0x3D3 DUP10 DUP3 DUP11 ADD PUSH3 0x347 JUMP JUMPDEST SWAP5 POP POP PUSH1 0x60 PUSH3 0x3E6 DUP10 DUP3 DUP11 ADD PUSH3 0x347 JUMP JUMPDEST SWAP4 POP POP PUSH1 0x80 PUSH3 0x3F9 DUP10 DUP3 DUP11 ADD PUSH3 0x265 JUMP JUMPDEST SWAP3 POP POP PUSH1 0xA0 PUSH3 0x40C DUP10 DUP3 DUP11 ADD PUSH3 0x347 JUMP JUMPDEST SWAP2 POP POP SWAP3 SWAP6 POP SWAP3 SWAP6 POP SWAP3 SWAP6 JUMP JUMPDEST PUSH32 0x4E487B7100000000000000000000000000000000000000000000000000000000 PUSH1 0x0 MSTORE PUSH1 0x11 PUSH1 0x4 MSTORE PUSH1 0x24 PUSH1 0x0 REVERT JUMPDEST PUSH1 0x0 PUSH3 0x455 DUP3 PUSH3 0x323 JUMP JUMPDEST SWAP2 POP PUSH3 0x462 DUP4 PUSH3 0x323 JUMP JUMPDEST SWAP3 POP DUP3 DUP3 ADD SWAP1 POP DUP1 DUP3 GT ISZERO PUSH3 0x47D JUMPI PUSH3 0x47C PUSH3 0x419 JUMP JUMPDEST JUMPDEST SWAP3 SWAP2 POP POP JUMP JUMPDEST PUSH1 0x0 DUP3 DUP3 MSTORE PUSH1 0x20 DUP3 ADD SWAP1 POP SWAP3 SWAP2 POP POP JUMP JUMPDEST PUSH32 0x4E6F2042656E656669636961726965732070726F766964656400000000000000 PUSH1 0x0 DUP3 ADD MSTORE POP JUMP JUMPDEST PUSH1 0x0 PUSH3 0x4CC PUSH1 0x19 DUP4 PUSH3 0x483 JUMP JUMPDEST SWAP2 POP PUSH3 0x4D9 DUP3 PUSH3 0x494 JUMP JUMPDEST PUSH1 0x20 DUP3 ADD SWAP1 POP SWAP2 SWAP1 POP JUMP JUMPDEST PUSH1 0x0 PUSH1 0x20 DUP3 ADD SWAP1 POP DUP2 DUP2 SUB PUSH1 0x0 DUP4 ADD MSTORE PUSH3 0x4FF DUP2 PUSH3 0x4BD JUMP JUMPDEST SWAP1 POP SWAP2 SWAP1 POP JUMP JUMPDEST PUSH2 0xBE0 DUP1 PUSH3 0x516 PUSH1 0x0 CODECOPY PUSH1 0x0 RETURN INVALID PUSH1 0x80 PUSH1 0x40 MSTORE PUSH1 0x4 CALLDATASIZE LT PUSH2 0x9C JUMPI PUSH1 0x0 CALLDATALOAD PUSH1 0xE0 SHR DUP1 PUSH4 0x5AFD6EB8 GT PUSH2 0x64 JUMPI DUP1 PUSH4 0x5AFD6EB8 EQ PUSH2 0x179 JUMPI DUP1 PUSH4 0x6F9FB98A EQ PUSH2 0x1A4 JUMPI DUP1 PUSH4 0x763B6D9E EQ PUSH2 0x1CF JUMPI DUP1 PUSH4 0x78E97925 EQ PUSH2 0x20C JUMPI DUP1 PUSH4 0x8A9E0876 EQ PUSH2 0x237 JUMPI DUP1 PUSH4 0xFC0C546A EQ PUSH2 0x262 JUMPI PUSH2 0x9C JUMP JUMPDEST DUP1 PUSH4 0xCFC297E EQ PUSH2 0xA1 JUMPI DUP1 PUSH4 0xFB5A6B4 EQ PUSH2 0xDE JUMPI DUP1 PUSH4 0x13D033C0 EQ PUSH2 0x109 JUMPI DUP1 PUSH4 0x19165587 EQ PUSH2 0x134 JUMPI DUP1 PUSH4 0x2A947FD2 EQ PUSH2 0x150 JUMPI JUMPDEST PUSH1 0x0 DUP1 REVERT JUMPDEST CALLVALUE DUP1 ISZERO PUSH2 0xAD JUMPI PUSH1 0x0 DUP1 REVERT JUMPDEST POP PUSH2 0xC8 PUSH1 0x4 DUP1 CALLDATASIZE SUB DUP2 ADD SWAP1 PUSH2 0xC3 SWAP2 SWAP1 PUSH2 0x76D JUMP JUMPDEST PUSH2 0x28D JUMP JUMPDEST PUSH1 0x40 MLOAD PUSH2 0xD5 SWAP2 SWAP1 PUSH2 0x7B3 JUMP JUMPDEST PUSH1 0x40 MLOAD DUP1 SWAP2 SUB SWAP1 RETURN JUMPDEST CALLVALUE DUP1 ISZERO PUSH2 0xEA JUMPI PUSH1 0x0 DUP1 REVERT JUMPDEST POP PUSH2 0xF3 PUSH2 0x2D6 JUMP JUMPDEST PUSH1 0x40 MLOAD PUSH2 0x100 SWAP2 SWAP1 PUSH2 0x7B3 JUMP JUMPDEST PUSH1 0x40 MLOAD DUP1 SWAP2 SUB SWAP1 RETURN JUMPDEST CALLVALUE DUP1 ISZERO PUSH2 0x115 JUMPI PUSH1 0x0 DUP1 REVERT JUMPDEST POP PUSH2 0x11E PUSH2 0x2DC JUMP JUMPDEST PUSH1 0x40 MLOAD PUSH2 0x12B SWAP2 SWAP1 PUSH2 0x7B3 JUMP JUMPDEST PUSH1 0x40 MLOAD DUP1 SWAP2 SUB SWAP1 RETURN JUMPDEST PUSH2 0x14E PUSH1 0x4 DUP1 CALLDATASIZE SUB DUP2 ADD SWAP1 PUSH2 0x149 SWAP2 SWAP1 PUSH2 0x76D JUMP JUMPDEST PUSH2 0x2E2 JUMP JUMPDEST STOP JUMPDEST CALLVALUE DUP1 ISZERO PUSH2 0x15C JUMPI PUSH1 0x0 DUP1 REVERT JUMPDEST POP PUSH2 0x177 PUSH1 0x4 DUP1 CALLDATASIZE SUB DUP2 ADD SWAP1 PUSH2 0x172 SWAP2 SWAP1 PUSH2 0x7FA JUMP JUMPDEST PUSH2 0x4E9 JUMP JUMPDEST STOP JUMPDEST CALLVALUE DUP1 ISZERO PUSH2 0x185 JUMPI PUSH1 0x0 DUP1 REVERT JUMPDEST POP PUSH2 0x18E PUSH2 0x5C1 JUMP JUMPDEST PUSH1 0x40 MLOAD PUSH2 0x19B SWAP2 SWAP1 PUSH2 0x7B3 JUMP JUMPDEST PUSH1 0x40 MLOAD DUP1 SWAP2 SUB SWAP1 RETURN JUMPDEST CALLVALUE DUP1 ISZERO PUSH2 0x1B0 JUMPI PUSH1 0x0 DUP1 REVERT JUMPDEST POP PUSH2 0x1B9 PUSH2 0x5C7 JUMP JUMPDEST PUSH1 0x40 MLOAD PUSH2 0x1C6 SWAP2 SWAP1 PUSH2 0x7B3 JUMP JUMPDEST PUSH1 0x40 MLOAD DUP1 SWAP2 SUB SWAP1 RETURN JUMPDEST CALLVALUE DUP1 ISZERO PUSH2 0x1DB JUMPI PUSH1 0x0 DUP1 REVERT JUMPDEST POP PUSH2 0x1F6 PUSH1 0x4 DUP1 CALLDATASIZE SUB DUP2 ADD SWAP1 PUSH2 0x1F1 SWAP2 SWAP1 PUSH2 0x76D JUMP JUMPDEST PUSH2 0x5CF JUMP JUMPDEST PUSH1 0x40 MLOAD PUSH2 0x203 SWAP2 SWAP1 PUSH2 0x7B3 JUMP JUMPDEST PUSH1 0x40 MLOAD DUP1 SWAP2 SUB SWAP1 RETURN JUMPDEST CALLVALUE DUP1 ISZERO PUSH2 0x218 JUMPI PUSH1 0x0 DUP1 REVERT JUMPDEST POP PUSH2 0x221 PUSH2 0x6D8 JUMP JUMPDEST PUSH1 0x40 MLOAD PUSH2 0x22E SWAP2 SWAP1 PUSH2 0x7B3 JUMP JUMPDEST PUSH1 0x40 MLOAD DUP1 SWAP2 SUB SWAP1 RETURN JUMPDEST CALLVALUE DUP1 ISZERO PUSH2 0x243 JUMPI PUSH1 0x0 DUP1 REVERT JUMPDEST POP PUSH2 0x24C PUSH2 0x6DE JUMP JUMPDEST PUSH1 0x40 MLOAD PUSH2 0x259 SWAP2 SWAP1 PUSH2 0x7B3 JUMP JUMPDEST PUSH1 0x40 MLOAD DUP1 SWAP2 SUB SWAP1 RETURN JUMPDEST CALLVALUE DUP1 ISZERO PUSH2 0x26E JUMPI PUSH1 0x0 DUP1 REVERT JUMPDEST POP PUSH2 0x277 PUSH2 0x6E4 JUMP JUMPDEST PUSH1 0x40 MLOAD PUSH2 0x284 SWAP2 SWAP1 PUSH2 0x899 JUMP JUMPDEST PUSH1 0x40 MLOAD DUP1 SWAP2 SUB SWAP1 RETURN JUMPDEST PUSH1 0x0 PUSH1 0x6 PUSH1 0x0 DUP4 PUSH20 0xFFFFFFFFFFFFFFFFFFFFFFFFFFFFFFFFFFFFFFFF AND PUSH20 0xFFFFFFFFFFFFFFFFFFFFFFFFFFFFFFFFFFFFFFFF AND DUP2 MSTORE PUSH1 0x20 ADD SWAP1 DUP2 MSTORE PUSH1 0x20 ADD PUSH1 0x0 KECCAK256 SLOAD SWAP1 POP SWAP2 SWAP1 POP JUMP JUMPDEST PUSH1 0x2 SLOAD DUP2 JUMP JUMPDEST PUSH1 0x1 SLOAD DUP2 JUMP JUMPDEST PUSH1 0x0 PUSH2 0x2ED DUP3 PUSH2 0x5CF JUMP JUMPDEST SWAP1 POP PUSH1 0x0 DUP2 GT PUSH2 0x332 JUMPI PUSH1 0x40 MLOAD PUSH32 0x8C379A000000000000000000000000000000000000000000000000000000000 DUP2 MSTORE PUSH1 0x4 ADD PUSH2 0x329 SWAP1 PUSH2 0x911 JUMP JUMPDEST PUSH1 0x40 MLOAD DUP1 SWAP2 SUB SWAP1 REVERT JUMPDEST DUP1 PUSH1 0x7 PUSH1 0x0 DUP5 PUSH20 0xFFFFFFFFFFFFFFFFFFFFFFFFFFFFFFFFFFFFFFFF AND PUSH20 0xFFFFFFFFFFFFFFFFFFFFFFFFFFFFFFFFFFFFFFFF AND DUP2 MSTORE PUSH1 0x20 ADD SWAP1 DUP2 MSTORE PUSH1 0x20 ADD PUSH1 0x0 KECCAK256 PUSH1 0x0 DUP3 DUP3 SLOAD PUSH2 0x381 SWAP2 SWAP1 PUSH2 0x960 JUMP JUMPDEST SWAP3 POP POP DUP2 SWAP1 SSTORE POP DUP1 PUSH1 0x3 PUSH1 0x0 DUP3 DUP3 SLOAD PUSH2 0x39A SWAP2 SWAP1 PUSH2 0x960 JUMP JUMPDEST SWAP3 POP POP DUP2 SWAP1 SSTORE POP PUSH1 0x8 PUSH1 0x0 SWAP1 SLOAD SWAP1 PUSH2 0x100 EXP SWAP1 DIV PUSH20 0xFFFFFFFFFFFFFFFFFFFFFFFFFFFFFFFFFFFFFFFF AND PUSH20 0xFFFFFFFFFFFFFFFFFFFFFFFFFFFFFFFFFFFFFFFF AND PUSH4 0x95EA7B3 CALLER DUP4 PUSH1 0x40 MLOAD DUP4 PUSH4 0xFFFFFFFF AND PUSH1 0xE0 SHL DUP2 MSTORE PUSH1 0x4 ADD PUSH2 0x3FE SWAP3 SWAP2 SWAP1 PUSH2 0x9A3 JUMP JUMPDEST PUSH1 0x20 PUSH1 0x40 MLOAD DUP1 DUP4 SUB DUP2 PUSH1 0x0 DUP8 GAS CALL ISZERO DUP1 ISZERO PUSH2 0x41D JUMPI RETURNDATASIZE PUSH1 0x0 DUP1 RETURNDATACOPY RETURNDATASIZE PUSH1 0x0 REVERT JUMPDEST POP POP POP POP PUSH1 0x40 MLOAD RETURNDATASIZE PUSH1 0x1F NOT PUSH1 0x1F DUP3 ADD AND DUP3 ADD DUP1 PUSH1 0x40 MSTORE POP DUP2 ADD SWAP1 PUSH2 0x441 SWAP2 SWAP1 PUSH2 0xA04 JUMP JUMPDEST POP PUSH1 0x8 PUSH1 0x0 SWAP1 SLOAD SWAP1 PUSH2 0x100 EXP SWAP1 DIV PUSH20 0xFFFFFFFFFFFFFFFFFFFFFFFFFFFFFFFFFFFFFFFF AND PUSH20 0xFFFFFFFFFFFFFFFFFFFFFFFFFFFFFFFFFFFFFFFF AND PUSH4 0x23B872DD DUP4 DUP5 DUP5 PUSH1 0x40 MLOAD DUP5 PUSH4 0xFFFFFFFF AND PUSH1 0xE0 SHL DUP2 MSTORE PUSH1 0x4 ADD PUSH2 0x4A1 SWAP4 SWAP3 SWAP2 SWAP1 PUSH2 0xA31 JUMP JUMPDEST PUSH1 0x20 PUSH1 0x40 MLOAD DUP1 DUP4 SUB DUP2 PUSH1 0x0 DUP8 GAS CALL ISZERO DUP1 ISZERO PUSH2 0x4C0 JUMPI RETURNDATASIZE PUSH1 0x0 DUP1 RETURNDATACOPY RETURNDATASIZE PUSH1 0x0 REVERT JUMPDEST POP POP POP POP PUSH1 0x40 MLOAD RETURNDATASIZE PUSH1 0x1F NOT PUSH1 0x1F DUP3 ADD AND DUP3 ADD DUP1 PUSH1 0x40 MSTORE POP DUP2 ADD SWAP1 PUSH2 0x4E4 SWAP2 SWAP1 PUSH2 0xA04 JUMP JUMPDEST POP POP POP JUMP JUMPDEST DUP1 PUSH1 0x6 PUSH1 0x0 DUP5 PUSH20 0xFFFFFFFFFFFFFFFFFFFFFFFFFFFFFFFFFFFFFFFF AND PUSH20 0xFFFFFFFFFFFFFFFFFFFFFFFFFFFFFFFFFFFFFFFF AND DUP2 MSTORE PUSH1 0x20 ADD SWAP1 DUP2 MSTORE PUSH1 0x20 ADD PUSH1 0x0 KECCAK256 DUP2 SWAP1 SSTORE POP CALLER PUSH20 0xFFFFFFFFFFFFFFFFFFFFFFFFFFFFFFFFFFFFFFFF AND PUSH1 0x5 PUSH1 0x0 SWAP1 SLOAD SWAP1 PUSH2 0x100 EXP SWAP1 DIV PUSH20 0xFFFFFFFFFFFFFFFFFFFFFFFFFFFFFFFFFFFFFFFF AND PUSH20 0xFFFFFFFFFFFFFFFFFFFFFFFFFFFFFFFFFFFFFFFF AND EQ PUSH2 0x5BD JUMPI PUSH1 0x40 MLOAD PUSH32 0x8C379A000000000000000000000000000000000000000000000000000000000 DUP2 MSTORE PUSH1 0x4 ADD PUSH2 0x5B4 SWAP1 PUSH2 0xAB4 JUMP JUMPDEST PUSH1 0x40 MLOAD DUP1 SWAP2 SUB SWAP1 REVERT JUMPDEST POP POP JUMP JUMPDEST PUSH1 0x0 SLOAD DUP2 JUMP JUMPDEST PUSH1 0x0 SELFBALANCE SWAP1 POP SWAP1 JUMP JUMPDEST PUSH1 0x0 PUSH1 0x1 SLOAD TIMESTAMP LT ISZERO PUSH2 0x5E4 JUMPI PUSH1 0x0 SWAP1 POP PUSH2 0x6D3 JUMP JUMPDEST PUSH1 0x0 PUSH1 0x4 SLOAD TIMESTAMP PUSH2 0x5F4 SWAP2 SWAP1 PUSH2 0xAD4 JUMP JUMPDEST SWAP1 POP PUSH1 0x0 DUP1 SLOAD DUP3 PUSH2 0x605 SWAP2 SWAP1 PUSH2 0xB37 JUMP JUMPDEST SWAP1 POP PUSH1 0x0 DUP1 SLOAD PUSH1 0x2 SLOAD PUSH2 0x618 SWAP2 SWAP1 PUSH2 0xB37 JUMP JUMPDEST SWAP1 POP DUP1 DUP3 LT PUSH2 0x66B JUMPI PUSH1 0x6 PUSH1 0x0 DUP7 PUSH20 0xFFFFFFFFFFFFFFFFFFFFFFFFFFFFFFFFFFFFFFFF AND PUSH20 0xFFFFFFFFFFFFFFFFFFFFFFFFFFFFFFFFFFFFFFFF AND DUP2 MSTORE PUSH1 0x20 ADD SWAP1 DUP2 MSTORE PUSH1 0x20 ADD PUSH1 0x0 KECCAK256 SLOAD SWAP4 POP POP POP POP PUSH2 0x6D3 JUMP JUMPDEST PUSH1 0x0 DUP2 PUSH1 0x6 PUSH1 0x0 DUP9 PUSH20 0xFFFFFFFFFFFFFFFFFFFFFFFFFFFFFFFFFFFFFFFF AND PUSH20 0xFFFFFFFFFFFFFFFFFFFFFFFFFFFFFFFFFFFFFFFF AND DUP2 MSTORE PUSH1 0x20 ADD SWAP1 DUP2 MSTORE PUSH1 0x20 ADD PUSH1 0x0 KECCAK256 SLOAD PUSH2 0x6B8 SWAP2 SWAP1 PUSH2 0xB37 JUMP JUMPDEST SWAP1 POP PUSH1 0x0 DUP4 DUP3 PUSH2 0x6C8 SWAP2 SWAP1 PUSH2 0xB68 JUMP JUMPDEST SWAP1 POP DUP1 SWAP6 POP POP POP POP POP POP JUMPDEST SWAP2 SWAP1 POP JUMP JUMPDEST PUSH1 0x4 SLOAD DUP2 JUMP JUMPDEST PUSH1 0x3 SLOAD DUP2 JUMP JUMPDEST PUSH1 0x8 PUSH1 0x0 SWAP1 SLOAD SWAP1 PUSH2 0x100 EXP SWAP1 DIV PUSH20 0xFFFFFFFFFFFFFFFFFFFFFFFFFFFFFFFFFFFFFFFF AND DUP2 JUMP JUMPDEST PUSH1 0x0 DUP1 REVERT JUMPDEST PUSH1 0x0 PUSH20 0xFFFFFFFFFFFFFFFFFFFFFFFFFFFFFFFFFFFFFFFF DUP3 AND SWAP1 POP SWAP2 SWAP1 POP JUMP JUMPDEST PUSH1 0x0 PUSH2 0x73A DUP3 PUSH2 0x70F JUMP JUMPDEST SWAP1 POP SWAP2 SWAP1 POP JUMP JUMPDEST PUSH2 0x74A DUP2 PUSH2 0x72F JUMP JUMPDEST DUP2 EQ PUSH2 0x755 JUMPI PUSH1 0x0 DUP1 REVERT JUMPDEST POP JUMP JUMPDEST PUSH1 0x0 DUP2 CALLDATALOAD SWAP1 POP PUSH2 0x767 DUP2 PUSH2 0x741 JUMP JUMPDEST SWAP3 SWAP2 POP POP JUMP JUMPDEST PUSH1 0x0 PUSH1 0x20 DUP3 DUP5 SUB SLT ISZERO PUSH2 0x783 JUMPI PUSH2 0x782 PUSH2 0x70A JUMP JUMPDEST JUMPDEST PUSH1 0x0 PUSH2 0x791 DUP5 DUP3 DUP6 ADD PUSH2 0x758 JUMP JUMPDEST SWAP2 POP POP SWAP3 SWAP2 POP POP JUMP JUMPDEST PUSH1 0x0 DUP2 SWAP1 POP SWAP2 SWAP1 POP JUMP JUMPDEST PUSH2 0x7AD DUP2 PUSH2 0x79A JUMP JUMPDEST DUP3 MSTORE POP POP JUMP JUMPDEST PUSH1 0x0 PUSH1 0x20 DUP3 ADD SWAP1 POP PUSH2 0x7C8 PUSH1 0x0 DUP4 ADD DUP5 PUSH2 0x7A4 JUMP JUMPDEST SWAP3 SWAP2 POP POP JUMP JUMPDEST PUSH2 0x7D7 DUP2 PUSH2 0x79A JUMP JUMPDEST DUP2 EQ PUSH2 0x7E2 JUMPI PUSH1 0x0 DUP1 REVERT JUMPDEST POP JUMP JUMPDEST PUSH1 0x0 DUP2 CALLDATALOAD SWAP1 POP PUSH2 0x7F4 DUP2 PUSH2 0x7CE JUMP JUMPDEST SWAP3 SWAP2 POP POP JUMP JUMPDEST PUSH1 0x0 DUP1 PUSH1 0x40 DUP4 DUP6 SUB SLT ISZERO PUSH2 0x811 JUMPI PUSH2 0x810 PUSH2 0x70A JUMP JUMPDEST JUMPDEST PUSH1 0x0 PUSH2 0x81F DUP6 DUP3 DUP7 ADD PUSH2 0x758 JUMP JUMPDEST SWAP3 POP POP PUSH1 0x20 PUSH2 0x830 DUP6 DUP3 DUP7 ADD PUSH2 0x7E5 JUMP JUMPDEST SWAP2 POP POP SWAP3 POP SWAP3 SWAP1 POP JUMP JUMPDEST PUSH1 0x0 DUP2 SWAP1 POP SWAP2 SWAP1 POP JUMP JUMPDEST PUSH1 0x0 PUSH2 0x85F PUSH2 0x85A PUSH2 0x855 DUP5 PUSH2 0x70F JUMP JUMPDEST PUSH2 0x83A JUMP JUMPDEST PUSH2 0x70F JUMP JUMPDEST SWAP1 POP SWAP2 SWAP1 POP JUMP JUMPDEST PUSH1 0x0 PUSH2 0x871 DUP3 PUSH2 0x844 JUMP JUMPDEST SWAP1 POP SWAP2 SWAP1 POP JUMP JUMPDEST PUSH1 0x0 PUSH2 0x883 DUP3 PUSH2 0x866 JUMP JUMPDEST SWAP1 POP SWAP2 SWAP1 POP JUMP JUMPDEST PUSH2 0x893 DUP2 PUSH2 0x878 JUMP JUMPDEST DUP3 MSTORE POP POP JUMP JUMPDEST PUSH1 0x0 PUSH1 0x20 DUP3 ADD SWAP1 POP PUSH2 0x8AE PUSH1 0x0 DUP4 ADD DUP5 PUSH2 0x88A JUMP JUMPDEST SWAP3 SWAP2 POP POP JUMP JUMPDEST PUSH1 0x0 DUP3 DUP3 MSTORE PUSH1 0x20 DUP3 ADD SWAP1 POP SWAP3 SWAP2 POP POP JUMP JUMPDEST PUSH32 0x4E6F20746F6B656E7320746F2072656C65617365000000000000000000000000 PUSH1 0x0 DUP3 ADD MSTORE POP JUMP JUMPDEST PUSH1 0x0 PUSH2 0x8FB PUSH1 0x14 DUP4 PUSH2 0x8B4 JUMP JUMPDEST SWAP2 POP PUSH2 0x906 DUP3 PUSH2 0x8C5 JUMP JUMPDEST PUSH1 0x20 DUP3 ADD SWAP1 POP SWAP2 SWAP1 POP JUMP JUMPDEST PUSH1 0x0 PUSH1 0x20 DUP3 ADD SWAP1 POP DUP2 DUP2 SUB PUSH1 0x0 DUP4 ADD MSTORE PUSH2 0x92A DUP2 PUSH2 0x8EE JUMP JUMPDEST SWAP1 POP SWAP2 SWAP1 POP JUMP JUMPDEST PUSH32 0x4E487B7100000000000000000000000000000000000000000000000000000000 PUSH1 0x0 MSTORE PUSH1 0x11 PUSH1 0x4 MSTORE PUSH1 0x24 PUSH1 0x0 REVERT JUMPDEST PUSH1 0x0 PUSH2 0x96B DUP3 PUSH2 0x79A JUMP JUMPDEST SWAP2 POP PUSH2 0x976 DUP4 PUSH2 0x79A JUMP JUMPDEST SWAP3 POP DUP3 DUP3 ADD SWAP1 POP DUP1 DUP3 GT ISZERO PUSH2 0x98E JUMPI PUSH2 0x98D PUSH2 0x931 JUMP JUMPDEST JUMPDEST SWAP3 SWAP2 POP POP JUMP JUMPDEST PUSH2 0x99D DUP2 PUSH2 0x72F JUMP JUMPDEST DUP3 MSTORE POP POP JUMP JUMPDEST PUSH1 0x0 PUSH1 0x40 DUP3 ADD SWAP1 POP PUSH2 0x9B8 PUSH1 0x0 DUP4 ADD DUP6 PUSH2 0x994 JUMP JUMPDEST PUSH2 0x9C5 PUSH1 0x20 DUP4 ADD DUP5 PUSH2 0x7A4 JUMP JUMPDEST SWAP4 SWAP3 POP POP POP JUMP JUMPDEST PUSH1 0x0 DUP2 ISZERO ISZERO SWAP1 POP SWAP2 SWAP1 POP JUMP JUMPDEST PUSH2 0x9E1 DUP2 PUSH2 0x9CC JUMP JUMPDEST DUP2 EQ PUSH2 0x9EC JUMPI PUSH1 0x0 DUP1 REVERT JUMPDEST POP JUMP JUMPDEST PUSH1 0x0 DUP2 MLOAD SWAP1 POP PUSH2 0x9FE DUP2 PUSH2 0x9D8 JUMP JUMPDEST SWAP3 SWAP2 POP POP JUMP JUMPDEST PUSH1 0x0 PUSH1 0x20 DUP3 DUP5 SUB SLT ISZERO PUSH2 0xA1A JUMPI PUSH2 0xA19 PUSH2 0x70A JUMP JUMPDEST JUMPDEST PUSH1 0x0 PUSH2 0xA28 DUP5 DUP3 DUP6 ADD PUSH2 0x9EF JUMP JUMPDEST SWAP2 POP POP SWAP3 SWAP2 POP POP JUMP JUMPDEST PUSH1 0x0 PUSH1 0x60 DUP3 ADD SWAP1 POP PUSH2 0xA46 PUSH1 0x0 DUP4 ADD DUP7 PUSH2 0x994 JUMP JUMPDEST PUSH2 0xA53 PUSH1 0x20 DUP4 ADD DUP6 PUSH2 0x994 JUMP JUMPDEST PUSH2 0xA60 PUSH1 0x40 DUP4 ADD DUP5 PUSH2 0x7A4 JUMP JUMPDEST SWAP5 SWAP4 POP POP POP POP JUMP JUMPDEST PUSH32 0x4F6E6C79206F776E657220616C6C6F7765640000000000000000000000000000 PUSH1 0x0 DUP3 ADD MSTORE POP JUMP JUMPDEST PUSH1 0x0 PUSH2 0xA9E PUSH1 0x12 DUP4 PUSH2 0x8B4 JUMP JUMPDEST SWAP2 POP PUSH2 0xAA9 DUP3 PUSH2 0xA68 JUMP JUMPDEST PUSH1 0x20 DUP3 ADD SWAP1 POP SWAP2 SWAP1 POP JUMP JUMPDEST PUSH1 0x0 PUSH1 0x20 DUP3 ADD SWAP1 POP DUP2 DUP2 SUB PUSH1 0x0 DUP4 ADD MSTORE PUSH2 0xACD DUP2 PUSH2 0xA91 JUMP JUMPDEST SWAP1 POP SWAP2 SWAP1 POP JUMP JUMPDEST PUSH1 0x0 PUSH2 0xADF DUP3 PUSH2 0x79A JUMP JUMPDEST SWAP2 POP PUSH2 0xAEA DUP4 PUSH2 0x79A JUMP JUMPDEST SWAP3 POP DUP3 DUP3 SUB SWAP1 POP DUP2 DUP2 GT ISZERO PUSH2 0xB02 JUMPI PUSH2 0xB01 PUSH2 0x931 JUMP JUMPDEST JUMPDEST SWAP3 SWAP2 POP POP JUMP JUMPDEST PUSH32 0x4E487B7100000000000000000000000000000000000000000000000000000000 PUSH1 0x0 MSTORE PUSH1 0x12 PUSH1 0x4 MSTORE PUSH1 0x24 PUSH1 0x0 REVERT JUMPDEST PUSH1 0x0 PUSH2 0xB42 DUP3 PUSH2 0x79A JUMP JUMPDEST SWAP2 POP PUSH2 0xB4D DUP4 PUSH2 0x79A JUMP JUMPDEST SWAP3 POP DUP3 PUSH2 0xB5D JUMPI PUSH2 0xB5C PUSH2 0xB08 JUMP JUMPDEST JUMPDEST DUP3 DUP3 DIV SWAP1 POP SWAP3 SWAP2 POP POP JUMP JUMPDEST PUSH1 0x0 PUSH2 0xB73 DUP3 PUSH2 0x79A JUMP JUMPDEST SWAP2 POP PUSH2 0xB7E DUP4 PUSH2 0x79A JUMP JUMPDEST SWAP3 POP DUP3 DUP3 MUL PUSH2 0xB8C DUP2 PUSH2 0x79A JUMP JUMPDEST SWAP2 POP DUP3 DUP3 DIV DUP5 EQ DUP4 ISZERO OR PUSH2 0xBA3 JUMPI PUSH2 0xBA2 PUSH2 0x931 JUMP JUMPDEST JUMPDEST POP SWAP3 SWAP2 POP POP JUMP INVALID LOG2 PUSH5 0x6970667358 0x22 SLT KECCAK256 0xD3 0xC2 PUSH2 0x6D42 MULMOD 0xB6 0x23 0xCB PUSH9 0x8400D10EFC8EDCB11 DUP15 PUSH32 0x1228E22ED64096E4A2868F64736F6C6343000812003300000000000000000000 "
				},
				"gasEstimates": {
					"creation": {
						"codeDepositCost": "608000",
						"executionCost": "infinite",
						"totalCost": "infinite"
					},
					"external": {
						"addBeneificiary(address,uint256)": "25376",
						"cliff()": "2474",
						"duration()": "2452",
						"getContractBalance()": "361",
						"release(address)": "infinite",
						"showTokenOfBeneficiary(address)": "2842",
						"slicePeriod()": "2429",
						"startTime()": "2495",
						"token()": "infinite",
						"tokensReleased()": "2517",
						"vestingTokens(address)": "infinite"
					}
				},
				"methodIdentifiers": {
					"addBeneificiary(address,uint256)": "2a947fd2",
					"cliff()": "13d033c0",
					"duration()": "0fb5a6b4",
					"getContractBalance()": "6f9fb98a",
					"release(address)": "19165587",
					"showTokenOfBeneficiary(address)": "0cfc297e",
					"slicePeriod()": "5afd6eb8",
					"startTime()": "78e97925",
					"token()": "fc0c546a",
					"tokensReleased()": "8a9e0876",
					"vestingTokens(address)": "763b6d9e"
				}
			},
			"storageLayout": {
				"storage": [
					{
						"astId": 82,
						"contract": "contracts/Vesting.sol:Vesting",
						"label": "slicePeriod",
						"offset": 0,
						"slot": "0",
						"type": "t_uint256"
					},
					{
						"astId": 84,
						"contract": "contracts/Vesting.sol:Vesting",
						"label": "cliff",
						"offset": 0,
						"slot": "1",
						"type": "t_uint256"
					},
					{
						"astId": 86,
						"contract": "contracts/Vesting.sol:Vesting",
						"label": "duration",
						"offset": 0,
						"slot": "2",
						"type": "t_uint256"
					},
					{
						"astId": 88,
						"contract": "contracts/Vesting.sol:Vesting",
						"label": "tokensReleased",
						"offset": 0,
						"slot": "3",
						"type": "t_uint256"
					},
					{
						"astId": 90,
						"contract": "contracts/Vesting.sol:Vesting",
						"label": "startTime",
						"offset": 0,
						"slot": "4",
						"type": "t_uint256"
					},
					{
						"astId": 92,
						"contract": "contracts/Vesting.sol:Vesting",
						"label": "owner",
						"offset": 0,
						"slot": "5",
						"type": "t_address"
					},
					{
						"astId": 96,
						"contract": "contracts/Vesting.sol:Vesting",
						"label": "beneficiaries",
						"offset": 0,
						"slot": "6",
						"type": "t_mapping(t_address,t_uint256)"
					},
					{
						"astId": 100,
						"contract": "contracts/Vesting.sol:Vesting",
						"label": "noOfvestedTokens",
						"offset": 0,
						"slot": "7",
						"type": "t_mapping(t_address,t_uint256)"
					},
					{
						"astId": 103,
						"contract": "contracts/Vesting.sol:Vesting",
						"label": "token",
						"offset": 0,
						"slot": "8",
						"type": "t_contract(IERC20)77"
					}
				],
				"types": {
					"t_address": {
						"encoding": "inplace",
						"label": "address",
						"numberOfBytes": "20"
					},
					"t_contract(IERC20)77": {
						"encoding": "inplace",
						"label": "contract IERC20",
						"numberOfBytes": "20"
					},
					"t_mapping(t_address,t_uint256)": {
						"encoding": "mapping",
						"key": "t_address",
						"label": "mapping(address => uint256)",
						"numberOfBytes": "32",
						"value": "t_uint256"
					},
					"t_uint256": {
						"encoding": "inplace",
						"label": "uint256",
						"numberOfBytes": "32"
					}
				}
			},
			"userdoc": {
				"kind": "user",
				"methods": {},
				"version": 1
			}
		}
	}
}