{
	"contracts/TokenVesting.sol": {
		"TokenVesting": {
			"abi": [
				{
					"anonymous": false,
					"inputs": [
						{
							"indexed": false,
							"internalType": "address",
							"name": "beneficiary",
							"type": "address"
						},
						{
							"indexed": false,
							"internalType": "string",
							"name": "message",
							"type": "string"
						}
					],
					"name": "LockTokensEvent",
					"type": "event"
				},
				{
					"anonymous": false,
					"inputs": [
						{
							"indexed": false,
							"internalType": "address",
							"name": "beneficiary",
							"type": "address"
						},
						{
							"indexed": false,
							"internalType": "string",
							"name": "message",
							"type": "string"
						}
					],
					"name": "ReleaseTokensEvent",
					"type": "event"
				},
				{
					"inputs": [
						{
							"internalType": "address",
							"name": "",
							"type": "address"
						}
					],
					"name": "beneficiaries",
					"outputs": [
						{
							"internalType": "uint256",
							"name": "vestingId",
							"type": "uint256"
						},
						{
							"internalType": "uint256",
							"name": "duration",
							"type": "uint256"
						},
						{
							"internalType": "uint256",
							"name": "cliff",
							"type": "uint256"
						},
						{
							"internalType": "uint256",
							"name": "slicePeriod",
							"type": "uint256"
						},
						{
							"internalType": "uint256",
							"name": "startTime",
							"type": "uint256"
						}
					],
					"stateMutability": "view",
					"type": "function"
				},
				{
					"inputs": [
						{
							"internalType": "contract IERC20",
							"name": "_token",
							"type": "address"
						},
						{
							"internalType": "uint256",
							"name": "_id",
							"type": "uint256"
						}
					],
					"name": "checkReleasedTokens",
					"outputs": [
						{
							"internalType": "uint256",
							"name": "",
							"type": "uint256"
						}
					],
					"stateMutability": "view",
					"type": "function"
				},
				{
					"inputs": [
						{
							"internalType": "address",
							"name": "_beneficiaryAddress",
							"type": "address"
						},
						{
							"internalType": "uint256",
							"name": "_tokensAmount",
							"type": "uint256"
						},
						{
							"internalType": "uint256",
							"name": "_cliff",
							"type": "uint256"
						},
						{
							"internalType": "uint256",
							"name": "_duration",
							"type": "uint256"
						},
						{
							"internalType": "uint256",
							"name": "_slicePeriod",
							"type": "uint256"
						},
						{
							"internalType": "contract IERC20",
							"name": "_token",
							"type": "address"
						}
					],
					"name": "lockTokens",
					"outputs": [],
					"stateMutability": "nonpayable",
					"type": "function"
				},
				{
					"inputs": [
						{
							"internalType": "address",
							"name": "_beneficiary",
							"type": "address"
						},
						{
							"internalType": "contract IERC20",
							"name": "_token",
							"type": "address"
						},
						{
							"internalType": "uint256",
							"name": "_id",
							"type": "uint256"
						}
					],
					"name": "releaseTokens",
					"outputs": [],
					"stateMutability": "nonpayable",
					"type": "function"
				}
			],
			"devdoc": {
				"kind": "dev",
				"methods": {},
				"version": 1
			},
			"evm": {
				"assembly": "    /* \"contracts/TokenVesting.sol\":121:3799  contract TokenVesting{... */\n  mstore(0x40, 0x80)\n  callvalue\n  dup1\n  iszero\n  tag_1\n  jumpi\n  0x00\n  dup1\n  revert\ntag_1:\n  pop\n  dataSize(sub_0)\n  dup1\n  dataOffset(sub_0)\n  0x00\n  codecopy\n  0x00\n  return\nstop\n\nsub_0: assembly {\n        /* \"contracts/TokenVesting.sol\":121:3799  contract TokenVesting{... */\n      mstore(0x40, 0x80)\n      callvalue\n      dup1\n      iszero\n      tag_1\n      jumpi\n      0x00\n      dup1\n      revert\n    tag_1:\n      pop\n      jumpi(tag_2, lt(calldatasize, 0x04))\n      shr(0xe0, calldataload(0x00))\n      dup1\n      0x01567739\n      eq\n      tag_3\n      jumpi\n      dup1\n      0x80157b80\n      eq\n      tag_4\n      jumpi\n      dup1\n      0x94be50cb\n      eq\n      tag_5\n      jumpi\n      dup1\n      0xb505c6ef\n      eq\n      tag_6\n      jumpi\n    tag_2:\n      0x00\n      dup1\n      revert\n        /* \"contracts/TokenVesting.sol\":452:506  mapping (address=>BeneficiaryInfo)public beneficiaries */\n    tag_3:\n      tag_7\n      0x04\n      dup1\n      calldatasize\n      sub\n      dup2\n      add\n      swap1\n      tag_8\n      swap2\n      swap1\n      tag_9\n      jump\t// in\n    tag_8:\n      tag_10\n      jump\t// in\n    tag_7:\n      mload(0x40)\n      tag_11\n      swap6\n      swap5\n      swap4\n      swap3\n      swap2\n      swap1\n      tag_12\n      jump\t// in\n    tag_11:\n      mload(0x40)\n      dup1\n      swap2\n      sub\n      swap1\n      return\n        /* \"contracts/TokenVesting.sol\":1779:1986  function checkReleasedTokens(IERC20 _token, uint _id)public view returns (uint){... */\n    tag_4:\n      tag_13\n      0x04\n      dup1\n      calldatasize\n      sub\n      dup2\n      add\n      swap1\n      tag_14\n      swap2\n      swap1\n      tag_15\n      jump\t// in\n    tag_14:\n      tag_16\n      jump\t// in\n    tag_13:\n      mload(0x40)\n      tag_17\n      swap2\n      swap1\n      tag_18\n      jump\t// in\n    tag_17:\n      mload(0x40)\n      dup1\n      swap2\n      sub\n      swap1\n      return\n        /* \"contracts/TokenVesting.sol\":1028:1746  function lockTokens(address _beneficiaryAddress,uint _tokensAmount,uint _cliff,uint _duration,uint _slicePeriod,IERC20 _token) isBeneficiary(_beneficiaryAddress) public {... */\n    tag_5:\n      tag_19\n      0x04\n      dup1\n      calldatasize\n      sub\n      dup2\n      add\n      swap1\n      tag_20\n      swap2\n      swap1\n      tag_21\n      jump\t// in\n    tag_20:\n      tag_22\n      jump\t// in\n    tag_19:\n      stop\n        /* \"contracts/TokenVesting.sol\":3149:3796  function releaseTokens(address _beneficiary,IERC20 _token, uint _id) isBeneficiary(_beneficiary) cliffPeriodOver(_beneficiary)public { ... */\n    tag_6:\n      tag_23\n      0x04\n      dup1\n      calldatasize\n      sub\n      dup2\n      add\n      swap1\n      tag_24\n      swap2\n      swap1\n      tag_25\n      jump\t// in\n    tag_24:\n      tag_26\n      jump\t// in\n    tag_23:\n      stop\n        /* \"contracts/TokenVesting.sol\":452:506  mapping (address=>BeneficiaryInfo)public beneficiaries */\n    tag_10:\n      mstore(0x20, 0x00)\n      dup1\n      0x00\n      mstore\n      keccak256(0x00, 0x40)\n      0x00\n      swap2\n      pop\n      swap1\n      pop\n      dup1\n      0x00\n      add\n      sload\n      swap1\n      dup1\n      0x01\n      add\n      sload\n      swap1\n      dup1\n      0x02\n      add\n      sload\n      swap1\n      dup1\n      0x03\n      add\n      sload\n      swap1\n      dup1\n      0x04\n      add\n      sload\n      swap1\n      pop\n      dup6\n      jump\t// out\n        /* \"contracts/TokenVesting.sol\":1779:1986  function checkReleasedTokens(IERC20 _token, uint _id)public view returns (uint){... */\n    tag_16:\n        /* \"contracts/TokenVesting.sol\":1853:1857  uint */\n      0x00\n        /* \"contracts/TokenVesting.sol\":1869:1888  uint releasedTokens */\n      dup1\n        /* \"contracts/TokenVesting.sol\":1890:1903  beneficiaries */\n      0x00\n        /* \"contracts/TokenVesting.sol\":1890:1915  beneficiaries[msg.sender] */\n      dup1\n        /* \"contracts/TokenVesting.sol\":1904:1914  msg.sender */\n      caller\n        /* \"contracts/TokenVesting.sol\":1890:1915  beneficiaries[msg.sender] */\n      0xffffffffffffffffffffffffffffffffffffffff\n      and\n      0xffffffffffffffffffffffffffffffffffffffff\n      and\n      dup2\n      mstore\n      0x20\n      add\n      swap1\n      dup2\n      mstore\n      0x20\n      add\n      0x00\n      keccak256\n        /* \"contracts/TokenVesting.sol\":1890:1935  beneficiaries[msg.sender].releasedTokenAmount */\n      0x06\n      add\n        /* \"contracts/TokenVesting.sol\":1890:1940  beneficiaries[msg.sender].releasedTokenAmount[_id] */\n      0x00\n        /* \"contracts/TokenVesting.sol\":1936:1939  _id */\n      dup5\n        /* \"contracts/TokenVesting.sol\":1890:1940  beneficiaries[msg.sender].releasedTokenAmount[_id] */\n      dup2\n      mstore\n      0x20\n      add\n      swap1\n      dup2\n      mstore\n      0x20\n      add\n      0x00\n      keccak256\n        /* \"contracts/TokenVesting.sol\":1890:1948  beneficiaries[msg.sender].releasedTokenAmount[_id][_token] */\n      0x00\n        /* \"contracts/TokenVesting.sol\":1941:1947  _token */\n      dup6\n        /* \"contracts/TokenVesting.sol\":1890:1948  beneficiaries[msg.sender].releasedTokenAmount[_id][_token] */\n      0xffffffffffffffffffffffffffffffffffffffff\n      and\n      0xffffffffffffffffffffffffffffffffffffffff\n      and\n      dup2\n      mstore\n      0x20\n      add\n      swap1\n      dup2\n      mstore\n      0x20\n      add\n      0x00\n      keccak256\n      sload\n        /* \"contracts/TokenVesting.sol\":1869:1948  uint releasedTokens= beneficiaries[msg.sender].releasedTokenAmount[_id][_token] */\n      swap1\n      pop\n        /* \"contracts/TokenVesting.sol\":1966:1980  releasedTokens */\n      dup1\n        /* \"contracts/TokenVesting.sol\":1959:1980  return releasedTokens */\n      swap2\n      pop\n      pop\n        /* \"contracts/TokenVesting.sol\":1779:1986  function checkReleasedTokens(IERC20 _token, uint _id)public view returns (uint){... */\n      swap3\n      swap2\n      pop\n      pop\n      jump\t// out\n        /* \"contracts/TokenVesting.sol\":1028:1746  function lockTokens(address _beneficiaryAddress,uint _tokensAmount,uint _cliff,uint _duration,uint _slicePeriod,IERC20 _token) isBeneficiary(_beneficiaryAddress) public {... */\n    tag_22:\n        /* \"contracts/TokenVesting.sol\":1169:1188  _beneficiaryAddress */\n      dup6\n        /* \"contracts/TokenVesting.sol\":1210:1245  BeneficiaryInfo storage beneficiary */\n      0x00\n        /* \"contracts/TokenVesting.sol\":1246:1259  beneficiaries */\n      dup1\n        /* \"contracts/TokenVesting.sol\":1246:1280  beneficiaries[_beneficiaryAddress] */\n      0x00\n        /* \"contracts/TokenVesting.sol\":1260:1279  _beneficiaryAddress */\n      dup10\n        /* \"contracts/TokenVesting.sol\":1246:1280  beneficiaries[_beneficiaryAddress] */\n      0xffffffffffffffffffffffffffffffffffffffff\n      and\n      0xffffffffffffffffffffffffffffffffffffffff\n      and\n      dup2\n      mstore\n      0x20\n      add\n      swap1\n      dup2\n      mstore\n      0x20\n      add\n      0x00\n      keccak256\n        /* \"contracts/TokenVesting.sol\":1210:1280  BeneficiaryInfo storage beneficiary=beneficiaries[_beneficiaryAddress] */\n      swap1\n      pop\n        /* \"contracts/TokenVesting.sol\":1312:1321  _duration */\n      dup5\n        /* \"contracts/TokenVesting.sol\":1291:1302  beneficiary */\n      dup2\n        /* \"contracts/TokenVesting.sol\":1291:1311  beneficiary.duration */\n      0x01\n      add\n        /* \"contracts/TokenVesting.sol\":1291:1321  beneficiary.duration=_duration */\n      dup2\n      swap1\n      sstore\n      pop\n        /* \"contracts/TokenVesting.sol\":1350:1356  _cliff */\n      dup6\n        /* \"contracts/TokenVesting.sol\":1332:1343  beneficiary */\n      dup2\n        /* \"contracts/TokenVesting.sol\":1332:1349  beneficiary.cliff */\n      0x02\n      add\n        /* \"contracts/TokenVesting.sol\":1332:1356  beneficiary.cliff=_cliff */\n      dup2\n      swap1\n      sstore\n      pop\n        /* \"contracts/TokenVesting.sol\":1391:1403  _slicePeriod */\n      dup4\n        /* \"contracts/TokenVesting.sol\":1367:1378  beneficiary */\n      dup2\n        /* \"contracts/TokenVesting.sol\":1367:1390  beneficiary.slicePeriod */\n      0x03\n      add\n        /* \"contracts/TokenVesting.sol\":1367:1403  beneficiary.slicePeriod=_slicePeriod */\n      dup2\n      swap1\n      sstore\n      pop\n        /* \"contracts/TokenVesting.sol\":1436:1451  block.timestamp */\n      timestamp\n        /* \"contracts/TokenVesting.sol\":1414:1425  beneficiary */\n      dup2\n        /* \"contracts/TokenVesting.sol\":1414:1435  beneficiary.startTime */\n      0x04\n      add\n        /* \"contracts/TokenVesting.sol\":1414:1451  beneficiary.startTime=block.timestamp */\n      dup2\n      swap1\n      sstore\n      pop\n        /* \"contracts/TokenVesting.sol\":1527:1540  _tokensAmount */\n      dup7\n        /* \"contracts/TokenVesting.sol\":1462:1473  beneficiary */\n      dup2\n        /* \"contracts/TokenVesting.sol\":1462:1495  beneficiary.particularTokenAmount */\n      0x05\n      add\n        /* \"contracts/TokenVesting.sol\":1462:1518  beneficiary.particularTokenAmount[beneficiary.vestingId] */\n      0x00\n        /* \"contracts/TokenVesting.sol\":1496:1507  beneficiary */\n      dup4\n        /* \"contracts/TokenVesting.sol\":1496:1517  beneficiary.vestingId */\n      0x00\n      add\n      sload\n        /* \"contracts/TokenVesting.sol\":1462:1518  beneficiary.particularTokenAmount[beneficiary.vestingId] */\n      dup2\n      mstore\n      0x20\n      add\n      swap1\n      dup2\n      mstore\n      0x20\n      add\n      0x00\n      keccak256\n        /* \"contracts/TokenVesting.sol\":1462:1526  beneficiary.particularTokenAmount[beneficiary.vestingId][_token] */\n      0x00\n        /* \"contracts/TokenVesting.sol\":1519:1525  _token */\n      dup6\n        /* \"contracts/TokenVesting.sol\":1462:1526  beneficiary.particularTokenAmount[beneficiary.vestingId][_token] */\n      0xffffffffffffffffffffffffffffffffffffffff\n      and\n      0xffffffffffffffffffffffffffffffffffffffff\n      and\n      dup2\n      mstore\n      0x20\n      add\n      swap1\n      dup2\n      mstore\n      0x20\n      add\n      0x00\n      keccak256\n        /* \"contracts/TokenVesting.sol\":1462:1540  beneficiary.particularTokenAmount[beneficiary.vestingId][_token]=_tokensAmount */\n      dup2\n      swap1\n      sstore\n      pop\n        /* \"contracts/TokenVesting.sol\":1574:1575  1 */\n      0x01\n        /* \"contracts/TokenVesting.sol\":1551:1562  beneficiary */\n      dup2\n        /* \"contracts/TokenVesting.sol\":1551:1572  beneficiary.vestingId */\n      0x00\n      add\n      0x00\n        /* \"contracts/TokenVesting.sol\":1551:1575  beneficiary.vestingId+=1 */\n      dup3\n      dup3\n      sload\n      tag_30\n      swap2\n      swap1\n      tag_31\n      jump\t// in\n    tag_30:\n      swap3\n      pop\n      pop\n      dup2\n      swap1\n      sstore\n      pop\n        /* \"contracts/TokenVesting.sol\":1586:1592  _token */\n      dup3\n        /* \"contracts/TokenVesting.sol\":1586:1605  _token.transferFrom */\n      0xffffffffffffffffffffffffffffffffffffffff\n      and\n      0x23b872dd\n        /* \"contracts/TokenVesting.sol\":1606:1616  msg.sender */\n      caller\n        /* \"contracts/TokenVesting.sol\":1625:1629  this */\n      address\n        /* \"contracts/TokenVesting.sol\":1631:1644  _tokensAmount */\n      dup11\n        /* \"contracts/TokenVesting.sol\":1586:1645  _token.transferFrom(msg.sender,address(this),_tokensAmount) */\n      mload(0x40)\n      dup5\n      0xffffffff\n      and\n      0xe0\n      shl\n      dup2\n      mstore\n      0x04\n      add\n      tag_32\n      swap4\n      swap3\n      swap2\n      swap1\n      tag_33\n      jump\t// in\n    tag_32:\n      0x20\n      mload(0x40)\n      dup1\n      dup4\n      sub\n      dup2\n      0x00\n      dup8\n      gas\n      call\n      iszero\n      dup1\n      iszero\n      tag_35\n      jumpi\n      returndatasize\n      0x00\n      dup1\n      returndatacopy\n      revert(0x00, returndatasize)\n    tag_35:\n      pop\n      pop\n      pop\n      pop\n      mload(0x40)\n      returndatasize\n      not(0x1f)\n      0x1f\n      dup3\n      add\n      and\n      dup3\n      add\n      dup1\n      0x40\n      mstore\n      pop\n      dup2\n      add\n      swap1\n      tag_36\n      swap2\n      swap1\n      tag_37\n      jump\t// in\n    tag_36:\n      pop\n        /* \"contracts/TokenVesting.sol\":1661:1737  LockTokensEvent(_beneficiaryAddress, \"Tokens are Locked in smart contract \") */\n      0x58061f685b438748cf21469042b11fe4dfb0c77fd2da64032c5adc017fc09a88\n        /* \"contracts/TokenVesting.sol\":1677:1696  _beneficiaryAddress */\n      dup9\n        /* \"contracts/TokenVesting.sol\":1661:1737  LockTokensEvent(_beneficiaryAddress, \"Tokens are Locked in smart contract \") */\n      mload(0x40)\n      tag_38\n      swap2\n      swap1\n      tag_39\n      jump\t// in\n    tag_38:\n      mload(0x40)\n      dup1\n      swap2\n      sub\n      swap1\n      log1\n        /* \"contracts/TokenVesting.sol\":1197:1746  {... */\n      pop\n        /* \"contracts/TokenVesting.sol\":931:943  _beneficiary */\n      dup1\n        /* \"contracts/TokenVesting.sol\":919:943  msg.sender==_beneficiary */\n      0xffffffffffffffffffffffffffffffffffffffff\n      and\n        /* \"contracts/TokenVesting.sol\":919:929  msg.sender */\n      caller\n        /* \"contracts/TokenVesting.sol\":919:943  msg.sender==_beneficiary */\n      0xffffffffffffffffffffffffffffffffffffffff\n      and\n      eq\n        /* \"contracts/TokenVesting.sol\":910:991  require( msg.sender==_beneficiary,\"Only Beneficiary can Lock and Release Tokens\") */\n      tag_40\n      jumpi\n      mload(0x40)\n      0x08c379a000000000000000000000000000000000000000000000000000000000\n      dup2\n      mstore\n      0x04\n      add\n      tag_41\n      swap1\n      tag_42\n      jump\t// in\n    tag_41:\n      mload(0x40)\n      dup1\n      swap2\n      sub\n      swap1\n      revert\n    tag_40:\n        /* \"contracts/TokenVesting.sol\":1028:1746  function lockTokens(address _beneficiaryAddress,uint _tokensAmount,uint _cliff,uint _duration,uint _slicePeriod,IERC20 _token) isBeneficiary(_beneficiaryAddress) public {... */\n      pop\n      pop\n      pop\n      pop\n      pop\n      pop\n      pop\n      jump\t// out\n        /* \"contracts/TokenVesting.sol\":3149:3796  function releaseTokens(address _beneficiary,IERC20 _token, uint _id) isBeneficiary(_beneficiary) cliffPeriodOver(_beneficiary)public { ... */\n    tag_26:\n        /* \"contracts/TokenVesting.sol\":3232:3244  _beneficiary */\n      dup3\n        /* \"contracts/TokenVesting.sol\":3262:3274  _beneficiary */\n      dup4\n        /* \"contracts/TokenVesting.sol\":3293:3311  uint tokensClaimed */\n      0x00\n        /* \"contracts/TokenVesting.sol\":3312:3354  releasableTokens(_beneficiary, _token,_id) */\n      tag_46\n        /* \"contracts/TokenVesting.sol\":3329:3341  _beneficiary */\n      dup7\n        /* \"contracts/TokenVesting.sol\":3343:3349  _token */\n      dup7\n        /* \"contracts/TokenVesting.sol\":3350:3353  _id */\n      dup7\n        /* \"contracts/TokenVesting.sol\":3312:3328  releasableTokens */\n      tag_47\n        /* \"contracts/TokenVesting.sol\":3312:3354  releasableTokens(_beneficiary, _token,_id) */\n      jump\t// in\n    tag_46:\n        /* \"contracts/TokenVesting.sol\":3293:3354  uint tokensClaimed=releasableTokens(_beneficiary, _token,_id) */\n      swap1\n      pop\n        /* \"contracts/TokenVesting.sol\":3387:3400  beneficiaries */\n      0x00\n        /* \"contracts/TokenVesting.sol\":3387:3414  beneficiaries[_beneficiary] */\n      dup1\n        /* \"contracts/TokenVesting.sol\":3401:3413  _beneficiary */\n      dup8\n        /* \"contracts/TokenVesting.sol\":3387:3414  beneficiaries[_beneficiary] */\n      0xffffffffffffffffffffffffffffffffffffffff\n      and\n      0xffffffffffffffffffffffffffffffffffffffff\n      and\n      dup2\n      mstore\n      0x20\n      add\n      swap1\n      dup2\n      mstore\n      0x20\n      add\n      0x00\n      keccak256\n        /* \"contracts/TokenVesting.sol\":3387:3436  beneficiaries[_beneficiary].particularTokenAmount */\n      0x05\n      add\n        /* \"contracts/TokenVesting.sol\":3387:3441  beneficiaries[_beneficiary].particularTokenAmount[_id] */\n      0x00\n        /* \"contracts/TokenVesting.sol\":3437:3440  _id */\n      dup6\n        /* \"contracts/TokenVesting.sol\":3387:3441  beneficiaries[_beneficiary].particularTokenAmount[_id] */\n      dup2\n      mstore\n      0x20\n      add\n      swap1\n      dup2\n      mstore\n      0x20\n      add\n      0x00\n      keccak256\n        /* \"contracts/TokenVesting.sol\":3387:3449  beneficiaries[_beneficiary].particularTokenAmount[_id][_token] */\n      0x00\n        /* \"contracts/TokenVesting.sol\":3442:3448  _token */\n      dup7\n        /* \"contracts/TokenVesting.sol\":3387:3449  beneficiaries[_beneficiary].particularTokenAmount[_id][_token] */\n      0xffffffffffffffffffffffffffffffffffffffff\n      and\n      0xffffffffffffffffffffffffffffffffffffffff\n      and\n      dup2\n      mstore\n      0x20\n      add\n      swap1\n      dup2\n      mstore\n      0x20\n      add\n      0x00\n      keccak256\n      sload\n        /* \"contracts/TokenVesting.sol\":3372:3385  tokensClaimed */\n      dup2\n        /* \"contracts/TokenVesting.sol\":3372:3449  tokensClaimed<=beneficiaries[_beneficiary].particularTokenAmount[_id][_token] */\n      gt\n      iszero\n        /* \"contracts/TokenVesting.sol\":3364:3499  require(tokensClaimed<=beneficiaries[_beneficiary].particularTokenAmount[_id][_token],\"Tokens Claiming are greater than tokens locked\") */\n      tag_48\n      jumpi\n      mload(0x40)\n      0x08c379a000000000000000000000000000000000000000000000000000000000\n      dup2\n      mstore\n      0x04\n      add\n      tag_49\n      swap1\n      tag_50\n      jump\t// in\n    tag_49:\n      mload(0x40)\n      dup1\n      swap2\n      sub\n      swap1\n      revert\n    tag_48:\n        /* \"contracts/TokenVesting.sol\":3531:3532  0 */\n      0x00\n        /* \"contracts/TokenVesting.sol\":3517:3530  tokensClaimed */\n      dup2\n        /* \"contracts/TokenVesting.sol\":3517:3532  tokensClaimed>0 */\n      gt\n        /* \"contracts/TokenVesting.sol\":3509:3552  require(tokensClaimed>0,\"Cannot Claim Now\") */\n      tag_51\n      jumpi\n      mload(0x40)\n      0x08c379a000000000000000000000000000000000000000000000000000000000\n      dup2\n      mstore\n      0x04\n      add\n      tag_52\n      swap1\n      tag_53\n      jump\t// in\n    tag_52:\n      mload(0x40)\n      dup1\n      swap2\n      sub\n      swap1\n      revert\n    tag_51:\n        /* \"contracts/TokenVesting.sol\":3625:3638  tokensClaimed */\n      dup1\n        /* \"contracts/TokenVesting.sol\":3563:3576  beneficiaries */\n      0x00\n        /* \"contracts/TokenVesting.sol\":3563:3590  beneficiaries[_beneficiary] */\n      dup1\n        /* \"contracts/TokenVesting.sol\":3577:3589  _beneficiary */\n      dup9\n        /* \"contracts/TokenVesting.sol\":3563:3590  beneficiaries[_beneficiary] */\n      0xffffffffffffffffffffffffffffffffffffffff\n      and\n      0xffffffffffffffffffffffffffffffffffffffff\n      and\n      dup2\n      mstore\n      0x20\n      add\n      swap1\n      dup2\n      mstore\n      0x20\n      add\n      0x00\n      keccak256\n        /* \"contracts/TokenVesting.sol\":3563:3610  beneficiaries[_beneficiary].releasedTokenAmount */\n      0x06\n      add\n        /* \"contracts/TokenVesting.sol\":3563:3615  beneficiaries[_beneficiary].releasedTokenAmount[_id] */\n      0x00\n        /* \"contracts/TokenVesting.sol\":3611:3614  _id */\n      dup7\n        /* \"contracts/TokenVesting.sol\":3563:3615  beneficiaries[_beneficiary].releasedTokenAmount[_id] */\n      dup2\n      mstore\n      0x20\n      add\n      swap1\n      dup2\n      mstore\n      0x20\n      add\n      0x00\n      keccak256\n        /* \"contracts/TokenVesting.sol\":3563:3623  beneficiaries[_beneficiary].releasedTokenAmount[_id][_token] */\n      0x00\n        /* \"contracts/TokenVesting.sol\":3616:3622  _token */\n      dup8\n        /* \"contracts/TokenVesting.sol\":3563:3623  beneficiaries[_beneficiary].releasedTokenAmount[_id][_token] */\n      0xffffffffffffffffffffffffffffffffffffffff\n      and\n      0xffffffffffffffffffffffffffffffffffffffff\n      and\n      dup2\n      mstore\n      0x20\n      add\n      swap1\n      dup2\n      mstore\n      0x20\n      add\n      0x00\n      keccak256\n      0x00\n        /* \"contracts/TokenVesting.sol\":3563:3638  beneficiaries[_beneficiary].releasedTokenAmount[_id][_token]+=tokensClaimed */\n      dup3\n      dup3\n      sload\n      tag_54\n      swap2\n      swap1\n      tag_31\n      jump\t// in\n    tag_54:\n      swap3\n      pop\n      pop\n      dup2\n      swap1\n      sstore\n      pop\n        /* \"contracts/TokenVesting.sol\":3648:3654  _token */\n      dup5\n        /* \"contracts/TokenVesting.sol\":3648:3663  _token.transfer */\n      0xffffffffffffffffffffffffffffffffffffffff\n      and\n      0xa9059cbb\n        /* \"contracts/TokenVesting.sol\":3664:3676  _beneficiary */\n      dup8\n        /* \"contracts/TokenVesting.sol\":3677:3690  tokensClaimed */\n      dup4\n        /* \"contracts/TokenVesting.sol\":3648:3691  _token.transfer(_beneficiary,tokensClaimed) */\n      mload(0x40)\n      dup4\n      0xffffffff\n      and\n      0xe0\n      shl\n      dup2\n      mstore\n      0x04\n      add\n      tag_55\n      swap3\n      swap2\n      swap1\n      tag_56\n      jump\t// in\n    tag_55:\n      0x20\n      mload(0x40)\n      dup1\n      dup4\n      sub\n      dup2\n      0x00\n      dup8\n      gas\n      call\n      iszero\n      dup1\n      iszero\n      tag_58\n      jumpi\n      returndatasize\n      0x00\n      dup1\n      returndatacopy\n      revert(0x00, returndatasize)\n    tag_58:\n      pop\n      pop\n      pop\n      pop\n      mload(0x40)\n      returndatasize\n      not(0x1f)\n      0x1f\n      dup3\n      add\n      and\n      dup3\n      add\n      dup1\n      0x40\n      mstore\n      pop\n      dup2\n      add\n      swap1\n      tag_59\n      swap2\n      swap1\n      tag_37\n      jump\t// in\n    tag_59:\n      pop\n        /* \"contracts/TokenVesting.sol\":3706:3788  ReleaseTokensEvent(_beneficiary, \"Tokens are Released in account of beneficiary \") */\n      0xa13f186497986e7b059df4137d98a76d0cb346d0e9a294755b01975e190434a9\n        /* \"contracts/TokenVesting.sol\":3725:3737  _beneficiary */\n      dup7\n        /* \"contracts/TokenVesting.sol\":3706:3788  ReleaseTokensEvent(_beneficiary, \"Tokens are Released in account of beneficiary \") */\n      mload(0x40)\n      tag_60\n      swap2\n      swap1\n      tag_61\n      jump\t// in\n    tag_60:\n      mload(0x40)\n      dup1\n      swap2\n      sub\n      swap1\n      log1\n        /* \"contracts/TokenVesting.sol\":3282:3796  { ... */\n      pop\n        /* \"contracts/TokenVesting.sol\":770:783  beneficiaries */\n      0x00\n        /* \"contracts/TokenVesting.sol\":770:797  beneficiaries[_beneficiary] */\n      dup1\n        /* \"contracts/TokenVesting.sol\":784:796  _beneficiary */\n      dup3\n        /* \"contracts/TokenVesting.sol\":770:797  beneficiaries[_beneficiary] */\n      0xffffffffffffffffffffffffffffffffffffffff\n      and\n      0xffffffffffffffffffffffffffffffffffffffff\n      and\n      dup2\n      mstore\n      0x20\n      add\n      swap1\n      dup2\n      mstore\n      0x20\n      add\n      0x00\n      keccak256\n        /* \"contracts/TokenVesting.sol\":770:803  beneficiaries[_beneficiary].cliff */\n      0x02\n      add\n      sload\n        /* \"contracts/TokenVesting.sol\":753:768  block.timestamp */\n      timestamp\n        /* \"contracts/TokenVesting.sol\":753:803  block.timestamp>=beneficiaries[_beneficiary].cliff */\n      lt\n      iszero\n        /* \"contracts/TokenVesting.sol\":745:829  require(block.timestamp>=beneficiaries[_beneficiary].cliff,\"Wait Till Cliff period\") */\n      tag_62\n      jumpi\n      mload(0x40)\n      0x08c379a000000000000000000000000000000000000000000000000000000000\n      dup2\n      mstore\n      0x04\n      add\n      tag_63\n      swap1\n      tag_64\n      jump\t// in\n    tag_63:\n      mload(0x40)\n      dup1\n      swap2\n      sub\n      swap1\n      revert\n    tag_62:\n        /* \"contracts/TokenVesting.sol\":898:899  _ */\n      pop\n        /* \"contracts/TokenVesting.sol\":931:943  _beneficiary */\n      dup1\n        /* \"contracts/TokenVesting.sol\":919:943  msg.sender==_beneficiary */\n      0xffffffffffffffffffffffffffffffffffffffff\n      and\n        /* \"contracts/TokenVesting.sol\":919:929  msg.sender */\n      caller\n        /* \"contracts/TokenVesting.sol\":919:943  msg.sender==_beneficiary */\n      0xffffffffffffffffffffffffffffffffffffffff\n      and\n      eq\n        /* \"contracts/TokenVesting.sol\":910:991  require( msg.sender==_beneficiary,\"Only Beneficiary can Lock and Release Tokens\") */\n      tag_65\n      jumpi\n      mload(0x40)\n      0x08c379a000000000000000000000000000000000000000000000000000000000\n      dup2\n      mstore\n      0x04\n      add\n      tag_66\n      swap1\n      tag_42\n      jump\t// in\n    tag_66:\n      mload(0x40)\n      dup1\n      swap2\n      sub\n      swap1\n      revert\n    tag_65:\n        /* \"contracts/TokenVesting.sol\":3149:3796  function releaseTokens(address _beneficiary,IERC20 _token, uint _id) isBeneficiary(_beneficiary) cliffPeriodOver(_beneficiary)public { ... */\n      pop\n      pop\n      pop\n      pop\n      jump\t// out\n        /* \"contracts/TokenVesting.sol\":2042:3107  function releasableTokens(address _beneficiary,IERC20 _token, uint _id) internal cliffPeriodOver(_beneficiary) view returns(uint) {... */\n    tag_47:\n        /* \"contracts/TokenVesting.sol\":2166:2170  uint */\n      0x00\n        /* \"contracts/TokenVesting.sol\":2139:2151  _beneficiary */\n      dup4\n        /* \"contracts/TokenVesting.sol\":2183:2202  uint timeSinceStart */\n      0x00\n        /* \"contracts/TokenVesting.sol\":2223:2236  beneficiaries */\n      dup1\n        /* \"contracts/TokenVesting.sol\":2223:2250  beneficiaries[_beneficiary] */\n      0x00\n        /* \"contracts/TokenVesting.sol\":2237:2249  _beneficiary */\n      dup8\n        /* \"contracts/TokenVesting.sol\":2223:2250  beneficiaries[_beneficiary] */\n      0xffffffffffffffffffffffffffffffffffffffff\n      and\n      0xffffffffffffffffffffffffffffffffffffffff\n      and\n      dup2\n      mstore\n      0x20\n      add\n      swap1\n      dup2\n      mstore\n      0x20\n      add\n      0x00\n      keccak256\n        /* \"contracts/TokenVesting.sol\":2223:2260  beneficiaries[_beneficiary].startTime */\n      0x04\n      add\n      sload\n        /* \"contracts/TokenVesting.sol\":2205:2220  block.timestamp */\n      timestamp\n        /* \"contracts/TokenVesting.sol\":2205:2260  block.timestamp - beneficiaries[_beneficiary].startTime */\n      tag_69\n      swap2\n      swap1\n      tag_70\n      jump\t// in\n    tag_69:\n        /* \"contracts/TokenVesting.sol\":2183:2260  uint timeSinceStart = block.timestamp - beneficiaries[_beneficiary].startTime */\n      swap1\n      pop\n        /* \"contracts/TokenVesting.sol\":2271:2297  uint noOfPeriodsSinceStart */\n      0x00\n        /* \"contracts/TokenVesting.sol\":2316:2329  beneficiaries */\n      dup1\n        /* \"contracts/TokenVesting.sol\":2316:2343  beneficiaries[_beneficiary] */\n      0x00\n        /* \"contracts/TokenVesting.sol\":2330:2342  _beneficiary */\n      dup9\n        /* \"contracts/TokenVesting.sol\":2316:2343  beneficiaries[_beneficiary] */\n      0xffffffffffffffffffffffffffffffffffffffff\n      and\n      0xffffffffffffffffffffffffffffffffffffffff\n      and\n      dup2\n      mstore\n      0x20\n      add\n      swap1\n      dup2\n      mstore\n      0x20\n      add\n      0x00\n      keccak256\n        /* \"contracts/TokenVesting.sol\":2316:2355  beneficiaries[_beneficiary].slicePeriod */\n      0x03\n      add\n      sload\n        /* \"contracts/TokenVesting.sol\":2300:2314  timeSinceStart */\n      dup3\n        /* \"contracts/TokenVesting.sol\":2300:2355  timeSinceStart/ beneficiaries[_beneficiary].slicePeriod */\n      tag_71\n      swap2\n      swap1\n      tag_72\n      jump\t// in\n    tag_71:\n        /* \"contracts/TokenVesting.sol\":2271:2355  uint noOfPeriodsSinceStart = timeSinceStart/ beneficiaries[_beneficiary].slicePeriod */\n      swap1\n      pop\n        /* \"contracts/TokenVesting.sol\":2366:2383  uint durationTime */\n      0x00\n        /* \"contracts/TokenVesting.sol\":2384:2397  beneficiaries */\n      dup1\n        /* \"contracts/TokenVesting.sol\":2384:2411  beneficiaries[_beneficiary] */\n      0x00\n        /* \"contracts/TokenVesting.sol\":2398:2410  _beneficiary */\n      dup10\n        /* \"contracts/TokenVesting.sol\":2384:2411  beneficiaries[_beneficiary] */\n      0xffffffffffffffffffffffffffffffffffffffff\n      and\n      0xffffffffffffffffffffffffffffffffffffffff\n      and\n      dup2\n      mstore\n      0x20\n      add\n      swap1\n      dup2\n      mstore\n      0x20\n      add\n      0x00\n      keccak256\n        /* \"contracts/TokenVesting.sol\":2384:2420  beneficiaries[_beneficiary].duration */\n      0x01\n      add\n      sload\n        /* \"contracts/TokenVesting.sol\":2366:2420  uint durationTime=beneficiaries[_beneficiary].duration */\n      swap1\n      pop\n        /* \"contracts/TokenVesting.sol\":2431:2448  uint totalPeriods */\n      0x00\n        /* \"contracts/TokenVesting.sol\":2465:2478  beneficiaries */\n      dup1\n        /* \"contracts/TokenVesting.sol\":2465:2492  beneficiaries[_beneficiary] */\n      0x00\n        /* \"contracts/TokenVesting.sol\":2479:2491  _beneficiary */\n      dup11\n        /* \"contracts/TokenVesting.sol\":2465:2492  beneficiaries[_beneficiary] */\n      0xffffffffffffffffffffffffffffffffffffffff\n      and\n      0xffffffffffffffffffffffffffffffffffffffff\n      and\n      dup2\n      mstore\n      0x20\n      add\n      swap1\n      dup2\n      mstore\n      0x20\n      add\n      0x00\n      keccak256\n        /* \"contracts/TokenVesting.sol\":2465:2504  beneficiaries[_beneficiary].slicePeriod */\n      0x03\n      add\n      sload\n        /* \"contracts/TokenVesting.sol\":2450:2462  durationTime */\n      dup3\n        /* \"contracts/TokenVesting.sol\":2450:2504  durationTime / beneficiaries[_beneficiary].slicePeriod */\n      tag_73\n      swap2\n      swap1\n      tag_72\n      jump\t// in\n    tag_73:\n        /* \"contracts/TokenVesting.sol\":2431:2504  uint totalPeriods =durationTime / beneficiaries[_beneficiary].slicePeriod */\n      swap1\n      pop\n        /* \"contracts/TokenVesting.sol\":2515:2534  uint releasedTokens */\n      0x00\n        /* \"contracts/TokenVesting.sol\":2535:2548  beneficiaries */\n      dup1\n        /* \"contracts/TokenVesting.sol\":2535:2562  beneficiaries[_beneficiary] */\n      0x00\n        /* \"contracts/TokenVesting.sol\":2549:2561  _beneficiary */\n      dup12\n        /* \"contracts/TokenVesting.sol\":2535:2562  beneficiaries[_beneficiary] */\n      0xffffffffffffffffffffffffffffffffffffffff\n      and\n      0xffffffffffffffffffffffffffffffffffffffff\n      and\n      dup2\n      mstore\n      0x20\n      add\n      swap1\n      dup2\n      mstore\n      0x20\n      add\n      0x00\n      keccak256\n        /* \"contracts/TokenVesting.sol\":2535:2582  beneficiaries[_beneficiary].releasedTokenAmount */\n      0x06\n      add\n        /* \"contracts/TokenVesting.sol\":2535:2587  beneficiaries[_beneficiary].releasedTokenAmount[_id] */\n      0x00\n        /* \"contracts/TokenVesting.sol\":2583:2586  _id */\n      dup10\n        /* \"contracts/TokenVesting.sol\":2535:2587  beneficiaries[_beneficiary].releasedTokenAmount[_id] */\n      dup2\n      mstore\n      0x20\n      add\n      swap1\n      dup2\n      mstore\n      0x20\n      add\n      0x00\n      keccak256\n        /* \"contracts/TokenVesting.sol\":2535:2595  beneficiaries[_beneficiary].releasedTokenAmount[_id][_token] */\n      0x00\n        /* \"contracts/TokenVesting.sol\":2588:2594  _token */\n      dup11\n        /* \"contracts/TokenVesting.sol\":2535:2595  beneficiaries[_beneficiary].releasedTokenAmount[_id][_token] */\n      0xffffffffffffffffffffffffffffffffffffffff\n      and\n      0xffffffffffffffffffffffffffffffffffffffff\n      and\n      dup2\n      mstore\n      0x20\n      add\n      swap1\n      dup2\n      mstore\n      0x20\n      add\n      0x00\n      keccak256\n      sload\n        /* \"contracts/TokenVesting.sol\":2515:2595  uint releasedTokens=beneficiaries[_beneficiary].releasedTokenAmount[_id][_token] */\n      swap1\n      pop\n        /* \"contracts/TokenVesting.sol\":2606:2627  uint totalTokenAmount */\n      0x00\n        /* \"contracts/TokenVesting.sol\":2628:2641  beneficiaries */\n      dup1\n        /* \"contracts/TokenVesting.sol\":2628:2655  beneficiaries[_beneficiary] */\n      0x00\n        /* \"contracts/TokenVesting.sol\":2642:2654  _beneficiary */\n      dup13\n        /* \"contracts/TokenVesting.sol\":2628:2655  beneficiaries[_beneficiary] */\n      0xffffffffffffffffffffffffffffffffffffffff\n      and\n      0xffffffffffffffffffffffffffffffffffffffff\n      and\n      dup2\n      mstore\n      0x20\n      add\n      swap1\n      dup2\n      mstore\n      0x20\n      add\n      0x00\n      keccak256\n        /* \"contracts/TokenVesting.sol\":2628:2677  beneficiaries[_beneficiary].particularTokenAmount */\n      0x05\n      add\n        /* \"contracts/TokenVesting.sol\":2628:2682  beneficiaries[_beneficiary].particularTokenAmount[_id] */\n      0x00\n        /* \"contracts/TokenVesting.sol\":2678:2681  _id */\n      dup11\n        /* \"contracts/TokenVesting.sol\":2628:2682  beneficiaries[_beneficiary].particularTokenAmount[_id] */\n      dup2\n      mstore\n      0x20\n      add\n      swap1\n      dup2\n      mstore\n      0x20\n      add\n      0x00\n      keccak256\n        /* \"contracts/TokenVesting.sol\":2628:2690  beneficiaries[_beneficiary].particularTokenAmount[_id][_token] */\n      0x00\n        /* \"contracts/TokenVesting.sol\":2683:2689  _token */\n      dup12\n        /* \"contracts/TokenVesting.sol\":2628:2690  beneficiaries[_beneficiary].particularTokenAmount[_id][_token] */\n      0xffffffffffffffffffffffffffffffffffffffff\n      and\n      0xffffffffffffffffffffffffffffffffffffffff\n      and\n      dup2\n      mstore\n      0x20\n      add\n      swap1\n      dup2\n      mstore\n      0x20\n      add\n      0x00\n      keccak256\n      sload\n        /* \"contracts/TokenVesting.sol\":2606:2690  uint totalTokenAmount=beneficiaries[_beneficiary].particularTokenAmount[_id][_token] */\n      swap1\n      pop\n        /* \"contracts/TokenVesting.sol\":2730:2742  totalPeriods */\n      dup3\n        /* \"contracts/TokenVesting.sol\":2705:2726  noOfPeriodsSinceStart */\n      dup6\n        /* \"contracts/TokenVesting.sol\":2705:2742  noOfPeriodsSinceStart >= totalPeriods */\n      lt\n        /* \"contracts/TokenVesting.sol\":2701:3100  if (noOfPeriodsSinceStart >= totalPeriods ) {... */\n      tag_74\n      jumpi\n        /* \"contracts/TokenVesting.sol\":2784:2798  releasedTokens */\n      dup2\n        /* \"contracts/TokenVesting.sol\":2767:2783  totalTokenAmount */\n      dup2\n        /* \"contracts/TokenVesting.sol\":2767:2798  totalTokenAmount-releasedTokens */\n      tag_75\n      swap2\n      swap1\n      tag_70\n      jump\t// in\n    tag_75:\n        /* \"contracts/TokenVesting.sol\":2760:2798  return totalTokenAmount-releasedTokens */\n      swap8\n      pop\n      pop\n      pop\n      pop\n      pop\n      pop\n      pop\n      jump(tag_68)\n        /* \"contracts/TokenVesting.sol\":2701:3100  if (noOfPeriodsSinceStart >= totalPeriods ) {... */\n    tag_74:\n        /* \"contracts/TokenVesting.sol\":2841:2869  uint tokensVestedInOnePeriod */\n      0x00\n        /* \"contracts/TokenVesting.sol\":2889:2901  totalPeriods */\n      dup4\n        /* \"contracts/TokenVesting.sol\":2871:2887  totalTokenAmount */\n      dup3\n        /* \"contracts/TokenVesting.sol\":2871:2901  totalTokenAmount/ totalPeriods */\n      tag_77\n      swap2\n      swap1\n      tag_72\n      jump\t// in\n    tag_77:\n        /* \"contracts/TokenVesting.sol\":2841:2901  uint tokensVestedInOnePeriod =totalTokenAmount/ totalPeriods */\n      swap1\n      pop\n        /* \"contracts/TokenVesting.sol\":2916:2937  uint tokensToBeVested */\n      0x00\n        /* \"contracts/TokenVesting.sol\":2966:2987  noOfPeriodsSinceStart */\n      dup7\n        /* \"contracts/TokenVesting.sol\":2940:2963  tokensVestedInOnePeriod */\n      dup3\n        /* \"contracts/TokenVesting.sol\":2940:2987  tokensVestedInOnePeriod * noOfPeriodsSinceStart */\n      tag_78\n      swap2\n      swap1\n      tag_79\n      jump\t// in\n    tag_78:\n        /* \"contracts/TokenVesting.sol\":2916:2987  uint tokensToBeVested = tokensVestedInOnePeriod * noOfPeriodsSinceStart */\n      swap1\n      pop\n        /* \"contracts/TokenVesting.sol\":3036:3050  releasedTokens */\n      dup4\n        /* \"contracts/TokenVesting.sol\":3019:3035  tokensToBeVested */\n      dup2\n        /* \"contracts/TokenVesting.sol\":3019:3050  tokensToBeVested-releasedTokens */\n      tag_80\n      swap2\n      swap1\n      tag_70\n      jump\t// in\n    tag_80:\n        /* \"contracts/TokenVesting.sol\":3002:3050  tokensToBeVested=tokensToBeVested-releasedTokens */\n      swap1\n      pop\n        /* \"contracts/TokenVesting.sol\":3072:3088  tokensToBeVested */\n      dup1\n        /* \"contracts/TokenVesting.sol\":3065:3088  return tokensToBeVested */\n      swap10\n      pop\n      pop\n      pop\n      pop\n      pop\n      pop\n      pop\n      pop\n      pop\n        /* \"contracts/TokenVesting.sol\":733:734  _ */\n    tag_68:\n        /* \"contracts/TokenVesting.sol\":770:783  beneficiaries */\n      0x00\n        /* \"contracts/TokenVesting.sol\":770:797  beneficiaries[_beneficiary] */\n      dup1\n        /* \"contracts/TokenVesting.sol\":784:796  _beneficiary */\n      dup3\n        /* \"contracts/TokenVesting.sol\":770:797  beneficiaries[_beneficiary] */\n      0xffffffffffffffffffffffffffffffffffffffff\n      and\n      0xffffffffffffffffffffffffffffffffffffffff\n      and\n      dup2\n      mstore\n      0x20\n      add\n      swap1\n      dup2\n      mstore\n      0x20\n      add\n      0x00\n      keccak256\n        /* \"contracts/TokenVesting.sol\":770:803  beneficiaries[_beneficiary].cliff */\n      0x02\n      add\n      sload\n        /* \"contracts/TokenVesting.sol\":753:768  block.timestamp */\n      timestamp\n        /* \"contracts/TokenVesting.sol\":753:803  block.timestamp>=beneficiaries[_beneficiary].cliff */\n      lt\n      iszero\n        /* \"contracts/TokenVesting.sol\":745:829  require(block.timestamp>=beneficiaries[_beneficiary].cliff,\"Wait Till Cliff period\") */\n      tag_81\n      jumpi\n      mload(0x40)\n      0x08c379a000000000000000000000000000000000000000000000000000000000\n      dup2\n      mstore\n      0x04\n      add\n      tag_82\n      swap1\n      tag_64\n      jump\t// in\n    tag_82:\n      mload(0x40)\n      dup1\n      swap2\n      sub\n      swap1\n      revert\n    tag_81:\n        /* \"contracts/TokenVesting.sol\":2042:3107  function releasableTokens(address _beneficiary,IERC20 _token, uint _id) internal cliffPeriodOver(_beneficiary) view returns(uint) {... */\n      pop\n      swap4\n      swap3\n      pop\n      pop\n      pop\n      jump\t// out\n        /* \"#utility.yul\":88:205   */\n    tag_84:\n        /* \"#utility.yul\":197:198   */\n      0x00\n        /* \"#utility.yul\":194:195   */\n      dup1\n        /* \"#utility.yul\":187:199   */\n      revert\n        /* \"#utility.yul\":334:460   */\n    tag_86:\n        /* \"#utility.yul\":371:378   */\n      0x00\n        /* \"#utility.yul\":411:453   */\n      0xffffffffffffffffffffffffffffffffffffffff\n        /* \"#utility.yul\":404:409   */\n      dup3\n        /* \"#utility.yul\":400:454   */\n      and\n        /* \"#utility.yul\":389:454   */\n      swap1\n      pop\n        /* \"#utility.yul\":334:460   */\n      swap2\n      swap1\n      pop\n      jump\t// out\n        /* \"#utility.yul\":466:562   */\n    tag_87:\n        /* \"#utility.yul\":503:510   */\n      0x00\n        /* \"#utility.yul\":532:556   */\n      tag_122\n        /* \"#utility.yul\":550:555   */\n      dup3\n        /* \"#utility.yul\":532:556   */\n      tag_86\n      jump\t// in\n    tag_122:\n        /* \"#utility.yul\":521:556   */\n      swap1\n      pop\n        /* \"#utility.yul\":466:562   */\n      swap2\n      swap1\n      pop\n      jump\t// out\n        /* \"#utility.yul\":568:690   */\n    tag_88:\n        /* \"#utility.yul\":641:665   */\n      tag_124\n        /* \"#utility.yul\":659:664   */\n      dup2\n        /* \"#utility.yul\":641:665   */\n      tag_87\n      jump\t// in\n    tag_124:\n        /* \"#utility.yul\":634:639   */\n      dup2\n        /* \"#utility.yul\":631:666   */\n      eq\n        /* \"#utility.yul\":621:684   */\n      tag_125\n      jumpi\n        /* \"#utility.yul\":680:681   */\n      0x00\n        /* \"#utility.yul\":677:678   */\n      dup1\n        /* \"#utility.yul\":670:682   */\n      revert\n        /* \"#utility.yul\":621:684   */\n    tag_125:\n        /* \"#utility.yul\":568:690   */\n      pop\n      jump\t// out\n        /* \"#utility.yul\":696:835   */\n    tag_89:\n        /* \"#utility.yul\":742:747   */\n      0x00\n        /* \"#utility.yul\":780:786   */\n      dup2\n        /* \"#utility.yul\":767:787   */\n      calldataload\n        /* \"#utility.yul\":758:787   */\n      swap1\n      pop\n        /* \"#utility.yul\":796:829   */\n      tag_127\n        /* \"#utility.yul\":823:828   */\n      dup2\n        /* \"#utility.yul\":796:829   */\n      tag_88\n      jump\t// in\n    tag_127:\n        /* \"#utility.yul\":696:835   */\n      swap3\n      swap2\n      pop\n      pop\n      jump\t// out\n        /* \"#utility.yul\":841:1170   */\n    tag_9:\n        /* \"#utility.yul\":900:906   */\n      0x00\n        /* \"#utility.yul\":949:951   */\n      0x20\n        /* \"#utility.yul\":937:946   */\n      dup3\n        /* \"#utility.yul\":928:935   */\n      dup5\n        /* \"#utility.yul\":924:947   */\n      sub\n        /* \"#utility.yul\":920:952   */\n      slt\n        /* \"#utility.yul\":917:1036   */\n      iszero\n      tag_129\n      jumpi\n        /* \"#utility.yul\":955:1034   */\n      tag_130\n      tag_84\n      jump\t// in\n    tag_130:\n        /* \"#utility.yul\":917:1036   */\n    tag_129:\n        /* \"#utility.yul\":1075:1076   */\n      0x00\n        /* \"#utility.yul\":1100:1153   */\n      tag_131\n        /* \"#utility.yul\":1145:1152   */\n      dup5\n        /* \"#utility.yul\":1136:1142   */\n      dup3\n        /* \"#utility.yul\":1125:1134   */\n      dup6\n        /* \"#utility.yul\":1121:1143   */\n      add\n        /* \"#utility.yul\":1100:1153   */\n      tag_89\n      jump\t// in\n    tag_131:\n        /* \"#utility.yul\":1090:1153   */\n      swap2\n      pop\n        /* \"#utility.yul\":1046:1163   */\n      pop\n        /* \"#utility.yul\":841:1170   */\n      swap3\n      swap2\n      pop\n      pop\n      jump\t// out\n        /* \"#utility.yul\":1176:1253   */\n    tag_90:\n        /* \"#utility.yul\":1213:1220   */\n      0x00\n        /* \"#utility.yul\":1242:1247   */\n      dup2\n        /* \"#utility.yul\":1231:1247   */\n      swap1\n      pop\n        /* \"#utility.yul\":1176:1253   */\n      swap2\n      swap1\n      pop\n      jump\t// out\n        /* \"#utility.yul\":1259:1377   */\n    tag_91:\n        /* \"#utility.yul\":1346:1370   */\n      tag_134\n        /* \"#utility.yul\":1364:1369   */\n      dup2\n        /* \"#utility.yul\":1346:1370   */\n      tag_90\n      jump\t// in\n    tag_134:\n        /* \"#utility.yul\":1341:1344   */\n      dup3\n        /* \"#utility.yul\":1334:1371   */\n      mstore\n        /* \"#utility.yul\":1259:1377   */\n      pop\n      pop\n      jump\t// out\n        /* \"#utility.yul\":1383:2047   */\n    tag_12:\n        /* \"#utility.yul\":1588:1592   */\n      0x00\n        /* \"#utility.yul\":1626:1629   */\n      0xa0\n        /* \"#utility.yul\":1615:1624   */\n      dup3\n        /* \"#utility.yul\":1611:1630   */\n      add\n        /* \"#utility.yul\":1603:1630   */\n      swap1\n      pop\n        /* \"#utility.yul\":1640:1711   */\n      tag_136\n        /* \"#utility.yul\":1708:1709   */\n      0x00\n        /* \"#utility.yul\":1697:1706   */\n      dup4\n        /* \"#utility.yul\":1693:1710   */\n      add\n        /* \"#utility.yul\":1684:1690   */\n      dup9\n        /* \"#utility.yul\":1640:1711   */\n      tag_91\n      jump\t// in\n    tag_136:\n        /* \"#utility.yul\":1721:1793   */\n      tag_137\n        /* \"#utility.yul\":1789:1791   */\n      0x20\n        /* \"#utility.yul\":1778:1787   */\n      dup4\n        /* \"#utility.yul\":1774:1792   */\n      add\n        /* \"#utility.yul\":1765:1771   */\n      dup8\n        /* \"#utility.yul\":1721:1793   */\n      tag_91\n      jump\t// in\n    tag_137:\n        /* \"#utility.yul\":1803:1875   */\n      tag_138\n        /* \"#utility.yul\":1871:1873   */\n      0x40\n        /* \"#utility.yul\":1860:1869   */\n      dup4\n        /* \"#utility.yul\":1856:1874   */\n      add\n        /* \"#utility.yul\":1847:1853   */\n      dup7\n        /* \"#utility.yul\":1803:1875   */\n      tag_91\n      jump\t// in\n    tag_138:\n        /* \"#utility.yul\":1885:1957   */\n      tag_139\n        /* \"#utility.yul\":1953:1955   */\n      0x60\n        /* \"#utility.yul\":1942:1951   */\n      dup4\n        /* \"#utility.yul\":1938:1956   */\n      add\n        /* \"#utility.yul\":1929:1935   */\n      dup6\n        /* \"#utility.yul\":1885:1957   */\n      tag_91\n      jump\t// in\n    tag_139:\n        /* \"#utility.yul\":1967:2040   */\n      tag_140\n        /* \"#utility.yul\":2035:2038   */\n      0x80\n        /* \"#utility.yul\":2024:2033   */\n      dup4\n        /* \"#utility.yul\":2020:2039   */\n      add\n        /* \"#utility.yul\":2011:2017   */\n      dup5\n        /* \"#utility.yul\":1967:2040   */\n      tag_91\n      jump\t// in\n    tag_140:\n        /* \"#utility.yul\":1383:2047   */\n      swap7\n      swap6\n      pop\n      pop\n      pop\n      pop\n      pop\n      pop\n      jump\t// out\n        /* \"#utility.yul\":2053:2162   */\n    tag_92:\n        /* \"#utility.yul\":2103:2110   */\n      0x00\n        /* \"#utility.yul\":2132:2156   */\n      tag_142\n        /* \"#utility.yul\":2150:2155   */\n      dup3\n        /* \"#utility.yul\":2132:2156   */\n      tag_87\n      jump\t// in\n    tag_142:\n        /* \"#utility.yul\":2121:2156   */\n      swap1\n      pop\n        /* \"#utility.yul\":2053:2162   */\n      swap2\n      swap1\n      pop\n      jump\t// out\n        /* \"#utility.yul\":2168:2316   */\n    tag_93:\n        /* \"#utility.yul\":2254:2291   */\n      tag_144\n        /* \"#utility.yul\":2285:2290   */\n      dup2\n        /* \"#utility.yul\":2254:2291   */\n      tag_92\n      jump\t// in\n    tag_144:\n        /* \"#utility.yul\":2247:2252   */\n      dup2\n        /* \"#utility.yul\":2244:2292   */\n      eq\n        /* \"#utility.yul\":2234:2310   */\n      tag_145\n      jumpi\n        /* \"#utility.yul\":2306:2307   */\n      0x00\n        /* \"#utility.yul\":2303:2304   */\n      dup1\n        /* \"#utility.yul\":2296:2308   */\n      revert\n        /* \"#utility.yul\":2234:2310   */\n    tag_145:\n        /* \"#utility.yul\":2168:2316   */\n      pop\n      jump\t// out\n        /* \"#utility.yul\":2322:2487   */\n    tag_94:\n        /* \"#utility.yul\":2381:2386   */\n      0x00\n        /* \"#utility.yul\":2419:2425   */\n      dup2\n        /* \"#utility.yul\":2406:2426   */\n      calldataload\n        /* \"#utility.yul\":2397:2426   */\n      swap1\n      pop\n        /* \"#utility.yul\":2435:2481   */\n      tag_147\n        /* \"#utility.yul\":2475:2480   */\n      dup2\n        /* \"#utility.yul\":2435:2481   */\n      tag_93\n      jump\t// in\n    tag_147:\n        /* \"#utility.yul\":2322:2487   */\n      swap3\n      swap2\n      pop\n      pop\n      jump\t// out\n        /* \"#utility.yul\":2493:2615   */\n    tag_95:\n        /* \"#utility.yul\":2566:2590   */\n      tag_149\n        /* \"#utility.yul\":2584:2589   */\n      dup2\n        /* \"#utility.yul\":2566:2590   */\n      tag_90\n      jump\t// in\n    tag_149:\n        /* \"#utility.yul\":2559:2564   */\n      dup2\n        /* \"#utility.yul\":2556:2591   */\n      eq\n        /* \"#utility.yul\":2546:2609   */\n      tag_150\n      jumpi\n        /* \"#utility.yul\":2605:2606   */\n      0x00\n        /* \"#utility.yul\":2602:2603   */\n      dup1\n        /* \"#utility.yul\":2595:2607   */\n      revert\n        /* \"#utility.yul\":2546:2609   */\n    tag_150:\n        /* \"#utility.yul\":2493:2615   */\n      pop\n      jump\t// out\n        /* \"#utility.yul\":2621:2760   */\n    tag_96:\n        /* \"#utility.yul\":2667:2672   */\n      0x00\n        /* \"#utility.yul\":2705:2711   */\n      dup2\n        /* \"#utility.yul\":2692:2712   */\n      calldataload\n        /* \"#utility.yul\":2683:2712   */\n      swap1\n      pop\n        /* \"#utility.yul\":2721:2754   */\n      tag_152\n        /* \"#utility.yul\":2748:2753   */\n      dup2\n        /* \"#utility.yul\":2721:2754   */\n      tag_95\n      jump\t// in\n    tag_152:\n        /* \"#utility.yul\":2621:2760   */\n      swap3\n      swap2\n      pop\n      pop\n      jump\t// out\n        /* \"#utility.yul\":2766:3266   */\n    tag_15:\n        /* \"#utility.yul\":2847:2853   */\n      0x00\n        /* \"#utility.yul\":2855:2861   */\n      dup1\n        /* \"#utility.yul\":2904:2906   */\n      0x40\n        /* \"#utility.yul\":2892:2901   */\n      dup4\n        /* \"#utility.yul\":2883:2890   */\n      dup6\n        /* \"#utility.yul\":2879:2902   */\n      sub\n        /* \"#utility.yul\":2875:2907   */\n      slt\n        /* \"#utility.yul\":2872:2991   */\n      iszero\n      tag_154\n      jumpi\n        /* \"#utility.yul\":2910:2989   */\n      tag_155\n      tag_84\n      jump\t// in\n    tag_155:\n        /* \"#utility.yul\":2872:2991   */\n    tag_154:\n        /* \"#utility.yul\":3030:3031   */\n      0x00\n        /* \"#utility.yul\":3055:3121   */\n      tag_156\n        /* \"#utility.yul\":3113:3120   */\n      dup6\n        /* \"#utility.yul\":3104:3110   */\n      dup3\n        /* \"#utility.yul\":3093:3102   */\n      dup7\n        /* \"#utility.yul\":3089:3111   */\n      add\n        /* \"#utility.yul\":3055:3121   */\n      tag_94\n      jump\t// in\n    tag_156:\n        /* \"#utility.yul\":3045:3121   */\n      swap3\n      pop\n        /* \"#utility.yul\":3001:3131   */\n      pop\n        /* \"#utility.yul\":3170:3172   */\n      0x20\n        /* \"#utility.yul\":3196:3249   */\n      tag_157\n        /* \"#utility.yul\":3241:3248   */\n      dup6\n        /* \"#utility.yul\":3232:3238   */\n      dup3\n        /* \"#utility.yul\":3221:3230   */\n      dup7\n        /* \"#utility.yul\":3217:3239   */\n      add\n        /* \"#utility.yul\":3196:3249   */\n      tag_96\n      jump\t// in\n    tag_157:\n        /* \"#utility.yul\":3186:3249   */\n      swap2\n      pop\n        /* \"#utility.yul\":3141:3259   */\n      pop\n        /* \"#utility.yul\":2766:3266   */\n      swap3\n      pop\n      swap3\n      swap1\n      pop\n      jump\t// out\n        /* \"#utility.yul\":3272:3494   */\n    tag_18:\n        /* \"#utility.yul\":3365:3369   */\n      0x00\n        /* \"#utility.yul\":3403:3405   */\n      0x20\n        /* \"#utility.yul\":3392:3401   */\n      dup3\n        /* \"#utility.yul\":3388:3406   */\n      add\n        /* \"#utility.yul\":3380:3406   */\n      swap1\n      pop\n        /* \"#utility.yul\":3416:3487   */\n      tag_159\n        /* \"#utility.yul\":3484:3485   */\n      0x00\n        /* \"#utility.yul\":3473:3482   */\n      dup4\n        /* \"#utility.yul\":3469:3486   */\n      add\n        /* \"#utility.yul\":3460:3466   */\n      dup5\n        /* \"#utility.yul\":3416:3487   */\n      tag_91\n      jump\t// in\n    tag_159:\n        /* \"#utility.yul\":3272:3494   */\n      swap3\n      swap2\n      pop\n      pop\n      jump\t// out\n        /* \"#utility.yul\":3500:4583   */\n    tag_21:\n        /* \"#utility.yul\":3617:3623   */\n      0x00\n        /* \"#utility.yul\":3625:3631   */\n      dup1\n        /* \"#utility.yul\":3633:3639   */\n      0x00\n        /* \"#utility.yul\":3641:3647   */\n      dup1\n        /* \"#utility.yul\":3649:3655   */\n      0x00\n        /* \"#utility.yul\":3657:3663   */\n      dup1\n        /* \"#utility.yul\":3706:3709   */\n      0xc0\n        /* \"#utility.yul\":3694:3703   */\n      dup8\n        /* \"#utility.yul\":3685:3692   */\n      dup10\n        /* \"#utility.yul\":3681:3704   */\n      sub\n        /* \"#utility.yul\":3677:3710   */\n      slt\n        /* \"#utility.yul\":3674:3794   */\n      iszero\n      tag_161\n      jumpi\n        /* \"#utility.yul\":3713:3792   */\n      tag_162\n      tag_84\n      jump\t// in\n    tag_162:\n        /* \"#utility.yul\":3674:3794   */\n    tag_161:\n        /* \"#utility.yul\":3833:3834   */\n      0x00\n        /* \"#utility.yul\":3858:3911   */\n      tag_163\n        /* \"#utility.yul\":3903:3910   */\n      dup10\n        /* \"#utility.yul\":3894:3900   */\n      dup3\n        /* \"#utility.yul\":3883:3892   */\n      dup11\n        /* \"#utility.yul\":3879:3901   */\n      add\n        /* \"#utility.yul\":3858:3911   */\n      tag_89\n      jump\t// in\n    tag_163:\n        /* \"#utility.yul\":3848:3911   */\n      swap7\n      pop\n        /* \"#utility.yul\":3804:3921   */\n      pop\n        /* \"#utility.yul\":3960:3962   */\n      0x20\n        /* \"#utility.yul\":3986:4039   */\n      tag_164\n        /* \"#utility.yul\":4031:4038   */\n      dup10\n        /* \"#utility.yul\":4022:4028   */\n      dup3\n        /* \"#utility.yul\":4011:4020   */\n      dup11\n        /* \"#utility.yul\":4007:4029   */\n      add\n        /* \"#utility.yul\":3986:4039   */\n      tag_96\n      jump\t// in\n    tag_164:\n        /* \"#utility.yul\":3976:4039   */\n      swap6\n      pop\n        /* \"#utility.yul\":3931:4049   */\n      pop\n        /* \"#utility.yul\":4088:4090   */\n      0x40\n        /* \"#utility.yul\":4114:4167   */\n      tag_165\n        /* \"#utility.yul\":4159:4166   */\n      dup10\n        /* \"#utility.yul\":4150:4156   */\n      dup3\n        /* \"#utility.yul\":4139:4148   */\n      dup11\n        /* \"#utility.yul\":4135:4157   */\n      add\n        /* \"#utility.yul\":4114:4167   */\n      tag_96\n      jump\t// in\n    tag_165:\n        /* \"#utility.yul\":4104:4167   */\n      swap5\n      pop\n        /* \"#utility.yul\":4059:4177   */\n      pop\n        /* \"#utility.yul\":4216:4218   */\n      0x60\n        /* \"#utility.yul\":4242:4295   */\n      tag_166\n        /* \"#utility.yul\":4287:4294   */\n      dup10\n        /* \"#utility.yul\":4278:4284   */\n      dup3\n        /* \"#utility.yul\":4267:4276   */\n      dup11\n        /* \"#utility.yul\":4263:4285   */\n      add\n        /* \"#utility.yul\":4242:4295   */\n      tag_96\n      jump\t// in\n    tag_166:\n        /* \"#utility.yul\":4232:4295   */\n      swap4\n      pop\n        /* \"#utility.yul\":4187:4305   */\n      pop\n        /* \"#utility.yul\":4344:4347   */\n      0x80\n        /* \"#utility.yul\":4371:4424   */\n      tag_167\n        /* \"#utility.yul\":4416:4423   */\n      dup10\n        /* \"#utility.yul\":4407:4413   */\n      dup3\n        /* \"#utility.yul\":4396:4405   */\n      dup11\n        /* \"#utility.yul\":4392:4414   */\n      add\n        /* \"#utility.yul\":4371:4424   */\n      tag_96\n      jump\t// in\n    tag_167:\n        /* \"#utility.yul\":4361:4424   */\n      swap3\n      pop\n        /* \"#utility.yul\":4315:4434   */\n      pop\n        /* \"#utility.yul\":4473:4476   */\n      0xa0\n        /* \"#utility.yul\":4500:4566   */\n      tag_168\n        /* \"#utility.yul\":4558:4565   */\n      dup10\n        /* \"#utility.yul\":4549:4555   */\n      dup3\n        /* \"#utility.yul\":4538:4547   */\n      dup11\n        /* \"#utility.yul\":4534:4556   */\n      add\n        /* \"#utility.yul\":4500:4566   */\n      tag_94\n      jump\t// in\n    tag_168:\n        /* \"#utility.yul\":4490:4566   */\n      swap2\n      pop\n        /* \"#utility.yul\":4444:4576   */\n      pop\n        /* \"#utility.yul\":3500:4583   */\n      swap3\n      swap6\n      pop\n      swap3\n      swap6\n      pop\n      swap3\n      swap6\n      jump\t// out\n        /* \"#utility.yul\":4589:5234   */\n    tag_25:\n        /* \"#utility.yul\":4679:4685   */\n      0x00\n        /* \"#utility.yul\":4687:4693   */\n      dup1\n        /* \"#utility.yul\":4695:4701   */\n      0x00\n        /* \"#utility.yul\":4744:4746   */\n      0x60\n        /* \"#utility.yul\":4732:4741   */\n      dup5\n        /* \"#utility.yul\":4723:4730   */\n      dup7\n        /* \"#utility.yul\":4719:4742   */\n      sub\n        /* \"#utility.yul\":4715:4747   */\n      slt\n        /* \"#utility.yul\":4712:4831   */\n      iszero\n      tag_170\n      jumpi\n        /* \"#utility.yul\":4750:4829   */\n      tag_171\n      tag_84\n      jump\t// in\n    tag_171:\n        /* \"#utility.yul\":4712:4831   */\n    tag_170:\n        /* \"#utility.yul\":4870:4871   */\n      0x00\n        /* \"#utility.yul\":4895:4948   */\n      tag_172\n        /* \"#utility.yul\":4940:4947   */\n      dup7\n        /* \"#utility.yul\":4931:4937   */\n      dup3\n        /* \"#utility.yul\":4920:4929   */\n      dup8\n        /* \"#utility.yul\":4916:4938   */\n      add\n        /* \"#utility.yul\":4895:4948   */\n      tag_89\n      jump\t// in\n    tag_172:\n        /* \"#utility.yul\":4885:4948   */\n      swap4\n      pop\n        /* \"#utility.yul\":4841:4958   */\n      pop\n        /* \"#utility.yul\":4997:4999   */\n      0x20\n        /* \"#utility.yul\":5023:5089   */\n      tag_173\n        /* \"#utility.yul\":5081:5088   */\n      dup7\n        /* \"#utility.yul\":5072:5078   */\n      dup3\n        /* \"#utility.yul\":5061:5070   */\n      dup8\n        /* \"#utility.yul\":5057:5079   */\n      add\n        /* \"#utility.yul\":5023:5089   */\n      tag_94\n      jump\t// in\n    tag_173:\n        /* \"#utility.yul\":5013:5089   */\n      swap3\n      pop\n        /* \"#utility.yul\":4968:5099   */\n      pop\n        /* \"#utility.yul\":5138:5140   */\n      0x40\n        /* \"#utility.yul\":5164:5217   */\n      tag_174\n        /* \"#utility.yul\":5209:5216   */\n      dup7\n        /* \"#utility.yul\":5200:5206   */\n      dup3\n        /* \"#utility.yul\":5189:5198   */\n      dup8\n        /* \"#utility.yul\":5185:5207   */\n      add\n        /* \"#utility.yul\":5164:5217   */\n      tag_96\n      jump\t// in\n    tag_174:\n        /* \"#utility.yul\":5154:5217   */\n      swap2\n      pop\n        /* \"#utility.yul\":5109:5227   */\n      pop\n        /* \"#utility.yul\":4589:5234   */\n      swap3\n      pop\n      swap3\n      pop\n      swap3\n      jump\t// out\n        /* \"#utility.yul\":5240:5420   */\n    tag_97:\n        /* \"#utility.yul\":5288:5365   */\n      0x4e487b7100000000000000000000000000000000000000000000000000000000\n        /* \"#utility.yul\":5285:5286   */\n      0x00\n        /* \"#utility.yul\":5278:5366   */\n      mstore\n        /* \"#utility.yul\":5385:5389   */\n      0x11\n        /* \"#utility.yul\":5382:5383   */\n      0x04\n        /* \"#utility.yul\":5375:5390   */\n      mstore\n        /* \"#utility.yul\":5409:5413   */\n      0x24\n        /* \"#utility.yul\":5406:5407   */\n      0x00\n        /* \"#utility.yul\":5399:5414   */\n      revert\n        /* \"#utility.yul\":5426:5617   */\n    tag_31:\n        /* \"#utility.yul\":5466:5469   */\n      0x00\n        /* \"#utility.yul\":5485:5505   */\n      tag_177\n        /* \"#utility.yul\":5503:5504   */\n      dup3\n        /* \"#utility.yul\":5485:5505   */\n      tag_90\n      jump\t// in\n    tag_177:\n        /* \"#utility.yul\":5480:5505   */\n      swap2\n      pop\n        /* \"#utility.yul\":5519:5539   */\n      tag_178\n        /* \"#utility.yul\":5537:5538   */\n      dup4\n        /* \"#utility.yul\":5519:5539   */\n      tag_90\n      jump\t// in\n    tag_178:\n        /* \"#utility.yul\":5514:5539   */\n      swap3\n      pop\n        /* \"#utility.yul\":5562:5563   */\n      dup3\n        /* \"#utility.yul\":5559:5560   */\n      dup3\n        /* \"#utility.yul\":5555:5564   */\n      add\n        /* \"#utility.yul\":5548:5564   */\n      swap1\n      pop\n        /* \"#utility.yul\":5583:5586   */\n      dup1\n        /* \"#utility.yul\":5580:5581   */\n      dup3\n        /* \"#utility.yul\":5577:5587   */\n      gt\n        /* \"#utility.yul\":5574:5610   */\n      iszero\n      tag_179\n      jumpi\n        /* \"#utility.yul\":5590:5608   */\n      tag_180\n      tag_97\n      jump\t// in\n    tag_180:\n        /* \"#utility.yul\":5574:5610   */\n    tag_179:\n        /* \"#utility.yul\":5426:5617   */\n      swap3\n      swap2\n      pop\n      pop\n      jump\t// out\n        /* \"#utility.yul\":5623:5741   */\n    tag_98:\n        /* \"#utility.yul\":5710:5734   */\n      tag_182\n        /* \"#utility.yul\":5728:5733   */\n      dup2\n        /* \"#utility.yul\":5710:5734   */\n      tag_87\n      jump\t// in\n    tag_182:\n        /* \"#utility.yul\":5705:5708   */\n      dup3\n        /* \"#utility.yul\":5698:5735   */\n      mstore\n        /* \"#utility.yul\":5623:5741   */\n      pop\n      pop\n      jump\t// out\n        /* \"#utility.yul\":5747:6189   */\n    tag_33:\n        /* \"#utility.yul\":5896:5900   */\n      0x00\n        /* \"#utility.yul\":5934:5936   */\n      0x60\n        /* \"#utility.yul\":5923:5932   */\n      dup3\n        /* \"#utility.yul\":5919:5937   */\n      add\n        /* \"#utility.yul\":5911:5937   */\n      swap1\n      pop\n        /* \"#utility.yul\":5947:6018   */\n      tag_184\n        /* \"#utility.yul\":6015:6016   */\n      0x00\n        /* \"#utility.yul\":6004:6013   */\n      dup4\n        /* \"#utility.yul\":6000:6017   */\n      add\n        /* \"#utility.yul\":5991:5997   */\n      dup7\n        /* \"#utility.yul\":5947:6018   */\n      tag_98\n      jump\t// in\n    tag_184:\n        /* \"#utility.yul\":6028:6100   */\n      tag_185\n        /* \"#utility.yul\":6096:6098   */\n      0x20\n        /* \"#utility.yul\":6085:6094   */\n      dup4\n        /* \"#utility.yul\":6081:6099   */\n      add\n        /* \"#utility.yul\":6072:6078   */\n      dup6\n        /* \"#utility.yul\":6028:6100   */\n      tag_98\n      jump\t// in\n    tag_185:\n        /* \"#utility.yul\":6110:6182   */\n      tag_186\n        /* \"#utility.yul\":6178:6180   */\n      0x40\n        /* \"#utility.yul\":6167:6176   */\n      dup4\n        /* \"#utility.yul\":6163:6181   */\n      add\n        /* \"#utility.yul\":6154:6160   */\n      dup5\n        /* \"#utility.yul\":6110:6182   */\n      tag_91\n      jump\t// in\n    tag_186:\n        /* \"#utility.yul\":5747:6189   */\n      swap5\n      swap4\n      pop\n      pop\n      pop\n      pop\n      jump\t// out\n        /* \"#utility.yul\":6195:6285   */\n    tag_99:\n        /* \"#utility.yul\":6229:6236   */\n      0x00\n        /* \"#utility.yul\":6272:6277   */\n      dup2\n        /* \"#utility.yul\":6265:6278   */\n      iszero\n        /* \"#utility.yul\":6258:6279   */\n      iszero\n        /* \"#utility.yul\":6247:6279   */\n      swap1\n      pop\n        /* \"#utility.yul\":6195:6285   */\n      swap2\n      swap1\n      pop\n      jump\t// out\n        /* \"#utility.yul\":6291:6407   */\n    tag_100:\n        /* \"#utility.yul\":6361:6382   */\n      tag_189\n        /* \"#utility.yul\":6376:6381   */\n      dup2\n        /* \"#utility.yul\":6361:6382   */\n      tag_99\n      jump\t// in\n    tag_189:\n        /* \"#utility.yul\":6354:6359   */\n      dup2\n        /* \"#utility.yul\":6351:6383   */\n      eq\n        /* \"#utility.yul\":6341:6401   */\n      tag_190\n      jumpi\n        /* \"#utility.yul\":6397:6398   */\n      0x00\n        /* \"#utility.yul\":6394:6395   */\n      dup1\n        /* \"#utility.yul\":6387:6399   */\n      revert\n        /* \"#utility.yul\":6341:6401   */\n    tag_190:\n        /* \"#utility.yul\":6291:6407   */\n      pop\n      jump\t// out\n        /* \"#utility.yul\":6413:6550   */\n    tag_101:\n        /* \"#utility.yul\":6467:6472   */\n      0x00\n        /* \"#utility.yul\":6498:6504   */\n      dup2\n        /* \"#utility.yul\":6492:6505   */\n      mload\n        /* \"#utility.yul\":6483:6505   */\n      swap1\n      pop\n        /* \"#utility.yul\":6514:6544   */\n      tag_192\n        /* \"#utility.yul\":6538:6543   */\n      dup2\n        /* \"#utility.yul\":6514:6544   */\n      tag_100\n      jump\t// in\n    tag_192:\n        /* \"#utility.yul\":6413:6550   */\n      swap3\n      swap2\n      pop\n      pop\n      jump\t// out\n        /* \"#utility.yul\":6556:6901   */\n    tag_37:\n        /* \"#utility.yul\":6623:6629   */\n      0x00\n        /* \"#utility.yul\":6672:6674   */\n      0x20\n        /* \"#utility.yul\":6660:6669   */\n      dup3\n        /* \"#utility.yul\":6651:6658   */\n      dup5\n        /* \"#utility.yul\":6647:6670   */\n      sub\n        /* \"#utility.yul\":6643:6675   */\n      slt\n        /* \"#utility.yul\":6640:6759   */\n      iszero\n      tag_194\n      jumpi\n        /* \"#utility.yul\":6678:6757   */\n      tag_195\n      tag_84\n      jump\t// in\n    tag_195:\n        /* \"#utility.yul\":6640:6759   */\n    tag_194:\n        /* \"#utility.yul\":6798:6799   */\n      0x00\n        /* \"#utility.yul\":6823:6884   */\n      tag_196\n        /* \"#utility.yul\":6876:6883   */\n      dup5\n        /* \"#utility.yul\":6867:6873   */\n      dup3\n        /* \"#utility.yul\":6856:6865   */\n      dup6\n        /* \"#utility.yul\":6852:6874   */\n      add\n        /* \"#utility.yul\":6823:6884   */\n      tag_101\n      jump\t// in\n    tag_196:\n        /* \"#utility.yul\":6813:6884   */\n      swap2\n      pop\n        /* \"#utility.yul\":6769:6894   */\n      pop\n        /* \"#utility.yul\":6556:6901   */\n      swap3\n      swap2\n      pop\n      pop\n      jump\t// out\n        /* \"#utility.yul\":6907:7076   */\n    tag_102:\n        /* \"#utility.yul\":6991:7002   */\n      0x00\n        /* \"#utility.yul\":7025:7031   */\n      dup3\n        /* \"#utility.yul\":7020:7023   */\n      dup3\n        /* \"#utility.yul\":7013:7032   */\n      mstore\n        /* \"#utility.yul\":7065:7069   */\n      0x20\n        /* \"#utility.yul\":7060:7063   */\n      dup3\n        /* \"#utility.yul\":7056:7070   */\n      add\n        /* \"#utility.yul\":7041:7070   */\n      swap1\n      pop\n        /* \"#utility.yul\":6907:7076   */\n      swap3\n      swap2\n      pop\n      pop\n      jump\t// out\n        /* \"#utility.yul\":7082:7305   */\n    tag_103:\n        /* \"#utility.yul\":7222:7256   */\n      0x546f6b656e7320617265204c6f636b656420696e20736d61727420636f6e7472\n        /* \"#utility.yul\":7218:7219   */\n      0x00\n        /* \"#utility.yul\":7210:7216   */\n      dup3\n        /* \"#utility.yul\":7206:7220   */\n      add\n        /* \"#utility.yul\":7199:7257   */\n      mstore\n        /* \"#utility.yul\":7291:7297   */\n      0x6163742000000000000000000000000000000000000000000000000000000000\n        /* \"#utility.yul\":7286:7288   */\n      0x20\n        /* \"#utility.yul\":7278:7284   */\n      dup3\n        /* \"#utility.yul\":7274:7289   */\n      add\n        /* \"#utility.yul\":7267:7298   */\n      mstore\n        /* \"#utility.yul\":7082:7305   */\n      pop\n      jump\t// out\n        /* \"#utility.yul\":7311:7677   */\n    tag_104:\n        /* \"#utility.yul\":7453:7456   */\n      0x00\n        /* \"#utility.yul\":7474:7541   */\n      tag_200\n        /* \"#utility.yul\":7538:7540   */\n      0x24\n        /* \"#utility.yul\":7533:7536   */\n      dup4\n        /* \"#utility.yul\":7474:7541   */\n      tag_102\n      jump\t// in\n    tag_200:\n        /* \"#utility.yul\":7467:7541   */\n      swap2\n      pop\n        /* \"#utility.yul\":7550:7643   */\n      tag_201\n        /* \"#utility.yul\":7639:7642   */\n      dup3\n        /* \"#utility.yul\":7550:7643   */\n      tag_103\n      jump\t// in\n    tag_201:\n        /* \"#utility.yul\":7668:7670   */\n      0x40\n        /* \"#utility.yul\":7663:7666   */\n      dup3\n        /* \"#utility.yul\":7659:7671   */\n      add\n        /* \"#utility.yul\":7652:7671   */\n      swap1\n      pop\n        /* \"#utility.yul\":7311:7677   */\n      swap2\n      swap1\n      pop\n      jump\t// out\n        /* \"#utility.yul\":7683:8212   */\n    tag_39:\n        /* \"#utility.yul\":7877:7881   */\n      0x00\n        /* \"#utility.yul\":7915:7917   */\n      0x40\n        /* \"#utility.yul\":7904:7913   */\n      dup3\n        /* \"#utility.yul\":7900:7918   */\n      add\n        /* \"#utility.yul\":7892:7918   */\n      swap1\n      pop\n        /* \"#utility.yul\":7928:7999   */\n      tag_203\n        /* \"#utility.yul\":7996:7997   */\n      0x00\n        /* \"#utility.yul\":7985:7994   */\n      dup4\n        /* \"#utility.yul\":7981:7998   */\n      add\n        /* \"#utility.yul\":7972:7978   */\n      dup5\n        /* \"#utility.yul\":7928:7999   */\n      tag_98\n      jump\t// in\n    tag_203:\n        /* \"#utility.yul\":8046:8055   */\n      dup2\n        /* \"#utility.yul\":8040:8044   */\n      dup2\n        /* \"#utility.yul\":8036:8056   */\n      sub\n        /* \"#utility.yul\":8031:8033   */\n      0x20\n        /* \"#utility.yul\":8020:8029   */\n      dup4\n        /* \"#utility.yul\":8016:8034   */\n      add\n        /* \"#utility.yul\":8009:8057   */\n      mstore\n        /* \"#utility.yul\":8074:8205   */\n      tag_204\n        /* \"#utility.yul\":8200:8204   */\n      dup2\n        /* \"#utility.yul\":8074:8205   */\n      tag_104\n      jump\t// in\n    tag_204:\n        /* \"#utility.yul\":8066:8205   */\n      swap1\n      pop\n        /* \"#utility.yul\":7683:8212   */\n      swap3\n      swap2\n      pop\n      pop\n      jump\t// out\n        /* \"#utility.yul\":8218:8449   */\n    tag_105:\n        /* \"#utility.yul\":8358:8392   */\n      0x4f6e6c792042656e65666963696172792063616e204c6f636b20616e64205265\n        /* \"#utility.yul\":8354:8355   */\n      0x00\n        /* \"#utility.yul\":8346:8352   */\n      dup3\n        /* \"#utility.yul\":8342:8356   */\n      add\n        /* \"#utility.yul\":8335:8393   */\n      mstore\n        /* \"#utility.yul\":8427:8441   */\n      0x6c6561736520546f6b656e730000000000000000000000000000000000000000\n        /* \"#utility.yul\":8422:8424   */\n      0x20\n        /* \"#utility.yul\":8414:8420   */\n      dup3\n        /* \"#utility.yul\":8410:8425   */\n      add\n        /* \"#utility.yul\":8403:8442   */\n      mstore\n        /* \"#utility.yul\":8218:8449   */\n      pop\n      jump\t// out\n        /* \"#utility.yul\":8455:8821   */\n    tag_106:\n        /* \"#utility.yul\":8597:8600   */\n      0x00\n        /* \"#utility.yul\":8618:8685   */\n      tag_207\n        /* \"#utility.yul\":8682:8684   */\n      0x2c\n        /* \"#utility.yul\":8677:8680   */\n      dup4\n        /* \"#utility.yul\":8618:8685   */\n      tag_102\n      jump\t// in\n    tag_207:\n        /* \"#utility.yul\":8611:8685   */\n      swap2\n      pop\n        /* \"#utility.yul\":8694:8787   */\n      tag_208\n        /* \"#utility.yul\":8783:8786   */\n      dup3\n        /* \"#utility.yul\":8694:8787   */\n      tag_105\n      jump\t// in\n    tag_208:\n        /* \"#utility.yul\":8812:8814   */\n      0x40\n        /* \"#utility.yul\":8807:8810   */\n      dup3\n        /* \"#utility.yul\":8803:8815   */\n      add\n        /* \"#utility.yul\":8796:8815   */\n      swap1\n      pop\n        /* \"#utility.yul\":8455:8821   */\n      swap2\n      swap1\n      pop\n      jump\t// out\n        /* \"#utility.yul\":8827:9246   */\n    tag_42:\n        /* \"#utility.yul\":8993:8997   */\n      0x00\n        /* \"#utility.yul\":9031:9033   */\n      0x20\n        /* \"#utility.yul\":9020:9029   */\n      dup3\n        /* \"#utility.yul\":9016:9034   */\n      add\n        /* \"#utility.yul\":9008:9034   */\n      swap1\n      pop\n        /* \"#utility.yul\":9080:9089   */\n      dup2\n        /* \"#utility.yul\":9074:9078   */\n      dup2\n        /* \"#utility.yul\":9070:9090   */\n      sub\n        /* \"#utility.yul\":9066:9067   */\n      0x00\n        /* \"#utility.yul\":9055:9064   */\n      dup4\n        /* \"#utility.yul\":9051:9068   */\n      add\n        /* \"#utility.yul\":9044:9091   */\n      mstore\n        /* \"#utility.yul\":9108:9239   */\n      tag_210\n        /* \"#utility.yul\":9234:9238   */\n      dup2\n        /* \"#utility.yul\":9108:9239   */\n      tag_106\n      jump\t// in\n    tag_210:\n        /* \"#utility.yul\":9100:9239   */\n      swap1\n      pop\n        /* \"#utility.yul\":8827:9246   */\n      swap2\n      swap1\n      pop\n      jump\t// out\n        /* \"#utility.yul\":9252:9485   */\n    tag_107:\n        /* \"#utility.yul\":9392:9426   */\n      0x546f6b656e7320436c61696d696e67206172652067726561746572207468616e\n        /* \"#utility.yul\":9388:9389   */\n      0x00\n        /* \"#utility.yul\":9380:9386   */\n      dup3\n        /* \"#utility.yul\":9376:9390   */\n      add\n        /* \"#utility.yul\":9369:9427   */\n      mstore\n        /* \"#utility.yul\":9461:9477   */\n      0x20746f6b656e73206c6f636b6564000000000000000000000000000000000000\n        /* \"#utility.yul\":9456:9458   */\n      0x20\n        /* \"#utility.yul\":9448:9454   */\n      dup3\n        /* \"#utility.yul\":9444:9459   */\n      add\n        /* \"#utility.yul\":9437:9478   */\n      mstore\n        /* \"#utility.yul\":9252:9485   */\n      pop\n      jump\t// out\n        /* \"#utility.yul\":9491:9857   */\n    tag_108:\n        /* \"#utility.yul\":9633:9636   */\n      0x00\n        /* \"#utility.yul\":9654:9721   */\n      tag_213\n        /* \"#utility.yul\":9718:9720   */\n      0x2e\n        /* \"#utility.yul\":9713:9716   */\n      dup4\n        /* \"#utility.yul\":9654:9721   */\n      tag_102\n      jump\t// in\n    tag_213:\n        /* \"#utility.yul\":9647:9721   */\n      swap2\n      pop\n        /* \"#utility.yul\":9730:9823   */\n      tag_214\n        /* \"#utility.yul\":9819:9822   */\n      dup3\n        /* \"#utility.yul\":9730:9823   */\n      tag_107\n      jump\t// in\n    tag_214:\n        /* \"#utility.yul\":9848:9850   */\n      0x40\n        /* \"#utility.yul\":9843:9846   */\n      dup3\n        /* \"#utility.yul\":9839:9851   */\n      add\n        /* \"#utility.yul\":9832:9851   */\n      swap1\n      pop\n        /* \"#utility.yul\":9491:9857   */\n      swap2\n      swap1\n      pop\n      jump\t// out\n        /* \"#utility.yul\":9863:10282   */\n    tag_50:\n        /* \"#utility.yul\":10029:10033   */\n      0x00\n        /* \"#utility.yul\":10067:10069   */\n      0x20\n        /* \"#utility.yul\":10056:10065   */\n      dup3\n        /* \"#utility.yul\":10052:10070   */\n      add\n        /* \"#utility.yul\":10044:10070   */\n      swap1\n      pop\n        /* \"#utility.yul\":10116:10125   */\n      dup2\n        /* \"#utility.yul\":10110:10114   */\n      dup2\n        /* \"#utility.yul\":10106:10126   */\n      sub\n        /* \"#utility.yul\":10102:10103   */\n      0x00\n        /* \"#utility.yul\":10091:10100   */\n      dup4\n        /* \"#utility.yul\":10087:10104   */\n      add\n        /* \"#utility.yul\":10080:10127   */\n      mstore\n        /* \"#utility.yul\":10144:10275   */\n      tag_216\n        /* \"#utility.yul\":10270:10274   */\n      dup2\n        /* \"#utility.yul\":10144:10275   */\n      tag_108\n      jump\t// in\n    tag_216:\n        /* \"#utility.yul\":10136:10275   */\n      swap1\n      pop\n        /* \"#utility.yul\":9863:10282   */\n      swap2\n      swap1\n      pop\n      jump\t// out\n        /* \"#utility.yul\":10288:10454   */\n    tag_109:\n        /* \"#utility.yul\":10428:10446   */\n      0x43616e6e6f7420436c61696d204e6f7700000000000000000000000000000000\n        /* \"#utility.yul\":10424:10425   */\n      0x00\n        /* \"#utility.yul\":10416:10422   */\n      dup3\n        /* \"#utility.yul\":10412:10426   */\n      add\n        /* \"#utility.yul\":10405:10447   */\n      mstore\n        /* \"#utility.yul\":10288:10454   */\n      pop\n      jump\t// out\n        /* \"#utility.yul\":10460:10826   */\n    tag_110:\n        /* \"#utility.yul\":10602:10605   */\n      0x00\n        /* \"#utility.yul\":10623:10690   */\n      tag_219\n        /* \"#utility.yul\":10687:10689   */\n      0x10\n        /* \"#utility.yul\":10682:10685   */\n      dup4\n        /* \"#utility.yul\":10623:10690   */\n      tag_102\n      jump\t// in\n    tag_219:\n        /* \"#utility.yul\":10616:10690   */\n      swap2\n      pop\n        /* \"#utility.yul\":10699:10792   */\n      tag_220\n        /* \"#utility.yul\":10788:10791   */\n      dup3\n        /* \"#utility.yul\":10699:10792   */\n      tag_109\n      jump\t// in\n    tag_220:\n        /* \"#utility.yul\":10817:10819   */\n      0x20\n        /* \"#utility.yul\":10812:10815   */\n      dup3\n        /* \"#utility.yul\":10808:10820   */\n      add\n        /* \"#utility.yul\":10801:10820   */\n      swap1\n      pop\n        /* \"#utility.yul\":10460:10826   */\n      swap2\n      swap1\n      pop\n      jump\t// out\n        /* \"#utility.yul\":10832:11251   */\n    tag_53:\n        /* \"#utility.yul\":10998:11002   */\n      0x00\n        /* \"#utility.yul\":11036:11038   */\n      0x20\n        /* \"#utility.yul\":11025:11034   */\n      dup3\n        /* \"#utility.yul\":11021:11039   */\n      add\n        /* \"#utility.yul\":11013:11039   */\n      swap1\n      pop\n        /* \"#utility.yul\":11085:11094   */\n      dup2\n        /* \"#utility.yul\":11079:11083   */\n      dup2\n        /* \"#utility.yul\":11075:11095   */\n      sub\n        /* \"#utility.yul\":11071:11072   */\n      0x00\n        /* \"#utility.yul\":11060:11069   */\n      dup4\n        /* \"#utility.yul\":11056:11073   */\n      add\n        /* \"#utility.yul\":11049:11096   */\n      mstore\n        /* \"#utility.yul\":11113:11244   */\n      tag_222\n        /* \"#utility.yul\":11239:11243   */\n      dup2\n        /* \"#utility.yul\":11113:11244   */\n      tag_110\n      jump\t// in\n    tag_222:\n        /* \"#utility.yul\":11105:11244   */\n      swap1\n      pop\n        /* \"#utility.yul\":10832:11251   */\n      swap2\n      swap1\n      pop\n      jump\t// out\n        /* \"#utility.yul\":11257:11589   */\n    tag_56:\n        /* \"#utility.yul\":11378:11382   */\n      0x00\n        /* \"#utility.yul\":11416:11418   */\n      0x40\n        /* \"#utility.yul\":11405:11414   */\n      dup3\n        /* \"#utility.yul\":11401:11419   */\n      add\n        /* \"#utility.yul\":11393:11419   */\n      swap1\n      pop\n        /* \"#utility.yul\":11429:11500   */\n      tag_224\n        /* \"#utility.yul\":11497:11498   */\n      0x00\n        /* \"#utility.yul\":11486:11495   */\n      dup4\n        /* \"#utility.yul\":11482:11499   */\n      add\n        /* \"#utility.yul\":11473:11479   */\n      dup6\n        /* \"#utility.yul\":11429:11500   */\n      tag_98\n      jump\t// in\n    tag_224:\n        /* \"#utility.yul\":11510:11582   */\n      tag_225\n        /* \"#utility.yul\":11578:11580   */\n      0x20\n        /* \"#utility.yul\":11567:11576   */\n      dup4\n        /* \"#utility.yul\":11563:11581   */\n      add\n        /* \"#utility.yul\":11554:11560   */\n      dup5\n        /* \"#utility.yul\":11510:11582   */\n      tag_91\n      jump\t// in\n    tag_225:\n        /* \"#utility.yul\":11257:11589   */\n      swap4\n      swap3\n      pop\n      pop\n      pop\n      jump\t// out\n        /* \"#utility.yul\":11595:11828   */\n    tag_111:\n        /* \"#utility.yul\":11735:11769   */\n      0x546f6b656e73206172652052656c656173656420696e206163636f756e74206f\n        /* \"#utility.yul\":11731:11732   */\n      0x00\n        /* \"#utility.yul\":11723:11729   */\n      dup3\n        /* \"#utility.yul\":11719:11733   */\n      add\n        /* \"#utility.yul\":11712:11770   */\n      mstore\n        /* \"#utility.yul\":11804:11820   */\n      0x662062656e656669636961727920000000000000000000000000000000000000\n        /* \"#utility.yul\":11799:11801   */\n      0x20\n        /* \"#utility.yul\":11791:11797   */\n      dup3\n        /* \"#utility.yul\":11787:11802   */\n      add\n        /* \"#utility.yul\":11780:11821   */\n      mstore\n        /* \"#utility.yul\":11595:11828   */\n      pop\n      jump\t// out\n        /* \"#utility.yul\":11834:12200   */\n    tag_112:\n        /* \"#utility.yul\":11976:11979   */\n      0x00\n        /* \"#utility.yul\":11997:12064   */\n      tag_228\n        /* \"#utility.yul\":12061:12063   */\n      0x2e\n        /* \"#utility.yul\":12056:12059   */\n      dup4\n        /* \"#utility.yul\":11997:12064   */\n      tag_102\n      jump\t// in\n    tag_228:\n        /* \"#utility.yul\":11990:12064   */\n      swap2\n      pop\n        /* \"#utility.yul\":12073:12166   */\n      tag_229\n        /* \"#utility.yul\":12162:12165   */\n      dup3\n        /* \"#utility.yul\":12073:12166   */\n      tag_111\n      jump\t// in\n    tag_229:\n        /* \"#utility.yul\":12191:12193   */\n      0x40\n        /* \"#utility.yul\":12186:12189   */\n      dup3\n        /* \"#utility.yul\":12182:12194   */\n      add\n        /* \"#utility.yul\":12175:12194   */\n      swap1\n      pop\n        /* \"#utility.yul\":11834:12200   */\n      swap2\n      swap1\n      pop\n      jump\t// out\n        /* \"#utility.yul\":12206:12735   */\n    tag_61:\n        /* \"#utility.yul\":12400:12404   */\n      0x00\n        /* \"#utility.yul\":12438:12440   */\n      0x40\n        /* \"#utility.yul\":12427:12436   */\n      dup3\n        /* \"#utility.yul\":12423:12441   */\n      add\n        /* \"#utility.yul\":12415:12441   */\n      swap1\n      pop\n        /* \"#utility.yul\":12451:12522   */\n      tag_231\n        /* \"#utility.yul\":12519:12520   */\n      0x00\n        /* \"#utility.yul\":12508:12517   */\n      dup4\n        /* \"#utility.yul\":12504:12521   */\n      add\n        /* \"#utility.yul\":12495:12501   */\n      dup5\n        /* \"#utility.yul\":12451:12522   */\n      tag_98\n      jump\t// in\n    tag_231:\n        /* \"#utility.yul\":12569:12578   */\n      dup2\n        /* \"#utility.yul\":12563:12567   */\n      dup2\n        /* \"#utility.yul\":12559:12579   */\n      sub\n        /* \"#utility.yul\":12554:12556   */\n      0x20\n        /* \"#utility.yul\":12543:12552   */\n      dup4\n        /* \"#utility.yul\":12539:12557   */\n      add\n        /* \"#utility.yul\":12532:12580   */\n      mstore\n        /* \"#utility.yul\":12597:12728   */\n      tag_232\n        /* \"#utility.yul\":12723:12727   */\n      dup2\n        /* \"#utility.yul\":12597:12728   */\n      tag_112\n      jump\t// in\n    tag_232:\n        /* \"#utility.yul\":12589:12728   */\n      swap1\n      pop\n        /* \"#utility.yul\":12206:12735   */\n      swap3\n      swap2\n      pop\n      pop\n      jump\t// out\n        /* \"#utility.yul\":12741:12913   */\n    tag_113:\n        /* \"#utility.yul\":12881:12905   */\n      0x576169742054696c6c20436c69666620706572696f6400000000000000000000\n        /* \"#utility.yul\":12877:12878   */\n      0x00\n        /* \"#utility.yul\":12869:12875   */\n      dup3\n        /* \"#utility.yul\":12865:12879   */\n      add\n        /* \"#utility.yul\":12858:12906   */\n      mstore\n        /* \"#utility.yul\":12741:12913   */\n      pop\n      jump\t// out\n        /* \"#utility.yul\":12919:13285   */\n    tag_114:\n        /* \"#utility.yul\":13061:13064   */\n      0x00\n        /* \"#utility.yul\":13082:13149   */\n      tag_235\n        /* \"#utility.yul\":13146:13148   */\n      0x16\n        /* \"#utility.yul\":13141:13144   */\n      dup4\n        /* \"#utility.yul\":13082:13149   */\n      tag_102\n      jump\t// in\n    tag_235:\n        /* \"#utility.yul\":13075:13149   */\n      swap2\n      pop\n        /* \"#utility.yul\":13158:13251   */\n      tag_236\n        /* \"#utility.yul\":13247:13250   */\n      dup3\n        /* \"#utility.yul\":13158:13251   */\n      tag_113\n      jump\t// in\n    tag_236:\n        /* \"#utility.yul\":13276:13278   */\n      0x20\n        /* \"#utility.yul\":13271:13274   */\n      dup3\n        /* \"#utility.yul\":13267:13279   */\n      add\n        /* \"#utility.yul\":13260:13279   */\n      swap1\n      pop\n        /* \"#utility.yul\":12919:13285   */\n      swap2\n      swap1\n      pop\n      jump\t// out\n        /* \"#utility.yul\":13291:13710   */\n    tag_64:\n        /* \"#utility.yul\":13457:13461   */\n      0x00\n        /* \"#utility.yul\":13495:13497   */\n      0x20\n        /* \"#utility.yul\":13484:13493   */\n      dup3\n        /* \"#utility.yul\":13480:13498   */\n      add\n        /* \"#utility.yul\":13472:13498   */\n      swap1\n      pop\n        /* \"#utility.yul\":13544:13553   */\n      dup2\n        /* \"#utility.yul\":13538:13542   */\n      dup2\n        /* \"#utility.yul\":13534:13554   */\n      sub\n        /* \"#utility.yul\":13530:13531   */\n      0x00\n        /* \"#utility.yul\":13519:13528   */\n      dup4\n        /* \"#utility.yul\":13515:13532   */\n      add\n        /* \"#utility.yul\":13508:13555   */\n      mstore\n        /* \"#utility.yul\":13572:13703   */\n      tag_238\n        /* \"#utility.yul\":13698:13702   */\n      dup2\n        /* \"#utility.yul\":13572:13703   */\n      tag_114\n      jump\t// in\n    tag_238:\n        /* \"#utility.yul\":13564:13703   */\n      swap1\n      pop\n        /* \"#utility.yul\":13291:13710   */\n      swap2\n      swap1\n      pop\n      jump\t// out\n        /* \"#utility.yul\":13716:13910   */\n    tag_70:\n        /* \"#utility.yul\":13756:13760   */\n      0x00\n        /* \"#utility.yul\":13776:13796   */\n      tag_240\n        /* \"#utility.yul\":13794:13795   */\n      dup3\n        /* \"#utility.yul\":13776:13796   */\n      tag_90\n      jump\t// in\n    tag_240:\n        /* \"#utility.yul\":13771:13796   */\n      swap2\n      pop\n        /* \"#utility.yul\":13810:13830   */\n      tag_241\n        /* \"#utility.yul\":13828:13829   */\n      dup4\n        /* \"#utility.yul\":13810:13830   */\n      tag_90\n      jump\t// in\n    tag_241:\n        /* \"#utility.yul\":13805:13830   */\n      swap3\n      pop\n        /* \"#utility.yul\":13854:13855   */\n      dup3\n        /* \"#utility.yul\":13851:13852   */\n      dup3\n        /* \"#utility.yul\":13847:13856   */\n      sub\n        /* \"#utility.yul\":13839:13856   */\n      swap1\n      pop\n        /* \"#utility.yul\":13878:13879   */\n      dup2\n        /* \"#utility.yul\":13872:13876   */\n      dup2\n        /* \"#utility.yul\":13869:13880   */\n      gt\n        /* \"#utility.yul\":13866:13903   */\n      iszero\n      tag_242\n      jumpi\n        /* \"#utility.yul\":13883:13901   */\n      tag_243\n      tag_97\n      jump\t// in\n    tag_243:\n        /* \"#utility.yul\":13866:13903   */\n    tag_242:\n        /* \"#utility.yul\":13716:13910   */\n      swap3\n      swap2\n      pop\n      pop\n      jump\t// out\n        /* \"#utility.yul\":13916:14096   */\n    tag_115:\n        /* \"#utility.yul\":13964:14041   */\n      0x4e487b7100000000000000000000000000000000000000000000000000000000\n        /* \"#utility.yul\":13961:13962   */\n      0x00\n        /* \"#utility.yul\":13954:14042   */\n      mstore\n        /* \"#utility.yul\":14061:14065   */\n      0x12\n        /* \"#utility.yul\":14058:14059   */\n      0x04\n        /* \"#utility.yul\":14051:14066   */\n      mstore\n        /* \"#utility.yul\":14085:14089   */\n      0x24\n        /* \"#utility.yul\":14082:14083   */\n      0x00\n        /* \"#utility.yul\":14075:14090   */\n      revert\n        /* \"#utility.yul\":14102:14287   */\n    tag_72:\n        /* \"#utility.yul\":14142:14143   */\n      0x00\n        /* \"#utility.yul\":14159:14179   */\n      tag_246\n        /* \"#utility.yul\":14177:14178   */\n      dup3\n        /* \"#utility.yul\":14159:14179   */\n      tag_90\n      jump\t// in\n    tag_246:\n        /* \"#utility.yul\":14154:14179   */\n      swap2\n      pop\n        /* \"#utility.yul\":14193:14213   */\n      tag_247\n        /* \"#utility.yul\":14211:14212   */\n      dup4\n        /* \"#utility.yul\":14193:14213   */\n      tag_90\n      jump\t// in\n    tag_247:\n        /* \"#utility.yul\":14188:14213   */\n      swap3\n      pop\n        /* \"#utility.yul\":14232:14233   */\n      dup3\n        /* \"#utility.yul\":14222:14257   */\n      tag_248\n      jumpi\n        /* \"#utility.yul\":14237:14255   */\n      tag_249\n      tag_115\n      jump\t// in\n    tag_249:\n        /* \"#utility.yul\":14222:14257   */\n    tag_248:\n        /* \"#utility.yul\":14279:14280   */\n      dup3\n        /* \"#utility.yul\":14276:14277   */\n      dup3\n        /* \"#utility.yul\":14272:14281   */\n      div\n        /* \"#utility.yul\":14267:14281   */\n      swap1\n      pop\n        /* \"#utility.yul\":14102:14287   */\n      swap3\n      swap2\n      pop\n      pop\n      jump\t// out\n        /* \"#utility.yul\":14293:14703   */\n    tag_79:\n        /* \"#utility.yul\":14333:14340   */\n      0x00\n        /* \"#utility.yul\":14356:14376   */\n      tag_251\n        /* \"#utility.yul\":14374:14375   */\n      dup3\n        /* \"#utility.yul\":14356:14376   */\n      tag_90\n      jump\t// in\n    tag_251:\n        /* \"#utility.yul\":14351:14376   */\n      swap2\n      pop\n        /* \"#utility.yul\":14390:14410   */\n      tag_252\n        /* \"#utility.yul\":14408:14409   */\n      dup4\n        /* \"#utility.yul\":14390:14410   */\n      tag_90\n      jump\t// in\n    tag_252:\n        /* \"#utility.yul\":14385:14410   */\n      swap3\n      pop\n        /* \"#utility.yul\":14445:14446   */\n      dup3\n        /* \"#utility.yul\":14442:14443   */\n      dup3\n        /* \"#utility.yul\":14438:14447   */\n      mul\n        /* \"#utility.yul\":14467:14497   */\n      tag_253\n        /* \"#utility.yul\":14485:14496   */\n      dup2\n        /* \"#utility.yul\":14467:14497   */\n      tag_90\n      jump\t// in\n    tag_253:\n        /* \"#utility.yul\":14456:14497   */\n      swap2\n      pop\n        /* \"#utility.yul\":14646:14647   */\n      dup3\n        /* \"#utility.yul\":14637:14644   */\n      dup3\n        /* \"#utility.yul\":14633:14648   */\n      div\n        /* \"#utility.yul\":14630:14631   */\n      dup5\n        /* \"#utility.yul\":14627:14649   */\n      eq\n        /* \"#utility.yul\":14607:14608   */\n      dup4\n        /* \"#utility.yul\":14600:14609   */\n      iszero\n        /* \"#utility.yul\":14580:14663   */\n      or\n        /* \"#utility.yul\":14557:14696   */\n      tag_254\n      jumpi\n        /* \"#utility.yul\":14676:14694   */\n      tag_255\n      tag_97\n      jump\t// in\n    tag_255:\n        /* \"#utility.yul\":14557:14696   */\n    tag_254:\n        /* \"#utility.yul\":14341:14703   */\n      pop\n        /* \"#utility.yul\":14293:14703   */\n      swap3\n      swap2\n      pop\n      pop\n      jump\t// out\n\n    auxdata: 0xa2646970667358221220486af949362794d2fc2492f7ac7ce4abf56ca7d37f733e0a911df8697daf0da064736f6c63430008120033\n}\n",
				"bytecode": {
					"linkReferences": {},
					"object": "608060405234801561001057600080fd5b506112c7806100206000396000f3fe608060405234801561001057600080fd5b506004361061004c5760003560e01c8063015677391461005157806380157b801461008557806394be50cb146100b5578063b505c6ef146100d1575b600080fd5b61006b60048036038101906100669190610af9565b6100ed565b60405161007c959493929190610b3f565b60405180910390f35b61009f600480360381019061009a9190610bfc565b610123565b6040516100ac9190610c3c565b60405180910390f35b6100cf60048036038101906100ca9190610c57565b6101c2565b005b6100eb60048036038101906100e69190610ce4565b6103d0565b005b60006020528060005260406000206000915090508060000154908060010154908060020154908060030154908060040154905085565b6000806000803373ffffffffffffffffffffffffffffffffffffffff1673ffffffffffffffffffffffffffffffffffffffff168152602001908152602001600020600601600084815260200190815260200160002060008573ffffffffffffffffffffffffffffffffffffffff1673ffffffffffffffffffffffffffffffffffffffff1681526020019081526020016000205490508091505092915050565b8560008060008973ffffffffffffffffffffffffffffffffffffffff1673ffffffffffffffffffffffffffffffffffffffff1681526020019081526020016000209050848160010181905550858160020181905550838160030181905550428160040181905550868160050160008360000154815260200190815260200160002060008573ffffffffffffffffffffffffffffffffffffffff1673ffffffffffffffffffffffffffffffffffffffff1681526020019081526020016000208190555060018160000160008282546102999190610d66565b925050819055508273ffffffffffffffffffffffffffffffffffffffff166323b872dd33308a6040518463ffffffff1660e01b81526004016102dd93929190610da9565b6020604051808303816000875af11580156102fc573d6000803e3d6000fd5b505050506040513d601f19601f820116820180604052508101906103209190610e18565b507f58061f685b438748cf21469042b11fe4dfb0c77fd2da64032c5adc017fc09a88886040516103509190610ec8565b60405180910390a1508073ffffffffffffffffffffffffffffffffffffffff163373ffffffffffffffffffffffffffffffffffffffff16146103c7576040517f08c379a00000000000000000000000000000000000000000000000000000000081526004016103be90610f68565b60405180910390fd5b50505050505050565b828360006103df86868661074c565b90506000808773ffffffffffffffffffffffffffffffffffffffff1673ffffffffffffffffffffffffffffffffffffffff168152602001908152602001600020600501600085815260200190815260200160002060008673ffffffffffffffffffffffffffffffffffffffff1673ffffffffffffffffffffffffffffffffffffffff168152602001908152602001600020548111156104b3576040517f08c379a00000000000000000000000000000000000000000000000000000000081526004016104aa90610ffa565b60405180910390fd5b600081116104f6576040517f08c379a00000000000000000000000000000000000000000000000000000000081526004016104ed90611066565b60405180910390fd5b806000808873ffffffffffffffffffffffffffffffffffffffff1673ffffffffffffffffffffffffffffffffffffffff168152602001908152602001600020600601600086815260200190815260200160002060008773ffffffffffffffffffffffffffffffffffffffff1673ffffffffffffffffffffffffffffffffffffffff16815260200190815260200160002060008282546105959190610d66565b925050819055508473ffffffffffffffffffffffffffffffffffffffff1663a9059cbb87836040518363ffffffff1660e01b81526004016105d7929190611086565b6020604051808303816000875af11580156105f6573d6000803e3d6000fd5b505050506040513d601f19601f8201168201806040525081019061061a9190610e18565b507fa13f186497986e7b059df4137d98a76d0cb346d0e9a294755b01975e190434a98660405161064a9190611121565b60405180910390a1506000808273ffffffffffffffffffffffffffffffffffffffff1673ffffffffffffffffffffffffffffffffffffffff168152602001908152602001600020600201544210156106d7576040517f08c379a00000000000000000000000000000000000000000000000000000000081526004016106ce9061119b565b60405180910390fd5b508073ffffffffffffffffffffffffffffffffffffffff163373ffffffffffffffffffffffffffffffffffffffff1614610746576040517f08c379a000000000000000000000000000000000000000000000000000000000815260040161073d90610f68565b60405180910390fd5b50505050565b60008360008060008773ffffffffffffffffffffffffffffffffffffffff1673ffffffffffffffffffffffffffffffffffffffff168152602001908152602001600020600401544261079e91906111bb565b905060008060008873ffffffffffffffffffffffffffffffffffffffff1673ffffffffffffffffffffffffffffffffffffffff16815260200190815260200160002060030154826107ef919061121e565b905060008060008973ffffffffffffffffffffffffffffffffffffffff1673ffffffffffffffffffffffffffffffffffffffff16815260200190815260200160002060010154905060008060008a73ffffffffffffffffffffffffffffffffffffffff1673ffffffffffffffffffffffffffffffffffffffff1681526020019081526020016000206003015482610886919061121e565b905060008060008b73ffffffffffffffffffffffffffffffffffffffff1673ffffffffffffffffffffffffffffffffffffffff168152602001908152602001600020600601600089815260200190815260200160002060008a73ffffffffffffffffffffffffffffffffffffffff1673ffffffffffffffffffffffffffffffffffffffff16815260200190815260200160002054905060008060008c73ffffffffffffffffffffffffffffffffffffffff1673ffffffffffffffffffffffffffffffffffffffff16815260200190815260200160002060050160008a815260200190815260200160002060008b73ffffffffffffffffffffffffffffffffffffffff1673ffffffffffffffffffffffffffffffffffffffff1681526020019081526020016000205490508285106109d05781816109c391906111bb565b9750505050505050610a0a565b600083826109de919061121e565b9050600086826109ee919061124f565b905083816109fc91906111bb565b905080995050505050505050505b6000808273ffffffffffffffffffffffffffffffffffffffff1673ffffffffffffffffffffffffffffffffffffffff16815260200190815260200160002060020154421015610a8e576040517f08c379a0000000000000000000000000000000000000000000000000000000008152600401610a859061119b565b60405180910390fd5b509392505050565b600080fd5b600073ffffffffffffffffffffffffffffffffffffffff82169050919050565b6000610ac682610a9b565b9050919050565b610ad681610abb565b8114610ae157600080fd5b50565b600081359050610af381610acd565b92915050565b600060208284031215610b0f57610b0e610a96565b5b6000610b1d84828501610ae4565b91505092915050565b6000819050919050565b610b3981610b26565b82525050565b600060a082019050610b546000830188610b30565b610b616020830187610b30565b610b6e6040830186610b30565b610b7b6060830185610b30565b610b886080830184610b30565b9695505050505050565b6000610b9d82610abb565b9050919050565b610bad81610b92565b8114610bb857600080fd5b50565b600081359050610bca81610ba4565b92915050565b610bd981610b26565b8114610be457600080fd5b50565b600081359050610bf681610bd0565b92915050565b60008060408385031215610c1357610c12610a96565b5b6000610c2185828601610bbb565b9250506020610c3285828601610be7565b9150509250929050565b6000602082019050610c516000830184610b30565b92915050565b60008060008060008060c08789031215610c7457610c73610a96565b5b6000610c8289828a01610ae4565b9650506020610c9389828a01610be7565b9550506040610ca489828a01610be7565b9450506060610cb589828a01610be7565b9350506080610cc689828a01610be7565b92505060a0610cd789828a01610bbb565b9150509295509295509295565b600080600060608486031215610cfd57610cfc610a96565b5b6000610d0b86828701610ae4565b9350506020610d1c86828701610bbb565b9250506040610d2d86828701610be7565b9150509250925092565b7f4e487b7100000000000000000000000000000000000000000000000000000000600052601160045260246000fd5b6000610d7182610b26565b9150610d7c83610b26565b9250828201905080821115610d9457610d93610d37565b5b92915050565b610da381610abb565b82525050565b6000606082019050610dbe6000830186610d9a565b610dcb6020830185610d9a565b610dd86040830184610b30565b949350505050565b60008115159050919050565b610df581610de0565b8114610e0057600080fd5b50565b600081519050610e1281610dec565b92915050565b600060208284031215610e2e57610e2d610a96565b5b6000610e3c84828501610e03565b91505092915050565b600082825260208201905092915050565b7f546f6b656e7320617265204c6f636b656420696e20736d61727420636f6e747260008201527f6163742000000000000000000000000000000000000000000000000000000000602082015250565b6000610eb2602483610e45565b9150610ebd82610e56565b604082019050919050565b6000604082019050610edd6000830184610d9a565b8181036020830152610eee81610ea5565b905092915050565b7f4f6e6c792042656e65666963696172792063616e204c6f636b20616e6420526560008201527f6c6561736520546f6b656e730000000000000000000000000000000000000000602082015250565b6000610f52602c83610e45565b9150610f5d82610ef6565b604082019050919050565b60006020820190508181036000830152610f8181610f45565b9050919050565b7f546f6b656e7320436c61696d696e67206172652067726561746572207468616e60008201527f20746f6b656e73206c6f636b6564000000000000000000000000000000000000602082015250565b6000610fe4602e83610e45565b9150610fef82610f88565b604082019050919050565b6000602082019050818103600083015261101381610fd7565b9050919050565b7f43616e6e6f7420436c61696d204e6f7700000000000000000000000000000000600082015250565b6000611050601083610e45565b915061105b8261101a565b602082019050919050565b6000602082019050818103600083015261107f81611043565b9050919050565b600060408201905061109b6000830185610d9a565b6110a86020830184610b30565b9392505050565b7f546f6b656e73206172652052656c656173656420696e206163636f756e74206f60008201527f662062656e656669636961727920000000000000000000000000000000000000602082015250565b600061110b602e83610e45565b9150611116826110af565b604082019050919050565b60006040820190506111366000830184610d9a565b8181036020830152611147816110fe565b905092915050565b7f576169742054696c6c20436c69666620706572696f6400000000000000000000600082015250565b6000611185601683610e45565b91506111908261114f565b602082019050919050565b600060208201905081810360008301526111b481611178565b9050919050565b60006111c682610b26565b91506111d183610b26565b92508282039050818111156111e9576111e8610d37565b5b92915050565b7f4e487b7100000000000000000000000000000000000000000000000000000000600052601260045260246000fd5b600061122982610b26565b915061123483610b26565b925082611244576112436111ef565b5b828204905092915050565b600061125a82610b26565b915061126583610b26565b925082820261127381610b26565b9150828204841483151761128a57611289610d37565b5b509291505056fea2646970667358221220486af949362794d2fc2492f7ac7ce4abf56ca7d37f733e0a911df8697daf0da064736f6c63430008120033",
					"opcodes": "PUSH1 0x80 PUSH1 0x40 MSTORE CALLVALUE DUP1 ISZERO PUSH2 0x10 JUMPI PUSH1 0x0 DUP1 REVERT JUMPDEST POP PUSH2 0x12C7 DUP1 PUSH2 0x20 PUSH1 0x0 CODECOPY PUSH1 0x0 RETURN INVALID PUSH1 0x80 PUSH1 0x40 MSTORE CALLVALUE DUP1 ISZERO PUSH2 0x10 JUMPI PUSH1 0x0 DUP1 REVERT JUMPDEST POP PUSH1 0x4 CALLDATASIZE LT PUSH2 0x4C JUMPI PUSH1 0x0 CALLDATALOAD PUSH1 0xE0 SHR DUP1 PUSH4 0x1567739 EQ PUSH2 0x51 JUMPI DUP1 PUSH4 0x80157B80 EQ PUSH2 0x85 JUMPI DUP1 PUSH4 0x94BE50CB EQ PUSH2 0xB5 JUMPI DUP1 PUSH4 0xB505C6EF EQ PUSH2 0xD1 JUMPI JUMPDEST PUSH1 0x0 DUP1 REVERT JUMPDEST PUSH2 0x6B PUSH1 0x4 DUP1 CALLDATASIZE SUB DUP2 ADD SWAP1 PUSH2 0x66 SWAP2 SWAP1 PUSH2 0xAF9 JUMP JUMPDEST PUSH2 0xED JUMP JUMPDEST PUSH1 0x40 MLOAD PUSH2 0x7C SWAP6 SWAP5 SWAP4 SWAP3 SWAP2 SWAP1 PUSH2 0xB3F JUMP JUMPDEST PUSH1 0x40 MLOAD DUP1 SWAP2 SUB SWAP1 RETURN JUMPDEST PUSH2 0x9F PUSH1 0x4 DUP1 CALLDATASIZE SUB DUP2 ADD SWAP1 PUSH2 0x9A SWAP2 SWAP1 PUSH2 0xBFC JUMP JUMPDEST PUSH2 0x123 JUMP JUMPDEST PUSH1 0x40 MLOAD PUSH2 0xAC SWAP2 SWAP1 PUSH2 0xC3C JUMP JUMPDEST PUSH1 0x40 MLOAD DUP1 SWAP2 SUB SWAP1 RETURN JUMPDEST PUSH2 0xCF PUSH1 0x4 DUP1 CALLDATASIZE SUB DUP2 ADD SWAP1 PUSH2 0xCA SWAP2 SWAP1 PUSH2 0xC57 JUMP JUMPDEST PUSH2 0x1C2 JUMP JUMPDEST STOP JUMPDEST PUSH2 0xEB PUSH1 0x4 DUP1 CALLDATASIZE SUB DUP2 ADD SWAP1 PUSH2 0xE6 SWAP2 SWAP1 PUSH2 0xCE4 JUMP JUMPDEST PUSH2 0x3D0 JUMP JUMPDEST STOP JUMPDEST PUSH1 0x0 PUSH1 0x20 MSTORE DUP1 PUSH1 0x0 MSTORE PUSH1 0x40 PUSH1 0x0 KECCAK256 PUSH1 0x0 SWAP2 POP SWAP1 POP DUP1 PUSH1 0x0 ADD SLOAD SWAP1 DUP1 PUSH1 0x1 ADD SLOAD SWAP1 DUP1 PUSH1 0x2 ADD SLOAD SWAP1 DUP1 PUSH1 0x3 ADD SLOAD SWAP1 DUP1 PUSH1 0x4 ADD SLOAD SWAP1 POP DUP6 JUMP JUMPDEST PUSH1 0x0 DUP1 PUSH1 0x0 DUP1 CALLER PUSH20 0xFFFFFFFFFFFFFFFFFFFFFFFFFFFFFFFFFFFFFFFF AND PUSH20 0xFFFFFFFFFFFFFFFFFFFFFFFFFFFFFFFFFFFFFFFF AND DUP2 MSTORE PUSH1 0x20 ADD SWAP1 DUP2 MSTORE PUSH1 0x20 ADD PUSH1 0x0 KECCAK256 PUSH1 0x6 ADD PUSH1 0x0 DUP5 DUP2 MSTORE PUSH1 0x20 ADD SWAP1 DUP2 MSTORE PUSH1 0x20 ADD PUSH1 0x0 KECCAK256 PUSH1 0x0 DUP6 PUSH20 0xFFFFFFFFFFFFFFFFFFFFFFFFFFFFFFFFFFFFFFFF AND PUSH20 0xFFFFFFFFFFFFFFFFFFFFFFFFFFFFFFFFFFFFFFFF AND DUP2 MSTORE PUSH1 0x20 ADD SWAP1 DUP2 MSTORE PUSH1 0x20 ADD PUSH1 0x0 KECCAK256 SLOAD SWAP1 POP DUP1 SWAP2 POP POP SWAP3 SWAP2 POP POP JUMP JUMPDEST DUP6 PUSH1 0x0 DUP1 PUSH1 0x0 DUP10 PUSH20 0xFFFFFFFFFFFFFFFFFFFFFFFFFFFFFFFFFFFFFFFF AND PUSH20 0xFFFFFFFFFFFFFFFFFFFFFFFFFFFFFFFFFFFFFFFF AND DUP2 MSTORE PUSH1 0x20 ADD SWAP1 DUP2 MSTORE PUSH1 0x20 ADD PUSH1 0x0 KECCAK256 SWAP1 POP DUP5 DUP2 PUSH1 0x1 ADD DUP2 SWAP1 SSTORE POP DUP6 DUP2 PUSH1 0x2 ADD DUP2 SWAP1 SSTORE POP DUP4 DUP2 PUSH1 0x3 ADD DUP2 SWAP1 SSTORE POP TIMESTAMP DUP2 PUSH1 0x4 ADD DUP2 SWAP1 SSTORE POP DUP7 DUP2 PUSH1 0x5 ADD PUSH1 0x0 DUP4 PUSH1 0x0 ADD SLOAD DUP2 MSTORE PUSH1 0x20 ADD SWAP1 DUP2 MSTORE PUSH1 0x20 ADD PUSH1 0x0 KECCAK256 PUSH1 0x0 DUP6 PUSH20 0xFFFFFFFFFFFFFFFFFFFFFFFFFFFFFFFFFFFFFFFF AND PUSH20 0xFFFFFFFFFFFFFFFFFFFFFFFFFFFFFFFFFFFFFFFF AND DUP2 MSTORE PUSH1 0x20 ADD SWAP1 DUP2 MSTORE PUSH1 0x20 ADD PUSH1 0x0 KECCAK256 DUP2 SWAP1 SSTORE POP PUSH1 0x1 DUP2 PUSH1 0x0 ADD PUSH1 0x0 DUP3 DUP3 SLOAD PUSH2 0x299 SWAP2 SWAP1 PUSH2 0xD66 JUMP JUMPDEST SWAP3 POP POP DUP2 SWAP1 SSTORE POP DUP3 PUSH20 0xFFFFFFFFFFFFFFFFFFFFFFFFFFFFFFFFFFFFFFFF AND PUSH4 0x23B872DD CALLER ADDRESS DUP11 PUSH1 0x40 MLOAD DUP5 PUSH4 0xFFFFFFFF AND PUSH1 0xE0 SHL DUP2 MSTORE PUSH1 0x4 ADD PUSH2 0x2DD SWAP4 SWAP3 SWAP2 SWAP1 PUSH2 0xDA9 JUMP JUMPDEST PUSH1 0x20 PUSH1 0x40 MLOAD DUP1 DUP4 SUB DUP2 PUSH1 0x0 DUP8 GAS CALL ISZERO DUP1 ISZERO PUSH2 0x2FC JUMPI RETURNDATASIZE PUSH1 0x0 DUP1 RETURNDATACOPY RETURNDATASIZE PUSH1 0x0 REVERT JUMPDEST POP POP POP POP PUSH1 0x40 MLOAD RETURNDATASIZE PUSH1 0x1F NOT PUSH1 0x1F DUP3 ADD AND DUP3 ADD DUP1 PUSH1 0x40 MSTORE POP DUP2 ADD SWAP1 PUSH2 0x320 SWAP2 SWAP1 PUSH2 0xE18 JUMP JUMPDEST POP PUSH32 0x58061F685B438748CF21469042B11FE4DFB0C77FD2DA64032C5ADC017FC09A88 DUP9 PUSH1 0x40 MLOAD PUSH2 0x350 SWAP2 SWAP1 PUSH2 0xEC8 JUMP JUMPDEST PUSH1 0x40 MLOAD DUP1 SWAP2 SUB SWAP1 LOG1 POP DUP1 PUSH20 0xFFFFFFFFFFFFFFFFFFFFFFFFFFFFFFFFFFFFFFFF AND CALLER PUSH20 0xFFFFFFFFFFFFFFFFFFFFFFFFFFFFFFFFFFFFFFFF AND EQ PUSH2 0x3C7 JUMPI PUSH1 0x40 MLOAD PUSH32 0x8C379A000000000000000000000000000000000000000000000000000000000 DUP2 MSTORE PUSH1 0x4 ADD PUSH2 0x3BE SWAP1 PUSH2 0xF68 JUMP JUMPDEST PUSH1 0x40 MLOAD DUP1 SWAP2 SUB SWAP1 REVERT JUMPDEST POP POP POP POP POP POP POP JUMP JUMPDEST DUP3 DUP4 PUSH1 0x0 PUSH2 0x3DF DUP7 DUP7 DUP7 PUSH2 0x74C JUMP JUMPDEST SWAP1 POP PUSH1 0x0 DUP1 DUP8 PUSH20 0xFFFFFFFFFFFFFFFFFFFFFFFFFFFFFFFFFFFFFFFF AND PUSH20 0xFFFFFFFFFFFFFFFFFFFFFFFFFFFFFFFFFFFFFFFF AND DUP2 MSTORE PUSH1 0x20 ADD SWAP1 DUP2 MSTORE PUSH1 0x20 ADD PUSH1 0x0 KECCAK256 PUSH1 0x5 ADD PUSH1 0x0 DUP6 DUP2 MSTORE PUSH1 0x20 ADD SWAP1 DUP2 MSTORE PUSH1 0x20 ADD PUSH1 0x0 KECCAK256 PUSH1 0x0 DUP7 PUSH20 0xFFFFFFFFFFFFFFFFFFFFFFFFFFFFFFFFFFFFFFFF AND PUSH20 0xFFFFFFFFFFFFFFFFFFFFFFFFFFFFFFFFFFFFFFFF AND DUP2 MSTORE PUSH1 0x20 ADD SWAP1 DUP2 MSTORE PUSH1 0x20 ADD PUSH1 0x0 KECCAK256 SLOAD DUP2 GT ISZERO PUSH2 0x4B3 JUMPI PUSH1 0x40 MLOAD PUSH32 0x8C379A000000000000000000000000000000000000000000000000000000000 DUP2 MSTORE PUSH1 0x4 ADD PUSH2 0x4AA SWAP1 PUSH2 0xFFA JUMP JUMPDEST PUSH1 0x40 MLOAD DUP1 SWAP2 SUB SWAP1 REVERT JUMPDEST PUSH1 0x0 DUP2 GT PUSH2 0x4F6 JUMPI PUSH1 0x40 MLOAD PUSH32 0x8C379A000000000000000000000000000000000000000000000000000000000 DUP2 MSTORE PUSH1 0x4 ADD PUSH2 0x4ED SWAP1 PUSH2 0x1066 JUMP JUMPDEST PUSH1 0x40 MLOAD DUP1 SWAP2 SUB SWAP1 REVERT JUMPDEST DUP1 PUSH1 0x0 DUP1 DUP9 PUSH20 0xFFFFFFFFFFFFFFFFFFFFFFFFFFFFFFFFFFFFFFFF AND PUSH20 0xFFFFFFFFFFFFFFFFFFFFFFFFFFFFFFFFFFFFFFFF AND DUP2 MSTORE PUSH1 0x20 ADD SWAP1 DUP2 MSTORE PUSH1 0x20 ADD PUSH1 0x0 KECCAK256 PUSH1 0x6 ADD PUSH1 0x0 DUP7 DUP2 MSTORE PUSH1 0x20 ADD SWAP1 DUP2 MSTORE PUSH1 0x20 ADD PUSH1 0x0 KECCAK256 PUSH1 0x0 DUP8 PUSH20 0xFFFFFFFFFFFFFFFFFFFFFFFFFFFFFFFFFFFFFFFF AND PUSH20 0xFFFFFFFFFFFFFFFFFFFFFFFFFFFFFFFFFFFFFFFF AND DUP2 MSTORE PUSH1 0x20 ADD SWAP1 DUP2 MSTORE PUSH1 0x20 ADD PUSH1 0x0 KECCAK256 PUSH1 0x0 DUP3 DUP3 SLOAD PUSH2 0x595 SWAP2 SWAP1 PUSH2 0xD66 JUMP JUMPDEST SWAP3 POP POP DUP2 SWAP1 SSTORE POP DUP5 PUSH20 0xFFFFFFFFFFFFFFFFFFFFFFFFFFFFFFFFFFFFFFFF AND PUSH4 0xA9059CBB DUP8 DUP4 PUSH1 0x40 MLOAD DUP4 PUSH4 0xFFFFFFFF AND PUSH1 0xE0 SHL DUP2 MSTORE PUSH1 0x4 ADD PUSH2 0x5D7 SWAP3 SWAP2 SWAP1 PUSH2 0x1086 JUMP JUMPDEST PUSH1 0x20 PUSH1 0x40 MLOAD DUP1 DUP4 SUB DUP2 PUSH1 0x0 DUP8 GAS CALL ISZERO DUP1 ISZERO PUSH2 0x5F6 JUMPI RETURNDATASIZE PUSH1 0x0 DUP1 RETURNDATACOPY RETURNDATASIZE PUSH1 0x0 REVERT JUMPDEST POP POP POP POP PUSH1 0x40 MLOAD RETURNDATASIZE PUSH1 0x1F NOT PUSH1 0x1F DUP3 ADD AND DUP3 ADD DUP1 PUSH1 0x40 MSTORE POP DUP2 ADD SWAP1 PUSH2 0x61A SWAP2 SWAP1 PUSH2 0xE18 JUMP JUMPDEST POP PUSH32 0xA13F186497986E7B059DF4137D98A76D0CB346D0E9A294755B01975E190434A9 DUP7 PUSH1 0x40 MLOAD PUSH2 0x64A SWAP2 SWAP1 PUSH2 0x1121 JUMP JUMPDEST PUSH1 0x40 MLOAD DUP1 SWAP2 SUB SWAP1 LOG1 POP PUSH1 0x0 DUP1 DUP3 PUSH20 0xFFFFFFFFFFFFFFFFFFFFFFFFFFFFFFFFFFFFFFFF AND PUSH20 0xFFFFFFFFFFFFFFFFFFFFFFFFFFFFFFFFFFFFFFFF AND DUP2 MSTORE PUSH1 0x20 ADD SWAP1 DUP2 MSTORE PUSH1 0x20 ADD PUSH1 0x0 KECCAK256 PUSH1 0x2 ADD SLOAD TIMESTAMP LT ISZERO PUSH2 0x6D7 JUMPI PUSH1 0x40 MLOAD PUSH32 0x8C379A000000000000000000000000000000000000000000000000000000000 DUP2 MSTORE PUSH1 0x4 ADD PUSH2 0x6CE SWAP1 PUSH2 0x119B JUMP JUMPDEST PUSH1 0x40 MLOAD DUP1 SWAP2 SUB SWAP1 REVERT JUMPDEST POP DUP1 PUSH20 0xFFFFFFFFFFFFFFFFFFFFFFFFFFFFFFFFFFFFFFFF AND CALLER PUSH20 0xFFFFFFFFFFFFFFFFFFFFFFFFFFFFFFFFFFFFFFFF AND EQ PUSH2 0x746 JUMPI PUSH1 0x40 MLOAD PUSH32 0x8C379A000000000000000000000000000000000000000000000000000000000 DUP2 MSTORE PUSH1 0x4 ADD PUSH2 0x73D SWAP1 PUSH2 0xF68 JUMP JUMPDEST PUSH1 0x40 MLOAD DUP1 SWAP2 SUB SWAP1 REVERT JUMPDEST POP POP POP POP JUMP JUMPDEST PUSH1 0x0 DUP4 PUSH1 0x0 DUP1 PUSH1 0x0 DUP8 PUSH20 0xFFFFFFFFFFFFFFFFFFFFFFFFFFFFFFFFFFFFFFFF AND PUSH20 0xFFFFFFFFFFFFFFFFFFFFFFFFFFFFFFFFFFFFFFFF AND DUP2 MSTORE PUSH1 0x20 ADD SWAP1 DUP2 MSTORE PUSH1 0x20 ADD PUSH1 0x0 KECCAK256 PUSH1 0x4 ADD SLOAD TIMESTAMP PUSH2 0x79E SWAP2 SWAP1 PUSH2 0x11BB JUMP JUMPDEST SWAP1 POP PUSH1 0x0 DUP1 PUSH1 0x0 DUP9 PUSH20 0xFFFFFFFFFFFFFFFFFFFFFFFFFFFFFFFFFFFFFFFF AND PUSH20 0xFFFFFFFFFFFFFFFFFFFFFFFFFFFFFFFFFFFFFFFF AND DUP2 MSTORE PUSH1 0x20 ADD SWAP1 DUP2 MSTORE PUSH1 0x20 ADD PUSH1 0x0 KECCAK256 PUSH1 0x3 ADD SLOAD DUP3 PUSH2 0x7EF SWAP2 SWAP1 PUSH2 0x121E JUMP JUMPDEST SWAP1 POP PUSH1 0x0 DUP1 PUSH1 0x0 DUP10 PUSH20 0xFFFFFFFFFFFFFFFFFFFFFFFFFFFFFFFFFFFFFFFF AND PUSH20 0xFFFFFFFFFFFFFFFFFFFFFFFFFFFFFFFFFFFFFFFF AND DUP2 MSTORE PUSH1 0x20 ADD SWAP1 DUP2 MSTORE PUSH1 0x20 ADD PUSH1 0x0 KECCAK256 PUSH1 0x1 ADD SLOAD SWAP1 POP PUSH1 0x0 DUP1 PUSH1 0x0 DUP11 PUSH20 0xFFFFFFFFFFFFFFFFFFFFFFFFFFFFFFFFFFFFFFFF AND PUSH20 0xFFFFFFFFFFFFFFFFFFFFFFFFFFFFFFFFFFFFFFFF AND DUP2 MSTORE PUSH1 0x20 ADD SWAP1 DUP2 MSTORE PUSH1 0x20 ADD PUSH1 0x0 KECCAK256 PUSH1 0x3 ADD SLOAD DUP3 PUSH2 0x886 SWAP2 SWAP1 PUSH2 0x121E JUMP JUMPDEST SWAP1 POP PUSH1 0x0 DUP1 PUSH1 0x0 DUP12 PUSH20 0xFFFFFFFFFFFFFFFFFFFFFFFFFFFFFFFFFFFFFFFF AND PUSH20 0xFFFFFFFFFFFFFFFFFFFFFFFFFFFFFFFFFFFFFFFF AND DUP2 MSTORE PUSH1 0x20 ADD SWAP1 DUP2 MSTORE PUSH1 0x20 ADD PUSH1 0x0 KECCAK256 PUSH1 0x6 ADD PUSH1 0x0 DUP10 DUP2 MSTORE PUSH1 0x20 ADD SWAP1 DUP2 MSTORE PUSH1 0x20 ADD PUSH1 0x0 KECCAK256 PUSH1 0x0 DUP11 PUSH20 0xFFFFFFFFFFFFFFFFFFFFFFFFFFFFFFFFFFFFFFFF AND PUSH20 0xFFFFFFFFFFFFFFFFFFFFFFFFFFFFFFFFFFFFFFFF AND DUP2 MSTORE PUSH1 0x20 ADD SWAP1 DUP2 MSTORE PUSH1 0x20 ADD PUSH1 0x0 KECCAK256 SLOAD SWAP1 POP PUSH1 0x0 DUP1 PUSH1 0x0 DUP13 PUSH20 0xFFFFFFFFFFFFFFFFFFFFFFFFFFFFFFFFFFFFFFFF AND PUSH20 0xFFFFFFFFFFFFFFFFFFFFFFFFFFFFFFFFFFFFFFFF AND DUP2 MSTORE PUSH1 0x20 ADD SWAP1 DUP2 MSTORE PUSH1 0x20 ADD PUSH1 0x0 KECCAK256 PUSH1 0x5 ADD PUSH1 0x0 DUP11 DUP2 MSTORE PUSH1 0x20 ADD SWAP1 DUP2 MSTORE PUSH1 0x20 ADD PUSH1 0x0 KECCAK256 PUSH1 0x0 DUP12 PUSH20 0xFFFFFFFFFFFFFFFFFFFFFFFFFFFFFFFFFFFFFFFF AND PUSH20 0xFFFFFFFFFFFFFFFFFFFFFFFFFFFFFFFFFFFFFFFF AND DUP2 MSTORE PUSH1 0x20 ADD SWAP1 DUP2 MSTORE PUSH1 0x20 ADD PUSH1 0x0 KECCAK256 SLOAD SWAP1 POP DUP3 DUP6 LT PUSH2 0x9D0 JUMPI DUP2 DUP2 PUSH2 0x9C3 SWAP2 SWAP1 PUSH2 0x11BB JUMP JUMPDEST SWAP8 POP POP POP POP POP POP POP PUSH2 0xA0A JUMP JUMPDEST PUSH1 0x0 DUP4 DUP3 PUSH2 0x9DE SWAP2 SWAP1 PUSH2 0x121E JUMP JUMPDEST SWAP1 POP PUSH1 0x0 DUP7 DUP3 PUSH2 0x9EE SWAP2 SWAP1 PUSH2 0x124F JUMP JUMPDEST SWAP1 POP DUP4 DUP2 PUSH2 0x9FC SWAP2 SWAP1 PUSH2 0x11BB JUMP JUMPDEST SWAP1 POP DUP1 SWAP10 POP POP POP POP POP POP POP POP POP JUMPDEST PUSH1 0x0 DUP1 DUP3 PUSH20 0xFFFFFFFFFFFFFFFFFFFFFFFFFFFFFFFFFFFFFFFF AND PUSH20 0xFFFFFFFFFFFFFFFFFFFFFFFFFFFFFFFFFFFFFFFF AND DUP2 MSTORE PUSH1 0x20 ADD SWAP1 DUP2 MSTORE PUSH1 0x20 ADD PUSH1 0x0 KECCAK256 PUSH1 0x2 ADD SLOAD TIMESTAMP LT ISZERO PUSH2 0xA8E JUMPI PUSH1 0x40 MLOAD PUSH32 0x8C379A000000000000000000000000000000000000000000000000000000000 DUP2 MSTORE PUSH1 0x4 ADD PUSH2 0xA85 SWAP1 PUSH2 0x119B JUMP JUMPDEST PUSH1 0x40 MLOAD DUP1 SWAP2 SUB SWAP1 REVERT JUMPDEST POP SWAP4 SWAP3 POP POP POP JUMP JUMPDEST PUSH1 0x0 DUP1 REVERT JUMPDEST PUSH1 0x0 PUSH20 0xFFFFFFFFFFFFFFFFFFFFFFFFFFFFFFFFFFFFFFFF DUP3 AND SWAP1 POP SWAP2 SWAP1 POP JUMP JUMPDEST PUSH1 0x0 PUSH2 0xAC6 DUP3 PUSH2 0xA9B JUMP JUMPDEST SWAP1 POP SWAP2 SWAP1 POP JUMP JUMPDEST PUSH2 0xAD6 DUP2 PUSH2 0xABB JUMP JUMPDEST DUP2 EQ PUSH2 0xAE1 JUMPI PUSH1 0x0 DUP1 REVERT JUMPDEST POP JUMP JUMPDEST PUSH1 0x0 DUP2 CALLDATALOAD SWAP1 POP PUSH2 0xAF3 DUP2 PUSH2 0xACD JUMP JUMPDEST SWAP3 SWAP2 POP POP JUMP JUMPDEST PUSH1 0x0 PUSH1 0x20 DUP3 DUP5 SUB SLT ISZERO PUSH2 0xB0F JUMPI PUSH2 0xB0E PUSH2 0xA96 JUMP JUMPDEST JUMPDEST PUSH1 0x0 PUSH2 0xB1D DUP5 DUP3 DUP6 ADD PUSH2 0xAE4 JUMP JUMPDEST SWAP2 POP POP SWAP3 SWAP2 POP POP JUMP JUMPDEST PUSH1 0x0 DUP2 SWAP1 POP SWAP2 SWAP1 POP JUMP JUMPDEST PUSH2 0xB39 DUP2 PUSH2 0xB26 JUMP JUMPDEST DUP3 MSTORE POP POP JUMP JUMPDEST PUSH1 0x0 PUSH1 0xA0 DUP3 ADD SWAP1 POP PUSH2 0xB54 PUSH1 0x0 DUP4 ADD DUP9 PUSH2 0xB30 JUMP JUMPDEST PUSH2 0xB61 PUSH1 0x20 DUP4 ADD DUP8 PUSH2 0xB30 JUMP JUMPDEST PUSH2 0xB6E PUSH1 0x40 DUP4 ADD DUP7 PUSH2 0xB30 JUMP JUMPDEST PUSH2 0xB7B PUSH1 0x60 DUP4 ADD DUP6 PUSH2 0xB30 JUMP JUMPDEST PUSH2 0xB88 PUSH1 0x80 DUP4 ADD DUP5 PUSH2 0xB30 JUMP JUMPDEST SWAP7 SWAP6 POP POP POP POP POP POP JUMP JUMPDEST PUSH1 0x0 PUSH2 0xB9D DUP3 PUSH2 0xABB JUMP JUMPDEST SWAP1 POP SWAP2 SWAP1 POP JUMP JUMPDEST PUSH2 0xBAD DUP2 PUSH2 0xB92 JUMP JUMPDEST DUP2 EQ PUSH2 0xBB8 JUMPI PUSH1 0x0 DUP1 REVERT JUMPDEST POP JUMP JUMPDEST PUSH1 0x0 DUP2 CALLDATALOAD SWAP1 POP PUSH2 0xBCA DUP2 PUSH2 0xBA4 JUMP JUMPDEST SWAP3 SWAP2 POP POP JUMP JUMPDEST PUSH2 0xBD9 DUP2 PUSH2 0xB26 JUMP JUMPDEST DUP2 EQ PUSH2 0xBE4 JUMPI PUSH1 0x0 DUP1 REVERT JUMPDEST POP JUMP JUMPDEST PUSH1 0x0 DUP2 CALLDATALOAD SWAP1 POP PUSH2 0xBF6 DUP2 PUSH2 0xBD0 JUMP JUMPDEST SWAP3 SWAP2 POP POP JUMP JUMPDEST PUSH1 0x0 DUP1 PUSH1 0x40 DUP4 DUP6 SUB SLT ISZERO PUSH2 0xC13 JUMPI PUSH2 0xC12 PUSH2 0xA96 JUMP JUMPDEST JUMPDEST PUSH1 0x0 PUSH2 0xC21 DUP6 DUP3 DUP7 ADD PUSH2 0xBBB JUMP JUMPDEST SWAP3 POP POP PUSH1 0x20 PUSH2 0xC32 DUP6 DUP3 DUP7 ADD PUSH2 0xBE7 JUMP JUMPDEST SWAP2 POP POP SWAP3 POP SWAP3 SWAP1 POP JUMP JUMPDEST PUSH1 0x0 PUSH1 0x20 DUP3 ADD SWAP1 POP PUSH2 0xC51 PUSH1 0x0 DUP4 ADD DUP5 PUSH2 0xB30 JUMP JUMPDEST SWAP3 SWAP2 POP POP JUMP JUMPDEST PUSH1 0x0 DUP1 PUSH1 0x0 DUP1 PUSH1 0x0 DUP1 PUSH1 0xC0 DUP8 DUP10 SUB SLT ISZERO PUSH2 0xC74 JUMPI PUSH2 0xC73 PUSH2 0xA96 JUMP JUMPDEST JUMPDEST PUSH1 0x0 PUSH2 0xC82 DUP10 DUP3 DUP11 ADD PUSH2 0xAE4 JUMP JUMPDEST SWAP7 POP POP PUSH1 0x20 PUSH2 0xC93 DUP10 DUP3 DUP11 ADD PUSH2 0xBE7 JUMP JUMPDEST SWAP6 POP POP PUSH1 0x40 PUSH2 0xCA4 DUP10 DUP3 DUP11 ADD PUSH2 0xBE7 JUMP JUMPDEST SWAP5 POP POP PUSH1 0x60 PUSH2 0xCB5 DUP10 DUP3 DUP11 ADD PUSH2 0xBE7 JUMP JUMPDEST SWAP4 POP POP PUSH1 0x80 PUSH2 0xCC6 DUP10 DUP3 DUP11 ADD PUSH2 0xBE7 JUMP JUMPDEST SWAP3 POP POP PUSH1 0xA0 PUSH2 0xCD7 DUP10 DUP3 DUP11 ADD PUSH2 0xBBB JUMP JUMPDEST SWAP2 POP POP SWAP3 SWAP6 POP SWAP3 SWAP6 POP SWAP3 SWAP6 JUMP JUMPDEST PUSH1 0x0 DUP1 PUSH1 0x0 PUSH1 0x60 DUP5 DUP7 SUB SLT ISZERO PUSH2 0xCFD JUMPI PUSH2 0xCFC PUSH2 0xA96 JUMP JUMPDEST JUMPDEST PUSH1 0x0 PUSH2 0xD0B DUP7 DUP3 DUP8 ADD PUSH2 0xAE4 JUMP JUMPDEST SWAP4 POP POP PUSH1 0x20 PUSH2 0xD1C DUP7 DUP3 DUP8 ADD PUSH2 0xBBB JUMP JUMPDEST SWAP3 POP POP PUSH1 0x40 PUSH2 0xD2D DUP7 DUP3 DUP8 ADD PUSH2 0xBE7 JUMP JUMPDEST SWAP2 POP POP SWAP3 POP SWAP3 POP SWAP3 JUMP JUMPDEST PUSH32 0x4E487B7100000000000000000000000000000000000000000000000000000000 PUSH1 0x0 MSTORE PUSH1 0x11 PUSH1 0x4 MSTORE PUSH1 0x24 PUSH1 0x0 REVERT JUMPDEST PUSH1 0x0 PUSH2 0xD71 DUP3 PUSH2 0xB26 JUMP JUMPDEST SWAP2 POP PUSH2 0xD7C DUP4 PUSH2 0xB26 JUMP JUMPDEST SWAP3 POP DUP3 DUP3 ADD SWAP1 POP DUP1 DUP3 GT ISZERO PUSH2 0xD94 JUMPI PUSH2 0xD93 PUSH2 0xD37 JUMP JUMPDEST JUMPDEST SWAP3 SWAP2 POP POP JUMP JUMPDEST PUSH2 0xDA3 DUP2 PUSH2 0xABB JUMP JUMPDEST DUP3 MSTORE POP POP JUMP JUMPDEST PUSH1 0x0 PUSH1 0x60 DUP3 ADD SWAP1 POP PUSH2 0xDBE PUSH1 0x0 DUP4 ADD DUP7 PUSH2 0xD9A JUMP JUMPDEST PUSH2 0xDCB PUSH1 0x20 DUP4 ADD DUP6 PUSH2 0xD9A JUMP JUMPDEST PUSH2 0xDD8 PUSH1 0x40 DUP4 ADD DUP5 PUSH2 0xB30 JUMP JUMPDEST SWAP5 SWAP4 POP POP POP POP JUMP JUMPDEST PUSH1 0x0 DUP2 ISZERO ISZERO SWAP1 POP SWAP2 SWAP1 POP JUMP JUMPDEST PUSH2 0xDF5 DUP2 PUSH2 0xDE0 JUMP JUMPDEST DUP2 EQ PUSH2 0xE00 JUMPI PUSH1 0x0 DUP1 REVERT JUMPDEST POP JUMP JUMPDEST PUSH1 0x0 DUP2 MLOAD SWAP1 POP PUSH2 0xE12 DUP2 PUSH2 0xDEC JUMP JUMPDEST SWAP3 SWAP2 POP POP JUMP JUMPDEST PUSH1 0x0 PUSH1 0x20 DUP3 DUP5 SUB SLT ISZERO PUSH2 0xE2E JUMPI PUSH2 0xE2D PUSH2 0xA96 JUMP JUMPDEST JUMPDEST PUSH1 0x0 PUSH2 0xE3C DUP5 DUP3 DUP6 ADD PUSH2 0xE03 JUMP JUMPDEST SWAP2 POP POP SWAP3 SWAP2 POP POP JUMP JUMPDEST PUSH1 0x0 DUP3 DUP3 MSTORE PUSH1 0x20 DUP3 ADD SWAP1 POP SWAP3 SWAP2 POP POP JUMP JUMPDEST PUSH32 0x546F6B656E7320617265204C6F636B656420696E20736D61727420636F6E7472 PUSH1 0x0 DUP3 ADD MSTORE PUSH32 0x6163742000000000000000000000000000000000000000000000000000000000 PUSH1 0x20 DUP3 ADD MSTORE POP JUMP JUMPDEST PUSH1 0x0 PUSH2 0xEB2 PUSH1 0x24 DUP4 PUSH2 0xE45 JUMP JUMPDEST SWAP2 POP PUSH2 0xEBD DUP3 PUSH2 0xE56 JUMP JUMPDEST PUSH1 0x40 DUP3 ADD SWAP1 POP SWAP2 SWAP1 POP JUMP JUMPDEST PUSH1 0x0 PUSH1 0x40 DUP3 ADD SWAP1 POP PUSH2 0xEDD PUSH1 0x0 DUP4 ADD DUP5 PUSH2 0xD9A JUMP JUMPDEST DUP2 DUP2 SUB PUSH1 0x20 DUP4 ADD MSTORE PUSH2 0xEEE DUP2 PUSH2 0xEA5 JUMP JUMPDEST SWAP1 POP SWAP3 SWAP2 POP POP JUMP JUMPDEST PUSH32 0x4F6E6C792042656E65666963696172792063616E204C6F636B20616E64205265 PUSH1 0x0 DUP3 ADD MSTORE PUSH32 0x6C6561736520546F6B656E730000000000000000000000000000000000000000 PUSH1 0x20 DUP3 ADD MSTORE POP JUMP JUMPDEST PUSH1 0x0 PUSH2 0xF52 PUSH1 0x2C DUP4 PUSH2 0xE45 JUMP JUMPDEST SWAP2 POP PUSH2 0xF5D DUP3 PUSH2 0xEF6 JUMP JUMPDEST PUSH1 0x40 DUP3 ADD SWAP1 POP SWAP2 SWAP1 POP JUMP JUMPDEST PUSH1 0x0 PUSH1 0x20 DUP3 ADD SWAP1 POP DUP2 DUP2 SUB PUSH1 0x0 DUP4 ADD MSTORE PUSH2 0xF81 DUP2 PUSH2 0xF45 JUMP JUMPDEST SWAP1 POP SWAP2 SWAP1 POP JUMP JUMPDEST PUSH32 0x546F6B656E7320436C61696D696E67206172652067726561746572207468616E PUSH1 0x0 DUP3 ADD MSTORE PUSH32 0x20746F6B656E73206C6F636B6564000000000000000000000000000000000000 PUSH1 0x20 DUP3 ADD MSTORE POP JUMP JUMPDEST PUSH1 0x0 PUSH2 0xFE4 PUSH1 0x2E DUP4 PUSH2 0xE45 JUMP JUMPDEST SWAP2 POP PUSH2 0xFEF DUP3 PUSH2 0xF88 JUMP JUMPDEST PUSH1 0x40 DUP3 ADD SWAP1 POP SWAP2 SWAP1 POP JUMP JUMPDEST PUSH1 0x0 PUSH1 0x20 DUP3 ADD SWAP1 POP DUP2 DUP2 SUB PUSH1 0x0 DUP4 ADD MSTORE PUSH2 0x1013 DUP2 PUSH2 0xFD7 JUMP JUMPDEST SWAP1 POP SWAP2 SWAP1 POP JUMP JUMPDEST PUSH32 0x43616E6E6F7420436C61696D204E6F7700000000000000000000000000000000 PUSH1 0x0 DUP3 ADD MSTORE POP JUMP JUMPDEST PUSH1 0x0 PUSH2 0x1050 PUSH1 0x10 DUP4 PUSH2 0xE45 JUMP JUMPDEST SWAP2 POP PUSH2 0x105B DUP3 PUSH2 0x101A JUMP JUMPDEST PUSH1 0x20 DUP3 ADD SWAP1 POP SWAP2 SWAP1 POP JUMP JUMPDEST PUSH1 0x0 PUSH1 0x20 DUP3 ADD SWAP1 POP DUP2 DUP2 SUB PUSH1 0x0 DUP4 ADD MSTORE PUSH2 0x107F DUP2 PUSH2 0x1043 JUMP JUMPDEST SWAP1 POP SWAP2 SWAP1 POP JUMP JUMPDEST PUSH1 0x0 PUSH1 0x40 DUP3 ADD SWAP1 POP PUSH2 0x109B PUSH1 0x0 DUP4 ADD DUP6 PUSH2 0xD9A JUMP JUMPDEST PUSH2 0x10A8 PUSH1 0x20 DUP4 ADD DUP5 PUSH2 0xB30 JUMP JUMPDEST SWAP4 SWAP3 POP POP POP JUMP JUMPDEST PUSH32 0x546F6B656E73206172652052656C656173656420696E206163636F756E74206F PUSH1 0x0 DUP3 ADD MSTORE PUSH32 0x662062656E656669636961727920000000000000000000000000000000000000 PUSH1 0x20 DUP3 ADD MSTORE POP JUMP JUMPDEST PUSH1 0x0 PUSH2 0x110B PUSH1 0x2E DUP4 PUSH2 0xE45 JUMP JUMPDEST SWAP2 POP PUSH2 0x1116 DUP3 PUSH2 0x10AF JUMP JUMPDEST PUSH1 0x40 DUP3 ADD SWAP1 POP SWAP2 SWAP1 POP JUMP JUMPDEST PUSH1 0x0 PUSH1 0x40 DUP3 ADD SWAP1 POP PUSH2 0x1136 PUSH1 0x0 DUP4 ADD DUP5 PUSH2 0xD9A JUMP JUMPDEST DUP2 DUP2 SUB PUSH1 0x20 DUP4 ADD MSTORE PUSH2 0x1147 DUP2 PUSH2 0x10FE JUMP JUMPDEST SWAP1 POP SWAP3 SWAP2 POP POP JUMP JUMPDEST PUSH32 0x576169742054696C6C20436C69666620706572696F6400000000000000000000 PUSH1 0x0 DUP3 ADD MSTORE POP JUMP JUMPDEST PUSH1 0x0 PUSH2 0x1185 PUSH1 0x16 DUP4 PUSH2 0xE45 JUMP JUMPDEST SWAP2 POP PUSH2 0x1190 DUP3 PUSH2 0x114F JUMP JUMPDEST PUSH1 0x20 DUP3 ADD SWAP1 POP SWAP2 SWAP1 POP JUMP JUMPDEST PUSH1 0x0 PUSH1 0x20 DUP3 ADD SWAP1 POP DUP2 DUP2 SUB PUSH1 0x0 DUP4 ADD MSTORE PUSH2 0x11B4 DUP2 PUSH2 0x1178 JUMP JUMPDEST SWAP1 POP SWAP2 SWAP1 POP JUMP JUMPDEST PUSH1 0x0 PUSH2 0x11C6 DUP3 PUSH2 0xB26 JUMP JUMPDEST SWAP2 POP PUSH2 0x11D1 DUP4 PUSH2 0xB26 JUMP JUMPDEST SWAP3 POP DUP3 DUP3 SUB SWAP1 POP DUP2 DUP2 GT ISZERO PUSH2 0x11E9 JUMPI PUSH2 0x11E8 PUSH2 0xD37 JUMP JUMPDEST JUMPDEST SWAP3 SWAP2 POP POP JUMP JUMPDEST PUSH32 0x4E487B7100000000000000000000000000000000000000000000000000000000 PUSH1 0x0 MSTORE PUSH1 0x12 PUSH1 0x4 MSTORE PUSH1 0x24 PUSH1 0x0 REVERT JUMPDEST PUSH1 0x0 PUSH2 0x1229 DUP3 PUSH2 0xB26 JUMP JUMPDEST SWAP2 POP PUSH2 0x1234 DUP4 PUSH2 0xB26 JUMP JUMPDEST SWAP3 POP DUP3 PUSH2 0x1244 JUMPI PUSH2 0x1243 PUSH2 0x11EF JUMP JUMPDEST JUMPDEST DUP3 DUP3 DIV SWAP1 POP SWAP3 SWAP2 POP POP JUMP JUMPDEST PUSH1 0x0 PUSH2 0x125A DUP3 PUSH2 0xB26 JUMP JUMPDEST SWAP2 POP PUSH2 0x1265 DUP4 PUSH2 0xB26 JUMP JUMPDEST SWAP3 POP DUP3 DUP3 MUL PUSH2 0x1273 DUP2 PUSH2 0xB26 JUMP JUMPDEST SWAP2 POP DUP3 DUP3 DIV DUP5 EQ DUP4 ISZERO OR PUSH2 0x128A JUMPI PUSH2 0x1289 PUSH2 0xD37 JUMP JUMPDEST JUMPDEST POP SWAP3 SWAP2 POP POP JUMP INVALID LOG2 PUSH5 0x6970667358 0x22 SLT KECCAK256 BASEFEE PUSH11 0xF949362794D2FC2492F7AC PUSH29 0xE4ABF56CA7D37F733E0A911DF8697DAF0DA064736F6C63430008120033 "
				},
				"gasEstimates": {
					"creation": {
						"codeDepositCost": "961400",
						"executionCost": "1001",
						"totalCost": "962401"
					},
					"external": {
						"beneficiaries(address)": "infinite",
						"checkReleasedTokens(address,uint256)": "infinite",
						"lockTokens(address,uint256,uint256,uint256,uint256,address)": "infinite",
						"releaseTokens(address,address,uint256)": "infinite"
					},
					"internal": {
						"releasableTokens(address,contract IERC20,uint256)": "infinite"
					}
				},
				"methodIdentifiers": {
					"beneficiaries(address)": "01567739",
					"checkReleasedTokens(address,uint256)": "80157b80",
					"lockTokens(address,uint256,uint256,uint256,uint256,address)": "94be50cb",
					"releaseTokens(address,address,uint256)": "b505c6ef"
				}
			},
			"storageLayout": {
				"storage": [
					{
						"astId": 110,
						"contract": "contracts/TokenVesting.sol:TokenVesting",
						"label": "beneficiaries",
						"offset": 0,
						"slot": "0",
						"type": "t_mapping(t_address,t_struct(BeneficiaryInfo)105_storage)"
					}
				],
				"types": {
					"t_address": {
						"encoding": "inplace",
						"label": "address",
						"numberOfBytes": "20"
					},
					"t_contract(IERC20)77": {
						"encoding": "inplace",
						"label": "contract IERC20",
						"numberOfBytes": "20"
					},
					"t_mapping(t_address,t_struct(BeneficiaryInfo)105_storage)": {
						"encoding": "mapping",
						"key": "t_address",
						"label": "mapping(address => struct TokenVesting.BeneficiaryInfo)",
						"numberOfBytes": "32",
						"value": "t_struct(BeneficiaryInfo)105_storage"
					},
					"t_mapping(t_contract(IERC20)77,t_uint256)": {
						"encoding": "mapping",
						"key": "t_contract(IERC20)77",
						"label": "mapping(contract IERC20 => uint256)",
						"numberOfBytes": "32",
						"value": "t_uint256"
					},
					"t_mapping(t_uint256,t_mapping(t_contract(IERC20)77,t_uint256))": {
						"encoding": "mapping",
						"key": "t_uint256",
						"label": "mapping(uint256 => mapping(contract IERC20 => uint256))",
						"numberOfBytes": "32",
						"value": "t_mapping(t_contract(IERC20)77,t_uint256)"
					},
					"t_struct(BeneficiaryInfo)105_storage": {
						"encoding": "inplace",
						"label": "struct TokenVesting.BeneficiaryInfo",
						"members": [
							{
								"astId": 82,
								"contract": "contracts/TokenVesting.sol:TokenVesting",
								"label": "vestingId",
								"offset": 0,
								"slot": "0",
								"type": "t_uint256"
							},
							{
								"astId": 84,
								"contract": "contracts/TokenVesting.sol:TokenVesting",
								"label": "duration",
								"offset": 0,
								"slot": "1",
								"type": "t_uint256"
							},
							{
								"astId": 86,
								"contract": "contracts/TokenVesting.sol:TokenVesting",
								"label": "cliff",
								"offset": 0,
								"slot": "2",
								"type": "t_uint256"
							},
							{
								"astId": 88,
								"contract": "contracts/TokenVesting.sol:TokenVesting",
								"label": "slicePeriod",
								"offset": 0,
								"slot": "3",
								"type": "t_uint256"
							},
							{
								"astId": 90,
								"contract": "contracts/TokenVesting.sol:TokenVesting",
								"label": "startTime",
								"offset": 0,
								"slot": "4",
								"type": "t_uint256"
							},
							{
								"astId": 97,
								"contract": "contracts/TokenVesting.sol:TokenVesting",
								"label": "particularTokenAmount",
								"offset": 0,
								"slot": "5",
								"type": "t_mapping(t_uint256,t_mapping(t_contract(IERC20)77,t_uint256))"
							},
							{
								"astId": 104,
								"contract": "contracts/TokenVesting.sol:TokenVesting",
								"label": "releasedTokenAmount",
								"offset": 0,
								"slot": "6",
								"type": "t_mapping(t_uint256,t_mapping(t_contract(IERC20)77,t_uint256))"
							}
						],
						"numberOfBytes": "224"
					},
					"t_uint256": {
						"encoding": "inplace",
						"label": "uint256",
						"numberOfBytes": "32"
					}
				}
			},
			"userdoc": {
				"kind": "user",
				"methods": {},
				"version": 1
			}
		}
	}
}