{
	"contracts/TokenVesting.sol": {
		"TokenVesting": {
			"abi": [
				{
					"inputs": [
						{
							"internalType": "contract IERC20",
							"name": "_token",
							"type": "address"
						}
					],
					"stateMutability": "nonpayable",
					"type": "constructor"
				},
				{
					"anonymous": false,
					"inputs": [
						{
							"indexed": false,
							"internalType": "address",
							"name": "beneficiary",
							"type": "address"
						},
						{
							"indexed": false,
							"internalType": "string",
							"name": "message",
							"type": "string"
						}
					],
					"name": "AddBeneficiaryEvent",
					"type": "event"
				},
				{
					"anonymous": false,
					"inputs": [
						{
							"indexed": false,
							"internalType": "address",
							"name": "beneficiary",
							"type": "address"
						},
						{
							"indexed": false,
							"internalType": "string",
							"name": "message",
							"type": "string"
						}
					],
					"name": "LockTokensEvent",
					"type": "event"
				},
				{
					"anonymous": false,
					"inputs": [
						{
							"indexed": false,
							"internalType": "address",
							"name": "beneficiary",
							"type": "address"
						},
						{
							"indexed": false,
							"internalType": "string",
							"name": "message",
							"type": "string"
						}
					],
					"name": "ReleaseTokensEvent",
					"type": "event"
				},
				{
					"inputs": [
						{
							"internalType": "address",
							"name": "_beneficiary",
							"type": "address"
						},
						{
							"internalType": "uint256",
							"name": "tokensToLock",
							"type": "uint256"
						}
					],
					"name": "addBeneficiary",
					"outputs": [],
					"stateMutability": "nonpayable",
					"type": "function"
				},
				{
					"inputs": [
						{
							"internalType": "address",
							"name": "",
							"type": "address"
						}
					],
					"name": "beneficiaries",
					"outputs": [
						{
							"internalType": "uint256",
							"name": "",
							"type": "uint256"
						}
					],
					"stateMutability": "view",
					"type": "function"
				},
				{
					"inputs": [
						{
							"internalType": "address",
							"name": "",
							"type": "address"
						}
					],
					"name": "cliff",
					"outputs": [
						{
							"internalType": "uint256",
							"name": "",
							"type": "uint256"
						}
					],
					"stateMutability": "view",
					"type": "function"
				},
				{
					"inputs": [
						{
							"internalType": "address",
							"name": "",
							"type": "address"
						}
					],
					"name": "duration",
					"outputs": [
						{
							"internalType": "uint256",
							"name": "",
							"type": "uint256"
						}
					],
					"stateMutability": "view",
					"type": "function"
				},
				{
					"inputs": [
						{
							"internalType": "address",
							"name": "_beneficiary",
							"type": "address"
						},
						{
							"internalType": "uint256",
							"name": "tokensAmount",
							"type": "uint256"
						},
						{
							"internalType": "uint256",
							"name": "_cliff",
							"type": "uint256"
						},
						{
							"internalType": "uint256",
							"name": "_duration",
							"type": "uint256"
						},
						{
							"internalType": "uint256",
							"name": "_slicePeriod",
							"type": "uint256"
						}
					],
					"name": "lockTokens",
					"outputs": [],
					"stateMutability": "nonpayable",
					"type": "function"
				},
				{
					"inputs": [
						{
							"internalType": "address",
							"name": "_beneficiary",
							"type": "address"
						}
					],
					"name": "releasableTokens",
					"outputs": [
						{
							"internalType": "uint256",
							"name": "",
							"type": "uint256"
						}
					],
					"stateMutability": "view",
					"type": "function"
				},
				{
					"inputs": [
						{
							"internalType": "address",
							"name": "_beneficiary",
							"type": "address"
						}
					],
					"name": "releaseTokens",
					"outputs": [],
					"stateMutability": "nonpayable",
					"type": "function"
				},
				{
					"inputs": [
						{
							"internalType": "address",
							"name": "",
							"type": "address"
						}
					],
					"name": "releasedTokens",
					"outputs": [
						{
							"internalType": "uint256",
							"name": "",
							"type": "uint256"
						}
					],
					"stateMutability": "view",
					"type": "function"
				},
				{
					"inputs": [
						{
							"internalType": "address",
							"name": "",
							"type": "address"
						}
					],
					"name": "slicePeriod",
					"outputs": [
						{
							"internalType": "uint256",
							"name": "",
							"type": "uint256"
						}
					],
					"stateMutability": "view",
					"type": "function"
				},
				{
					"inputs": [
						{
							"internalType": "address",
							"name": "",
							"type": "address"
						}
					],
					"name": "startTime",
					"outputs": [
						{
							"internalType": "uint256",
							"name": "",
							"type": "uint256"
						}
					],
					"stateMutability": "view",
					"type": "function"
				},
				{
					"inputs": [],
					"name": "token",
					"outputs": [
						{
							"internalType": "contract IERC20",
							"name": "",
							"type": "address"
						}
					],
					"stateMutability": "view",
					"type": "function"
				},
				{
					"inputs": [
						{
							"internalType": "address",
							"name": "",
							"type": "address"
						}
					],
					"name": "totalTokens",
					"outputs": [
						{
							"internalType": "uint256",
							"name": "",
							"type": "uint256"
						}
					],
					"stateMutability": "view",
					"type": "function"
				}
			],
			"devdoc": {
				"kind": "dev",
				"methods": {},
				"version": 1
			},
			"evm": {
				"assembly": "    /* \"contracts/TokenVesting.sol\":121:3682  contract TokenVesting{... */\n  mstore(0x40, 0x80)\n    /* \"contracts/TokenVesting.sol\":543:629  constructor(IERC20 _token){... */\n  callvalue\n  dup1\n  iszero\n  tag_1\n  jumpi\n  0x00\n  dup1\n  revert\ntag_1:\n  pop\n  mload(0x40)\n  sub(codesize, bytecodeSize)\n  dup1\n  bytecodeSize\n  dup4\n  codecopy\n  dup2\n  dup2\n  add\n  0x40\n  mstore\n  dup2\n  add\n  swap1\n  tag_2\n  swap2\n  swap1\n  tag_3\n  jump\t// in\ntag_2:\n    /* \"contracts/TokenVesting.sol\":586:592  _token */\n  dup1\n    /* \"contracts/TokenVesting.sol\":580:585  token */\n  0x08\n  0x00\n    /* \"contracts/TokenVesting.sol\":580:592  token=_token */\n  0x0100\n  exp\n  dup2\n  sload\n  dup2\n  0xffffffffffffffffffffffffffffffffffffffff\n  mul\n  not\n  and\n  swap1\n  dup4\n  0xffffffffffffffffffffffffffffffffffffffff\n  and\n  mul\n  or\n  swap1\n  sstore\n  pop\n    /* \"contracts/TokenVesting.sol\":609:619  msg.sender */\n  caller\n    /* \"contracts/TokenVesting.sol\":603:608  owner */\n  0x07\n  0x00\n    /* \"contracts/TokenVesting.sol\":603:619  owner=msg.sender */\n  0x0100\n  exp\n  dup2\n  sload\n  dup2\n  0xffffffffffffffffffffffffffffffffffffffff\n  mul\n  not\n  and\n  swap1\n  dup4\n  0xffffffffffffffffffffffffffffffffffffffff\n  and\n  mul\n  or\n  swap1\n  sstore\n  pop\n    /* \"contracts/TokenVesting.sol\":543:629  constructor(IERC20 _token){... */\n  pop\n    /* \"contracts/TokenVesting.sol\":121:3682  contract TokenVesting{... */\n  jump(tag_6)\n    /* \"#utility.yul\":88:205   */\ntag_8:\n    /* \"#utility.yul\":197:198   */\n  0x00\n    /* \"#utility.yul\":194:195   */\n  dup1\n    /* \"#utility.yul\":187:199   */\n  revert\n    /* \"#utility.yul\":334:460   */\ntag_10:\n    /* \"#utility.yul\":371:378   */\n  0x00\n    /* \"#utility.yul\":411:453   */\n  0xffffffffffffffffffffffffffffffffffffffff\n    /* \"#utility.yul\":404:409   */\n  dup3\n    /* \"#utility.yul\":400:454   */\n  and\n    /* \"#utility.yul\":389:454   */\n  swap1\n  pop\n    /* \"#utility.yul\":334:460   */\n  swap2\n  swap1\n  pop\n  jump\t// out\n    /* \"#utility.yul\":466:562   */\ntag_11:\n    /* \"#utility.yul\":503:510   */\n  0x00\n    /* \"#utility.yul\":532:556   */\n  tag_21\n    /* \"#utility.yul\":550:555   */\n  dup3\n    /* \"#utility.yul\":532:556   */\n  tag_10\n  jump\t// in\ntag_21:\n    /* \"#utility.yul\":521:556   */\n  swap1\n  pop\n    /* \"#utility.yul\":466:562   */\n  swap2\n  swap1\n  pop\n  jump\t// out\n    /* \"#utility.yul\":568:677   */\ntag_12:\n    /* \"#utility.yul\":618:625   */\n  0x00\n    /* \"#utility.yul\":647:671   */\n  tag_23\n    /* \"#utility.yul\":665:670   */\n  dup3\n    /* \"#utility.yul\":647:671   */\n  tag_11\n  jump\t// in\ntag_23:\n    /* \"#utility.yul\":636:671   */\n  swap1\n  pop\n    /* \"#utility.yul\":568:677   */\n  swap2\n  swap1\n  pop\n  jump\t// out\n    /* \"#utility.yul\":683:831   */\ntag_13:\n    /* \"#utility.yul\":769:806   */\n  tag_25\n    /* \"#utility.yul\":800:805   */\n  dup2\n    /* \"#utility.yul\":769:806   */\n  tag_12\n  jump\t// in\ntag_25:\n    /* \"#utility.yul\":762:767   */\n  dup2\n    /* \"#utility.yul\":759:807   */\n  eq\n    /* \"#utility.yul\":749:825   */\n  tag_26\n  jumpi\n    /* \"#utility.yul\":821:822   */\n  0x00\n    /* \"#utility.yul\":818:819   */\n  dup1\n    /* \"#utility.yul\":811:823   */\n  revert\n    /* \"#utility.yul\":749:825   */\ntag_26:\n    /* \"#utility.yul\":683:831   */\n  pop\n  jump\t// out\n    /* \"#utility.yul\":837:1006   */\ntag_14:\n    /* \"#utility.yul\":907:912   */\n  0x00\n    /* \"#utility.yul\":938:944   */\n  dup2\n    /* \"#utility.yul\":932:945   */\n  mload\n    /* \"#utility.yul\":923:945   */\n  swap1\n  pop\n    /* \"#utility.yul\":954:1000   */\n  tag_28\n    /* \"#utility.yul\":994:999   */\n  dup2\n    /* \"#utility.yul\":954:1000   */\n  tag_13\n  jump\t// in\ntag_28:\n    /* \"#utility.yul\":837:1006   */\n  swap3\n  swap2\n  pop\n  pop\n  jump\t// out\n    /* \"#utility.yul\":1012:1389   */\ntag_3:\n    /* \"#utility.yul\":1095:1101   */\n  0x00\n    /* \"#utility.yul\":1144:1146   */\n  0x20\n    /* \"#utility.yul\":1132:1141   */\n  dup3\n    /* \"#utility.yul\":1123:1130   */\n  dup5\n    /* \"#utility.yul\":1119:1142   */\n  sub\n    /* \"#utility.yul\":1115:1147   */\n  slt\n    /* \"#utility.yul\":1112:1231   */\n  iszero\n  tag_30\n  jumpi\n    /* \"#utility.yul\":1150:1229   */\n  tag_31\n  tag_8\n  jump\t// in\ntag_31:\n    /* \"#utility.yul\":1112:1231   */\ntag_30:\n    /* \"#utility.yul\":1270:1271   */\n  0x00\n    /* \"#utility.yul\":1295:1372   */\n  tag_32\n    /* \"#utility.yul\":1364:1371   */\n  dup5\n    /* \"#utility.yul\":1355:1361   */\n  dup3\n    /* \"#utility.yul\":1344:1353   */\n  dup6\n    /* \"#utility.yul\":1340:1362   */\n  add\n    /* \"#utility.yul\":1295:1372   */\n  tag_14\n  jump\t// in\ntag_32:\n    /* \"#utility.yul\":1285:1372   */\n  swap2\n  pop\n    /* \"#utility.yul\":1241:1382   */\n  pop\n    /* \"#utility.yul\":1012:1389   */\n  swap3\n  swap2\n  pop\n  pop\n  jump\t// out\n    /* \"contracts/TokenVesting.sol\":121:3682  contract TokenVesting{... */\ntag_6:\n  dataSize(sub_0)\n  dup1\n  dataOffset(sub_0)\n  0x00\n  codecopy\n  0x00\n  return\nstop\n\nsub_0: assembly {\n        /* \"contracts/TokenVesting.sol\":121:3682  contract TokenVesting{... */\n      mstore(0x40, 0x80)\n      callvalue\n      dup1\n      iszero\n      tag_1\n      jumpi\n      0x00\n      dup1\n      revert\n    tag_1:\n      pop\n      jumpi(tag_2, lt(calldatasize, 0x04))\n      shr(0xe0, calldataload(0x00))\n      dup1\n      0x96074e70\n      gt\n      tag_15\n      jumpi\n      dup1\n      0x96074e70\n      eq\n      tag_9\n      jumpi\n      dup1\n      0xb36760a3\n      eq\n      tag_10\n      jumpi\n      dup1\n      0xc4684e9d\n      eq\n      tag_11\n      jumpi\n      dup1\n      0xcb9199a2\n      eq\n      tag_12\n      jumpi\n      dup1\n      0xcdce101b\n      eq\n      tag_13\n      jumpi\n      dup1\n      0xfc0c546a\n      eq\n      tag_14\n      jumpi\n      jump(tag_2)\n    tag_15:\n      dup1\n      0x01567739\n      eq\n      tag_3\n      jumpi\n      dup1\n      0x3ce301e5\n      eq\n      tag_4\n      jumpi\n      dup1\n      0x506f36ec\n      eq\n      tag_5\n      jumpi\n      dup1\n      0x6e1dc66e\n      eq\n      tag_6\n      jumpi\n      dup1\n      0x70ff852b\n      eq\n      tag_7\n      jumpi\n      dup1\n      0x87b0be48\n      eq\n      tag_8\n      jumpi\n    tag_2:\n      0x00\n      dup1\n      revert\n        /* \"contracts/TokenVesting.sol\":336:379  mapping (address=>uint)public beneficiaries */\n    tag_3:\n      tag_16\n      0x04\n      dup1\n      calldatasize\n      sub\n      dup2\n      add\n      swap1\n      tag_17\n      swap2\n      swap1\n      tag_18\n      jump\t// in\n    tag_17:\n      tag_19\n      jump\t// in\n    tag_16:\n      mload(0x40)\n      tag_20\n      swap2\n      swap1\n      tag_21\n      jump\t// in\n    tag_20:\n      mload(0x40)\n      dup1\n      swap2\n      sub\n      swap1\n      return\n        /* \"contracts/TokenVesting.sol\":1619:2229  function lockTokens(address _beneficiary,uint tokensAmount,uint _cliff,uint _duration,uint _slicePeriod) isBeneficiaryOrContractOwner(_beneficiary) public {... */\n    tag_4:\n      tag_22\n      0x04\n      dup1\n      calldatasize\n      sub\n      dup2\n      add\n      swap1\n      tag_23\n      swap2\n      swap1\n      tag_24\n      jump\t// in\n    tag_23:\n      tag_25\n      jump\t// in\n    tag_22:\n      stop\n        /* \"contracts/TokenVesting.sol\":240:282  mapping (address=>uint) public slicePeriod */\n    tag_5:\n      tag_26\n      0x04\n      dup1\n      calldatasize\n      sub\n      dup2\n      add\n      swap1\n      tag_27\n      swap2\n      swap1\n      tag_18\n      jump\t// in\n    tag_27:\n      tag_28\n      jump\t// in\n    tag_26:\n      mload(0x40)\n      tag_29\n      swap2\n      swap1\n      tag_21\n      jump\t// in\n    tag_29:\n      mload(0x40)\n      dup1\n      swap2\n      sub\n      swap1\n      return\n        /* \"contracts/TokenVesting.sol\":289:329  mapping (address=>uint) public startTime */\n    tag_6:\n      tag_30\n      0x04\n      dup1\n      calldatasize\n      sub\n      dup2\n      add\n      swap1\n      tag_31\n      swap2\n      swap1\n      tag_18\n      jump\t// in\n    tag_31:\n      tag_32\n      jump\t// in\n    tag_30:\n      mload(0x40)\n      tag_33\n      swap2\n      swap1\n      tag_21\n      jump\t// in\n    tag_33:\n      mload(0x40)\n      dup1\n      swap2\n      sub\n      swap1\n      return\n        /* \"contracts/TokenVesting.sol\":439:488  mapping(address => uint256) public releasedTokens */\n    tag_7:\n      tag_34\n      0x04\n      dup1\n      calldatasize\n      sub\n      dup2\n      add\n      swap1\n      tag_35\n      swap2\n      swap1\n      tag_18\n      jump\t// in\n    tag_35:\n      tag_36\n      jump\t// in\n    tag_34:\n      mload(0x40)\n      tag_37\n      swap2\n      swap1\n      tag_21\n      jump\t// in\n    tag_37:\n      mload(0x40)\n      dup1\n      swap2\n      sub\n      swap1\n      return\n        /* \"contracts/TokenVesting.sol\":3152:3679  function releaseTokens(address _beneficiary) isBeneficiaryOrContractOwner(_beneficiary) public { ... */\n    tag_8:\n      tag_38\n      0x04\n      dup1\n      calldatasize\n      sub\n      dup2\n      add\n      swap1\n      tag_39\n      swap2\n      swap1\n      tag_18\n      jump\t// in\n    tag_39:\n      tag_40\n      jump\t// in\n    tag_38:\n      stop\n        /* \"contracts/TokenVesting.sol\":1378:1592  function addBeneficiary(address _beneficiary,uint tokensToLock) onlyOwner public {... */\n    tag_9:\n      tag_41\n      0x04\n      dup1\n      calldatasize\n      sub\n      dup2\n      add\n      swap1\n      tag_42\n      swap2\n      swap1\n      tag_43\n      jump\t// in\n    tag_42:\n      tag_44\n      jump\t// in\n    tag_41:\n      stop\n        /* \"contracts/TokenVesting.sol\":151:190  mapping (address=>uint) public duration */\n    tag_10:\n      tag_45\n      0x04\n      dup1\n      calldatasize\n      sub\n      dup2\n      add\n      swap1\n      tag_46\n      swap2\n      swap1\n      tag_18\n      jump\t// in\n    tag_46:\n      tag_47\n      jump\t// in\n    tag_45:\n      mload(0x40)\n      tag_48\n      swap2\n      swap1\n      tag_21\n      jump\t// in\n    tag_48:\n      mload(0x40)\n      dup1\n      swap2\n      sub\n      swap1\n      return\n        /* \"contracts/TokenVesting.sol\":2285:3110  function releasableTokens(address _beneficiary) public cliffPeriodOver(_beneficiary) view returns(uint) {... */\n    tag_11:\n      tag_49\n      0x04\n      dup1\n      calldatasize\n      sub\n      dup2\n      add\n      swap1\n      tag_50\n      swap2\n      swap1\n      tag_18\n      jump\t// in\n    tag_50:\n      tag_51\n      jump\t// in\n    tag_49:\n      mload(0x40)\n      tag_52\n      swap2\n      swap1\n      tag_21\n      jump\t// in\n    tag_52:\n      mload(0x40)\n      dup1\n      swap2\n      sub\n      swap1\n      return\n        /* \"contracts/TokenVesting.sol\":386:432  mapping(address => uint256) public totalTokens */\n    tag_12:\n      tag_53\n      0x04\n      dup1\n      calldatasize\n      sub\n      dup2\n      add\n      swap1\n      tag_54\n      swap2\n      swap1\n      tag_18\n      jump\t// in\n    tag_54:\n      tag_55\n      jump\t// in\n    tag_53:\n      mload(0x40)\n      tag_56\n      swap2\n      swap1\n      tag_21\n      jump\t// in\n    tag_56:\n      mload(0x40)\n      dup1\n      swap2\n      sub\n      swap1\n      return\n        /* \"contracts/TokenVesting.sol\":197:233  mapping (address=>uint) public cliff */\n    tag_13:\n      tag_57\n      0x04\n      dup1\n      calldatasize\n      sub\n      dup2\n      add\n      swap1\n      tag_58\n      swap2\n      swap1\n      tag_18\n      jump\t// in\n    tag_58:\n      tag_59\n      jump\t// in\n    tag_57:\n      mload(0x40)\n      tag_60\n      swap2\n      swap1\n      tag_21\n      jump\t// in\n    tag_60:\n      mload(0x40)\n      dup1\n      swap2\n      sub\n      swap1\n      return\n        /* \"contracts/TokenVesting.sol\":515:534  IERC20 public token */\n    tag_14:\n      tag_61\n      tag_62\n      jump\t// in\n    tag_61:\n      mload(0x40)\n      tag_63\n      swap2\n      swap1\n      tag_64\n      jump\t// in\n    tag_63:\n      mload(0x40)\n      dup1\n      swap2\n      sub\n      swap1\n      return\n        /* \"contracts/TokenVesting.sol\":336:379  mapping (address=>uint)public beneficiaries */\n    tag_19:\n      mstore(0x20, 0x04)\n      dup1\n      0x00\n      mstore\n      keccak256(0x00, 0x40)\n      0x00\n      swap2\n      pop\n      swap1\n      pop\n      sload\n      dup2\n      jump\t// out\n        /* \"contracts/TokenVesting.sol\":1619:2229  function lockTokens(address _beneficiary,uint tokensAmount,uint _cliff,uint _duration,uint _slicePeriod) isBeneficiaryOrContractOwner(_beneficiary) public {... */\n    tag_25:\n        /* \"contracts/TokenVesting.sol\":1753:1765  _beneficiary */\n      dup5\n        /* \"contracts/TokenVesting.sol\":1808:1817  _duration */\n      dup3\n        /* \"contracts/TokenVesting.sol\":1785:1793  duration */\n      0x00\n        /* \"contracts/TokenVesting.sol\":1785:1807  duration[_beneficiary] */\n      dup1\n        /* \"contracts/TokenVesting.sol\":1794:1806  _beneficiary */\n      dup9\n        /* \"contracts/TokenVesting.sol\":1785:1807  duration[_beneficiary] */\n      0xffffffffffffffffffffffffffffffffffffffff\n      and\n      0xffffffffffffffffffffffffffffffffffffffff\n      and\n      dup2\n      mstore\n      0x20\n      add\n      swap1\n      dup2\n      mstore\n      0x20\n      add\n      0x00\n      keccak256\n        /* \"contracts/TokenVesting.sol\":1785:1817  duration[_beneficiary]=_duration */\n      dup2\n      swap1\n      sstore\n      pop\n        /* \"contracts/TokenVesting.sol\":1848:1854  _cliff */\n      dup4\n        /* \"contracts/TokenVesting.sol\":1828:1833  cliff */\n      0x01\n        /* \"contracts/TokenVesting.sol\":1828:1847  cliff[_beneficiary] */\n      0x00\n        /* \"contracts/TokenVesting.sol\":1834:1846  _beneficiary */\n      dup9\n        /* \"contracts/TokenVesting.sol\":1828:1847  cliff[_beneficiary] */\n      0xffffffffffffffffffffffffffffffffffffffff\n      and\n      0xffffffffffffffffffffffffffffffffffffffff\n      and\n      dup2\n      mstore\n      0x20\n      add\n      swap1\n      dup2\n      mstore\n      0x20\n      add\n      0x00\n      keccak256\n        /* \"contracts/TokenVesting.sol\":1828:1854  cliff[_beneficiary]=_cliff */\n      dup2\n      swap1\n      sstore\n      pop\n        /* \"contracts/TokenVesting.sol\":1891:1903  _slicePeriod */\n      dup2\n        /* \"contracts/TokenVesting.sol\":1865:1876  slicePeriod */\n      0x02\n        /* \"contracts/TokenVesting.sol\":1865:1890  slicePeriod[_beneficiary] */\n      0x00\n        /* \"contracts/TokenVesting.sol\":1877:1889  _beneficiary */\n      dup9\n        /* \"contracts/TokenVesting.sol\":1865:1890  slicePeriod[_beneficiary] */\n      0xffffffffffffffffffffffffffffffffffffffff\n      and\n      0xffffffffffffffffffffffffffffffffffffffff\n      and\n      dup2\n      mstore\n      0x20\n      add\n      swap1\n      dup2\n      mstore\n      0x20\n      add\n      0x00\n      keccak256\n        /* \"contracts/TokenVesting.sol\":1865:1903  slicePeriod[_beneficiary]=_slicePeriod */\n      dup2\n      swap1\n      sstore\n      pop\n        /* \"contracts/TokenVesting.sol\":1938:1953  block.timestamp */\n      timestamp\n        /* \"contracts/TokenVesting.sol\":1914:1923  startTime */\n      0x03\n        /* \"contracts/TokenVesting.sol\":1914:1937  startTime[_beneficiary] */\n      0x00\n        /* \"contracts/TokenVesting.sol\":1924:1936  _beneficiary */\n      dup9\n        /* \"contracts/TokenVesting.sol\":1914:1937  startTime[_beneficiary] */\n      0xffffffffffffffffffffffffffffffffffffffff\n      and\n      0xffffffffffffffffffffffffffffffffffffffff\n      and\n      dup2\n      mstore\n      0x20\n      add\n      swap1\n      dup2\n      mstore\n      0x20\n      add\n      0x00\n      keccak256\n        /* \"contracts/TokenVesting.sol\":1914:1953  startTime[_beneficiary]=block.timestamp */\n      dup2\n      swap1\n      sstore\n      pop\n        /* \"contracts/TokenVesting.sol\":1992:2004  tokensAmount */\n      dup5\n        /* \"contracts/TokenVesting.sol\":1964:1977  beneficiaries */\n      0x04\n        /* \"contracts/TokenVesting.sol\":1964:1991  beneficiaries[_beneficiary] */\n      0x00\n        /* \"contracts/TokenVesting.sol\":1978:1990  _beneficiary */\n      dup9\n        /* \"contracts/TokenVesting.sol\":1964:1991  beneficiaries[_beneficiary] */\n      0xffffffffffffffffffffffffffffffffffffffff\n      and\n      0xffffffffffffffffffffffffffffffffffffffff\n      and\n      dup2\n      mstore\n      0x20\n      add\n      swap1\n      dup2\n      mstore\n      0x20\n      add\n      0x00\n      keccak256\n        /* \"contracts/TokenVesting.sol\":1964:2004  beneficiaries[_beneficiary]=tokensAmount */\n      dup2\n      swap1\n      sstore\n      pop\n        /* \"contracts/TokenVesting.sol\":2041:2054  beneficiaries */\n      0x04\n        /* \"contracts/TokenVesting.sol\":2041:2068  beneficiaries[_beneficiary] */\n      0x00\n        /* \"contracts/TokenVesting.sol\":2055:2067  _beneficiary */\n      dup8\n        /* \"contracts/TokenVesting.sol\":2041:2068  beneficiaries[_beneficiary] */\n      0xffffffffffffffffffffffffffffffffffffffff\n      and\n      0xffffffffffffffffffffffffffffffffffffffff\n      and\n      dup2\n      mstore\n      0x20\n      add\n      swap1\n      dup2\n      mstore\n      0x20\n      add\n      0x00\n      keccak256\n      sload\n        /* \"contracts/TokenVesting.sol\":2015:2026  totalTokens */\n      0x05\n        /* \"contracts/TokenVesting.sol\":2015:2040  totalTokens[_beneficiary] */\n      0x00\n        /* \"contracts/TokenVesting.sol\":2027:2039  _beneficiary */\n      dup9\n        /* \"contracts/TokenVesting.sol\":2015:2040  totalTokens[_beneficiary] */\n      0xffffffffffffffffffffffffffffffffffffffff\n      and\n      0xffffffffffffffffffffffffffffffffffffffff\n      and\n      dup2\n      mstore\n      0x20\n      add\n      swap1\n      dup2\n      mstore\n      0x20\n      add\n      0x00\n      keccak256\n        /* \"contracts/TokenVesting.sol\":2015:2068  totalTokens[_beneficiary]=beneficiaries[_beneficiary] */\n      dup2\n      swap1\n      sstore\n      pop\n        /* \"contracts/TokenVesting.sol\":2079:2084  token */\n      0x08\n      0x00\n      swap1\n      sload\n      swap1\n      0x0100\n      exp\n      swap1\n      div\n      0xffffffffffffffffffffffffffffffffffffffff\n      and\n        /* \"contracts/TokenVesting.sol\":2079:2097  token.transferFrom */\n      0xffffffffffffffffffffffffffffffffffffffff\n      and\n      0x23b872dd\n        /* \"contracts/TokenVesting.sol\":2098:2108  msg.sender */\n      caller\n        /* \"contracts/TokenVesting.sol\":2117:2121  this */\n      address\n        /* \"contracts/TokenVesting.sol\":2123:2135  tokensAmount */\n      dup9\n        /* \"contracts/TokenVesting.sol\":2079:2136  token.transferFrom(msg.sender,address(this),tokensAmount) */\n      mload(0x40)\n      dup5\n      0xffffffff\n      and\n      0xe0\n      shl\n      dup2\n      mstore\n      0x04\n      add\n      tag_67\n      swap4\n      swap3\n      swap2\n      swap1\n      tag_68\n      jump\t// in\n    tag_67:\n      0x20\n      mload(0x40)\n      dup1\n      dup4\n      sub\n      dup2\n      0x00\n      dup8\n      gas\n      call\n      iszero\n      dup1\n      iszero\n      tag_70\n      jumpi\n      returndatasize\n      0x00\n      dup1\n      returndatacopy\n      revert(0x00, returndatasize)\n    tag_70:\n      pop\n      pop\n      pop\n      pop\n      mload(0x40)\n      returndatasize\n      not(0x1f)\n      0x1f\n      dup3\n      add\n      and\n      dup3\n      add\n      dup1\n      0x40\n      mstore\n      pop\n      dup2\n      add\n      swap1\n      tag_71\n      swap2\n      swap1\n      tag_72\n      jump\t// in\n    tag_71:\n      pop\n        /* \"contracts/TokenVesting.sol\":2152:2221  LockTokensEvent(_beneficiary, \"Tokens are Locked in smart contract \") */\n      0x58061f685b438748cf21469042b11fe4dfb0c77fd2da64032c5adc017fc09a88\n        /* \"contracts/TokenVesting.sol\":2168:2180  _beneficiary */\n      dup7\n        /* \"contracts/TokenVesting.sol\":2152:2221  LockTokensEvent(_beneficiary, \"Tokens are Locked in smart contract \") */\n      mload(0x40)\n      tag_73\n      swap2\n      swap1\n      tag_74\n      jump\t// in\n    tag_73:\n      mload(0x40)\n      dup1\n      swap2\n      sub\n      swap1\n      log1\n        /* \"contracts/TokenVesting.sol\":1138:1139  0 */\n      0x00\n        /* \"contracts/TokenVesting.sol\":1110:1123  beneficiaries */\n      0x04\n        /* \"contracts/TokenVesting.sol\":1110:1137  beneficiaries[_beneficiary] */\n      0x00\n        /* \"contracts/TokenVesting.sol\":1124:1136  _beneficiary */\n      dup4\n        /* \"contracts/TokenVesting.sol\":1110:1137  beneficiaries[_beneficiary] */\n      0xffffffffffffffffffffffffffffffffffffffff\n      and\n      0xffffffffffffffffffffffffffffffffffffffff\n      and\n      dup2\n      mstore\n      0x20\n      add\n      swap1\n      dup2\n      mstore\n      0x20\n      add\n      0x00\n      keccak256\n      sload\n        /* \"contracts/TokenVesting.sol\":1110:1139  beneficiaries[_beneficiary]>0 */\n      gt\n        /* \"contracts/TokenVesting.sol\":1110:1160  beneficiaries[_beneficiary]>0 || msg.sender==owner */\n      dup1\n      tag_75\n      jumpi\n      pop\n        /* \"contracts/TokenVesting.sol\":1155:1160  owner */\n      0x07\n      0x00\n      swap1\n      sload\n      swap1\n      0x0100\n      exp\n      swap1\n      div\n      0xffffffffffffffffffffffffffffffffffffffff\n      and\n        /* \"contracts/TokenVesting.sol\":1143:1160  msg.sender==owner */\n      0xffffffffffffffffffffffffffffffffffffffff\n      and\n        /* \"contracts/TokenVesting.sol\":1143:1153  msg.sender */\n      caller\n        /* \"contracts/TokenVesting.sol\":1143:1160  msg.sender==owner */\n      0xffffffffffffffffffffffffffffffffffffffff\n      and\n      eq\n        /* \"contracts/TokenVesting.sol\":1110:1160  beneficiaries[_beneficiary]>0 || msg.sender==owner */\n    tag_75:\n        /* \"contracts/TokenVesting.sol\":1102:1217  require(beneficiaries[_beneficiary]>0 || msg.sender==owner,\"Only Beneficiary Or Owner can Lock and Release Tokens\") */\n      tag_76\n      jumpi\n      mload(0x40)\n      0x08c379a000000000000000000000000000000000000000000000000000000000\n      dup2\n      mstore\n      0x04\n      add\n      tag_77\n      swap1\n      tag_78\n      jump\t// in\n    tag_77:\n      mload(0x40)\n      dup1\n      swap2\n      sub\n      swap1\n      revert\n    tag_76:\n        /* \"contracts/TokenVesting.sol\":1619:2229  function lockTokens(address _beneficiary,uint tokensAmount,uint _cliff,uint _duration,uint _slicePeriod) isBeneficiaryOrContractOwner(_beneficiary) public {... */\n      pop\n      pop\n      pop\n      pop\n      pop\n      pop\n      jump\t// out\n        /* \"contracts/TokenVesting.sol\":240:282  mapping (address=>uint) public slicePeriod */\n    tag_28:\n      mstore(0x20, 0x02)\n      dup1\n      0x00\n      mstore\n      keccak256(0x00, 0x40)\n      0x00\n      swap2\n      pop\n      swap1\n      pop\n      sload\n      dup2\n      jump\t// out\n        /* \"contracts/TokenVesting.sol\":289:329  mapping (address=>uint) public startTime */\n    tag_32:\n      mstore(0x20, 0x03)\n      dup1\n      0x00\n      mstore\n      keccak256(0x00, 0x40)\n      0x00\n      swap2\n      pop\n      swap1\n      pop\n      sload\n      dup2\n      jump\t// out\n        /* \"contracts/TokenVesting.sol\":439:488  mapping(address => uint256) public releasedTokens */\n    tag_36:\n      mstore(0x20, 0x06)\n      dup1\n      0x00\n      mstore\n      keccak256(0x00, 0x40)\n      0x00\n      swap2\n      pop\n      swap1\n      pop\n      sload\n      dup2\n      jump\t// out\n        /* \"contracts/TokenVesting.sol\":3152:3679  function releaseTokens(address _beneficiary) isBeneficiaryOrContractOwner(_beneficiary) public { ... */\n    tag_40:\n        /* \"contracts/TokenVesting.sol\":3226:3238  _beneficiary */\n      dup1\n        /* \"contracts/TokenVesting.sol\":3258:3276  uint tokensClaimed */\n      0x00\n        /* \"contracts/TokenVesting.sol\":3277:3307  releasableTokens(_beneficiary) */\n      tag_81\n        /* \"contracts/TokenVesting.sol\":3294:3306  _beneficiary */\n      dup4\n        /* \"contracts/TokenVesting.sol\":3277:3293  releasableTokens */\n      tag_51\n        /* \"contracts/TokenVesting.sol\":3277:3307  releasableTokens(_beneficiary) */\n      jump\t// in\n    tag_81:\n        /* \"contracts/TokenVesting.sol\":3258:3307  uint tokensClaimed=releasableTokens(_beneficiary) */\n      swap1\n      pop\n        /* \"contracts/TokenVesting.sol\":3340:3353  beneficiaries */\n      0x04\n        /* \"contracts/TokenVesting.sol\":3340:3367  beneficiaries[_beneficiary] */\n      0x00\n        /* \"contracts/TokenVesting.sol\":3354:3366  _beneficiary */\n      dup5\n        /* \"contracts/TokenVesting.sol\":3340:3367  beneficiaries[_beneficiary] */\n      0xffffffffffffffffffffffffffffffffffffffff\n      and\n      0xffffffffffffffffffffffffffffffffffffffff\n      and\n      dup2\n      mstore\n      0x20\n      add\n      swap1\n      dup2\n      mstore\n      0x20\n      add\n      0x00\n      keccak256\n      sload\n        /* \"contracts/TokenVesting.sol\":3325:3338  tokensClaimed */\n      dup2\n        /* \"contracts/TokenVesting.sol\":3325:3367  tokensClaimed<=beneficiaries[_beneficiary] */\n      gt\n      iszero\n        /* \"contracts/TokenVesting.sol\":3317:3417  require(tokensClaimed<=beneficiaries[_beneficiary],\"Tokens Claiming are greater than tokens locked\") */\n      tag_82\n      jumpi\n      mload(0x40)\n      0x08c379a000000000000000000000000000000000000000000000000000000000\n      dup2\n      mstore\n      0x04\n      add\n      tag_83\n      swap1\n      tag_84\n      jump\t// in\n    tag_83:\n      mload(0x40)\n      dup1\n      swap2\n      sub\n      swap1\n      revert\n    tag_82:\n        /* \"contracts/TokenVesting.sol\":3449:3450  0 */\n      0x00\n        /* \"contracts/TokenVesting.sol\":3435:3448  tokensClaimed */\n      dup2\n        /* \"contracts/TokenVesting.sol\":3435:3450  tokensClaimed>0 */\n      gt\n        /* \"contracts/TokenVesting.sol\":3427:3469  require(tokensClaimed>0,\"Already Claimed\") */\n      tag_85\n      jumpi\n      mload(0x40)\n      0x08c379a000000000000000000000000000000000000000000000000000000000\n      dup2\n      mstore\n      0x04\n      add\n      tag_86\n      swap1\n      tag_87\n      jump\t// in\n    tag_86:\n      mload(0x40)\n      dup1\n      swap2\n      sub\n      swap1\n      revert\n    tag_85:\n        /* \"contracts/TokenVesting.sol\":3509:3522  tokensClaimed */\n      dup1\n        /* \"contracts/TokenVesting.sol\":3479:3493  releasedTokens */\n      0x06\n        /* \"contracts/TokenVesting.sol\":3479:3507  releasedTokens[_beneficiary] */\n      0x00\n        /* \"contracts/TokenVesting.sol\":3494:3506  _beneficiary */\n      dup6\n        /* \"contracts/TokenVesting.sol\":3479:3507  releasedTokens[_beneficiary] */\n      0xffffffffffffffffffffffffffffffffffffffff\n      and\n      0xffffffffffffffffffffffffffffffffffffffff\n      and\n      dup2\n      mstore\n      0x20\n      add\n      swap1\n      dup2\n      mstore\n      0x20\n      add\n      0x00\n      keccak256\n      0x00\n        /* \"contracts/TokenVesting.sol\":3479:3522  releasedTokens[_beneficiary]+=tokensClaimed */\n      dup3\n      dup3\n      sload\n      tag_88\n      swap2\n      swap1\n      tag_89\n      jump\t// in\n    tag_88:\n      swap3\n      pop\n      pop\n      dup2\n      swap1\n      sstore\n      pop\n        /* \"contracts/TokenVesting.sol\":3532:3537  token */\n      0x08\n      0x00\n      swap1\n      sload\n      swap1\n      0x0100\n      exp\n      swap1\n      div\n      0xffffffffffffffffffffffffffffffffffffffff\n      and\n        /* \"contracts/TokenVesting.sol\":3532:3546  token.transfer */\n      0xffffffffffffffffffffffffffffffffffffffff\n      and\n      0xa9059cbb\n        /* \"contracts/TokenVesting.sol\":3547:3559  _beneficiary */\n      dup5\n        /* \"contracts/TokenVesting.sol\":3560:3573  tokensClaimed */\n      dup4\n        /* \"contracts/TokenVesting.sol\":3532:3574  token.transfer(_beneficiary,tokensClaimed) */\n      mload(0x40)\n      dup4\n      0xffffffff\n      and\n      0xe0\n      shl\n      dup2\n      mstore\n      0x04\n      add\n      tag_90\n      swap3\n      swap2\n      swap1\n      tag_91\n      jump\t// in\n    tag_90:\n      0x20\n      mload(0x40)\n      dup1\n      dup4\n      sub\n      dup2\n      0x00\n      dup8\n      gas\n      call\n      iszero\n      dup1\n      iszero\n      tag_93\n      jumpi\n      returndatasize\n      0x00\n      dup1\n      returndatacopy\n      revert(0x00, returndatasize)\n    tag_93:\n      pop\n      pop\n      pop\n      pop\n      mload(0x40)\n      returndatasize\n      not(0x1f)\n      0x1f\n      dup3\n      add\n      and\n      dup3\n      add\n      dup1\n      0x40\n      mstore\n      pop\n      dup2\n      add\n      swap1\n      tag_94\n      swap2\n      swap1\n      tag_72\n      jump\t// in\n    tag_94:\n      pop\n        /* \"contracts/TokenVesting.sol\":3589:3671  ReleaseTokensEvent(_beneficiary, \"Tokens are Released in account of beneficiary \") */\n      0xa13f186497986e7b059df4137d98a76d0cb346d0e9a294755b01975e190434a9\n        /* \"contracts/TokenVesting.sol\":3608:3620  _beneficiary */\n      dup4\n        /* \"contracts/TokenVesting.sol\":3589:3671  ReleaseTokensEvent(_beneficiary, \"Tokens are Released in account of beneficiary \") */\n      mload(0x40)\n      tag_95\n      swap2\n      swap1\n      tag_96\n      jump\t// in\n    tag_95:\n      mload(0x40)\n      dup1\n      swap2\n      sub\n      swap1\n      log1\n        /* \"contracts/TokenVesting.sol\":3247:3679  { ... */\n      pop\n        /* \"contracts/TokenVesting.sol\":1138:1139  0 */\n      0x00\n        /* \"contracts/TokenVesting.sol\":1110:1123  beneficiaries */\n      0x04\n        /* \"contracts/TokenVesting.sol\":1110:1137  beneficiaries[_beneficiary] */\n      0x00\n        /* \"contracts/TokenVesting.sol\":1124:1136  _beneficiary */\n      dup4\n        /* \"contracts/TokenVesting.sol\":1110:1137  beneficiaries[_beneficiary] */\n      0xffffffffffffffffffffffffffffffffffffffff\n      and\n      0xffffffffffffffffffffffffffffffffffffffff\n      and\n      dup2\n      mstore\n      0x20\n      add\n      swap1\n      dup2\n      mstore\n      0x20\n      add\n      0x00\n      keccak256\n      sload\n        /* \"contracts/TokenVesting.sol\":1110:1139  beneficiaries[_beneficiary]>0 */\n      gt\n        /* \"contracts/TokenVesting.sol\":1110:1160  beneficiaries[_beneficiary]>0 || msg.sender==owner */\n      dup1\n      tag_97\n      jumpi\n      pop\n        /* \"contracts/TokenVesting.sol\":1155:1160  owner */\n      0x07\n      0x00\n      swap1\n      sload\n      swap1\n      0x0100\n      exp\n      swap1\n      div\n      0xffffffffffffffffffffffffffffffffffffffff\n      and\n        /* \"contracts/TokenVesting.sol\":1143:1160  msg.sender==owner */\n      0xffffffffffffffffffffffffffffffffffffffff\n      and\n        /* \"contracts/TokenVesting.sol\":1143:1153  msg.sender */\n      caller\n        /* \"contracts/TokenVesting.sol\":1143:1160  msg.sender==owner */\n      0xffffffffffffffffffffffffffffffffffffffff\n      and\n      eq\n        /* \"contracts/TokenVesting.sol\":1110:1160  beneficiaries[_beneficiary]>0 || msg.sender==owner */\n    tag_97:\n        /* \"contracts/TokenVesting.sol\":1102:1217  require(beneficiaries[_beneficiary]>0 || msg.sender==owner,\"Only Beneficiary Or Owner can Lock and Release Tokens\") */\n      tag_98\n      jumpi\n      mload(0x40)\n      0x08c379a000000000000000000000000000000000000000000000000000000000\n      dup2\n      mstore\n      0x04\n      add\n      tag_99\n      swap1\n      tag_78\n      jump\t// in\n    tag_99:\n      mload(0x40)\n      dup1\n      swap2\n      sub\n      swap1\n      revert\n    tag_98:\n        /* \"contracts/TokenVesting.sol\":3152:3679  function releaseTokens(address _beneficiary) isBeneficiaryOrContractOwner(_beneficiary) public { ... */\n      pop\n      pop\n      jump\t// out\n        /* \"contracts/TokenVesting.sol\":1378:1592  function addBeneficiary(address _beneficiary,uint tokensToLock) onlyOwner public {... */\n    tag_44:\n        /* \"contracts/TokenVesting.sol\":1498:1510  tokensToLock */\n      dup1\n        /* \"contracts/TokenVesting.sol\":1470:1483  beneficiaries */\n      0x04\n        /* \"contracts/TokenVesting.sol\":1470:1497  beneficiaries[_beneficiary] */\n      0x00\n        /* \"contracts/TokenVesting.sol\":1484:1496  _beneficiary */\n      dup5\n        /* \"contracts/TokenVesting.sol\":1470:1497  beneficiaries[_beneficiary] */\n      0xffffffffffffffffffffffffffffffffffffffff\n      and\n      0xffffffffffffffffffffffffffffffffffffffff\n      and\n      dup2\n      mstore\n      0x20\n      add\n      swap1\n      dup2\n      mstore\n      0x20\n      add\n      0x00\n      keccak256\n        /* \"contracts/TokenVesting.sol\":1470:1510  beneficiaries[_beneficiary]=tokensToLock */\n      dup2\n      swap1\n      sstore\n      pop\n        /* \"contracts/TokenVesting.sol\":1526:1584  AddBeneficiaryEvent(_beneficiary, \"New Beneficiary Added\") */\n      0x557197374edb4e72999d5d4c84ca4715c58797739aab2f2b7e300db81b4cd1c3\n        /* \"contracts/TokenVesting.sol\":1546:1558  _beneficiary */\n      dup3\n        /* \"contracts/TokenVesting.sol\":1526:1584  AddBeneficiaryEvent(_beneficiary, \"New Beneficiary Added\") */\n      mload(0x40)\n      tag_102\n      swap2\n      swap1\n      tag_103\n      jump\t// in\n    tag_102:\n      mload(0x40)\n      dup1\n      swap2\n      sub\n      swap1\n      log1\n        /* \"contracts/TokenVesting.sol\":1294:1299  owner */\n      0x07\n      0x00\n      swap1\n      sload\n      swap1\n      0x0100\n      exp\n      swap1\n      div\n      0xffffffffffffffffffffffffffffffffffffffff\n      and\n        /* \"contracts/TokenVesting.sol\":1282:1299  msg.sender==owner */\n      0xffffffffffffffffffffffffffffffffffffffff\n      and\n        /* \"contracts/TokenVesting.sol\":1282:1292  msg.sender */\n      caller\n        /* \"contracts/TokenVesting.sol\":1282:1299  msg.sender==owner */\n      0xffffffffffffffffffffffffffffffffffffffff\n      and\n      eq\n        /* \"contracts/TokenVesting.sol\":1274:1337  require(msg.sender==owner,\" Only Owner can Add benefeiciaries\") */\n      tag_104\n      jumpi\n      mload(0x40)\n      0x08c379a000000000000000000000000000000000000000000000000000000000\n      dup2\n      mstore\n      0x04\n      add\n      tag_105\n      swap1\n      tag_106\n      jump\t// in\n    tag_105:\n      mload(0x40)\n      dup1\n      swap2\n      sub\n      swap1\n      revert\n    tag_104:\n        /* \"contracts/TokenVesting.sol\":1378:1592  function addBeneficiary(address _beneficiary,uint tokensToLock) onlyOwner public {... */\n      pop\n      pop\n      jump\t// out\n        /* \"contracts/TokenVesting.sol\":151:190  mapping (address=>uint) public duration */\n    tag_47:\n      mstore(0x20, 0x00)\n      dup1\n      0x00\n      mstore\n      keccak256(0x00, 0x40)\n      0x00\n      swap2\n      pop\n      swap1\n      pop\n      sload\n      dup2\n      jump\t// out\n        /* \"contracts/TokenVesting.sol\":2285:3110  function releasableTokens(address _beneficiary) public cliffPeriodOver(_beneficiary) view returns(uint) {... */\n    tag_51:\n        /* \"contracts/TokenVesting.sol\":2383:2387  uint */\n      0x00\n        /* \"contracts/TokenVesting.sol\":2356:2368  _beneficiary */\n      dup2\n        /* \"contracts/TokenVesting.sol\":2400:2419  uint timeSinceStart */\n      0x00\n        /* \"contracts/TokenVesting.sol\":2440:2449  startTime */\n      0x03\n        /* \"contracts/TokenVesting.sol\":2440:2463  startTime[_beneficiary] */\n      0x00\n        /* \"contracts/TokenVesting.sol\":2450:2462  _beneficiary */\n      dup6\n        /* \"contracts/TokenVesting.sol\":2440:2463  startTime[_beneficiary] */\n      0xffffffffffffffffffffffffffffffffffffffff\n      and\n      0xffffffffffffffffffffffffffffffffffffffff\n      and\n      dup2\n      mstore\n      0x20\n      add\n      swap1\n      dup2\n      mstore\n      0x20\n      add\n      0x00\n      keccak256\n      sload\n        /* \"contracts/TokenVesting.sol\":2422:2437  block.timestamp */\n      timestamp\n        /* \"contracts/TokenVesting.sol\":2422:2463  block.timestamp - startTime[_beneficiary] */\n      tag_109\n      swap2\n      swap1\n      tag_110\n      jump\t// in\n    tag_109:\n        /* \"contracts/TokenVesting.sol\":2400:2463  uint timeSinceStart = block.timestamp - startTime[_beneficiary] */\n      swap1\n      pop\n        /* \"contracts/TokenVesting.sol\":2474:2500  uint noOfPeriodsSinceStart */\n      0x00\n        /* \"contracts/TokenVesting.sol\":2520:2531  slicePeriod */\n      0x02\n        /* \"contracts/TokenVesting.sol\":2520:2545  slicePeriod[_beneficiary] */\n      0x00\n        /* \"contracts/TokenVesting.sol\":2532:2544  _beneficiary */\n      dup7\n        /* \"contracts/TokenVesting.sol\":2520:2545  slicePeriod[_beneficiary] */\n      0xffffffffffffffffffffffffffffffffffffffff\n      and\n      0xffffffffffffffffffffffffffffffffffffffff\n      and\n      dup2\n      mstore\n      0x20\n      add\n      swap1\n      dup2\n      mstore\n      0x20\n      add\n      0x00\n      keccak256\n      sload\n        /* \"contracts/TokenVesting.sol\":2503:2517  timeSinceStart */\n      dup3\n        /* \"contracts/TokenVesting.sol\":2503:2545  timeSinceStart / slicePeriod[_beneficiary] */\n      tag_111\n      swap2\n      swap1\n      tag_112\n      jump\t// in\n    tag_111:\n        /* \"contracts/TokenVesting.sol\":2474:2545  uint noOfPeriodsSinceStart = timeSinceStart / slicePeriod[_beneficiary] */\n      swap1\n      pop\n        /* \"contracts/TokenVesting.sol\":2556:2573  uint totalPeriods */\n      0x00\n        /* \"contracts/TokenVesting.sol\":2601:2612  slicePeriod */\n      0x02\n        /* \"contracts/TokenVesting.sol\":2601:2626  slicePeriod[_beneficiary] */\n      0x00\n        /* \"contracts/TokenVesting.sol\":2613:2625  _beneficiary */\n      dup8\n        /* \"contracts/TokenVesting.sol\":2601:2626  slicePeriod[_beneficiary] */\n      0xffffffffffffffffffffffffffffffffffffffff\n      and\n      0xffffffffffffffffffffffffffffffffffffffff\n      and\n      dup2\n      mstore\n      0x20\n      add\n      swap1\n      dup2\n      mstore\n      0x20\n      add\n      0x00\n      keccak256\n      sload\n        /* \"contracts/TokenVesting.sol\":2576:2584  duration */\n      0x00\n        /* \"contracts/TokenVesting.sol\":2576:2598  duration[_beneficiary] */\n      dup1\n        /* \"contracts/TokenVesting.sol\":2585:2597  _beneficiary */\n      dup9\n        /* \"contracts/TokenVesting.sol\":2576:2598  duration[_beneficiary] */\n      0xffffffffffffffffffffffffffffffffffffffff\n      and\n      0xffffffffffffffffffffffffffffffffffffffff\n      and\n      dup2\n      mstore\n      0x20\n      add\n      swap1\n      dup2\n      mstore\n      0x20\n      add\n      0x00\n      keccak256\n      sload\n        /* \"contracts/TokenVesting.sol\":2576:2626  duration[_beneficiary] / slicePeriod[_beneficiary] */\n      tag_113\n      swap2\n      swap1\n      tag_112\n      jump\t// in\n    tag_113:\n        /* \"contracts/TokenVesting.sol\":2556:2626  uint totalPeriods = duration[_beneficiary] / slicePeriod[_beneficiary] */\n      swap1\n      pop\n        /* \"contracts/TokenVesting.sol\":2666:2678  totalPeriods */\n      dup1\n        /* \"contracts/TokenVesting.sol\":2641:2662  noOfPeriodsSinceStart */\n      dup3\n        /* \"contracts/TokenVesting.sol\":2641:2678  noOfPeriodsSinceStart >= totalPeriods */\n      lt\n        /* \"contracts/TokenVesting.sol\":2637:3103  if (noOfPeriodsSinceStart >= totalPeriods ) {... */\n      tag_114\n      jumpi\n        /* \"contracts/TokenVesting.sol\":2746:2760  releasedTokens */\n      0x06\n        /* \"contracts/TokenVesting.sol\":2746:2774  releasedTokens[_beneficiary] */\n      0x00\n        /* \"contracts/TokenVesting.sol\":2761:2773  _beneficiary */\n      dup8\n        /* \"contracts/TokenVesting.sol\":2746:2774  releasedTokens[_beneficiary] */\n      0xffffffffffffffffffffffffffffffffffffffff\n      and\n      0xffffffffffffffffffffffffffffffffffffffff\n      and\n      dup2\n      mstore\n      0x20\n      add\n      swap1\n      dup2\n      mstore\n      0x20\n      add\n      0x00\n      keccak256\n      sload\n        /* \"contracts/TokenVesting.sol\":2717:2730  beneficiaries */\n      0x04\n        /* \"contracts/TokenVesting.sol\":2717:2744  beneficiaries[_beneficiary] */\n      0x00\n        /* \"contracts/TokenVesting.sol\":2731:2743  _beneficiary */\n      dup9\n        /* \"contracts/TokenVesting.sol\":2717:2744  beneficiaries[_beneficiary] */\n      0xffffffffffffffffffffffffffffffffffffffff\n      and\n      0xffffffffffffffffffffffffffffffffffffffff\n      and\n      dup2\n      mstore\n      0x20\n      add\n      swap1\n      dup2\n      mstore\n      0x20\n      add\n      0x00\n      keccak256\n      sload\n        /* \"contracts/TokenVesting.sol\":2717:2774  beneficiaries[_beneficiary] -releasedTokens[_beneficiary] */\n      tag_115\n      swap2\n      swap1\n      tag_110\n      jump\t// in\n    tag_115:\n        /* \"contracts/TokenVesting.sol\":2710:2774  return beneficiaries[_beneficiary] -releasedTokens[_beneficiary] */\n      swap5\n      pop\n      pop\n      pop\n      pop\n      jump(tag_108)\n        /* \"contracts/TokenVesting.sol\":2637:3103  if (noOfPeriodsSinceStart >= totalPeriods ) {... */\n    tag_114:\n        /* \"contracts/TokenVesting.sol\":2817:2845  uint tokensVestedInOnePeriod */\n      0x00\n        /* \"contracts/TokenVesting.sol\":2878:2890  totalPeriods */\n      dup2\n        /* \"contracts/TokenVesting.sol\":2848:2861  beneficiaries */\n      0x04\n        /* \"contracts/TokenVesting.sol\":2848:2875  beneficiaries[_beneficiary] */\n      0x00\n        /* \"contracts/TokenVesting.sol\":2862:2874  _beneficiary */\n      dup10\n        /* \"contracts/TokenVesting.sol\":2848:2875  beneficiaries[_beneficiary] */\n      0xffffffffffffffffffffffffffffffffffffffff\n      and\n      0xffffffffffffffffffffffffffffffffffffffff\n      and\n      dup2\n      mstore\n      0x20\n      add\n      swap1\n      dup2\n      mstore\n      0x20\n      add\n      0x00\n      keccak256\n      sload\n        /* \"contracts/TokenVesting.sol\":2848:2890  beneficiaries[_beneficiary] / totalPeriods */\n      tag_117\n      swap2\n      swap1\n      tag_112\n      jump\t// in\n    tag_117:\n        /* \"contracts/TokenVesting.sol\":2817:2890  uint tokensVestedInOnePeriod = beneficiaries[_beneficiary] / totalPeriods */\n      swap1\n      pop\n        /* \"contracts/TokenVesting.sol\":2905:2926  uint tokensToBeVested */\n      0x00\n        /* \"contracts/TokenVesting.sol\":2955:2976  noOfPeriodsSinceStart */\n      dup4\n        /* \"contracts/TokenVesting.sol\":2929:2952  tokensVestedInOnePeriod */\n      dup3\n        /* \"contracts/TokenVesting.sol\":2929:2976  tokensVestedInOnePeriod * noOfPeriodsSinceStart */\n      tag_118\n      swap2\n      swap1\n      tag_119\n      jump\t// in\n    tag_118:\n        /* \"contracts/TokenVesting.sol\":2905:2976  uint tokensToBeVested = tokensVestedInOnePeriod * noOfPeriodsSinceStart */\n      swap1\n      pop\n        /* \"contracts/TokenVesting.sol\":3025:3039  releasedTokens */\n      0x06\n        /* \"contracts/TokenVesting.sol\":3025:3053  releasedTokens[_beneficiary] */\n      0x00\n        /* \"contracts/TokenVesting.sol\":3040:3052  _beneficiary */\n      dup10\n        /* \"contracts/TokenVesting.sol\":3025:3053  releasedTokens[_beneficiary] */\n      0xffffffffffffffffffffffffffffffffffffffff\n      and\n      0xffffffffffffffffffffffffffffffffffffffff\n      and\n      dup2\n      mstore\n      0x20\n      add\n      swap1\n      dup2\n      mstore\n      0x20\n      add\n      0x00\n      keccak256\n      sload\n        /* \"contracts/TokenVesting.sol\":3008:3024  tokensToBeVested */\n      dup2\n        /* \"contracts/TokenVesting.sol\":3008:3053  tokensToBeVested-releasedTokens[_beneficiary] */\n      tag_120\n      swap2\n      swap1\n      tag_110\n      jump\t// in\n    tag_120:\n        /* \"contracts/TokenVesting.sol\":2991:3053  tokensToBeVested=tokensToBeVested-releasedTokens[_beneficiary] */\n      swap1\n      pop\n        /* \"contracts/TokenVesting.sol\":3075:3091  tokensToBeVested */\n      dup1\n        /* \"contracts/TokenVesting.sol\":3068:3091  return tokensToBeVested */\n      swap7\n      pop\n      pop\n      pop\n      pop\n      pop\n      pop\n        /* \"contracts/TokenVesting.sol\":924:925  _ */\n    tag_108:\n        /* \"contracts/TokenVesting.sol\":961:966  cliff */\n      0x01\n        /* \"contracts/TokenVesting.sol\":961:980  cliff[_beneficiary] */\n      0x00\n        /* \"contracts/TokenVesting.sol\":967:979  _beneficiary */\n      dup3\n        /* \"contracts/TokenVesting.sol\":961:980  cliff[_beneficiary] */\n      0xffffffffffffffffffffffffffffffffffffffff\n      and\n      0xffffffffffffffffffffffffffffffffffffffff\n      and\n      dup2\n      mstore\n      0x20\n      add\n      swap1\n      dup2\n      mstore\n      0x20\n      add\n      0x00\n      keccak256\n      sload\n        /* \"contracts/TokenVesting.sol\":944:959  block.timestamp */\n      timestamp\n        /* \"contracts/TokenVesting.sol\":944:980  block.timestamp>=cliff[_beneficiary] */\n      lt\n      iszero\n        /* \"contracts/TokenVesting.sol\":936:1006  require(block.timestamp>=cliff[_beneficiary],\"Wait Till Cliff period\") */\n      tag_121\n      jumpi\n      mload(0x40)\n      0x08c379a000000000000000000000000000000000000000000000000000000000\n      dup2\n      mstore\n      0x04\n      add\n      tag_122\n      swap1\n      tag_123\n      jump\t// in\n    tag_122:\n      mload(0x40)\n      dup1\n      swap2\n      sub\n      swap1\n      revert\n    tag_121:\n        /* \"contracts/TokenVesting.sol\":2285:3110  function releasableTokens(address _beneficiary) public cliffPeriodOver(_beneficiary) view returns(uint) {... */\n      pop\n      swap2\n      swap1\n      pop\n      jump\t// out\n        /* \"contracts/TokenVesting.sol\":386:432  mapping(address => uint256) public totalTokens */\n    tag_55:\n      mstore(0x20, 0x05)\n      dup1\n      0x00\n      mstore\n      keccak256(0x00, 0x40)\n      0x00\n      swap2\n      pop\n      swap1\n      pop\n      sload\n      dup2\n      jump\t// out\n        /* \"contracts/TokenVesting.sol\":197:233  mapping (address=>uint) public cliff */\n    tag_59:\n      mstore(0x20, 0x01)\n      dup1\n      0x00\n      mstore\n      keccak256(0x00, 0x40)\n      0x00\n      swap2\n      pop\n      swap1\n      pop\n      sload\n      dup2\n      jump\t// out\n        /* \"contracts/TokenVesting.sol\":515:534  IERC20 public token */\n    tag_62:\n      0x08\n      0x00\n      swap1\n      sload\n      swap1\n      0x0100\n      exp\n      swap1\n      div\n      0xffffffffffffffffffffffffffffffffffffffff\n      and\n      dup2\n      jump\t// out\n        /* \"#utility.yul\":88:205   */\n    tag_125:\n        /* \"#utility.yul\":197:198   */\n      0x00\n        /* \"#utility.yul\":194:195   */\n      dup1\n        /* \"#utility.yul\":187:199   */\n      revert\n        /* \"#utility.yul\":334:460   */\n    tag_127:\n        /* \"#utility.yul\":371:378   */\n      0x00\n        /* \"#utility.yul\":411:453   */\n      0xffffffffffffffffffffffffffffffffffffffff\n        /* \"#utility.yul\":404:409   */\n      dup3\n        /* \"#utility.yul\":400:454   */\n      and\n        /* \"#utility.yul\":389:454   */\n      swap1\n      pop\n        /* \"#utility.yul\":334:460   */\n      swap2\n      swap1\n      pop\n      jump\t// out\n        /* \"#utility.yul\":466:562   */\n    tag_128:\n        /* \"#utility.yul\":503:510   */\n      0x00\n        /* \"#utility.yul\":532:556   */\n      tag_169\n        /* \"#utility.yul\":550:555   */\n      dup3\n        /* \"#utility.yul\":532:556   */\n      tag_127\n      jump\t// in\n    tag_169:\n        /* \"#utility.yul\":521:556   */\n      swap1\n      pop\n        /* \"#utility.yul\":466:562   */\n      swap2\n      swap1\n      pop\n      jump\t// out\n        /* \"#utility.yul\":568:690   */\n    tag_129:\n        /* \"#utility.yul\":641:665   */\n      tag_171\n        /* \"#utility.yul\":659:664   */\n      dup2\n        /* \"#utility.yul\":641:665   */\n      tag_128\n      jump\t// in\n    tag_171:\n        /* \"#utility.yul\":634:639   */\n      dup2\n        /* \"#utility.yul\":631:666   */\n      eq\n        /* \"#utility.yul\":621:684   */\n      tag_172\n      jumpi\n        /* \"#utility.yul\":680:681   */\n      0x00\n        /* \"#utility.yul\":677:678   */\n      dup1\n        /* \"#utility.yul\":670:682   */\n      revert\n        /* \"#utility.yul\":621:684   */\n    tag_172:\n        /* \"#utility.yul\":568:690   */\n      pop\n      jump\t// out\n        /* \"#utility.yul\":696:835   */\n    tag_130:\n        /* \"#utility.yul\":742:747   */\n      0x00\n        /* \"#utility.yul\":780:786   */\n      dup2\n        /* \"#utility.yul\":767:787   */\n      calldataload\n        /* \"#utility.yul\":758:787   */\n      swap1\n      pop\n        /* \"#utility.yul\":796:829   */\n      tag_174\n        /* \"#utility.yul\":823:828   */\n      dup2\n        /* \"#utility.yul\":796:829   */\n      tag_129\n      jump\t// in\n    tag_174:\n        /* \"#utility.yul\":696:835   */\n      swap3\n      swap2\n      pop\n      pop\n      jump\t// out\n        /* \"#utility.yul\":841:1170   */\n    tag_18:\n        /* \"#utility.yul\":900:906   */\n      0x00\n        /* \"#utility.yul\":949:951   */\n      0x20\n        /* \"#utility.yul\":937:946   */\n      dup3\n        /* \"#utility.yul\":928:935   */\n      dup5\n        /* \"#utility.yul\":924:947   */\n      sub\n        /* \"#utility.yul\":920:952   */\n      slt\n        /* \"#utility.yul\":917:1036   */\n      iszero\n      tag_176\n      jumpi\n        /* \"#utility.yul\":955:1034   */\n      tag_177\n      tag_125\n      jump\t// in\n    tag_177:\n        /* \"#utility.yul\":917:1036   */\n    tag_176:\n        /* \"#utility.yul\":1075:1076   */\n      0x00\n        /* \"#utility.yul\":1100:1153   */\n      tag_178\n        /* \"#utility.yul\":1145:1152   */\n      dup5\n        /* \"#utility.yul\":1136:1142   */\n      dup3\n        /* \"#utility.yul\":1125:1134   */\n      dup6\n        /* \"#utility.yul\":1121:1143   */\n      add\n        /* \"#utility.yul\":1100:1153   */\n      tag_130\n      jump\t// in\n    tag_178:\n        /* \"#utility.yul\":1090:1153   */\n      swap2\n      pop\n        /* \"#utility.yul\":1046:1163   */\n      pop\n        /* \"#utility.yul\":841:1170   */\n      swap3\n      swap2\n      pop\n      pop\n      jump\t// out\n        /* \"#utility.yul\":1176:1253   */\n    tag_131:\n        /* \"#utility.yul\":1213:1220   */\n      0x00\n        /* \"#utility.yul\":1242:1247   */\n      dup2\n        /* \"#utility.yul\":1231:1247   */\n      swap1\n      pop\n        /* \"#utility.yul\":1176:1253   */\n      swap2\n      swap1\n      pop\n      jump\t// out\n        /* \"#utility.yul\":1259:1377   */\n    tag_132:\n        /* \"#utility.yul\":1346:1370   */\n      tag_181\n        /* \"#utility.yul\":1364:1369   */\n      dup2\n        /* \"#utility.yul\":1346:1370   */\n      tag_131\n      jump\t// in\n    tag_181:\n        /* \"#utility.yul\":1341:1344   */\n      dup3\n        /* \"#utility.yul\":1334:1371   */\n      mstore\n        /* \"#utility.yul\":1259:1377   */\n      pop\n      pop\n      jump\t// out\n        /* \"#utility.yul\":1383:1605   */\n    tag_21:\n        /* \"#utility.yul\":1476:1480   */\n      0x00\n        /* \"#utility.yul\":1514:1516   */\n      0x20\n        /* \"#utility.yul\":1503:1512   */\n      dup3\n        /* \"#utility.yul\":1499:1517   */\n      add\n        /* \"#utility.yul\":1491:1517   */\n      swap1\n      pop\n        /* \"#utility.yul\":1527:1598   */\n      tag_183\n        /* \"#utility.yul\":1595:1596   */\n      0x00\n        /* \"#utility.yul\":1584:1593   */\n      dup4\n        /* \"#utility.yul\":1580:1597   */\n      add\n        /* \"#utility.yul\":1571:1577   */\n      dup5\n        /* \"#utility.yul\":1527:1598   */\n      tag_132\n      jump\t// in\n    tag_183:\n        /* \"#utility.yul\":1383:1605   */\n      swap3\n      swap2\n      pop\n      pop\n      jump\t// out\n        /* \"#utility.yul\":1611:1733   */\n    tag_133:\n        /* \"#utility.yul\":1684:1708   */\n      tag_185\n        /* \"#utility.yul\":1702:1707   */\n      dup2\n        /* \"#utility.yul\":1684:1708   */\n      tag_131\n      jump\t// in\n    tag_185:\n        /* \"#utility.yul\":1677:1682   */\n      dup2\n        /* \"#utility.yul\":1674:1709   */\n      eq\n        /* \"#utility.yul\":1664:1727   */\n      tag_186\n      jumpi\n        /* \"#utility.yul\":1723:1724   */\n      0x00\n        /* \"#utility.yul\":1720:1721   */\n      dup1\n        /* \"#utility.yul\":1713:1725   */\n      revert\n        /* \"#utility.yul\":1664:1727   */\n    tag_186:\n        /* \"#utility.yul\":1611:1733   */\n      pop\n      jump\t// out\n        /* \"#utility.yul\":1739:1878   */\n    tag_134:\n        /* \"#utility.yul\":1785:1790   */\n      0x00\n        /* \"#utility.yul\":1823:1829   */\n      dup2\n        /* \"#utility.yul\":1810:1830   */\n      calldataload\n        /* \"#utility.yul\":1801:1830   */\n      swap1\n      pop\n        /* \"#utility.yul\":1839:1872   */\n      tag_188\n        /* \"#utility.yul\":1866:1871   */\n      dup2\n        /* \"#utility.yul\":1839:1872   */\n      tag_133\n      jump\t// in\n    tag_188:\n        /* \"#utility.yul\":1739:1878   */\n      swap3\n      swap2\n      pop\n      pop\n      jump\t// out\n        /* \"#utility.yul\":1884:2795   */\n    tag_24:\n        /* \"#utility.yul\":1979:1985   */\n      0x00\n        /* \"#utility.yul\":1987:1993   */\n      dup1\n        /* \"#utility.yul\":1995:2001   */\n      0x00\n        /* \"#utility.yul\":2003:2009   */\n      dup1\n        /* \"#utility.yul\":2011:2017   */\n      0x00\n        /* \"#utility.yul\":2060:2063   */\n      0xa0\n        /* \"#utility.yul\":2048:2057   */\n      dup7\n        /* \"#utility.yul\":2039:2046   */\n      dup9\n        /* \"#utility.yul\":2035:2058   */\n      sub\n        /* \"#utility.yul\":2031:2064   */\n      slt\n        /* \"#utility.yul\":2028:2148   */\n      iszero\n      tag_190\n      jumpi\n        /* \"#utility.yul\":2067:2146   */\n      tag_191\n      tag_125\n      jump\t// in\n    tag_191:\n        /* \"#utility.yul\":2028:2148   */\n    tag_190:\n        /* \"#utility.yul\":2187:2188   */\n      0x00\n        /* \"#utility.yul\":2212:2265   */\n      tag_192\n        /* \"#utility.yul\":2257:2264   */\n      dup9\n        /* \"#utility.yul\":2248:2254   */\n      dup3\n        /* \"#utility.yul\":2237:2246   */\n      dup10\n        /* \"#utility.yul\":2233:2255   */\n      add\n        /* \"#utility.yul\":2212:2265   */\n      tag_130\n      jump\t// in\n    tag_192:\n        /* \"#utility.yul\":2202:2265   */\n      swap6\n      pop\n        /* \"#utility.yul\":2158:2275   */\n      pop\n        /* \"#utility.yul\":2314:2316   */\n      0x20\n        /* \"#utility.yul\":2340:2393   */\n      tag_193\n        /* \"#utility.yul\":2385:2392   */\n      dup9\n        /* \"#utility.yul\":2376:2382   */\n      dup3\n        /* \"#utility.yul\":2365:2374   */\n      dup10\n        /* \"#utility.yul\":2361:2383   */\n      add\n        /* \"#utility.yul\":2340:2393   */\n      tag_134\n      jump\t// in\n    tag_193:\n        /* \"#utility.yul\":2330:2393   */\n      swap5\n      pop\n        /* \"#utility.yul\":2285:2403   */\n      pop\n        /* \"#utility.yul\":2442:2444   */\n      0x40\n        /* \"#utility.yul\":2468:2521   */\n      tag_194\n        /* \"#utility.yul\":2513:2520   */\n      dup9\n        /* \"#utility.yul\":2504:2510   */\n      dup3\n        /* \"#utility.yul\":2493:2502   */\n      dup10\n        /* \"#utility.yul\":2489:2511   */\n      add\n        /* \"#utility.yul\":2468:2521   */\n      tag_134\n      jump\t// in\n    tag_194:\n        /* \"#utility.yul\":2458:2521   */\n      swap4\n      pop\n        /* \"#utility.yul\":2413:2531   */\n      pop\n        /* \"#utility.yul\":2570:2572   */\n      0x60\n        /* \"#utility.yul\":2596:2649   */\n      tag_195\n        /* \"#utility.yul\":2641:2648   */\n      dup9\n        /* \"#utility.yul\":2632:2638   */\n      dup3\n        /* \"#utility.yul\":2621:2630   */\n      dup10\n        /* \"#utility.yul\":2617:2639   */\n      add\n        /* \"#utility.yul\":2596:2649   */\n      tag_134\n      jump\t// in\n    tag_195:\n        /* \"#utility.yul\":2586:2649   */\n      swap3\n      pop\n        /* \"#utility.yul\":2541:2659   */\n      pop\n        /* \"#utility.yul\":2698:2701   */\n      0x80\n        /* \"#utility.yul\":2725:2778   */\n      tag_196\n        /* \"#utility.yul\":2770:2777   */\n      dup9\n        /* \"#utility.yul\":2761:2767   */\n      dup3\n        /* \"#utility.yul\":2750:2759   */\n      dup10\n        /* \"#utility.yul\":2746:2768   */\n      add\n        /* \"#utility.yul\":2725:2778   */\n      tag_134\n      jump\t// in\n    tag_196:\n        /* \"#utility.yul\":2715:2778   */\n      swap2\n      pop\n        /* \"#utility.yul\":2669:2788   */\n      pop\n        /* \"#utility.yul\":1884:2795   */\n      swap3\n      swap6\n      pop\n      swap3\n      swap6\n      swap1\n      swap4\n      pop\n      jump\t// out\n        /* \"#utility.yul\":2801:3275   */\n    tag_43:\n        /* \"#utility.yul\":2869:2875   */\n      0x00\n        /* \"#utility.yul\":2877:2883   */\n      dup1\n        /* \"#utility.yul\":2926:2928   */\n      0x40\n        /* \"#utility.yul\":2914:2923   */\n      dup4\n        /* \"#utility.yul\":2905:2912   */\n      dup6\n        /* \"#utility.yul\":2901:2924   */\n      sub\n        /* \"#utility.yul\":2897:2929   */\n      slt\n        /* \"#utility.yul\":2894:3013   */\n      iszero\n      tag_198\n      jumpi\n        /* \"#utility.yul\":2932:3011   */\n      tag_199\n      tag_125\n      jump\t// in\n    tag_199:\n        /* \"#utility.yul\":2894:3013   */\n    tag_198:\n        /* \"#utility.yul\":3052:3053   */\n      0x00\n        /* \"#utility.yul\":3077:3130   */\n      tag_200\n        /* \"#utility.yul\":3122:3129   */\n      dup6\n        /* \"#utility.yul\":3113:3119   */\n      dup3\n        /* \"#utility.yul\":3102:3111   */\n      dup7\n        /* \"#utility.yul\":3098:3120   */\n      add\n        /* \"#utility.yul\":3077:3130   */\n      tag_130\n      jump\t// in\n    tag_200:\n        /* \"#utility.yul\":3067:3130   */\n      swap3\n      pop\n        /* \"#utility.yul\":3023:3140   */\n      pop\n        /* \"#utility.yul\":3179:3181   */\n      0x20\n        /* \"#utility.yul\":3205:3258   */\n      tag_201\n        /* \"#utility.yul\":3250:3257   */\n      dup6\n        /* \"#utility.yul\":3241:3247   */\n      dup3\n        /* \"#utility.yul\":3230:3239   */\n      dup7\n        /* \"#utility.yul\":3226:3248   */\n      add\n        /* \"#utility.yul\":3205:3258   */\n      tag_134\n      jump\t// in\n    tag_201:\n        /* \"#utility.yul\":3195:3258   */\n      swap2\n      pop\n        /* \"#utility.yul\":3150:3268   */\n      pop\n        /* \"#utility.yul\":2801:3275   */\n      swap3\n      pop\n      swap3\n      swap1\n      pop\n      jump\t// out\n        /* \"#utility.yul\":3281:3341   */\n    tag_135:\n        /* \"#utility.yul\":3309:3312   */\n      0x00\n        /* \"#utility.yul\":3330:3335   */\n      dup2\n        /* \"#utility.yul\":3323:3335   */\n      swap1\n      pop\n        /* \"#utility.yul\":3281:3341   */\n      swap2\n      swap1\n      pop\n      jump\t// out\n        /* \"#utility.yul\":3347:3489   */\n    tag_136:\n        /* \"#utility.yul\":3397:3406   */\n      0x00\n        /* \"#utility.yul\":3430:3483   */\n      tag_204\n        /* \"#utility.yul\":3448:3482   */\n      tag_205\n        /* \"#utility.yul\":3457:3481   */\n      tag_206\n        /* \"#utility.yul\":3475:3480   */\n      dup5\n        /* \"#utility.yul\":3457:3481   */\n      tag_127\n      jump\t// in\n    tag_206:\n        /* \"#utility.yul\":3448:3482   */\n      tag_135\n      jump\t// in\n    tag_205:\n        /* \"#utility.yul\":3430:3483   */\n      tag_127\n      jump\t// in\n    tag_204:\n        /* \"#utility.yul\":3417:3483   */\n      swap1\n      pop\n        /* \"#utility.yul\":3347:3489   */\n      swap2\n      swap1\n      pop\n      jump\t// out\n        /* \"#utility.yul\":3495:3621   */\n    tag_137:\n        /* \"#utility.yul\":3545:3554   */\n      0x00\n        /* \"#utility.yul\":3578:3615   */\n      tag_208\n        /* \"#utility.yul\":3609:3614   */\n      dup3\n        /* \"#utility.yul\":3578:3615   */\n      tag_136\n      jump\t// in\n    tag_208:\n        /* \"#utility.yul\":3565:3615   */\n      swap1\n      pop\n        /* \"#utility.yul\":3495:3621   */\n      swap2\n      swap1\n      pop\n      jump\t// out\n        /* \"#utility.yul\":3627:3766   */\n    tag_138:\n        /* \"#utility.yul\":3690:3699   */\n      0x00\n        /* \"#utility.yul\":3723:3760   */\n      tag_210\n        /* \"#utility.yul\":3754:3759   */\n      dup3\n        /* \"#utility.yul\":3723:3760   */\n      tag_137\n      jump\t// in\n    tag_210:\n        /* \"#utility.yul\":3710:3760   */\n      swap1\n      pop\n        /* \"#utility.yul\":3627:3766   */\n      swap2\n      swap1\n      pop\n      jump\t// out\n        /* \"#utility.yul\":3772:3929   */\n    tag_139:\n        /* \"#utility.yul\":3872:3922   */\n      tag_212\n        /* \"#utility.yul\":3916:3921   */\n      dup2\n        /* \"#utility.yul\":3872:3922   */\n      tag_138\n      jump\t// in\n    tag_212:\n        /* \"#utility.yul\":3867:3870   */\n      dup3\n        /* \"#utility.yul\":3860:3923   */\n      mstore\n        /* \"#utility.yul\":3772:3929   */\n      pop\n      pop\n      jump\t// out\n        /* \"#utility.yul\":3935:4183   */\n    tag_64:\n        /* \"#utility.yul\":4041:4045   */\n      0x00\n        /* \"#utility.yul\":4079:4081   */\n      0x20\n        /* \"#utility.yul\":4068:4077   */\n      dup3\n        /* \"#utility.yul\":4064:4082   */\n      add\n        /* \"#utility.yul\":4056:4082   */\n      swap1\n      pop\n        /* \"#utility.yul\":4092:4176   */\n      tag_214\n        /* \"#utility.yul\":4173:4174   */\n      0x00\n        /* \"#utility.yul\":4162:4171   */\n      dup4\n        /* \"#utility.yul\":4158:4175   */\n      add\n        /* \"#utility.yul\":4149:4155   */\n      dup5\n        /* \"#utility.yul\":4092:4176   */\n      tag_139\n      jump\t// in\n    tag_214:\n        /* \"#utility.yul\":3935:4183   */\n      swap3\n      swap2\n      pop\n      pop\n      jump\t// out\n        /* \"#utility.yul\":4189:4307   */\n    tag_140:\n        /* \"#utility.yul\":4276:4300   */\n      tag_216\n        /* \"#utility.yul\":4294:4299   */\n      dup2\n        /* \"#utility.yul\":4276:4300   */\n      tag_128\n      jump\t// in\n    tag_216:\n        /* \"#utility.yul\":4271:4274   */\n      dup3\n        /* \"#utility.yul\":4264:4301   */\n      mstore\n        /* \"#utility.yul\":4189:4307   */\n      pop\n      pop\n      jump\t// out\n        /* \"#utility.yul\":4313:4755   */\n    tag_68:\n        /* \"#utility.yul\":4462:4466   */\n      0x00\n        /* \"#utility.yul\":4500:4502   */\n      0x60\n        /* \"#utility.yul\":4489:4498   */\n      dup3\n        /* \"#utility.yul\":4485:4503   */\n      add\n        /* \"#utility.yul\":4477:4503   */\n      swap1\n      pop\n        /* \"#utility.yul\":4513:4584   */\n      tag_218\n        /* \"#utility.yul\":4581:4582   */\n      0x00\n        /* \"#utility.yul\":4570:4579   */\n      dup4\n        /* \"#utility.yul\":4566:4583   */\n      add\n        /* \"#utility.yul\":4557:4563   */\n      dup7\n        /* \"#utility.yul\":4513:4584   */\n      tag_140\n      jump\t// in\n    tag_218:\n        /* \"#utility.yul\":4594:4666   */\n      tag_219\n        /* \"#utility.yul\":4662:4664   */\n      0x20\n        /* \"#utility.yul\":4651:4660   */\n      dup4\n        /* \"#utility.yul\":4647:4665   */\n      add\n        /* \"#utility.yul\":4638:4644   */\n      dup6\n        /* \"#utility.yul\":4594:4666   */\n      tag_140\n      jump\t// in\n    tag_219:\n        /* \"#utility.yul\":4676:4748   */\n      tag_220\n        /* \"#utility.yul\":4744:4746   */\n      0x40\n        /* \"#utility.yul\":4733:4742   */\n      dup4\n        /* \"#utility.yul\":4729:4747   */\n      add\n        /* \"#utility.yul\":4720:4726   */\n      dup5\n        /* \"#utility.yul\":4676:4748   */\n      tag_132\n      jump\t// in\n    tag_220:\n        /* \"#utility.yul\":4313:4755   */\n      swap5\n      swap4\n      pop\n      pop\n      pop\n      pop\n      jump\t// out\n        /* \"#utility.yul\":4761:4851   */\n    tag_141:\n        /* \"#utility.yul\":4795:4802   */\n      0x00\n        /* \"#utility.yul\":4838:4843   */\n      dup2\n        /* \"#utility.yul\":4831:4844   */\n      iszero\n        /* \"#utility.yul\":4824:4845   */\n      iszero\n        /* \"#utility.yul\":4813:4845   */\n      swap1\n      pop\n        /* \"#utility.yul\":4761:4851   */\n      swap2\n      swap1\n      pop\n      jump\t// out\n        /* \"#utility.yul\":4857:4973   */\n    tag_142:\n        /* \"#utility.yul\":4927:4948   */\n      tag_223\n        /* \"#utility.yul\":4942:4947   */\n      dup2\n        /* \"#utility.yul\":4927:4948   */\n      tag_141\n      jump\t// in\n    tag_223:\n        /* \"#utility.yul\":4920:4925   */\n      dup2\n        /* \"#utility.yul\":4917:4949   */\n      eq\n        /* \"#utility.yul\":4907:4967   */\n      tag_224\n      jumpi\n        /* \"#utility.yul\":4963:4964   */\n      0x00\n        /* \"#utility.yul\":4960:4961   */\n      dup1\n        /* \"#utility.yul\":4953:4965   */\n      revert\n        /* \"#utility.yul\":4907:4967   */\n    tag_224:\n        /* \"#utility.yul\":4857:4973   */\n      pop\n      jump\t// out\n        /* \"#utility.yul\":4979:5116   */\n    tag_143:\n        /* \"#utility.yul\":5033:5038   */\n      0x00\n        /* \"#utility.yul\":5064:5070   */\n      dup2\n        /* \"#utility.yul\":5058:5071   */\n      mload\n        /* \"#utility.yul\":5049:5071   */\n      swap1\n      pop\n        /* \"#utility.yul\":5080:5110   */\n      tag_226\n        /* \"#utility.yul\":5104:5109   */\n      dup2\n        /* \"#utility.yul\":5080:5110   */\n      tag_142\n      jump\t// in\n    tag_226:\n        /* \"#utility.yul\":4979:5116   */\n      swap3\n      swap2\n      pop\n      pop\n      jump\t// out\n        /* \"#utility.yul\":5122:5467   */\n    tag_72:\n        /* \"#utility.yul\":5189:5195   */\n      0x00\n        /* \"#utility.yul\":5238:5240   */\n      0x20\n        /* \"#utility.yul\":5226:5235   */\n      dup3\n        /* \"#utility.yul\":5217:5224   */\n      dup5\n        /* \"#utility.yul\":5213:5236   */\n      sub\n        /* \"#utility.yul\":5209:5241   */\n      slt\n        /* \"#utility.yul\":5206:5325   */\n      iszero\n      tag_228\n      jumpi\n        /* \"#utility.yul\":5244:5323   */\n      tag_229\n      tag_125\n      jump\t// in\n    tag_229:\n        /* \"#utility.yul\":5206:5325   */\n    tag_228:\n        /* \"#utility.yul\":5364:5365   */\n      0x00\n        /* \"#utility.yul\":5389:5450   */\n      tag_230\n        /* \"#utility.yul\":5442:5449   */\n      dup5\n        /* \"#utility.yul\":5433:5439   */\n      dup3\n        /* \"#utility.yul\":5422:5431   */\n      dup6\n        /* \"#utility.yul\":5418:5440   */\n      add\n        /* \"#utility.yul\":5389:5450   */\n      tag_143\n      jump\t// in\n    tag_230:\n        /* \"#utility.yul\":5379:5450   */\n      swap2\n      pop\n        /* \"#utility.yul\":5335:5460   */\n      pop\n        /* \"#utility.yul\":5122:5467   */\n      swap3\n      swap2\n      pop\n      pop\n      jump\t// out\n        /* \"#utility.yul\":5473:5642   */\n    tag_144:\n        /* \"#utility.yul\":5557:5568   */\n      0x00\n        /* \"#utility.yul\":5591:5597   */\n      dup3\n        /* \"#utility.yul\":5586:5589   */\n      dup3\n        /* \"#utility.yul\":5579:5598   */\n      mstore\n        /* \"#utility.yul\":5631:5635   */\n      0x20\n        /* \"#utility.yul\":5626:5629   */\n      dup3\n        /* \"#utility.yul\":5622:5636   */\n      add\n        /* \"#utility.yul\":5607:5636   */\n      swap1\n      pop\n        /* \"#utility.yul\":5473:5642   */\n      swap3\n      swap2\n      pop\n      pop\n      jump\t// out\n        /* \"#utility.yul\":5648:5871   */\n    tag_145:\n        /* \"#utility.yul\":5788:5822   */\n      0x546f6b656e7320617265204c6f636b656420696e20736d61727420636f6e7472\n        /* \"#utility.yul\":5784:5785   */\n      0x00\n        /* \"#utility.yul\":5776:5782   */\n      dup3\n        /* \"#utility.yul\":5772:5786   */\n      add\n        /* \"#utility.yul\":5765:5823   */\n      mstore\n        /* \"#utility.yul\":5857:5863   */\n      0x6163742000000000000000000000000000000000000000000000000000000000\n        /* \"#utility.yul\":5852:5854   */\n      0x20\n        /* \"#utility.yul\":5844:5850   */\n      dup3\n        /* \"#utility.yul\":5840:5855   */\n      add\n        /* \"#utility.yul\":5833:5864   */\n      mstore\n        /* \"#utility.yul\":5648:5871   */\n      pop\n      jump\t// out\n        /* \"#utility.yul\":5877:6243   */\n    tag_146:\n        /* \"#utility.yul\":6019:6022   */\n      0x00\n        /* \"#utility.yul\":6040:6107   */\n      tag_234\n        /* \"#utility.yul\":6104:6106   */\n      0x24\n        /* \"#utility.yul\":6099:6102   */\n      dup4\n        /* \"#utility.yul\":6040:6107   */\n      tag_144\n      jump\t// in\n    tag_234:\n        /* \"#utility.yul\":6033:6107   */\n      swap2\n      pop\n        /* \"#utility.yul\":6116:6209   */\n      tag_235\n        /* \"#utility.yul\":6205:6208   */\n      dup3\n        /* \"#utility.yul\":6116:6209   */\n      tag_145\n      jump\t// in\n    tag_235:\n        /* \"#utility.yul\":6234:6236   */\n      0x40\n        /* \"#utility.yul\":6229:6232   */\n      dup3\n        /* \"#utility.yul\":6225:6237   */\n      add\n        /* \"#utility.yul\":6218:6237   */\n      swap1\n      pop\n        /* \"#utility.yul\":5877:6243   */\n      swap2\n      swap1\n      pop\n      jump\t// out\n        /* \"#utility.yul\":6249:6778   */\n    tag_74:\n        /* \"#utility.yul\":6443:6447   */\n      0x00\n        /* \"#utility.yul\":6481:6483   */\n      0x40\n        /* \"#utility.yul\":6470:6479   */\n      dup3\n        /* \"#utility.yul\":6466:6484   */\n      add\n        /* \"#utility.yul\":6458:6484   */\n      swap1\n      pop\n        /* \"#utility.yul\":6494:6565   */\n      tag_237\n        /* \"#utility.yul\":6562:6563   */\n      0x00\n        /* \"#utility.yul\":6551:6560   */\n      dup4\n        /* \"#utility.yul\":6547:6564   */\n      add\n        /* \"#utility.yul\":6538:6544   */\n      dup5\n        /* \"#utility.yul\":6494:6565   */\n      tag_140\n      jump\t// in\n    tag_237:\n        /* \"#utility.yul\":6612:6621   */\n      dup2\n        /* \"#utility.yul\":6606:6610   */\n      dup2\n        /* \"#utility.yul\":6602:6622   */\n      sub\n        /* \"#utility.yul\":6597:6599   */\n      0x20\n        /* \"#utility.yul\":6586:6595   */\n      dup4\n        /* \"#utility.yul\":6582:6600   */\n      add\n        /* \"#utility.yul\":6575:6623   */\n      mstore\n        /* \"#utility.yul\":6640:6771   */\n      tag_238\n        /* \"#utility.yul\":6766:6770   */\n      dup2\n        /* \"#utility.yul\":6640:6771   */\n      tag_146\n      jump\t// in\n    tag_238:\n        /* \"#utility.yul\":6632:6771   */\n      swap1\n      pop\n        /* \"#utility.yul\":6249:6778   */\n      swap3\n      swap2\n      pop\n      pop\n      jump\t// out\n        /* \"#utility.yul\":6784:7024   */\n    tag_147:\n        /* \"#utility.yul\":6924:6958   */\n      0x4f6e6c792042656e6566696369617279204f72204f776e65722063616e204c6f\n        /* \"#utility.yul\":6920:6921   */\n      0x00\n        /* \"#utility.yul\":6912:6918   */\n      dup3\n        /* \"#utility.yul\":6908:6922   */\n      add\n        /* \"#utility.yul\":6901:6959   */\n      mstore\n        /* \"#utility.yul\":6993:7016   */\n      0x636b20616e642052656c6561736520546f6b656e730000000000000000000000\n        /* \"#utility.yul\":6988:6990   */\n      0x20\n        /* \"#utility.yul\":6980:6986   */\n      dup3\n        /* \"#utility.yul\":6976:6991   */\n      add\n        /* \"#utility.yul\":6969:7017   */\n      mstore\n        /* \"#utility.yul\":6784:7024   */\n      pop\n      jump\t// out\n        /* \"#utility.yul\":7030:7396   */\n    tag_148:\n        /* \"#utility.yul\":7172:7175   */\n      0x00\n        /* \"#utility.yul\":7193:7260   */\n      tag_241\n        /* \"#utility.yul\":7257:7259   */\n      0x35\n        /* \"#utility.yul\":7252:7255   */\n      dup4\n        /* \"#utility.yul\":7193:7260   */\n      tag_144\n      jump\t// in\n    tag_241:\n        /* \"#utility.yul\":7186:7260   */\n      swap2\n      pop\n        /* \"#utility.yul\":7269:7362   */\n      tag_242\n        /* \"#utility.yul\":7358:7361   */\n      dup3\n        /* \"#utility.yul\":7269:7362   */\n      tag_147\n      jump\t// in\n    tag_242:\n        /* \"#utility.yul\":7387:7389   */\n      0x40\n        /* \"#utility.yul\":7382:7385   */\n      dup3\n        /* \"#utility.yul\":7378:7390   */\n      add\n        /* \"#utility.yul\":7371:7390   */\n      swap1\n      pop\n        /* \"#utility.yul\":7030:7396   */\n      swap2\n      swap1\n      pop\n      jump\t// out\n        /* \"#utility.yul\":7402:7821   */\n    tag_78:\n        /* \"#utility.yul\":7568:7572   */\n      0x00\n        /* \"#utility.yul\":7606:7608   */\n      0x20\n        /* \"#utility.yul\":7595:7604   */\n      dup3\n        /* \"#utility.yul\":7591:7609   */\n      add\n        /* \"#utility.yul\":7583:7609   */\n      swap1\n      pop\n        /* \"#utility.yul\":7655:7664   */\n      dup2\n        /* \"#utility.yul\":7649:7653   */\n      dup2\n        /* \"#utility.yul\":7645:7665   */\n      sub\n        /* \"#utility.yul\":7641:7642   */\n      0x00\n        /* \"#utility.yul\":7630:7639   */\n      dup4\n        /* \"#utility.yul\":7626:7643   */\n      add\n        /* \"#utility.yul\":7619:7666   */\n      mstore\n        /* \"#utility.yul\":7683:7814   */\n      tag_244\n        /* \"#utility.yul\":7809:7813   */\n      dup2\n        /* \"#utility.yul\":7683:7814   */\n      tag_148\n      jump\t// in\n    tag_244:\n        /* \"#utility.yul\":7675:7814   */\n      swap1\n      pop\n        /* \"#utility.yul\":7402:7821   */\n      swap2\n      swap1\n      pop\n      jump\t// out\n        /* \"#utility.yul\":7827:8060   */\n    tag_149:\n        /* \"#utility.yul\":7967:8001   */\n      0x546f6b656e7320436c61696d696e67206172652067726561746572207468616e\n        /* \"#utility.yul\":7963:7964   */\n      0x00\n        /* \"#utility.yul\":7955:7961   */\n      dup3\n        /* \"#utility.yul\":7951:7965   */\n      add\n        /* \"#utility.yul\":7944:8002   */\n      mstore\n        /* \"#utility.yul\":8036:8052   */\n      0x20746f6b656e73206c6f636b6564000000000000000000000000000000000000\n        /* \"#utility.yul\":8031:8033   */\n      0x20\n        /* \"#utility.yul\":8023:8029   */\n      dup3\n        /* \"#utility.yul\":8019:8034   */\n      add\n        /* \"#utility.yul\":8012:8053   */\n      mstore\n        /* \"#utility.yul\":7827:8060   */\n      pop\n      jump\t// out\n        /* \"#utility.yul\":8066:8432   */\n    tag_150:\n        /* \"#utility.yul\":8208:8211   */\n      0x00\n        /* \"#utility.yul\":8229:8296   */\n      tag_247\n        /* \"#utility.yul\":8293:8295   */\n      0x2e\n        /* \"#utility.yul\":8288:8291   */\n      dup4\n        /* \"#utility.yul\":8229:8296   */\n      tag_144\n      jump\t// in\n    tag_247:\n        /* \"#utility.yul\":8222:8296   */\n      swap2\n      pop\n        /* \"#utility.yul\":8305:8398   */\n      tag_248\n        /* \"#utility.yul\":8394:8397   */\n      dup3\n        /* \"#utility.yul\":8305:8398   */\n      tag_149\n      jump\t// in\n    tag_248:\n        /* \"#utility.yul\":8423:8425   */\n      0x40\n        /* \"#utility.yul\":8418:8421   */\n      dup3\n        /* \"#utility.yul\":8414:8426   */\n      add\n        /* \"#utility.yul\":8407:8426   */\n      swap1\n      pop\n        /* \"#utility.yul\":8066:8432   */\n      swap2\n      swap1\n      pop\n      jump\t// out\n        /* \"#utility.yul\":8438:8857   */\n    tag_84:\n        /* \"#utility.yul\":8604:8608   */\n      0x00\n        /* \"#utility.yul\":8642:8644   */\n      0x20\n        /* \"#utility.yul\":8631:8640   */\n      dup3\n        /* \"#utility.yul\":8627:8645   */\n      add\n        /* \"#utility.yul\":8619:8645   */\n      swap1\n      pop\n        /* \"#utility.yul\":8691:8700   */\n      dup2\n        /* \"#utility.yul\":8685:8689   */\n      dup2\n        /* \"#utility.yul\":8681:8701   */\n      sub\n        /* \"#utility.yul\":8677:8678   */\n      0x00\n        /* \"#utility.yul\":8666:8675   */\n      dup4\n        /* \"#utility.yul\":8662:8679   */\n      add\n        /* \"#utility.yul\":8655:8702   */\n      mstore\n        /* \"#utility.yul\":8719:8850   */\n      tag_250\n        /* \"#utility.yul\":8845:8849   */\n      dup2\n        /* \"#utility.yul\":8719:8850   */\n      tag_150\n      jump\t// in\n    tag_250:\n        /* \"#utility.yul\":8711:8850   */\n      swap1\n      pop\n        /* \"#utility.yul\":8438:8857   */\n      swap2\n      swap1\n      pop\n      jump\t// out\n        /* \"#utility.yul\":8863:9028   */\n    tag_151:\n        /* \"#utility.yul\":9003:9020   */\n      0x416c726561647920436c61696d65640000000000000000000000000000000000\n        /* \"#utility.yul\":8999:9000   */\n      0x00\n        /* \"#utility.yul\":8991:8997   */\n      dup3\n        /* \"#utility.yul\":8987:9001   */\n      add\n        /* \"#utility.yul\":8980:9021   */\n      mstore\n        /* \"#utility.yul\":8863:9028   */\n      pop\n      jump\t// out\n        /* \"#utility.yul\":9034:9400   */\n    tag_152:\n        /* \"#utility.yul\":9176:9179   */\n      0x00\n        /* \"#utility.yul\":9197:9264   */\n      tag_253\n        /* \"#utility.yul\":9261:9263   */\n      0x0f\n        /* \"#utility.yul\":9256:9259   */\n      dup4\n        /* \"#utility.yul\":9197:9264   */\n      tag_144\n      jump\t// in\n    tag_253:\n        /* \"#utility.yul\":9190:9264   */\n      swap2\n      pop\n        /* \"#utility.yul\":9273:9366   */\n      tag_254\n        /* \"#utility.yul\":9362:9365   */\n      dup3\n        /* \"#utility.yul\":9273:9366   */\n      tag_151\n      jump\t// in\n    tag_254:\n        /* \"#utility.yul\":9391:9393   */\n      0x20\n        /* \"#utility.yul\":9386:9389   */\n      dup3\n        /* \"#utility.yul\":9382:9394   */\n      add\n        /* \"#utility.yul\":9375:9394   */\n      swap1\n      pop\n        /* \"#utility.yul\":9034:9400   */\n      swap2\n      swap1\n      pop\n      jump\t// out\n        /* \"#utility.yul\":9406:9825   */\n    tag_87:\n        /* \"#utility.yul\":9572:9576   */\n      0x00\n        /* \"#utility.yul\":9610:9612   */\n      0x20\n        /* \"#utility.yul\":9599:9608   */\n      dup3\n        /* \"#utility.yul\":9595:9613   */\n      add\n        /* \"#utility.yul\":9587:9613   */\n      swap1\n      pop\n        /* \"#utility.yul\":9659:9668   */\n      dup2\n        /* \"#utility.yul\":9653:9657   */\n      dup2\n        /* \"#utility.yul\":9649:9669   */\n      sub\n        /* \"#utility.yul\":9645:9646   */\n      0x00\n        /* \"#utility.yul\":9634:9643   */\n      dup4\n        /* \"#utility.yul\":9630:9647   */\n      add\n        /* \"#utility.yul\":9623:9670   */\n      mstore\n        /* \"#utility.yul\":9687:9818   */\n      tag_256\n        /* \"#utility.yul\":9813:9817   */\n      dup2\n        /* \"#utility.yul\":9687:9818   */\n      tag_152\n      jump\t// in\n    tag_256:\n        /* \"#utility.yul\":9679:9818   */\n      swap1\n      pop\n        /* \"#utility.yul\":9406:9825   */\n      swap2\n      swap1\n      pop\n      jump\t// out\n        /* \"#utility.yul\":9831:10011   */\n    tag_153:\n        /* \"#utility.yul\":9879:9956   */\n      0x4e487b7100000000000000000000000000000000000000000000000000000000\n        /* \"#utility.yul\":9876:9877   */\n      0x00\n        /* \"#utility.yul\":9869:9957   */\n      mstore\n        /* \"#utility.yul\":9976:9980   */\n      0x11\n        /* \"#utility.yul\":9973:9974   */\n      0x04\n        /* \"#utility.yul\":9966:9981   */\n      mstore\n        /* \"#utility.yul\":10000:10004   */\n      0x24\n        /* \"#utility.yul\":9997:9998   */\n      0x00\n        /* \"#utility.yul\":9990:10005   */\n      revert\n        /* \"#utility.yul\":10017:10208   */\n    tag_89:\n        /* \"#utility.yul\":10057:10060   */\n      0x00\n        /* \"#utility.yul\":10076:10096   */\n      tag_259\n        /* \"#utility.yul\":10094:10095   */\n      dup3\n        /* \"#utility.yul\":10076:10096   */\n      tag_131\n      jump\t// in\n    tag_259:\n        /* \"#utility.yul\":10071:10096   */\n      swap2\n      pop\n        /* \"#utility.yul\":10110:10130   */\n      tag_260\n        /* \"#utility.yul\":10128:10129   */\n      dup4\n        /* \"#utility.yul\":10110:10130   */\n      tag_131\n      jump\t// in\n    tag_260:\n        /* \"#utility.yul\":10105:10130   */\n      swap3\n      pop\n        /* \"#utility.yul\":10153:10154   */\n      dup3\n        /* \"#utility.yul\":10150:10151   */\n      dup3\n        /* \"#utility.yul\":10146:10155   */\n      add\n        /* \"#utility.yul\":10139:10155   */\n      swap1\n      pop\n        /* \"#utility.yul\":10174:10177   */\n      dup1\n        /* \"#utility.yul\":10171:10172   */\n      dup3\n        /* \"#utility.yul\":10168:10178   */\n      gt\n        /* \"#utility.yul\":10165:10201   */\n      iszero\n      tag_261\n      jumpi\n        /* \"#utility.yul\":10181:10199   */\n      tag_262\n      tag_153\n      jump\t// in\n    tag_262:\n        /* \"#utility.yul\":10165:10201   */\n    tag_261:\n        /* \"#utility.yul\":10017:10208   */\n      swap3\n      swap2\n      pop\n      pop\n      jump\t// out\n        /* \"#utility.yul\":10214:10546   */\n    tag_91:\n        /* \"#utility.yul\":10335:10339   */\n      0x00\n        /* \"#utility.yul\":10373:10375   */\n      0x40\n        /* \"#utility.yul\":10362:10371   */\n      dup3\n        /* \"#utility.yul\":10358:10376   */\n      add\n        /* \"#utility.yul\":10350:10376   */\n      swap1\n      pop\n        /* \"#utility.yul\":10386:10457   */\n      tag_264\n        /* \"#utility.yul\":10454:10455   */\n      0x00\n        /* \"#utility.yul\":10443:10452   */\n      dup4\n        /* \"#utility.yul\":10439:10456   */\n      add\n        /* \"#utility.yul\":10430:10436   */\n      dup6\n        /* \"#utility.yul\":10386:10457   */\n      tag_140\n      jump\t// in\n    tag_264:\n        /* \"#utility.yul\":10467:10539   */\n      tag_265\n        /* \"#utility.yul\":10535:10537   */\n      0x20\n        /* \"#utility.yul\":10524:10533   */\n      dup4\n        /* \"#utility.yul\":10520:10538   */\n      add\n        /* \"#utility.yul\":10511:10517   */\n      dup5\n        /* \"#utility.yul\":10467:10539   */\n      tag_132\n      jump\t// in\n    tag_265:\n        /* \"#utility.yul\":10214:10546   */\n      swap4\n      swap3\n      pop\n      pop\n      pop\n      jump\t// out\n        /* \"#utility.yul\":10552:10785   */\n    tag_154:\n        /* \"#utility.yul\":10692:10726   */\n      0x546f6b656e73206172652052656c656173656420696e206163636f756e74206f\n        /* \"#utility.yul\":10688:10689   */\n      0x00\n        /* \"#utility.yul\":10680:10686   */\n      dup3\n        /* \"#utility.yul\":10676:10690   */\n      add\n        /* \"#utility.yul\":10669:10727   */\n      mstore\n        /* \"#utility.yul\":10761:10777   */\n      0x662062656e656669636961727920000000000000000000000000000000000000\n        /* \"#utility.yul\":10756:10758   */\n      0x20\n        /* \"#utility.yul\":10748:10754   */\n      dup3\n        /* \"#utility.yul\":10744:10759   */\n      add\n        /* \"#utility.yul\":10737:10778   */\n      mstore\n        /* \"#utility.yul\":10552:10785   */\n      pop\n      jump\t// out\n        /* \"#utility.yul\":10791:11157   */\n    tag_155:\n        /* \"#utility.yul\":10933:10936   */\n      0x00\n        /* \"#utility.yul\":10954:11021   */\n      tag_268\n        /* \"#utility.yul\":11018:11020   */\n      0x2e\n        /* \"#utility.yul\":11013:11016   */\n      dup4\n        /* \"#utility.yul\":10954:11021   */\n      tag_144\n      jump\t// in\n    tag_268:\n        /* \"#utility.yul\":10947:11021   */\n      swap2\n      pop\n        /* \"#utility.yul\":11030:11123   */\n      tag_269\n        /* \"#utility.yul\":11119:11122   */\n      dup3\n        /* \"#utility.yul\":11030:11123   */\n      tag_154\n      jump\t// in\n    tag_269:\n        /* \"#utility.yul\":11148:11150   */\n      0x40\n        /* \"#utility.yul\":11143:11146   */\n      dup3\n        /* \"#utility.yul\":11139:11151   */\n      add\n        /* \"#utility.yul\":11132:11151   */\n      swap1\n      pop\n        /* \"#utility.yul\":10791:11157   */\n      swap2\n      swap1\n      pop\n      jump\t// out\n        /* \"#utility.yul\":11163:11692   */\n    tag_96:\n        /* \"#utility.yul\":11357:11361   */\n      0x00\n        /* \"#utility.yul\":11395:11397   */\n      0x40\n        /* \"#utility.yul\":11384:11393   */\n      dup3\n        /* \"#utility.yul\":11380:11398   */\n      add\n        /* \"#utility.yul\":11372:11398   */\n      swap1\n      pop\n        /* \"#utility.yul\":11408:11479   */\n      tag_271\n        /* \"#utility.yul\":11476:11477   */\n      0x00\n        /* \"#utility.yul\":11465:11474   */\n      dup4\n        /* \"#utility.yul\":11461:11478   */\n      add\n        /* \"#utility.yul\":11452:11458   */\n      dup5\n        /* \"#utility.yul\":11408:11479   */\n      tag_140\n      jump\t// in\n    tag_271:\n        /* \"#utility.yul\":11526:11535   */\n      dup2\n        /* \"#utility.yul\":11520:11524   */\n      dup2\n        /* \"#utility.yul\":11516:11536   */\n      sub\n        /* \"#utility.yul\":11511:11513   */\n      0x20\n        /* \"#utility.yul\":11500:11509   */\n      dup4\n        /* \"#utility.yul\":11496:11514   */\n      add\n        /* \"#utility.yul\":11489:11537   */\n      mstore\n        /* \"#utility.yul\":11554:11685   */\n      tag_272\n        /* \"#utility.yul\":11680:11684   */\n      dup2\n        /* \"#utility.yul\":11554:11685   */\n      tag_155\n      jump\t// in\n    tag_272:\n        /* \"#utility.yul\":11546:11685   */\n      swap1\n      pop\n        /* \"#utility.yul\":11163:11692   */\n      swap3\n      swap2\n      pop\n      pop\n      jump\t// out\n        /* \"#utility.yul\":11698:11869   */\n    tag_156:\n        /* \"#utility.yul\":11838:11861   */\n      0x4e65772042656e65666963696172792041646465640000000000000000000000\n        /* \"#utility.yul\":11834:11835   */\n      0x00\n        /* \"#utility.yul\":11826:11832   */\n      dup3\n        /* \"#utility.yul\":11822:11836   */\n      add\n        /* \"#utility.yul\":11815:11862   */\n      mstore\n        /* \"#utility.yul\":11698:11869   */\n      pop\n      jump\t// out\n        /* \"#utility.yul\":11875:12241   */\n    tag_157:\n        /* \"#utility.yul\":12017:12020   */\n      0x00\n        /* \"#utility.yul\":12038:12105   */\n      tag_275\n        /* \"#utility.yul\":12102:12104   */\n      0x15\n        /* \"#utility.yul\":12097:12100   */\n      dup4\n        /* \"#utility.yul\":12038:12105   */\n      tag_144\n      jump\t// in\n    tag_275:\n        /* \"#utility.yul\":12031:12105   */\n      swap2\n      pop\n        /* \"#utility.yul\":12114:12207   */\n      tag_276\n        /* \"#utility.yul\":12203:12206   */\n      dup3\n        /* \"#utility.yul\":12114:12207   */\n      tag_156\n      jump\t// in\n    tag_276:\n        /* \"#utility.yul\":12232:12234   */\n      0x20\n        /* \"#utility.yul\":12227:12230   */\n      dup3\n        /* \"#utility.yul\":12223:12235   */\n      add\n        /* \"#utility.yul\":12216:12235   */\n      swap1\n      pop\n        /* \"#utility.yul\":11875:12241   */\n      swap2\n      swap1\n      pop\n      jump\t// out\n        /* \"#utility.yul\":12247:12776   */\n    tag_103:\n        /* \"#utility.yul\":12441:12445   */\n      0x00\n        /* \"#utility.yul\":12479:12481   */\n      0x40\n        /* \"#utility.yul\":12468:12477   */\n      dup3\n        /* \"#utility.yul\":12464:12482   */\n      add\n        /* \"#utility.yul\":12456:12482   */\n      swap1\n      pop\n        /* \"#utility.yul\":12492:12563   */\n      tag_278\n        /* \"#utility.yul\":12560:12561   */\n      0x00\n        /* \"#utility.yul\":12549:12558   */\n      dup4\n        /* \"#utility.yul\":12545:12562   */\n      add\n        /* \"#utility.yul\":12536:12542   */\n      dup5\n        /* \"#utility.yul\":12492:12563   */\n      tag_140\n      jump\t// in\n    tag_278:\n        /* \"#utility.yul\":12610:12619   */\n      dup2\n        /* \"#utility.yul\":12604:12608   */\n      dup2\n        /* \"#utility.yul\":12600:12620   */\n      sub\n        /* \"#utility.yul\":12595:12597   */\n      0x20\n        /* \"#utility.yul\":12584:12593   */\n      dup4\n        /* \"#utility.yul\":12580:12598   */\n      add\n        /* \"#utility.yul\":12573:12621   */\n      mstore\n        /* \"#utility.yul\":12638:12769   */\n      tag_279\n        /* \"#utility.yul\":12764:12768   */\n      dup2\n        /* \"#utility.yul\":12638:12769   */\n      tag_157\n      jump\t// in\n    tag_279:\n        /* \"#utility.yul\":12630:12769   */\n      swap1\n      pop\n        /* \"#utility.yul\":12247:12776   */\n      swap3\n      swap2\n      pop\n      pop\n      jump\t// out\n        /* \"#utility.yul\":12782:13003   */\n    tag_158:\n        /* \"#utility.yul\":12922:12956   */\n      0x204f6e6c79204f776e65722063616e204164642062656e656665696369617269\n        /* \"#utility.yul\":12918:12919   */\n      0x00\n        /* \"#utility.yul\":12910:12916   */\n      dup3\n        /* \"#utility.yul\":12906:12920   */\n      add\n        /* \"#utility.yul\":12899:12957   */\n      mstore\n        /* \"#utility.yul\":12991:12995   */\n      0x6573000000000000000000000000000000000000000000000000000000000000\n        /* \"#utility.yul\":12986:12988   */\n      0x20\n        /* \"#utility.yul\":12978:12984   */\n      dup3\n        /* \"#utility.yul\":12974:12989   */\n      add\n        /* \"#utility.yul\":12967:12996   */\n      mstore\n        /* \"#utility.yul\":12782:13003   */\n      pop\n      jump\t// out\n        /* \"#utility.yul\":13009:13375   */\n    tag_159:\n        /* \"#utility.yul\":13151:13154   */\n      0x00\n        /* \"#utility.yul\":13172:13239   */\n      tag_282\n        /* \"#utility.yul\":13236:13238   */\n      0x22\n        /* \"#utility.yul\":13231:13234   */\n      dup4\n        /* \"#utility.yul\":13172:13239   */\n      tag_144\n      jump\t// in\n    tag_282:\n        /* \"#utility.yul\":13165:13239   */\n      swap2\n      pop\n        /* \"#utility.yul\":13248:13341   */\n      tag_283\n        /* \"#utility.yul\":13337:13340   */\n      dup3\n        /* \"#utility.yul\":13248:13341   */\n      tag_158\n      jump\t// in\n    tag_283:\n        /* \"#utility.yul\":13366:13368   */\n      0x40\n        /* \"#utility.yul\":13361:13364   */\n      dup3\n        /* \"#utility.yul\":13357:13369   */\n      add\n        /* \"#utility.yul\":13350:13369   */\n      swap1\n      pop\n        /* \"#utility.yul\":13009:13375   */\n      swap2\n      swap1\n      pop\n      jump\t// out\n        /* \"#utility.yul\":13381:13800   */\n    tag_106:\n        /* \"#utility.yul\":13547:13551   */\n      0x00\n        /* \"#utility.yul\":13585:13587   */\n      0x20\n        /* \"#utility.yul\":13574:13583   */\n      dup3\n        /* \"#utility.yul\":13570:13588   */\n      add\n        /* \"#utility.yul\":13562:13588   */\n      swap1\n      pop\n        /* \"#utility.yul\":13634:13643   */\n      dup2\n        /* \"#utility.yul\":13628:13632   */\n      dup2\n        /* \"#utility.yul\":13624:13644   */\n      sub\n        /* \"#utility.yul\":13620:13621   */\n      0x00\n        /* \"#utility.yul\":13609:13618   */\n      dup4\n        /* \"#utility.yul\":13605:13622   */\n      add\n        /* \"#utility.yul\":13598:13645   */\n      mstore\n        /* \"#utility.yul\":13662:13793   */\n      tag_285\n        /* \"#utility.yul\":13788:13792   */\n      dup2\n        /* \"#utility.yul\":13662:13793   */\n      tag_159\n      jump\t// in\n    tag_285:\n        /* \"#utility.yul\":13654:13793   */\n      swap1\n      pop\n        /* \"#utility.yul\":13381:13800   */\n      swap2\n      swap1\n      pop\n      jump\t// out\n        /* \"#utility.yul\":13806:14000   */\n    tag_110:\n        /* \"#utility.yul\":13846:13850   */\n      0x00\n        /* \"#utility.yul\":13866:13886   */\n      tag_287\n        /* \"#utility.yul\":13884:13885   */\n      dup3\n        /* \"#utility.yul\":13866:13886   */\n      tag_131\n      jump\t// in\n    tag_287:\n        /* \"#utility.yul\":13861:13886   */\n      swap2\n      pop\n        /* \"#utility.yul\":13900:13920   */\n      tag_288\n        /* \"#utility.yul\":13918:13919   */\n      dup4\n        /* \"#utility.yul\":13900:13920   */\n      tag_131\n      jump\t// in\n    tag_288:\n        /* \"#utility.yul\":13895:13920   */\n      swap3\n      pop\n        /* \"#utility.yul\":13944:13945   */\n      dup3\n        /* \"#utility.yul\":13941:13942   */\n      dup3\n        /* \"#utility.yul\":13937:13946   */\n      sub\n        /* \"#utility.yul\":13929:13946   */\n      swap1\n      pop\n        /* \"#utility.yul\":13968:13969   */\n      dup2\n        /* \"#utility.yul\":13962:13966   */\n      dup2\n        /* \"#utility.yul\":13959:13970   */\n      gt\n        /* \"#utility.yul\":13956:13993   */\n      iszero\n      tag_289\n      jumpi\n        /* \"#utility.yul\":13973:13991   */\n      tag_290\n      tag_153\n      jump\t// in\n    tag_290:\n        /* \"#utility.yul\":13956:13993   */\n    tag_289:\n        /* \"#utility.yul\":13806:14000   */\n      swap3\n      swap2\n      pop\n      pop\n      jump\t// out\n        /* \"#utility.yul\":14006:14186   */\n    tag_160:\n        /* \"#utility.yul\":14054:14131   */\n      0x4e487b7100000000000000000000000000000000000000000000000000000000\n        /* \"#utility.yul\":14051:14052   */\n      0x00\n        /* \"#utility.yul\":14044:14132   */\n      mstore\n        /* \"#utility.yul\":14151:14155   */\n      0x12\n        /* \"#utility.yul\":14148:14149   */\n      0x04\n        /* \"#utility.yul\":14141:14156   */\n      mstore\n        /* \"#utility.yul\":14175:14179   */\n      0x24\n        /* \"#utility.yul\":14172:14173   */\n      0x00\n        /* \"#utility.yul\":14165:14180   */\n      revert\n        /* \"#utility.yul\":14192:14377   */\n    tag_112:\n        /* \"#utility.yul\":14232:14233   */\n      0x00\n        /* \"#utility.yul\":14249:14269   */\n      tag_293\n        /* \"#utility.yul\":14267:14268   */\n      dup3\n        /* \"#utility.yul\":14249:14269   */\n      tag_131\n      jump\t// in\n    tag_293:\n        /* \"#utility.yul\":14244:14269   */\n      swap2\n      pop\n        /* \"#utility.yul\":14283:14303   */\n      tag_294\n        /* \"#utility.yul\":14301:14302   */\n      dup4\n        /* \"#utility.yul\":14283:14303   */\n      tag_131\n      jump\t// in\n    tag_294:\n        /* \"#utility.yul\":14278:14303   */\n      swap3\n      pop\n        /* \"#utility.yul\":14322:14323   */\n      dup3\n        /* \"#utility.yul\":14312:14347   */\n      tag_295\n      jumpi\n        /* \"#utility.yul\":14327:14345   */\n      tag_296\n      tag_160\n      jump\t// in\n    tag_296:\n        /* \"#utility.yul\":14312:14347   */\n    tag_295:\n        /* \"#utility.yul\":14369:14370   */\n      dup3\n        /* \"#utility.yul\":14366:14367   */\n      dup3\n        /* \"#utility.yul\":14362:14371   */\n      div\n        /* \"#utility.yul\":14357:14371   */\n      swap1\n      pop\n        /* \"#utility.yul\":14192:14377   */\n      swap3\n      swap2\n      pop\n      pop\n      jump\t// out\n        /* \"#utility.yul\":14383:14793   */\n    tag_119:\n        /* \"#utility.yul\":14423:14430   */\n      0x00\n        /* \"#utility.yul\":14446:14466   */\n      tag_298\n        /* \"#utility.yul\":14464:14465   */\n      dup3\n        /* \"#utility.yul\":14446:14466   */\n      tag_131\n      jump\t// in\n    tag_298:\n        /* \"#utility.yul\":14441:14466   */\n      swap2\n      pop\n        /* \"#utility.yul\":14480:14500   */\n      tag_299\n        /* \"#utility.yul\":14498:14499   */\n      dup4\n        /* \"#utility.yul\":14480:14500   */\n      tag_131\n      jump\t// in\n    tag_299:\n        /* \"#utility.yul\":14475:14500   */\n      swap3\n      pop\n        /* \"#utility.yul\":14535:14536   */\n      dup3\n        /* \"#utility.yul\":14532:14533   */\n      dup3\n        /* \"#utility.yul\":14528:14537   */\n      mul\n        /* \"#utility.yul\":14557:14587   */\n      tag_300\n        /* \"#utility.yul\":14575:14586   */\n      dup2\n        /* \"#utility.yul\":14557:14587   */\n      tag_131\n      jump\t// in\n    tag_300:\n        /* \"#utility.yul\":14546:14587   */\n      swap2\n      pop\n        /* \"#utility.yul\":14736:14737   */\n      dup3\n        /* \"#utility.yul\":14727:14734   */\n      dup3\n        /* \"#utility.yul\":14723:14738   */\n      div\n        /* \"#utility.yul\":14720:14721   */\n      dup5\n        /* \"#utility.yul\":14717:14739   */\n      eq\n        /* \"#utility.yul\":14697:14698   */\n      dup4\n        /* \"#utility.yul\":14690:14699   */\n      iszero\n        /* \"#utility.yul\":14670:14753   */\n      or\n        /* \"#utility.yul\":14647:14786   */\n      tag_301\n      jumpi\n        /* \"#utility.yul\":14766:14784   */\n      tag_302\n      tag_153\n      jump\t// in\n    tag_302:\n        /* \"#utility.yul\":14647:14786   */\n    tag_301:\n        /* \"#utility.yul\":14431:14793   */\n      pop\n        /* \"#utility.yul\":14383:14793   */\n      swap3\n      swap2\n      pop\n      pop\n      jump\t// out\n        /* \"#utility.yul\":14799:14971   */\n    tag_161:\n        /* \"#utility.yul\":14939:14963   */\n      0x576169742054696c6c20436c69666620706572696f6400000000000000000000\n        /* \"#utility.yul\":14935:14936   */\n      0x00\n        /* \"#utility.yul\":14927:14933   */\n      dup3\n        /* \"#utility.yul\":14923:14937   */\n      add\n        /* \"#utility.yul\":14916:14964   */\n      mstore\n        /* \"#utility.yul\":14799:14971   */\n      pop\n      jump\t// out\n        /* \"#utility.yul\":14977:15343   */\n    tag_162:\n        /* \"#utility.yul\":15119:15122   */\n      0x00\n        /* \"#utility.yul\":15140:15207   */\n      tag_305\n        /* \"#utility.yul\":15204:15206   */\n      0x16\n        /* \"#utility.yul\":15199:15202   */\n      dup4\n        /* \"#utility.yul\":15140:15207   */\n      tag_144\n      jump\t// in\n    tag_305:\n        /* \"#utility.yul\":15133:15207   */\n      swap2\n      pop\n        /* \"#utility.yul\":15216:15309   */\n      tag_306\n        /* \"#utility.yul\":15305:15308   */\n      dup3\n        /* \"#utility.yul\":15216:15309   */\n      tag_161\n      jump\t// in\n    tag_306:\n        /* \"#utility.yul\":15334:15336   */\n      0x20\n        /* \"#utility.yul\":15329:15332   */\n      dup3\n        /* \"#utility.yul\":15325:15337   */\n      add\n        /* \"#utility.yul\":15318:15337   */\n      swap1\n      pop\n        /* \"#utility.yul\":14977:15343   */\n      swap2\n      swap1\n      pop\n      jump\t// out\n        /* \"#utility.yul\":15349:15768   */\n    tag_123:\n        /* \"#utility.yul\":15515:15519   */\n      0x00\n        /* \"#utility.yul\":15553:15555   */\n      0x20\n        /* \"#utility.yul\":15542:15551   */\n      dup3\n        /* \"#utility.yul\":15538:15556   */\n      add\n        /* \"#utility.yul\":15530:15556   */\n      swap1\n      pop\n        /* \"#utility.yul\":15602:15611   */\n      dup2\n        /* \"#utility.yul\":15596:15600   */\n      dup2\n        /* \"#utility.yul\":15592:15612   */\n      sub\n        /* \"#utility.yul\":15588:15589   */\n      0x00\n        /* \"#utility.yul\":15577:15586   */\n      dup4\n        /* \"#utility.yul\":15573:15590   */\n      add\n        /* \"#utility.yul\":15566:15613   */\n      mstore\n        /* \"#utility.yul\":15630:15761   */\n      tag_308\n        /* \"#utility.yul\":15756:15760   */\n      dup2\n        /* \"#utility.yul\":15630:15761   */\n      tag_162\n      jump\t// in\n    tag_308:\n        /* \"#utility.yul\":15622:15761   */\n      swap1\n      pop\n        /* \"#utility.yul\":15349:15768   */\n      swap2\n      swap1\n      pop\n      jump\t// out\n\n    auxdata: 0xa2646970667358221220de6a8e0e4e0f34d359fd4cfd683feb29daa2078618b3b5ceb701e50d6eb25b8164736f6c63430008120033\n}\n",
				"bytecode": {
					"linkReferences": {},
					"object": "60806040523480156200001157600080fd5b50604051620018423803806200184283398181016040528101906200003791906200013e565b80600860006101000a81548173ffffffffffffffffffffffffffffffffffffffff021916908373ffffffffffffffffffffffffffffffffffffffff16021790555033600760006101000a81548173ffffffffffffffffffffffffffffffffffffffff021916908373ffffffffffffffffffffffffffffffffffffffff1602179055505062000170565b600080fd5b600073ffffffffffffffffffffffffffffffffffffffff82169050919050565b6000620000f282620000c5565b9050919050565b60006200010682620000e5565b9050919050565b6200011881620000f9565b81146200012457600080fd5b50565b60008151905062000138816200010d565b92915050565b600060208284031215620001575762000156620000c0565b5b6000620001678482850162000127565b91505092915050565b6116c280620001806000396000f3fe608060405234801561001057600080fd5b50600436106100b45760003560e01c806396074e701161007157806396074e70146101b1578063b36760a3146101cd578063c4684e9d146101fd578063cb9199a21461022d578063cdce101b1461025d578063fc0c546a1461028d576100b4565b806301567739146100b95780633ce301e5146100e9578063506f36ec146101055780636e1dc66e1461013557806370ff852b1461016557806387b0be4814610195575b600080fd5b6100d360048036038101906100ce9190610e64565b6102ab565b6040516100e09190610eaa565b60405180910390f35b61010360048036038101906100fe9190610ef1565b6102c3565b005b61011f600480360381019061011a9190610e64565b610656565b60405161012c9190610eaa565b60405180910390f35b61014f600480360381019061014a9190610e64565b61066e565b60405161015c9190610eaa565b60405180910390f35b61017f600480360381019061017a9190610e64565b610686565b60405161018c9190610eaa565b60405180910390f35b6101af60048036038101906101aa9190610e64565b61069e565b005b6101cb60048036038101906101c69190610f6c565b61097e565b005b6101e760048036038101906101e29190610e64565b610a8d565b6040516101f49190610eaa565b60405180910390f35b61021760048036038101906102129190610e64565b610aa5565b6040516102249190610eaa565b60405180910390f35b61024760048036038101906102429190610e64565b610dab565b6040516102549190610eaa565b60405180910390f35b61027760048036038101906102729190610e64565b610dc3565b6040516102849190610eaa565b60405180910390f35b610295610ddb565b6040516102a2919061100b565b60405180910390f35b60046020528060005260406000206000915090505481565b84826000808873ffffffffffffffffffffffffffffffffffffffff1673ffffffffffffffffffffffffffffffffffffffff1681526020019081526020016000208190555083600160008873ffffffffffffffffffffffffffffffffffffffff1673ffffffffffffffffffffffffffffffffffffffff1681526020019081526020016000208190555081600260008873ffffffffffffffffffffffffffffffffffffffff1673ffffffffffffffffffffffffffffffffffffffff1681526020019081526020016000208190555042600360008873ffffffffffffffffffffffffffffffffffffffff1673ffffffffffffffffffffffffffffffffffffffff1681526020019081526020016000208190555084600460008873ffffffffffffffffffffffffffffffffffffffff1673ffffffffffffffffffffffffffffffffffffffff16815260200190815260200160002081905550600460008773ffffffffffffffffffffffffffffffffffffffff1673ffffffffffffffffffffffffffffffffffffffff16815260200190815260200160002054600560008873ffffffffffffffffffffffffffffffffffffffff1673ffffffffffffffffffffffffffffffffffffffff16815260200190815260200160002081905550600860009054906101000a900473ffffffffffffffffffffffffffffffffffffffff1673ffffffffffffffffffffffffffffffffffffffff166323b872dd3330886040518463ffffffff1660e01b81526004016104f993929190611035565b6020604051808303816000875af1158015610518573d6000803e3d6000fd5b505050506040513d601f19601f8201168201806040525081019061053c91906110a4565b507f58061f685b438748cf21469042b11fe4dfb0c77fd2da64032c5adc017fc09a888660405161056c9190611154565b60405180910390a16000600460008373ffffffffffffffffffffffffffffffffffffffff1673ffffffffffffffffffffffffffffffffffffffff16815260200190815260200160002054118061060f5750600760009054906101000a900473ffffffffffffffffffffffffffffffffffffffff1673ffffffffffffffffffffffffffffffffffffffff163373ffffffffffffffffffffffffffffffffffffffff16145b61064e576040517f08c379a0000000000000000000000000000000000000000000000000000000008152600401610645906111f4565b60405180910390fd5b505050505050565b60026020528060005260406000206000915090505481565b60036020528060005260406000206000915090505481565b60066020528060005260406000206000915090505481565b8060006106aa83610aa5565b9050600460008473ffffffffffffffffffffffffffffffffffffffff1673ffffffffffffffffffffffffffffffffffffffff1681526020019081526020016000205481111561072e576040517f08c379a000000000000000000000000000000000000000000000000000000000815260040161072590611286565b60405180910390fd5b60008111610771576040517f08c379a0000000000000000000000000000000000000000000000000000000008152600401610768906112f2565b60405180910390fd5b80600660008573ffffffffffffffffffffffffffffffffffffffff1673ffffffffffffffffffffffffffffffffffffffff16815260200190815260200160002060008282546107c09190611341565b92505081905550600860009054906101000a900473ffffffffffffffffffffffffffffffffffffffff1673ffffffffffffffffffffffffffffffffffffffff1663a9059cbb84836040518363ffffffff1660e01b8152600401610824929190611375565b6020604051808303816000875af1158015610843573d6000803e3d6000fd5b505050506040513d601f19601f8201168201806040525081019061086791906110a4565b507fa13f186497986e7b059df4137d98a76d0cb346d0e9a294755b01975e190434a9836040516108979190611410565b60405180910390a1506000600460008373ffffffffffffffffffffffffffffffffffffffff1673ffffffffffffffffffffffffffffffffffffffff16815260200190815260200160002054118061093b5750600760009054906101000a900473ffffffffffffffffffffffffffffffffffffffff1673ffffffffffffffffffffffffffffffffffffffff163373ffffffffffffffffffffffffffffffffffffffff16145b61097a576040517f08c379a0000000000000000000000000000000000000000000000000000000008152600401610971906111f4565b60405180910390fd5b5050565b80600460008473ffffffffffffffffffffffffffffffffffffffff1673ffffffffffffffffffffffffffffffffffffffff168152602001908152602001600020819055507f557197374edb4e72999d5d4c84ca4715c58797739aab2f2b7e300db81b4cd1c3826040516109f1919061148a565b60405180910390a1600760009054906101000a900473ffffffffffffffffffffffffffffffffffffffff1673ffffffffffffffffffffffffffffffffffffffff163373ffffffffffffffffffffffffffffffffffffffff1614610a89576040517f08c379a0000000000000000000000000000000000000000000000000000000008152600401610a809061152a565b60405180910390fd5b5050565b60006020528060005260406000206000915090505481565b6000816000600360008573ffffffffffffffffffffffffffffffffffffffff1673ffffffffffffffffffffffffffffffffffffffff1681526020019081526020016000205442610af5919061154a565b90506000600260008673ffffffffffffffffffffffffffffffffffffffff1673ffffffffffffffffffffffffffffffffffffffff1681526020019081526020016000205482610b4491906115ad565b90506000600260008773ffffffffffffffffffffffffffffffffffffffff1673ffffffffffffffffffffffffffffffffffffffff168152602001908152602001600020546000808873ffffffffffffffffffffffffffffffffffffffff1673ffffffffffffffffffffffffffffffffffffffff16815260200190815260200160002054610bd191906115ad565b9050808210610c6e57600660008773ffffffffffffffffffffffffffffffffffffffff1673ffffffffffffffffffffffffffffffffffffffff16815260200190815260200160002054600460008873ffffffffffffffffffffffffffffffffffffffff1673ffffffffffffffffffffffffffffffffffffffff16815260200190815260200160002054610c64919061154a565b9450505050610d23565b600081600460008973ffffffffffffffffffffffffffffffffffffffff1673ffffffffffffffffffffffffffffffffffffffff16815260200190815260200160002054610cbb91906115ad565b905060008382610ccb91906115de565b9050600660008973ffffffffffffffffffffffffffffffffffffffff1673ffffffffffffffffffffffffffffffffffffffff1681526020019081526020016000205481610d18919061154a565b905080965050505050505b600160008273ffffffffffffffffffffffffffffffffffffffff1673ffffffffffffffffffffffffffffffffffffffff16815260200190815260200160002054421015610da5576040517f08c379a0000000000000000000000000000000000000000000000000000000008152600401610d9c9061166c565b60405180910390fd5b50919050565b60056020528060005260406000206000915090505481565b60016020528060005260406000206000915090505481565b600860009054906101000a900473ffffffffffffffffffffffffffffffffffffffff1681565b600080fd5b600073ffffffffffffffffffffffffffffffffffffffff82169050919050565b6000610e3182610e06565b9050919050565b610e4181610e26565b8114610e4c57600080fd5b50565b600081359050610e5e81610e38565b92915050565b600060208284031215610e7a57610e79610e01565b5b6000610e8884828501610e4f565b91505092915050565b6000819050919050565b610ea481610e91565b82525050565b6000602082019050610ebf6000830184610e9b565b92915050565b610ece81610e91565b8114610ed957600080fd5b50565b600081359050610eeb81610ec5565b92915050565b600080600080600060a08688031215610f0d57610f0c610e01565b5b6000610f1b88828901610e4f565b9550506020610f2c88828901610edc565b9450506040610f3d88828901610edc565b9350506060610f4e88828901610edc565b9250506080610f5f88828901610edc565b9150509295509295909350565b60008060408385031215610f8357610f82610e01565b5b6000610f9185828601610e4f565b9250506020610fa285828601610edc565b9150509250929050565b6000819050919050565b6000610fd1610fcc610fc784610e06565b610fac565b610e06565b9050919050565b6000610fe382610fb6565b9050919050565b6000610ff582610fd8565b9050919050565b61100581610fea565b82525050565b60006020820190506110206000830184610ffc565b92915050565b61102f81610e26565b82525050565b600060608201905061104a6000830186611026565b6110576020830185611026565b6110646040830184610e9b565b949350505050565b60008115159050919050565b6110818161106c565b811461108c57600080fd5b50565b60008151905061109e81611078565b92915050565b6000602082840312156110ba576110b9610e01565b5b60006110c88482850161108f565b91505092915050565b600082825260208201905092915050565b7f546f6b656e7320617265204c6f636b656420696e20736d61727420636f6e747260008201527f6163742000000000000000000000000000000000000000000000000000000000602082015250565b600061113e6024836110d1565b9150611149826110e2565b604082019050919050565b60006040820190506111696000830184611026565b818103602083015261117a81611131565b905092915050565b7f4f6e6c792042656e6566696369617279204f72204f776e65722063616e204c6f60008201527f636b20616e642052656c6561736520546f6b656e730000000000000000000000602082015250565b60006111de6035836110d1565b91506111e982611182565b604082019050919050565b6000602082019050818103600083015261120d816111d1565b9050919050565b7f546f6b656e7320436c61696d696e67206172652067726561746572207468616e60008201527f20746f6b656e73206c6f636b6564000000000000000000000000000000000000602082015250565b6000611270602e836110d1565b915061127b82611214565b604082019050919050565b6000602082019050818103600083015261129f81611263565b9050919050565b7f416c726561647920436c61696d65640000000000000000000000000000000000600082015250565b60006112dc600f836110d1565b91506112e7826112a6565b602082019050919050565b6000602082019050818103600083015261130b816112cf565b9050919050565b7f4e487b7100000000000000000000000000000000000000000000000000000000600052601160045260246000fd5b600061134c82610e91565b915061135783610e91565b925082820190508082111561136f5761136e611312565b5b92915050565b600060408201905061138a6000830185611026565b6113976020830184610e9b565b9392505050565b7f546f6b656e73206172652052656c656173656420696e206163636f756e74206f60008201527f662062656e656669636961727920000000000000000000000000000000000000602082015250565b60006113fa602e836110d1565b91506114058261139e565b604082019050919050565b60006040820190506114256000830184611026565b8181036020830152611436816113ed565b905092915050565b7f4e65772042656e65666963696172792041646465640000000000000000000000600082015250565b60006114746015836110d1565b915061147f8261143e565b602082019050919050565b600060408201905061149f6000830184611026565b81810360208301526114b081611467565b905092915050565b7f204f6e6c79204f776e65722063616e204164642062656e65666569636961726960008201527f6573000000000000000000000000000000000000000000000000000000000000602082015250565b60006115146022836110d1565b915061151f826114b8565b604082019050919050565b6000602082019050818103600083015261154381611507565b9050919050565b600061155582610e91565b915061156083610e91565b925082820390508181111561157857611577611312565b5b92915050565b7f4e487b7100000000000000000000000000000000000000000000000000000000600052601260045260246000fd5b60006115b882610e91565b91506115c383610e91565b9250826115d3576115d261157e565b5b828204905092915050565b60006115e982610e91565b91506115f483610e91565b925082820261160281610e91565b9150828204841483151761161957611618611312565b5b5092915050565b7f576169742054696c6c20436c69666620706572696f6400000000000000000000600082015250565b60006116566016836110d1565b915061166182611620565b602082019050919050565b6000602082019050818103600083015261168581611649565b905091905056fea2646970667358221220de6a8e0e4e0f34d359fd4cfd683feb29daa2078618b3b5ceb701e50d6eb25b8164736f6c63430008120033",
					"opcodes": "PUSH1 0x80 PUSH1 0x40 MSTORE CALLVALUE DUP1 ISZERO PUSH3 0x11 JUMPI PUSH1 0x0 DUP1 REVERT JUMPDEST POP PUSH1 0x40 MLOAD PUSH3 0x1842 CODESIZE SUB DUP1 PUSH3 0x1842 DUP4 CODECOPY DUP2 DUP2 ADD PUSH1 0x40 MSTORE DUP2 ADD SWAP1 PUSH3 0x37 SWAP2 SWAP1 PUSH3 0x13E JUMP JUMPDEST DUP1 PUSH1 0x8 PUSH1 0x0 PUSH2 0x100 EXP DUP2 SLOAD DUP2 PUSH20 0xFFFFFFFFFFFFFFFFFFFFFFFFFFFFFFFFFFFFFFFF MUL NOT AND SWAP1 DUP4 PUSH20 0xFFFFFFFFFFFFFFFFFFFFFFFFFFFFFFFFFFFFFFFF AND MUL OR SWAP1 SSTORE POP CALLER PUSH1 0x7 PUSH1 0x0 PUSH2 0x100 EXP DUP2 SLOAD DUP2 PUSH20 0xFFFFFFFFFFFFFFFFFFFFFFFFFFFFFFFFFFFFFFFF MUL NOT AND SWAP1 DUP4 PUSH20 0xFFFFFFFFFFFFFFFFFFFFFFFFFFFFFFFFFFFFFFFF AND MUL OR SWAP1 SSTORE POP POP PUSH3 0x170 JUMP JUMPDEST PUSH1 0x0 DUP1 REVERT JUMPDEST PUSH1 0x0 PUSH20 0xFFFFFFFFFFFFFFFFFFFFFFFFFFFFFFFFFFFFFFFF DUP3 AND SWAP1 POP SWAP2 SWAP1 POP JUMP JUMPDEST PUSH1 0x0 PUSH3 0xF2 DUP3 PUSH3 0xC5 JUMP JUMPDEST SWAP1 POP SWAP2 SWAP1 POP JUMP JUMPDEST PUSH1 0x0 PUSH3 0x106 DUP3 PUSH3 0xE5 JUMP JUMPDEST SWAP1 POP SWAP2 SWAP1 POP JUMP JUMPDEST PUSH3 0x118 DUP2 PUSH3 0xF9 JUMP JUMPDEST DUP2 EQ PUSH3 0x124 JUMPI PUSH1 0x0 DUP1 REVERT JUMPDEST POP JUMP JUMPDEST PUSH1 0x0 DUP2 MLOAD SWAP1 POP PUSH3 0x138 DUP2 PUSH3 0x10D JUMP JUMPDEST SWAP3 SWAP2 POP POP JUMP JUMPDEST PUSH1 0x0 PUSH1 0x20 DUP3 DUP5 SUB SLT ISZERO PUSH3 0x157 JUMPI PUSH3 0x156 PUSH3 0xC0 JUMP JUMPDEST JUMPDEST PUSH1 0x0 PUSH3 0x167 DUP5 DUP3 DUP6 ADD PUSH3 0x127 JUMP JUMPDEST SWAP2 POP POP SWAP3 SWAP2 POP POP JUMP JUMPDEST PUSH2 0x16C2 DUP1 PUSH3 0x180 PUSH1 0x0 CODECOPY PUSH1 0x0 RETURN INVALID PUSH1 0x80 PUSH1 0x40 MSTORE CALLVALUE DUP1 ISZERO PUSH2 0x10 JUMPI PUSH1 0x0 DUP1 REVERT JUMPDEST POP PUSH1 0x4 CALLDATASIZE LT PUSH2 0xB4 JUMPI PUSH1 0x0 CALLDATALOAD PUSH1 0xE0 SHR DUP1 PUSH4 0x96074E70 GT PUSH2 0x71 JUMPI DUP1 PUSH4 0x96074E70 EQ PUSH2 0x1B1 JUMPI DUP1 PUSH4 0xB36760A3 EQ PUSH2 0x1CD JUMPI DUP1 PUSH4 0xC4684E9D EQ PUSH2 0x1FD JUMPI DUP1 PUSH4 0xCB9199A2 EQ PUSH2 0x22D JUMPI DUP1 PUSH4 0xCDCE101B EQ PUSH2 0x25D JUMPI DUP1 PUSH4 0xFC0C546A EQ PUSH2 0x28D JUMPI PUSH2 0xB4 JUMP JUMPDEST DUP1 PUSH4 0x1567739 EQ PUSH2 0xB9 JUMPI DUP1 PUSH4 0x3CE301E5 EQ PUSH2 0xE9 JUMPI DUP1 PUSH4 0x506F36EC EQ PUSH2 0x105 JUMPI DUP1 PUSH4 0x6E1DC66E EQ PUSH2 0x135 JUMPI DUP1 PUSH4 0x70FF852B EQ PUSH2 0x165 JUMPI DUP1 PUSH4 0x87B0BE48 EQ PUSH2 0x195 JUMPI JUMPDEST PUSH1 0x0 DUP1 REVERT JUMPDEST PUSH2 0xD3 PUSH1 0x4 DUP1 CALLDATASIZE SUB DUP2 ADD SWAP1 PUSH2 0xCE SWAP2 SWAP1 PUSH2 0xE64 JUMP JUMPDEST PUSH2 0x2AB JUMP JUMPDEST PUSH1 0x40 MLOAD PUSH2 0xE0 SWAP2 SWAP1 PUSH2 0xEAA JUMP JUMPDEST PUSH1 0x40 MLOAD DUP1 SWAP2 SUB SWAP1 RETURN JUMPDEST PUSH2 0x103 PUSH1 0x4 DUP1 CALLDATASIZE SUB DUP2 ADD SWAP1 PUSH2 0xFE SWAP2 SWAP1 PUSH2 0xEF1 JUMP JUMPDEST PUSH2 0x2C3 JUMP JUMPDEST STOP JUMPDEST PUSH2 0x11F PUSH1 0x4 DUP1 CALLDATASIZE SUB DUP2 ADD SWAP1 PUSH2 0x11A SWAP2 SWAP1 PUSH2 0xE64 JUMP JUMPDEST PUSH2 0x656 JUMP JUMPDEST PUSH1 0x40 MLOAD PUSH2 0x12C SWAP2 SWAP1 PUSH2 0xEAA JUMP JUMPDEST PUSH1 0x40 MLOAD DUP1 SWAP2 SUB SWAP1 RETURN JUMPDEST PUSH2 0x14F PUSH1 0x4 DUP1 CALLDATASIZE SUB DUP2 ADD SWAP1 PUSH2 0x14A SWAP2 SWAP1 PUSH2 0xE64 JUMP JUMPDEST PUSH2 0x66E JUMP JUMPDEST PUSH1 0x40 MLOAD PUSH2 0x15C SWAP2 SWAP1 PUSH2 0xEAA JUMP JUMPDEST PUSH1 0x40 MLOAD DUP1 SWAP2 SUB SWAP1 RETURN JUMPDEST PUSH2 0x17F PUSH1 0x4 DUP1 CALLDATASIZE SUB DUP2 ADD SWAP1 PUSH2 0x17A SWAP2 SWAP1 PUSH2 0xE64 JUMP JUMPDEST PUSH2 0x686 JUMP JUMPDEST PUSH1 0x40 MLOAD PUSH2 0x18C SWAP2 SWAP1 PUSH2 0xEAA JUMP JUMPDEST PUSH1 0x40 MLOAD DUP1 SWAP2 SUB SWAP1 RETURN JUMPDEST PUSH2 0x1AF PUSH1 0x4 DUP1 CALLDATASIZE SUB DUP2 ADD SWAP1 PUSH2 0x1AA SWAP2 SWAP1 PUSH2 0xE64 JUMP JUMPDEST PUSH2 0x69E JUMP JUMPDEST STOP JUMPDEST PUSH2 0x1CB PUSH1 0x4 DUP1 CALLDATASIZE SUB DUP2 ADD SWAP1 PUSH2 0x1C6 SWAP2 SWAP1 PUSH2 0xF6C JUMP JUMPDEST PUSH2 0x97E JUMP JUMPDEST STOP JUMPDEST PUSH2 0x1E7 PUSH1 0x4 DUP1 CALLDATASIZE SUB DUP2 ADD SWAP1 PUSH2 0x1E2 SWAP2 SWAP1 PUSH2 0xE64 JUMP JUMPDEST PUSH2 0xA8D JUMP JUMPDEST PUSH1 0x40 MLOAD PUSH2 0x1F4 SWAP2 SWAP1 PUSH2 0xEAA JUMP JUMPDEST PUSH1 0x40 MLOAD DUP1 SWAP2 SUB SWAP1 RETURN JUMPDEST PUSH2 0x217 PUSH1 0x4 DUP1 CALLDATASIZE SUB DUP2 ADD SWAP1 PUSH2 0x212 SWAP2 SWAP1 PUSH2 0xE64 JUMP JUMPDEST PUSH2 0xAA5 JUMP JUMPDEST PUSH1 0x40 MLOAD PUSH2 0x224 SWAP2 SWAP1 PUSH2 0xEAA JUMP JUMPDEST PUSH1 0x40 MLOAD DUP1 SWAP2 SUB SWAP1 RETURN JUMPDEST PUSH2 0x247 PUSH1 0x4 DUP1 CALLDATASIZE SUB DUP2 ADD SWAP1 PUSH2 0x242 SWAP2 SWAP1 PUSH2 0xE64 JUMP JUMPDEST PUSH2 0xDAB JUMP JUMPDEST PUSH1 0x40 MLOAD PUSH2 0x254 SWAP2 SWAP1 PUSH2 0xEAA JUMP JUMPDEST PUSH1 0x40 MLOAD DUP1 SWAP2 SUB SWAP1 RETURN JUMPDEST PUSH2 0x277 PUSH1 0x4 DUP1 CALLDATASIZE SUB DUP2 ADD SWAP1 PUSH2 0x272 SWAP2 SWAP1 PUSH2 0xE64 JUMP JUMPDEST PUSH2 0xDC3 JUMP JUMPDEST PUSH1 0x40 MLOAD PUSH2 0x284 SWAP2 SWAP1 PUSH2 0xEAA JUMP JUMPDEST PUSH1 0x40 MLOAD DUP1 SWAP2 SUB SWAP1 RETURN JUMPDEST PUSH2 0x295 PUSH2 0xDDB JUMP JUMPDEST PUSH1 0x40 MLOAD PUSH2 0x2A2 SWAP2 SWAP1 PUSH2 0x100B JUMP JUMPDEST PUSH1 0x40 MLOAD DUP1 SWAP2 SUB SWAP1 RETURN JUMPDEST PUSH1 0x4 PUSH1 0x20 MSTORE DUP1 PUSH1 0x0 MSTORE PUSH1 0x40 PUSH1 0x0 KECCAK256 PUSH1 0x0 SWAP2 POP SWAP1 POP SLOAD DUP2 JUMP JUMPDEST DUP5 DUP3 PUSH1 0x0 DUP1 DUP9 PUSH20 0xFFFFFFFFFFFFFFFFFFFFFFFFFFFFFFFFFFFFFFFF AND PUSH20 0xFFFFFFFFFFFFFFFFFFFFFFFFFFFFFFFFFFFFFFFF AND DUP2 MSTORE PUSH1 0x20 ADD SWAP1 DUP2 MSTORE PUSH1 0x20 ADD PUSH1 0x0 KECCAK256 DUP2 SWAP1 SSTORE POP DUP4 PUSH1 0x1 PUSH1 0x0 DUP9 PUSH20 0xFFFFFFFFFFFFFFFFFFFFFFFFFFFFFFFFFFFFFFFF AND PUSH20 0xFFFFFFFFFFFFFFFFFFFFFFFFFFFFFFFFFFFFFFFF AND DUP2 MSTORE PUSH1 0x20 ADD SWAP1 DUP2 MSTORE PUSH1 0x20 ADD PUSH1 0x0 KECCAK256 DUP2 SWAP1 SSTORE POP DUP2 PUSH1 0x2 PUSH1 0x0 DUP9 PUSH20 0xFFFFFFFFFFFFFFFFFFFFFFFFFFFFFFFFFFFFFFFF AND PUSH20 0xFFFFFFFFFFFFFFFFFFFFFFFFFFFFFFFFFFFFFFFF AND DUP2 MSTORE PUSH1 0x20 ADD SWAP1 DUP2 MSTORE PUSH1 0x20 ADD PUSH1 0x0 KECCAK256 DUP2 SWAP1 SSTORE POP TIMESTAMP PUSH1 0x3 PUSH1 0x0 DUP9 PUSH20 0xFFFFFFFFFFFFFFFFFFFFFFFFFFFFFFFFFFFFFFFF AND PUSH20 0xFFFFFFFFFFFFFFFFFFFFFFFFFFFFFFFFFFFFFFFF AND DUP2 MSTORE PUSH1 0x20 ADD SWAP1 DUP2 MSTORE PUSH1 0x20 ADD PUSH1 0x0 KECCAK256 DUP2 SWAP1 SSTORE POP DUP5 PUSH1 0x4 PUSH1 0x0 DUP9 PUSH20 0xFFFFFFFFFFFFFFFFFFFFFFFFFFFFFFFFFFFFFFFF AND PUSH20 0xFFFFFFFFFFFFFFFFFFFFFFFFFFFFFFFFFFFFFFFF AND DUP2 MSTORE PUSH1 0x20 ADD SWAP1 DUP2 MSTORE PUSH1 0x20 ADD PUSH1 0x0 KECCAK256 DUP2 SWAP1 SSTORE POP PUSH1 0x4 PUSH1 0x0 DUP8 PUSH20 0xFFFFFFFFFFFFFFFFFFFFFFFFFFFFFFFFFFFFFFFF AND PUSH20 0xFFFFFFFFFFFFFFFFFFFFFFFFFFFFFFFFFFFFFFFF AND DUP2 MSTORE PUSH1 0x20 ADD SWAP1 DUP2 MSTORE PUSH1 0x20 ADD PUSH1 0x0 KECCAK256 SLOAD PUSH1 0x5 PUSH1 0x0 DUP9 PUSH20 0xFFFFFFFFFFFFFFFFFFFFFFFFFFFFFFFFFFFFFFFF AND PUSH20 0xFFFFFFFFFFFFFFFFFFFFFFFFFFFFFFFFFFFFFFFF AND DUP2 MSTORE PUSH1 0x20 ADD SWAP1 DUP2 MSTORE PUSH1 0x20 ADD PUSH1 0x0 KECCAK256 DUP2 SWAP1 SSTORE POP PUSH1 0x8 PUSH1 0x0 SWAP1 SLOAD SWAP1 PUSH2 0x100 EXP SWAP1 DIV PUSH20 0xFFFFFFFFFFFFFFFFFFFFFFFFFFFFFFFFFFFFFFFF AND PUSH20 0xFFFFFFFFFFFFFFFFFFFFFFFFFFFFFFFFFFFFFFFF AND PUSH4 0x23B872DD CALLER ADDRESS DUP9 PUSH1 0x40 MLOAD DUP5 PUSH4 0xFFFFFFFF AND PUSH1 0xE0 SHL DUP2 MSTORE PUSH1 0x4 ADD PUSH2 0x4F9 SWAP4 SWAP3 SWAP2 SWAP1 PUSH2 0x1035 JUMP JUMPDEST PUSH1 0x20 PUSH1 0x40 MLOAD DUP1 DUP4 SUB DUP2 PUSH1 0x0 DUP8 GAS CALL ISZERO DUP1 ISZERO PUSH2 0x518 JUMPI RETURNDATASIZE PUSH1 0x0 DUP1 RETURNDATACOPY RETURNDATASIZE PUSH1 0x0 REVERT JUMPDEST POP POP POP POP PUSH1 0x40 MLOAD RETURNDATASIZE PUSH1 0x1F NOT PUSH1 0x1F DUP3 ADD AND DUP3 ADD DUP1 PUSH1 0x40 MSTORE POP DUP2 ADD SWAP1 PUSH2 0x53C SWAP2 SWAP1 PUSH2 0x10A4 JUMP JUMPDEST POP PUSH32 0x58061F685B438748CF21469042B11FE4DFB0C77FD2DA64032C5ADC017FC09A88 DUP7 PUSH1 0x40 MLOAD PUSH2 0x56C SWAP2 SWAP1 PUSH2 0x1154 JUMP JUMPDEST PUSH1 0x40 MLOAD DUP1 SWAP2 SUB SWAP1 LOG1 PUSH1 0x0 PUSH1 0x4 PUSH1 0x0 DUP4 PUSH20 0xFFFFFFFFFFFFFFFFFFFFFFFFFFFFFFFFFFFFFFFF AND PUSH20 0xFFFFFFFFFFFFFFFFFFFFFFFFFFFFFFFFFFFFFFFF AND DUP2 MSTORE PUSH1 0x20 ADD SWAP1 DUP2 MSTORE PUSH1 0x20 ADD PUSH1 0x0 KECCAK256 SLOAD GT DUP1 PUSH2 0x60F JUMPI POP PUSH1 0x7 PUSH1 0x0 SWAP1 SLOAD SWAP1 PUSH2 0x100 EXP SWAP1 DIV PUSH20 0xFFFFFFFFFFFFFFFFFFFFFFFFFFFFFFFFFFFFFFFF AND PUSH20 0xFFFFFFFFFFFFFFFFFFFFFFFFFFFFFFFFFFFFFFFF AND CALLER PUSH20 0xFFFFFFFFFFFFFFFFFFFFFFFFFFFFFFFFFFFFFFFF AND EQ JUMPDEST PUSH2 0x64E JUMPI PUSH1 0x40 MLOAD PUSH32 0x8C379A000000000000000000000000000000000000000000000000000000000 DUP2 MSTORE PUSH1 0x4 ADD PUSH2 0x645 SWAP1 PUSH2 0x11F4 JUMP JUMPDEST PUSH1 0x40 MLOAD DUP1 SWAP2 SUB SWAP1 REVERT JUMPDEST POP POP POP POP POP POP JUMP JUMPDEST PUSH1 0x2 PUSH1 0x20 MSTORE DUP1 PUSH1 0x0 MSTORE PUSH1 0x40 PUSH1 0x0 KECCAK256 PUSH1 0x0 SWAP2 POP SWAP1 POP SLOAD DUP2 JUMP JUMPDEST PUSH1 0x3 PUSH1 0x20 MSTORE DUP1 PUSH1 0x0 MSTORE PUSH1 0x40 PUSH1 0x0 KECCAK256 PUSH1 0x0 SWAP2 POP SWAP1 POP SLOAD DUP2 JUMP JUMPDEST PUSH1 0x6 PUSH1 0x20 MSTORE DUP1 PUSH1 0x0 MSTORE PUSH1 0x40 PUSH1 0x0 KECCAK256 PUSH1 0x0 SWAP2 POP SWAP1 POP SLOAD DUP2 JUMP JUMPDEST DUP1 PUSH1 0x0 PUSH2 0x6AA DUP4 PUSH2 0xAA5 JUMP JUMPDEST SWAP1 POP PUSH1 0x4 PUSH1 0x0 DUP5 PUSH20 0xFFFFFFFFFFFFFFFFFFFFFFFFFFFFFFFFFFFFFFFF AND PUSH20 0xFFFFFFFFFFFFFFFFFFFFFFFFFFFFFFFFFFFFFFFF AND DUP2 MSTORE PUSH1 0x20 ADD SWAP1 DUP2 MSTORE PUSH1 0x20 ADD PUSH1 0x0 KECCAK256 SLOAD DUP2 GT ISZERO PUSH2 0x72E JUMPI PUSH1 0x40 MLOAD PUSH32 0x8C379A000000000000000000000000000000000000000000000000000000000 DUP2 MSTORE PUSH1 0x4 ADD PUSH2 0x725 SWAP1 PUSH2 0x1286 JUMP JUMPDEST PUSH1 0x40 MLOAD DUP1 SWAP2 SUB SWAP1 REVERT JUMPDEST PUSH1 0x0 DUP2 GT PUSH2 0x771 JUMPI PUSH1 0x40 MLOAD PUSH32 0x8C379A000000000000000000000000000000000000000000000000000000000 DUP2 MSTORE PUSH1 0x4 ADD PUSH2 0x768 SWAP1 PUSH2 0x12F2 JUMP JUMPDEST PUSH1 0x40 MLOAD DUP1 SWAP2 SUB SWAP1 REVERT JUMPDEST DUP1 PUSH1 0x6 PUSH1 0x0 DUP6 PUSH20 0xFFFFFFFFFFFFFFFFFFFFFFFFFFFFFFFFFFFFFFFF AND PUSH20 0xFFFFFFFFFFFFFFFFFFFFFFFFFFFFFFFFFFFFFFFF AND DUP2 MSTORE PUSH1 0x20 ADD SWAP1 DUP2 MSTORE PUSH1 0x20 ADD PUSH1 0x0 KECCAK256 PUSH1 0x0 DUP3 DUP3 SLOAD PUSH2 0x7C0 SWAP2 SWAP1 PUSH2 0x1341 JUMP JUMPDEST SWAP3 POP POP DUP2 SWAP1 SSTORE POP PUSH1 0x8 PUSH1 0x0 SWAP1 SLOAD SWAP1 PUSH2 0x100 EXP SWAP1 DIV PUSH20 0xFFFFFFFFFFFFFFFFFFFFFFFFFFFFFFFFFFFFFFFF AND PUSH20 0xFFFFFFFFFFFFFFFFFFFFFFFFFFFFFFFFFFFFFFFF AND PUSH4 0xA9059CBB DUP5 DUP4 PUSH1 0x40 MLOAD DUP4 PUSH4 0xFFFFFFFF AND PUSH1 0xE0 SHL DUP2 MSTORE PUSH1 0x4 ADD PUSH2 0x824 SWAP3 SWAP2 SWAP1 PUSH2 0x1375 JUMP JUMPDEST PUSH1 0x20 PUSH1 0x40 MLOAD DUP1 DUP4 SUB DUP2 PUSH1 0x0 DUP8 GAS CALL ISZERO DUP1 ISZERO PUSH2 0x843 JUMPI RETURNDATASIZE PUSH1 0x0 DUP1 RETURNDATACOPY RETURNDATASIZE PUSH1 0x0 REVERT JUMPDEST POP POP POP POP PUSH1 0x40 MLOAD RETURNDATASIZE PUSH1 0x1F NOT PUSH1 0x1F DUP3 ADD AND DUP3 ADD DUP1 PUSH1 0x40 MSTORE POP DUP2 ADD SWAP1 PUSH2 0x867 SWAP2 SWAP1 PUSH2 0x10A4 JUMP JUMPDEST POP PUSH32 0xA13F186497986E7B059DF4137D98A76D0CB346D0E9A294755B01975E190434A9 DUP4 PUSH1 0x40 MLOAD PUSH2 0x897 SWAP2 SWAP1 PUSH2 0x1410 JUMP JUMPDEST PUSH1 0x40 MLOAD DUP1 SWAP2 SUB SWAP1 LOG1 POP PUSH1 0x0 PUSH1 0x4 PUSH1 0x0 DUP4 PUSH20 0xFFFFFFFFFFFFFFFFFFFFFFFFFFFFFFFFFFFFFFFF AND PUSH20 0xFFFFFFFFFFFFFFFFFFFFFFFFFFFFFFFFFFFFFFFF AND DUP2 MSTORE PUSH1 0x20 ADD SWAP1 DUP2 MSTORE PUSH1 0x20 ADD PUSH1 0x0 KECCAK256 SLOAD GT DUP1 PUSH2 0x93B JUMPI POP PUSH1 0x7 PUSH1 0x0 SWAP1 SLOAD SWAP1 PUSH2 0x100 EXP SWAP1 DIV PUSH20 0xFFFFFFFFFFFFFFFFFFFFFFFFFFFFFFFFFFFFFFFF AND PUSH20 0xFFFFFFFFFFFFFFFFFFFFFFFFFFFFFFFFFFFFFFFF AND CALLER PUSH20 0xFFFFFFFFFFFFFFFFFFFFFFFFFFFFFFFFFFFFFFFF AND EQ JUMPDEST PUSH2 0x97A JUMPI PUSH1 0x40 MLOAD PUSH32 0x8C379A000000000000000000000000000000000000000000000000000000000 DUP2 MSTORE PUSH1 0x4 ADD PUSH2 0x971 SWAP1 PUSH2 0x11F4 JUMP JUMPDEST PUSH1 0x40 MLOAD DUP1 SWAP2 SUB SWAP1 REVERT JUMPDEST POP POP JUMP JUMPDEST DUP1 PUSH1 0x4 PUSH1 0x0 DUP5 PUSH20 0xFFFFFFFFFFFFFFFFFFFFFFFFFFFFFFFFFFFFFFFF AND PUSH20 0xFFFFFFFFFFFFFFFFFFFFFFFFFFFFFFFFFFFFFFFF AND DUP2 MSTORE PUSH1 0x20 ADD SWAP1 DUP2 MSTORE PUSH1 0x20 ADD PUSH1 0x0 KECCAK256 DUP2 SWAP1 SSTORE POP PUSH32 0x557197374EDB4E72999D5D4C84CA4715C58797739AAB2F2B7E300DB81B4CD1C3 DUP3 PUSH1 0x40 MLOAD PUSH2 0x9F1 SWAP2 SWAP1 PUSH2 0x148A JUMP JUMPDEST PUSH1 0x40 MLOAD DUP1 SWAP2 SUB SWAP1 LOG1 PUSH1 0x7 PUSH1 0x0 SWAP1 SLOAD SWAP1 PUSH2 0x100 EXP SWAP1 DIV PUSH20 0xFFFFFFFFFFFFFFFFFFFFFFFFFFFFFFFFFFFFFFFF AND PUSH20 0xFFFFFFFFFFFFFFFFFFFFFFFFFFFFFFFFFFFFFFFF AND CALLER PUSH20 0xFFFFFFFFFFFFFFFFFFFFFFFFFFFFFFFFFFFFFFFF AND EQ PUSH2 0xA89 JUMPI PUSH1 0x40 MLOAD PUSH32 0x8C379A000000000000000000000000000000000000000000000000000000000 DUP2 MSTORE PUSH1 0x4 ADD PUSH2 0xA80 SWAP1 PUSH2 0x152A JUMP JUMPDEST PUSH1 0x40 MLOAD DUP1 SWAP2 SUB SWAP1 REVERT JUMPDEST POP POP JUMP JUMPDEST PUSH1 0x0 PUSH1 0x20 MSTORE DUP1 PUSH1 0x0 MSTORE PUSH1 0x40 PUSH1 0x0 KECCAK256 PUSH1 0x0 SWAP2 POP SWAP1 POP SLOAD DUP2 JUMP JUMPDEST PUSH1 0x0 DUP2 PUSH1 0x0 PUSH1 0x3 PUSH1 0x0 DUP6 PUSH20 0xFFFFFFFFFFFFFFFFFFFFFFFFFFFFFFFFFFFFFFFF AND PUSH20 0xFFFFFFFFFFFFFFFFFFFFFFFFFFFFFFFFFFFFFFFF AND DUP2 MSTORE PUSH1 0x20 ADD SWAP1 DUP2 MSTORE PUSH1 0x20 ADD PUSH1 0x0 KECCAK256 SLOAD TIMESTAMP PUSH2 0xAF5 SWAP2 SWAP1 PUSH2 0x154A JUMP JUMPDEST SWAP1 POP PUSH1 0x0 PUSH1 0x2 PUSH1 0x0 DUP7 PUSH20 0xFFFFFFFFFFFFFFFFFFFFFFFFFFFFFFFFFFFFFFFF AND PUSH20 0xFFFFFFFFFFFFFFFFFFFFFFFFFFFFFFFFFFFFFFFF AND DUP2 MSTORE PUSH1 0x20 ADD SWAP1 DUP2 MSTORE PUSH1 0x20 ADD PUSH1 0x0 KECCAK256 SLOAD DUP3 PUSH2 0xB44 SWAP2 SWAP1 PUSH2 0x15AD JUMP JUMPDEST SWAP1 POP PUSH1 0x0 PUSH1 0x2 PUSH1 0x0 DUP8 PUSH20 0xFFFFFFFFFFFFFFFFFFFFFFFFFFFFFFFFFFFFFFFF AND PUSH20 0xFFFFFFFFFFFFFFFFFFFFFFFFFFFFFFFFFFFFFFFF AND DUP2 MSTORE PUSH1 0x20 ADD SWAP1 DUP2 MSTORE PUSH1 0x20 ADD PUSH1 0x0 KECCAK256 SLOAD PUSH1 0x0 DUP1 DUP9 PUSH20 0xFFFFFFFFFFFFFFFFFFFFFFFFFFFFFFFFFFFFFFFF AND PUSH20 0xFFFFFFFFFFFFFFFFFFFFFFFFFFFFFFFFFFFFFFFF AND DUP2 MSTORE PUSH1 0x20 ADD SWAP1 DUP2 MSTORE PUSH1 0x20 ADD PUSH1 0x0 KECCAK256 SLOAD PUSH2 0xBD1 SWAP2 SWAP1 PUSH2 0x15AD JUMP JUMPDEST SWAP1 POP DUP1 DUP3 LT PUSH2 0xC6E JUMPI PUSH1 0x6 PUSH1 0x0 DUP8 PUSH20 0xFFFFFFFFFFFFFFFFFFFFFFFFFFFFFFFFFFFFFFFF AND PUSH20 0xFFFFFFFFFFFFFFFFFFFFFFFFFFFFFFFFFFFFFFFF AND DUP2 MSTORE PUSH1 0x20 ADD SWAP1 DUP2 MSTORE PUSH1 0x20 ADD PUSH1 0x0 KECCAK256 SLOAD PUSH1 0x4 PUSH1 0x0 DUP9 PUSH20 0xFFFFFFFFFFFFFFFFFFFFFFFFFFFFFFFFFFFFFFFF AND PUSH20 0xFFFFFFFFFFFFFFFFFFFFFFFFFFFFFFFFFFFFFFFF AND DUP2 MSTORE PUSH1 0x20 ADD SWAP1 DUP2 MSTORE PUSH1 0x20 ADD PUSH1 0x0 KECCAK256 SLOAD PUSH2 0xC64 SWAP2 SWAP1 PUSH2 0x154A JUMP JUMPDEST SWAP5 POP POP POP POP PUSH2 0xD23 JUMP JUMPDEST PUSH1 0x0 DUP2 PUSH1 0x4 PUSH1 0x0 DUP10 PUSH20 0xFFFFFFFFFFFFFFFFFFFFFFFFFFFFFFFFFFFFFFFF AND PUSH20 0xFFFFFFFFFFFFFFFFFFFFFFFFFFFFFFFFFFFFFFFF AND DUP2 MSTORE PUSH1 0x20 ADD SWAP1 DUP2 MSTORE PUSH1 0x20 ADD PUSH1 0x0 KECCAK256 SLOAD PUSH2 0xCBB SWAP2 SWAP1 PUSH2 0x15AD JUMP JUMPDEST SWAP1 POP PUSH1 0x0 DUP4 DUP3 PUSH2 0xCCB SWAP2 SWAP1 PUSH2 0x15DE JUMP JUMPDEST SWAP1 POP PUSH1 0x6 PUSH1 0x0 DUP10 PUSH20 0xFFFFFFFFFFFFFFFFFFFFFFFFFFFFFFFFFFFFFFFF AND PUSH20 0xFFFFFFFFFFFFFFFFFFFFFFFFFFFFFFFFFFFFFFFF AND DUP2 MSTORE PUSH1 0x20 ADD SWAP1 DUP2 MSTORE PUSH1 0x20 ADD PUSH1 0x0 KECCAK256 SLOAD DUP2 PUSH2 0xD18 SWAP2 SWAP1 PUSH2 0x154A JUMP JUMPDEST SWAP1 POP DUP1 SWAP7 POP POP POP POP POP POP JUMPDEST PUSH1 0x1 PUSH1 0x0 DUP3 PUSH20 0xFFFFFFFFFFFFFFFFFFFFFFFFFFFFFFFFFFFFFFFF AND PUSH20 0xFFFFFFFFFFFFFFFFFFFFFFFFFFFFFFFFFFFFFFFF AND DUP2 MSTORE PUSH1 0x20 ADD SWAP1 DUP2 MSTORE PUSH1 0x20 ADD PUSH1 0x0 KECCAK256 SLOAD TIMESTAMP LT ISZERO PUSH2 0xDA5 JUMPI PUSH1 0x40 MLOAD PUSH32 0x8C379A000000000000000000000000000000000000000000000000000000000 DUP2 MSTORE PUSH1 0x4 ADD PUSH2 0xD9C SWAP1 PUSH2 0x166C JUMP JUMPDEST PUSH1 0x40 MLOAD DUP1 SWAP2 SUB SWAP1 REVERT JUMPDEST POP SWAP2 SWAP1 POP JUMP JUMPDEST PUSH1 0x5 PUSH1 0x20 MSTORE DUP1 PUSH1 0x0 MSTORE PUSH1 0x40 PUSH1 0x0 KECCAK256 PUSH1 0x0 SWAP2 POP SWAP1 POP SLOAD DUP2 JUMP JUMPDEST PUSH1 0x1 PUSH1 0x20 MSTORE DUP1 PUSH1 0x0 MSTORE PUSH1 0x40 PUSH1 0x0 KECCAK256 PUSH1 0x0 SWAP2 POP SWAP1 POP SLOAD DUP2 JUMP JUMPDEST PUSH1 0x8 PUSH1 0x0 SWAP1 SLOAD SWAP1 PUSH2 0x100 EXP SWAP1 DIV PUSH20 0xFFFFFFFFFFFFFFFFFFFFFFFFFFFFFFFFFFFFFFFF AND DUP2 JUMP JUMPDEST PUSH1 0x0 DUP1 REVERT JUMPDEST PUSH1 0x0 PUSH20 0xFFFFFFFFFFFFFFFFFFFFFFFFFFFFFFFFFFFFFFFF DUP3 AND SWAP1 POP SWAP2 SWAP1 POP JUMP JUMPDEST PUSH1 0x0 PUSH2 0xE31 DUP3 PUSH2 0xE06 JUMP JUMPDEST SWAP1 POP SWAP2 SWAP1 POP JUMP JUMPDEST PUSH2 0xE41 DUP2 PUSH2 0xE26 JUMP JUMPDEST DUP2 EQ PUSH2 0xE4C JUMPI PUSH1 0x0 DUP1 REVERT JUMPDEST POP JUMP JUMPDEST PUSH1 0x0 DUP2 CALLDATALOAD SWAP1 POP PUSH2 0xE5E DUP2 PUSH2 0xE38 JUMP JUMPDEST SWAP3 SWAP2 POP POP JUMP JUMPDEST PUSH1 0x0 PUSH1 0x20 DUP3 DUP5 SUB SLT ISZERO PUSH2 0xE7A JUMPI PUSH2 0xE79 PUSH2 0xE01 JUMP JUMPDEST JUMPDEST PUSH1 0x0 PUSH2 0xE88 DUP5 DUP3 DUP6 ADD PUSH2 0xE4F JUMP JUMPDEST SWAP2 POP POP SWAP3 SWAP2 POP POP JUMP JUMPDEST PUSH1 0x0 DUP2 SWAP1 POP SWAP2 SWAP1 POP JUMP JUMPDEST PUSH2 0xEA4 DUP2 PUSH2 0xE91 JUMP JUMPDEST DUP3 MSTORE POP POP JUMP JUMPDEST PUSH1 0x0 PUSH1 0x20 DUP3 ADD SWAP1 POP PUSH2 0xEBF PUSH1 0x0 DUP4 ADD DUP5 PUSH2 0xE9B JUMP JUMPDEST SWAP3 SWAP2 POP POP JUMP JUMPDEST PUSH2 0xECE DUP2 PUSH2 0xE91 JUMP JUMPDEST DUP2 EQ PUSH2 0xED9 JUMPI PUSH1 0x0 DUP1 REVERT JUMPDEST POP JUMP JUMPDEST PUSH1 0x0 DUP2 CALLDATALOAD SWAP1 POP PUSH2 0xEEB DUP2 PUSH2 0xEC5 JUMP JUMPDEST SWAP3 SWAP2 POP POP JUMP JUMPDEST PUSH1 0x0 DUP1 PUSH1 0x0 DUP1 PUSH1 0x0 PUSH1 0xA0 DUP7 DUP9 SUB SLT ISZERO PUSH2 0xF0D JUMPI PUSH2 0xF0C PUSH2 0xE01 JUMP JUMPDEST JUMPDEST PUSH1 0x0 PUSH2 0xF1B DUP9 DUP3 DUP10 ADD PUSH2 0xE4F JUMP JUMPDEST SWAP6 POP POP PUSH1 0x20 PUSH2 0xF2C DUP9 DUP3 DUP10 ADD PUSH2 0xEDC JUMP JUMPDEST SWAP5 POP POP PUSH1 0x40 PUSH2 0xF3D DUP9 DUP3 DUP10 ADD PUSH2 0xEDC JUMP JUMPDEST SWAP4 POP POP PUSH1 0x60 PUSH2 0xF4E DUP9 DUP3 DUP10 ADD PUSH2 0xEDC JUMP JUMPDEST SWAP3 POP POP PUSH1 0x80 PUSH2 0xF5F DUP9 DUP3 DUP10 ADD PUSH2 0xEDC JUMP JUMPDEST SWAP2 POP POP SWAP3 SWAP6 POP SWAP3 SWAP6 SWAP1 SWAP4 POP JUMP JUMPDEST PUSH1 0x0 DUP1 PUSH1 0x40 DUP4 DUP6 SUB SLT ISZERO PUSH2 0xF83 JUMPI PUSH2 0xF82 PUSH2 0xE01 JUMP JUMPDEST JUMPDEST PUSH1 0x0 PUSH2 0xF91 DUP6 DUP3 DUP7 ADD PUSH2 0xE4F JUMP JUMPDEST SWAP3 POP POP PUSH1 0x20 PUSH2 0xFA2 DUP6 DUP3 DUP7 ADD PUSH2 0xEDC JUMP JUMPDEST SWAP2 POP POP SWAP3 POP SWAP3 SWAP1 POP JUMP JUMPDEST PUSH1 0x0 DUP2 SWAP1 POP SWAP2 SWAP1 POP JUMP JUMPDEST PUSH1 0x0 PUSH2 0xFD1 PUSH2 0xFCC PUSH2 0xFC7 DUP5 PUSH2 0xE06 JUMP JUMPDEST PUSH2 0xFAC JUMP JUMPDEST PUSH2 0xE06 JUMP JUMPDEST SWAP1 POP SWAP2 SWAP1 POP JUMP JUMPDEST PUSH1 0x0 PUSH2 0xFE3 DUP3 PUSH2 0xFB6 JUMP JUMPDEST SWAP1 POP SWAP2 SWAP1 POP JUMP JUMPDEST PUSH1 0x0 PUSH2 0xFF5 DUP3 PUSH2 0xFD8 JUMP JUMPDEST SWAP1 POP SWAP2 SWAP1 POP JUMP JUMPDEST PUSH2 0x1005 DUP2 PUSH2 0xFEA JUMP JUMPDEST DUP3 MSTORE POP POP JUMP JUMPDEST PUSH1 0x0 PUSH1 0x20 DUP3 ADD SWAP1 POP PUSH2 0x1020 PUSH1 0x0 DUP4 ADD DUP5 PUSH2 0xFFC JUMP JUMPDEST SWAP3 SWAP2 POP POP JUMP JUMPDEST PUSH2 0x102F DUP2 PUSH2 0xE26 JUMP JUMPDEST DUP3 MSTORE POP POP JUMP JUMPDEST PUSH1 0x0 PUSH1 0x60 DUP3 ADD SWAP1 POP PUSH2 0x104A PUSH1 0x0 DUP4 ADD DUP7 PUSH2 0x1026 JUMP JUMPDEST PUSH2 0x1057 PUSH1 0x20 DUP4 ADD DUP6 PUSH2 0x1026 JUMP JUMPDEST PUSH2 0x1064 PUSH1 0x40 DUP4 ADD DUP5 PUSH2 0xE9B JUMP JUMPDEST SWAP5 SWAP4 POP POP POP POP JUMP JUMPDEST PUSH1 0x0 DUP2 ISZERO ISZERO SWAP1 POP SWAP2 SWAP1 POP JUMP JUMPDEST PUSH2 0x1081 DUP2 PUSH2 0x106C JUMP JUMPDEST DUP2 EQ PUSH2 0x108C JUMPI PUSH1 0x0 DUP1 REVERT JUMPDEST POP JUMP JUMPDEST PUSH1 0x0 DUP2 MLOAD SWAP1 POP PUSH2 0x109E DUP2 PUSH2 0x1078 JUMP JUMPDEST SWAP3 SWAP2 POP POP JUMP JUMPDEST PUSH1 0x0 PUSH1 0x20 DUP3 DUP5 SUB SLT ISZERO PUSH2 0x10BA JUMPI PUSH2 0x10B9 PUSH2 0xE01 JUMP JUMPDEST JUMPDEST PUSH1 0x0 PUSH2 0x10C8 DUP5 DUP3 DUP6 ADD PUSH2 0x108F JUMP JUMPDEST SWAP2 POP POP SWAP3 SWAP2 POP POP JUMP JUMPDEST PUSH1 0x0 DUP3 DUP3 MSTORE PUSH1 0x20 DUP3 ADD SWAP1 POP SWAP3 SWAP2 POP POP JUMP JUMPDEST PUSH32 0x546F6B656E7320617265204C6F636B656420696E20736D61727420636F6E7472 PUSH1 0x0 DUP3 ADD MSTORE PUSH32 0x6163742000000000000000000000000000000000000000000000000000000000 PUSH1 0x20 DUP3 ADD MSTORE POP JUMP JUMPDEST PUSH1 0x0 PUSH2 0x113E PUSH1 0x24 DUP4 PUSH2 0x10D1 JUMP JUMPDEST SWAP2 POP PUSH2 0x1149 DUP3 PUSH2 0x10E2 JUMP JUMPDEST PUSH1 0x40 DUP3 ADD SWAP1 POP SWAP2 SWAP1 POP JUMP JUMPDEST PUSH1 0x0 PUSH1 0x40 DUP3 ADD SWAP1 POP PUSH2 0x1169 PUSH1 0x0 DUP4 ADD DUP5 PUSH2 0x1026 JUMP JUMPDEST DUP2 DUP2 SUB PUSH1 0x20 DUP4 ADD MSTORE PUSH2 0x117A DUP2 PUSH2 0x1131 JUMP JUMPDEST SWAP1 POP SWAP3 SWAP2 POP POP JUMP JUMPDEST PUSH32 0x4F6E6C792042656E6566696369617279204F72204F776E65722063616E204C6F PUSH1 0x0 DUP3 ADD MSTORE PUSH32 0x636B20616E642052656C6561736520546F6B656E730000000000000000000000 PUSH1 0x20 DUP3 ADD MSTORE POP JUMP JUMPDEST PUSH1 0x0 PUSH2 0x11DE PUSH1 0x35 DUP4 PUSH2 0x10D1 JUMP JUMPDEST SWAP2 POP PUSH2 0x11E9 DUP3 PUSH2 0x1182 JUMP JUMPDEST PUSH1 0x40 DUP3 ADD SWAP1 POP SWAP2 SWAP1 POP JUMP JUMPDEST PUSH1 0x0 PUSH1 0x20 DUP3 ADD SWAP1 POP DUP2 DUP2 SUB PUSH1 0x0 DUP4 ADD MSTORE PUSH2 0x120D DUP2 PUSH2 0x11D1 JUMP JUMPDEST SWAP1 POP SWAP2 SWAP1 POP JUMP JUMPDEST PUSH32 0x546F6B656E7320436C61696D696E67206172652067726561746572207468616E PUSH1 0x0 DUP3 ADD MSTORE PUSH32 0x20746F6B656E73206C6F636B6564000000000000000000000000000000000000 PUSH1 0x20 DUP3 ADD MSTORE POP JUMP JUMPDEST PUSH1 0x0 PUSH2 0x1270 PUSH1 0x2E DUP4 PUSH2 0x10D1 JUMP JUMPDEST SWAP2 POP PUSH2 0x127B DUP3 PUSH2 0x1214 JUMP JUMPDEST PUSH1 0x40 DUP3 ADD SWAP1 POP SWAP2 SWAP1 POP JUMP JUMPDEST PUSH1 0x0 PUSH1 0x20 DUP3 ADD SWAP1 POP DUP2 DUP2 SUB PUSH1 0x0 DUP4 ADD MSTORE PUSH2 0x129F DUP2 PUSH2 0x1263 JUMP JUMPDEST SWAP1 POP SWAP2 SWAP1 POP JUMP JUMPDEST PUSH32 0x416C726561647920436C61696D65640000000000000000000000000000000000 PUSH1 0x0 DUP3 ADD MSTORE POP JUMP JUMPDEST PUSH1 0x0 PUSH2 0x12DC PUSH1 0xF DUP4 PUSH2 0x10D1 JUMP JUMPDEST SWAP2 POP PUSH2 0x12E7 DUP3 PUSH2 0x12A6 JUMP JUMPDEST PUSH1 0x20 DUP3 ADD SWAP1 POP SWAP2 SWAP1 POP JUMP JUMPDEST PUSH1 0x0 PUSH1 0x20 DUP3 ADD SWAP1 POP DUP2 DUP2 SUB PUSH1 0x0 DUP4 ADD MSTORE PUSH2 0x130B DUP2 PUSH2 0x12CF JUMP JUMPDEST SWAP1 POP SWAP2 SWAP1 POP JUMP JUMPDEST PUSH32 0x4E487B7100000000000000000000000000000000000000000000000000000000 PUSH1 0x0 MSTORE PUSH1 0x11 PUSH1 0x4 MSTORE PUSH1 0x24 PUSH1 0x0 REVERT JUMPDEST PUSH1 0x0 PUSH2 0x134C DUP3 PUSH2 0xE91 JUMP JUMPDEST SWAP2 POP PUSH2 0x1357 DUP4 PUSH2 0xE91 JUMP JUMPDEST SWAP3 POP DUP3 DUP3 ADD SWAP1 POP DUP1 DUP3 GT ISZERO PUSH2 0x136F JUMPI PUSH2 0x136E PUSH2 0x1312 JUMP JUMPDEST JUMPDEST SWAP3 SWAP2 POP POP JUMP JUMPDEST PUSH1 0x0 PUSH1 0x40 DUP3 ADD SWAP1 POP PUSH2 0x138A PUSH1 0x0 DUP4 ADD DUP6 PUSH2 0x1026 JUMP JUMPDEST PUSH2 0x1397 PUSH1 0x20 DUP4 ADD DUP5 PUSH2 0xE9B JUMP JUMPDEST SWAP4 SWAP3 POP POP POP JUMP JUMPDEST PUSH32 0x546F6B656E73206172652052656C656173656420696E206163636F756E74206F PUSH1 0x0 DUP3 ADD MSTORE PUSH32 0x662062656E656669636961727920000000000000000000000000000000000000 PUSH1 0x20 DUP3 ADD MSTORE POP JUMP JUMPDEST PUSH1 0x0 PUSH2 0x13FA PUSH1 0x2E DUP4 PUSH2 0x10D1 JUMP JUMPDEST SWAP2 POP PUSH2 0x1405 DUP3 PUSH2 0x139E JUMP JUMPDEST PUSH1 0x40 DUP3 ADD SWAP1 POP SWAP2 SWAP1 POP JUMP JUMPDEST PUSH1 0x0 PUSH1 0x40 DUP3 ADD SWAP1 POP PUSH2 0x1425 PUSH1 0x0 DUP4 ADD DUP5 PUSH2 0x1026 JUMP JUMPDEST DUP2 DUP2 SUB PUSH1 0x20 DUP4 ADD MSTORE PUSH2 0x1436 DUP2 PUSH2 0x13ED JUMP JUMPDEST SWAP1 POP SWAP3 SWAP2 POP POP JUMP JUMPDEST PUSH32 0x4E65772042656E65666963696172792041646465640000000000000000000000 PUSH1 0x0 DUP3 ADD MSTORE POP JUMP JUMPDEST PUSH1 0x0 PUSH2 0x1474 PUSH1 0x15 DUP4 PUSH2 0x10D1 JUMP JUMPDEST SWAP2 POP PUSH2 0x147F DUP3 PUSH2 0x143E JUMP JUMPDEST PUSH1 0x20 DUP3 ADD SWAP1 POP SWAP2 SWAP1 POP JUMP JUMPDEST PUSH1 0x0 PUSH1 0x40 DUP3 ADD SWAP1 POP PUSH2 0x149F PUSH1 0x0 DUP4 ADD DUP5 PUSH2 0x1026 JUMP JUMPDEST DUP2 DUP2 SUB PUSH1 0x20 DUP4 ADD MSTORE PUSH2 0x14B0 DUP2 PUSH2 0x1467 JUMP JUMPDEST SWAP1 POP SWAP3 SWAP2 POP POP JUMP JUMPDEST PUSH32 0x204F6E6C79204F776E65722063616E204164642062656E656665696369617269 PUSH1 0x0 DUP3 ADD MSTORE PUSH32 0x6573000000000000000000000000000000000000000000000000000000000000 PUSH1 0x20 DUP3 ADD MSTORE POP JUMP JUMPDEST PUSH1 0x0 PUSH2 0x1514 PUSH1 0x22 DUP4 PUSH2 0x10D1 JUMP JUMPDEST SWAP2 POP PUSH2 0x151F DUP3 PUSH2 0x14B8 JUMP JUMPDEST PUSH1 0x40 DUP3 ADD SWAP1 POP SWAP2 SWAP1 POP JUMP JUMPDEST PUSH1 0x0 PUSH1 0x20 DUP3 ADD SWAP1 POP DUP2 DUP2 SUB PUSH1 0x0 DUP4 ADD MSTORE PUSH2 0x1543 DUP2 PUSH2 0x1507 JUMP JUMPDEST SWAP1 POP SWAP2 SWAP1 POP JUMP JUMPDEST PUSH1 0x0 PUSH2 0x1555 DUP3 PUSH2 0xE91 JUMP JUMPDEST SWAP2 POP PUSH2 0x1560 DUP4 PUSH2 0xE91 JUMP JUMPDEST SWAP3 POP DUP3 DUP3 SUB SWAP1 POP DUP2 DUP2 GT ISZERO PUSH2 0x1578 JUMPI PUSH2 0x1577 PUSH2 0x1312 JUMP JUMPDEST JUMPDEST SWAP3 SWAP2 POP POP JUMP JUMPDEST PUSH32 0x4E487B7100000000000000000000000000000000000000000000000000000000 PUSH1 0x0 MSTORE PUSH1 0x12 PUSH1 0x4 MSTORE PUSH1 0x24 PUSH1 0x0 REVERT JUMPDEST PUSH1 0x0 PUSH2 0x15B8 DUP3 PUSH2 0xE91 JUMP JUMPDEST SWAP2 POP PUSH2 0x15C3 DUP4 PUSH2 0xE91 JUMP JUMPDEST SWAP3 POP DUP3 PUSH2 0x15D3 JUMPI PUSH2 0x15D2 PUSH2 0x157E JUMP JUMPDEST JUMPDEST DUP3 DUP3 DIV SWAP1 POP SWAP3 SWAP2 POP POP JUMP JUMPDEST PUSH1 0x0 PUSH2 0x15E9 DUP3 PUSH2 0xE91 JUMP JUMPDEST SWAP2 POP PUSH2 0x15F4 DUP4 PUSH2 0xE91 JUMP JUMPDEST SWAP3 POP DUP3 DUP3 MUL PUSH2 0x1602 DUP2 PUSH2 0xE91 JUMP JUMPDEST SWAP2 POP DUP3 DUP3 DIV DUP5 EQ DUP4 ISZERO OR PUSH2 0x1619 JUMPI PUSH2 0x1618 PUSH2 0x1312 JUMP JUMPDEST JUMPDEST POP SWAP3 SWAP2 POP POP JUMP JUMPDEST PUSH32 0x576169742054696C6C20436C69666620706572696F6400000000000000000000 PUSH1 0x0 DUP3 ADD MSTORE POP JUMP JUMPDEST PUSH1 0x0 PUSH2 0x1656 PUSH1 0x16 DUP4 PUSH2 0x10D1 JUMP JUMPDEST SWAP2 POP PUSH2 0x1661 DUP3 PUSH2 0x1620 JUMP JUMPDEST PUSH1 0x20 DUP3 ADD SWAP1 POP SWAP2 SWAP1 POP JUMP JUMPDEST PUSH1 0x0 PUSH1 0x20 DUP3 ADD SWAP1 POP DUP2 DUP2 SUB PUSH1 0x0 DUP4 ADD MSTORE PUSH2 0x1685 DUP2 PUSH2 0x1649 JUMP JUMPDEST SWAP1 POP SWAP2 SWAP1 POP JUMP INVALID LOG2 PUSH5 0x6970667358 0x22 SLT KECCAK256 0xDE PUSH11 0x8E0E4E0F34D359FD4CFD68 EXTCODEHASH 0xEB 0x29 0xDA LOG2 SMOD DUP7 XOR 0xB3 0xB5 0xCE 0xB7 ADD 0xE5 0xD PUSH15 0xB25B8164736F6C6343000812003300 "
				},
				"gasEstimates": {
					"creation": {
						"codeDepositCost": "1165200",
						"executionCost": "infinite",
						"totalCost": "infinite"
					},
					"external": {
						"addBeneficiary(address,uint256)": "infinite",
						"beneficiaries(address)": "2815",
						"cliff(address)": "2902",
						"duration(address)": "2836",
						"lockTokens(address,uint256,uint256,uint256,uint256)": "infinite",
						"releasableTokens(address)": "infinite",
						"releaseTokens(address)": "infinite",
						"releasedTokens(address)": "2903",
						"slicePeriod(address)": "2859",
						"startTime(address)": "2881",
						"token()": "infinite",
						"totalTokens(address)": "2880"
					}
				},
				"methodIdentifiers": {
					"addBeneficiary(address,uint256)": "96074e70",
					"beneficiaries(address)": "01567739",
					"cliff(address)": "cdce101b",
					"duration(address)": "b36760a3",
					"lockTokens(address,uint256,uint256,uint256,uint256)": "3ce301e5",
					"releasableTokens(address)": "c4684e9d",
					"releaseTokens(address)": "87b0be48",
					"releasedTokens(address)": "70ff852b",
					"slicePeriod(address)": "506f36ec",
					"startTime(address)": "6e1dc66e",
					"token()": "fc0c546a",
					"totalTokens(address)": "cb9199a2"
				}
			},
			"storageLayout": {
				"storage": [
					{
						"astId": 84,
						"contract": "contracts/TokenVesting.sol:TokenVesting",
						"label": "duration",
						"offset": 0,
						"slot": "0",
						"type": "t_mapping(t_address,t_uint256)"
					},
					{
						"astId": 88,
						"contract": "contracts/TokenVesting.sol:TokenVesting",
						"label": "cliff",
						"offset": 0,
						"slot": "1",
						"type": "t_mapping(t_address,t_uint256)"
					},
					{
						"astId": 92,
						"contract": "contracts/TokenVesting.sol:TokenVesting",
						"label": "slicePeriod",
						"offset": 0,
						"slot": "2",
						"type": "t_mapping(t_address,t_uint256)"
					},
					{
						"astId": 96,
						"contract": "contracts/TokenVesting.sol:TokenVesting",
						"label": "startTime",
						"offset": 0,
						"slot": "3",
						"type": "t_mapping(t_address,t_uint256)"
					},
					{
						"astId": 100,
						"contract": "contracts/TokenVesting.sol:TokenVesting",
						"label": "beneficiaries",
						"offset": 0,
						"slot": "4",
						"type": "t_mapping(t_address,t_uint256)"
					},
					{
						"astId": 104,
						"contract": "contracts/TokenVesting.sol:TokenVesting",
						"label": "totalTokens",
						"offset": 0,
						"slot": "5",
						"type": "t_mapping(t_address,t_uint256)"
					},
					{
						"astId": 108,
						"contract": "contracts/TokenVesting.sol:TokenVesting",
						"label": "releasedTokens",
						"offset": 0,
						"slot": "6",
						"type": "t_mapping(t_address,t_uint256)"
					},
					{
						"astId": 110,
						"contract": "contracts/TokenVesting.sol:TokenVesting",
						"label": "owner",
						"offset": 0,
						"slot": "7",
						"type": "t_address"
					},
					{
						"astId": 113,
						"contract": "contracts/TokenVesting.sol:TokenVesting",
						"label": "token",
						"offset": 0,
						"slot": "8",
						"type": "t_contract(IERC20)77"
					}
				],
				"types": {
					"t_address": {
						"encoding": "inplace",
						"label": "address",
						"numberOfBytes": "20"
					},
					"t_contract(IERC20)77": {
						"encoding": "inplace",
						"label": "contract IERC20",
						"numberOfBytes": "20"
					},
					"t_mapping(t_address,t_uint256)": {
						"encoding": "mapping",
						"key": "t_address",
						"label": "mapping(address => uint256)",
						"numberOfBytes": "32",
						"value": "t_uint256"
					},
					"t_uint256": {
						"encoding": "inplace",
						"label": "uint256",
						"numberOfBytes": "32"
					}
				}
			},
			"userdoc": {
				"kind": "user",
				"methods": {},
				"version": 1
			}
		}
	}
}