{
	"contracts/vesting.sol": {
		"Vesting": {
			"abi": [
				{
					"inputs": [
						{
							"internalType": "address",
							"name": "_token",
							"type": "address"
						}
					],
					"stateMutability": "nonpayable",
					"type": "constructor"
				},
				{
					"inputs": [
						{
							"internalType": "address",
							"name": "",
							"type": "address"
						}
					],
					"name": "beneficiaries",
					"outputs": [
						{
							"internalType": "uint256",
							"name": "",
							"type": "uint256"
						}
					],
					"stateMutability": "view",
					"type": "function"
				},
				{
					"inputs": [
						{
							"internalType": "uint256",
							"name": "",
							"type": "uint256"
						}
					],
					"name": "beneficiariesList",
					"outputs": [
						{
							"internalType": "address",
							"name": "",
							"type": "address"
						}
					],
					"stateMutability": "view",
					"type": "function"
				},
				{
					"inputs": [],
					"name": "cliff",
					"outputs": [
						{
							"internalType": "uint256",
							"name": "",
							"type": "uint256"
						}
					],
					"stateMutability": "view",
					"type": "function"
				},
				{
					"inputs": [],
					"name": "duration",
					"outputs": [
						{
							"internalType": "uint256",
							"name": "",
							"type": "uint256"
						}
					],
					"stateMutability": "view",
					"type": "function"
				},
				{
					"inputs": [
						{
							"internalType": "address",
							"name": "beneficiary",
							"type": "address"
						}
					],
					"name": "getVestedTokens",
					"outputs": [
						{
							"internalType": "uint256",
							"name": "",
							"type": "uint256"
						}
					],
					"stateMutability": "view",
					"type": "function"
				},
				{
					"inputs": [
						{
							"internalType": "address",
							"name": "_beneficiary",
							"type": "address"
						},
						{
							"internalType": "uint256",
							"name": "_lockedTokensCount",
							"type": "uint256"
						},
						{
							"internalType": "uint256",
							"name": "_slicePeriod",
							"type": "uint256"
						},
						{
							"internalType": "uint256",
							"name": "_duration",
							"type": "uint256"
						},
						{
							"internalType": "uint256",
							"name": "_cliff",
							"type": "uint256"
						},
						{
							"internalType": "uint256",
							"name": "_startTime",
							"type": "uint256"
						}
					],
					"name": "lockTokens",
					"outputs": [],
					"stateMutability": "nonpayable",
					"type": "function"
				},
				{
					"inputs": [
						{
							"internalType": "address",
							"name": "",
							"type": "address"
						}
					],
					"name": "noOfvestedTokens",
					"outputs": [
						{
							"internalType": "uint256",
							"name": "",
							"type": "uint256"
						}
					],
					"stateMutability": "view",
					"type": "function"
				},
				{
					"inputs": [],
					"name": "owner",
					"outputs": [
						{
							"internalType": "address",
							"name": "",
							"type": "address"
						}
					],
					"stateMutability": "view",
					"type": "function"
				},
				{
					"inputs": [
						{
							"internalType": "address",
							"name": "beneficiary",
							"type": "address"
						}
					],
					"name": "release",
					"outputs": [],
					"stateMutability": "nonpayable",
					"type": "function"
				},
				{
					"inputs": [],
					"name": "slicePeriod",
					"outputs": [
						{
							"internalType": "uint256",
							"name": "",
							"type": "uint256"
						}
					],
					"stateMutability": "view",
					"type": "function"
				},
				{
					"inputs": [],
					"name": "startTime",
					"outputs": [
						{
							"internalType": "uint256",
							"name": "",
							"type": "uint256"
						}
					],
					"stateMutability": "view",
					"type": "function"
				},
				{
					"inputs": [],
					"name": "token",
					"outputs": [
						{
							"internalType": "contract IERC20",
							"name": "",
							"type": "address"
						}
					],
					"stateMutability": "view",
					"type": "function"
				}
			],
			"devdoc": {
				"kind": "dev",
				"methods": {},
				"version": 1
			},
			"evm": {
				"assembly": "    /* \"contracts/vesting.sol\":120:2214  contract Vesting {... */\n  mstore(0x40, 0x80)\n    /* \"contracts/vesting.sol\":456:554  constructor(address _token) {... */\n  callvalue\n  dup1\n  iszero\n  tag_1\n  jumpi\n  0x00\n  dup1\n  revert\ntag_1:\n  pop\n  mload(0x40)\n  sub(codesize, bytecodeSize)\n  dup1\n  bytecodeSize\n  dup4\n  codecopy\n  dup2\n  dup2\n  add\n  0x40\n  mstore\n  dup2\n  add\n  swap1\n  tag_2\n  swap2\n  swap1\n  tag_3\n  jump\t// in\ntag_2:\n    /* \"contracts/vesting.sol\":510:516  _token */\n  dup1\n    /* \"contracts/vesting.sol\":495:500  token */\n  0x08\n  0x00\n    /* \"contracts/vesting.sol\":495:517  token = IERC20(_token) */\n  0x0100\n  exp\n  dup2\n  sload\n  dup2\n  0xffffffffffffffffffffffffffffffffffffffff\n  mul\n  not\n  and\n  swap1\n  dup4\n  0xffffffffffffffffffffffffffffffffffffffff\n  and\n  mul\n  or\n  swap1\n  sstore\n  pop\n    /* \"contracts/vesting.sol\":536:546  msg.sender */\n  caller\n    /* \"contracts/vesting.sol\":528:533  owner */\n  0x07\n  0x00\n    /* \"contracts/vesting.sol\":528:546  owner = msg.sender */\n  0x0100\n  exp\n  dup2\n  sload\n  dup2\n  0xffffffffffffffffffffffffffffffffffffffff\n  mul\n  not\n  and\n  swap1\n  dup4\n  0xffffffffffffffffffffffffffffffffffffffff\n  and\n  mul\n  or\n  swap1\n  sstore\n  pop\n    /* \"contracts/vesting.sol\":456:554  constructor(address _token) {... */\n  pop\n    /* \"contracts/vesting.sol\":120:2214  contract Vesting {... */\n  jump(tag_6)\n    /* \"#utility.yul\":88:205   */\ntag_8:\n    /* \"#utility.yul\":197:198   */\n  0x00\n    /* \"#utility.yul\":194:195   */\n  dup1\n    /* \"#utility.yul\":187:199   */\n  revert\n    /* \"#utility.yul\":334:460   */\ntag_10:\n    /* \"#utility.yul\":371:378   */\n  0x00\n    /* \"#utility.yul\":411:453   */\n  0xffffffffffffffffffffffffffffffffffffffff\n    /* \"#utility.yul\":404:409   */\n  dup3\n    /* \"#utility.yul\":400:454   */\n  and\n    /* \"#utility.yul\":389:454   */\n  swap1\n  pop\n    /* \"#utility.yul\":334:460   */\n  swap2\n  swap1\n  pop\n  jump\t// out\n    /* \"#utility.yul\":466:562   */\ntag_11:\n    /* \"#utility.yul\":503:510   */\n  0x00\n    /* \"#utility.yul\":532:556   */\n  tag_20\n    /* \"#utility.yul\":550:555   */\n  dup3\n    /* \"#utility.yul\":532:556   */\n  tag_10\n  jump\t// in\ntag_20:\n    /* \"#utility.yul\":521:556   */\n  swap1\n  pop\n    /* \"#utility.yul\":466:562   */\n  swap2\n  swap1\n  pop\n  jump\t// out\n    /* \"#utility.yul\":568:690   */\ntag_12:\n    /* \"#utility.yul\":641:665   */\n  tag_22\n    /* \"#utility.yul\":659:664   */\n  dup2\n    /* \"#utility.yul\":641:665   */\n  tag_11\n  jump\t// in\ntag_22:\n    /* \"#utility.yul\":634:639   */\n  dup2\n    /* \"#utility.yul\":631:666   */\n  eq\n    /* \"#utility.yul\":621:684   */\n  tag_23\n  jumpi\n    /* \"#utility.yul\":680:681   */\n  0x00\n    /* \"#utility.yul\":677:678   */\n  dup1\n    /* \"#utility.yul\":670:682   */\n  revert\n    /* \"#utility.yul\":621:684   */\ntag_23:\n    /* \"#utility.yul\":568:690   */\n  pop\n  jump\t// out\n    /* \"#utility.yul\":696:839   */\ntag_13:\n    /* \"#utility.yul\":753:758   */\n  0x00\n    /* \"#utility.yul\":784:790   */\n  dup2\n    /* \"#utility.yul\":778:791   */\n  mload\n    /* \"#utility.yul\":769:791   */\n  swap1\n  pop\n    /* \"#utility.yul\":800:833   */\n  tag_25\n    /* \"#utility.yul\":827:832   */\n  dup2\n    /* \"#utility.yul\":800:833   */\n  tag_12\n  jump\t// in\ntag_25:\n    /* \"#utility.yul\":696:839   */\n  swap3\n  swap2\n  pop\n  pop\n  jump\t// out\n    /* \"#utility.yul\":845:1196   */\ntag_3:\n    /* \"#utility.yul\":915:921   */\n  0x00\n    /* \"#utility.yul\":964:966   */\n  0x20\n    /* \"#utility.yul\":952:961   */\n  dup3\n    /* \"#utility.yul\":943:950   */\n  dup5\n    /* \"#utility.yul\":939:962   */\n  sub\n    /* \"#utility.yul\":935:967   */\n  slt\n    /* \"#utility.yul\":932:1051   */\n  iszero\n  tag_27\n  jumpi\n    /* \"#utility.yul\":970:1049   */\n  tag_28\n  tag_8\n  jump\t// in\ntag_28:\n    /* \"#utility.yul\":932:1051   */\ntag_27:\n    /* \"#utility.yul\":1090:1091   */\n  0x00\n    /* \"#utility.yul\":1115:1179   */\n  tag_29\n    /* \"#utility.yul\":1171:1178   */\n  dup5\n    /* \"#utility.yul\":1162:1168   */\n  dup3\n    /* \"#utility.yul\":1151:1160   */\n  dup6\n    /* \"#utility.yul\":1147:1169   */\n  add\n    /* \"#utility.yul\":1115:1179   */\n  tag_13\n  jump\t// in\ntag_29:\n    /* \"#utility.yul\":1105:1179   */\n  swap2\n  pop\n    /* \"#utility.yul\":1061:1189   */\n  pop\n    /* \"#utility.yul\":845:1196   */\n  swap3\n  swap2\n  pop\n  pop\n  jump\t// out\n    /* \"contracts/vesting.sol\":120:2214  contract Vesting {... */\ntag_6:\n  dataSize(sub_0)\n  dup1\n  dataOffset(sub_0)\n  0x00\n  codecopy\n  0x00\n  return\nstop\n\nsub_0: assembly {\n        /* \"contracts/vesting.sol\":120:2214  contract Vesting {... */\n      mstore(0x40, 0x80)\n      callvalue\n      dup1\n      iszero\n      tag_1\n      jumpi\n      0x00\n      dup1\n      revert\n    tag_1:\n      pop\n      jumpi(tag_2, lt(calldatasize, 0x04))\n      shr(0xe0, calldataload(0x00))\n      dup1\n      0x5afd6eb8\n      gt\n      tag_15\n      jumpi\n      dup1\n      0x5afd6eb8\n      eq\n      tag_9\n      jumpi\n      dup1\n      0x5f1fa8c0\n      eq\n      tag_10\n      jumpi\n      dup1\n      0x78e97925\n      eq\n      tag_11\n      jumpi\n      dup1\n      0x891d6760\n      eq\n      tag_12\n      jumpi\n      dup1\n      0x8da5cb5b\n      eq\n      tag_13\n      jumpi\n      dup1\n      0xfc0c546a\n      eq\n      tag_14\n      jumpi\n      jump(tag_2)\n    tag_15:\n      dup1\n      0x01567739\n      eq\n      tag_3\n      jumpi\n      dup1\n      0x0fb5a6b4\n      eq\n      tag_4\n      jumpi\n      dup1\n      0x13d033c0\n      eq\n      tag_5\n      jumpi\n      dup1\n      0x19165587\n      eq\n      tag_6\n      jumpi\n      dup1\n      0x29d3b0d3\n      eq\n      tag_7\n      jumpi\n      dup1\n      0x58db00f7\n      eq\n      tag_8\n      jumpi\n    tag_2:\n      0x00\n      dup1\n      revert\n        /* \"contracts/vesting.sol\":253:298  mapping(address => uint) public beneficiaries */\n    tag_3:\n      tag_16\n      0x04\n      dup1\n      calldatasize\n      sub\n      dup2\n      add\n      swap1\n      tag_17\n      swap2\n      swap1\n      tag_18\n      jump\t// in\n    tag_17:\n      tag_19\n      jump\t// in\n    tag_16:\n      mload(0x40)\n      tag_20\n      swap2\n      swap1\n      tag_21\n      jump\t// in\n    tag_20:\n      mload(0x40)\n      dup1\n      swap2\n      sub\n      swap1\n      return\n        /* \"contracts/vesting.sol\":198:218  uint public duration */\n    tag_4:\n      tag_22\n      tag_23\n      jump\t// in\n    tag_22:\n      mload(0x40)\n      tag_24\n      swap2\n      swap1\n      tag_21\n      jump\t// in\n    tag_24:\n      mload(0x40)\n      dup1\n      swap2\n      sub\n      swap1\n      return\n        /* \"contracts/vesting.sol\":174:191  uint public cliff */\n    tag_5:\n      tag_25\n      tag_26\n      jump\t// in\n    tag_25:\n      mload(0x40)\n      tag_27\n      swap2\n      swap1\n      tag_21\n      jump\t// in\n    tag_27:\n      mload(0x40)\n      dup1\n      swap2\n      sub\n      swap1\n      return\n        /* \"contracts/vesting.sol\":1808:2211  function release(address beneficiary) public {... */\n    tag_6:\n      tag_28\n      0x04\n      dup1\n      calldatasize\n      sub\n      dup2\n      add\n      swap1\n      tag_29\n      swap2\n      swap1\n      tag_18\n      jump\t// in\n    tag_29:\n      tag_30\n      jump\t// in\n    tag_28:\n      stop\n        /* \"contracts/vesting.sol\":562:1092  function lockTokens(address _beneficiary, uint _lockedTokensCount, uint _slicePeriod, uint _duration, uint _cliff, uint _startTime) public {... */\n    tag_7:\n      tag_31\n      0x04\n      dup1\n      calldatasize\n      sub\n      dup2\n      add\n      swap1\n      tag_32\n      swap2\n      swap1\n      tag_33\n      jump\t// in\n    tag_32:\n      tag_34\n      jump\t// in\n    tag_31:\n      stop\n        /* \"contracts/vesting.sol\":1100:1800  function getVestedTokens(address beneficiary) public view returns (uint256) {... */\n    tag_8:\n      tag_35\n      0x04\n      dup1\n      calldatasize\n      sub\n      dup2\n      add\n      swap1\n      tag_36\n      swap2\n      swap1\n      tag_18\n      jump\t// in\n    tag_36:\n      tag_37\n      jump\t// in\n    tag_35:\n      mload(0x40)\n      tag_38\n      swap2\n      swap1\n      tag_21\n      jump\t// in\n    tag_38:\n      mload(0x40)\n      dup1\n      swap2\n      sub\n      swap1\n      return\n        /* \"contracts/vesting.sol\":144:167  uint public slicePeriod */\n    tag_9:\n      tag_39\n      tag_40\n      jump\t// in\n    tag_39:\n      mload(0x40)\n      tag_41\n      swap2\n      swap1\n      tag_21\n      jump\t// in\n    tag_41:\n      mload(0x40)\n      dup1\n      swap2\n      sub\n      swap1\n      return\n        /* \"contracts/vesting.sol\":360:394  address[] public beneficiariesList */\n    tag_10:\n      tag_42\n      0x04\n      dup1\n      calldatasize\n      sub\n      dup2\n      add\n      swap1\n      tag_43\n      swap2\n      swap1\n      tag_44\n      jump\t// in\n    tag_43:\n      tag_45\n      jump\t// in\n    tag_42:\n      mload(0x40)\n      tag_46\n      swap2\n      swap1\n      tag_47\n      jump\t// in\n    tag_46:\n      mload(0x40)\n      dup1\n      swap2\n      sub\n      swap1\n      return\n        /* \"contracts/vesting.sol\":225:246  uint public startTime */\n    tag_11:\n      tag_48\n      tag_49\n      jump\t// in\n    tag_48:\n      mload(0x40)\n      tag_50\n      swap2\n      swap1\n      tag_21\n      jump\t// in\n    tag_50:\n      mload(0x40)\n      dup1\n      swap2\n      sub\n      swap1\n      return\n        /* \"contracts/vesting.sol\":305:353  mapping(address => uint) public noOfvestedTokens */\n    tag_12:\n      tag_51\n      0x04\n      dup1\n      calldatasize\n      sub\n      dup2\n      add\n      swap1\n      tag_52\n      swap2\n      swap1\n      tag_18\n      jump\t// in\n    tag_52:\n      tag_53\n      jump\t// in\n    tag_51:\n      mload(0x40)\n      tag_54\n      swap2\n      swap1\n      tag_21\n      jump\t// in\n    tag_54:\n      mload(0x40)\n      dup1\n      swap2\n      sub\n      swap1\n      return\n        /* \"contracts/vesting.sol\":401:421  address public owner */\n    tag_13:\n      tag_55\n      tag_56\n      jump\t// in\n    tag_55:\n      mload(0x40)\n      tag_57\n      swap2\n      swap1\n      tag_47\n      jump\t// in\n    tag_57:\n      mload(0x40)\n      dup1\n      swap2\n      sub\n      swap1\n      return\n        /* \"contracts/vesting.sol\":428:447  IERC20 public token */\n    tag_14:\n      tag_58\n      tag_59\n      jump\t// in\n    tag_58:\n      mload(0x40)\n      tag_60\n      swap2\n      swap1\n      tag_61\n      jump\t// in\n    tag_60:\n      mload(0x40)\n      dup1\n      swap2\n      sub\n      swap1\n      return\n        /* \"contracts/vesting.sol\":253:298  mapping(address => uint) public beneficiaries */\n    tag_19:\n      mstore(0x20, 0x04)\n      dup1\n      0x00\n      mstore\n      keccak256(0x00, 0x40)\n      0x00\n      swap2\n      pop\n      swap1\n      pop\n      sload\n      dup2\n      jump\t// out\n        /* \"contracts/vesting.sol\":198:218  uint public duration */\n    tag_23:\n      sload(0x02)\n      dup2\n      jump\t// out\n        /* \"contracts/vesting.sol\":174:191  uint public cliff */\n    tag_26:\n      sload(0x01)\n      dup2\n      jump\t// out\n        /* \"contracts/vesting.sol\":1808:2211  function release(address beneficiary) public {... */\n    tag_30:\n        /* \"contracts/vesting.sol\":1886:1891  owner */\n      0x07\n      0x00\n      swap1\n      sload\n      swap1\n      0x0100\n      exp\n      swap1\n      div\n      0xffffffffffffffffffffffffffffffffffffffff\n      and\n        /* \"contracts/vesting.sol\":1872:1891  msg.sender == owner */\n      0xffffffffffffffffffffffffffffffffffffffff\n      and\n        /* \"contracts/vesting.sol\":1872:1882  msg.sender */\n      caller\n        /* \"contracts/vesting.sol\":1872:1891  msg.sender == owner */\n      0xffffffffffffffffffffffffffffffffffffffff\n      and\n      eq\n        /* \"contracts/vesting.sol\":1864:1929  require(msg.sender == owner, \"Only the owner can release tokens\") */\n      tag_63\n      jumpi\n      mload(0x40)\n      0x08c379a000000000000000000000000000000000000000000000000000000000\n      dup2\n      mstore\n      0x04\n      add\n      tag_64\n      swap1\n      tag_65\n      jump\t// in\n    tag_64:\n      mload(0x40)\n      dup1\n      swap2\n      sub\n      swap1\n      revert\n    tag_63:\n        /* \"contracts/vesting.sol\":1940:1964  uint256 releasableTokens */\n      0x00\n        /* \"contracts/vesting.sol\":1967:1995  getVestedTokens(beneficiary) */\n      tag_66\n        /* \"contracts/vesting.sol\":1983:1994  beneficiary */\n      dup3\n        /* \"contracts/vesting.sol\":1967:1982  getVestedTokens */\n      tag_37\n        /* \"contracts/vesting.sol\":1967:1995  getVestedTokens(beneficiary) */\n      jump\t// in\n    tag_66:\n        /* \"contracts/vesting.sol\":1940:1995  uint256 releasableTokens = getVestedTokens(beneficiary) */\n      swap1\n      pop\n        /* \"contracts/vesting.sol\":2033:2034  0 */\n      0x00\n        /* \"contracts/vesting.sol\":2014:2030  releasableTokens */\n      dup2\n        /* \"contracts/vesting.sol\":2014:2034  releasableTokens > 0 */\n      gt\n        /* \"contracts/vesting.sol\":2006:2059  require(releasableTokens > 0, \"No tokens to release\") */\n      tag_67\n      jumpi\n      mload(0x40)\n      0x08c379a000000000000000000000000000000000000000000000000000000000\n      dup2\n      mstore\n      0x04\n      add\n      tag_68\n      swap1\n      tag_69\n      jump\t// in\n    tag_68:\n      mload(0x40)\n      dup1\n      swap2\n      sub\n      swap1\n      revert\n    tag_67:\n        /* \"contracts/vesting.sol\":2103:2119  releasableTokens */\n      dup1\n        /* \"contracts/vesting.sol\":2070:2086  noOfvestedTokens */\n      0x05\n        /* \"contracts/vesting.sol\":2070:2099  noOfvestedTokens[beneficiary] */\n      0x00\n        /* \"contracts/vesting.sol\":2087:2098  beneficiary */\n      dup5\n        /* \"contracts/vesting.sol\":2070:2099  noOfvestedTokens[beneficiary] */\n      0xffffffffffffffffffffffffffffffffffffffff\n      and\n      0xffffffffffffffffffffffffffffffffffffffff\n      and\n      dup2\n      mstore\n      0x20\n      add\n      swap1\n      dup2\n      mstore\n      0x20\n      add\n      0x00\n      keccak256\n      0x00\n        /* \"contracts/vesting.sol\":2070:2119  noOfvestedTokens[beneficiary] += releasableTokens */\n      dup3\n      dup3\n      sload\n      tag_70\n      swap2\n      swap1\n      tag_71\n      jump\t// in\n    tag_70:\n      swap3\n      pop\n      pop\n      dup2\n      swap1\n      sstore\n      pop\n        /* \"contracts/vesting.sol\":2138:2143  token */\n      0x08\n      0x00\n      swap1\n      sload\n      swap1\n      0x0100\n      exp\n      swap1\n      div\n      0xffffffffffffffffffffffffffffffffffffffff\n      and\n        /* \"contracts/vesting.sol\":2138:2152  token.transfer */\n      0xffffffffffffffffffffffffffffffffffffffff\n      and\n      0xa9059cbb\n        /* \"contracts/vesting.sol\":2153:2164  beneficiary */\n      dup4\n        /* \"contracts/vesting.sol\":2166:2182  releasableTokens */\n      dup4\n        /* \"contracts/vesting.sol\":2138:2183  token.transfer(beneficiary, releasableTokens) */\n      mload(0x40)\n      dup4\n      0xffffffff\n      and\n      0xe0\n      shl\n      dup2\n      mstore\n      0x04\n      add\n      tag_72\n      swap3\n      swap2\n      swap1\n      tag_73\n      jump\t// in\n    tag_72:\n      0x20\n      mload(0x40)\n      dup1\n      dup4\n      sub\n      dup2\n      0x00\n      dup8\n      gas\n      call\n      iszero\n      dup1\n      iszero\n      tag_75\n      jumpi\n      returndatasize\n      0x00\n      dup1\n      returndatacopy\n      revert(0x00, returndatasize)\n    tag_75:\n      pop\n      pop\n      pop\n      pop\n      mload(0x40)\n      returndatasize\n      not(0x1f)\n      0x1f\n      dup3\n      add\n      and\n      dup3\n      add\n      dup1\n      0x40\n      mstore\n      pop\n      dup2\n      add\n      swap1\n      tag_76\n      swap2\n      swap1\n      tag_77\n      jump\t// in\n    tag_76:\n        /* \"contracts/vesting.sol\":2130:2203  require(token.transfer(beneficiary, releasableTokens), \"Transfer failed\") */\n      tag_78\n      jumpi\n      mload(0x40)\n      0x08c379a000000000000000000000000000000000000000000000000000000000\n      dup2\n      mstore\n      0x04\n      add\n      tag_79\n      swap1\n      tag_80\n      jump\t// in\n    tag_79:\n      mload(0x40)\n      dup1\n      swap2\n      sub\n      swap1\n      revert\n    tag_78:\n        /* \"contracts/vesting.sol\":1853:2211  {... */\n      pop\n        /* \"contracts/vesting.sol\":1808:2211  function release(address beneficiary) public {... */\n      pop\n      jump\t// out\n        /* \"contracts/vesting.sol\":562:1092  function lockTokens(address _beneficiary, uint _lockedTokensCount, uint _slicePeriod, uint _duration, uint _cliff, uint _startTime) public {... */\n    tag_34:\n        /* \"contracts/vesting.sol\":734:739  owner */\n      0x07\n      0x00\n      swap1\n      sload\n      swap1\n      0x0100\n      exp\n      swap1\n      div\n      0xffffffffffffffffffffffffffffffffffffffff\n      and\n        /* \"contracts/vesting.sol\":720:739  msg.sender == owner */\n      0xffffffffffffffffffffffffffffffffffffffff\n      and\n        /* \"contracts/vesting.sol\":720:730  msg.sender */\n      caller\n        /* \"contracts/vesting.sol\":720:739  msg.sender == owner */\n      0xffffffffffffffffffffffffffffffffffffffff\n      and\n      eq\n        /* \"contracts/vesting.sol\":712:774  require(msg.sender == owner, \"Only the owner can lock tokens\") */\n      tag_82\n      jumpi\n      mload(0x40)\n      0x08c379a000000000000000000000000000000000000000000000000000000000\n      dup2\n      mstore\n      0x04\n      add\n      tag_83\n      swap1\n      tag_84\n      jump\t// in\n    tag_83:\n      mload(0x40)\n      dup1\n      swap2\n      sub\n      swap1\n      revert\n    tag_82:\n        /* \"contracts/vesting.sol\":785:790  token */\n      0x08\n      0x00\n      swap1\n      sload\n      swap1\n      0x0100\n      exp\n      swap1\n      div\n      0xffffffffffffffffffffffffffffffffffffffff\n      and\n        /* \"contracts/vesting.sol\":785:803  token.transferFrom */\n      0xffffffffffffffffffffffffffffffffffffffff\n      and\n      0x23b872dd\n        /* \"contracts/vesting.sol\":804:816  _beneficiary */\n      dup8\n        /* \"contracts/vesting.sol\":826:830  this */\n      address\n        /* \"contracts/vesting.sol\":833:851  _lockedTokensCount */\n      dup9\n        /* \"contracts/vesting.sol\":785:852  token.transferFrom(_beneficiary, address(this), _lockedTokensCount) */\n      mload(0x40)\n      dup5\n      0xffffffff\n      and\n      0xe0\n      shl\n      dup2\n      mstore\n      0x04\n      add\n      tag_85\n      swap4\n      swap3\n      swap2\n      swap1\n      tag_86\n      jump\t// in\n    tag_85:\n      0x20\n      mload(0x40)\n      dup1\n      dup4\n      sub\n      dup2\n      0x00\n      dup8\n      gas\n      call\n      iszero\n      dup1\n      iszero\n      tag_88\n      jumpi\n      returndatasize\n      0x00\n      dup1\n      returndatacopy\n      revert(0x00, returndatasize)\n    tag_88:\n      pop\n      pop\n      pop\n      pop\n      mload(0x40)\n      returndatasize\n      not(0x1f)\n      0x1f\n      dup3\n      add\n      and\n      dup3\n      add\n      dup1\n      0x40\n      mstore\n      pop\n      dup2\n      add\n      swap1\n      tag_89\n      swap2\n      swap1\n      tag_77\n      jump\t// in\n    tag_89:\n      pop\n        /* \"contracts/vesting.sol\":877:889  _slicePeriod */\n      dup4\n        /* \"contracts/vesting.sol\":863:874  slicePeriod */\n      0x00\n        /* \"contracts/vesting.sol\":863:889  slicePeriod = _slicePeriod */\n      dup2\n      swap1\n      sstore\n      pop\n        /* \"contracts/vesting.sol\":911:920  _duration */\n      dup3\n        /* \"contracts/vesting.sol\":900:908  duration */\n      0x02\n        /* \"contracts/vesting.sol\":900:920  duration = _duration */\n      dup2\n      swap1\n      sstore\n      pop\n        /* \"contracts/vesting.sol\":939:945  _cliff */\n      dup2\n        /* \"contracts/vesting.sol\":931:936  cliff */\n      0x01\n        /* \"contracts/vesting.sol\":931:945  cliff = _cliff */\n      dup2\n      swap1\n      sstore\n      pop\n        /* \"contracts/vesting.sol\":968:978  _startTime */\n      dup1\n        /* \"contracts/vesting.sol\":956:965  startTime */\n      0x03\n        /* \"contracts/vesting.sol\":956:978  startTime = _startTime */\n      dup2\n      swap1\n      sstore\n      pop\n        /* \"contracts/vesting.sol\":1019:1037  _lockedTokensCount */\n      dup5\n        /* \"contracts/vesting.sol\":989:1002  beneficiaries */\n      0x04\n        /* \"contracts/vesting.sol\":989:1016  beneficiaries[_beneficiary] */\n      0x00\n        /* \"contracts/vesting.sol\":1003:1015  _beneficiary */\n      dup9\n        /* \"contracts/vesting.sol\":989:1016  beneficiaries[_beneficiary] */\n      0xffffffffffffffffffffffffffffffffffffffff\n      and\n      0xffffffffffffffffffffffffffffffffffffffff\n      and\n      dup2\n      mstore\n      0x20\n      add\n      swap1\n      dup2\n      mstore\n      0x20\n      add\n      0x00\n      keccak256\n        /* \"contracts/vesting.sol\":989:1037  beneficiaries[_beneficiary] = _lockedTokensCount */\n      dup2\n      swap1\n      sstore\n      pop\n        /* \"contracts/vesting.sol\":1048:1065  beneficiariesList */\n      0x06\n        /* \"contracts/vesting.sol\":1071:1083  _beneficiary */\n      dup7\n        /* \"contracts/vesting.sol\":1048:1084  beneficiariesList.push(_beneficiary) */\n      swap1\n      dup1\n      0x01\n      dup2\n      sload\n      add\n      dup1\n      dup3\n      sstore\n      dup1\n      swap2\n      pop\n      pop\n      0x01\n      swap1\n      sub\n      swap1\n      0x00\n      mstore\n      keccak256(0x00, 0x20)\n      add\n      0x00\n      swap1\n      swap2\n      swap1\n      swap2\n      swap1\n      swap2\n      0x0100\n      exp\n      dup2\n      sload\n      dup2\n      0xffffffffffffffffffffffffffffffffffffffff\n      mul\n      not\n      and\n      swap1\n      dup4\n      0xffffffffffffffffffffffffffffffffffffffff\n      and\n      mul\n      or\n      swap1\n      sstore\n      pop\n        /* \"contracts/vesting.sol\":562:1092  function lockTokens(address _beneficiary, uint _lockedTokensCount, uint _slicePeriod, uint _duration, uint _cliff, uint _startTime) public {... */\n      pop\n      pop\n      pop\n      pop\n      pop\n      pop\n      jump\t// out\n        /* \"contracts/vesting.sol\":1100:1800  function getVestedTokens(address beneficiary) public view returns (uint256) {... */\n    tag_37:\n        /* \"contracts/vesting.sol\":1167:1174  uint256 */\n      0x00\n        /* \"contracts/vesting.sol\":1221:1226  cliff */\n      sload(0x01)\n        /* \"contracts/vesting.sol\":1209:1218  startTime */\n      sload(0x03)\n        /* \"contracts/vesting.sol\":1209:1226  startTime + cliff */\n      tag_92\n      swap2\n      swap1\n      tag_71\n      jump\t// in\n    tag_92:\n        /* \"contracts/vesting.sol\":1191:1206  block.timestamp */\n      timestamp\n        /* \"contracts/vesting.sol\":1191:1226  block.timestamp < startTime + cliff */\n      lt\n        /* \"contracts/vesting.sol\":1187:1793  if (block.timestamp < startTime + cliff) {... */\n      iszero\n      tag_93\n      jumpi\n        /* \"contracts/vesting.sol\":1250:1251  0 */\n      0x00\n        /* \"contracts/vesting.sol\":1243:1251  return 0 */\n      swap1\n      pop\n      jump(tag_91)\n        /* \"contracts/vesting.sol\":1187:1793  if (block.timestamp < startTime + cliff) {... */\n    tag_93:\n        /* \"contracts/vesting.sol\":1304:1312  duration */\n      sload(0x02)\n        /* \"contracts/vesting.sol\":1292:1301  startTime */\n      sload(0x03)\n        /* \"contracts/vesting.sol\":1292:1312  startTime + duration */\n      tag_95\n      swap2\n      swap1\n      tag_71\n      jump\t// in\n    tag_95:\n        /* \"contracts/vesting.sol\":1273:1288  block.timestamp */\n      timestamp\n        /* \"contracts/vesting.sol\":1273:1312  block.timestamp >= startTime + duration */\n      lt\n        /* \"contracts/vesting.sol\":1269:1793  if (block.timestamp >= startTime + duration) {... */\n      tag_96\n      jumpi\n        /* \"contracts/vesting.sol\":1365:1381  noOfvestedTokens */\n      0x05\n        /* \"contracts/vesting.sol\":1365:1394  noOfvestedTokens[beneficiary] */\n      0x00\n        /* \"contracts/vesting.sol\":1382:1393  beneficiary */\n      dup4\n        /* \"contracts/vesting.sol\":1365:1394  noOfvestedTokens[beneficiary] */\n      0xffffffffffffffffffffffffffffffffffffffff\n      and\n      0xffffffffffffffffffffffffffffffffffffffff\n      and\n      dup2\n      mstore\n      0x20\n      add\n      swap1\n      dup2\n      mstore\n      0x20\n      add\n      0x00\n      keccak256\n      sload\n        /* \"contracts/vesting.sol\":1336:1349  beneficiaries */\n      0x04\n        /* \"contracts/vesting.sol\":1336:1362  beneficiaries[beneficiary] */\n      0x00\n        /* \"contracts/vesting.sol\":1350:1361  beneficiary */\n      dup5\n        /* \"contracts/vesting.sol\":1336:1362  beneficiaries[beneficiary] */\n      0xffffffffffffffffffffffffffffffffffffffff\n      and\n      0xffffffffffffffffffffffffffffffffffffffff\n      and\n      dup2\n      mstore\n      0x20\n      add\n      swap1\n      dup2\n      mstore\n      0x20\n      add\n      0x00\n      keccak256\n      sload\n        /* \"contracts/vesting.sol\":1336:1394  beneficiaries[beneficiary] - noOfvestedTokens[beneficiary] */\n      tag_97\n      swap2\n      swap1\n      tag_98\n      jump\t// in\n    tag_97:\n        /* \"contracts/vesting.sol\":1329:1394  return beneficiaries[beneficiary] - noOfvestedTokens[beneficiary] */\n      swap1\n      pop\n      jump(tag_91)\n        /* \"contracts/vesting.sol\":1269:1793  if (block.timestamp >= startTime + duration) {... */\n    tag_96:\n        /* \"contracts/vesting.sol\":1427:1449  uint256 timeSinceStart */\n      0x00\n        /* \"contracts/vesting.sol\":1470:1479  startTime */\n      sload(0x03)\n        /* \"contracts/vesting.sol\":1452:1467  block.timestamp */\n      timestamp\n        /* \"contracts/vesting.sol\":1452:1479  block.timestamp - startTime */\n      tag_100\n      swap2\n      swap1\n      tag_98\n      jump\t// in\n    tag_100:\n        /* \"contracts/vesting.sol\":1427:1479  uint256 timeSinceStart = block.timestamp - startTime */\n      swap1\n      pop\n        /* \"contracts/vesting.sol\":1494:1521  uint256 totalVestingPeriods */\n      0x00\n        /* \"contracts/vesting.sol\":1535:1546  slicePeriod */\n      dup1\n      sload\n        /* \"contracts/vesting.sol\":1524:1532  duration */\n      sload(0x02)\n        /* \"contracts/vesting.sol\":1524:1546  duration / slicePeriod */\n      tag_101\n      swap2\n      swap1\n      tag_102\n      jump\t// in\n    tag_101:\n        /* \"contracts/vesting.sol\":1494:1546  uint256 totalVestingPeriods = duration / slicePeriod */\n      swap1\n      pop\n        /* \"contracts/vesting.sol\":1561:1582  uint256 vestingPeriod */\n      0x00\n        /* \"contracts/vesting.sol\":1602:1613  slicePeriod */\n      dup1\n      sload\n        /* \"contracts/vesting.sol\":1585:1599  timeSinceStart */\n      dup4\n        /* \"contracts/vesting.sol\":1585:1613  timeSinceStart / slicePeriod */\n      tag_103\n      swap2\n      swap1\n      tag_102\n      jump\t// in\n    tag_103:\n        /* \"contracts/vesting.sol\":1561:1613  uint256 vestingPeriod = timeSinceStart / slicePeriod */\n      swap1\n      pop\n        /* \"contracts/vesting.sol\":1628:1648  uint256 vestedTokens */\n      0x00\n        /* \"contracts/vesting.sol\":1696:1715  totalVestingPeriods */\n      dup3\n        /* \"contracts/vesting.sol\":1680:1693  vestingPeriod */\n      dup3\n        /* \"contracts/vesting.sol\":1651:1664  beneficiaries */\n      0x04\n        /* \"contracts/vesting.sol\":1651:1677  beneficiaries[beneficiary] */\n      0x00\n        /* \"contracts/vesting.sol\":1665:1676  beneficiary */\n      dup10\n        /* \"contracts/vesting.sol\":1651:1677  beneficiaries[beneficiary] */\n      0xffffffffffffffffffffffffffffffffffffffff\n      and\n      0xffffffffffffffffffffffffffffffffffffffff\n      and\n      dup2\n      mstore\n      0x20\n      add\n      swap1\n      dup2\n      mstore\n      0x20\n      add\n      0x00\n      keccak256\n      sload\n        /* \"contracts/vesting.sol\":1651:1693  beneficiaries[beneficiary] * vestingPeriod */\n      tag_104\n      swap2\n      swap1\n      tag_105\n      jump\t// in\n    tag_104:\n        /* \"contracts/vesting.sol\":1651:1715  beneficiaries[beneficiary] * vestingPeriod / totalVestingPeriods */\n      tag_106\n      swap2\n      swap1\n      tag_102\n      jump\t// in\n    tag_106:\n        /* \"contracts/vesting.sol\":1628:1715  uint256 vestedTokens = beneficiaries[beneficiary] * vestingPeriod / totalVestingPeriods */\n      swap1\n      pop\n        /* \"contracts/vesting.sol\":1752:1768  noOfvestedTokens */\n      0x05\n        /* \"contracts/vesting.sol\":1752:1781  noOfvestedTokens[beneficiary] */\n      0x00\n        /* \"contracts/vesting.sol\":1769:1780  beneficiary */\n      dup8\n        /* \"contracts/vesting.sol\":1752:1781  noOfvestedTokens[beneficiary] */\n      0xffffffffffffffffffffffffffffffffffffffff\n      and\n      0xffffffffffffffffffffffffffffffffffffffff\n      and\n      dup2\n      mstore\n      0x20\n      add\n      swap1\n      dup2\n      mstore\n      0x20\n      add\n      0x00\n      keccak256\n      sload\n        /* \"contracts/vesting.sol\":1737:1749  vestedTokens */\n      dup2\n        /* \"contracts/vesting.sol\":1737:1781  vestedTokens - noOfvestedTokens[beneficiary] */\n      tag_107\n      swap2\n      swap1\n      tag_98\n      jump\t// in\n    tag_107:\n        /* \"contracts/vesting.sol\":1730:1781  return vestedTokens - noOfvestedTokens[beneficiary] */\n      swap5\n      pop\n      pop\n      pop\n      pop\n      pop\n        /* \"contracts/vesting.sol\":1100:1800  function getVestedTokens(address beneficiary) public view returns (uint256) {... */\n    tag_91:\n      swap2\n      swap1\n      pop\n      jump\t// out\n        /* \"contracts/vesting.sol\":144:167  uint public slicePeriod */\n    tag_40:\n      sload(0x00)\n      dup2\n      jump\t// out\n        /* \"contracts/vesting.sol\":360:394  address[] public beneficiariesList */\n    tag_45:\n      0x06\n      dup2\n      dup2\n      sload\n      dup2\n      lt\n      tag_108\n      jumpi\n      0x00\n      dup1\n      revert\n    tag_108:\n      swap1\n      0x00\n      mstore\n      keccak256(0x00, 0x20)\n      add\n      0x00\n      swap2\n      pop\n      sload\n      swap1\n      0x0100\n      exp\n      swap1\n      div\n      0xffffffffffffffffffffffffffffffffffffffff\n      and\n      dup2\n      jump\t// out\n        /* \"contracts/vesting.sol\":225:246  uint public startTime */\n    tag_49:\n      sload(0x03)\n      dup2\n      jump\t// out\n        /* \"contracts/vesting.sol\":305:353  mapping(address => uint) public noOfvestedTokens */\n    tag_53:\n      mstore(0x20, 0x05)\n      dup1\n      0x00\n      mstore\n      keccak256(0x00, 0x40)\n      0x00\n      swap2\n      pop\n      swap1\n      pop\n      sload\n      dup2\n      jump\t// out\n        /* \"contracts/vesting.sol\":401:421  address public owner */\n    tag_56:\n      0x07\n      0x00\n      swap1\n      sload\n      swap1\n      0x0100\n      exp\n      swap1\n      div\n      0xffffffffffffffffffffffffffffffffffffffff\n      and\n      dup2\n      jump\t// out\n        /* \"contracts/vesting.sol\":428:447  IERC20 public token */\n    tag_59:\n      0x08\n      0x00\n      swap1\n      sload\n      swap1\n      0x0100\n      exp\n      swap1\n      div\n      0xffffffffffffffffffffffffffffffffffffffff\n      and\n      dup2\n      jump\t// out\n        /* \"#utility.yul\":88:205   */\n    tag_111:\n        /* \"#utility.yul\":197:198   */\n      0x00\n        /* \"#utility.yul\":194:195   */\n      dup1\n        /* \"#utility.yul\":187:199   */\n      revert\n        /* \"#utility.yul\":334:460   */\n    tag_113:\n        /* \"#utility.yul\":371:378   */\n      0x00\n        /* \"#utility.yul\":411:453   */\n      0xffffffffffffffffffffffffffffffffffffffff\n        /* \"#utility.yul\":404:409   */\n      dup3\n        /* \"#utility.yul\":400:454   */\n      and\n        /* \"#utility.yul\":389:454   */\n      swap1\n      pop\n        /* \"#utility.yul\":334:460   */\n      swap2\n      swap1\n      pop\n      jump\t// out\n        /* \"#utility.yul\":466:562   */\n    tag_114:\n        /* \"#utility.yul\":503:510   */\n      0x00\n        /* \"#utility.yul\":532:556   */\n      tag_147\n        /* \"#utility.yul\":550:555   */\n      dup3\n        /* \"#utility.yul\":532:556   */\n      tag_113\n      jump\t// in\n    tag_147:\n        /* \"#utility.yul\":521:556   */\n      swap1\n      pop\n        /* \"#utility.yul\":466:562   */\n      swap2\n      swap1\n      pop\n      jump\t// out\n        /* \"#utility.yul\":568:690   */\n    tag_115:\n        /* \"#utility.yul\":641:665   */\n      tag_149\n        /* \"#utility.yul\":659:664   */\n      dup2\n        /* \"#utility.yul\":641:665   */\n      tag_114\n      jump\t// in\n    tag_149:\n        /* \"#utility.yul\":634:639   */\n      dup2\n        /* \"#utility.yul\":631:666   */\n      eq\n        /* \"#utility.yul\":621:684   */\n      tag_150\n      jumpi\n        /* \"#utility.yul\":680:681   */\n      0x00\n        /* \"#utility.yul\":677:678   */\n      dup1\n        /* \"#utility.yul\":670:682   */\n      revert\n        /* \"#utility.yul\":621:684   */\n    tag_150:\n        /* \"#utility.yul\":568:690   */\n      pop\n      jump\t// out\n        /* \"#utility.yul\":696:835   */\n    tag_116:\n        /* \"#utility.yul\":742:747   */\n      0x00\n        /* \"#utility.yul\":780:786   */\n      dup2\n        /* \"#utility.yul\":767:787   */\n      calldataload\n        /* \"#utility.yul\":758:787   */\n      swap1\n      pop\n        /* \"#utility.yul\":796:829   */\n      tag_152\n        /* \"#utility.yul\":823:828   */\n      dup2\n        /* \"#utility.yul\":796:829   */\n      tag_115\n      jump\t// in\n    tag_152:\n        /* \"#utility.yul\":696:835   */\n      swap3\n      swap2\n      pop\n      pop\n      jump\t// out\n        /* \"#utility.yul\":841:1170   */\n    tag_18:\n        /* \"#utility.yul\":900:906   */\n      0x00\n        /* \"#utility.yul\":949:951   */\n      0x20\n        /* \"#utility.yul\":937:946   */\n      dup3\n        /* \"#utility.yul\":928:935   */\n      dup5\n        /* \"#utility.yul\":924:947   */\n      sub\n        /* \"#utility.yul\":920:952   */\n      slt\n        /* \"#utility.yul\":917:1036   */\n      iszero\n      tag_154\n      jumpi\n        /* \"#utility.yul\":955:1034   */\n      tag_155\n      tag_111\n      jump\t// in\n    tag_155:\n        /* \"#utility.yul\":917:1036   */\n    tag_154:\n        /* \"#utility.yul\":1075:1076   */\n      0x00\n        /* \"#utility.yul\":1100:1153   */\n      tag_156\n        /* \"#utility.yul\":1145:1152   */\n      dup5\n        /* \"#utility.yul\":1136:1142   */\n      dup3\n        /* \"#utility.yul\":1125:1134   */\n      dup6\n        /* \"#utility.yul\":1121:1143   */\n      add\n        /* \"#utility.yul\":1100:1153   */\n      tag_116\n      jump\t// in\n    tag_156:\n        /* \"#utility.yul\":1090:1153   */\n      swap2\n      pop\n        /* \"#utility.yul\":1046:1163   */\n      pop\n        /* \"#utility.yul\":841:1170   */\n      swap3\n      swap2\n      pop\n      pop\n      jump\t// out\n        /* \"#utility.yul\":1176:1253   */\n    tag_117:\n        /* \"#utility.yul\":1213:1220   */\n      0x00\n        /* \"#utility.yul\":1242:1247   */\n      dup2\n        /* \"#utility.yul\":1231:1247   */\n      swap1\n      pop\n        /* \"#utility.yul\":1176:1253   */\n      swap2\n      swap1\n      pop\n      jump\t// out\n        /* \"#utility.yul\":1259:1377   */\n    tag_118:\n        /* \"#utility.yul\":1346:1370   */\n      tag_159\n        /* \"#utility.yul\":1364:1369   */\n      dup2\n        /* \"#utility.yul\":1346:1370   */\n      tag_117\n      jump\t// in\n    tag_159:\n        /* \"#utility.yul\":1341:1344   */\n      dup3\n        /* \"#utility.yul\":1334:1371   */\n      mstore\n        /* \"#utility.yul\":1259:1377   */\n      pop\n      pop\n      jump\t// out\n        /* \"#utility.yul\":1383:1605   */\n    tag_21:\n        /* \"#utility.yul\":1476:1480   */\n      0x00\n        /* \"#utility.yul\":1514:1516   */\n      0x20\n        /* \"#utility.yul\":1503:1512   */\n      dup3\n        /* \"#utility.yul\":1499:1517   */\n      add\n        /* \"#utility.yul\":1491:1517   */\n      swap1\n      pop\n        /* \"#utility.yul\":1527:1598   */\n      tag_161\n        /* \"#utility.yul\":1595:1596   */\n      0x00\n        /* \"#utility.yul\":1584:1593   */\n      dup4\n        /* \"#utility.yul\":1580:1597   */\n      add\n        /* \"#utility.yul\":1571:1577   */\n      dup5\n        /* \"#utility.yul\":1527:1598   */\n      tag_118\n      jump\t// in\n    tag_161:\n        /* \"#utility.yul\":1383:1605   */\n      swap3\n      swap2\n      pop\n      pop\n      jump\t// out\n        /* \"#utility.yul\":1611:1733   */\n    tag_119:\n        /* \"#utility.yul\":1684:1708   */\n      tag_163\n        /* \"#utility.yul\":1702:1707   */\n      dup2\n        /* \"#utility.yul\":1684:1708   */\n      tag_117\n      jump\t// in\n    tag_163:\n        /* \"#utility.yul\":1677:1682   */\n      dup2\n        /* \"#utility.yul\":1674:1709   */\n      eq\n        /* \"#utility.yul\":1664:1727   */\n      tag_164\n      jumpi\n        /* \"#utility.yul\":1723:1724   */\n      0x00\n        /* \"#utility.yul\":1720:1721   */\n      dup1\n        /* \"#utility.yul\":1713:1725   */\n      revert\n        /* \"#utility.yul\":1664:1727   */\n    tag_164:\n        /* \"#utility.yul\":1611:1733   */\n      pop\n      jump\t// out\n        /* \"#utility.yul\":1739:1878   */\n    tag_120:\n        /* \"#utility.yul\":1785:1790   */\n      0x00\n        /* \"#utility.yul\":1823:1829   */\n      dup2\n        /* \"#utility.yul\":1810:1830   */\n      calldataload\n        /* \"#utility.yul\":1801:1830   */\n      swap1\n      pop\n        /* \"#utility.yul\":1839:1872   */\n      tag_166\n        /* \"#utility.yul\":1866:1871   */\n      dup2\n        /* \"#utility.yul\":1839:1872   */\n      tag_119\n      jump\t// in\n    tag_166:\n        /* \"#utility.yul\":1739:1878   */\n      swap3\n      swap2\n      pop\n      pop\n      jump\t// out\n        /* \"#utility.yul\":1884:2941   */\n    tag_33:\n        /* \"#utility.yul\":1988:1994   */\n      0x00\n        /* \"#utility.yul\":1996:2002   */\n      dup1\n        /* \"#utility.yul\":2004:2010   */\n      0x00\n        /* \"#utility.yul\":2012:2018   */\n      dup1\n        /* \"#utility.yul\":2020:2026   */\n      0x00\n        /* \"#utility.yul\":2028:2034   */\n      dup1\n        /* \"#utility.yul\":2077:2080   */\n      0xc0\n        /* \"#utility.yul\":2065:2074   */\n      dup8\n        /* \"#utility.yul\":2056:2063   */\n      dup10\n        /* \"#utility.yul\":2052:2075   */\n      sub\n        /* \"#utility.yul\":2048:2081   */\n      slt\n        /* \"#utility.yul\":2045:2165   */\n      iszero\n      tag_168\n      jumpi\n        /* \"#utility.yul\":2084:2163   */\n      tag_169\n      tag_111\n      jump\t// in\n    tag_169:\n        /* \"#utility.yul\":2045:2165   */\n    tag_168:\n        /* \"#utility.yul\":2204:2205   */\n      0x00\n        /* \"#utility.yul\":2229:2282   */\n      tag_170\n        /* \"#utility.yul\":2274:2281   */\n      dup10\n        /* \"#utility.yul\":2265:2271   */\n      dup3\n        /* \"#utility.yul\":2254:2263   */\n      dup11\n        /* \"#utility.yul\":2250:2272   */\n      add\n        /* \"#utility.yul\":2229:2282   */\n      tag_116\n      jump\t// in\n    tag_170:\n        /* \"#utility.yul\":2219:2282   */\n      swap7\n      pop\n        /* \"#utility.yul\":2175:2292   */\n      pop\n        /* \"#utility.yul\":2331:2333   */\n      0x20\n        /* \"#utility.yul\":2357:2410   */\n      tag_171\n        /* \"#utility.yul\":2402:2409   */\n      dup10\n        /* \"#utility.yul\":2393:2399   */\n      dup3\n        /* \"#utility.yul\":2382:2391   */\n      dup11\n        /* \"#utility.yul\":2378:2400   */\n      add\n        /* \"#utility.yul\":2357:2410   */\n      tag_120\n      jump\t// in\n    tag_171:\n        /* \"#utility.yul\":2347:2410   */\n      swap6\n      pop\n        /* \"#utility.yul\":2302:2420   */\n      pop\n        /* \"#utility.yul\":2459:2461   */\n      0x40\n        /* \"#utility.yul\":2485:2538   */\n      tag_172\n        /* \"#utility.yul\":2530:2537   */\n      dup10\n        /* \"#utility.yul\":2521:2527   */\n      dup3\n        /* \"#utility.yul\":2510:2519   */\n      dup11\n        /* \"#utility.yul\":2506:2528   */\n      add\n        /* \"#utility.yul\":2485:2538   */\n      tag_120\n      jump\t// in\n    tag_172:\n        /* \"#utility.yul\":2475:2538   */\n      swap5\n      pop\n        /* \"#utility.yul\":2430:2548   */\n      pop\n        /* \"#utility.yul\":2587:2589   */\n      0x60\n        /* \"#utility.yul\":2613:2666   */\n      tag_173\n        /* \"#utility.yul\":2658:2665   */\n      dup10\n        /* \"#utility.yul\":2649:2655   */\n      dup3\n        /* \"#utility.yul\":2638:2647   */\n      dup11\n        /* \"#utility.yul\":2634:2656   */\n      add\n        /* \"#utility.yul\":2613:2666   */\n      tag_120\n      jump\t// in\n    tag_173:\n        /* \"#utility.yul\":2603:2666   */\n      swap4\n      pop\n        /* \"#utility.yul\":2558:2676   */\n      pop\n        /* \"#utility.yul\":2715:2718   */\n      0x80\n        /* \"#utility.yul\":2742:2795   */\n      tag_174\n        /* \"#utility.yul\":2787:2794   */\n      dup10\n        /* \"#utility.yul\":2778:2784   */\n      dup3\n        /* \"#utility.yul\":2767:2776   */\n      dup11\n        /* \"#utility.yul\":2763:2785   */\n      add\n        /* \"#utility.yul\":2742:2795   */\n      tag_120\n      jump\t// in\n    tag_174:\n        /* \"#utility.yul\":2732:2795   */\n      swap3\n      pop\n        /* \"#utility.yul\":2686:2805   */\n      pop\n        /* \"#utility.yul\":2844:2847   */\n      0xa0\n        /* \"#utility.yul\":2871:2924   */\n      tag_175\n        /* \"#utility.yul\":2916:2923   */\n      dup10\n        /* \"#utility.yul\":2907:2913   */\n      dup3\n        /* \"#utility.yul\":2896:2905   */\n      dup11\n        /* \"#utility.yul\":2892:2914   */\n      add\n        /* \"#utility.yul\":2871:2924   */\n      tag_120\n      jump\t// in\n    tag_175:\n        /* \"#utility.yul\":2861:2924   */\n      swap2\n      pop\n        /* \"#utility.yul\":2815:2934   */\n      pop\n        /* \"#utility.yul\":1884:2941   */\n      swap3\n      swap6\n      pop\n      swap3\n      swap6\n      pop\n      swap3\n      swap6\n      jump\t// out\n        /* \"#utility.yul\":2947:3276   */\n    tag_44:\n        /* \"#utility.yul\":3006:3012   */\n      0x00\n        /* \"#utility.yul\":3055:3057   */\n      0x20\n        /* \"#utility.yul\":3043:3052   */\n      dup3\n        /* \"#utility.yul\":3034:3041   */\n      dup5\n        /* \"#utility.yul\":3030:3053   */\n      sub\n        /* \"#utility.yul\":3026:3058   */\n      slt\n        /* \"#utility.yul\":3023:3142   */\n      iszero\n      tag_177\n      jumpi\n        /* \"#utility.yul\":3061:3140   */\n      tag_178\n      tag_111\n      jump\t// in\n    tag_178:\n        /* \"#utility.yul\":3023:3142   */\n    tag_177:\n        /* \"#utility.yul\":3181:3182   */\n      0x00\n        /* \"#utility.yul\":3206:3259   */\n      tag_179\n        /* \"#utility.yul\":3251:3258   */\n      dup5\n        /* \"#utility.yul\":3242:3248   */\n      dup3\n        /* \"#utility.yul\":3231:3240   */\n      dup6\n        /* \"#utility.yul\":3227:3249   */\n      add\n        /* \"#utility.yul\":3206:3259   */\n      tag_120\n      jump\t// in\n    tag_179:\n        /* \"#utility.yul\":3196:3259   */\n      swap2\n      pop\n        /* \"#utility.yul\":3152:3269   */\n      pop\n        /* \"#utility.yul\":2947:3276   */\n      swap3\n      swap2\n      pop\n      pop\n      jump\t// out\n        /* \"#utility.yul\":3282:3400   */\n    tag_121:\n        /* \"#utility.yul\":3369:3393   */\n      tag_181\n        /* \"#utility.yul\":3387:3392   */\n      dup2\n        /* \"#utility.yul\":3369:3393   */\n      tag_114\n      jump\t// in\n    tag_181:\n        /* \"#utility.yul\":3364:3367   */\n      dup3\n        /* \"#utility.yul\":3357:3394   */\n      mstore\n        /* \"#utility.yul\":3282:3400   */\n      pop\n      pop\n      jump\t// out\n        /* \"#utility.yul\":3406:3628   */\n    tag_47:\n        /* \"#utility.yul\":3499:3503   */\n      0x00\n        /* \"#utility.yul\":3537:3539   */\n      0x20\n        /* \"#utility.yul\":3526:3535   */\n      dup3\n        /* \"#utility.yul\":3522:3540   */\n      add\n        /* \"#utility.yul\":3514:3540   */\n      swap1\n      pop\n        /* \"#utility.yul\":3550:3621   */\n      tag_183\n        /* \"#utility.yul\":3618:3619   */\n      0x00\n        /* \"#utility.yul\":3607:3616   */\n      dup4\n        /* \"#utility.yul\":3603:3620   */\n      add\n        /* \"#utility.yul\":3594:3600   */\n      dup5\n        /* \"#utility.yul\":3550:3621   */\n      tag_121\n      jump\t// in\n    tag_183:\n        /* \"#utility.yul\":3406:3628   */\n      swap3\n      swap2\n      pop\n      pop\n      jump\t// out\n        /* \"#utility.yul\":3634:3694   */\n    tag_122:\n        /* \"#utility.yul\":3662:3665   */\n      0x00\n        /* \"#utility.yul\":3683:3688   */\n      dup2\n        /* \"#utility.yul\":3676:3688   */\n      swap1\n      pop\n        /* \"#utility.yul\":3634:3694   */\n      swap2\n      swap1\n      pop\n      jump\t// out\n        /* \"#utility.yul\":3700:3842   */\n    tag_123:\n        /* \"#utility.yul\":3750:3759   */\n      0x00\n        /* \"#utility.yul\":3783:3836   */\n      tag_186\n        /* \"#utility.yul\":3801:3835   */\n      tag_187\n        /* \"#utility.yul\":3810:3834   */\n      tag_188\n        /* \"#utility.yul\":3828:3833   */\n      dup5\n        /* \"#utility.yul\":3810:3834   */\n      tag_113\n      jump\t// in\n    tag_188:\n        /* \"#utility.yul\":3801:3835   */\n      tag_122\n      jump\t// in\n    tag_187:\n        /* \"#utility.yul\":3783:3836   */\n      tag_113\n      jump\t// in\n    tag_186:\n        /* \"#utility.yul\":3770:3836   */\n      swap1\n      pop\n        /* \"#utility.yul\":3700:3842   */\n      swap2\n      swap1\n      pop\n      jump\t// out\n        /* \"#utility.yul\":3848:3974   */\n    tag_124:\n        /* \"#utility.yul\":3898:3907   */\n      0x00\n        /* \"#utility.yul\":3931:3968   */\n      tag_190\n        /* \"#utility.yul\":3962:3967   */\n      dup3\n        /* \"#utility.yul\":3931:3968   */\n      tag_123\n      jump\t// in\n    tag_190:\n        /* \"#utility.yul\":3918:3968   */\n      swap1\n      pop\n        /* \"#utility.yul\":3848:3974   */\n      swap2\n      swap1\n      pop\n      jump\t// out\n        /* \"#utility.yul\":3980:4119   */\n    tag_125:\n        /* \"#utility.yul\":4043:4052   */\n      0x00\n        /* \"#utility.yul\":4076:4113   */\n      tag_192\n        /* \"#utility.yul\":4107:4112   */\n      dup3\n        /* \"#utility.yul\":4076:4113   */\n      tag_124\n      jump\t// in\n    tag_192:\n        /* \"#utility.yul\":4063:4113   */\n      swap1\n      pop\n        /* \"#utility.yul\":3980:4119   */\n      swap2\n      swap1\n      pop\n      jump\t// out\n        /* \"#utility.yul\":4125:4282   */\n    tag_126:\n        /* \"#utility.yul\":4225:4275   */\n      tag_194\n        /* \"#utility.yul\":4269:4274   */\n      dup2\n        /* \"#utility.yul\":4225:4275   */\n      tag_125\n      jump\t// in\n    tag_194:\n        /* \"#utility.yul\":4220:4223   */\n      dup3\n        /* \"#utility.yul\":4213:4276   */\n      mstore\n        /* \"#utility.yul\":4125:4282   */\n      pop\n      pop\n      jump\t// out\n        /* \"#utility.yul\":4288:4536   */\n    tag_61:\n        /* \"#utility.yul\":4394:4398   */\n      0x00\n        /* \"#utility.yul\":4432:4434   */\n      0x20\n        /* \"#utility.yul\":4421:4430   */\n      dup3\n        /* \"#utility.yul\":4417:4435   */\n      add\n        /* \"#utility.yul\":4409:4435   */\n      swap1\n      pop\n        /* \"#utility.yul\":4445:4529   */\n      tag_196\n        /* \"#utility.yul\":4526:4527   */\n      0x00\n        /* \"#utility.yul\":4515:4524   */\n      dup4\n        /* \"#utility.yul\":4511:4528   */\n      add\n        /* \"#utility.yul\":4502:4508   */\n      dup5\n        /* \"#utility.yul\":4445:4529   */\n      tag_126\n      jump\t// in\n    tag_196:\n        /* \"#utility.yul\":4288:4536   */\n      swap3\n      swap2\n      pop\n      pop\n      jump\t// out\n        /* \"#utility.yul\":4542:4711   */\n    tag_127:\n        /* \"#utility.yul\":4626:4637   */\n      0x00\n        /* \"#utility.yul\":4660:4666   */\n      dup3\n        /* \"#utility.yul\":4655:4658   */\n      dup3\n        /* \"#utility.yul\":4648:4667   */\n      mstore\n        /* \"#utility.yul\":4700:4704   */\n      0x20\n        /* \"#utility.yul\":4695:4698   */\n      dup3\n        /* \"#utility.yul\":4691:4705   */\n      add\n        /* \"#utility.yul\":4676:4705   */\n      swap1\n      pop\n        /* \"#utility.yul\":4542:4711   */\n      swap3\n      swap2\n      pop\n      pop\n      jump\t// out\n        /* \"#utility.yul\":4717:4937   */\n    tag_128:\n        /* \"#utility.yul\":4857:4891   */\n      0x4f6e6c7920746865206f776e65722063616e2072656c6561736520746f6b656e\n        /* \"#utility.yul\":4853:4854   */\n      0x00\n        /* \"#utility.yul\":4845:4851   */\n      dup3\n        /* \"#utility.yul\":4841:4855   */\n      add\n        /* \"#utility.yul\":4834:4892   */\n      mstore\n        /* \"#utility.yul\":4926:4929   */\n      0x7300000000000000000000000000000000000000000000000000000000000000\n        /* \"#utility.yul\":4921:4923   */\n      0x20\n        /* \"#utility.yul\":4913:4919   */\n      dup3\n        /* \"#utility.yul\":4909:4924   */\n      add\n        /* \"#utility.yul\":4902:4930   */\n      mstore\n        /* \"#utility.yul\":4717:4937   */\n      pop\n      jump\t// out\n        /* \"#utility.yul\":4943:5309   */\n    tag_129:\n        /* \"#utility.yul\":5085:5088   */\n      0x00\n        /* \"#utility.yul\":5106:5173   */\n      tag_200\n        /* \"#utility.yul\":5170:5172   */\n      0x21\n        /* \"#utility.yul\":5165:5168   */\n      dup4\n        /* \"#utility.yul\":5106:5173   */\n      tag_127\n      jump\t// in\n    tag_200:\n        /* \"#utility.yul\":5099:5173   */\n      swap2\n      pop\n        /* \"#utility.yul\":5182:5275   */\n      tag_201\n        /* \"#utility.yul\":5271:5274   */\n      dup3\n        /* \"#utility.yul\":5182:5275   */\n      tag_128\n      jump\t// in\n    tag_201:\n        /* \"#utility.yul\":5300:5302   */\n      0x40\n        /* \"#utility.yul\":5295:5298   */\n      dup3\n        /* \"#utility.yul\":5291:5303   */\n      add\n        /* \"#utility.yul\":5284:5303   */\n      swap1\n      pop\n        /* \"#utility.yul\":4943:5309   */\n      swap2\n      swap1\n      pop\n      jump\t// out\n        /* \"#utility.yul\":5315:5734   */\n    tag_65:\n        /* \"#utility.yul\":5481:5485   */\n      0x00\n        /* \"#utility.yul\":5519:5521   */\n      0x20\n        /* \"#utility.yul\":5508:5517   */\n      dup3\n        /* \"#utility.yul\":5504:5522   */\n      add\n        /* \"#utility.yul\":5496:5522   */\n      swap1\n      pop\n        /* \"#utility.yul\":5568:5577   */\n      dup2\n        /* \"#utility.yul\":5562:5566   */\n      dup2\n        /* \"#utility.yul\":5558:5578   */\n      sub\n        /* \"#utility.yul\":5554:5555   */\n      0x00\n        /* \"#utility.yul\":5543:5552   */\n      dup4\n        /* \"#utility.yul\":5539:5556   */\n      add\n        /* \"#utility.yul\":5532:5579   */\n      mstore\n        /* \"#utility.yul\":5596:5727   */\n      tag_203\n        /* \"#utility.yul\":5722:5726   */\n      dup2\n        /* \"#utility.yul\":5596:5727   */\n      tag_129\n      jump\t// in\n    tag_203:\n        /* \"#utility.yul\":5588:5727   */\n      swap1\n      pop\n        /* \"#utility.yul\":5315:5734   */\n      swap2\n      swap1\n      pop\n      jump\t// out\n        /* \"#utility.yul\":5740:5910   */\n    tag_130:\n        /* \"#utility.yul\":5880:5902   */\n      0x4e6f20746f6b656e7320746f2072656c65617365000000000000000000000000\n        /* \"#utility.yul\":5876:5877   */\n      0x00\n        /* \"#utility.yul\":5868:5874   */\n      dup3\n        /* \"#utility.yul\":5864:5878   */\n      add\n        /* \"#utility.yul\":5857:5903   */\n      mstore\n        /* \"#utility.yul\":5740:5910   */\n      pop\n      jump\t// out\n        /* \"#utility.yul\":5916:6282   */\n    tag_131:\n        /* \"#utility.yul\":6058:6061   */\n      0x00\n        /* \"#utility.yul\":6079:6146   */\n      tag_206\n        /* \"#utility.yul\":6143:6145   */\n      0x14\n        /* \"#utility.yul\":6138:6141   */\n      dup4\n        /* \"#utility.yul\":6079:6146   */\n      tag_127\n      jump\t// in\n    tag_206:\n        /* \"#utility.yul\":6072:6146   */\n      swap2\n      pop\n        /* \"#utility.yul\":6155:6248   */\n      tag_207\n        /* \"#utility.yul\":6244:6247   */\n      dup3\n        /* \"#utility.yul\":6155:6248   */\n      tag_130\n      jump\t// in\n    tag_207:\n        /* \"#utility.yul\":6273:6275   */\n      0x20\n        /* \"#utility.yul\":6268:6271   */\n      dup3\n        /* \"#utility.yul\":6264:6276   */\n      add\n        /* \"#utility.yul\":6257:6276   */\n      swap1\n      pop\n        /* \"#utility.yul\":5916:6282   */\n      swap2\n      swap1\n      pop\n      jump\t// out\n        /* \"#utility.yul\":6288:6707   */\n    tag_69:\n        /* \"#utility.yul\":6454:6458   */\n      0x00\n        /* \"#utility.yul\":6492:6494   */\n      0x20\n        /* \"#utility.yul\":6481:6490   */\n      dup3\n        /* \"#utility.yul\":6477:6495   */\n      add\n        /* \"#utility.yul\":6469:6495   */\n      swap1\n      pop\n        /* \"#utility.yul\":6541:6550   */\n      dup2\n        /* \"#utility.yul\":6535:6539   */\n      dup2\n        /* \"#utility.yul\":6531:6551   */\n      sub\n        /* \"#utility.yul\":6527:6528   */\n      0x00\n        /* \"#utility.yul\":6516:6525   */\n      dup4\n        /* \"#utility.yul\":6512:6529   */\n      add\n        /* \"#utility.yul\":6505:6552   */\n      mstore\n        /* \"#utility.yul\":6569:6700   */\n      tag_209\n        /* \"#utility.yul\":6695:6699   */\n      dup2\n        /* \"#utility.yul\":6569:6700   */\n      tag_131\n      jump\t// in\n    tag_209:\n        /* \"#utility.yul\":6561:6700   */\n      swap1\n      pop\n        /* \"#utility.yul\":6288:6707   */\n      swap2\n      swap1\n      pop\n      jump\t// out\n        /* \"#utility.yul\":6713:6893   */\n    tag_132:\n        /* \"#utility.yul\":6761:6838   */\n      0x4e487b7100000000000000000000000000000000000000000000000000000000\n        /* \"#utility.yul\":6758:6759   */\n      0x00\n        /* \"#utility.yul\":6751:6839   */\n      mstore\n        /* \"#utility.yul\":6858:6862   */\n      0x11\n        /* \"#utility.yul\":6855:6856   */\n      0x04\n        /* \"#utility.yul\":6848:6863   */\n      mstore\n        /* \"#utility.yul\":6882:6886   */\n      0x24\n        /* \"#utility.yul\":6879:6880   */\n      0x00\n        /* \"#utility.yul\":6872:6887   */\n      revert\n        /* \"#utility.yul\":6899:7090   */\n    tag_71:\n        /* \"#utility.yul\":6939:6942   */\n      0x00\n        /* \"#utility.yul\":6958:6978   */\n      tag_212\n        /* \"#utility.yul\":6976:6977   */\n      dup3\n        /* \"#utility.yul\":6958:6978   */\n      tag_117\n      jump\t// in\n    tag_212:\n        /* \"#utility.yul\":6953:6978   */\n      swap2\n      pop\n        /* \"#utility.yul\":6992:7012   */\n      tag_213\n        /* \"#utility.yul\":7010:7011   */\n      dup4\n        /* \"#utility.yul\":6992:7012   */\n      tag_117\n      jump\t// in\n    tag_213:\n        /* \"#utility.yul\":6987:7012   */\n      swap3\n      pop\n        /* \"#utility.yul\":7035:7036   */\n      dup3\n        /* \"#utility.yul\":7032:7033   */\n      dup3\n        /* \"#utility.yul\":7028:7037   */\n      add\n        /* \"#utility.yul\":7021:7037   */\n      swap1\n      pop\n        /* \"#utility.yul\":7056:7059   */\n      dup1\n        /* \"#utility.yul\":7053:7054   */\n      dup3\n        /* \"#utility.yul\":7050:7060   */\n      gt\n        /* \"#utility.yul\":7047:7083   */\n      iszero\n      tag_214\n      jumpi\n        /* \"#utility.yul\":7063:7081   */\n      tag_215\n      tag_132\n      jump\t// in\n    tag_215:\n        /* \"#utility.yul\":7047:7083   */\n    tag_214:\n        /* \"#utility.yul\":6899:7090   */\n      swap3\n      swap2\n      pop\n      pop\n      jump\t// out\n        /* \"#utility.yul\":7096:7428   */\n    tag_73:\n        /* \"#utility.yul\":7217:7221   */\n      0x00\n        /* \"#utility.yul\":7255:7257   */\n      0x40\n        /* \"#utility.yul\":7244:7253   */\n      dup3\n        /* \"#utility.yul\":7240:7258   */\n      add\n        /* \"#utility.yul\":7232:7258   */\n      swap1\n      pop\n        /* \"#utility.yul\":7268:7339   */\n      tag_217\n        /* \"#utility.yul\":7336:7337   */\n      0x00\n        /* \"#utility.yul\":7325:7334   */\n      dup4\n        /* \"#utility.yul\":7321:7338   */\n      add\n        /* \"#utility.yul\":7312:7318   */\n      dup6\n        /* \"#utility.yul\":7268:7339   */\n      tag_121\n      jump\t// in\n    tag_217:\n        /* \"#utility.yul\":7349:7421   */\n      tag_218\n        /* \"#utility.yul\":7417:7419   */\n      0x20\n        /* \"#utility.yul\":7406:7415   */\n      dup4\n        /* \"#utility.yul\":7402:7420   */\n      add\n        /* \"#utility.yul\":7393:7399   */\n      dup5\n        /* \"#utility.yul\":7349:7421   */\n      tag_118\n      jump\t// in\n    tag_218:\n        /* \"#utility.yul\":7096:7428   */\n      swap4\n      swap3\n      pop\n      pop\n      pop\n      jump\t// out\n        /* \"#utility.yul\":7434:7524   */\n    tag_133:\n        /* \"#utility.yul\":7468:7475   */\n      0x00\n        /* \"#utility.yul\":7511:7516   */\n      dup2\n        /* \"#utility.yul\":7504:7517   */\n      iszero\n        /* \"#utility.yul\":7497:7518   */\n      iszero\n        /* \"#utility.yul\":7486:7518   */\n      swap1\n      pop\n        /* \"#utility.yul\":7434:7524   */\n      swap2\n      swap1\n      pop\n      jump\t// out\n        /* \"#utility.yul\":7530:7646   */\n    tag_134:\n        /* \"#utility.yul\":7600:7621   */\n      tag_221\n        /* \"#utility.yul\":7615:7620   */\n      dup2\n        /* \"#utility.yul\":7600:7621   */\n      tag_133\n      jump\t// in\n    tag_221:\n        /* \"#utility.yul\":7593:7598   */\n      dup2\n        /* \"#utility.yul\":7590:7622   */\n      eq\n        /* \"#utility.yul\":7580:7640   */\n      tag_222\n      jumpi\n        /* \"#utility.yul\":7636:7637   */\n      0x00\n        /* \"#utility.yul\":7633:7634   */\n      dup1\n        /* \"#utility.yul\":7626:7638   */\n      revert\n        /* \"#utility.yul\":7580:7640   */\n    tag_222:\n        /* \"#utility.yul\":7530:7646   */\n      pop\n      jump\t// out\n        /* \"#utility.yul\":7652:7789   */\n    tag_135:\n        /* \"#utility.yul\":7706:7711   */\n      0x00\n        /* \"#utility.yul\":7737:7743   */\n      dup2\n        /* \"#utility.yul\":7731:7744   */\n      mload\n        /* \"#utility.yul\":7722:7744   */\n      swap1\n      pop\n        /* \"#utility.yul\":7753:7783   */\n      tag_224\n        /* \"#utility.yul\":7777:7782   */\n      dup2\n        /* \"#utility.yul\":7753:7783   */\n      tag_134\n      jump\t// in\n    tag_224:\n        /* \"#utility.yul\":7652:7789   */\n      swap3\n      swap2\n      pop\n      pop\n      jump\t// out\n        /* \"#utility.yul\":7795:8140   */\n    tag_77:\n        /* \"#utility.yul\":7862:7868   */\n      0x00\n        /* \"#utility.yul\":7911:7913   */\n      0x20\n        /* \"#utility.yul\":7899:7908   */\n      dup3\n        /* \"#utility.yul\":7890:7897   */\n      dup5\n        /* \"#utility.yul\":7886:7909   */\n      sub\n        /* \"#utility.yul\":7882:7914   */\n      slt\n        /* \"#utility.yul\":7879:7998   */\n      iszero\n      tag_226\n      jumpi\n        /* \"#utility.yul\":7917:7996   */\n      tag_227\n      tag_111\n      jump\t// in\n    tag_227:\n        /* \"#utility.yul\":7879:7998   */\n    tag_226:\n        /* \"#utility.yul\":8037:8038   */\n      0x00\n        /* \"#utility.yul\":8062:8123   */\n      tag_228\n        /* \"#utility.yul\":8115:8122   */\n      dup5\n        /* \"#utility.yul\":8106:8112   */\n      dup3\n        /* \"#utility.yul\":8095:8104   */\n      dup6\n        /* \"#utility.yul\":8091:8113   */\n      add\n        /* \"#utility.yul\":8062:8123   */\n      tag_135\n      jump\t// in\n    tag_228:\n        /* \"#utility.yul\":8052:8123   */\n      swap2\n      pop\n        /* \"#utility.yul\":8008:8133   */\n      pop\n        /* \"#utility.yul\":7795:8140   */\n      swap3\n      swap2\n      pop\n      pop\n      jump\t// out\n        /* \"#utility.yul\":8146:8311   */\n    tag_136:\n        /* \"#utility.yul\":8286:8303   */\n      0x5472616e73666572206661696c65640000000000000000000000000000000000\n        /* \"#utility.yul\":8282:8283   */\n      0x00\n        /* \"#utility.yul\":8274:8280   */\n      dup3\n        /* \"#utility.yul\":8270:8284   */\n      add\n        /* \"#utility.yul\":8263:8304   */\n      mstore\n        /* \"#utility.yul\":8146:8311   */\n      pop\n      jump\t// out\n        /* \"#utility.yul\":8317:8683   */\n    tag_137:\n        /* \"#utility.yul\":8459:8462   */\n      0x00\n        /* \"#utility.yul\":8480:8547   */\n      tag_231\n        /* \"#utility.yul\":8544:8546   */\n      0x0f\n        /* \"#utility.yul\":8539:8542   */\n      dup4\n        /* \"#utility.yul\":8480:8547   */\n      tag_127\n      jump\t// in\n    tag_231:\n        /* \"#utility.yul\":8473:8547   */\n      swap2\n      pop\n        /* \"#utility.yul\":8556:8649   */\n      tag_232\n        /* \"#utility.yul\":8645:8648   */\n      dup3\n        /* \"#utility.yul\":8556:8649   */\n      tag_136\n      jump\t// in\n    tag_232:\n        /* \"#utility.yul\":8674:8676   */\n      0x20\n        /* \"#utility.yul\":8669:8672   */\n      dup3\n        /* \"#utility.yul\":8665:8677   */\n      add\n        /* \"#utility.yul\":8658:8677   */\n      swap1\n      pop\n        /* \"#utility.yul\":8317:8683   */\n      swap2\n      swap1\n      pop\n      jump\t// out\n        /* \"#utility.yul\":8689:9108   */\n    tag_80:\n        /* \"#utility.yul\":8855:8859   */\n      0x00\n        /* \"#utility.yul\":8893:8895   */\n      0x20\n        /* \"#utility.yul\":8882:8891   */\n      dup3\n        /* \"#utility.yul\":8878:8896   */\n      add\n        /* \"#utility.yul\":8870:8896   */\n      swap1\n      pop\n        /* \"#utility.yul\":8942:8951   */\n      dup2\n        /* \"#utility.yul\":8936:8940   */\n      dup2\n        /* \"#utility.yul\":8932:8952   */\n      sub\n        /* \"#utility.yul\":8928:8929   */\n      0x00\n        /* \"#utility.yul\":8917:8926   */\n      dup4\n        /* \"#utility.yul\":8913:8930   */\n      add\n        /* \"#utility.yul\":8906:8953   */\n      mstore\n        /* \"#utility.yul\":8970:9101   */\n      tag_234\n        /* \"#utility.yul\":9096:9100   */\n      dup2\n        /* \"#utility.yul\":8970:9101   */\n      tag_137\n      jump\t// in\n    tag_234:\n        /* \"#utility.yul\":8962:9101   */\n      swap1\n      pop\n        /* \"#utility.yul\":8689:9108   */\n      swap2\n      swap1\n      pop\n      jump\t// out\n        /* \"#utility.yul\":9114:9294   */\n    tag_138:\n        /* \"#utility.yul\":9254:9286   */\n      0x4f6e6c7920746865206f776e65722063616e206c6f636b20746f6b656e730000\n        /* \"#utility.yul\":9250:9251   */\n      0x00\n        /* \"#utility.yul\":9242:9248   */\n      dup3\n        /* \"#utility.yul\":9238:9252   */\n      add\n        /* \"#utility.yul\":9231:9287   */\n      mstore\n        /* \"#utility.yul\":9114:9294   */\n      pop\n      jump\t// out\n        /* \"#utility.yul\":9300:9666   */\n    tag_139:\n        /* \"#utility.yul\":9442:9445   */\n      0x00\n        /* \"#utility.yul\":9463:9530   */\n      tag_237\n        /* \"#utility.yul\":9527:9529   */\n      0x1e\n        /* \"#utility.yul\":9522:9525   */\n      dup4\n        /* \"#utility.yul\":9463:9530   */\n      tag_127\n      jump\t// in\n    tag_237:\n        /* \"#utility.yul\":9456:9530   */\n      swap2\n      pop\n        /* \"#utility.yul\":9539:9632   */\n      tag_238\n        /* \"#utility.yul\":9628:9631   */\n      dup3\n        /* \"#utility.yul\":9539:9632   */\n      tag_138\n      jump\t// in\n    tag_238:\n        /* \"#utility.yul\":9657:9659   */\n      0x20\n        /* \"#utility.yul\":9652:9655   */\n      dup3\n        /* \"#utility.yul\":9648:9660   */\n      add\n        /* \"#utility.yul\":9641:9660   */\n      swap1\n      pop\n        /* \"#utility.yul\":9300:9666   */\n      swap2\n      swap1\n      pop\n      jump\t// out\n        /* \"#utility.yul\":9672:10091   */\n    tag_84:\n        /* \"#utility.yul\":9838:9842   */\n      0x00\n        /* \"#utility.yul\":9876:9878   */\n      0x20\n        /* \"#utility.yul\":9865:9874   */\n      dup3\n        /* \"#utility.yul\":9861:9879   */\n      add\n        /* \"#utility.yul\":9853:9879   */\n      swap1\n      pop\n        /* \"#utility.yul\":9925:9934   */\n      dup2\n        /* \"#utility.yul\":9919:9923   */\n      dup2\n        /* \"#utility.yul\":9915:9935   */\n      sub\n        /* \"#utility.yul\":9911:9912   */\n      0x00\n        /* \"#utility.yul\":9900:9909   */\n      dup4\n        /* \"#utility.yul\":9896:9913   */\n      add\n        /* \"#utility.yul\":9889:9936   */\n      mstore\n        /* \"#utility.yul\":9953:10084   */\n      tag_240\n        /* \"#utility.yul\":10079:10083   */\n      dup2\n        /* \"#utility.yul\":9953:10084   */\n      tag_139\n      jump\t// in\n    tag_240:\n        /* \"#utility.yul\":9945:10084   */\n      swap1\n      pop\n        /* \"#utility.yul\":9672:10091   */\n      swap2\n      swap1\n      pop\n      jump\t// out\n        /* \"#utility.yul\":10097:10539   */\n    tag_86:\n        /* \"#utility.yul\":10246:10250   */\n      0x00\n        /* \"#utility.yul\":10284:10286   */\n      0x60\n        /* \"#utility.yul\":10273:10282   */\n      dup3\n        /* \"#utility.yul\":10269:10287   */\n      add\n        /* \"#utility.yul\":10261:10287   */\n      swap1\n      pop\n        /* \"#utility.yul\":10297:10368   */\n      tag_242\n        /* \"#utility.yul\":10365:10366   */\n      0x00\n        /* \"#utility.yul\":10354:10363   */\n      dup4\n        /* \"#utility.yul\":10350:10367   */\n      add\n        /* \"#utility.yul\":10341:10347   */\n      dup7\n        /* \"#utility.yul\":10297:10368   */\n      tag_121\n      jump\t// in\n    tag_242:\n        /* \"#utility.yul\":10378:10450   */\n      tag_243\n        /* \"#utility.yul\":10446:10448   */\n      0x20\n        /* \"#utility.yul\":10435:10444   */\n      dup4\n        /* \"#utility.yul\":10431:10449   */\n      add\n        /* \"#utility.yul\":10422:10428   */\n      dup6\n        /* \"#utility.yul\":10378:10450   */\n      tag_121\n      jump\t// in\n    tag_243:\n        /* \"#utility.yul\":10460:10532   */\n      tag_244\n        /* \"#utility.yul\":10528:10530   */\n      0x40\n        /* \"#utility.yul\":10517:10526   */\n      dup4\n        /* \"#utility.yul\":10513:10531   */\n      add\n        /* \"#utility.yul\":10504:10510   */\n      dup5\n        /* \"#utility.yul\":10460:10532   */\n      tag_118\n      jump\t// in\n    tag_244:\n        /* \"#utility.yul\":10097:10539   */\n      swap5\n      swap4\n      pop\n      pop\n      pop\n      pop\n      jump\t// out\n        /* \"#utility.yul\":10545:10739   */\n    tag_98:\n        /* \"#utility.yul\":10585:10589   */\n      0x00\n        /* \"#utility.yul\":10605:10625   */\n      tag_246\n        /* \"#utility.yul\":10623:10624   */\n      dup3\n        /* \"#utility.yul\":10605:10625   */\n      tag_117\n      jump\t// in\n    tag_246:\n        /* \"#utility.yul\":10600:10625   */\n      swap2\n      pop\n        /* \"#utility.yul\":10639:10659   */\n      tag_247\n        /* \"#utility.yul\":10657:10658   */\n      dup4\n        /* \"#utility.yul\":10639:10659   */\n      tag_117\n      jump\t// in\n    tag_247:\n        /* \"#utility.yul\":10634:10659   */\n      swap3\n      pop\n        /* \"#utility.yul\":10683:10684   */\n      dup3\n        /* \"#utility.yul\":10680:10681   */\n      dup3\n        /* \"#utility.yul\":10676:10685   */\n      sub\n        /* \"#utility.yul\":10668:10685   */\n      swap1\n      pop\n        /* \"#utility.yul\":10707:10708   */\n      dup2\n        /* \"#utility.yul\":10701:10705   */\n      dup2\n        /* \"#utility.yul\":10698:10709   */\n      gt\n        /* \"#utility.yul\":10695:10732   */\n      iszero\n      tag_248\n      jumpi\n        /* \"#utility.yul\":10712:10730   */\n      tag_249\n      tag_132\n      jump\t// in\n    tag_249:\n        /* \"#utility.yul\":10695:10732   */\n    tag_248:\n        /* \"#utility.yul\":10545:10739   */\n      swap3\n      swap2\n      pop\n      pop\n      jump\t// out\n        /* \"#utility.yul\":10745:10925   */\n    tag_140:\n        /* \"#utility.yul\":10793:10870   */\n      0x4e487b7100000000000000000000000000000000000000000000000000000000\n        /* \"#utility.yul\":10790:10791   */\n      0x00\n        /* \"#utility.yul\":10783:10871   */\n      mstore\n        /* \"#utility.yul\":10890:10894   */\n      0x12\n        /* \"#utility.yul\":10887:10888   */\n      0x04\n        /* \"#utility.yul\":10880:10895   */\n      mstore\n        /* \"#utility.yul\":10914:10918   */\n      0x24\n        /* \"#utility.yul\":10911:10912   */\n      0x00\n        /* \"#utility.yul\":10904:10919   */\n      revert\n        /* \"#utility.yul\":10931:11116   */\n    tag_102:\n        /* \"#utility.yul\":10971:10972   */\n      0x00\n        /* \"#utility.yul\":10988:11008   */\n      tag_252\n        /* \"#utility.yul\":11006:11007   */\n      dup3\n        /* \"#utility.yul\":10988:11008   */\n      tag_117\n      jump\t// in\n    tag_252:\n        /* \"#utility.yul\":10983:11008   */\n      swap2\n      pop\n        /* \"#utility.yul\":11022:11042   */\n      tag_253\n        /* \"#utility.yul\":11040:11041   */\n      dup4\n        /* \"#utility.yul\":11022:11042   */\n      tag_117\n      jump\t// in\n    tag_253:\n        /* \"#utility.yul\":11017:11042   */\n      swap3\n      pop\n        /* \"#utility.yul\":11061:11062   */\n      dup3\n        /* \"#utility.yul\":11051:11086   */\n      tag_254\n      jumpi\n        /* \"#utility.yul\":11066:11084   */\n      tag_255\n      tag_140\n      jump\t// in\n    tag_255:\n        /* \"#utility.yul\":11051:11086   */\n    tag_254:\n        /* \"#utility.yul\":11108:11109   */\n      dup3\n        /* \"#utility.yul\":11105:11106   */\n      dup3\n        /* \"#utility.yul\":11101:11110   */\n      div\n        /* \"#utility.yul\":11096:11110   */\n      swap1\n      pop\n        /* \"#utility.yul\":10931:11116   */\n      swap3\n      swap2\n      pop\n      pop\n      jump\t// out\n        /* \"#utility.yul\":11122:11532   */\n    tag_105:\n        /* \"#utility.yul\":11162:11169   */\n      0x00\n        /* \"#utility.yul\":11185:11205   */\n      tag_257\n        /* \"#utility.yul\":11203:11204   */\n      dup3\n        /* \"#utility.yul\":11185:11205   */\n      tag_117\n      jump\t// in\n    tag_257:\n        /* \"#utility.yul\":11180:11205   */\n      swap2\n      pop\n        /* \"#utility.yul\":11219:11239   */\n      tag_258\n        /* \"#utility.yul\":11237:11238   */\n      dup4\n        /* \"#utility.yul\":11219:11239   */\n      tag_117\n      jump\t// in\n    tag_258:\n        /* \"#utility.yul\":11214:11239   */\n      swap3\n      pop\n        /* \"#utility.yul\":11274:11275   */\n      dup3\n        /* \"#utility.yul\":11271:11272   */\n      dup3\n        /* \"#utility.yul\":11267:11276   */\n      mul\n        /* \"#utility.yul\":11296:11326   */\n      tag_259\n        /* \"#utility.yul\":11314:11325   */\n      dup2\n        /* \"#utility.yul\":11296:11326   */\n      tag_117\n      jump\t// in\n    tag_259:\n        /* \"#utility.yul\":11285:11326   */\n      swap2\n      pop\n        /* \"#utility.yul\":11475:11476   */\n      dup3\n        /* \"#utility.yul\":11466:11473   */\n      dup3\n        /* \"#utility.yul\":11462:11477   */\n      div\n        /* \"#utility.yul\":11459:11460   */\n      dup5\n        /* \"#utility.yul\":11456:11478   */\n      eq\n        /* \"#utility.yul\":11436:11437   */\n      dup4\n        /* \"#utility.yul\":11429:11438   */\n      iszero\n        /* \"#utility.yul\":11409:11492   */\n      or\n        /* \"#utility.yul\":11386:11525   */\n      tag_260\n      jumpi\n        /* \"#utility.yul\":11505:11523   */\n      tag_261\n      tag_132\n      jump\t// in\n    tag_261:\n        /* \"#utility.yul\":11386:11525   */\n    tag_260:\n        /* \"#utility.yul\":11170:11532   */\n      pop\n        /* \"#utility.yul\":11122:11532   */\n      swap3\n      swap2\n      pop\n      pop\n      jump\t// out\n\n    auxdata: 0xa26469706673582212200112943b1ff934dc0b8e8b63200e2a6b4d586967729c96aa8df252a51ea5ab0764736f6c63430008120033\n}\n",
				"bytecode": {
					"linkReferences": {},
					"object": "60806040523480156200001157600080fd5b50604051620010d4380380620010d483398181016040528101906200003791906200012a565b80600860006101000a81548173ffffffffffffffffffffffffffffffffffffffff021916908373ffffffffffffffffffffffffffffffffffffffff16021790555033600760006101000a81548173ffffffffffffffffffffffffffffffffffffffff021916908373ffffffffffffffffffffffffffffffffffffffff160217905550506200015c565b600080fd5b600073ffffffffffffffffffffffffffffffffffffffff82169050919050565b6000620000f282620000c5565b9050919050565b6200010481620000e5565b81146200011057600080fd5b50565b6000815190506200012481620000f9565b92915050565b600060208284031215620001435762000142620000c0565b5b6000620001538482850162000113565b91505092915050565b610f68806200016c6000396000f3fe608060405234801561001057600080fd5b50600436106100b45760003560e01c80635afd6eb8116100715780635afd6eb81461018d5780635f1fa8c0146101ab57806378e97925146101db578063891d6760146101f95780638da5cb5b14610229578063fc0c546a14610247576100b4565b806301567739146100b95780630fb5a6b4146100e957806313d033c014610107578063191655871461012557806329d3b0d31461014157806358db00f71461015d575b600080fd5b6100d360048036038101906100ce9190610962565b610265565b6040516100e091906109a8565b60405180910390f35b6100f161027d565b6040516100fe91906109a8565b60405180910390f35b61010f610283565b60405161011c91906109a8565b60405180910390f35b61013f600480360381019061013a9190610962565b610289565b005b61015b600480360381019061015691906109ef565b6104a2565b005b61017760048036038101906101729190610962565b6106a0565b60405161018491906109a8565b60405180910390f35b610195610850565b6040516101a291906109a8565b60405180910390f35b6101c560048036038101906101c09190610a7c565b610856565b6040516101d29190610ab8565b60405180910390f35b6101e3610895565b6040516101f091906109a8565b60405180910390f35b610213600480360381019061020e9190610962565b61089b565b60405161022091906109a8565b60405180910390f35b6102316108b3565b60405161023e9190610ab8565b60405180910390f35b61024f6108d9565b60405161025c9190610b32565b60405180910390f35b60046020528060005260406000206000915090505481565b60025481565b60015481565b600760009054906101000a900473ffffffffffffffffffffffffffffffffffffffff1673ffffffffffffffffffffffffffffffffffffffff163373ffffffffffffffffffffffffffffffffffffffff1614610319576040517f08c379a000000000000000000000000000000000000000000000000000000000815260040161031090610bd0565b60405180910390fd5b6000610324826106a0565b905060008111610369576040517f08c379a000000000000000000000000000000000000000000000000000000000815260040161036090610c3c565b60405180910390fd5b80600560008473ffffffffffffffffffffffffffffffffffffffff1673ffffffffffffffffffffffffffffffffffffffff16815260200190815260200160002060008282546103b89190610c8b565b92505081905550600860009054906101000a900473ffffffffffffffffffffffffffffffffffffffff1673ffffffffffffffffffffffffffffffffffffffff1663a9059cbb83836040518363ffffffff1660e01b815260040161041c929190610cbf565b6020604051808303816000875af115801561043b573d6000803e3d6000fd5b505050506040513d601f19601f8201168201806040525081019061045f9190610d20565b61049e576040517f08c379a000000000000000000000000000000000000000000000000000000000815260040161049590610d99565b60405180910390fd5b5050565b600760009054906101000a900473ffffffffffffffffffffffffffffffffffffffff1673ffffffffffffffffffffffffffffffffffffffff163373ffffffffffffffffffffffffffffffffffffffff1614610532576040517f08c379a000000000000000000000000000000000000000000000000000000000815260040161052990610e05565b60405180910390fd5b600860009054906101000a900473ffffffffffffffffffffffffffffffffffffffff1673ffffffffffffffffffffffffffffffffffffffff166323b872dd8730886040518463ffffffff1660e01b815260040161059193929190610e25565b6020604051808303816000875af11580156105b0573d6000803e3d6000fd5b505050506040513d601f19601f820116820180604052508101906105d49190610d20565b508360008190555082600281905550816001819055508060038190555084600460008873ffffffffffffffffffffffffffffffffffffffff1673ffffffffffffffffffffffffffffffffffffffff168152602001908152602001600020819055506006869080600181540180825580915050600190039060005260206000200160009091909190916101000a81548173ffffffffffffffffffffffffffffffffffffffff021916908373ffffffffffffffffffffffffffffffffffffffff160217905550505050505050565b60006001546003546106b29190610c8b565b4210156106c2576000905061084b565b6002546003546106d29190610c8b565b421061076957600560008373ffffffffffffffffffffffffffffffffffffffff1673ffffffffffffffffffffffffffffffffffffffff16815260200190815260200160002054600460008473ffffffffffffffffffffffffffffffffffffffff1673ffffffffffffffffffffffffffffffffffffffff168152602001908152602001600020546107629190610e5c565b905061084b565b6000600354426107799190610e5c565b90506000805460025461078c9190610ebf565b9050600080548361079d9190610ebf565b905060008282600460008973ffffffffffffffffffffffffffffffffffffffff1673ffffffffffffffffffffffffffffffffffffffff168152602001908152602001600020546107ed9190610ef0565b6107f79190610ebf565b9050600560008773ffffffffffffffffffffffffffffffffffffffff1673ffffffffffffffffffffffffffffffffffffffff16815260200190815260200160002054816108449190610e5c565b9450505050505b919050565b60005481565b6006818154811061086657600080fd5b906000526020600020016000915054906101000a900473ffffffffffffffffffffffffffffffffffffffff1681565b60035481565b60056020528060005260406000206000915090505481565b600760009054906101000a900473ffffffffffffffffffffffffffffffffffffffff1681565b600860009054906101000a900473ffffffffffffffffffffffffffffffffffffffff1681565b600080fd5b600073ffffffffffffffffffffffffffffffffffffffff82169050919050565b600061092f82610904565b9050919050565b61093f81610924565b811461094a57600080fd5b50565b60008135905061095c81610936565b92915050565b600060208284031215610978576109776108ff565b5b60006109868482850161094d565b91505092915050565b6000819050919050565b6109a28161098f565b82525050565b60006020820190506109bd6000830184610999565b92915050565b6109cc8161098f565b81146109d757600080fd5b50565b6000813590506109e9816109c3565b92915050565b60008060008060008060c08789031215610a0c57610a0b6108ff565b5b6000610a1a89828a0161094d565b9650506020610a2b89828a016109da565b9550506040610a3c89828a016109da565b9450506060610a4d89828a016109da565b9350506080610a5e89828a016109da565b92505060a0610a6f89828a016109da565b9150509295509295509295565b600060208284031215610a9257610a916108ff565b5b6000610aa0848285016109da565b91505092915050565b610ab281610924565b82525050565b6000602082019050610acd6000830184610aa9565b92915050565b6000819050919050565b6000610af8610af3610aee84610904565b610ad3565b610904565b9050919050565b6000610b0a82610add565b9050919050565b6000610b1c82610aff565b9050919050565b610b2c81610b11565b82525050565b6000602082019050610b476000830184610b23565b92915050565b600082825260208201905092915050565b7f4f6e6c7920746865206f776e65722063616e2072656c6561736520746f6b656e60008201527f7300000000000000000000000000000000000000000000000000000000000000602082015250565b6000610bba602183610b4d565b9150610bc582610b5e565b604082019050919050565b60006020820190508181036000830152610be981610bad565b9050919050565b7f4e6f20746f6b656e7320746f2072656c65617365000000000000000000000000600082015250565b6000610c26601483610b4d565b9150610c3182610bf0565b602082019050919050565b60006020820190508181036000830152610c5581610c19565b9050919050565b7f4e487b7100000000000000000000000000000000000000000000000000000000600052601160045260246000fd5b6000610c968261098f565b9150610ca18361098f565b9250828201905080821115610cb957610cb8610c5c565b5b92915050565b6000604082019050610cd46000830185610aa9565b610ce16020830184610999565b9392505050565b60008115159050919050565b610cfd81610ce8565b8114610d0857600080fd5b50565b600081519050610d1a81610cf4565b92915050565b600060208284031215610d3657610d356108ff565b5b6000610d4484828501610d0b565b91505092915050565b7f5472616e73666572206661696c65640000000000000000000000000000000000600082015250565b6000610d83600f83610b4d565b9150610d8e82610d4d565b602082019050919050565b60006020820190508181036000830152610db281610d76565b9050919050565b7f4f6e6c7920746865206f776e65722063616e206c6f636b20746f6b656e730000600082015250565b6000610def601e83610b4d565b9150610dfa82610db9565b602082019050919050565b60006020820190508181036000830152610e1e81610de2565b9050919050565b6000606082019050610e3a6000830186610aa9565b610e476020830185610aa9565b610e546040830184610999565b949350505050565b6000610e678261098f565b9150610e728361098f565b9250828203905081811115610e8a57610e89610c5c565b5b92915050565b7f4e487b7100000000000000000000000000000000000000000000000000000000600052601260045260246000fd5b6000610eca8261098f565b9150610ed58361098f565b925082610ee557610ee4610e90565b5b828204905092915050565b6000610efb8261098f565b9150610f068361098f565b9250828202610f148161098f565b91508282048414831517610f2b57610f2a610c5c565b5b509291505056fea26469706673582212200112943b1ff934dc0b8e8b63200e2a6b4d586967729c96aa8df252a51ea5ab0764736f6c63430008120033",
					"opcodes": "PUSH1 0x80 PUSH1 0x40 MSTORE CALLVALUE DUP1 ISZERO PUSH3 0x11 JUMPI PUSH1 0x0 DUP1 REVERT JUMPDEST POP PUSH1 0x40 MLOAD PUSH3 0x10D4 CODESIZE SUB DUP1 PUSH3 0x10D4 DUP4 CODECOPY DUP2 DUP2 ADD PUSH1 0x40 MSTORE DUP2 ADD SWAP1 PUSH3 0x37 SWAP2 SWAP1 PUSH3 0x12A JUMP JUMPDEST DUP1 PUSH1 0x8 PUSH1 0x0 PUSH2 0x100 EXP DUP2 SLOAD DUP2 PUSH20 0xFFFFFFFFFFFFFFFFFFFFFFFFFFFFFFFFFFFFFFFF MUL NOT AND SWAP1 DUP4 PUSH20 0xFFFFFFFFFFFFFFFFFFFFFFFFFFFFFFFFFFFFFFFF AND MUL OR SWAP1 SSTORE POP CALLER PUSH1 0x7 PUSH1 0x0 PUSH2 0x100 EXP DUP2 SLOAD DUP2 PUSH20 0xFFFFFFFFFFFFFFFFFFFFFFFFFFFFFFFFFFFFFFFF MUL NOT AND SWAP1 DUP4 PUSH20 0xFFFFFFFFFFFFFFFFFFFFFFFFFFFFFFFFFFFFFFFF AND MUL OR SWAP1 SSTORE POP POP PUSH3 0x15C JUMP JUMPDEST PUSH1 0x0 DUP1 REVERT JUMPDEST PUSH1 0x0 PUSH20 0xFFFFFFFFFFFFFFFFFFFFFFFFFFFFFFFFFFFFFFFF DUP3 AND SWAP1 POP SWAP2 SWAP1 POP JUMP JUMPDEST PUSH1 0x0 PUSH3 0xF2 DUP3 PUSH3 0xC5 JUMP JUMPDEST SWAP1 POP SWAP2 SWAP1 POP JUMP JUMPDEST PUSH3 0x104 DUP2 PUSH3 0xE5 JUMP JUMPDEST DUP2 EQ PUSH3 0x110 JUMPI PUSH1 0x0 DUP1 REVERT JUMPDEST POP JUMP JUMPDEST PUSH1 0x0 DUP2 MLOAD SWAP1 POP PUSH3 0x124 DUP2 PUSH3 0xF9 JUMP JUMPDEST SWAP3 SWAP2 POP POP JUMP JUMPDEST PUSH1 0x0 PUSH1 0x20 DUP3 DUP5 SUB SLT ISZERO PUSH3 0x143 JUMPI PUSH3 0x142 PUSH3 0xC0 JUMP JUMPDEST JUMPDEST PUSH1 0x0 PUSH3 0x153 DUP5 DUP3 DUP6 ADD PUSH3 0x113 JUMP JUMPDEST SWAP2 POP POP SWAP3 SWAP2 POP POP JUMP JUMPDEST PUSH2 0xF68 DUP1 PUSH3 0x16C PUSH1 0x0 CODECOPY PUSH1 0x0 RETURN INVALID PUSH1 0x80 PUSH1 0x40 MSTORE CALLVALUE DUP1 ISZERO PUSH2 0x10 JUMPI PUSH1 0x0 DUP1 REVERT JUMPDEST POP PUSH1 0x4 CALLDATASIZE LT PUSH2 0xB4 JUMPI PUSH1 0x0 CALLDATALOAD PUSH1 0xE0 SHR DUP1 PUSH4 0x5AFD6EB8 GT PUSH2 0x71 JUMPI DUP1 PUSH4 0x5AFD6EB8 EQ PUSH2 0x18D JUMPI DUP1 PUSH4 0x5F1FA8C0 EQ PUSH2 0x1AB JUMPI DUP1 PUSH4 0x78E97925 EQ PUSH2 0x1DB JUMPI DUP1 PUSH4 0x891D6760 EQ PUSH2 0x1F9 JUMPI DUP1 PUSH4 0x8DA5CB5B EQ PUSH2 0x229 JUMPI DUP1 PUSH4 0xFC0C546A EQ PUSH2 0x247 JUMPI PUSH2 0xB4 JUMP JUMPDEST DUP1 PUSH4 0x1567739 EQ PUSH2 0xB9 JUMPI DUP1 PUSH4 0xFB5A6B4 EQ PUSH2 0xE9 JUMPI DUP1 PUSH4 0x13D033C0 EQ PUSH2 0x107 JUMPI DUP1 PUSH4 0x19165587 EQ PUSH2 0x125 JUMPI DUP1 PUSH4 0x29D3B0D3 EQ PUSH2 0x141 JUMPI DUP1 PUSH4 0x58DB00F7 EQ PUSH2 0x15D JUMPI JUMPDEST PUSH1 0x0 DUP1 REVERT JUMPDEST PUSH2 0xD3 PUSH1 0x4 DUP1 CALLDATASIZE SUB DUP2 ADD SWAP1 PUSH2 0xCE SWAP2 SWAP1 PUSH2 0x962 JUMP JUMPDEST PUSH2 0x265 JUMP JUMPDEST PUSH1 0x40 MLOAD PUSH2 0xE0 SWAP2 SWAP1 PUSH2 0x9A8 JUMP JUMPDEST PUSH1 0x40 MLOAD DUP1 SWAP2 SUB SWAP1 RETURN JUMPDEST PUSH2 0xF1 PUSH2 0x27D JUMP JUMPDEST PUSH1 0x40 MLOAD PUSH2 0xFE SWAP2 SWAP1 PUSH2 0x9A8 JUMP JUMPDEST PUSH1 0x40 MLOAD DUP1 SWAP2 SUB SWAP1 RETURN JUMPDEST PUSH2 0x10F PUSH2 0x283 JUMP JUMPDEST PUSH1 0x40 MLOAD PUSH2 0x11C SWAP2 SWAP1 PUSH2 0x9A8 JUMP JUMPDEST PUSH1 0x40 MLOAD DUP1 SWAP2 SUB SWAP1 RETURN JUMPDEST PUSH2 0x13F PUSH1 0x4 DUP1 CALLDATASIZE SUB DUP2 ADD SWAP1 PUSH2 0x13A SWAP2 SWAP1 PUSH2 0x962 JUMP JUMPDEST PUSH2 0x289 JUMP JUMPDEST STOP JUMPDEST PUSH2 0x15B PUSH1 0x4 DUP1 CALLDATASIZE SUB DUP2 ADD SWAP1 PUSH2 0x156 SWAP2 SWAP1 PUSH2 0x9EF JUMP JUMPDEST PUSH2 0x4A2 JUMP JUMPDEST STOP JUMPDEST PUSH2 0x177 PUSH1 0x4 DUP1 CALLDATASIZE SUB DUP2 ADD SWAP1 PUSH2 0x172 SWAP2 SWAP1 PUSH2 0x962 JUMP JUMPDEST PUSH2 0x6A0 JUMP JUMPDEST PUSH1 0x40 MLOAD PUSH2 0x184 SWAP2 SWAP1 PUSH2 0x9A8 JUMP JUMPDEST PUSH1 0x40 MLOAD DUP1 SWAP2 SUB SWAP1 RETURN JUMPDEST PUSH2 0x195 PUSH2 0x850 JUMP JUMPDEST PUSH1 0x40 MLOAD PUSH2 0x1A2 SWAP2 SWAP1 PUSH2 0x9A8 JUMP JUMPDEST PUSH1 0x40 MLOAD DUP1 SWAP2 SUB SWAP1 RETURN JUMPDEST PUSH2 0x1C5 PUSH1 0x4 DUP1 CALLDATASIZE SUB DUP2 ADD SWAP1 PUSH2 0x1C0 SWAP2 SWAP1 PUSH2 0xA7C JUMP JUMPDEST PUSH2 0x856 JUMP JUMPDEST PUSH1 0x40 MLOAD PUSH2 0x1D2 SWAP2 SWAP1 PUSH2 0xAB8 JUMP JUMPDEST PUSH1 0x40 MLOAD DUP1 SWAP2 SUB SWAP1 RETURN JUMPDEST PUSH2 0x1E3 PUSH2 0x895 JUMP JUMPDEST PUSH1 0x40 MLOAD PUSH2 0x1F0 SWAP2 SWAP1 PUSH2 0x9A8 JUMP JUMPDEST PUSH1 0x40 MLOAD DUP1 SWAP2 SUB SWAP1 RETURN JUMPDEST PUSH2 0x213 PUSH1 0x4 DUP1 CALLDATASIZE SUB DUP2 ADD SWAP1 PUSH2 0x20E SWAP2 SWAP1 PUSH2 0x962 JUMP JUMPDEST PUSH2 0x89B JUMP JUMPDEST PUSH1 0x40 MLOAD PUSH2 0x220 SWAP2 SWAP1 PUSH2 0x9A8 JUMP JUMPDEST PUSH1 0x40 MLOAD DUP1 SWAP2 SUB SWAP1 RETURN JUMPDEST PUSH2 0x231 PUSH2 0x8B3 JUMP JUMPDEST PUSH1 0x40 MLOAD PUSH2 0x23E SWAP2 SWAP1 PUSH2 0xAB8 JUMP JUMPDEST PUSH1 0x40 MLOAD DUP1 SWAP2 SUB SWAP1 RETURN JUMPDEST PUSH2 0x24F PUSH2 0x8D9 JUMP JUMPDEST PUSH1 0x40 MLOAD PUSH2 0x25C SWAP2 SWAP1 PUSH2 0xB32 JUMP JUMPDEST PUSH1 0x40 MLOAD DUP1 SWAP2 SUB SWAP1 RETURN JUMPDEST PUSH1 0x4 PUSH1 0x20 MSTORE DUP1 PUSH1 0x0 MSTORE PUSH1 0x40 PUSH1 0x0 KECCAK256 PUSH1 0x0 SWAP2 POP SWAP1 POP SLOAD DUP2 JUMP JUMPDEST PUSH1 0x2 SLOAD DUP2 JUMP JUMPDEST PUSH1 0x1 SLOAD DUP2 JUMP JUMPDEST PUSH1 0x7 PUSH1 0x0 SWAP1 SLOAD SWAP1 PUSH2 0x100 EXP SWAP1 DIV PUSH20 0xFFFFFFFFFFFFFFFFFFFFFFFFFFFFFFFFFFFFFFFF AND PUSH20 0xFFFFFFFFFFFFFFFFFFFFFFFFFFFFFFFFFFFFFFFF AND CALLER PUSH20 0xFFFFFFFFFFFFFFFFFFFFFFFFFFFFFFFFFFFFFFFF AND EQ PUSH2 0x319 JUMPI PUSH1 0x40 MLOAD PUSH32 0x8C379A000000000000000000000000000000000000000000000000000000000 DUP2 MSTORE PUSH1 0x4 ADD PUSH2 0x310 SWAP1 PUSH2 0xBD0 JUMP JUMPDEST PUSH1 0x40 MLOAD DUP1 SWAP2 SUB SWAP1 REVERT JUMPDEST PUSH1 0x0 PUSH2 0x324 DUP3 PUSH2 0x6A0 JUMP JUMPDEST SWAP1 POP PUSH1 0x0 DUP2 GT PUSH2 0x369 JUMPI PUSH1 0x40 MLOAD PUSH32 0x8C379A000000000000000000000000000000000000000000000000000000000 DUP2 MSTORE PUSH1 0x4 ADD PUSH2 0x360 SWAP1 PUSH2 0xC3C JUMP JUMPDEST PUSH1 0x40 MLOAD DUP1 SWAP2 SUB SWAP1 REVERT JUMPDEST DUP1 PUSH1 0x5 PUSH1 0x0 DUP5 PUSH20 0xFFFFFFFFFFFFFFFFFFFFFFFFFFFFFFFFFFFFFFFF AND PUSH20 0xFFFFFFFFFFFFFFFFFFFFFFFFFFFFFFFFFFFFFFFF AND DUP2 MSTORE PUSH1 0x20 ADD SWAP1 DUP2 MSTORE PUSH1 0x20 ADD PUSH1 0x0 KECCAK256 PUSH1 0x0 DUP3 DUP3 SLOAD PUSH2 0x3B8 SWAP2 SWAP1 PUSH2 0xC8B JUMP JUMPDEST SWAP3 POP POP DUP2 SWAP1 SSTORE POP PUSH1 0x8 PUSH1 0x0 SWAP1 SLOAD SWAP1 PUSH2 0x100 EXP SWAP1 DIV PUSH20 0xFFFFFFFFFFFFFFFFFFFFFFFFFFFFFFFFFFFFFFFF AND PUSH20 0xFFFFFFFFFFFFFFFFFFFFFFFFFFFFFFFFFFFFFFFF AND PUSH4 0xA9059CBB DUP4 DUP4 PUSH1 0x40 MLOAD DUP4 PUSH4 0xFFFFFFFF AND PUSH1 0xE0 SHL DUP2 MSTORE PUSH1 0x4 ADD PUSH2 0x41C SWAP3 SWAP2 SWAP1 PUSH2 0xCBF JUMP JUMPDEST PUSH1 0x20 PUSH1 0x40 MLOAD DUP1 DUP4 SUB DUP2 PUSH1 0x0 DUP8 GAS CALL ISZERO DUP1 ISZERO PUSH2 0x43B JUMPI RETURNDATASIZE PUSH1 0x0 DUP1 RETURNDATACOPY RETURNDATASIZE PUSH1 0x0 REVERT JUMPDEST POP POP POP POP PUSH1 0x40 MLOAD RETURNDATASIZE PUSH1 0x1F NOT PUSH1 0x1F DUP3 ADD AND DUP3 ADD DUP1 PUSH1 0x40 MSTORE POP DUP2 ADD SWAP1 PUSH2 0x45F SWAP2 SWAP1 PUSH2 0xD20 JUMP JUMPDEST PUSH2 0x49E JUMPI PUSH1 0x40 MLOAD PUSH32 0x8C379A000000000000000000000000000000000000000000000000000000000 DUP2 MSTORE PUSH1 0x4 ADD PUSH2 0x495 SWAP1 PUSH2 0xD99 JUMP JUMPDEST PUSH1 0x40 MLOAD DUP1 SWAP2 SUB SWAP1 REVERT JUMPDEST POP POP JUMP JUMPDEST PUSH1 0x7 PUSH1 0x0 SWAP1 SLOAD SWAP1 PUSH2 0x100 EXP SWAP1 DIV PUSH20 0xFFFFFFFFFFFFFFFFFFFFFFFFFFFFFFFFFFFFFFFF AND PUSH20 0xFFFFFFFFFFFFFFFFFFFFFFFFFFFFFFFFFFFFFFFF AND CALLER PUSH20 0xFFFFFFFFFFFFFFFFFFFFFFFFFFFFFFFFFFFFFFFF AND EQ PUSH2 0x532 JUMPI PUSH1 0x40 MLOAD PUSH32 0x8C379A000000000000000000000000000000000000000000000000000000000 DUP2 MSTORE PUSH1 0x4 ADD PUSH2 0x529 SWAP1 PUSH2 0xE05 JUMP JUMPDEST PUSH1 0x40 MLOAD DUP1 SWAP2 SUB SWAP1 REVERT JUMPDEST PUSH1 0x8 PUSH1 0x0 SWAP1 SLOAD SWAP1 PUSH2 0x100 EXP SWAP1 DIV PUSH20 0xFFFFFFFFFFFFFFFFFFFFFFFFFFFFFFFFFFFFFFFF AND PUSH20 0xFFFFFFFFFFFFFFFFFFFFFFFFFFFFFFFFFFFFFFFF AND PUSH4 0x23B872DD DUP8 ADDRESS DUP9 PUSH1 0x40 MLOAD DUP5 PUSH4 0xFFFFFFFF AND PUSH1 0xE0 SHL DUP2 MSTORE PUSH1 0x4 ADD PUSH2 0x591 SWAP4 SWAP3 SWAP2 SWAP1 PUSH2 0xE25 JUMP JUMPDEST PUSH1 0x20 PUSH1 0x40 MLOAD DUP1 DUP4 SUB DUP2 PUSH1 0x0 DUP8 GAS CALL ISZERO DUP1 ISZERO PUSH2 0x5B0 JUMPI RETURNDATASIZE PUSH1 0x0 DUP1 RETURNDATACOPY RETURNDATASIZE PUSH1 0x0 REVERT JUMPDEST POP POP POP POP PUSH1 0x40 MLOAD RETURNDATASIZE PUSH1 0x1F NOT PUSH1 0x1F DUP3 ADD AND DUP3 ADD DUP1 PUSH1 0x40 MSTORE POP DUP2 ADD SWAP1 PUSH2 0x5D4 SWAP2 SWAP1 PUSH2 0xD20 JUMP JUMPDEST POP DUP4 PUSH1 0x0 DUP2 SWAP1 SSTORE POP DUP3 PUSH1 0x2 DUP2 SWAP1 SSTORE POP DUP2 PUSH1 0x1 DUP2 SWAP1 SSTORE POP DUP1 PUSH1 0x3 DUP2 SWAP1 SSTORE POP DUP5 PUSH1 0x4 PUSH1 0x0 DUP9 PUSH20 0xFFFFFFFFFFFFFFFFFFFFFFFFFFFFFFFFFFFFFFFF AND PUSH20 0xFFFFFFFFFFFFFFFFFFFFFFFFFFFFFFFFFFFFFFFF AND DUP2 MSTORE PUSH1 0x20 ADD SWAP1 DUP2 MSTORE PUSH1 0x20 ADD PUSH1 0x0 KECCAK256 DUP2 SWAP1 SSTORE POP PUSH1 0x6 DUP7 SWAP1 DUP1 PUSH1 0x1 DUP2 SLOAD ADD DUP1 DUP3 SSTORE DUP1 SWAP2 POP POP PUSH1 0x1 SWAP1 SUB SWAP1 PUSH1 0x0 MSTORE PUSH1 0x20 PUSH1 0x0 KECCAK256 ADD PUSH1 0x0 SWAP1 SWAP2 SWAP1 SWAP2 SWAP1 SWAP2 PUSH2 0x100 EXP DUP2 SLOAD DUP2 PUSH20 0xFFFFFFFFFFFFFFFFFFFFFFFFFFFFFFFFFFFFFFFF MUL NOT AND SWAP1 DUP4 PUSH20 0xFFFFFFFFFFFFFFFFFFFFFFFFFFFFFFFFFFFFFFFF AND MUL OR SWAP1 SSTORE POP POP POP POP POP POP POP JUMP JUMPDEST PUSH1 0x0 PUSH1 0x1 SLOAD PUSH1 0x3 SLOAD PUSH2 0x6B2 SWAP2 SWAP1 PUSH2 0xC8B JUMP JUMPDEST TIMESTAMP LT ISZERO PUSH2 0x6C2 JUMPI PUSH1 0x0 SWAP1 POP PUSH2 0x84B JUMP JUMPDEST PUSH1 0x2 SLOAD PUSH1 0x3 SLOAD PUSH2 0x6D2 SWAP2 SWAP1 PUSH2 0xC8B JUMP JUMPDEST TIMESTAMP LT PUSH2 0x769 JUMPI PUSH1 0x5 PUSH1 0x0 DUP4 PUSH20 0xFFFFFFFFFFFFFFFFFFFFFFFFFFFFFFFFFFFFFFFF AND PUSH20 0xFFFFFFFFFFFFFFFFFFFFFFFFFFFFFFFFFFFFFFFF AND DUP2 MSTORE PUSH1 0x20 ADD SWAP1 DUP2 MSTORE PUSH1 0x20 ADD PUSH1 0x0 KECCAK256 SLOAD PUSH1 0x4 PUSH1 0x0 DUP5 PUSH20 0xFFFFFFFFFFFFFFFFFFFFFFFFFFFFFFFFFFFFFFFF AND PUSH20 0xFFFFFFFFFFFFFFFFFFFFFFFFFFFFFFFFFFFFFFFF AND DUP2 MSTORE PUSH1 0x20 ADD SWAP1 DUP2 MSTORE PUSH1 0x20 ADD PUSH1 0x0 KECCAK256 SLOAD PUSH2 0x762 SWAP2 SWAP1 PUSH2 0xE5C JUMP JUMPDEST SWAP1 POP PUSH2 0x84B JUMP JUMPDEST PUSH1 0x0 PUSH1 0x3 SLOAD TIMESTAMP PUSH2 0x779 SWAP2 SWAP1 PUSH2 0xE5C JUMP JUMPDEST SWAP1 POP PUSH1 0x0 DUP1 SLOAD PUSH1 0x2 SLOAD PUSH2 0x78C SWAP2 SWAP1 PUSH2 0xEBF JUMP JUMPDEST SWAP1 POP PUSH1 0x0 DUP1 SLOAD DUP4 PUSH2 0x79D SWAP2 SWAP1 PUSH2 0xEBF JUMP JUMPDEST SWAP1 POP PUSH1 0x0 DUP3 DUP3 PUSH1 0x4 PUSH1 0x0 DUP10 PUSH20 0xFFFFFFFFFFFFFFFFFFFFFFFFFFFFFFFFFFFFFFFF AND PUSH20 0xFFFFFFFFFFFFFFFFFFFFFFFFFFFFFFFFFFFFFFFF AND DUP2 MSTORE PUSH1 0x20 ADD SWAP1 DUP2 MSTORE PUSH1 0x20 ADD PUSH1 0x0 KECCAK256 SLOAD PUSH2 0x7ED SWAP2 SWAP1 PUSH2 0xEF0 JUMP JUMPDEST PUSH2 0x7F7 SWAP2 SWAP1 PUSH2 0xEBF JUMP JUMPDEST SWAP1 POP PUSH1 0x5 PUSH1 0x0 DUP8 PUSH20 0xFFFFFFFFFFFFFFFFFFFFFFFFFFFFFFFFFFFFFFFF AND PUSH20 0xFFFFFFFFFFFFFFFFFFFFFFFFFFFFFFFFFFFFFFFF AND DUP2 MSTORE PUSH1 0x20 ADD SWAP1 DUP2 MSTORE PUSH1 0x20 ADD PUSH1 0x0 KECCAK256 SLOAD DUP2 PUSH2 0x844 SWAP2 SWAP1 PUSH2 0xE5C JUMP JUMPDEST SWAP5 POP POP POP POP POP JUMPDEST SWAP2 SWAP1 POP JUMP JUMPDEST PUSH1 0x0 SLOAD DUP2 JUMP JUMPDEST PUSH1 0x6 DUP2 DUP2 SLOAD DUP2 LT PUSH2 0x866 JUMPI PUSH1 0x0 DUP1 REVERT JUMPDEST SWAP1 PUSH1 0x0 MSTORE PUSH1 0x20 PUSH1 0x0 KECCAK256 ADD PUSH1 0x0 SWAP2 POP SLOAD SWAP1 PUSH2 0x100 EXP SWAP1 DIV PUSH20 0xFFFFFFFFFFFFFFFFFFFFFFFFFFFFFFFFFFFFFFFF AND DUP2 JUMP JUMPDEST PUSH1 0x3 SLOAD DUP2 JUMP JUMPDEST PUSH1 0x5 PUSH1 0x20 MSTORE DUP1 PUSH1 0x0 MSTORE PUSH1 0x40 PUSH1 0x0 KECCAK256 PUSH1 0x0 SWAP2 POP SWAP1 POP SLOAD DUP2 JUMP JUMPDEST PUSH1 0x7 PUSH1 0x0 SWAP1 SLOAD SWAP1 PUSH2 0x100 EXP SWAP1 DIV PUSH20 0xFFFFFFFFFFFFFFFFFFFFFFFFFFFFFFFFFFFFFFFF AND DUP2 JUMP JUMPDEST PUSH1 0x8 PUSH1 0x0 SWAP1 SLOAD SWAP1 PUSH2 0x100 EXP SWAP1 DIV PUSH20 0xFFFFFFFFFFFFFFFFFFFFFFFFFFFFFFFFFFFFFFFF AND DUP2 JUMP JUMPDEST PUSH1 0x0 DUP1 REVERT JUMPDEST PUSH1 0x0 PUSH20 0xFFFFFFFFFFFFFFFFFFFFFFFFFFFFFFFFFFFFFFFF DUP3 AND SWAP1 POP SWAP2 SWAP1 POP JUMP JUMPDEST PUSH1 0x0 PUSH2 0x92F DUP3 PUSH2 0x904 JUMP JUMPDEST SWAP1 POP SWAP2 SWAP1 POP JUMP JUMPDEST PUSH2 0x93F DUP2 PUSH2 0x924 JUMP JUMPDEST DUP2 EQ PUSH2 0x94A JUMPI PUSH1 0x0 DUP1 REVERT JUMPDEST POP JUMP JUMPDEST PUSH1 0x0 DUP2 CALLDATALOAD SWAP1 POP PUSH2 0x95C DUP2 PUSH2 0x936 JUMP JUMPDEST SWAP3 SWAP2 POP POP JUMP JUMPDEST PUSH1 0x0 PUSH1 0x20 DUP3 DUP5 SUB SLT ISZERO PUSH2 0x978 JUMPI PUSH2 0x977 PUSH2 0x8FF JUMP JUMPDEST JUMPDEST PUSH1 0x0 PUSH2 0x986 DUP5 DUP3 DUP6 ADD PUSH2 0x94D JUMP JUMPDEST SWAP2 POP POP SWAP3 SWAP2 POP POP JUMP JUMPDEST PUSH1 0x0 DUP2 SWAP1 POP SWAP2 SWAP1 POP JUMP JUMPDEST PUSH2 0x9A2 DUP2 PUSH2 0x98F JUMP JUMPDEST DUP3 MSTORE POP POP JUMP JUMPDEST PUSH1 0x0 PUSH1 0x20 DUP3 ADD SWAP1 POP PUSH2 0x9BD PUSH1 0x0 DUP4 ADD DUP5 PUSH2 0x999 JUMP JUMPDEST SWAP3 SWAP2 POP POP JUMP JUMPDEST PUSH2 0x9CC DUP2 PUSH2 0x98F JUMP JUMPDEST DUP2 EQ PUSH2 0x9D7 JUMPI PUSH1 0x0 DUP1 REVERT JUMPDEST POP JUMP JUMPDEST PUSH1 0x0 DUP2 CALLDATALOAD SWAP1 POP PUSH2 0x9E9 DUP2 PUSH2 0x9C3 JUMP JUMPDEST SWAP3 SWAP2 POP POP JUMP JUMPDEST PUSH1 0x0 DUP1 PUSH1 0x0 DUP1 PUSH1 0x0 DUP1 PUSH1 0xC0 DUP8 DUP10 SUB SLT ISZERO PUSH2 0xA0C JUMPI PUSH2 0xA0B PUSH2 0x8FF JUMP JUMPDEST JUMPDEST PUSH1 0x0 PUSH2 0xA1A DUP10 DUP3 DUP11 ADD PUSH2 0x94D JUMP JUMPDEST SWAP7 POP POP PUSH1 0x20 PUSH2 0xA2B DUP10 DUP3 DUP11 ADD PUSH2 0x9DA JUMP JUMPDEST SWAP6 POP POP PUSH1 0x40 PUSH2 0xA3C DUP10 DUP3 DUP11 ADD PUSH2 0x9DA JUMP JUMPDEST SWAP5 POP POP PUSH1 0x60 PUSH2 0xA4D DUP10 DUP3 DUP11 ADD PUSH2 0x9DA JUMP JUMPDEST SWAP4 POP POP PUSH1 0x80 PUSH2 0xA5E DUP10 DUP3 DUP11 ADD PUSH2 0x9DA JUMP JUMPDEST SWAP3 POP POP PUSH1 0xA0 PUSH2 0xA6F DUP10 DUP3 DUP11 ADD PUSH2 0x9DA JUMP JUMPDEST SWAP2 POP POP SWAP3 SWAP6 POP SWAP3 SWAP6 POP SWAP3 SWAP6 JUMP JUMPDEST PUSH1 0x0 PUSH1 0x20 DUP3 DUP5 SUB SLT ISZERO PUSH2 0xA92 JUMPI PUSH2 0xA91 PUSH2 0x8FF JUMP JUMPDEST JUMPDEST PUSH1 0x0 PUSH2 0xAA0 DUP5 DUP3 DUP6 ADD PUSH2 0x9DA JUMP JUMPDEST SWAP2 POP POP SWAP3 SWAP2 POP POP JUMP JUMPDEST PUSH2 0xAB2 DUP2 PUSH2 0x924 JUMP JUMPDEST DUP3 MSTORE POP POP JUMP JUMPDEST PUSH1 0x0 PUSH1 0x20 DUP3 ADD SWAP1 POP PUSH2 0xACD PUSH1 0x0 DUP4 ADD DUP5 PUSH2 0xAA9 JUMP JUMPDEST SWAP3 SWAP2 POP POP JUMP JUMPDEST PUSH1 0x0 DUP2 SWAP1 POP SWAP2 SWAP1 POP JUMP JUMPDEST PUSH1 0x0 PUSH2 0xAF8 PUSH2 0xAF3 PUSH2 0xAEE DUP5 PUSH2 0x904 JUMP JUMPDEST PUSH2 0xAD3 JUMP JUMPDEST PUSH2 0x904 JUMP JUMPDEST SWAP1 POP SWAP2 SWAP1 POP JUMP JUMPDEST PUSH1 0x0 PUSH2 0xB0A DUP3 PUSH2 0xADD JUMP JUMPDEST SWAP1 POP SWAP2 SWAP1 POP JUMP JUMPDEST PUSH1 0x0 PUSH2 0xB1C DUP3 PUSH2 0xAFF JUMP JUMPDEST SWAP1 POP SWAP2 SWAP1 POP JUMP JUMPDEST PUSH2 0xB2C DUP2 PUSH2 0xB11 JUMP JUMPDEST DUP3 MSTORE POP POP JUMP JUMPDEST PUSH1 0x0 PUSH1 0x20 DUP3 ADD SWAP1 POP PUSH2 0xB47 PUSH1 0x0 DUP4 ADD DUP5 PUSH2 0xB23 JUMP JUMPDEST SWAP3 SWAP2 POP POP JUMP JUMPDEST PUSH1 0x0 DUP3 DUP3 MSTORE PUSH1 0x20 DUP3 ADD SWAP1 POP SWAP3 SWAP2 POP POP JUMP JUMPDEST PUSH32 0x4F6E6C7920746865206F776E65722063616E2072656C6561736520746F6B656E PUSH1 0x0 DUP3 ADD MSTORE PUSH32 0x7300000000000000000000000000000000000000000000000000000000000000 PUSH1 0x20 DUP3 ADD MSTORE POP JUMP JUMPDEST PUSH1 0x0 PUSH2 0xBBA PUSH1 0x21 DUP4 PUSH2 0xB4D JUMP JUMPDEST SWAP2 POP PUSH2 0xBC5 DUP3 PUSH2 0xB5E JUMP JUMPDEST PUSH1 0x40 DUP3 ADD SWAP1 POP SWAP2 SWAP1 POP JUMP JUMPDEST PUSH1 0x0 PUSH1 0x20 DUP3 ADD SWAP1 POP DUP2 DUP2 SUB PUSH1 0x0 DUP4 ADD MSTORE PUSH2 0xBE9 DUP2 PUSH2 0xBAD JUMP JUMPDEST SWAP1 POP SWAP2 SWAP1 POP JUMP JUMPDEST PUSH32 0x4E6F20746F6B656E7320746F2072656C65617365000000000000000000000000 PUSH1 0x0 DUP3 ADD MSTORE POP JUMP JUMPDEST PUSH1 0x0 PUSH2 0xC26 PUSH1 0x14 DUP4 PUSH2 0xB4D JUMP JUMPDEST SWAP2 POP PUSH2 0xC31 DUP3 PUSH2 0xBF0 JUMP JUMPDEST PUSH1 0x20 DUP3 ADD SWAP1 POP SWAP2 SWAP1 POP JUMP JUMPDEST PUSH1 0x0 PUSH1 0x20 DUP3 ADD SWAP1 POP DUP2 DUP2 SUB PUSH1 0x0 DUP4 ADD MSTORE PUSH2 0xC55 DUP2 PUSH2 0xC19 JUMP JUMPDEST SWAP1 POP SWAP2 SWAP1 POP JUMP JUMPDEST PUSH32 0x4E487B7100000000000000000000000000000000000000000000000000000000 PUSH1 0x0 MSTORE PUSH1 0x11 PUSH1 0x4 MSTORE PUSH1 0x24 PUSH1 0x0 REVERT JUMPDEST PUSH1 0x0 PUSH2 0xC96 DUP3 PUSH2 0x98F JUMP JUMPDEST SWAP2 POP PUSH2 0xCA1 DUP4 PUSH2 0x98F JUMP JUMPDEST SWAP3 POP DUP3 DUP3 ADD SWAP1 POP DUP1 DUP3 GT ISZERO PUSH2 0xCB9 JUMPI PUSH2 0xCB8 PUSH2 0xC5C JUMP JUMPDEST JUMPDEST SWAP3 SWAP2 POP POP JUMP JUMPDEST PUSH1 0x0 PUSH1 0x40 DUP3 ADD SWAP1 POP PUSH2 0xCD4 PUSH1 0x0 DUP4 ADD DUP6 PUSH2 0xAA9 JUMP JUMPDEST PUSH2 0xCE1 PUSH1 0x20 DUP4 ADD DUP5 PUSH2 0x999 JUMP JUMPDEST SWAP4 SWAP3 POP POP POP JUMP JUMPDEST PUSH1 0x0 DUP2 ISZERO ISZERO SWAP1 POP SWAP2 SWAP1 POP JUMP JUMPDEST PUSH2 0xCFD DUP2 PUSH2 0xCE8 JUMP JUMPDEST DUP2 EQ PUSH2 0xD08 JUMPI PUSH1 0x0 DUP1 REVERT JUMPDEST POP JUMP JUMPDEST PUSH1 0x0 DUP2 MLOAD SWAP1 POP PUSH2 0xD1A DUP2 PUSH2 0xCF4 JUMP JUMPDEST SWAP3 SWAP2 POP POP JUMP JUMPDEST PUSH1 0x0 PUSH1 0x20 DUP3 DUP5 SUB SLT ISZERO PUSH2 0xD36 JUMPI PUSH2 0xD35 PUSH2 0x8FF JUMP JUMPDEST JUMPDEST PUSH1 0x0 PUSH2 0xD44 DUP5 DUP3 DUP6 ADD PUSH2 0xD0B JUMP JUMPDEST SWAP2 POP POP SWAP3 SWAP2 POP POP JUMP JUMPDEST PUSH32 0x5472616E73666572206661696C65640000000000000000000000000000000000 PUSH1 0x0 DUP3 ADD MSTORE POP JUMP JUMPDEST PUSH1 0x0 PUSH2 0xD83 PUSH1 0xF DUP4 PUSH2 0xB4D JUMP JUMPDEST SWAP2 POP PUSH2 0xD8E DUP3 PUSH2 0xD4D JUMP JUMPDEST PUSH1 0x20 DUP3 ADD SWAP1 POP SWAP2 SWAP1 POP JUMP JUMPDEST PUSH1 0x0 PUSH1 0x20 DUP3 ADD SWAP1 POP DUP2 DUP2 SUB PUSH1 0x0 DUP4 ADD MSTORE PUSH2 0xDB2 DUP2 PUSH2 0xD76 JUMP JUMPDEST SWAP1 POP SWAP2 SWAP1 POP JUMP JUMPDEST PUSH32 0x4F6E6C7920746865206F776E65722063616E206C6F636B20746F6B656E730000 PUSH1 0x0 DUP3 ADD MSTORE POP JUMP JUMPDEST PUSH1 0x0 PUSH2 0xDEF PUSH1 0x1E DUP4 PUSH2 0xB4D JUMP JUMPDEST SWAP2 POP PUSH2 0xDFA DUP3 PUSH2 0xDB9 JUMP JUMPDEST PUSH1 0x20 DUP3 ADD SWAP1 POP SWAP2 SWAP1 POP JUMP JUMPDEST PUSH1 0x0 PUSH1 0x20 DUP3 ADD SWAP1 POP DUP2 DUP2 SUB PUSH1 0x0 DUP4 ADD MSTORE PUSH2 0xE1E DUP2 PUSH2 0xDE2 JUMP JUMPDEST SWAP1 POP SWAP2 SWAP1 POP JUMP JUMPDEST PUSH1 0x0 PUSH1 0x60 DUP3 ADD SWAP1 POP PUSH2 0xE3A PUSH1 0x0 DUP4 ADD DUP7 PUSH2 0xAA9 JUMP JUMPDEST PUSH2 0xE47 PUSH1 0x20 DUP4 ADD DUP6 PUSH2 0xAA9 JUMP JUMPDEST PUSH2 0xE54 PUSH1 0x40 DUP4 ADD DUP5 PUSH2 0x999 JUMP JUMPDEST SWAP5 SWAP4 POP POP POP POP JUMP JUMPDEST PUSH1 0x0 PUSH2 0xE67 DUP3 PUSH2 0x98F JUMP JUMPDEST SWAP2 POP PUSH2 0xE72 DUP4 PUSH2 0x98F JUMP JUMPDEST SWAP3 POP DUP3 DUP3 SUB SWAP1 POP DUP2 DUP2 GT ISZERO PUSH2 0xE8A JUMPI PUSH2 0xE89 PUSH2 0xC5C JUMP JUMPDEST JUMPDEST SWAP3 SWAP2 POP POP JUMP JUMPDEST PUSH32 0x4E487B7100000000000000000000000000000000000000000000000000000000 PUSH1 0x0 MSTORE PUSH1 0x12 PUSH1 0x4 MSTORE PUSH1 0x24 PUSH1 0x0 REVERT JUMPDEST PUSH1 0x0 PUSH2 0xECA DUP3 PUSH2 0x98F JUMP JUMPDEST SWAP2 POP PUSH2 0xED5 DUP4 PUSH2 0x98F JUMP JUMPDEST SWAP3 POP DUP3 PUSH2 0xEE5 JUMPI PUSH2 0xEE4 PUSH2 0xE90 JUMP JUMPDEST JUMPDEST DUP3 DUP3 DIV SWAP1 POP SWAP3 SWAP2 POP POP JUMP JUMPDEST PUSH1 0x0 PUSH2 0xEFB DUP3 PUSH2 0x98F JUMP JUMPDEST SWAP2 POP PUSH2 0xF06 DUP4 PUSH2 0x98F JUMP JUMPDEST SWAP3 POP DUP3 DUP3 MUL PUSH2 0xF14 DUP2 PUSH2 0x98F JUMP JUMPDEST SWAP2 POP DUP3 DUP3 DIV DUP5 EQ DUP4 ISZERO OR PUSH2 0xF2B JUMPI PUSH2 0xF2A PUSH2 0xC5C JUMP JUMPDEST JUMPDEST POP SWAP3 SWAP2 POP POP JUMP INVALID LOG2 PUSH5 0x6970667358 0x22 SLT KECCAK256 ADD SLT SWAP5 EXTCODESIZE 0x1F 0xF9 CALLVALUE 0xDC SIGNEXTEND DUP15 DUP12 PUSH4 0x200E2A6B 0x4D PC PUSH10 0x67729C96AA8DF252A51E 0xA5 0xAB SMOD PUSH5 0x736F6C6343 STOP ADDMOD SLT STOP CALLER "
				},
				"gasEstimates": {
					"creation": {
						"codeDepositCost": "788800",
						"executionCost": "infinite",
						"totalCost": "infinite"
					},
					"external": {
						"beneficiaries(address)": "2815",
						"beneficiariesList(uint256)": "4978",
						"cliff()": "2474",
						"duration()": "2452",
						"getVestedTokens(address)": "infinite",
						"lockTokens(address,uint256,uint256,uint256,uint256,uint256)": "infinite",
						"noOfvestedTokens(address)": "2880",
						"owner()": "2602",
						"release(address)": "infinite",
						"slicePeriod()": "2429",
						"startTime()": "2473",
						"token()": "infinite"
					}
				},
				"methodIdentifiers": {
					"beneficiaries(address)": "01567739",
					"beneficiariesList(uint256)": "5f1fa8c0",
					"cliff()": "13d033c0",
					"duration()": "0fb5a6b4",
					"getVestedTokens(address)": "58db00f7",
					"lockTokens(address,uint256,uint256,uint256,uint256,uint256)": "29d3b0d3",
					"noOfvestedTokens(address)": "891d6760",
					"owner()": "8da5cb5b",
					"release(address)": "19165587",
					"slicePeriod()": "5afd6eb8",
					"startTime()": "78e97925",
					"token()": "fc0c546a"
				}
			},
			"storageLayout": {
				"storage": [
					{
						"astId": 82,
						"contract": "contracts/vesting.sol:Vesting",
						"label": "slicePeriod",
						"offset": 0,
						"slot": "0",
						"type": "t_uint256"
					},
					{
						"astId": 84,
						"contract": "contracts/vesting.sol:Vesting",
						"label": "cliff",
						"offset": 0,
						"slot": "1",
						"type": "t_uint256"
					},
					{
						"astId": 86,
						"contract": "contracts/vesting.sol:Vesting",
						"label": "duration",
						"offset": 0,
						"slot": "2",
						"type": "t_uint256"
					},
					{
						"astId": 88,
						"contract": "contracts/vesting.sol:Vesting",
						"label": "startTime",
						"offset": 0,
						"slot": "3",
						"type": "t_uint256"
					},
					{
						"astId": 92,
						"contract": "contracts/vesting.sol:Vesting",
						"label": "beneficiaries",
						"offset": 0,
						"slot": "4",
						"type": "t_mapping(t_address,t_uint256)"
					},
					{
						"astId": 96,
						"contract": "contracts/vesting.sol:Vesting",
						"label": "noOfvestedTokens",
						"offset": 0,
						"slot": "5",
						"type": "t_mapping(t_address,t_uint256)"
					},
					{
						"astId": 99,
						"contract": "contracts/vesting.sol:Vesting",
						"label": "beneficiariesList",
						"offset": 0,
						"slot": "6",
						"type": "t_array(t_address)dyn_storage"
					},
					{
						"astId": 101,
						"contract": "contracts/vesting.sol:Vesting",
						"label": "owner",
						"offset": 0,
						"slot": "7",
						"type": "t_address"
					},
					{
						"astId": 104,
						"contract": "contracts/vesting.sol:Vesting",
						"label": "token",
						"offset": 0,
						"slot": "8",
						"type": "t_contract(IERC20)77"
					}
				],
				"types": {
					"t_address": {
						"encoding": "inplace",
						"label": "address",
						"numberOfBytes": "20"
					},
					"t_array(t_address)dyn_storage": {
						"base": "t_address",
						"encoding": "dynamic_array",
						"label": "address[]",
						"numberOfBytes": "32"
					},
					"t_contract(IERC20)77": {
						"encoding": "inplace",
						"label": "contract IERC20",
						"numberOfBytes": "20"
					},
					"t_mapping(t_address,t_uint256)": {
						"encoding": "mapping",
						"key": "t_address",
						"label": "mapping(address => uint256)",
						"numberOfBytes": "32",
						"value": "t_uint256"
					},
					"t_uint256": {
						"encoding": "inplace",
						"label": "uint256",
						"numberOfBytes": "32"
					}
				}
			},
			"userdoc": {
				"kind": "user",
				"methods": {},
				"version": 1
			}
		}
	}
}