{
	"contracts/TokenVesting.sol": {
		"TokenVesting": {
			"abi": [
				{
					"inputs": [
						{
							"internalType": "contract IERC20",
							"name": "_token",
							"type": "address"
						},
						{
							"internalType": "uint256",
							"name": "_cliff",
							"type": "uint256"
						},
						{
							"internalType": "uint256",
							"name": "_duration",
							"type": "uint256"
						},
						{
							"internalType": "uint256",
							"name": "_slicePeriod",
							"type": "uint256"
						}
					],
					"stateMutability": "nonpayable",
					"type": "constructor"
				},
				{
					"anonymous": false,
					"inputs": [
						{
							"indexed": false,
							"internalType": "address",
							"name": "beneficiary",
							"type": "address"
						},
						{
							"indexed": false,
							"internalType": "string",
							"name": "message",
							"type": "string"
						}
					],
					"name": "AddBeneficiaryEvent",
					"type": "event"
				},
				{
					"anonymous": false,
					"inputs": [
						{
							"indexed": false,
							"internalType": "address",
							"name": "beneficiary",
							"type": "address"
						},
						{
							"indexed": false,
							"internalType": "string",
							"name": "message",
							"type": "string"
						}
					],
					"name": "LockTokensEvent",
					"type": "event"
				},
				{
					"anonymous": false,
					"inputs": [
						{
							"indexed": false,
							"internalType": "address",
							"name": "beneficiary",
							"type": "address"
						},
						{
							"indexed": false,
							"internalType": "string",
							"name": "message",
							"type": "string"
						}
					],
					"name": "ReleaseTokensEvent",
					"type": "event"
				},
				{
					"inputs": [
						{
							"internalType": "address",
							"name": "_beneficiary",
							"type": "address"
						},
						{
							"internalType": "uint256",
							"name": "tokensToLock",
							"type": "uint256"
						}
					],
					"name": "addBeneficiary",
					"outputs": [],
					"stateMutability": "nonpayable",
					"type": "function"
				},
				{
					"inputs": [],
					"name": "cliff",
					"outputs": [
						{
							"internalType": "uint256",
							"name": "",
							"type": "uint256"
						}
					],
					"stateMutability": "view",
					"type": "function"
				},
				{
					"inputs": [],
					"name": "duration",
					"outputs": [
						{
							"internalType": "uint256",
							"name": "",
							"type": "uint256"
						}
					],
					"stateMutability": "view",
					"type": "function"
				},
				{
					"inputs": [
						{
							"internalType": "address",
							"name": "_beneficiary",
							"type": "address"
						},
						{
							"internalType": "uint256",
							"name": "tokensAmount",
							"type": "uint256"
						}
					],
					"name": "lockTokens",
					"outputs": [],
					"stateMutability": "nonpayable",
					"type": "function"
				},
				{
					"inputs": [
						{
							"internalType": "address",
							"name": "_beneficiary",
							"type": "address"
						}
					],
					"name": "releasableTokens",
					"outputs": [
						{
							"internalType": "uint256",
							"name": "",
							"type": "uint256"
						}
					],
					"stateMutability": "view",
					"type": "function"
				},
				{
					"inputs": [
						{
							"internalType": "address",
							"name": "_beneficiary",
							"type": "address"
						}
					],
					"name": "releaseTokens",
					"outputs": [],
					"stateMutability": "nonpayable",
					"type": "function"
				},
				{
					"inputs": [
						{
							"internalType": "address",
							"name": "",
							"type": "address"
						}
					],
					"name": "releasedTokens",
					"outputs": [
						{
							"internalType": "uint256",
							"name": "",
							"type": "uint256"
						}
					],
					"stateMutability": "view",
					"type": "function"
				},
				{
					"inputs": [],
					"name": "slicePeriod",
					"outputs": [
						{
							"internalType": "uint256",
							"name": "",
							"type": "uint256"
						}
					],
					"stateMutability": "view",
					"type": "function"
				},
				{
					"inputs": [],
					"name": "startTime",
					"outputs": [
						{
							"internalType": "uint256",
							"name": "",
							"type": "uint256"
						}
					],
					"stateMutability": "view",
					"type": "function"
				},
				{
					"inputs": [],
					"name": "token",
					"outputs": [
						{
							"internalType": "contract IERC20",
							"name": "",
							"type": "address"
						}
					],
					"stateMutability": "view",
					"type": "function"
				},
				{
					"inputs": [
						{
							"internalType": "address",
							"name": "",
							"type": "address"
						}
					],
					"name": "totalTokens",
					"outputs": [
						{
							"internalType": "uint256",
							"name": "",
							"type": "uint256"
						}
					],
					"stateMutability": "view",
					"type": "function"
				}
			],
			"devdoc": {
				"kind": "dev",
				"methods": {},
				"version": 1
			},
			"evm": {
				"assembly": "    /* \"contracts/TokenVesting.sol\":121:3200  contract TokenVesting{... */\n  mstore(0x40, 0x80)\n    /* \"contracts/TokenVesting.sol\":460:714  constructor(IERC20 _token,uint _cliff,uint _duration,uint _slicePeriod){... */\n  callvalue\n  dup1\n  iszero\n  tag_1\n  jumpi\n  0x00\n  dup1\n  revert\ntag_1:\n  pop\n  mload(0x40)\n  sub(codesize, bytecodeSize)\n  dup1\n  bytecodeSize\n  dup4\n  codecopy\n  dup2\n  dup2\n  add\n  0x40\n  mstore\n  dup2\n  add\n  swap1\n  tag_2\n  swap2\n  swap1\n  tag_3\n  jump\t// in\ntag_2:\n    /* \"contracts/TokenVesting.sol\":548:554  _token */\n  dup4\n    /* \"contracts/TokenVesting.sol\":542:547  token */\n  0x08\n  0x00\n    /* \"contracts/TokenVesting.sol\":542:554  token=_token */\n  0x0100\n  exp\n  dup2\n  sload\n  dup2\n  0xffffffffffffffffffffffffffffffffffffffff\n  mul\n  not\n  and\n  swap1\n  dup4\n  0xffffffffffffffffffffffffffffffffffffffff\n  and\n  mul\n  or\n  swap1\n  sstore\n  pop\n    /* \"contracts/TokenVesting.sol\":574:583  _duration */\n  dup2\n    /* \"contracts/TokenVesting.sol\":565:573  duration */\n  0x00\n    /* \"contracts/TokenVesting.sol\":565:583  duration=_duration */\n  dup2\n  swap1\n  sstore\n  pop\n    /* \"contracts/TokenVesting.sol\":600:606  _cliff */\n  dup3\n    /* \"contracts/TokenVesting.sol\":594:599  cliff */\n  0x01\n    /* \"contracts/TokenVesting.sol\":594:606  cliff=_cliff */\n  dup2\n  swap1\n  sstore\n  pop\n    /* \"contracts/TokenVesting.sol\":629:641  _slicePeriod */\n  dup1\n    /* \"contracts/TokenVesting.sol\":617:628  slicePeriod */\n  0x02\n    /* \"contracts/TokenVesting.sol\":617:641  slicePeriod=_slicePeriod */\n  dup2\n  swap1\n  sstore\n  pop\n    /* \"contracts/TokenVesting.sol\":662:677  block.timestamp */\n  timestamp\n    /* \"contracts/TokenVesting.sol\":652:661  startTime */\n  0x03\n    /* \"contracts/TokenVesting.sol\":652:677  startTime=block.timestamp */\n  dup2\n  swap1\n  sstore\n  pop\n    /* \"contracts/TokenVesting.sol\":694:704  msg.sender */\n  caller\n    /* \"contracts/TokenVesting.sol\":688:693  owner */\n  0x07\n  0x00\n    /* \"contracts/TokenVesting.sol\":688:704  owner=msg.sender */\n  0x0100\n  exp\n  dup2\n  sload\n  dup2\n  0xffffffffffffffffffffffffffffffffffffffff\n  mul\n  not\n  and\n  swap1\n  dup4\n  0xffffffffffffffffffffffffffffffffffffffff\n  and\n  mul\n  or\n  swap1\n  sstore\n  pop\n    /* \"contracts/TokenVesting.sol\":460:714  constructor(IERC20 _token,uint _cliff,uint _duration,uint _slicePeriod){... */\n  pop\n  pop\n  pop\n  pop\n    /* \"contracts/TokenVesting.sol\":121:3200  contract TokenVesting{... */\n  jump(tag_6)\n    /* \"#utility.yul\":88:205   */\ntag_8:\n    /* \"#utility.yul\":197:198   */\n  0x00\n    /* \"#utility.yul\":194:195   */\n  dup1\n    /* \"#utility.yul\":187:199   */\n  revert\n    /* \"#utility.yul\":334:460   */\ntag_10:\n    /* \"#utility.yul\":371:378   */\n  0x00\n    /* \"#utility.yul\":411:453   */\n  0xffffffffffffffffffffffffffffffffffffffff\n    /* \"#utility.yul\":404:409   */\n  dup3\n    /* \"#utility.yul\":400:454   */\n  and\n    /* \"#utility.yul\":389:454   */\n  swap1\n  pop\n    /* \"#utility.yul\":334:460   */\n  swap2\n  swap1\n  pop\n  jump\t// out\n    /* \"#utility.yul\":466:562   */\ntag_11:\n    /* \"#utility.yul\":503:510   */\n  0x00\n    /* \"#utility.yul\":532:556   */\n  tag_24\n    /* \"#utility.yul\":550:555   */\n  dup3\n    /* \"#utility.yul\":532:556   */\n  tag_10\n  jump\t// in\ntag_24:\n    /* \"#utility.yul\":521:556   */\n  swap1\n  pop\n    /* \"#utility.yul\":466:562   */\n  swap2\n  swap1\n  pop\n  jump\t// out\n    /* \"#utility.yul\":568:677   */\ntag_12:\n    /* \"#utility.yul\":618:625   */\n  0x00\n    /* \"#utility.yul\":647:671   */\n  tag_26\n    /* \"#utility.yul\":665:670   */\n  dup3\n    /* \"#utility.yul\":647:671   */\n  tag_11\n  jump\t// in\ntag_26:\n    /* \"#utility.yul\":636:671   */\n  swap1\n  pop\n    /* \"#utility.yul\":568:677   */\n  swap2\n  swap1\n  pop\n  jump\t// out\n    /* \"#utility.yul\":683:831   */\ntag_13:\n    /* \"#utility.yul\":769:806   */\n  tag_28\n    /* \"#utility.yul\":800:805   */\n  dup2\n    /* \"#utility.yul\":769:806   */\n  tag_12\n  jump\t// in\ntag_28:\n    /* \"#utility.yul\":762:767   */\n  dup2\n    /* \"#utility.yul\":759:807   */\n  eq\n    /* \"#utility.yul\":749:825   */\n  tag_29\n  jumpi\n    /* \"#utility.yul\":821:822   */\n  0x00\n    /* \"#utility.yul\":818:819   */\n  dup1\n    /* \"#utility.yul\":811:823   */\n  revert\n    /* \"#utility.yul\":749:825   */\ntag_29:\n    /* \"#utility.yul\":683:831   */\n  pop\n  jump\t// out\n    /* \"#utility.yul\":837:1006   */\ntag_14:\n    /* \"#utility.yul\":907:912   */\n  0x00\n    /* \"#utility.yul\":938:944   */\n  dup2\n    /* \"#utility.yul\":932:945   */\n  mload\n    /* \"#utility.yul\":923:945   */\n  swap1\n  pop\n    /* \"#utility.yul\":954:1000   */\n  tag_31\n    /* \"#utility.yul\":994:999   */\n  dup2\n    /* \"#utility.yul\":954:1000   */\n  tag_13\n  jump\t// in\ntag_31:\n    /* \"#utility.yul\":837:1006   */\n  swap3\n  swap2\n  pop\n  pop\n  jump\t// out\n    /* \"#utility.yul\":1012:1089   */\ntag_15:\n    /* \"#utility.yul\":1049:1056   */\n  0x00\n    /* \"#utility.yul\":1078:1083   */\n  dup2\n    /* \"#utility.yul\":1067:1083   */\n  swap1\n  pop\n    /* \"#utility.yul\":1012:1089   */\n  swap2\n  swap1\n  pop\n  jump\t// out\n    /* \"#utility.yul\":1095:1217   */\ntag_16:\n    /* \"#utility.yul\":1168:1192   */\n  tag_34\n    /* \"#utility.yul\":1186:1191   */\n  dup2\n    /* \"#utility.yul\":1168:1192   */\n  tag_15\n  jump\t// in\ntag_34:\n    /* \"#utility.yul\":1161:1166   */\n  dup2\n    /* \"#utility.yul\":1158:1193   */\n  eq\n    /* \"#utility.yul\":1148:1211   */\n  tag_35\n  jumpi\n    /* \"#utility.yul\":1207:1208   */\n  0x00\n    /* \"#utility.yul\":1204:1205   */\n  dup1\n    /* \"#utility.yul\":1197:1209   */\n  revert\n    /* \"#utility.yul\":1148:1211   */\ntag_35:\n    /* \"#utility.yul\":1095:1217   */\n  pop\n  jump\t// out\n    /* \"#utility.yul\":1223:1366   */\ntag_17:\n    /* \"#utility.yul\":1280:1285   */\n  0x00\n    /* \"#utility.yul\":1311:1317   */\n  dup2\n    /* \"#utility.yul\":1305:1318   */\n  mload\n    /* \"#utility.yul\":1296:1318   */\n  swap1\n  pop\n    /* \"#utility.yul\":1327:1360   */\n  tag_37\n    /* \"#utility.yul\":1354:1359   */\n  dup2\n    /* \"#utility.yul\":1327:1360   */\n  tag_16\n  jump\t// in\ntag_37:\n    /* \"#utility.yul\":1223:1366   */\n  swap3\n  swap2\n  pop\n  pop\n  jump\t// out\n    /* \"#utility.yul\":1372:2218   */\ntag_3:\n    /* \"#utility.yul\":1482:1488   */\n  0x00\n    /* \"#utility.yul\":1490:1496   */\n  dup1\n    /* \"#utility.yul\":1498:1504   */\n  0x00\n    /* \"#utility.yul\":1506:1512   */\n  dup1\n    /* \"#utility.yul\":1555:1558   */\n  0x80\n    /* \"#utility.yul\":1543:1552   */\n  dup6\n    /* \"#utility.yul\":1534:1541   */\n  dup8\n    /* \"#utility.yul\":1530:1553   */\n  sub\n    /* \"#utility.yul\":1526:1559   */\n  slt\n    /* \"#utility.yul\":1523:1643   */\n  iszero\n  tag_39\n  jumpi\n    /* \"#utility.yul\":1562:1641   */\n  tag_40\n  tag_8\n  jump\t// in\ntag_40:\n    /* \"#utility.yul\":1523:1643   */\ntag_39:\n    /* \"#utility.yul\":1682:1683   */\n  0x00\n    /* \"#utility.yul\":1707:1784   */\n  tag_41\n    /* \"#utility.yul\":1776:1783   */\n  dup8\n    /* \"#utility.yul\":1767:1773   */\n  dup3\n    /* \"#utility.yul\":1756:1765   */\n  dup9\n    /* \"#utility.yul\":1752:1774   */\n  add\n    /* \"#utility.yul\":1707:1784   */\n  tag_14\n  jump\t// in\ntag_41:\n    /* \"#utility.yul\":1697:1784   */\n  swap5\n  pop\n    /* \"#utility.yul\":1653:1794   */\n  pop\n    /* \"#utility.yul\":1833:1835   */\n  0x20\n    /* \"#utility.yul\":1859:1923   */\n  tag_42\n    /* \"#utility.yul\":1915:1922   */\n  dup8\n    /* \"#utility.yul\":1906:1912   */\n  dup3\n    /* \"#utility.yul\":1895:1904   */\n  dup9\n    /* \"#utility.yul\":1891:1913   */\n  add\n    /* \"#utility.yul\":1859:1923   */\n  tag_17\n  jump\t// in\ntag_42:\n    /* \"#utility.yul\":1849:1923   */\n  swap4\n  pop\n    /* \"#utility.yul\":1804:1933   */\n  pop\n    /* \"#utility.yul\":1972:1974   */\n  0x40\n    /* \"#utility.yul\":1998:2062   */\n  tag_43\n    /* \"#utility.yul\":2054:2061   */\n  dup8\n    /* \"#utility.yul\":2045:2051   */\n  dup3\n    /* \"#utility.yul\":2034:2043   */\n  dup9\n    /* \"#utility.yul\":2030:2052   */\n  add\n    /* \"#utility.yul\":1998:2062   */\n  tag_17\n  jump\t// in\ntag_43:\n    /* \"#utility.yul\":1988:2062   */\n  swap3\n  pop\n    /* \"#utility.yul\":1943:2072   */\n  pop\n    /* \"#utility.yul\":2111:2113   */\n  0x60\n    /* \"#utility.yul\":2137:2201   */\n  tag_44\n    /* \"#utility.yul\":2193:2200   */\n  dup8\n    /* \"#utility.yul\":2184:2190   */\n  dup3\n    /* \"#utility.yul\":2173:2182   */\n  dup9\n    /* \"#utility.yul\":2169:2191   */\n  add\n    /* \"#utility.yul\":2137:2201   */\n  tag_17\n  jump\t// in\ntag_44:\n    /* \"#utility.yul\":2127:2201   */\n  swap2\n  pop\n    /* \"#utility.yul\":2082:2211   */\n  pop\n    /* \"#utility.yul\":1372:2218   */\n  swap3\n  swap6\n  swap2\n  swap5\n  pop\n  swap3\n  pop\n  jump\t// out\n    /* \"contracts/TokenVesting.sol\":121:3200  contract TokenVesting{... */\ntag_6:\n  dataSize(sub_0)\n  dup1\n  dataOffset(sub_0)\n  0x00\n  codecopy\n  0x00\n  return\nstop\n\nsub_0: assembly {\n        /* \"contracts/TokenVesting.sol\":121:3200  contract TokenVesting{... */\n      mstore(0x40, 0x80)\n      callvalue\n      dup1\n      iszero\n      tag_1\n      jumpi\n      0x00\n      dup1\n      revert\n    tag_1:\n      pop\n      jumpi(tag_2, lt(calldatasize, 0x04))\n      shr(0xe0, calldataload(0x00))\n      dup1\n      0x87b0be48\n      gt\n      tag_14\n      jumpi\n      dup1\n      0x87b0be48\n      eq\n      tag_8\n      jumpi\n      dup1\n      0x96074e70\n      eq\n      tag_9\n      jumpi\n      dup1\n      0xb1c25586\n      eq\n      tag_10\n      jumpi\n      dup1\n      0xc4684e9d\n      eq\n      tag_11\n      jumpi\n      dup1\n      0xcb9199a2\n      eq\n      tag_12\n      jumpi\n      dup1\n      0xfc0c546a\n      eq\n      tag_13\n      jumpi\n      jump(tag_2)\n    tag_14:\n      dup1\n      0x0fb5a6b4\n      eq\n      tag_3\n      jumpi\n      dup1\n      0x13d033c0\n      eq\n      tag_4\n      jumpi\n      dup1\n      0x5afd6eb8\n      eq\n      tag_5\n      jumpi\n      dup1\n      0x70ff852b\n      eq\n      tag_6\n      jumpi\n      dup1\n      0x78e97925\n      eq\n      tag_7\n      jumpi\n    tag_2:\n      0x00\n      dup1\n      revert\n        /* \"contracts/TokenVesting.sol\":151:171  uint public duration */\n    tag_3:\n      tag_15\n      tag_16\n      jump\t// in\n    tag_15:\n      mload(0x40)\n      tag_17\n      swap2\n      swap1\n      tag_18\n      jump\t// in\n    tag_17:\n      mload(0x40)\n      dup1\n      swap2\n      sub\n      swap1\n      return\n        /* \"contracts/TokenVesting.sol\":178:195  uint public cliff */\n    tag_4:\n      tag_19\n      tag_20\n      jump\t// in\n    tag_19:\n      mload(0x40)\n      tag_21\n      swap2\n      swap1\n      tag_18\n      jump\t// in\n    tag_21:\n      mload(0x40)\n      dup1\n      swap2\n      sub\n      swap1\n      return\n        /* \"contracts/TokenVesting.sol\":202:225  uint public slicePeriod */\n    tag_5:\n      tag_22\n      tag_23\n      jump\t// in\n    tag_22:\n      mload(0x40)\n      tag_24\n      swap2\n      swap1\n      tag_18\n      jump\t// in\n    tag_24:\n      mload(0x40)\n      dup1\n      swap2\n      sub\n      swap1\n      return\n        /* \"contracts/TokenVesting.sol\":356:405  mapping(address => uint256) public releasedTokens */\n    tag_6:\n      tag_25\n      0x04\n      dup1\n      calldatasize\n      sub\n      dup2\n      add\n      swap1\n      tag_26\n      swap2\n      swap1\n      tag_27\n      jump\t// in\n    tag_26:\n      tag_28\n      jump\t// in\n    tag_25:\n      mload(0x40)\n      tag_29\n      swap2\n      swap1\n      tag_18\n      jump\t// in\n    tag_29:\n      mload(0x40)\n      dup1\n      swap2\n      sub\n      swap1\n      return\n        /* \"contracts/TokenVesting.sol\":232:253  uint public startTime */\n    tag_7:\n      tag_30\n      tag_31\n      jump\t// in\n    tag_30:\n      mload(0x40)\n      tag_32\n      swap2\n      swap1\n      tag_18\n      jump\t// in\n    tag_32:\n      mload(0x40)\n      dup1\n      swap2\n      sub\n      swap1\n      return\n        /* \"contracts/TokenVesting.sol\":2721:3195  function releaseTokens(address _beneficiary) isBeneficiaryOrContractOwner(_beneficiary) public { ... */\n    tag_8:\n      tag_33\n      0x04\n      dup1\n      calldatasize\n      sub\n      dup2\n      add\n      swap1\n      tag_34\n      swap2\n      swap1\n      tag_27\n      jump\t// in\n    tag_34:\n      tag_35\n      jump\t// in\n    tag_33:\n      stop\n        /* \"contracts/TokenVesting.sol\":1420:1634  function addBeneficiary(address _beneficiary,uint tokensToLock) onlyOwner public {... */\n    tag_9:\n      tag_36\n      0x04\n      dup1\n      calldatasize\n      sub\n      dup2\n      add\n      swap1\n      tag_37\n      swap2\n      swap1\n      tag_38\n      jump\t// in\n    tag_37:\n      tag_39\n      jump\t// in\n    tag_36:\n      stop\n        /* \"contracts/TokenVesting.sol\":1661:1990  function lockTokens(address _beneficiary,uint tokensAmount)  public {... */\n    tag_10:\n      tag_40\n      0x04\n      dup1\n      calldatasize\n      sub\n      dup2\n      add\n      swap1\n      tag_41\n      swap2\n      swap1\n      tag_38\n      jump\t// in\n    tag_41:\n      tag_42\n      jump\t// in\n    tag_40:\n      stop\n        /* \"contracts/TokenVesting.sol\":2046:2679  function releasableTokens(address _beneficiary) public view cliffPeriodOver returns(uint) {... */\n    tag_11:\n      tag_43\n      0x04\n      dup1\n      calldatasize\n      sub\n      dup2\n      add\n      swap1\n      tag_44\n      swap2\n      swap1\n      tag_27\n      jump\t// in\n    tag_44:\n      tag_45\n      jump\t// in\n    tag_43:\n      mload(0x40)\n      tag_46\n      swap2\n      swap1\n      tag_18\n      jump\t// in\n    tag_46:\n      mload(0x40)\n      dup1\n      swap2\n      sub\n      swap1\n      return\n        /* \"contracts/TokenVesting.sol\":303:349  mapping(address => uint256) public totalTokens */\n    tag_12:\n      tag_47\n      0x04\n      dup1\n      calldatasize\n      sub\n      dup2\n      add\n      swap1\n      tag_48\n      swap2\n      swap1\n      tag_27\n      jump\t// in\n    tag_48:\n      tag_49\n      jump\t// in\n    tag_47:\n      mload(0x40)\n      tag_50\n      swap2\n      swap1\n      tag_18\n      jump\t// in\n    tag_50:\n      mload(0x40)\n      dup1\n      swap2\n      sub\n      swap1\n      return\n        /* \"contracts/TokenVesting.sol\":432:451  IERC20 public token */\n    tag_13:\n      tag_51\n      tag_52\n      jump\t// in\n    tag_51:\n      mload(0x40)\n      tag_53\n      swap2\n      swap1\n      tag_54\n      jump\t// in\n    tag_53:\n      mload(0x40)\n      dup1\n      swap2\n      sub\n      swap1\n      return\n        /* \"contracts/TokenVesting.sol\":151:171  uint public duration */\n    tag_16:\n      sload(0x00)\n      dup2\n      jump\t// out\n        /* \"contracts/TokenVesting.sol\":178:195  uint public cliff */\n    tag_20:\n      sload(0x01)\n      dup2\n      jump\t// out\n        /* \"contracts/TokenVesting.sol\":202:225  uint public slicePeriod */\n    tag_23:\n      sload(0x02)\n      dup2\n      jump\t// out\n        /* \"contracts/TokenVesting.sol\":356:405  mapping(address => uint256) public releasedTokens */\n    tag_28:\n      mstore(0x20, 0x06)\n      dup1\n      0x00\n      mstore\n      keccak256(0x00, 0x40)\n      0x00\n      swap2\n      pop\n      swap1\n      pop\n      sload\n      dup2\n      jump\t// out\n        /* \"contracts/TokenVesting.sol\":232:253  uint public startTime */\n    tag_31:\n      sload(0x03)\n      dup2\n      jump\t// out\n        /* \"contracts/TokenVesting.sol\":2721:3195  function releaseTokens(address _beneficiary) isBeneficiaryOrContractOwner(_beneficiary) public { ... */\n    tag_35:\n        /* \"contracts/TokenVesting.sol\":2795:2807  _beneficiary */\n      dup1\n        /* \"contracts/TokenVesting.sol\":2827:2845  uint tokensClaimed */\n      0x00\n        /* \"contracts/TokenVesting.sol\":2846:2876  releasableTokens(_beneficiary) */\n      tag_57\n        /* \"contracts/TokenVesting.sol\":2863:2875  _beneficiary */\n      dup4\n        /* \"contracts/TokenVesting.sol\":2846:2862  releasableTokens */\n      tag_45\n        /* \"contracts/TokenVesting.sol\":2846:2876  releasableTokens(_beneficiary) */\n      jump\t// in\n    tag_57:\n        /* \"contracts/TokenVesting.sol\":2827:2876  uint tokensClaimed=releasableTokens(_beneficiary) */\n      swap1\n      pop\n        /* \"contracts/TokenVesting.sol\":2909:2922  beneficiaries */\n      0x04\n        /* \"contracts/TokenVesting.sol\":2909:2936  beneficiaries[_beneficiary] */\n      0x00\n        /* \"contracts/TokenVesting.sol\":2923:2935  _beneficiary */\n      dup5\n        /* \"contracts/TokenVesting.sol\":2909:2936  beneficiaries[_beneficiary] */\n      0xffffffffffffffffffffffffffffffffffffffff\n      and\n      0xffffffffffffffffffffffffffffffffffffffff\n      and\n      dup2\n      mstore\n      0x20\n      add\n      swap1\n      dup2\n      mstore\n      0x20\n      add\n      0x00\n      keccak256\n      sload\n        /* \"contracts/TokenVesting.sol\":2894:2907  tokensClaimed */\n      dup2\n        /* \"contracts/TokenVesting.sol\":2894:2936  tokensClaimed<=beneficiaries[_beneficiary] */\n      gt\n      iszero\n        /* \"contracts/TokenVesting.sol\":2886:2986  require(tokensClaimed<=beneficiaries[_beneficiary],\"Tokens Claiming are greater than tokens locked\") */\n      tag_58\n      jumpi\n      mload(0x40)\n      0x08c379a000000000000000000000000000000000000000000000000000000000\n      dup2\n      mstore\n      0x04\n      add\n      tag_59\n      swap1\n      tag_60\n      jump\t// in\n    tag_59:\n      mload(0x40)\n      dup1\n      swap2\n      sub\n      swap1\n      revert\n    tag_58:\n        /* \"contracts/TokenVesting.sol\":3025:3038  tokensClaimed */\n      dup1\n        /* \"contracts/TokenVesting.sol\":2996:3010  releasedTokens */\n      0x06\n        /* \"contracts/TokenVesting.sol\":2996:3024  releasedTokens[_beneficiary] */\n      0x00\n        /* \"contracts/TokenVesting.sol\":3011:3023  _beneficiary */\n      dup6\n        /* \"contracts/TokenVesting.sol\":2996:3024  releasedTokens[_beneficiary] */\n      0xffffffffffffffffffffffffffffffffffffffff\n      and\n      0xffffffffffffffffffffffffffffffffffffffff\n      and\n      dup2\n      mstore\n      0x20\n      add\n      swap1\n      dup2\n      mstore\n      0x20\n      add\n      0x00\n      keccak256\n        /* \"contracts/TokenVesting.sol\":2996:3038  releasedTokens[_beneficiary]=tokensClaimed */\n      dup2\n      swap1\n      sstore\n      pop\n        /* \"contracts/TokenVesting.sol\":3048:3053  token */\n      0x08\n      0x00\n      swap1\n      sload\n      swap1\n      0x0100\n      exp\n      swap1\n      div\n      0xffffffffffffffffffffffffffffffffffffffff\n      and\n        /* \"contracts/TokenVesting.sol\":3048:3062  token.transfer */\n      0xffffffffffffffffffffffffffffffffffffffff\n      and\n      0xa9059cbb\n        /* \"contracts/TokenVesting.sol\":3063:3075  _beneficiary */\n      dup5\n        /* \"contracts/TokenVesting.sol\":3076:3089  tokensClaimed */\n      dup4\n        /* \"contracts/TokenVesting.sol\":3048:3090  token.transfer(_beneficiary,tokensClaimed) */\n      mload(0x40)\n      dup4\n      0xffffffff\n      and\n      0xe0\n      shl\n      dup2\n      mstore\n      0x04\n      add\n      tag_61\n      swap3\n      swap2\n      swap1\n      tag_62\n      jump\t// in\n    tag_61:\n      0x20\n      mload(0x40)\n      dup1\n      dup4\n      sub\n      dup2\n      0x00\n      dup8\n      gas\n      call\n      iszero\n      dup1\n      iszero\n      tag_64\n      jumpi\n      returndatasize\n      0x00\n      dup1\n      returndatacopy\n      revert(0x00, returndatasize)\n    tag_64:\n      pop\n      pop\n      pop\n      pop\n      mload(0x40)\n      returndatasize\n      not(0x1f)\n      0x1f\n      dup3\n      add\n      and\n      dup3\n      add\n      dup1\n      0x40\n      mstore\n      pop\n      dup2\n      add\n      swap1\n      tag_65\n      swap2\n      swap1\n      tag_66\n      jump\t// in\n    tag_65:\n      pop\n        /* \"contracts/TokenVesting.sol\":3105:3187  ReleaseTokensEvent(_beneficiary, \"Tokens are Released in account of beneficiary \") */\n      0xa13f186497986e7b059df4137d98a76d0cb346d0e9a294755b01975e190434a9\n        /* \"contracts/TokenVesting.sol\":3124:3136  _beneficiary */\n      dup4\n        /* \"contracts/TokenVesting.sol\":3105:3187  ReleaseTokensEvent(_beneficiary, \"Tokens are Released in account of beneficiary \") */\n      mload(0x40)\n      tag_67\n      swap2\n      swap1\n      tag_68\n      jump\t// in\n    tag_67:\n      mload(0x40)\n      dup1\n      swap2\n      sub\n      swap1\n      log1\n        /* \"contracts/TokenVesting.sol\":2816:3195  { ... */\n      pop\n        /* \"contracts/TokenVesting.sol\":1189:1190  0 */\n      0x00\n        /* \"contracts/TokenVesting.sol\":1161:1174  beneficiaries */\n      0x04\n        /* \"contracts/TokenVesting.sol\":1161:1188  beneficiaries[_beneficiary] */\n      0x00\n        /* \"contracts/TokenVesting.sol\":1175:1187  _beneficiary */\n      dup4\n        /* \"contracts/TokenVesting.sol\":1161:1188  beneficiaries[_beneficiary] */\n      0xffffffffffffffffffffffffffffffffffffffff\n      and\n      0xffffffffffffffffffffffffffffffffffffffff\n      and\n      dup2\n      mstore\n      0x20\n      add\n      swap1\n      dup2\n      mstore\n      0x20\n      add\n      0x00\n      keccak256\n      sload\n        /* \"contracts/TokenVesting.sol\":1161:1190  beneficiaries[_beneficiary]>0 */\n      gt\n        /* \"contracts/TokenVesting.sol\":1161:1211  beneficiaries[_beneficiary]>0 || msg.sender==owner */\n      dup1\n      tag_69\n      jumpi\n      pop\n        /* \"contracts/TokenVesting.sol\":1206:1211  owner */\n      0x07\n      0x00\n      swap1\n      sload\n      swap1\n      0x0100\n      exp\n      swap1\n      div\n      0xffffffffffffffffffffffffffffffffffffffff\n      and\n        /* \"contracts/TokenVesting.sol\":1194:1211  msg.sender==owner */\n      0xffffffffffffffffffffffffffffffffffffffff\n      and\n        /* \"contracts/TokenVesting.sol\":1194:1204  msg.sender */\n      caller\n        /* \"contracts/TokenVesting.sol\":1194:1211  msg.sender==owner */\n      0xffffffffffffffffffffffffffffffffffffffff\n      and\n      eq\n        /* \"contracts/TokenVesting.sol\":1161:1211  beneficiaries[_beneficiary]>0 || msg.sender==owner */\n    tag_69:\n        /* \"contracts/TokenVesting.sol\":1153:1259  require(beneficiaries[_beneficiary]>0 || msg.sender==owner,\"Only Beneficiary Or Owner can Release Tokens\") */\n      tag_70\n      jumpi\n      mload(0x40)\n      0x08c379a000000000000000000000000000000000000000000000000000000000\n      dup2\n      mstore\n      0x04\n      add\n      tag_71\n      swap1\n      tag_72\n      jump\t// in\n    tag_71:\n      mload(0x40)\n      dup1\n      swap2\n      sub\n      swap1\n      revert\n    tag_70:\n        /* \"contracts/TokenVesting.sol\":2721:3195  function releaseTokens(address _beneficiary) isBeneficiaryOrContractOwner(_beneficiary) public { ... */\n      pop\n      pop\n      jump\t// out\n        /* \"contracts/TokenVesting.sol\":1420:1634  function addBeneficiary(address _beneficiary,uint tokensToLock) onlyOwner public {... */\n    tag_39:\n        /* \"contracts/TokenVesting.sol\":1540:1552  tokensToLock */\n      dup1\n        /* \"contracts/TokenVesting.sol\":1512:1525  beneficiaries */\n      0x04\n        /* \"contracts/TokenVesting.sol\":1512:1539  beneficiaries[_beneficiary] */\n      0x00\n        /* \"contracts/TokenVesting.sol\":1526:1538  _beneficiary */\n      dup5\n        /* \"contracts/TokenVesting.sol\":1512:1539  beneficiaries[_beneficiary] */\n      0xffffffffffffffffffffffffffffffffffffffff\n      and\n      0xffffffffffffffffffffffffffffffffffffffff\n      and\n      dup2\n      mstore\n      0x20\n      add\n      swap1\n      dup2\n      mstore\n      0x20\n      add\n      0x00\n      keccak256\n        /* \"contracts/TokenVesting.sol\":1512:1552  beneficiaries[_beneficiary]=tokensToLock */\n      dup2\n      swap1\n      sstore\n      pop\n        /* \"contracts/TokenVesting.sol\":1568:1626  AddBeneficiaryEvent(_beneficiary, \"New Beneficiary Added\") */\n      0x557197374edb4e72999d5d4c84ca4715c58797739aab2f2b7e300db81b4cd1c3\n        /* \"contracts/TokenVesting.sol\":1588:1600  _beneficiary */\n      dup3\n        /* \"contracts/TokenVesting.sol\":1568:1626  AddBeneficiaryEvent(_beneficiary, \"New Beneficiary Added\") */\n      mload(0x40)\n      tag_75\n      swap2\n      swap1\n      tag_76\n      jump\t// in\n    tag_75:\n      mload(0x40)\n      dup1\n      swap2\n      sub\n      swap1\n      log1\n        /* \"contracts/TokenVesting.sol\":1336:1341  owner */\n      0x07\n      0x00\n      swap1\n      sload\n      swap1\n      0x0100\n      exp\n      swap1\n      div\n      0xffffffffffffffffffffffffffffffffffffffff\n      and\n        /* \"contracts/TokenVesting.sol\":1324:1341  msg.sender==owner */\n      0xffffffffffffffffffffffffffffffffffffffff\n      and\n        /* \"contracts/TokenVesting.sol\":1324:1334  msg.sender */\n      caller\n        /* \"contracts/TokenVesting.sol\":1324:1341  msg.sender==owner */\n      0xffffffffffffffffffffffffffffffffffffffff\n      and\n      eq\n        /* \"contracts/TokenVesting.sol\":1316:1379  require(msg.sender==owner,\" Only Owner can Add benefeiciaries\") */\n      tag_77\n      jumpi\n      mload(0x40)\n      0x08c379a000000000000000000000000000000000000000000000000000000000\n      dup2\n      mstore\n      0x04\n      add\n      tag_78\n      swap1\n      tag_79\n      jump\t// in\n    tag_78:\n      mload(0x40)\n      dup1\n      swap2\n      sub\n      swap1\n      revert\n    tag_77:\n        /* \"contracts/TokenVesting.sol\":1420:1634  function addBeneficiary(address _beneficiary,uint tokensToLock) onlyOwner public {... */\n      pop\n      pop\n      jump\t// out\n        /* \"contracts/TokenVesting.sol\":1661:1990  function lockTokens(address _beneficiary,uint tokensAmount)  public {... */\n    tag_42:\n        /* \"contracts/TokenVesting.sol\":1768:1780  tokensAmount */\n      dup1\n        /* \"contracts/TokenVesting.sol\":1740:1753  beneficiaries */\n      0x04\n        /* \"contracts/TokenVesting.sol\":1740:1767  beneficiaries[_beneficiary] */\n      0x00\n        /* \"contracts/TokenVesting.sol\":1754:1766  _beneficiary */\n      dup5\n        /* \"contracts/TokenVesting.sol\":1740:1767  beneficiaries[_beneficiary] */\n      0xffffffffffffffffffffffffffffffffffffffff\n      and\n      0xffffffffffffffffffffffffffffffffffffffff\n      and\n      dup2\n      mstore\n      0x20\n      add\n      swap1\n      dup2\n      mstore\n      0x20\n      add\n      0x00\n      keccak256\n        /* \"contracts/TokenVesting.sol\":1740:1780  beneficiaries[_beneficiary]=tokensAmount */\n      dup2\n      swap1\n      sstore\n      pop\n        /* \"contracts/TokenVesting.sol\":1817:1830  beneficiaries */\n      0x04\n        /* \"contracts/TokenVesting.sol\":1817:1844  beneficiaries[_beneficiary] */\n      0x00\n        /* \"contracts/TokenVesting.sol\":1831:1843  _beneficiary */\n      dup4\n        /* \"contracts/TokenVesting.sol\":1817:1844  beneficiaries[_beneficiary] */\n      0xffffffffffffffffffffffffffffffffffffffff\n      and\n      0xffffffffffffffffffffffffffffffffffffffff\n      and\n      dup2\n      mstore\n      0x20\n      add\n      swap1\n      dup2\n      mstore\n      0x20\n      add\n      0x00\n      keccak256\n      sload\n        /* \"contracts/TokenVesting.sol\":1791:1802  totalTokens */\n      0x05\n        /* \"contracts/TokenVesting.sol\":1791:1816  totalTokens[_beneficiary] */\n      0x00\n        /* \"contracts/TokenVesting.sol\":1803:1815  _beneficiary */\n      dup5\n        /* \"contracts/TokenVesting.sol\":1791:1816  totalTokens[_beneficiary] */\n      0xffffffffffffffffffffffffffffffffffffffff\n      and\n      0xffffffffffffffffffffffffffffffffffffffff\n      and\n      dup2\n      mstore\n      0x20\n      add\n      swap1\n      dup2\n      mstore\n      0x20\n      add\n      0x00\n      keccak256\n        /* \"contracts/TokenVesting.sol\":1791:1844  totalTokens[_beneficiary]=beneficiaries[_beneficiary] */\n      dup2\n      swap1\n      sstore\n      pop\n        /* \"contracts/TokenVesting.sol\":1855:1860  token */\n      0x08\n      0x00\n      swap1\n      sload\n      swap1\n      0x0100\n      exp\n      swap1\n      div\n      0xffffffffffffffffffffffffffffffffffffffff\n      and\n        /* \"contracts/TokenVesting.sol\":1855:1869  token.transfer */\n      0xffffffffffffffffffffffffffffffffffffffff\n      and\n      0xa9059cbb\n        /* \"contracts/TokenVesting.sol\":1878:1882  this */\n      address\n        /* \"contracts/TokenVesting.sol\":1884:1896  tokensAmount */\n      dup4\n        /* \"contracts/TokenVesting.sol\":1855:1897  token.transfer(address(this),tokensAmount) */\n      mload(0x40)\n      dup4\n      0xffffffff\n      and\n      0xe0\n      shl\n      dup2\n      mstore\n      0x04\n      add\n      tag_81\n      swap3\n      swap2\n      swap1\n      tag_62\n      jump\t// in\n    tag_81:\n      0x20\n      mload(0x40)\n      dup1\n      dup4\n      sub\n      dup2\n      0x00\n      dup8\n      gas\n      call\n      iszero\n      dup1\n      iszero\n      tag_83\n      jumpi\n      returndatasize\n      0x00\n      dup1\n      returndatacopy\n      revert(0x00, returndatasize)\n    tag_83:\n      pop\n      pop\n      pop\n      pop\n      mload(0x40)\n      returndatasize\n      not(0x1f)\n      0x1f\n      dup3\n      add\n      and\n      dup3\n      add\n      dup1\n      0x40\n      mstore\n      pop\n      dup2\n      add\n      swap1\n      tag_84\n      swap2\n      swap1\n      tag_66\n      jump\t// in\n    tag_84:\n      pop\n        /* \"contracts/TokenVesting.sol\":1913:1982  LockTokensEvent(_beneficiary, \"Tokens are Locked in smart contract \") */\n      0x58061f685b438748cf21469042b11fe4dfb0c77fd2da64032c5adc017fc09a88\n        /* \"contracts/TokenVesting.sol\":1929:1941  _beneficiary */\n      dup3\n        /* \"contracts/TokenVesting.sol\":1913:1982  LockTokensEvent(_beneficiary, \"Tokens are Locked in smart contract \") */\n      mload(0x40)\n      tag_85\n      swap2\n      swap1\n      tag_86\n      jump\t// in\n    tag_85:\n      mload(0x40)\n      dup1\n      swap2\n      sub\n      swap1\n      log1\n        /* \"contracts/TokenVesting.sol\":1661:1990  function lockTokens(address _beneficiary,uint tokensAmount)  public {... */\n      pop\n      pop\n      jump\t// out\n        /* \"contracts/TokenVesting.sol\":2046:2679  function releasableTokens(address _beneficiary) public view cliffPeriodOver returns(uint) {... */\n    tag_45:\n        /* \"contracts/TokenVesting.sol\":2130:2134  uint */\n      0x00\n        /* \"contracts/TokenVesting.sol\":2147:2166  uint timeSinceStart */\n      dup1\n        /* \"contracts/TokenVesting.sol\":2187:2196  startTime */\n      sload(0x03)\n        /* \"contracts/TokenVesting.sol\":2169:2184  block.timestamp */\n      timestamp\n        /* \"contracts/TokenVesting.sol\":2169:2196  block.timestamp - startTime */\n      tag_89\n      swap2\n      swap1\n      tag_90\n      jump\t// in\n    tag_89:\n        /* \"contracts/TokenVesting.sol\":2147:2196  uint timeSinceStart = block.timestamp - startTime */\n      swap1\n      pop\n        /* \"contracts/TokenVesting.sol\":2207:2233  uint noOfPeriodsSinceStart */\n      0x00\n        /* \"contracts/TokenVesting.sol\":2253:2264  slicePeriod */\n      sload(0x02)\n        /* \"contracts/TokenVesting.sol\":2236:2250  timeSinceStart */\n      dup3\n        /* \"contracts/TokenVesting.sol\":2236:2264  timeSinceStart / slicePeriod */\n      tag_91\n      swap2\n      swap1\n      tag_92\n      jump\t// in\n    tag_91:\n        /* \"contracts/TokenVesting.sol\":2207:2264  uint noOfPeriodsSinceStart = timeSinceStart / slicePeriod */\n      swap1\n      pop\n        /* \"contracts/TokenVesting.sol\":2275:2292  uint totalPeriods */\n      0x00\n        /* \"contracts/TokenVesting.sol\":2306:2317  slicePeriod */\n      sload(0x02)\n        /* \"contracts/TokenVesting.sol\":2295:2303  duration */\n      sload(0x00)\n        /* \"contracts/TokenVesting.sol\":2295:2317  duration / slicePeriod */\n      tag_93\n      swap2\n      swap1\n      tag_92\n      jump\t// in\n    tag_93:\n        /* \"contracts/TokenVesting.sol\":2275:2317  uint totalPeriods = duration / slicePeriod */\n      swap1\n      pop\n        /* \"contracts/TokenVesting.sol\":2357:2369  totalPeriods */\n      dup1\n        /* \"contracts/TokenVesting.sol\":2332:2353  noOfPeriodsSinceStart */\n      dup3\n        /* \"contracts/TokenVesting.sol\":2332:2369  noOfPeriodsSinceStart >= totalPeriods */\n      lt\n        /* \"contracts/TokenVesting.sol\":2328:2672  if (noOfPeriodsSinceStart >= totalPeriods) {... */\n      tag_94\n      jumpi\n        /* \"contracts/TokenVesting.sol\":2393:2406  beneficiaries */\n      0x04\n        /* \"contracts/TokenVesting.sol\":2393:2420  beneficiaries[_beneficiary] */\n      0x00\n        /* \"contracts/TokenVesting.sol\":2407:2419  _beneficiary */\n      dup7\n        /* \"contracts/TokenVesting.sol\":2393:2420  beneficiaries[_beneficiary] */\n      0xffffffffffffffffffffffffffffffffffffffff\n      and\n      0xffffffffffffffffffffffffffffffffffffffff\n      and\n      dup2\n      mstore\n      0x20\n      add\n      swap1\n      dup2\n      mstore\n      0x20\n      add\n      0x00\n      keccak256\n      sload\n        /* \"contracts/TokenVesting.sol\":2386:2420  return beneficiaries[_beneficiary] */\n      swap4\n      pop\n      pop\n      pop\n      pop\n      jump(tag_88)\n        /* \"contracts/TokenVesting.sol\":2328:2672  if (noOfPeriodsSinceStart >= totalPeriods) {... */\n    tag_94:\n        /* \"contracts/TokenVesting.sol\":2463:2491  uint tokensVestedInOnePeriod */\n      0x00\n        /* \"contracts/TokenVesting.sol\":2524:2536  totalPeriods */\n      dup2\n        /* \"contracts/TokenVesting.sol\":2494:2507  beneficiaries */\n      0x04\n        /* \"contracts/TokenVesting.sol\":2494:2521  beneficiaries[_beneficiary] */\n      0x00\n        /* \"contracts/TokenVesting.sol\":2508:2520  _beneficiary */\n      dup9\n        /* \"contracts/TokenVesting.sol\":2494:2521  beneficiaries[_beneficiary] */\n      0xffffffffffffffffffffffffffffffffffffffff\n      and\n      0xffffffffffffffffffffffffffffffffffffffff\n      and\n      dup2\n      mstore\n      0x20\n      add\n      swap1\n      dup2\n      mstore\n      0x20\n      add\n      0x00\n      keccak256\n      sload\n        /* \"contracts/TokenVesting.sol\":2494:2536  beneficiaries[_beneficiary] / totalPeriods */\n      tag_96\n      swap2\n      swap1\n      tag_92\n      jump\t// in\n    tag_96:\n        /* \"contracts/TokenVesting.sol\":2463:2536  uint tokensVestedInOnePeriod = beneficiaries[_beneficiary] / totalPeriods */\n      swap1\n      pop\n        /* \"contracts/TokenVesting.sol\":2551:2572  uint tokensToBeVested */\n      0x00\n        /* \"contracts/TokenVesting.sol\":2601:2622  noOfPeriodsSinceStart */\n      dup4\n        /* \"contracts/TokenVesting.sol\":2575:2598  tokensVestedInOnePeriod */\n      dup3\n        /* \"contracts/TokenVesting.sol\":2575:2622  tokensVestedInOnePeriod * noOfPeriodsSinceStart */\n      tag_97\n      swap2\n      swap1\n      tag_98\n      jump\t// in\n    tag_97:\n        /* \"contracts/TokenVesting.sol\":2551:2622  uint tokensToBeVested = tokensVestedInOnePeriod * noOfPeriodsSinceStart */\n      swap1\n      pop\n        /* \"contracts/TokenVesting.sol\":2644:2660  tokensToBeVested */\n      dup1\n        /* \"contracts/TokenVesting.sol\":2637:2660  return tokensToBeVested */\n      swap6\n      pop\n      pop\n      pop\n      pop\n      pop\n      pop\n        /* \"contracts/TokenVesting.sol\":989:990  _ */\n    tag_88:\n        /* \"contracts/TokenVesting.sol\":1026:1031  cliff */\n      sload(0x01)\n        /* \"contracts/TokenVesting.sol\":1009:1024  block.timestamp */\n      timestamp\n        /* \"contracts/TokenVesting.sol\":1009:1031  block.timestamp>=cliff */\n      lt\n      iszero\n        /* \"contracts/TokenVesting.sol\":1001:1057  require(block.timestamp>=cliff,\"Wait Till Cliff period\") */\n      tag_99\n      jumpi\n      mload(0x40)\n      0x08c379a000000000000000000000000000000000000000000000000000000000\n      dup2\n      mstore\n      0x04\n      add\n      tag_100\n      swap1\n      tag_101\n      jump\t// in\n    tag_100:\n      mload(0x40)\n      dup1\n      swap2\n      sub\n      swap1\n      revert\n    tag_99:\n        /* \"contracts/TokenVesting.sol\":2046:2679  function releasableTokens(address _beneficiary) public view cliffPeriodOver returns(uint) {... */\n      swap2\n      swap1\n      pop\n      jump\t// out\n        /* \"contracts/TokenVesting.sol\":303:349  mapping(address => uint256) public totalTokens */\n    tag_49:\n      mstore(0x20, 0x05)\n      dup1\n      0x00\n      mstore\n      keccak256(0x00, 0x40)\n      0x00\n      swap2\n      pop\n      swap1\n      pop\n      sload\n      dup2\n      jump\t// out\n        /* \"contracts/TokenVesting.sol\":432:451  IERC20 public token */\n    tag_52:\n      0x08\n      0x00\n      swap1\n      sload\n      swap1\n      0x0100\n      exp\n      swap1\n      div\n      0xffffffffffffffffffffffffffffffffffffffff\n      and\n      dup2\n      jump\t// out\n        /* \"#utility.yul\":7:84   */\n    tag_102:\n        /* \"#utility.yul\":44:51   */\n      0x00\n        /* \"#utility.yul\":73:78   */\n      dup2\n        /* \"#utility.yul\":62:78   */\n      swap1\n      pop\n        /* \"#utility.yul\":7:84   */\n      swap2\n      swap1\n      pop\n      jump\t// out\n        /* \"#utility.yul\":90:208   */\n    tag_103:\n        /* \"#utility.yul\":177:201   */\n      tag_142\n        /* \"#utility.yul\":195:200   */\n      dup2\n        /* \"#utility.yul\":177:201   */\n      tag_102\n      jump\t// in\n    tag_142:\n        /* \"#utility.yul\":172:175   */\n      dup3\n        /* \"#utility.yul\":165:202   */\n      mstore\n        /* \"#utility.yul\":90:208   */\n      pop\n      pop\n      jump\t// out\n        /* \"#utility.yul\":214:436   */\n    tag_18:\n        /* \"#utility.yul\":307:311   */\n      0x00\n        /* \"#utility.yul\":345:347   */\n      0x20\n        /* \"#utility.yul\":334:343   */\n      dup3\n        /* \"#utility.yul\":330:348   */\n      add\n        /* \"#utility.yul\":322:348   */\n      swap1\n      pop\n        /* \"#utility.yul\":358:429   */\n      tag_144\n        /* \"#utility.yul\":426:427   */\n      0x00\n        /* \"#utility.yul\":415:424   */\n      dup4\n        /* \"#utility.yul\":411:428   */\n      add\n        /* \"#utility.yul\":402:408   */\n      dup5\n        /* \"#utility.yul\":358:429   */\n      tag_103\n      jump\t// in\n    tag_144:\n        /* \"#utility.yul\":214:436   */\n      swap3\n      swap2\n      pop\n      pop\n      jump\t// out\n        /* \"#utility.yul\":523:640   */\n    tag_105:\n        /* \"#utility.yul\":632:633   */\n      0x00\n        /* \"#utility.yul\":629:630   */\n      dup1\n        /* \"#utility.yul\":622:634   */\n      revert\n        /* \"#utility.yul\":769:895   */\n    tag_107:\n        /* \"#utility.yul\":806:813   */\n      0x00\n        /* \"#utility.yul\":846:888   */\n      0xffffffffffffffffffffffffffffffffffffffff\n        /* \"#utility.yul\":839:844   */\n      dup3\n        /* \"#utility.yul\":835:889   */\n      and\n        /* \"#utility.yul\":824:889   */\n      swap1\n      pop\n        /* \"#utility.yul\":769:895   */\n      swap2\n      swap1\n      pop\n      jump\t// out\n        /* \"#utility.yul\":901:997   */\n    tag_108:\n        /* \"#utility.yul\":938:945   */\n      0x00\n        /* \"#utility.yul\":967:991   */\n      tag_150\n        /* \"#utility.yul\":985:990   */\n      dup3\n        /* \"#utility.yul\":967:991   */\n      tag_107\n      jump\t// in\n    tag_150:\n        /* \"#utility.yul\":956:991   */\n      swap1\n      pop\n        /* \"#utility.yul\":901:997   */\n      swap2\n      swap1\n      pop\n      jump\t// out\n        /* \"#utility.yul\":1003:1125   */\n    tag_109:\n        /* \"#utility.yul\":1076:1100   */\n      tag_152\n        /* \"#utility.yul\":1094:1099   */\n      dup2\n        /* \"#utility.yul\":1076:1100   */\n      tag_108\n      jump\t// in\n    tag_152:\n        /* \"#utility.yul\":1069:1074   */\n      dup2\n        /* \"#utility.yul\":1066:1101   */\n      eq\n        /* \"#utility.yul\":1056:1119   */\n      tag_153\n      jumpi\n        /* \"#utility.yul\":1115:1116   */\n      0x00\n        /* \"#utility.yul\":1112:1113   */\n      dup1\n        /* \"#utility.yul\":1105:1117   */\n      revert\n        /* \"#utility.yul\":1056:1119   */\n    tag_153:\n        /* \"#utility.yul\":1003:1125   */\n      pop\n      jump\t// out\n        /* \"#utility.yul\":1131:1270   */\n    tag_110:\n        /* \"#utility.yul\":1177:1182   */\n      0x00\n        /* \"#utility.yul\":1215:1221   */\n      dup2\n        /* \"#utility.yul\":1202:1222   */\n      calldataload\n        /* \"#utility.yul\":1193:1222   */\n      swap1\n      pop\n        /* \"#utility.yul\":1231:1264   */\n      tag_155\n        /* \"#utility.yul\":1258:1263   */\n      dup2\n        /* \"#utility.yul\":1231:1264   */\n      tag_109\n      jump\t// in\n    tag_155:\n        /* \"#utility.yul\":1131:1270   */\n      swap3\n      swap2\n      pop\n      pop\n      jump\t// out\n        /* \"#utility.yul\":1276:1605   */\n    tag_27:\n        /* \"#utility.yul\":1335:1341   */\n      0x00\n        /* \"#utility.yul\":1384:1386   */\n      0x20\n        /* \"#utility.yul\":1372:1381   */\n      dup3\n        /* \"#utility.yul\":1363:1370   */\n      dup5\n        /* \"#utility.yul\":1359:1382   */\n      sub\n        /* \"#utility.yul\":1355:1387   */\n      slt\n        /* \"#utility.yul\":1352:1471   */\n      iszero\n      tag_157\n      jumpi\n        /* \"#utility.yul\":1390:1469   */\n      tag_158\n      tag_105\n      jump\t// in\n    tag_158:\n        /* \"#utility.yul\":1352:1471   */\n    tag_157:\n        /* \"#utility.yul\":1510:1511   */\n      0x00\n        /* \"#utility.yul\":1535:1588   */\n      tag_159\n        /* \"#utility.yul\":1580:1587   */\n      dup5\n        /* \"#utility.yul\":1571:1577   */\n      dup3\n        /* \"#utility.yul\":1560:1569   */\n      dup6\n        /* \"#utility.yul\":1556:1578   */\n      add\n        /* \"#utility.yul\":1535:1588   */\n      tag_110\n      jump\t// in\n    tag_159:\n        /* \"#utility.yul\":1525:1588   */\n      swap2\n      pop\n        /* \"#utility.yul\":1481:1598   */\n      pop\n        /* \"#utility.yul\":1276:1605   */\n      swap3\n      swap2\n      pop\n      pop\n      jump\t// out\n        /* \"#utility.yul\":1611:1733   */\n    tag_111:\n        /* \"#utility.yul\":1684:1708   */\n      tag_161\n        /* \"#utility.yul\":1702:1707   */\n      dup2\n        /* \"#utility.yul\":1684:1708   */\n      tag_102\n      jump\t// in\n    tag_161:\n        /* \"#utility.yul\":1677:1682   */\n      dup2\n        /* \"#utility.yul\":1674:1709   */\n      eq\n        /* \"#utility.yul\":1664:1727   */\n      tag_162\n      jumpi\n        /* \"#utility.yul\":1723:1724   */\n      0x00\n        /* \"#utility.yul\":1720:1721   */\n      dup1\n        /* \"#utility.yul\":1713:1725   */\n      revert\n        /* \"#utility.yul\":1664:1727   */\n    tag_162:\n        /* \"#utility.yul\":1611:1733   */\n      pop\n      jump\t// out\n        /* \"#utility.yul\":1739:1878   */\n    tag_112:\n        /* \"#utility.yul\":1785:1790   */\n      0x00\n        /* \"#utility.yul\":1823:1829   */\n      dup2\n        /* \"#utility.yul\":1810:1830   */\n      calldataload\n        /* \"#utility.yul\":1801:1830   */\n      swap1\n      pop\n        /* \"#utility.yul\":1839:1872   */\n      tag_164\n        /* \"#utility.yul\":1866:1871   */\n      dup2\n        /* \"#utility.yul\":1839:1872   */\n      tag_111\n      jump\t// in\n    tag_164:\n        /* \"#utility.yul\":1739:1878   */\n      swap3\n      swap2\n      pop\n      pop\n      jump\t// out\n        /* \"#utility.yul\":1884:2358   */\n    tag_38:\n        /* \"#utility.yul\":1952:1958   */\n      0x00\n        /* \"#utility.yul\":1960:1966   */\n      dup1\n        /* \"#utility.yul\":2009:2011   */\n      0x40\n        /* \"#utility.yul\":1997:2006   */\n      dup4\n        /* \"#utility.yul\":1988:1995   */\n      dup6\n        /* \"#utility.yul\":1984:2007   */\n      sub\n        /* \"#utility.yul\":1980:2012   */\n      slt\n        /* \"#utility.yul\":1977:2096   */\n      iszero\n      tag_166\n      jumpi\n        /* \"#utility.yul\":2015:2094   */\n      tag_167\n      tag_105\n      jump\t// in\n    tag_167:\n        /* \"#utility.yul\":1977:2096   */\n    tag_166:\n        /* \"#utility.yul\":2135:2136   */\n      0x00\n        /* \"#utility.yul\":2160:2213   */\n      tag_168\n        /* \"#utility.yul\":2205:2212   */\n      dup6\n        /* \"#utility.yul\":2196:2202   */\n      dup3\n        /* \"#utility.yul\":2185:2194   */\n      dup7\n        /* \"#utility.yul\":2181:2203   */\n      add\n        /* \"#utility.yul\":2160:2213   */\n      tag_110\n      jump\t// in\n    tag_168:\n        /* \"#utility.yul\":2150:2213   */\n      swap3\n      pop\n        /* \"#utility.yul\":2106:2223   */\n      pop\n        /* \"#utility.yul\":2262:2264   */\n      0x20\n        /* \"#utility.yul\":2288:2341   */\n      tag_169\n        /* \"#utility.yul\":2333:2340   */\n      dup6\n        /* \"#utility.yul\":2324:2330   */\n      dup3\n        /* \"#utility.yul\":2313:2322   */\n      dup7\n        /* \"#utility.yul\":2309:2331   */\n      add\n        /* \"#utility.yul\":2288:2341   */\n      tag_112\n      jump\t// in\n    tag_169:\n        /* \"#utility.yul\":2278:2341   */\n      swap2\n      pop\n        /* \"#utility.yul\":2233:2351   */\n      pop\n        /* \"#utility.yul\":1884:2358   */\n      swap3\n      pop\n      swap3\n      swap1\n      pop\n      jump\t// out\n        /* \"#utility.yul\":2364:2424   */\n    tag_113:\n        /* \"#utility.yul\":2392:2395   */\n      0x00\n        /* \"#utility.yul\":2413:2418   */\n      dup2\n        /* \"#utility.yul\":2406:2418   */\n      swap1\n      pop\n        /* \"#utility.yul\":2364:2424   */\n      swap2\n      swap1\n      pop\n      jump\t// out\n        /* \"#utility.yul\":2430:2572   */\n    tag_114:\n        /* \"#utility.yul\":2480:2489   */\n      0x00\n        /* \"#utility.yul\":2513:2566   */\n      tag_172\n        /* \"#utility.yul\":2531:2565   */\n      tag_173\n        /* \"#utility.yul\":2540:2564   */\n      tag_174\n        /* \"#utility.yul\":2558:2563   */\n      dup5\n        /* \"#utility.yul\":2540:2564   */\n      tag_107\n      jump\t// in\n    tag_174:\n        /* \"#utility.yul\":2531:2565   */\n      tag_113\n      jump\t// in\n    tag_173:\n        /* \"#utility.yul\":2513:2566   */\n      tag_107\n      jump\t// in\n    tag_172:\n        /* \"#utility.yul\":2500:2566   */\n      swap1\n      pop\n        /* \"#utility.yul\":2430:2572   */\n      swap2\n      swap1\n      pop\n      jump\t// out\n        /* \"#utility.yul\":2578:2704   */\n    tag_115:\n        /* \"#utility.yul\":2628:2637   */\n      0x00\n        /* \"#utility.yul\":2661:2698   */\n      tag_176\n        /* \"#utility.yul\":2692:2697   */\n      dup3\n        /* \"#utility.yul\":2661:2698   */\n      tag_114\n      jump\t// in\n    tag_176:\n        /* \"#utility.yul\":2648:2698   */\n      swap1\n      pop\n        /* \"#utility.yul\":2578:2704   */\n      swap2\n      swap1\n      pop\n      jump\t// out\n        /* \"#utility.yul\":2710:2849   */\n    tag_116:\n        /* \"#utility.yul\":2773:2782   */\n      0x00\n        /* \"#utility.yul\":2806:2843   */\n      tag_178\n        /* \"#utility.yul\":2837:2842   */\n      dup3\n        /* \"#utility.yul\":2806:2843   */\n      tag_115\n      jump\t// in\n    tag_178:\n        /* \"#utility.yul\":2793:2843   */\n      swap1\n      pop\n        /* \"#utility.yul\":2710:2849   */\n      swap2\n      swap1\n      pop\n      jump\t// out\n        /* \"#utility.yul\":2855:3012   */\n    tag_117:\n        /* \"#utility.yul\":2955:3005   */\n      tag_180\n        /* \"#utility.yul\":2999:3004   */\n      dup2\n        /* \"#utility.yul\":2955:3005   */\n      tag_116\n      jump\t// in\n    tag_180:\n        /* \"#utility.yul\":2950:2953   */\n      dup3\n        /* \"#utility.yul\":2943:3006   */\n      mstore\n        /* \"#utility.yul\":2855:3012   */\n      pop\n      pop\n      jump\t// out\n        /* \"#utility.yul\":3018:3266   */\n    tag_54:\n        /* \"#utility.yul\":3124:3128   */\n      0x00\n        /* \"#utility.yul\":3162:3164   */\n      0x20\n        /* \"#utility.yul\":3151:3160   */\n      dup3\n        /* \"#utility.yul\":3147:3165   */\n      add\n        /* \"#utility.yul\":3139:3165   */\n      swap1\n      pop\n        /* \"#utility.yul\":3175:3259   */\n      tag_182\n        /* \"#utility.yul\":3256:3257   */\n      0x00\n        /* \"#utility.yul\":3245:3254   */\n      dup4\n        /* \"#utility.yul\":3241:3258   */\n      add\n        /* \"#utility.yul\":3232:3238   */\n      dup5\n        /* \"#utility.yul\":3175:3259   */\n      tag_117\n      jump\t// in\n    tag_182:\n        /* \"#utility.yul\":3018:3266   */\n      swap3\n      swap2\n      pop\n      pop\n      jump\t// out\n        /* \"#utility.yul\":3272:3441   */\n    tag_118:\n        /* \"#utility.yul\":3356:3367   */\n      0x00\n        /* \"#utility.yul\":3390:3396   */\n      dup3\n        /* \"#utility.yul\":3385:3388   */\n      dup3\n        /* \"#utility.yul\":3378:3397   */\n      mstore\n        /* \"#utility.yul\":3430:3434   */\n      0x20\n        /* \"#utility.yul\":3425:3428   */\n      dup3\n        /* \"#utility.yul\":3421:3435   */\n      add\n        /* \"#utility.yul\":3406:3435   */\n      swap1\n      pop\n        /* \"#utility.yul\":3272:3441   */\n      swap3\n      swap2\n      pop\n      pop\n      jump\t// out\n        /* \"#utility.yul\":3447:3680   */\n    tag_119:\n        /* \"#utility.yul\":3587:3621   */\n      0x546f6b656e7320436c61696d696e67206172652067726561746572207468616e\n        /* \"#utility.yul\":3583:3584   */\n      0x00\n        /* \"#utility.yul\":3575:3581   */\n      dup3\n        /* \"#utility.yul\":3571:3585   */\n      add\n        /* \"#utility.yul\":3564:3622   */\n      mstore\n        /* \"#utility.yul\":3656:3672   */\n      0x20746f6b656e73206c6f636b6564000000000000000000000000000000000000\n        /* \"#utility.yul\":3651:3653   */\n      0x20\n        /* \"#utility.yul\":3643:3649   */\n      dup3\n        /* \"#utility.yul\":3639:3654   */\n      add\n        /* \"#utility.yul\":3632:3673   */\n      mstore\n        /* \"#utility.yul\":3447:3680   */\n      pop\n      jump\t// out\n        /* \"#utility.yul\":3686:4052   */\n    tag_120:\n        /* \"#utility.yul\":3828:3831   */\n      0x00\n        /* \"#utility.yul\":3849:3916   */\n      tag_186\n        /* \"#utility.yul\":3913:3915   */\n      0x2e\n        /* \"#utility.yul\":3908:3911   */\n      dup4\n        /* \"#utility.yul\":3849:3916   */\n      tag_118\n      jump\t// in\n    tag_186:\n        /* \"#utility.yul\":3842:3916   */\n      swap2\n      pop\n        /* \"#utility.yul\":3925:4018   */\n      tag_187\n        /* \"#utility.yul\":4014:4017   */\n      dup3\n        /* \"#utility.yul\":3925:4018   */\n      tag_119\n      jump\t// in\n    tag_187:\n        /* \"#utility.yul\":4043:4045   */\n      0x40\n        /* \"#utility.yul\":4038:4041   */\n      dup3\n        /* \"#utility.yul\":4034:4046   */\n      add\n        /* \"#utility.yul\":4027:4046   */\n      swap1\n      pop\n        /* \"#utility.yul\":3686:4052   */\n      swap2\n      swap1\n      pop\n      jump\t// out\n        /* \"#utility.yul\":4058:4477   */\n    tag_60:\n        /* \"#utility.yul\":4224:4228   */\n      0x00\n        /* \"#utility.yul\":4262:4264   */\n      0x20\n        /* \"#utility.yul\":4251:4260   */\n      dup3\n        /* \"#utility.yul\":4247:4265   */\n      add\n        /* \"#utility.yul\":4239:4265   */\n      swap1\n      pop\n        /* \"#utility.yul\":4311:4320   */\n      dup2\n        /* \"#utility.yul\":4305:4309   */\n      dup2\n        /* \"#utility.yul\":4301:4321   */\n      sub\n        /* \"#utility.yul\":4297:4298   */\n      0x00\n        /* \"#utility.yul\":4286:4295   */\n      dup4\n        /* \"#utility.yul\":4282:4299   */\n      add\n        /* \"#utility.yul\":4275:4322   */\n      mstore\n        /* \"#utility.yul\":4339:4470   */\n      tag_189\n        /* \"#utility.yul\":4465:4469   */\n      dup2\n        /* \"#utility.yul\":4339:4470   */\n      tag_120\n      jump\t// in\n    tag_189:\n        /* \"#utility.yul\":4331:4470   */\n      swap1\n      pop\n        /* \"#utility.yul\":4058:4477   */\n      swap2\n      swap1\n      pop\n      jump\t// out\n        /* \"#utility.yul\":4483:4601   */\n    tag_121:\n        /* \"#utility.yul\":4570:4594   */\n      tag_191\n        /* \"#utility.yul\":4588:4593   */\n      dup2\n        /* \"#utility.yul\":4570:4594   */\n      tag_108\n      jump\t// in\n    tag_191:\n        /* \"#utility.yul\":4565:4568   */\n      dup3\n        /* \"#utility.yul\":4558:4595   */\n      mstore\n        /* \"#utility.yul\":4483:4601   */\n      pop\n      pop\n      jump\t// out\n        /* \"#utility.yul\":4607:4939   */\n    tag_62:\n        /* \"#utility.yul\":4728:4732   */\n      0x00\n        /* \"#utility.yul\":4766:4768   */\n      0x40\n        /* \"#utility.yul\":4755:4764   */\n      dup3\n        /* \"#utility.yul\":4751:4769   */\n      add\n        /* \"#utility.yul\":4743:4769   */\n      swap1\n      pop\n        /* \"#utility.yul\":4779:4850   */\n      tag_193\n        /* \"#utility.yul\":4847:4848   */\n      0x00\n        /* \"#utility.yul\":4836:4845   */\n      dup4\n        /* \"#utility.yul\":4832:4849   */\n      add\n        /* \"#utility.yul\":4823:4829   */\n      dup6\n        /* \"#utility.yul\":4779:4850   */\n      tag_121\n      jump\t// in\n    tag_193:\n        /* \"#utility.yul\":4860:4932   */\n      tag_194\n        /* \"#utility.yul\":4928:4930   */\n      0x20\n        /* \"#utility.yul\":4917:4926   */\n      dup4\n        /* \"#utility.yul\":4913:4931   */\n      add\n        /* \"#utility.yul\":4904:4910   */\n      dup5\n        /* \"#utility.yul\":4860:4932   */\n      tag_103\n      jump\t// in\n    tag_194:\n        /* \"#utility.yul\":4607:4939   */\n      swap4\n      swap3\n      pop\n      pop\n      pop\n      jump\t// out\n        /* \"#utility.yul\":4945:5035   */\n    tag_122:\n        /* \"#utility.yul\":4979:4986   */\n      0x00\n        /* \"#utility.yul\":5022:5027   */\n      dup2\n        /* \"#utility.yul\":5015:5028   */\n      iszero\n        /* \"#utility.yul\":5008:5029   */\n      iszero\n        /* \"#utility.yul\":4997:5029   */\n      swap1\n      pop\n        /* \"#utility.yul\":4945:5035   */\n      swap2\n      swap1\n      pop\n      jump\t// out\n        /* \"#utility.yul\":5041:5157   */\n    tag_123:\n        /* \"#utility.yul\":5111:5132   */\n      tag_197\n        /* \"#utility.yul\":5126:5131   */\n      dup2\n        /* \"#utility.yul\":5111:5132   */\n      tag_122\n      jump\t// in\n    tag_197:\n        /* \"#utility.yul\":5104:5109   */\n      dup2\n        /* \"#utility.yul\":5101:5133   */\n      eq\n        /* \"#utility.yul\":5091:5151   */\n      tag_198\n      jumpi\n        /* \"#utility.yul\":5147:5148   */\n      0x00\n        /* \"#utility.yul\":5144:5145   */\n      dup1\n        /* \"#utility.yul\":5137:5149   */\n      revert\n        /* \"#utility.yul\":5091:5151   */\n    tag_198:\n        /* \"#utility.yul\":5041:5157   */\n      pop\n      jump\t// out\n        /* \"#utility.yul\":5163:5300   */\n    tag_124:\n        /* \"#utility.yul\":5217:5222   */\n      0x00\n        /* \"#utility.yul\":5248:5254   */\n      dup2\n        /* \"#utility.yul\":5242:5255   */\n      mload\n        /* \"#utility.yul\":5233:5255   */\n      swap1\n      pop\n        /* \"#utility.yul\":5264:5294   */\n      tag_200\n        /* \"#utility.yul\":5288:5293   */\n      dup2\n        /* \"#utility.yul\":5264:5294   */\n      tag_123\n      jump\t// in\n    tag_200:\n        /* \"#utility.yul\":5163:5300   */\n      swap3\n      swap2\n      pop\n      pop\n      jump\t// out\n        /* \"#utility.yul\":5306:5651   */\n    tag_66:\n        /* \"#utility.yul\":5373:5379   */\n      0x00\n        /* \"#utility.yul\":5422:5424   */\n      0x20\n        /* \"#utility.yul\":5410:5419   */\n      dup3\n        /* \"#utility.yul\":5401:5408   */\n      dup5\n        /* \"#utility.yul\":5397:5420   */\n      sub\n        /* \"#utility.yul\":5393:5425   */\n      slt\n        /* \"#utility.yul\":5390:5509   */\n      iszero\n      tag_202\n      jumpi\n        /* \"#utility.yul\":5428:5507   */\n      tag_203\n      tag_105\n      jump\t// in\n    tag_203:\n        /* \"#utility.yul\":5390:5509   */\n    tag_202:\n        /* \"#utility.yul\":5548:5549   */\n      0x00\n        /* \"#utility.yul\":5573:5634   */\n      tag_204\n        /* \"#utility.yul\":5626:5633   */\n      dup5\n        /* \"#utility.yul\":5617:5623   */\n      dup3\n        /* \"#utility.yul\":5606:5615   */\n      dup6\n        /* \"#utility.yul\":5602:5624   */\n      add\n        /* \"#utility.yul\":5573:5634   */\n      tag_124\n      jump\t// in\n    tag_204:\n        /* \"#utility.yul\":5563:5634   */\n      swap2\n      pop\n        /* \"#utility.yul\":5519:5644   */\n      pop\n        /* \"#utility.yul\":5306:5651   */\n      swap3\n      swap2\n      pop\n      pop\n      jump\t// out\n        /* \"#utility.yul\":5657:5890   */\n    tag_125:\n        /* \"#utility.yul\":5797:5831   */\n      0x546f6b656e73206172652052656c656173656420696e206163636f756e74206f\n        /* \"#utility.yul\":5793:5794   */\n      0x00\n        /* \"#utility.yul\":5785:5791   */\n      dup3\n        /* \"#utility.yul\":5781:5795   */\n      add\n        /* \"#utility.yul\":5774:5832   */\n      mstore\n        /* \"#utility.yul\":5866:5882   */\n      0x662062656e656669636961727920000000000000000000000000000000000000\n        /* \"#utility.yul\":5861:5863   */\n      0x20\n        /* \"#utility.yul\":5853:5859   */\n      dup3\n        /* \"#utility.yul\":5849:5864   */\n      add\n        /* \"#utility.yul\":5842:5883   */\n      mstore\n        /* \"#utility.yul\":5657:5890   */\n      pop\n      jump\t// out\n        /* \"#utility.yul\":5896:6262   */\n    tag_126:\n        /* \"#utility.yul\":6038:6041   */\n      0x00\n        /* \"#utility.yul\":6059:6126   */\n      tag_207\n        /* \"#utility.yul\":6123:6125   */\n      0x2e\n        /* \"#utility.yul\":6118:6121   */\n      dup4\n        /* \"#utility.yul\":6059:6126   */\n      tag_118\n      jump\t// in\n    tag_207:\n        /* \"#utility.yul\":6052:6126   */\n      swap2\n      pop\n        /* \"#utility.yul\":6135:6228   */\n      tag_208\n        /* \"#utility.yul\":6224:6227   */\n      dup3\n        /* \"#utility.yul\":6135:6228   */\n      tag_125\n      jump\t// in\n    tag_208:\n        /* \"#utility.yul\":6253:6255   */\n      0x40\n        /* \"#utility.yul\":6248:6251   */\n      dup3\n        /* \"#utility.yul\":6244:6256   */\n      add\n        /* \"#utility.yul\":6237:6256   */\n      swap1\n      pop\n        /* \"#utility.yul\":5896:6262   */\n      swap2\n      swap1\n      pop\n      jump\t// out\n        /* \"#utility.yul\":6268:6797   */\n    tag_68:\n        /* \"#utility.yul\":6462:6466   */\n      0x00\n        /* \"#utility.yul\":6500:6502   */\n      0x40\n        /* \"#utility.yul\":6489:6498   */\n      dup3\n        /* \"#utility.yul\":6485:6503   */\n      add\n        /* \"#utility.yul\":6477:6503   */\n      swap1\n      pop\n        /* \"#utility.yul\":6513:6584   */\n      tag_210\n        /* \"#utility.yul\":6581:6582   */\n      0x00\n        /* \"#utility.yul\":6570:6579   */\n      dup4\n        /* \"#utility.yul\":6566:6583   */\n      add\n        /* \"#utility.yul\":6557:6563   */\n      dup5\n        /* \"#utility.yul\":6513:6584   */\n      tag_121\n      jump\t// in\n    tag_210:\n        /* \"#utility.yul\":6631:6640   */\n      dup2\n        /* \"#utility.yul\":6625:6629   */\n      dup2\n        /* \"#utility.yul\":6621:6641   */\n      sub\n        /* \"#utility.yul\":6616:6618   */\n      0x20\n        /* \"#utility.yul\":6605:6614   */\n      dup4\n        /* \"#utility.yul\":6601:6619   */\n      add\n        /* \"#utility.yul\":6594:6642   */\n      mstore\n        /* \"#utility.yul\":6659:6790   */\n      tag_211\n        /* \"#utility.yul\":6785:6789   */\n      dup2\n        /* \"#utility.yul\":6659:6790   */\n      tag_126\n      jump\t// in\n    tag_211:\n        /* \"#utility.yul\":6651:6790   */\n      swap1\n      pop\n        /* \"#utility.yul\":6268:6797   */\n      swap3\n      swap2\n      pop\n      pop\n      jump\t// out\n        /* \"#utility.yul\":6803:7034   */\n    tag_127:\n        /* \"#utility.yul\":6943:6977   */\n      0x4f6e6c792042656e6566696369617279204f72204f776e65722063616e205265\n        /* \"#utility.yul\":6939:6940   */\n      0x00\n        /* \"#utility.yul\":6931:6937   */\n      dup3\n        /* \"#utility.yul\":6927:6941   */\n      add\n        /* \"#utility.yul\":6920:6978   */\n      mstore\n        /* \"#utility.yul\":7012:7026   */\n      0x6c6561736520546f6b656e730000000000000000000000000000000000000000\n        /* \"#utility.yul\":7007:7009   */\n      0x20\n        /* \"#utility.yul\":6999:7005   */\n      dup3\n        /* \"#utility.yul\":6995:7010   */\n      add\n        /* \"#utility.yul\":6988:7027   */\n      mstore\n        /* \"#utility.yul\":6803:7034   */\n      pop\n      jump\t// out\n        /* \"#utility.yul\":7040:7406   */\n    tag_128:\n        /* \"#utility.yul\":7182:7185   */\n      0x00\n        /* \"#utility.yul\":7203:7270   */\n      tag_214\n        /* \"#utility.yul\":7267:7269   */\n      0x2c\n        /* \"#utility.yul\":7262:7265   */\n      dup4\n        /* \"#utility.yul\":7203:7270   */\n      tag_118\n      jump\t// in\n    tag_214:\n        /* \"#utility.yul\":7196:7270   */\n      swap2\n      pop\n        /* \"#utility.yul\":7279:7372   */\n      tag_215\n        /* \"#utility.yul\":7368:7371   */\n      dup3\n        /* \"#utility.yul\":7279:7372   */\n      tag_127\n      jump\t// in\n    tag_215:\n        /* \"#utility.yul\":7397:7399   */\n      0x40\n        /* \"#utility.yul\":7392:7395   */\n      dup3\n        /* \"#utility.yul\":7388:7400   */\n      add\n        /* \"#utility.yul\":7381:7400   */\n      swap1\n      pop\n        /* \"#utility.yul\":7040:7406   */\n      swap2\n      swap1\n      pop\n      jump\t// out\n        /* \"#utility.yul\":7412:7831   */\n    tag_72:\n        /* \"#utility.yul\":7578:7582   */\n      0x00\n        /* \"#utility.yul\":7616:7618   */\n      0x20\n        /* \"#utility.yul\":7605:7614   */\n      dup3\n        /* \"#utility.yul\":7601:7619   */\n      add\n        /* \"#utility.yul\":7593:7619   */\n      swap1\n      pop\n        /* \"#utility.yul\":7665:7674   */\n      dup2\n        /* \"#utility.yul\":7659:7663   */\n      dup2\n        /* \"#utility.yul\":7655:7675   */\n      sub\n        /* \"#utility.yul\":7651:7652   */\n      0x00\n        /* \"#utility.yul\":7640:7649   */\n      dup4\n        /* \"#utility.yul\":7636:7653   */\n      add\n        /* \"#utility.yul\":7629:7676   */\n      mstore\n        /* \"#utility.yul\":7693:7824   */\n      tag_217\n        /* \"#utility.yul\":7819:7823   */\n      dup2\n        /* \"#utility.yul\":7693:7824   */\n      tag_128\n      jump\t// in\n    tag_217:\n        /* \"#utility.yul\":7685:7824   */\n      swap1\n      pop\n        /* \"#utility.yul\":7412:7831   */\n      swap2\n      swap1\n      pop\n      jump\t// out\n        /* \"#utility.yul\":7837:8008   */\n    tag_129:\n        /* \"#utility.yul\":7977:8000   */\n      0x4e65772042656e65666963696172792041646465640000000000000000000000\n        /* \"#utility.yul\":7973:7974   */\n      0x00\n        /* \"#utility.yul\":7965:7971   */\n      dup3\n        /* \"#utility.yul\":7961:7975   */\n      add\n        /* \"#utility.yul\":7954:8001   */\n      mstore\n        /* \"#utility.yul\":7837:8008   */\n      pop\n      jump\t// out\n        /* \"#utility.yul\":8014:8380   */\n    tag_130:\n        /* \"#utility.yul\":8156:8159   */\n      0x00\n        /* \"#utility.yul\":8177:8244   */\n      tag_220\n        /* \"#utility.yul\":8241:8243   */\n      0x15\n        /* \"#utility.yul\":8236:8239   */\n      dup4\n        /* \"#utility.yul\":8177:8244   */\n      tag_118\n      jump\t// in\n    tag_220:\n        /* \"#utility.yul\":8170:8244   */\n      swap2\n      pop\n        /* \"#utility.yul\":8253:8346   */\n      tag_221\n        /* \"#utility.yul\":8342:8345   */\n      dup3\n        /* \"#utility.yul\":8253:8346   */\n      tag_129\n      jump\t// in\n    tag_221:\n        /* \"#utility.yul\":8371:8373   */\n      0x20\n        /* \"#utility.yul\":8366:8369   */\n      dup3\n        /* \"#utility.yul\":8362:8374   */\n      add\n        /* \"#utility.yul\":8355:8374   */\n      swap1\n      pop\n        /* \"#utility.yul\":8014:8380   */\n      swap2\n      swap1\n      pop\n      jump\t// out\n        /* \"#utility.yul\":8386:8915   */\n    tag_76:\n        /* \"#utility.yul\":8580:8584   */\n      0x00\n        /* \"#utility.yul\":8618:8620   */\n      0x40\n        /* \"#utility.yul\":8607:8616   */\n      dup3\n        /* \"#utility.yul\":8603:8621   */\n      add\n        /* \"#utility.yul\":8595:8621   */\n      swap1\n      pop\n        /* \"#utility.yul\":8631:8702   */\n      tag_223\n        /* \"#utility.yul\":8699:8700   */\n      0x00\n        /* \"#utility.yul\":8688:8697   */\n      dup4\n        /* \"#utility.yul\":8684:8701   */\n      add\n        /* \"#utility.yul\":8675:8681   */\n      dup5\n        /* \"#utility.yul\":8631:8702   */\n      tag_121\n      jump\t// in\n    tag_223:\n        /* \"#utility.yul\":8749:8758   */\n      dup2\n        /* \"#utility.yul\":8743:8747   */\n      dup2\n        /* \"#utility.yul\":8739:8759   */\n      sub\n        /* \"#utility.yul\":8734:8736   */\n      0x20\n        /* \"#utility.yul\":8723:8732   */\n      dup4\n        /* \"#utility.yul\":8719:8737   */\n      add\n        /* \"#utility.yul\":8712:8760   */\n      mstore\n        /* \"#utility.yul\":8777:8908   */\n      tag_224\n        /* \"#utility.yul\":8903:8907   */\n      dup2\n        /* \"#utility.yul\":8777:8908   */\n      tag_130\n      jump\t// in\n    tag_224:\n        /* \"#utility.yul\":8769:8908   */\n      swap1\n      pop\n        /* \"#utility.yul\":8386:8915   */\n      swap3\n      swap2\n      pop\n      pop\n      jump\t// out\n        /* \"#utility.yul\":8921:9142   */\n    tag_131:\n        /* \"#utility.yul\":9061:9095   */\n      0x204f6e6c79204f776e65722063616e204164642062656e656665696369617269\n        /* \"#utility.yul\":9057:9058   */\n      0x00\n        /* \"#utility.yul\":9049:9055   */\n      dup3\n        /* \"#utility.yul\":9045:9059   */\n      add\n        /* \"#utility.yul\":9038:9096   */\n      mstore\n        /* \"#utility.yul\":9130:9134   */\n      0x6573000000000000000000000000000000000000000000000000000000000000\n        /* \"#utility.yul\":9125:9127   */\n      0x20\n        /* \"#utility.yul\":9117:9123   */\n      dup3\n        /* \"#utility.yul\":9113:9128   */\n      add\n        /* \"#utility.yul\":9106:9135   */\n      mstore\n        /* \"#utility.yul\":8921:9142   */\n      pop\n      jump\t// out\n        /* \"#utility.yul\":9148:9514   */\n    tag_132:\n        /* \"#utility.yul\":9290:9293   */\n      0x00\n        /* \"#utility.yul\":9311:9378   */\n      tag_227\n        /* \"#utility.yul\":9375:9377   */\n      0x22\n        /* \"#utility.yul\":9370:9373   */\n      dup4\n        /* \"#utility.yul\":9311:9378   */\n      tag_118\n      jump\t// in\n    tag_227:\n        /* \"#utility.yul\":9304:9378   */\n      swap2\n      pop\n        /* \"#utility.yul\":9387:9480   */\n      tag_228\n        /* \"#utility.yul\":9476:9479   */\n      dup3\n        /* \"#utility.yul\":9387:9480   */\n      tag_131\n      jump\t// in\n    tag_228:\n        /* \"#utility.yul\":9505:9507   */\n      0x40\n        /* \"#utility.yul\":9500:9503   */\n      dup3\n        /* \"#utility.yul\":9496:9508   */\n      add\n        /* \"#utility.yul\":9489:9508   */\n      swap1\n      pop\n        /* \"#utility.yul\":9148:9514   */\n      swap2\n      swap1\n      pop\n      jump\t// out\n        /* \"#utility.yul\":9520:9939   */\n    tag_79:\n        /* \"#utility.yul\":9686:9690   */\n      0x00\n        /* \"#utility.yul\":9724:9726   */\n      0x20\n        /* \"#utility.yul\":9713:9722   */\n      dup3\n        /* \"#utility.yul\":9709:9727   */\n      add\n        /* \"#utility.yul\":9701:9727   */\n      swap1\n      pop\n        /* \"#utility.yul\":9773:9782   */\n      dup2\n        /* \"#utility.yul\":9767:9771   */\n      dup2\n        /* \"#utility.yul\":9763:9783   */\n      sub\n        /* \"#utility.yul\":9759:9760   */\n      0x00\n        /* \"#utility.yul\":9748:9757   */\n      dup4\n        /* \"#utility.yul\":9744:9761   */\n      add\n        /* \"#utility.yul\":9737:9784   */\n      mstore\n        /* \"#utility.yul\":9801:9932   */\n      tag_230\n        /* \"#utility.yul\":9927:9931   */\n      dup2\n        /* \"#utility.yul\":9801:9932   */\n      tag_132\n      jump\t// in\n    tag_230:\n        /* \"#utility.yul\":9793:9932   */\n      swap1\n      pop\n        /* \"#utility.yul\":9520:9939   */\n      swap2\n      swap1\n      pop\n      jump\t// out\n        /* \"#utility.yul\":9945:10168   */\n    tag_133:\n        /* \"#utility.yul\":10085:10119   */\n      0x546f6b656e7320617265204c6f636b656420696e20736d61727420636f6e7472\n        /* \"#utility.yul\":10081:10082   */\n      0x00\n        /* \"#utility.yul\":10073:10079   */\n      dup3\n        /* \"#utility.yul\":10069:10083   */\n      add\n        /* \"#utility.yul\":10062:10120   */\n      mstore\n        /* \"#utility.yul\":10154:10160   */\n      0x6163742000000000000000000000000000000000000000000000000000000000\n        /* \"#utility.yul\":10149:10151   */\n      0x20\n        /* \"#utility.yul\":10141:10147   */\n      dup3\n        /* \"#utility.yul\":10137:10152   */\n      add\n        /* \"#utility.yul\":10130:10161   */\n      mstore\n        /* \"#utility.yul\":9945:10168   */\n      pop\n      jump\t// out\n        /* \"#utility.yul\":10174:10540   */\n    tag_134:\n        /* \"#utility.yul\":10316:10319   */\n      0x00\n        /* \"#utility.yul\":10337:10404   */\n      tag_233\n        /* \"#utility.yul\":10401:10403   */\n      0x24\n        /* \"#utility.yul\":10396:10399   */\n      dup4\n        /* \"#utility.yul\":10337:10404   */\n      tag_118\n      jump\t// in\n    tag_233:\n        /* \"#utility.yul\":10330:10404   */\n      swap2\n      pop\n        /* \"#utility.yul\":10413:10506   */\n      tag_234\n        /* \"#utility.yul\":10502:10505   */\n      dup3\n        /* \"#utility.yul\":10413:10506   */\n      tag_133\n      jump\t// in\n    tag_234:\n        /* \"#utility.yul\":10531:10533   */\n      0x40\n        /* \"#utility.yul\":10526:10529   */\n      dup3\n        /* \"#utility.yul\":10522:10534   */\n      add\n        /* \"#utility.yul\":10515:10534   */\n      swap1\n      pop\n        /* \"#utility.yul\":10174:10540   */\n      swap2\n      swap1\n      pop\n      jump\t// out\n        /* \"#utility.yul\":10546:11075   */\n    tag_86:\n        /* \"#utility.yul\":10740:10744   */\n      0x00\n        /* \"#utility.yul\":10778:10780   */\n      0x40\n        /* \"#utility.yul\":10767:10776   */\n      dup3\n        /* \"#utility.yul\":10763:10781   */\n      add\n        /* \"#utility.yul\":10755:10781   */\n      swap1\n      pop\n        /* \"#utility.yul\":10791:10862   */\n      tag_236\n        /* \"#utility.yul\":10859:10860   */\n      0x00\n        /* \"#utility.yul\":10848:10857   */\n      dup4\n        /* \"#utility.yul\":10844:10861   */\n      add\n        /* \"#utility.yul\":10835:10841   */\n      dup5\n        /* \"#utility.yul\":10791:10862   */\n      tag_121\n      jump\t// in\n    tag_236:\n        /* \"#utility.yul\":10909:10918   */\n      dup2\n        /* \"#utility.yul\":10903:10907   */\n      dup2\n        /* \"#utility.yul\":10899:10919   */\n      sub\n        /* \"#utility.yul\":10894:10896   */\n      0x20\n        /* \"#utility.yul\":10883:10892   */\n      dup4\n        /* \"#utility.yul\":10879:10897   */\n      add\n        /* \"#utility.yul\":10872:10920   */\n      mstore\n        /* \"#utility.yul\":10937:11068   */\n      tag_237\n        /* \"#utility.yul\":11063:11067   */\n      dup2\n        /* \"#utility.yul\":10937:11068   */\n      tag_134\n      jump\t// in\n    tag_237:\n        /* \"#utility.yul\":10929:11068   */\n      swap1\n      pop\n        /* \"#utility.yul\":10546:11075   */\n      swap3\n      swap2\n      pop\n      pop\n      jump\t// out\n        /* \"#utility.yul\":11081:11261   */\n    tag_135:\n        /* \"#utility.yul\":11129:11206   */\n      0x4e487b7100000000000000000000000000000000000000000000000000000000\n        /* \"#utility.yul\":11126:11127   */\n      0x00\n        /* \"#utility.yul\":11119:11207   */\n      mstore\n        /* \"#utility.yul\":11226:11230   */\n      0x11\n        /* \"#utility.yul\":11223:11224   */\n      0x04\n        /* \"#utility.yul\":11216:11231   */\n      mstore\n        /* \"#utility.yul\":11250:11254   */\n      0x24\n        /* \"#utility.yul\":11247:11248   */\n      0x00\n        /* \"#utility.yul\":11240:11255   */\n      revert\n        /* \"#utility.yul\":11267:11461   */\n    tag_90:\n        /* \"#utility.yul\":11307:11311   */\n      0x00\n        /* \"#utility.yul\":11327:11347   */\n      tag_240\n        /* \"#utility.yul\":11345:11346   */\n      dup3\n        /* \"#utility.yul\":11327:11347   */\n      tag_102\n      jump\t// in\n    tag_240:\n        /* \"#utility.yul\":11322:11347   */\n      swap2\n      pop\n        /* \"#utility.yul\":11361:11381   */\n      tag_241\n        /* \"#utility.yul\":11379:11380   */\n      dup4\n        /* \"#utility.yul\":11361:11381   */\n      tag_102\n      jump\t// in\n    tag_241:\n        /* \"#utility.yul\":11356:11381   */\n      swap3\n      pop\n        /* \"#utility.yul\":11405:11406   */\n      dup3\n        /* \"#utility.yul\":11402:11403   */\n      dup3\n        /* \"#utility.yul\":11398:11407   */\n      sub\n        /* \"#utility.yul\":11390:11407   */\n      swap1\n      pop\n        /* \"#utility.yul\":11429:11430   */\n      dup2\n        /* \"#utility.yul\":11423:11427   */\n      dup2\n        /* \"#utility.yul\":11420:11431   */\n      gt\n        /* \"#utility.yul\":11417:11454   */\n      iszero\n      tag_242\n      jumpi\n        /* \"#utility.yul\":11434:11452   */\n      tag_243\n      tag_135\n      jump\t// in\n    tag_243:\n        /* \"#utility.yul\":11417:11454   */\n    tag_242:\n        /* \"#utility.yul\":11267:11461   */\n      swap3\n      swap2\n      pop\n      pop\n      jump\t// out\n        /* \"#utility.yul\":11467:11647   */\n    tag_136:\n        /* \"#utility.yul\":11515:11592   */\n      0x4e487b7100000000000000000000000000000000000000000000000000000000\n        /* \"#utility.yul\":11512:11513   */\n      0x00\n        /* \"#utility.yul\":11505:11593   */\n      mstore\n        /* \"#utility.yul\":11612:11616   */\n      0x12\n        /* \"#utility.yul\":11609:11610   */\n      0x04\n        /* \"#utility.yul\":11602:11617   */\n      mstore\n        /* \"#utility.yul\":11636:11640   */\n      0x24\n        /* \"#utility.yul\":11633:11634   */\n      0x00\n        /* \"#utility.yul\":11626:11641   */\n      revert\n        /* \"#utility.yul\":11653:11838   */\n    tag_92:\n        /* \"#utility.yul\":11693:11694   */\n      0x00\n        /* \"#utility.yul\":11710:11730   */\n      tag_246\n        /* \"#utility.yul\":11728:11729   */\n      dup3\n        /* \"#utility.yul\":11710:11730   */\n      tag_102\n      jump\t// in\n    tag_246:\n        /* \"#utility.yul\":11705:11730   */\n      swap2\n      pop\n        /* \"#utility.yul\":11744:11764   */\n      tag_247\n        /* \"#utility.yul\":11762:11763   */\n      dup4\n        /* \"#utility.yul\":11744:11764   */\n      tag_102\n      jump\t// in\n    tag_247:\n        /* \"#utility.yul\":11739:11764   */\n      swap3\n      pop\n        /* \"#utility.yul\":11783:11784   */\n      dup3\n        /* \"#utility.yul\":11773:11808   */\n      tag_248\n      jumpi\n        /* \"#utility.yul\":11788:11806   */\n      tag_249\n      tag_136\n      jump\t// in\n    tag_249:\n        /* \"#utility.yul\":11773:11808   */\n    tag_248:\n        /* \"#utility.yul\":11830:11831   */\n      dup3\n        /* \"#utility.yul\":11827:11828   */\n      dup3\n        /* \"#utility.yul\":11823:11832   */\n      div\n        /* \"#utility.yul\":11818:11832   */\n      swap1\n      pop\n        /* \"#utility.yul\":11653:11838   */\n      swap3\n      swap2\n      pop\n      pop\n      jump\t// out\n        /* \"#utility.yul\":11844:12254   */\n    tag_98:\n        /* \"#utility.yul\":11884:11891   */\n      0x00\n        /* \"#utility.yul\":11907:11927   */\n      tag_251\n        /* \"#utility.yul\":11925:11926   */\n      dup3\n        /* \"#utility.yul\":11907:11927   */\n      tag_102\n      jump\t// in\n    tag_251:\n        /* \"#utility.yul\":11902:11927   */\n      swap2\n      pop\n        /* \"#utility.yul\":11941:11961   */\n      tag_252\n        /* \"#utility.yul\":11959:11960   */\n      dup4\n        /* \"#utility.yul\":11941:11961   */\n      tag_102\n      jump\t// in\n    tag_252:\n        /* \"#utility.yul\":11936:11961   */\n      swap3\n      pop\n        /* \"#utility.yul\":11996:11997   */\n      dup3\n        /* \"#utility.yul\":11993:11994   */\n      dup3\n        /* \"#utility.yul\":11989:11998   */\n      mul\n        /* \"#utility.yul\":12018:12048   */\n      tag_253\n        /* \"#utility.yul\":12036:12047   */\n      dup2\n        /* \"#utility.yul\":12018:12048   */\n      tag_102\n      jump\t// in\n    tag_253:\n        /* \"#utility.yul\":12007:12048   */\n      swap2\n      pop\n        /* \"#utility.yul\":12197:12198   */\n      dup3\n        /* \"#utility.yul\":12188:12195   */\n      dup3\n        /* \"#utility.yul\":12184:12199   */\n      div\n        /* \"#utility.yul\":12181:12182   */\n      dup5\n        /* \"#utility.yul\":12178:12200   */\n      eq\n        /* \"#utility.yul\":12158:12159   */\n      dup4\n        /* \"#utility.yul\":12151:12160   */\n      iszero\n        /* \"#utility.yul\":12131:12214   */\n      or\n        /* \"#utility.yul\":12108:12247   */\n      tag_254\n      jumpi\n        /* \"#utility.yul\":12227:12245   */\n      tag_255\n      tag_135\n      jump\t// in\n    tag_255:\n        /* \"#utility.yul\":12108:12247   */\n    tag_254:\n        /* \"#utility.yul\":11892:12254   */\n      pop\n        /* \"#utility.yul\":11844:12254   */\n      swap3\n      swap2\n      pop\n      pop\n      jump\t// out\n        /* \"#utility.yul\":12260:12432   */\n    tag_137:\n        /* \"#utility.yul\":12400:12424   */\n      0x576169742054696c6c20436c69666620706572696f6400000000000000000000\n        /* \"#utility.yul\":12396:12397   */\n      0x00\n        /* \"#utility.yul\":12388:12394   */\n      dup3\n        /* \"#utility.yul\":12384:12398   */\n      add\n        /* \"#utility.yul\":12377:12425   */\n      mstore\n        /* \"#utility.yul\":12260:12432   */\n      pop\n      jump\t// out\n        /* \"#utility.yul\":12438:12804   */\n    tag_138:\n        /* \"#utility.yul\":12580:12583   */\n      0x00\n        /* \"#utility.yul\":12601:12668   */\n      tag_258\n        /* \"#utility.yul\":12665:12667   */\n      0x16\n        /* \"#utility.yul\":12660:12663   */\n      dup4\n        /* \"#utility.yul\":12601:12668   */\n      tag_118\n      jump\t// in\n    tag_258:\n        /* \"#utility.yul\":12594:12668   */\n      swap2\n      pop\n        /* \"#utility.yul\":12677:12770   */\n      tag_259\n        /* \"#utility.yul\":12766:12769   */\n      dup3\n        /* \"#utility.yul\":12677:12770   */\n      tag_137\n      jump\t// in\n    tag_259:\n        /* \"#utility.yul\":12795:12797   */\n      0x20\n        /* \"#utility.yul\":12790:12793   */\n      dup3\n        /* \"#utility.yul\":12786:12798   */\n      add\n        /* \"#utility.yul\":12779:12798   */\n      swap1\n      pop\n        /* \"#utility.yul\":12438:12804   */\n      swap2\n      swap1\n      pop\n      jump\t// out\n        /* \"#utility.yul\":12810:13229   */\n    tag_101:\n        /* \"#utility.yul\":12976:12980   */\n      0x00\n        /* \"#utility.yul\":13014:13016   */\n      0x20\n        /* \"#utility.yul\":13003:13012   */\n      dup3\n        /* \"#utility.yul\":12999:13017   */\n      add\n        /* \"#utility.yul\":12991:13017   */\n      swap1\n      pop\n        /* \"#utility.yul\":13063:13072   */\n      dup2\n        /* \"#utility.yul\":13057:13061   */\n      dup2\n        /* \"#utility.yul\":13053:13073   */\n      sub\n        /* \"#utility.yul\":13049:13050   */\n      0x00\n        /* \"#utility.yul\":13038:13047   */\n      dup4\n        /* \"#utility.yul\":13034:13051   */\n      add\n        /* \"#utility.yul\":13027:13074   */\n      mstore\n        /* \"#utility.yul\":13091:13222   */\n      tag_261\n        /* \"#utility.yul\":13217:13221   */\n      dup2\n        /* \"#utility.yul\":13091:13222   */\n      tag_138\n      jump\t// in\n    tag_261:\n        /* \"#utility.yul\":13083:13222   */\n      swap1\n      pop\n        /* \"#utility.yul\":12810:13229   */\n      swap2\n      swap1\n      pop\n      jump\t// out\n\n    auxdata: 0xa2646970667358221220a332cc75b151f513c5ed8a8937ccf6a7ac4094f54c8d13f8f4267f0e9377fc3964736f6c63430008120033\n}\n",
				"bytecode": {
					"linkReferences": {},
					"object": "60806040523480156200001157600080fd5b506040516200129838038062001298833981810160405281019062000037919062000198565b83600860006101000a81548173ffffffffffffffffffffffffffffffffffffffff021916908373ffffffffffffffffffffffffffffffffffffffff1602179055508160008190555082600181905550806002819055504260038190555033600760006101000a81548173ffffffffffffffffffffffffffffffffffffffff021916908373ffffffffffffffffffffffffffffffffffffffff160217905550505050506200020a565b600080fd5b600073ffffffffffffffffffffffffffffffffffffffff82169050919050565b60006200011182620000e4565b9050919050565b6000620001258262000104565b9050919050565b620001378162000118565b81146200014357600080fd5b50565b60008151905062000157816200012c565b92915050565b6000819050919050565b62000172816200015d565b81146200017e57600080fd5b50565b600081519050620001928162000167565b92915050565b60008060008060808587031215620001b557620001b4620000df565b5b6000620001c58782880162000146565b9450506020620001d88782880162000181565b9350506040620001eb8782880162000181565b9250506060620001fe8782880162000181565b91505092959194509250565b61107e806200021a6000396000f3fe608060405234801561001057600080fd5b50600436106100a95760003560e01c806387b0be481161007157806387b0be481461015657806396074e7014610172578063b1c255861461018e578063c4684e9d146101aa578063cb9199a2146101da578063fc0c546a1461020a576100a9565b80630fb5a6b4146100ae57806313d033c0146100cc5780635afd6eb8146100ea57806370ff852b1461010857806378e9792514610138575b600080fd5b6100b6610228565b6040516100c39190610928565b60405180910390f35b6100d461022e565b6040516100e19190610928565b60405180910390f35b6100f2610234565b6040516100ff9190610928565b60405180910390f35b610122600480360381019061011d91906109a6565b61023a565b60405161012f9190610928565b60405180910390f35b610140610252565b60405161014d9190610928565b60405180910390f35b610170600480360381019061016b91906109a6565b610258565b005b61018c600480360381019061018791906109ff565b6104e3565b005b6101a860048036038101906101a391906109ff565b6105f2565b005b6101c460048036038101906101bf91906109a6565b610795565b6040516101d19190610928565b60405180910390f35b6101f460048036038101906101ef91906109a6565b6108d1565b6040516102019190610928565b60405180910390f35b6102126108e9565b60405161021f9190610a9e565b60405180910390f35b60005481565b60015481565b60025481565b60066020528060005260406000206000915090505481565b60035481565b80600061026483610795565b9050600460008473ffffffffffffffffffffffffffffffffffffffff1673ffffffffffffffffffffffffffffffffffffffff168152602001908152602001600020548111156102e8576040517f08c379a00000000000000000000000000000000000000000000000000000000081526004016102df90610b3c565b60405180910390fd5b80600660008573ffffffffffffffffffffffffffffffffffffffff1673ffffffffffffffffffffffffffffffffffffffff16815260200190815260200160002081905550600860009054906101000a900473ffffffffffffffffffffffffffffffffffffffff1673ffffffffffffffffffffffffffffffffffffffff1663a9059cbb84836040518363ffffffff1660e01b8152600401610389929190610b6b565b6020604051808303816000875af11580156103a8573d6000803e3d6000fd5b505050506040513d601f19601f820116820180604052508101906103cc9190610bcc565b507fa13f186497986e7b059df4137d98a76d0cb346d0e9a294755b01975e190434a9836040516103fc9190610c6b565b60405180910390a1506000600460008373ffffffffffffffffffffffffffffffffffffffff1673ffffffffffffffffffffffffffffffffffffffff1681526020019081526020016000205411806104a05750600760009054906101000a900473ffffffffffffffffffffffffffffffffffffffff1673ffffffffffffffffffffffffffffffffffffffff163373ffffffffffffffffffffffffffffffffffffffff16145b6104df576040517f08c379a00000000000000000000000000000000000000000000000000000000081526004016104d690610d0b565b60405180910390fd5b5050565b80600460008473ffffffffffffffffffffffffffffffffffffffff1673ffffffffffffffffffffffffffffffffffffffff168152602001908152602001600020819055507f557197374edb4e72999d5d4c84ca4715c58797739aab2f2b7e300db81b4cd1c3826040516105569190610d77565b60405180910390a1600760009054906101000a900473ffffffffffffffffffffffffffffffffffffffff1673ffffffffffffffffffffffffffffffffffffffff163373ffffffffffffffffffffffffffffffffffffffff16146105ee576040517f08c379a00000000000000000000000000000000000000000000000000000000081526004016105e590610e17565b60405180910390fd5b5050565b80600460008473ffffffffffffffffffffffffffffffffffffffff1673ffffffffffffffffffffffffffffffffffffffff16815260200190815260200160002081905550600460008373ffffffffffffffffffffffffffffffffffffffff1673ffffffffffffffffffffffffffffffffffffffff16815260200190815260200160002054600560008473ffffffffffffffffffffffffffffffffffffffff1673ffffffffffffffffffffffffffffffffffffffff16815260200190815260200160002081905550600860009054906101000a900473ffffffffffffffffffffffffffffffffffffffff1673ffffffffffffffffffffffffffffffffffffffff1663a9059cbb30836040518363ffffffff1660e01b8152600401610716929190610b6b565b6020604051808303816000875af1158015610735573d6000803e3d6000fd5b505050506040513d601f19601f820116820180604052508101906107599190610bcc565b507f58061f685b438748cf21469042b11fe4dfb0c77fd2da64032c5adc017fc09a88826040516107899190610ea9565b60405180910390a15050565b600080600354426107a69190610f06565b90506000600254826107b89190610f69565b905060006002546000546107cc9190610f69565b905080821061081f57600460008673ffffffffffffffffffffffffffffffffffffffff1673ffffffffffffffffffffffffffffffffffffffff168152602001908152602001600020549350505050610887565b600081600460008873ffffffffffffffffffffffffffffffffffffffff1673ffffffffffffffffffffffffffffffffffffffff1681526020019081526020016000205461086c9190610f69565b90506000838261087c9190610f9a565b905080955050505050505b6001544210156108cc576040517f08c379a00000000000000000000000000000000000000000000000000000000081526004016108c390611028565b60405180910390fd5b919050565b60056020528060005260406000206000915090505481565b600860009054906101000a900473ffffffffffffffffffffffffffffffffffffffff1681565b6000819050919050565b6109228161090f565b82525050565b600060208201905061093d6000830184610919565b92915050565b600080fd5b600073ffffffffffffffffffffffffffffffffffffffff82169050919050565b600061097382610948565b9050919050565b61098381610968565b811461098e57600080fd5b50565b6000813590506109a08161097a565b92915050565b6000602082840312156109bc576109bb610943565b5b60006109ca84828501610991565b91505092915050565b6109dc8161090f565b81146109e757600080fd5b50565b6000813590506109f9816109d3565b92915050565b60008060408385031215610a1657610a15610943565b5b6000610a2485828601610991565b9250506020610a35858286016109ea565b9150509250929050565b6000819050919050565b6000610a64610a5f610a5a84610948565b610a3f565b610948565b9050919050565b6000610a7682610a49565b9050919050565b6000610a8882610a6b565b9050919050565b610a9881610a7d565b82525050565b6000602082019050610ab36000830184610a8f565b92915050565b600082825260208201905092915050565b7f546f6b656e7320436c61696d696e67206172652067726561746572207468616e60008201527f20746f6b656e73206c6f636b6564000000000000000000000000000000000000602082015250565b6000610b26602e83610ab9565b9150610b3182610aca565b604082019050919050565b60006020820190508181036000830152610b5581610b19565b9050919050565b610b6581610968565b82525050565b6000604082019050610b806000830185610b5c565b610b8d6020830184610919565b9392505050565b60008115159050919050565b610ba981610b94565b8114610bb457600080fd5b50565b600081519050610bc681610ba0565b92915050565b600060208284031215610be257610be1610943565b5b6000610bf084828501610bb7565b91505092915050565b7f546f6b656e73206172652052656c656173656420696e206163636f756e74206f60008201527f662062656e656669636961727920000000000000000000000000000000000000602082015250565b6000610c55602e83610ab9565b9150610c6082610bf9565b604082019050919050565b6000604082019050610c806000830184610b5c565b8181036020830152610c9181610c48565b905092915050565b7f4f6e6c792042656e6566696369617279204f72204f776e65722063616e20526560008201527f6c6561736520546f6b656e730000000000000000000000000000000000000000602082015250565b6000610cf5602c83610ab9565b9150610d0082610c99565b604082019050919050565b60006020820190508181036000830152610d2481610ce8565b9050919050565b7f4e65772042656e65666963696172792041646465640000000000000000000000600082015250565b6000610d61601583610ab9565b9150610d6c82610d2b565b602082019050919050565b6000604082019050610d8c6000830184610b5c565b8181036020830152610d9d81610d54565b905092915050565b7f204f6e6c79204f776e65722063616e204164642062656e65666569636961726960008201527f6573000000000000000000000000000000000000000000000000000000000000602082015250565b6000610e01602283610ab9565b9150610e0c82610da5565b604082019050919050565b60006020820190508181036000830152610e3081610df4565b9050919050565b7f546f6b656e7320617265204c6f636b656420696e20736d61727420636f6e747260008201527f6163742000000000000000000000000000000000000000000000000000000000602082015250565b6000610e93602483610ab9565b9150610e9e82610e37565b604082019050919050565b6000604082019050610ebe6000830184610b5c565b8181036020830152610ecf81610e86565b905092915050565b7f4e487b7100000000000000000000000000000000000000000000000000000000600052601160045260246000fd5b6000610f118261090f565b9150610f1c8361090f565b9250828203905081811115610f3457610f33610ed7565b5b92915050565b7f4e487b7100000000000000000000000000000000000000000000000000000000600052601260045260246000fd5b6000610f748261090f565b9150610f7f8361090f565b925082610f8f57610f8e610f3a565b5b828204905092915050565b6000610fa58261090f565b9150610fb08361090f565b9250828202610fbe8161090f565b91508282048414831517610fd557610fd4610ed7565b5b5092915050565b7f576169742054696c6c20436c69666620706572696f6400000000000000000000600082015250565b6000611012601683610ab9565b915061101d82610fdc565b602082019050919050565b6000602082019050818103600083015261104181611005565b905091905056fea2646970667358221220a332cc75b151f513c5ed8a8937ccf6a7ac4094f54c8d13f8f4267f0e9377fc3964736f6c63430008120033",
					"opcodes": "PUSH1 0x80 PUSH1 0x40 MSTORE CALLVALUE DUP1 ISZERO PUSH3 0x11 JUMPI PUSH1 0x0 DUP1 REVERT JUMPDEST POP PUSH1 0x40 MLOAD PUSH3 0x1298 CODESIZE SUB DUP1 PUSH3 0x1298 DUP4 CODECOPY DUP2 DUP2 ADD PUSH1 0x40 MSTORE DUP2 ADD SWAP1 PUSH3 0x37 SWAP2 SWAP1 PUSH3 0x198 JUMP JUMPDEST DUP4 PUSH1 0x8 PUSH1 0x0 PUSH2 0x100 EXP DUP2 SLOAD DUP2 PUSH20 0xFFFFFFFFFFFFFFFFFFFFFFFFFFFFFFFFFFFFFFFF MUL NOT AND SWAP1 DUP4 PUSH20 0xFFFFFFFFFFFFFFFFFFFFFFFFFFFFFFFFFFFFFFFF AND MUL OR SWAP1 SSTORE POP DUP2 PUSH1 0x0 DUP2 SWAP1 SSTORE POP DUP3 PUSH1 0x1 DUP2 SWAP1 SSTORE POP DUP1 PUSH1 0x2 DUP2 SWAP1 SSTORE POP TIMESTAMP PUSH1 0x3 DUP2 SWAP1 SSTORE POP CALLER PUSH1 0x7 PUSH1 0x0 PUSH2 0x100 EXP DUP2 SLOAD DUP2 PUSH20 0xFFFFFFFFFFFFFFFFFFFFFFFFFFFFFFFFFFFFFFFF MUL NOT AND SWAP1 DUP4 PUSH20 0xFFFFFFFFFFFFFFFFFFFFFFFFFFFFFFFFFFFFFFFF AND MUL OR SWAP1 SSTORE POP POP POP POP POP PUSH3 0x20A JUMP JUMPDEST PUSH1 0x0 DUP1 REVERT JUMPDEST PUSH1 0x0 PUSH20 0xFFFFFFFFFFFFFFFFFFFFFFFFFFFFFFFFFFFFFFFF DUP3 AND SWAP1 POP SWAP2 SWAP1 POP JUMP JUMPDEST PUSH1 0x0 PUSH3 0x111 DUP3 PUSH3 0xE4 JUMP JUMPDEST SWAP1 POP SWAP2 SWAP1 POP JUMP JUMPDEST PUSH1 0x0 PUSH3 0x125 DUP3 PUSH3 0x104 JUMP JUMPDEST SWAP1 POP SWAP2 SWAP1 POP JUMP JUMPDEST PUSH3 0x137 DUP2 PUSH3 0x118 JUMP JUMPDEST DUP2 EQ PUSH3 0x143 JUMPI PUSH1 0x0 DUP1 REVERT JUMPDEST POP JUMP JUMPDEST PUSH1 0x0 DUP2 MLOAD SWAP1 POP PUSH3 0x157 DUP2 PUSH3 0x12C JUMP JUMPDEST SWAP3 SWAP2 POP POP JUMP JUMPDEST PUSH1 0x0 DUP2 SWAP1 POP SWAP2 SWAP1 POP JUMP JUMPDEST PUSH3 0x172 DUP2 PUSH3 0x15D JUMP JUMPDEST DUP2 EQ PUSH3 0x17E JUMPI PUSH1 0x0 DUP1 REVERT JUMPDEST POP JUMP JUMPDEST PUSH1 0x0 DUP2 MLOAD SWAP1 POP PUSH3 0x192 DUP2 PUSH3 0x167 JUMP JUMPDEST SWAP3 SWAP2 POP POP JUMP JUMPDEST PUSH1 0x0 DUP1 PUSH1 0x0 DUP1 PUSH1 0x80 DUP6 DUP8 SUB SLT ISZERO PUSH3 0x1B5 JUMPI PUSH3 0x1B4 PUSH3 0xDF JUMP JUMPDEST JUMPDEST PUSH1 0x0 PUSH3 0x1C5 DUP8 DUP3 DUP9 ADD PUSH3 0x146 JUMP JUMPDEST SWAP5 POP POP PUSH1 0x20 PUSH3 0x1D8 DUP8 DUP3 DUP9 ADD PUSH3 0x181 JUMP JUMPDEST SWAP4 POP POP PUSH1 0x40 PUSH3 0x1EB DUP8 DUP3 DUP9 ADD PUSH3 0x181 JUMP JUMPDEST SWAP3 POP POP PUSH1 0x60 PUSH3 0x1FE DUP8 DUP3 DUP9 ADD PUSH3 0x181 JUMP JUMPDEST SWAP2 POP POP SWAP3 SWAP6 SWAP2 SWAP5 POP SWAP3 POP JUMP JUMPDEST PUSH2 0x107E DUP1 PUSH3 0x21A PUSH1 0x0 CODECOPY PUSH1 0x0 RETURN INVALID PUSH1 0x80 PUSH1 0x40 MSTORE CALLVALUE DUP1 ISZERO PUSH2 0x10 JUMPI PUSH1 0x0 DUP1 REVERT JUMPDEST POP PUSH1 0x4 CALLDATASIZE LT PUSH2 0xA9 JUMPI PUSH1 0x0 CALLDATALOAD PUSH1 0xE0 SHR DUP1 PUSH4 0x87B0BE48 GT PUSH2 0x71 JUMPI DUP1 PUSH4 0x87B0BE48 EQ PUSH2 0x156 JUMPI DUP1 PUSH4 0x96074E70 EQ PUSH2 0x172 JUMPI DUP1 PUSH4 0xB1C25586 EQ PUSH2 0x18E JUMPI DUP1 PUSH4 0xC4684E9D EQ PUSH2 0x1AA JUMPI DUP1 PUSH4 0xCB9199A2 EQ PUSH2 0x1DA JUMPI DUP1 PUSH4 0xFC0C546A EQ PUSH2 0x20A JUMPI PUSH2 0xA9 JUMP JUMPDEST DUP1 PUSH4 0xFB5A6B4 EQ PUSH2 0xAE JUMPI DUP1 PUSH4 0x13D033C0 EQ PUSH2 0xCC JUMPI DUP1 PUSH4 0x5AFD6EB8 EQ PUSH2 0xEA JUMPI DUP1 PUSH4 0x70FF852B EQ PUSH2 0x108 JUMPI DUP1 PUSH4 0x78E97925 EQ PUSH2 0x138 JUMPI JUMPDEST PUSH1 0x0 DUP1 REVERT JUMPDEST PUSH2 0xB6 PUSH2 0x228 JUMP JUMPDEST PUSH1 0x40 MLOAD PUSH2 0xC3 SWAP2 SWAP1 PUSH2 0x928 JUMP JUMPDEST PUSH1 0x40 MLOAD DUP1 SWAP2 SUB SWAP1 RETURN JUMPDEST PUSH2 0xD4 PUSH2 0x22E JUMP JUMPDEST PUSH1 0x40 MLOAD PUSH2 0xE1 SWAP2 SWAP1 PUSH2 0x928 JUMP JUMPDEST PUSH1 0x40 MLOAD DUP1 SWAP2 SUB SWAP1 RETURN JUMPDEST PUSH2 0xF2 PUSH2 0x234 JUMP JUMPDEST PUSH1 0x40 MLOAD PUSH2 0xFF SWAP2 SWAP1 PUSH2 0x928 JUMP JUMPDEST PUSH1 0x40 MLOAD DUP1 SWAP2 SUB SWAP1 RETURN JUMPDEST PUSH2 0x122 PUSH1 0x4 DUP1 CALLDATASIZE SUB DUP2 ADD SWAP1 PUSH2 0x11D SWAP2 SWAP1 PUSH2 0x9A6 JUMP JUMPDEST PUSH2 0x23A JUMP JUMPDEST PUSH1 0x40 MLOAD PUSH2 0x12F SWAP2 SWAP1 PUSH2 0x928 JUMP JUMPDEST PUSH1 0x40 MLOAD DUP1 SWAP2 SUB SWAP1 RETURN JUMPDEST PUSH2 0x140 PUSH2 0x252 JUMP JUMPDEST PUSH1 0x40 MLOAD PUSH2 0x14D SWAP2 SWAP1 PUSH2 0x928 JUMP JUMPDEST PUSH1 0x40 MLOAD DUP1 SWAP2 SUB SWAP1 RETURN JUMPDEST PUSH2 0x170 PUSH1 0x4 DUP1 CALLDATASIZE SUB DUP2 ADD SWAP1 PUSH2 0x16B SWAP2 SWAP1 PUSH2 0x9A6 JUMP JUMPDEST PUSH2 0x258 JUMP JUMPDEST STOP JUMPDEST PUSH2 0x18C PUSH1 0x4 DUP1 CALLDATASIZE SUB DUP2 ADD SWAP1 PUSH2 0x187 SWAP2 SWAP1 PUSH2 0x9FF JUMP JUMPDEST PUSH2 0x4E3 JUMP JUMPDEST STOP JUMPDEST PUSH2 0x1A8 PUSH1 0x4 DUP1 CALLDATASIZE SUB DUP2 ADD SWAP1 PUSH2 0x1A3 SWAP2 SWAP1 PUSH2 0x9FF JUMP JUMPDEST PUSH2 0x5F2 JUMP JUMPDEST STOP JUMPDEST PUSH2 0x1C4 PUSH1 0x4 DUP1 CALLDATASIZE SUB DUP2 ADD SWAP1 PUSH2 0x1BF SWAP2 SWAP1 PUSH2 0x9A6 JUMP JUMPDEST PUSH2 0x795 JUMP JUMPDEST PUSH1 0x40 MLOAD PUSH2 0x1D1 SWAP2 SWAP1 PUSH2 0x928 JUMP JUMPDEST PUSH1 0x40 MLOAD DUP1 SWAP2 SUB SWAP1 RETURN JUMPDEST PUSH2 0x1F4 PUSH1 0x4 DUP1 CALLDATASIZE SUB DUP2 ADD SWAP1 PUSH2 0x1EF SWAP2 SWAP1 PUSH2 0x9A6 JUMP JUMPDEST PUSH2 0x8D1 JUMP JUMPDEST PUSH1 0x40 MLOAD PUSH2 0x201 SWAP2 SWAP1 PUSH2 0x928 JUMP JUMPDEST PUSH1 0x40 MLOAD DUP1 SWAP2 SUB SWAP1 RETURN JUMPDEST PUSH2 0x212 PUSH2 0x8E9 JUMP JUMPDEST PUSH1 0x40 MLOAD PUSH2 0x21F SWAP2 SWAP1 PUSH2 0xA9E JUMP JUMPDEST PUSH1 0x40 MLOAD DUP1 SWAP2 SUB SWAP1 RETURN JUMPDEST PUSH1 0x0 SLOAD DUP2 JUMP JUMPDEST PUSH1 0x1 SLOAD DUP2 JUMP JUMPDEST PUSH1 0x2 SLOAD DUP2 JUMP JUMPDEST PUSH1 0x6 PUSH1 0x20 MSTORE DUP1 PUSH1 0x0 MSTORE PUSH1 0x40 PUSH1 0x0 KECCAK256 PUSH1 0x0 SWAP2 POP SWAP1 POP SLOAD DUP2 JUMP JUMPDEST PUSH1 0x3 SLOAD DUP2 JUMP JUMPDEST DUP1 PUSH1 0x0 PUSH2 0x264 DUP4 PUSH2 0x795 JUMP JUMPDEST SWAP1 POP PUSH1 0x4 PUSH1 0x0 DUP5 PUSH20 0xFFFFFFFFFFFFFFFFFFFFFFFFFFFFFFFFFFFFFFFF AND PUSH20 0xFFFFFFFFFFFFFFFFFFFFFFFFFFFFFFFFFFFFFFFF AND DUP2 MSTORE PUSH1 0x20 ADD SWAP1 DUP2 MSTORE PUSH1 0x20 ADD PUSH1 0x0 KECCAK256 SLOAD DUP2 GT ISZERO PUSH2 0x2E8 JUMPI PUSH1 0x40 MLOAD PUSH32 0x8C379A000000000000000000000000000000000000000000000000000000000 DUP2 MSTORE PUSH1 0x4 ADD PUSH2 0x2DF SWAP1 PUSH2 0xB3C JUMP JUMPDEST PUSH1 0x40 MLOAD DUP1 SWAP2 SUB SWAP1 REVERT JUMPDEST DUP1 PUSH1 0x6 PUSH1 0x0 DUP6 PUSH20 0xFFFFFFFFFFFFFFFFFFFFFFFFFFFFFFFFFFFFFFFF AND PUSH20 0xFFFFFFFFFFFFFFFFFFFFFFFFFFFFFFFFFFFFFFFF AND DUP2 MSTORE PUSH1 0x20 ADD SWAP1 DUP2 MSTORE PUSH1 0x20 ADD PUSH1 0x0 KECCAK256 DUP2 SWAP1 SSTORE POP PUSH1 0x8 PUSH1 0x0 SWAP1 SLOAD SWAP1 PUSH2 0x100 EXP SWAP1 DIV PUSH20 0xFFFFFFFFFFFFFFFFFFFFFFFFFFFFFFFFFFFFFFFF AND PUSH20 0xFFFFFFFFFFFFFFFFFFFFFFFFFFFFFFFFFFFFFFFF AND PUSH4 0xA9059CBB DUP5 DUP4 PUSH1 0x40 MLOAD DUP4 PUSH4 0xFFFFFFFF AND PUSH1 0xE0 SHL DUP2 MSTORE PUSH1 0x4 ADD PUSH2 0x389 SWAP3 SWAP2 SWAP1 PUSH2 0xB6B JUMP JUMPDEST PUSH1 0x20 PUSH1 0x40 MLOAD DUP1 DUP4 SUB DUP2 PUSH1 0x0 DUP8 GAS CALL ISZERO DUP1 ISZERO PUSH2 0x3A8 JUMPI RETURNDATASIZE PUSH1 0x0 DUP1 RETURNDATACOPY RETURNDATASIZE PUSH1 0x0 REVERT JUMPDEST POP POP POP POP PUSH1 0x40 MLOAD RETURNDATASIZE PUSH1 0x1F NOT PUSH1 0x1F DUP3 ADD AND DUP3 ADD DUP1 PUSH1 0x40 MSTORE POP DUP2 ADD SWAP1 PUSH2 0x3CC SWAP2 SWAP1 PUSH2 0xBCC JUMP JUMPDEST POP PUSH32 0xA13F186497986E7B059DF4137D98A76D0CB346D0E9A294755B01975E190434A9 DUP4 PUSH1 0x40 MLOAD PUSH2 0x3FC SWAP2 SWAP1 PUSH2 0xC6B JUMP JUMPDEST PUSH1 0x40 MLOAD DUP1 SWAP2 SUB SWAP1 LOG1 POP PUSH1 0x0 PUSH1 0x4 PUSH1 0x0 DUP4 PUSH20 0xFFFFFFFFFFFFFFFFFFFFFFFFFFFFFFFFFFFFFFFF AND PUSH20 0xFFFFFFFFFFFFFFFFFFFFFFFFFFFFFFFFFFFFFFFF AND DUP2 MSTORE PUSH1 0x20 ADD SWAP1 DUP2 MSTORE PUSH1 0x20 ADD PUSH1 0x0 KECCAK256 SLOAD GT DUP1 PUSH2 0x4A0 JUMPI POP PUSH1 0x7 PUSH1 0x0 SWAP1 SLOAD SWAP1 PUSH2 0x100 EXP SWAP1 DIV PUSH20 0xFFFFFFFFFFFFFFFFFFFFFFFFFFFFFFFFFFFFFFFF AND PUSH20 0xFFFFFFFFFFFFFFFFFFFFFFFFFFFFFFFFFFFFFFFF AND CALLER PUSH20 0xFFFFFFFFFFFFFFFFFFFFFFFFFFFFFFFFFFFFFFFF AND EQ JUMPDEST PUSH2 0x4DF JUMPI PUSH1 0x40 MLOAD PUSH32 0x8C379A000000000000000000000000000000000000000000000000000000000 DUP2 MSTORE PUSH1 0x4 ADD PUSH2 0x4D6 SWAP1 PUSH2 0xD0B JUMP JUMPDEST PUSH1 0x40 MLOAD DUP1 SWAP2 SUB SWAP1 REVERT JUMPDEST POP POP JUMP JUMPDEST DUP1 PUSH1 0x4 PUSH1 0x0 DUP5 PUSH20 0xFFFFFFFFFFFFFFFFFFFFFFFFFFFFFFFFFFFFFFFF AND PUSH20 0xFFFFFFFFFFFFFFFFFFFFFFFFFFFFFFFFFFFFFFFF AND DUP2 MSTORE PUSH1 0x20 ADD SWAP1 DUP2 MSTORE PUSH1 0x20 ADD PUSH1 0x0 KECCAK256 DUP2 SWAP1 SSTORE POP PUSH32 0x557197374EDB4E72999D5D4C84CA4715C58797739AAB2F2B7E300DB81B4CD1C3 DUP3 PUSH1 0x40 MLOAD PUSH2 0x556 SWAP2 SWAP1 PUSH2 0xD77 JUMP JUMPDEST PUSH1 0x40 MLOAD DUP1 SWAP2 SUB SWAP1 LOG1 PUSH1 0x7 PUSH1 0x0 SWAP1 SLOAD SWAP1 PUSH2 0x100 EXP SWAP1 DIV PUSH20 0xFFFFFFFFFFFFFFFFFFFFFFFFFFFFFFFFFFFFFFFF AND PUSH20 0xFFFFFFFFFFFFFFFFFFFFFFFFFFFFFFFFFFFFFFFF AND CALLER PUSH20 0xFFFFFFFFFFFFFFFFFFFFFFFFFFFFFFFFFFFFFFFF AND EQ PUSH2 0x5EE JUMPI PUSH1 0x40 MLOAD PUSH32 0x8C379A000000000000000000000000000000000000000000000000000000000 DUP2 MSTORE PUSH1 0x4 ADD PUSH2 0x5E5 SWAP1 PUSH2 0xE17 JUMP JUMPDEST PUSH1 0x40 MLOAD DUP1 SWAP2 SUB SWAP1 REVERT JUMPDEST POP POP JUMP JUMPDEST DUP1 PUSH1 0x4 PUSH1 0x0 DUP5 PUSH20 0xFFFFFFFFFFFFFFFFFFFFFFFFFFFFFFFFFFFFFFFF AND PUSH20 0xFFFFFFFFFFFFFFFFFFFFFFFFFFFFFFFFFFFFFFFF AND DUP2 MSTORE PUSH1 0x20 ADD SWAP1 DUP2 MSTORE PUSH1 0x20 ADD PUSH1 0x0 KECCAK256 DUP2 SWAP1 SSTORE POP PUSH1 0x4 PUSH1 0x0 DUP4 PUSH20 0xFFFFFFFFFFFFFFFFFFFFFFFFFFFFFFFFFFFFFFFF AND PUSH20 0xFFFFFFFFFFFFFFFFFFFFFFFFFFFFFFFFFFFFFFFF AND DUP2 MSTORE PUSH1 0x20 ADD SWAP1 DUP2 MSTORE PUSH1 0x20 ADD PUSH1 0x0 KECCAK256 SLOAD PUSH1 0x5 PUSH1 0x0 DUP5 PUSH20 0xFFFFFFFFFFFFFFFFFFFFFFFFFFFFFFFFFFFFFFFF AND PUSH20 0xFFFFFFFFFFFFFFFFFFFFFFFFFFFFFFFFFFFFFFFF AND DUP2 MSTORE PUSH1 0x20 ADD SWAP1 DUP2 MSTORE PUSH1 0x20 ADD PUSH1 0x0 KECCAK256 DUP2 SWAP1 SSTORE POP PUSH1 0x8 PUSH1 0x0 SWAP1 SLOAD SWAP1 PUSH2 0x100 EXP SWAP1 DIV PUSH20 0xFFFFFFFFFFFFFFFFFFFFFFFFFFFFFFFFFFFFFFFF AND PUSH20 0xFFFFFFFFFFFFFFFFFFFFFFFFFFFFFFFFFFFFFFFF AND PUSH4 0xA9059CBB ADDRESS DUP4 PUSH1 0x40 MLOAD DUP4 PUSH4 0xFFFFFFFF AND PUSH1 0xE0 SHL DUP2 MSTORE PUSH1 0x4 ADD PUSH2 0x716 SWAP3 SWAP2 SWAP1 PUSH2 0xB6B JUMP JUMPDEST PUSH1 0x20 PUSH1 0x40 MLOAD DUP1 DUP4 SUB DUP2 PUSH1 0x0 DUP8 GAS CALL ISZERO DUP1 ISZERO PUSH2 0x735 JUMPI RETURNDATASIZE PUSH1 0x0 DUP1 RETURNDATACOPY RETURNDATASIZE PUSH1 0x0 REVERT JUMPDEST POP POP POP POP PUSH1 0x40 MLOAD RETURNDATASIZE PUSH1 0x1F NOT PUSH1 0x1F DUP3 ADD AND DUP3 ADD DUP1 PUSH1 0x40 MSTORE POP DUP2 ADD SWAP1 PUSH2 0x759 SWAP2 SWAP1 PUSH2 0xBCC JUMP JUMPDEST POP PUSH32 0x58061F685B438748CF21469042B11FE4DFB0C77FD2DA64032C5ADC017FC09A88 DUP3 PUSH1 0x40 MLOAD PUSH2 0x789 SWAP2 SWAP1 PUSH2 0xEA9 JUMP JUMPDEST PUSH1 0x40 MLOAD DUP1 SWAP2 SUB SWAP1 LOG1 POP POP JUMP JUMPDEST PUSH1 0x0 DUP1 PUSH1 0x3 SLOAD TIMESTAMP PUSH2 0x7A6 SWAP2 SWAP1 PUSH2 0xF06 JUMP JUMPDEST SWAP1 POP PUSH1 0x0 PUSH1 0x2 SLOAD DUP3 PUSH2 0x7B8 SWAP2 SWAP1 PUSH2 0xF69 JUMP JUMPDEST SWAP1 POP PUSH1 0x0 PUSH1 0x2 SLOAD PUSH1 0x0 SLOAD PUSH2 0x7CC SWAP2 SWAP1 PUSH2 0xF69 JUMP JUMPDEST SWAP1 POP DUP1 DUP3 LT PUSH2 0x81F JUMPI PUSH1 0x4 PUSH1 0x0 DUP7 PUSH20 0xFFFFFFFFFFFFFFFFFFFFFFFFFFFFFFFFFFFFFFFF AND PUSH20 0xFFFFFFFFFFFFFFFFFFFFFFFFFFFFFFFFFFFFFFFF AND DUP2 MSTORE PUSH1 0x20 ADD SWAP1 DUP2 MSTORE PUSH1 0x20 ADD PUSH1 0x0 KECCAK256 SLOAD SWAP4 POP POP POP POP PUSH2 0x887 JUMP JUMPDEST PUSH1 0x0 DUP2 PUSH1 0x4 PUSH1 0x0 DUP9 PUSH20 0xFFFFFFFFFFFFFFFFFFFFFFFFFFFFFFFFFFFFFFFF AND PUSH20 0xFFFFFFFFFFFFFFFFFFFFFFFFFFFFFFFFFFFFFFFF AND DUP2 MSTORE PUSH1 0x20 ADD SWAP1 DUP2 MSTORE PUSH1 0x20 ADD PUSH1 0x0 KECCAK256 SLOAD PUSH2 0x86C SWAP2 SWAP1 PUSH2 0xF69 JUMP JUMPDEST SWAP1 POP PUSH1 0x0 DUP4 DUP3 PUSH2 0x87C SWAP2 SWAP1 PUSH2 0xF9A JUMP JUMPDEST SWAP1 POP DUP1 SWAP6 POP POP POP POP POP POP JUMPDEST PUSH1 0x1 SLOAD TIMESTAMP LT ISZERO PUSH2 0x8CC JUMPI PUSH1 0x40 MLOAD PUSH32 0x8C379A000000000000000000000000000000000000000000000000000000000 DUP2 MSTORE PUSH1 0x4 ADD PUSH2 0x8C3 SWAP1 PUSH2 0x1028 JUMP JUMPDEST PUSH1 0x40 MLOAD DUP1 SWAP2 SUB SWAP1 REVERT JUMPDEST SWAP2 SWAP1 POP JUMP JUMPDEST PUSH1 0x5 PUSH1 0x20 MSTORE DUP1 PUSH1 0x0 MSTORE PUSH1 0x40 PUSH1 0x0 KECCAK256 PUSH1 0x0 SWAP2 POP SWAP1 POP SLOAD DUP2 JUMP JUMPDEST PUSH1 0x8 PUSH1 0x0 SWAP1 SLOAD SWAP1 PUSH2 0x100 EXP SWAP1 DIV PUSH20 0xFFFFFFFFFFFFFFFFFFFFFFFFFFFFFFFFFFFFFFFF AND DUP2 JUMP JUMPDEST PUSH1 0x0 DUP2 SWAP1 POP SWAP2 SWAP1 POP JUMP JUMPDEST PUSH2 0x922 DUP2 PUSH2 0x90F JUMP JUMPDEST DUP3 MSTORE POP POP JUMP JUMPDEST PUSH1 0x0 PUSH1 0x20 DUP3 ADD SWAP1 POP PUSH2 0x93D PUSH1 0x0 DUP4 ADD DUP5 PUSH2 0x919 JUMP JUMPDEST SWAP3 SWAP2 POP POP JUMP JUMPDEST PUSH1 0x0 DUP1 REVERT JUMPDEST PUSH1 0x0 PUSH20 0xFFFFFFFFFFFFFFFFFFFFFFFFFFFFFFFFFFFFFFFF DUP3 AND SWAP1 POP SWAP2 SWAP1 POP JUMP JUMPDEST PUSH1 0x0 PUSH2 0x973 DUP3 PUSH2 0x948 JUMP JUMPDEST SWAP1 POP SWAP2 SWAP1 POP JUMP JUMPDEST PUSH2 0x983 DUP2 PUSH2 0x968 JUMP JUMPDEST DUP2 EQ PUSH2 0x98E JUMPI PUSH1 0x0 DUP1 REVERT JUMPDEST POP JUMP JUMPDEST PUSH1 0x0 DUP2 CALLDATALOAD SWAP1 POP PUSH2 0x9A0 DUP2 PUSH2 0x97A JUMP JUMPDEST SWAP3 SWAP2 POP POP JUMP JUMPDEST PUSH1 0x0 PUSH1 0x20 DUP3 DUP5 SUB SLT ISZERO PUSH2 0x9BC JUMPI PUSH2 0x9BB PUSH2 0x943 JUMP JUMPDEST JUMPDEST PUSH1 0x0 PUSH2 0x9CA DUP5 DUP3 DUP6 ADD PUSH2 0x991 JUMP JUMPDEST SWAP2 POP POP SWAP3 SWAP2 POP POP JUMP JUMPDEST PUSH2 0x9DC DUP2 PUSH2 0x90F JUMP JUMPDEST DUP2 EQ PUSH2 0x9E7 JUMPI PUSH1 0x0 DUP1 REVERT JUMPDEST POP JUMP JUMPDEST PUSH1 0x0 DUP2 CALLDATALOAD SWAP1 POP PUSH2 0x9F9 DUP2 PUSH2 0x9D3 JUMP JUMPDEST SWAP3 SWAP2 POP POP JUMP JUMPDEST PUSH1 0x0 DUP1 PUSH1 0x40 DUP4 DUP6 SUB SLT ISZERO PUSH2 0xA16 JUMPI PUSH2 0xA15 PUSH2 0x943 JUMP JUMPDEST JUMPDEST PUSH1 0x0 PUSH2 0xA24 DUP6 DUP3 DUP7 ADD PUSH2 0x991 JUMP JUMPDEST SWAP3 POP POP PUSH1 0x20 PUSH2 0xA35 DUP6 DUP3 DUP7 ADD PUSH2 0x9EA JUMP JUMPDEST SWAP2 POP POP SWAP3 POP SWAP3 SWAP1 POP JUMP JUMPDEST PUSH1 0x0 DUP2 SWAP1 POP SWAP2 SWAP1 POP JUMP JUMPDEST PUSH1 0x0 PUSH2 0xA64 PUSH2 0xA5F PUSH2 0xA5A DUP5 PUSH2 0x948 JUMP JUMPDEST PUSH2 0xA3F JUMP JUMPDEST PUSH2 0x948 JUMP JUMPDEST SWAP1 POP SWAP2 SWAP1 POP JUMP JUMPDEST PUSH1 0x0 PUSH2 0xA76 DUP3 PUSH2 0xA49 JUMP JUMPDEST SWAP1 POP SWAP2 SWAP1 POP JUMP JUMPDEST PUSH1 0x0 PUSH2 0xA88 DUP3 PUSH2 0xA6B JUMP JUMPDEST SWAP1 POP SWAP2 SWAP1 POP JUMP JUMPDEST PUSH2 0xA98 DUP2 PUSH2 0xA7D JUMP JUMPDEST DUP3 MSTORE POP POP JUMP JUMPDEST PUSH1 0x0 PUSH1 0x20 DUP3 ADD SWAP1 POP PUSH2 0xAB3 PUSH1 0x0 DUP4 ADD DUP5 PUSH2 0xA8F JUMP JUMPDEST SWAP3 SWAP2 POP POP JUMP JUMPDEST PUSH1 0x0 DUP3 DUP3 MSTORE PUSH1 0x20 DUP3 ADD SWAP1 POP SWAP3 SWAP2 POP POP JUMP JUMPDEST PUSH32 0x546F6B656E7320436C61696D696E67206172652067726561746572207468616E PUSH1 0x0 DUP3 ADD MSTORE PUSH32 0x20746F6B656E73206C6F636B6564000000000000000000000000000000000000 PUSH1 0x20 DUP3 ADD MSTORE POP JUMP JUMPDEST PUSH1 0x0 PUSH2 0xB26 PUSH1 0x2E DUP4 PUSH2 0xAB9 JUMP JUMPDEST SWAP2 POP PUSH2 0xB31 DUP3 PUSH2 0xACA JUMP JUMPDEST PUSH1 0x40 DUP3 ADD SWAP1 POP SWAP2 SWAP1 POP JUMP JUMPDEST PUSH1 0x0 PUSH1 0x20 DUP3 ADD SWAP1 POP DUP2 DUP2 SUB PUSH1 0x0 DUP4 ADD MSTORE PUSH2 0xB55 DUP2 PUSH2 0xB19 JUMP JUMPDEST SWAP1 POP SWAP2 SWAP1 POP JUMP JUMPDEST PUSH2 0xB65 DUP2 PUSH2 0x968 JUMP JUMPDEST DUP3 MSTORE POP POP JUMP JUMPDEST PUSH1 0x0 PUSH1 0x40 DUP3 ADD SWAP1 POP PUSH2 0xB80 PUSH1 0x0 DUP4 ADD DUP6 PUSH2 0xB5C JUMP JUMPDEST PUSH2 0xB8D PUSH1 0x20 DUP4 ADD DUP5 PUSH2 0x919 JUMP JUMPDEST SWAP4 SWAP3 POP POP POP JUMP JUMPDEST PUSH1 0x0 DUP2 ISZERO ISZERO SWAP1 POP SWAP2 SWAP1 POP JUMP JUMPDEST PUSH2 0xBA9 DUP2 PUSH2 0xB94 JUMP JUMPDEST DUP2 EQ PUSH2 0xBB4 JUMPI PUSH1 0x0 DUP1 REVERT JUMPDEST POP JUMP JUMPDEST PUSH1 0x0 DUP2 MLOAD SWAP1 POP PUSH2 0xBC6 DUP2 PUSH2 0xBA0 JUMP JUMPDEST SWAP3 SWAP2 POP POP JUMP JUMPDEST PUSH1 0x0 PUSH1 0x20 DUP3 DUP5 SUB SLT ISZERO PUSH2 0xBE2 JUMPI PUSH2 0xBE1 PUSH2 0x943 JUMP JUMPDEST JUMPDEST PUSH1 0x0 PUSH2 0xBF0 DUP5 DUP3 DUP6 ADD PUSH2 0xBB7 JUMP JUMPDEST SWAP2 POP POP SWAP3 SWAP2 POP POP JUMP JUMPDEST PUSH32 0x546F6B656E73206172652052656C656173656420696E206163636F756E74206F PUSH1 0x0 DUP3 ADD MSTORE PUSH32 0x662062656E656669636961727920000000000000000000000000000000000000 PUSH1 0x20 DUP3 ADD MSTORE POP JUMP JUMPDEST PUSH1 0x0 PUSH2 0xC55 PUSH1 0x2E DUP4 PUSH2 0xAB9 JUMP JUMPDEST SWAP2 POP PUSH2 0xC60 DUP3 PUSH2 0xBF9 JUMP JUMPDEST PUSH1 0x40 DUP3 ADD SWAP1 POP SWAP2 SWAP1 POP JUMP JUMPDEST PUSH1 0x0 PUSH1 0x40 DUP3 ADD SWAP1 POP PUSH2 0xC80 PUSH1 0x0 DUP4 ADD DUP5 PUSH2 0xB5C JUMP JUMPDEST DUP2 DUP2 SUB PUSH1 0x20 DUP4 ADD MSTORE PUSH2 0xC91 DUP2 PUSH2 0xC48 JUMP JUMPDEST SWAP1 POP SWAP3 SWAP2 POP POP JUMP JUMPDEST PUSH32 0x4F6E6C792042656E6566696369617279204F72204F776E65722063616E205265 PUSH1 0x0 DUP3 ADD MSTORE PUSH32 0x6C6561736520546F6B656E730000000000000000000000000000000000000000 PUSH1 0x20 DUP3 ADD MSTORE POP JUMP JUMPDEST PUSH1 0x0 PUSH2 0xCF5 PUSH1 0x2C DUP4 PUSH2 0xAB9 JUMP JUMPDEST SWAP2 POP PUSH2 0xD00 DUP3 PUSH2 0xC99 JUMP JUMPDEST PUSH1 0x40 DUP3 ADD SWAP1 POP SWAP2 SWAP1 POP JUMP JUMPDEST PUSH1 0x0 PUSH1 0x20 DUP3 ADD SWAP1 POP DUP2 DUP2 SUB PUSH1 0x0 DUP4 ADD MSTORE PUSH2 0xD24 DUP2 PUSH2 0xCE8 JUMP JUMPDEST SWAP1 POP SWAP2 SWAP1 POP JUMP JUMPDEST PUSH32 0x4E65772042656E65666963696172792041646465640000000000000000000000 PUSH1 0x0 DUP3 ADD MSTORE POP JUMP JUMPDEST PUSH1 0x0 PUSH2 0xD61 PUSH1 0x15 DUP4 PUSH2 0xAB9 JUMP JUMPDEST SWAP2 POP PUSH2 0xD6C DUP3 PUSH2 0xD2B JUMP JUMPDEST PUSH1 0x20 DUP3 ADD SWAP1 POP SWAP2 SWAP1 POP JUMP JUMPDEST PUSH1 0x0 PUSH1 0x40 DUP3 ADD SWAP1 POP PUSH2 0xD8C PUSH1 0x0 DUP4 ADD DUP5 PUSH2 0xB5C JUMP JUMPDEST DUP2 DUP2 SUB PUSH1 0x20 DUP4 ADD MSTORE PUSH2 0xD9D DUP2 PUSH2 0xD54 JUMP JUMPDEST SWAP1 POP SWAP3 SWAP2 POP POP JUMP JUMPDEST PUSH32 0x204F6E6C79204F776E65722063616E204164642062656E656665696369617269 PUSH1 0x0 DUP3 ADD MSTORE PUSH32 0x6573000000000000000000000000000000000000000000000000000000000000 PUSH1 0x20 DUP3 ADD MSTORE POP JUMP JUMPDEST PUSH1 0x0 PUSH2 0xE01 PUSH1 0x22 DUP4 PUSH2 0xAB9 JUMP JUMPDEST SWAP2 POP PUSH2 0xE0C DUP3 PUSH2 0xDA5 JUMP JUMPDEST PUSH1 0x40 DUP3 ADD SWAP1 POP SWAP2 SWAP1 POP JUMP JUMPDEST PUSH1 0x0 PUSH1 0x20 DUP3 ADD SWAP1 POP DUP2 DUP2 SUB PUSH1 0x0 DUP4 ADD MSTORE PUSH2 0xE30 DUP2 PUSH2 0xDF4 JUMP JUMPDEST SWAP1 POP SWAP2 SWAP1 POP JUMP JUMPDEST PUSH32 0x546F6B656E7320617265204C6F636B656420696E20736D61727420636F6E7472 PUSH1 0x0 DUP3 ADD MSTORE PUSH32 0x6163742000000000000000000000000000000000000000000000000000000000 PUSH1 0x20 DUP3 ADD MSTORE POP JUMP JUMPDEST PUSH1 0x0 PUSH2 0xE93 PUSH1 0x24 DUP4 PUSH2 0xAB9 JUMP JUMPDEST SWAP2 POP PUSH2 0xE9E DUP3 PUSH2 0xE37 JUMP JUMPDEST PUSH1 0x40 DUP3 ADD SWAP1 POP SWAP2 SWAP1 POP JUMP JUMPDEST PUSH1 0x0 PUSH1 0x40 DUP3 ADD SWAP1 POP PUSH2 0xEBE PUSH1 0x0 DUP4 ADD DUP5 PUSH2 0xB5C JUMP JUMPDEST DUP2 DUP2 SUB PUSH1 0x20 DUP4 ADD MSTORE PUSH2 0xECF DUP2 PUSH2 0xE86 JUMP JUMPDEST SWAP1 POP SWAP3 SWAP2 POP POP JUMP JUMPDEST PUSH32 0x4E487B7100000000000000000000000000000000000000000000000000000000 PUSH1 0x0 MSTORE PUSH1 0x11 PUSH1 0x4 MSTORE PUSH1 0x24 PUSH1 0x0 REVERT JUMPDEST PUSH1 0x0 PUSH2 0xF11 DUP3 PUSH2 0x90F JUMP JUMPDEST SWAP2 POP PUSH2 0xF1C DUP4 PUSH2 0x90F JUMP JUMPDEST SWAP3 POP DUP3 DUP3 SUB SWAP1 POP DUP2 DUP2 GT ISZERO PUSH2 0xF34 JUMPI PUSH2 0xF33 PUSH2 0xED7 JUMP JUMPDEST JUMPDEST SWAP3 SWAP2 POP POP JUMP JUMPDEST PUSH32 0x4E487B7100000000000000000000000000000000000000000000000000000000 PUSH1 0x0 MSTORE PUSH1 0x12 PUSH1 0x4 MSTORE PUSH1 0x24 PUSH1 0x0 REVERT JUMPDEST PUSH1 0x0 PUSH2 0xF74 DUP3 PUSH2 0x90F JUMP JUMPDEST SWAP2 POP PUSH2 0xF7F DUP4 PUSH2 0x90F JUMP JUMPDEST SWAP3 POP DUP3 PUSH2 0xF8F JUMPI PUSH2 0xF8E PUSH2 0xF3A JUMP JUMPDEST JUMPDEST DUP3 DUP3 DIV SWAP1 POP SWAP3 SWAP2 POP POP JUMP JUMPDEST PUSH1 0x0 PUSH2 0xFA5 DUP3 PUSH2 0x90F JUMP JUMPDEST SWAP2 POP PUSH2 0xFB0 DUP4 PUSH2 0x90F JUMP JUMPDEST SWAP3 POP DUP3 DUP3 MUL PUSH2 0xFBE DUP2 PUSH2 0x90F JUMP JUMPDEST SWAP2 POP DUP3 DUP3 DIV DUP5 EQ DUP4 ISZERO OR PUSH2 0xFD5 JUMPI PUSH2 0xFD4 PUSH2 0xED7 JUMP JUMPDEST JUMPDEST POP SWAP3 SWAP2 POP POP JUMP JUMPDEST PUSH32 0x576169742054696C6C20436C69666620706572696F6400000000000000000000 PUSH1 0x0 DUP3 ADD MSTORE POP JUMP JUMPDEST PUSH1 0x0 PUSH2 0x1012 PUSH1 0x16 DUP4 PUSH2 0xAB9 JUMP JUMPDEST SWAP2 POP PUSH2 0x101D DUP3 PUSH2 0xFDC JUMP JUMPDEST PUSH1 0x20 DUP3 ADD SWAP1 POP SWAP2 SWAP1 POP JUMP JUMPDEST PUSH1 0x0 PUSH1 0x20 DUP3 ADD SWAP1 POP DUP2 DUP2 SUB PUSH1 0x0 DUP4 ADD MSTORE PUSH2 0x1041 DUP2 PUSH2 0x1005 JUMP JUMPDEST SWAP1 POP SWAP2 SWAP1 POP JUMP INVALID LOG2 PUSH5 0x6970667358 0x22 SLT KECCAK256 LOG3 ORIGIN 0xCC PUSH22 0xB151F513C5ED8A8937CCF6A7AC4094F54C8D13F8F426 PUSH32 0xE9377FC3964736F6C6343000812003300000000000000000000000000000000 "
				},
				"gasEstimates": {
					"creation": {
						"codeDepositCost": "844400",
						"executionCost": "infinite",
						"totalCost": "infinite"
					},
					"external": {
						"addBeneficiary(address,uint256)": "infinite",
						"cliff()": "2452",
						"duration()": "2430",
						"lockTokens(address,uint256)": "infinite",
						"releasableTokens(address)": "infinite",
						"releaseTokens(address)": "infinite",
						"releasedTokens(address)": "2881",
						"slicePeriod()": "2474",
						"startTime()": "2518",
						"token()": "infinite",
						"totalTokens(address)": "2902"
					}
				},
				"methodIdentifiers": {
					"addBeneficiary(address,uint256)": "96074e70",
					"cliff()": "13d033c0",
					"duration()": "0fb5a6b4",
					"lockTokens(address,uint256)": "b1c25586",
					"releasableTokens(address)": "c4684e9d",
					"releaseTokens(address)": "87b0be48",
					"releasedTokens(address)": "70ff852b",
					"slicePeriod()": "5afd6eb8",
					"startTime()": "78e97925",
					"token()": "fc0c546a",
					"totalTokens(address)": "cb9199a2"
				}
			},
			"storageLayout": {
				"storage": [
					{
						"astId": 82,
						"contract": "contracts/TokenVesting.sol:TokenVesting",
						"label": "duration",
						"offset": 0,
						"slot": "0",
						"type": "t_uint256"
					},
					{
						"astId": 84,
						"contract": "contracts/TokenVesting.sol:TokenVesting",
						"label": "cliff",
						"offset": 0,
						"slot": "1",
						"type": "t_uint256"
					},
					{
						"astId": 86,
						"contract": "contracts/TokenVesting.sol:TokenVesting",
						"label": "slicePeriod",
						"offset": 0,
						"slot": "2",
						"type": "t_uint256"
					},
					{
						"astId": 88,
						"contract": "contracts/TokenVesting.sol:TokenVesting",
						"label": "startTime",
						"offset": 0,
						"slot": "3",
						"type": "t_uint256"
					},
					{
						"astId": 92,
						"contract": "contracts/TokenVesting.sol:TokenVesting",
						"label": "beneficiaries",
						"offset": 0,
						"slot": "4",
						"type": "t_mapping(t_address,t_uint256)"
					},
					{
						"astId": 96,
						"contract": "contracts/TokenVesting.sol:TokenVesting",
						"label": "totalTokens",
						"offset": 0,
						"slot": "5",
						"type": "t_mapping(t_address,t_uint256)"
					},
					{
						"astId": 100,
						"contract": "contracts/TokenVesting.sol:TokenVesting",
						"label": "releasedTokens",
						"offset": 0,
						"slot": "6",
						"type": "t_mapping(t_address,t_uint256)"
					},
					{
						"astId": 102,
						"contract": "contracts/TokenVesting.sol:TokenVesting",
						"label": "owner",
						"offset": 0,
						"slot": "7",
						"type": "t_address"
					},
					{
						"astId": 105,
						"contract": "contracts/TokenVesting.sol:TokenVesting",
						"label": "token",
						"offset": 0,
						"slot": "8",
						"type": "t_contract(IERC20)77"
					}
				],
				"types": {
					"t_address": {
						"encoding": "inplace",
						"label": "address",
						"numberOfBytes": "20"
					},
					"t_contract(IERC20)77": {
						"encoding": "inplace",
						"label": "contract IERC20",
						"numberOfBytes": "20"
					},
					"t_mapping(t_address,t_uint256)": {
						"encoding": "mapping",
						"key": "t_address",
						"label": "mapping(address => uint256)",
						"numberOfBytes": "32",
						"value": "t_uint256"
					},
					"t_uint256": {
						"encoding": "inplace",
						"label": "uint256",
						"numberOfBytes": "32"
					}
				}
			},
			"userdoc": {
				"kind": "user",
				"methods": {},
				"version": 1
			}
		}
	}
}