{
	"contracts/TokenVesting.sol": {
		"TokenVesting": {
			"abi": [
				{
					"inputs": [
						{
							"internalType": "contract IERC20",
							"name": "_token",
							"type": "address"
						}
					],
					"stateMutability": "nonpayable",
					"type": "constructor"
				},
				{
					"anonymous": false,
					"inputs": [
						{
							"indexed": false,
							"internalType": "address",
							"name": "beneficiary",
							"type": "address"
						},
						{
							"indexed": false,
							"internalType": "string",
							"name": "message",
							"type": "string"
						}
					],
					"name": "AddBeneficiaryEvent",
					"type": "event"
				},
				{
					"anonymous": false,
					"inputs": [
						{
							"indexed": false,
							"internalType": "address",
							"name": "beneficiary",
							"type": "address"
						},
						{
							"indexed": false,
							"internalType": "string",
							"name": "message",
							"type": "string"
						}
					],
					"name": "LockTokensEvent",
					"type": "event"
				},
				{
					"anonymous": false,
					"inputs": [
						{
							"indexed": false,
							"internalType": "address",
							"name": "beneficiary",
							"type": "address"
						},
						{
							"indexed": false,
							"internalType": "string",
							"name": "message",
							"type": "string"
						}
					],
					"name": "ReleaseTokensEvent",
					"type": "event"
				},
				{
					"inputs": [
						{
							"internalType": "address",
							"name": "_beneficiary",
							"type": "address"
						},
						{
							"internalType": "uint256",
							"name": "tokensToLock",
							"type": "uint256"
						}
					],
					"name": "addBeneficiary",
					"outputs": [],
					"stateMutability": "nonpayable",
					"type": "function"
				},
				{
					"inputs": [
						{
							"internalType": "address",
							"name": "",
							"type": "address"
						}
					],
					"name": "beneficiaries",
					"outputs": [
						{
							"internalType": "uint256",
							"name": "",
							"type": "uint256"
						}
					],
					"stateMutability": "view",
					"type": "function"
				},
				{
					"inputs": [
						{
							"internalType": "address",
							"name": "",
							"type": "address"
						}
					],
					"name": "cliff",
					"outputs": [
						{
							"internalType": "uint256",
							"name": "",
							"type": "uint256"
						}
					],
					"stateMutability": "view",
					"type": "function"
				},
				{
					"inputs": [
						{
							"internalType": "address",
							"name": "",
							"type": "address"
						}
					],
					"name": "duration",
					"outputs": [
						{
							"internalType": "uint256",
							"name": "",
							"type": "uint256"
						}
					],
					"stateMutability": "view",
					"type": "function"
				},
				{
					"inputs": [
						{
							"internalType": "address",
							"name": "_beneficiary",
							"type": "address"
						},
						{
							"internalType": "uint256",
							"name": "tokensAmount",
							"type": "uint256"
						},
						{
							"internalType": "uint256",
							"name": "_cliff",
							"type": "uint256"
						},
						{
							"internalType": "uint256",
							"name": "_duration",
							"type": "uint256"
						},
						{
							"internalType": "uint256",
							"name": "_slicePeriod",
							"type": "uint256"
						}
					],
					"name": "lockTokens",
					"outputs": [],
					"stateMutability": "nonpayable",
					"type": "function"
				},
				{
					"inputs": [
						{
							"internalType": "address",
							"name": "_beneficiary",
							"type": "address"
						}
					],
					"name": "releasableTokens",
					"outputs": [
						{
							"internalType": "uint256",
							"name": "",
							"type": "uint256"
						}
					],
					"stateMutability": "view",
					"type": "function"
				},
				{
					"inputs": [
						{
							"internalType": "address",
							"name": "_beneficiary",
							"type": "address"
						}
					],
					"name": "releaseTokens",
					"outputs": [],
					"stateMutability": "nonpayable",
					"type": "function"
				},
				{
					"inputs": [
						{
							"internalType": "address",
							"name": "",
							"type": "address"
						}
					],
					"name": "releasedTokens",
					"outputs": [
						{
							"internalType": "uint256",
							"name": "",
							"type": "uint256"
						}
					],
					"stateMutability": "view",
					"type": "function"
				},
				{
					"inputs": [
						{
							"internalType": "address",
							"name": "",
							"type": "address"
						}
					],
					"name": "slicePeriod",
					"outputs": [
						{
							"internalType": "uint256",
							"name": "",
							"type": "uint256"
						}
					],
					"stateMutability": "view",
					"type": "function"
				},
				{
					"inputs": [
						{
							"internalType": "address",
							"name": "",
							"type": "address"
						}
					],
					"name": "startTime",
					"outputs": [
						{
							"internalType": "uint256",
							"name": "",
							"type": "uint256"
						}
					],
					"stateMutability": "view",
					"type": "function"
				},
				{
					"inputs": [],
					"name": "token",
					"outputs": [
						{
							"internalType": "contract IERC20",
							"name": "",
							"type": "address"
						}
					],
					"stateMutability": "view",
					"type": "function"
				},
				{
					"inputs": [
						{
							"internalType": "address",
							"name": "",
							"type": "address"
						}
					],
					"name": "totalTokens",
					"outputs": [
						{
							"internalType": "uint256",
							"name": "",
							"type": "uint256"
						}
					],
					"stateMutability": "view",
					"type": "function"
				}
			],
			"devdoc": {
				"kind": "dev",
				"methods": {},
				"version": 1
			},
			"evm": {
				"assembly": "    /* \"contracts/TokenVesting.sol\":121:3638  contract TokenVesting{... */\n  mstore(0x40, 0x80)\n    /* \"contracts/TokenVesting.sol\":543:609  constructor(IERC20 _token){... */\n  callvalue\n  dup1\n  iszero\n  tag_1\n  jumpi\n  0x00\n  dup1\n  revert\ntag_1:\n  pop\n  mload(0x40)\n  sub(codesize, bytecodeSize)\n  dup1\n  bytecodeSize\n  dup4\n  codecopy\n  dup2\n  dup2\n  add\n  0x40\n  mstore\n  dup2\n  add\n  swap1\n  tag_2\n  swap2\n  swap1\n  tag_3\n  jump\t// in\ntag_2:\n    /* \"contracts/TokenVesting.sol\":586:592  _token */\n  dup1\n    /* \"contracts/TokenVesting.sol\":580:585  token */\n  0x08\n  0x00\n    /* \"contracts/TokenVesting.sol\":580:592  token=_token */\n  0x0100\n  exp\n  dup2\n  sload\n  dup2\n  0xffffffffffffffffffffffffffffffffffffffff\n  mul\n  not\n  and\n  swap1\n  dup4\n  0xffffffffffffffffffffffffffffffffffffffff\n  and\n  mul\n  or\n  swap1\n  sstore\n  pop\n    /* \"contracts/TokenVesting.sol\":543:609  constructor(IERC20 _token){... */\n  pop\n    /* \"contracts/TokenVesting.sol\":121:3638  contract TokenVesting{... */\n  jump(tag_6)\n    /* \"#utility.yul\":88:205   */\ntag_8:\n    /* \"#utility.yul\":197:198   */\n  0x00\n    /* \"#utility.yul\":194:195   */\n  dup1\n    /* \"#utility.yul\":187:199   */\n  revert\n    /* \"#utility.yul\":334:460   */\ntag_10:\n    /* \"#utility.yul\":371:378   */\n  0x00\n    /* \"#utility.yul\":411:453   */\n  0xffffffffffffffffffffffffffffffffffffffff\n    /* \"#utility.yul\":404:409   */\n  dup3\n    /* \"#utility.yul\":400:454   */\n  and\n    /* \"#utility.yul\":389:454   */\n  swap1\n  pop\n    /* \"#utility.yul\":334:460   */\n  swap2\n  swap1\n  pop\n  jump\t// out\n    /* \"#utility.yul\":466:562   */\ntag_11:\n    /* \"#utility.yul\":503:510   */\n  0x00\n    /* \"#utility.yul\":532:556   */\n  tag_21\n    /* \"#utility.yul\":550:555   */\n  dup3\n    /* \"#utility.yul\":532:556   */\n  tag_10\n  jump\t// in\ntag_21:\n    /* \"#utility.yul\":521:556   */\n  swap1\n  pop\n    /* \"#utility.yul\":466:562   */\n  swap2\n  swap1\n  pop\n  jump\t// out\n    /* \"#utility.yul\":568:677   */\ntag_12:\n    /* \"#utility.yul\":618:625   */\n  0x00\n    /* \"#utility.yul\":647:671   */\n  tag_23\n    /* \"#utility.yul\":665:670   */\n  dup3\n    /* \"#utility.yul\":647:671   */\n  tag_11\n  jump\t// in\ntag_23:\n    /* \"#utility.yul\":636:671   */\n  swap1\n  pop\n    /* \"#utility.yul\":568:677   */\n  swap2\n  swap1\n  pop\n  jump\t// out\n    /* \"#utility.yul\":683:831   */\ntag_13:\n    /* \"#utility.yul\":769:806   */\n  tag_25\n    /* \"#utility.yul\":800:805   */\n  dup2\n    /* \"#utility.yul\":769:806   */\n  tag_12\n  jump\t// in\ntag_25:\n    /* \"#utility.yul\":762:767   */\n  dup2\n    /* \"#utility.yul\":759:807   */\n  eq\n    /* \"#utility.yul\":749:825   */\n  tag_26\n  jumpi\n    /* \"#utility.yul\":821:822   */\n  0x00\n    /* \"#utility.yul\":818:819   */\n  dup1\n    /* \"#utility.yul\":811:823   */\n  revert\n    /* \"#utility.yul\":749:825   */\ntag_26:\n    /* \"#utility.yul\":683:831   */\n  pop\n  jump\t// out\n    /* \"#utility.yul\":837:1006   */\ntag_14:\n    /* \"#utility.yul\":907:912   */\n  0x00\n    /* \"#utility.yul\":938:944   */\n  dup2\n    /* \"#utility.yul\":932:945   */\n  mload\n    /* \"#utility.yul\":923:945   */\n  swap1\n  pop\n    /* \"#utility.yul\":954:1000   */\n  tag_28\n    /* \"#utility.yul\":994:999   */\n  dup2\n    /* \"#utility.yul\":954:1000   */\n  tag_13\n  jump\t// in\ntag_28:\n    /* \"#utility.yul\":837:1006   */\n  swap3\n  swap2\n  pop\n  pop\n  jump\t// out\n    /* \"#utility.yul\":1012:1389   */\ntag_3:\n    /* \"#utility.yul\":1095:1101   */\n  0x00\n    /* \"#utility.yul\":1144:1146   */\n  0x20\n    /* \"#utility.yul\":1132:1141   */\n  dup3\n    /* \"#utility.yul\":1123:1130   */\n  dup5\n    /* \"#utility.yul\":1119:1142   */\n  sub\n    /* \"#utility.yul\":1115:1147   */\n  slt\n    /* \"#utility.yul\":1112:1231   */\n  iszero\n  tag_30\n  jumpi\n    /* \"#utility.yul\":1150:1229   */\n  tag_31\n  tag_8\n  jump\t// in\ntag_31:\n    /* \"#utility.yul\":1112:1231   */\ntag_30:\n    /* \"#utility.yul\":1270:1271   */\n  0x00\n    /* \"#utility.yul\":1295:1372   */\n  tag_32\n    /* \"#utility.yul\":1364:1371   */\n  dup5\n    /* \"#utility.yul\":1355:1361   */\n  dup3\n    /* \"#utility.yul\":1344:1353   */\n  dup6\n    /* \"#utility.yul\":1340:1362   */\n  add\n    /* \"#utility.yul\":1295:1372   */\n  tag_14\n  jump\t// in\ntag_32:\n    /* \"#utility.yul\":1285:1372   */\n  swap2\n  pop\n    /* \"#utility.yul\":1241:1382   */\n  pop\n    /* \"#utility.yul\":1012:1389   */\n  swap3\n  swap2\n  pop\n  pop\n  jump\t// out\n    /* \"contracts/TokenVesting.sol\":121:3638  contract TokenVesting{... */\ntag_6:\n  dataSize(sub_0)\n  dup1\n  dataOffset(sub_0)\n  0x00\n  codecopy\n  0x00\n  return\nstop\n\nsub_0: assembly {\n        /* \"contracts/TokenVesting.sol\":121:3638  contract TokenVesting{... */\n      mstore(0x40, 0x80)\n      callvalue\n      dup1\n      iszero\n      tag_1\n      jumpi\n      0x00\n      dup1\n      revert\n    tag_1:\n      pop\n      jumpi(tag_2, lt(calldatasize, 0x04))\n      shr(0xe0, calldataload(0x00))\n      dup1\n      0x96074e70\n      gt\n      tag_15\n      jumpi\n      dup1\n      0x96074e70\n      eq\n      tag_9\n      jumpi\n      dup1\n      0xb36760a3\n      eq\n      tag_10\n      jumpi\n      dup1\n      0xc4684e9d\n      eq\n      tag_11\n      jumpi\n      dup1\n      0xcb9199a2\n      eq\n      tag_12\n      jumpi\n      dup1\n      0xcdce101b\n      eq\n      tag_13\n      jumpi\n      dup1\n      0xfc0c546a\n      eq\n      tag_14\n      jumpi\n      jump(tag_2)\n    tag_15:\n      dup1\n      0x01567739\n      eq\n      tag_3\n      jumpi\n      dup1\n      0x3ce301e5\n      eq\n      tag_4\n      jumpi\n      dup1\n      0x506f36ec\n      eq\n      tag_5\n      jumpi\n      dup1\n      0x6e1dc66e\n      eq\n      tag_6\n      jumpi\n      dup1\n      0x70ff852b\n      eq\n      tag_7\n      jumpi\n      dup1\n      0x87b0be48\n      eq\n      tag_8\n      jumpi\n    tag_2:\n      0x00\n      dup1\n      revert\n        /* \"contracts/TokenVesting.sol\":336:379  mapping (address=>uint)public beneficiaries */\n    tag_3:\n      tag_16\n      0x04\n      dup1\n      calldatasize\n      sub\n      dup2\n      add\n      swap1\n      tag_17\n      swap2\n      swap1\n      tag_18\n      jump\t// in\n    tag_17:\n      tag_19\n      jump\t// in\n    tag_16:\n      mload(0x40)\n      tag_20\n      swap2\n      swap1\n      tag_21\n      jump\t// in\n    tag_20:\n      mload(0x40)\n      dup1\n      swap2\n      sub\n      swap1\n      return\n        /* \"contracts/TokenVesting.sol\":1590:2185  function lockTokens(address _beneficiary,uint tokensAmount,uint _cliff,uint _duration,uint _slicePeriod)  public {... */\n    tag_4:\n      tag_22\n      0x04\n      dup1\n      calldatasize\n      sub\n      dup2\n      add\n      swap1\n      tag_23\n      swap2\n      swap1\n      tag_24\n      jump\t// in\n    tag_23:\n      tag_25\n      jump\t// in\n    tag_22:\n      stop\n        /* \"contracts/TokenVesting.sol\":240:282  mapping (address=>uint) public slicePeriod */\n    tag_5:\n      tag_26\n      0x04\n      dup1\n      calldatasize\n      sub\n      dup2\n      add\n      swap1\n      tag_27\n      swap2\n      swap1\n      tag_18\n      jump\t// in\n    tag_27:\n      tag_28\n      jump\t// in\n    tag_26:\n      mload(0x40)\n      tag_29\n      swap2\n      swap1\n      tag_21\n      jump\t// in\n    tag_29:\n      mload(0x40)\n      dup1\n      swap2\n      sub\n      swap1\n      return\n        /* \"contracts/TokenVesting.sol\":289:329  mapping (address=>uint) public startTime */\n    tag_6:\n      tag_30\n      0x04\n      dup1\n      calldatasize\n      sub\n      dup2\n      add\n      swap1\n      tag_31\n      swap2\n      swap1\n      tag_18\n      jump\t// in\n    tag_31:\n      tag_32\n      jump\t// in\n    tag_30:\n      mload(0x40)\n      tag_33\n      swap2\n      swap1\n      tag_21\n      jump\t// in\n    tag_33:\n      mload(0x40)\n      dup1\n      swap2\n      sub\n      swap1\n      return\n        /* \"contracts/TokenVesting.sol\":439:488  mapping(address => uint256) public releasedTokens */\n    tag_7:\n      tag_34\n      0x04\n      dup1\n      calldatasize\n      sub\n      dup2\n      add\n      swap1\n      tag_35\n      swap2\n      swap1\n      tag_18\n      jump\t// in\n    tag_35:\n      tag_36\n      jump\t// in\n    tag_34:\n      mload(0x40)\n      tag_37\n      swap2\n      swap1\n      tag_21\n      jump\t// in\n    tag_37:\n      mload(0x40)\n      dup1\n      swap2\n      sub\n      swap1\n      return\n        /* \"contracts/TokenVesting.sol\":3108:3635  function releaseTokens(address _beneficiary) isBeneficiaryOrContractOwner(_beneficiary) public { ... */\n    tag_8:\n      tag_38\n      0x04\n      dup1\n      calldatasize\n      sub\n      dup2\n      add\n      swap1\n      tag_39\n      swap2\n      swap1\n      tag_18\n      jump\t// in\n    tag_39:\n      tag_40\n      jump\t// in\n    tag_38:\n      stop\n        /* \"contracts/TokenVesting.sol\":1349:1563  function addBeneficiary(address _beneficiary,uint tokensToLock) onlyOwner public {... */\n    tag_9:\n      tag_41\n      0x04\n      dup1\n      calldatasize\n      sub\n      dup2\n      add\n      swap1\n      tag_42\n      swap2\n      swap1\n      tag_43\n      jump\t// in\n    tag_42:\n      tag_44\n      jump\t// in\n    tag_41:\n      stop\n        /* \"contracts/TokenVesting.sol\":151:190  mapping (address=>uint) public duration */\n    tag_10:\n      tag_45\n      0x04\n      dup1\n      calldatasize\n      sub\n      dup2\n      add\n      swap1\n      tag_46\n      swap2\n      swap1\n      tag_18\n      jump\t// in\n    tag_46:\n      tag_47\n      jump\t// in\n    tag_45:\n      mload(0x40)\n      tag_48\n      swap2\n      swap1\n      tag_21\n      jump\t// in\n    tag_48:\n      mload(0x40)\n      dup1\n      swap2\n      sub\n      swap1\n      return\n        /* \"contracts/TokenVesting.sol\":2241:3066  function releasableTokens(address _beneficiary) public cliffPeriodOver(_beneficiary) view returns(uint) {... */\n    tag_11:\n      tag_49\n      0x04\n      dup1\n      calldatasize\n      sub\n      dup2\n      add\n      swap1\n      tag_50\n      swap2\n      swap1\n      tag_18\n      jump\t// in\n    tag_50:\n      tag_51\n      jump\t// in\n    tag_49:\n      mload(0x40)\n      tag_52\n      swap2\n      swap1\n      tag_21\n      jump\t// in\n    tag_52:\n      mload(0x40)\n      dup1\n      swap2\n      sub\n      swap1\n      return\n        /* \"contracts/TokenVesting.sol\":386:432  mapping(address => uint256) public totalTokens */\n    tag_12:\n      tag_53\n      0x04\n      dup1\n      calldatasize\n      sub\n      dup2\n      add\n      swap1\n      tag_54\n      swap2\n      swap1\n      tag_18\n      jump\t// in\n    tag_54:\n      tag_55\n      jump\t// in\n    tag_53:\n      mload(0x40)\n      tag_56\n      swap2\n      swap1\n      tag_21\n      jump\t// in\n    tag_56:\n      mload(0x40)\n      dup1\n      swap2\n      sub\n      swap1\n      return\n        /* \"contracts/TokenVesting.sol\":197:233  mapping (address=>uint) public cliff */\n    tag_13:\n      tag_57\n      0x04\n      dup1\n      calldatasize\n      sub\n      dup2\n      add\n      swap1\n      tag_58\n      swap2\n      swap1\n      tag_18\n      jump\t// in\n    tag_58:\n      tag_59\n      jump\t// in\n    tag_57:\n      mload(0x40)\n      tag_60\n      swap2\n      swap1\n      tag_21\n      jump\t// in\n    tag_60:\n      mload(0x40)\n      dup1\n      swap2\n      sub\n      swap1\n      return\n        /* \"contracts/TokenVesting.sol\":515:534  IERC20 public token */\n    tag_14:\n      tag_61\n      tag_62\n      jump\t// in\n    tag_61:\n      mload(0x40)\n      tag_63\n      swap2\n      swap1\n      tag_64\n      jump\t// in\n    tag_63:\n      mload(0x40)\n      dup1\n      swap2\n      sub\n      swap1\n      return\n        /* \"contracts/TokenVesting.sol\":336:379  mapping (address=>uint)public beneficiaries */\n    tag_19:\n      mstore(0x20, 0x04)\n      dup1\n      0x00\n      mstore\n      keccak256(0x00, 0x40)\n      0x00\n      swap2\n      pop\n      swap1\n      pop\n      sload\n      dup2\n      jump\t// out\n        /* \"contracts/TokenVesting.sol\":1590:2185  function lockTokens(address _beneficiary,uint tokensAmount,uint _cliff,uint _duration,uint _slicePeriod)  public {... */\n    tag_25:\n        /* \"contracts/TokenVesting.sol\":1737:1746  _duration */\n      dup2\n        /* \"contracts/TokenVesting.sol\":1714:1722  duration */\n      0x00\n        /* \"contracts/TokenVesting.sol\":1714:1736  duration[_beneficiary] */\n      dup1\n        /* \"contracts/TokenVesting.sol\":1723:1735  _beneficiary */\n      dup8\n        /* \"contracts/TokenVesting.sol\":1714:1736  duration[_beneficiary] */\n      0xffffffffffffffffffffffffffffffffffffffff\n      and\n      0xffffffffffffffffffffffffffffffffffffffff\n      and\n      dup2\n      mstore\n      0x20\n      add\n      swap1\n      dup2\n      mstore\n      0x20\n      add\n      0x00\n      keccak256\n        /* \"contracts/TokenVesting.sol\":1714:1746  duration[_beneficiary]=_duration */\n      dup2\n      swap1\n      sstore\n      pop\n        /* \"contracts/TokenVesting.sol\":1777:1783  _cliff */\n      dup3\n        /* \"contracts/TokenVesting.sol\":1757:1762  cliff */\n      0x01\n        /* \"contracts/TokenVesting.sol\":1757:1776  cliff[_beneficiary] */\n      0x00\n        /* \"contracts/TokenVesting.sol\":1763:1775  _beneficiary */\n      dup8\n        /* \"contracts/TokenVesting.sol\":1757:1776  cliff[_beneficiary] */\n      0xffffffffffffffffffffffffffffffffffffffff\n      and\n      0xffffffffffffffffffffffffffffffffffffffff\n      and\n      dup2\n      mstore\n      0x20\n      add\n      swap1\n      dup2\n      mstore\n      0x20\n      add\n      0x00\n      keccak256\n        /* \"contracts/TokenVesting.sol\":1757:1783  cliff[_beneficiary]=_cliff */\n      dup2\n      swap1\n      sstore\n      pop\n        /* \"contracts/TokenVesting.sol\":1820:1832  _slicePeriod */\n      dup1\n        /* \"contracts/TokenVesting.sol\":1794:1805  slicePeriod */\n      0x02\n        /* \"contracts/TokenVesting.sol\":1794:1819  slicePeriod[_beneficiary] */\n      0x00\n        /* \"contracts/TokenVesting.sol\":1806:1818  _beneficiary */\n      dup8\n        /* \"contracts/TokenVesting.sol\":1794:1819  slicePeriod[_beneficiary] */\n      0xffffffffffffffffffffffffffffffffffffffff\n      and\n      0xffffffffffffffffffffffffffffffffffffffff\n      and\n      dup2\n      mstore\n      0x20\n      add\n      swap1\n      dup2\n      mstore\n      0x20\n      add\n      0x00\n      keccak256\n        /* \"contracts/TokenVesting.sol\":1794:1832  slicePeriod[_beneficiary]=_slicePeriod */\n      dup2\n      swap1\n      sstore\n      pop\n        /* \"contracts/TokenVesting.sol\":1867:1882  block.timestamp */\n      timestamp\n        /* \"contracts/TokenVesting.sol\":1843:1852  startTime */\n      0x03\n        /* \"contracts/TokenVesting.sol\":1843:1866  startTime[_beneficiary] */\n      0x00\n        /* \"contracts/TokenVesting.sol\":1853:1865  _beneficiary */\n      dup8\n        /* \"contracts/TokenVesting.sol\":1843:1866  startTime[_beneficiary] */\n      0xffffffffffffffffffffffffffffffffffffffff\n      and\n      0xffffffffffffffffffffffffffffffffffffffff\n      and\n      dup2\n      mstore\n      0x20\n      add\n      swap1\n      dup2\n      mstore\n      0x20\n      add\n      0x00\n      keccak256\n        /* \"contracts/TokenVesting.sol\":1843:1882  startTime[_beneficiary]=block.timestamp */\n      dup2\n      swap1\n      sstore\n      pop\n        /* \"contracts/TokenVesting.sol\":1899:1909  msg.sender */\n      caller\n        /* \"contracts/TokenVesting.sol\":1893:1898  owner */\n      0x07\n      0x00\n        /* \"contracts/TokenVesting.sol\":1893:1909  owner=msg.sender */\n      0x0100\n      exp\n      dup2\n      sload\n      dup2\n      0xffffffffffffffffffffffffffffffffffffffff\n      mul\n      not\n      and\n      swap1\n      dup4\n      0xffffffffffffffffffffffffffffffffffffffff\n      and\n      mul\n      or\n      swap1\n      sstore\n      pop\n        /* \"contracts/TokenVesting.sol\":1948:1960  tokensAmount */\n      dup4\n        /* \"contracts/TokenVesting.sol\":1920:1933  beneficiaries */\n      0x04\n        /* \"contracts/TokenVesting.sol\":1920:1947  beneficiaries[_beneficiary] */\n      0x00\n        /* \"contracts/TokenVesting.sol\":1934:1946  _beneficiary */\n      dup8\n        /* \"contracts/TokenVesting.sol\":1920:1947  beneficiaries[_beneficiary] */\n      0xffffffffffffffffffffffffffffffffffffffff\n      and\n      0xffffffffffffffffffffffffffffffffffffffff\n      and\n      dup2\n      mstore\n      0x20\n      add\n      swap1\n      dup2\n      mstore\n      0x20\n      add\n      0x00\n      keccak256\n        /* \"contracts/TokenVesting.sol\":1920:1960  beneficiaries[_beneficiary]=tokensAmount */\n      dup2\n      swap1\n      sstore\n      pop\n        /* \"contracts/TokenVesting.sol\":1997:2010  beneficiaries */\n      0x04\n        /* \"contracts/TokenVesting.sol\":1997:2024  beneficiaries[_beneficiary] */\n      0x00\n        /* \"contracts/TokenVesting.sol\":2011:2023  _beneficiary */\n      dup7\n        /* \"contracts/TokenVesting.sol\":1997:2024  beneficiaries[_beneficiary] */\n      0xffffffffffffffffffffffffffffffffffffffff\n      and\n      0xffffffffffffffffffffffffffffffffffffffff\n      and\n      dup2\n      mstore\n      0x20\n      add\n      swap1\n      dup2\n      mstore\n      0x20\n      add\n      0x00\n      keccak256\n      sload\n        /* \"contracts/TokenVesting.sol\":1971:1982  totalTokens */\n      0x05\n        /* \"contracts/TokenVesting.sol\":1971:1996  totalTokens[_beneficiary] */\n      0x00\n        /* \"contracts/TokenVesting.sol\":1983:1995  _beneficiary */\n      dup8\n        /* \"contracts/TokenVesting.sol\":1971:1996  totalTokens[_beneficiary] */\n      0xffffffffffffffffffffffffffffffffffffffff\n      and\n      0xffffffffffffffffffffffffffffffffffffffff\n      and\n      dup2\n      mstore\n      0x20\n      add\n      swap1\n      dup2\n      mstore\n      0x20\n      add\n      0x00\n      keccak256\n        /* \"contracts/TokenVesting.sol\":1971:2024  totalTokens[_beneficiary]=beneficiaries[_beneficiary] */\n      dup2\n      swap1\n      sstore\n      pop\n        /* \"contracts/TokenVesting.sol\":2035:2040  token */\n      0x08\n      0x00\n      swap1\n      sload\n      swap1\n      0x0100\n      exp\n      swap1\n      div\n      0xffffffffffffffffffffffffffffffffffffffff\n      and\n        /* \"contracts/TokenVesting.sol\":2035:2053  token.transferFrom */\n      0xffffffffffffffffffffffffffffffffffffffff\n      and\n      0x23b872dd\n        /* \"contracts/TokenVesting.sol\":2054:2064  msg.sender */\n      caller\n        /* \"contracts/TokenVesting.sol\":2073:2077  this */\n      address\n        /* \"contracts/TokenVesting.sol\":2079:2091  tokensAmount */\n      dup8\n        /* \"contracts/TokenVesting.sol\":2035:2092  token.transferFrom(msg.sender,address(this),tokensAmount) */\n      mload(0x40)\n      dup5\n      0xffffffff\n      and\n      0xe0\n      shl\n      dup2\n      mstore\n      0x04\n      add\n      tag_66\n      swap4\n      swap3\n      swap2\n      swap1\n      tag_67\n      jump\t// in\n    tag_66:\n      0x20\n      mload(0x40)\n      dup1\n      dup4\n      sub\n      dup2\n      0x00\n      dup8\n      gas\n      call\n      iszero\n      dup1\n      iszero\n      tag_69\n      jumpi\n      returndatasize\n      0x00\n      dup1\n      returndatacopy\n      revert(0x00, returndatasize)\n    tag_69:\n      pop\n      pop\n      pop\n      pop\n      mload(0x40)\n      returndatasize\n      not(0x1f)\n      0x1f\n      dup3\n      add\n      and\n      dup3\n      add\n      dup1\n      0x40\n      mstore\n      pop\n      dup2\n      add\n      swap1\n      tag_70\n      swap2\n      swap1\n      tag_71\n      jump\t// in\n    tag_70:\n      pop\n        /* \"contracts/TokenVesting.sol\":2108:2177  LockTokensEvent(_beneficiary, \"Tokens are Locked in smart contract \") */\n      0x58061f685b438748cf21469042b11fe4dfb0c77fd2da64032c5adc017fc09a88\n        /* \"contracts/TokenVesting.sol\":2124:2136  _beneficiary */\n      dup6\n        /* \"contracts/TokenVesting.sol\":2108:2177  LockTokensEvent(_beneficiary, \"Tokens are Locked in smart contract \") */\n      mload(0x40)\n      tag_72\n      swap2\n      swap1\n      tag_73\n      jump\t// in\n    tag_72:\n      mload(0x40)\n      dup1\n      swap2\n      sub\n      swap1\n      log1\n        /* \"contracts/TokenVesting.sol\":1590:2185  function lockTokens(address _beneficiary,uint tokensAmount,uint _cliff,uint _duration,uint _slicePeriod)  public {... */\n      pop\n      pop\n      pop\n      pop\n      pop\n      jump\t// out\n        /* \"contracts/TokenVesting.sol\":240:282  mapping (address=>uint) public slicePeriod */\n    tag_28:\n      mstore(0x20, 0x02)\n      dup1\n      0x00\n      mstore\n      keccak256(0x00, 0x40)\n      0x00\n      swap2\n      pop\n      swap1\n      pop\n      sload\n      dup2\n      jump\t// out\n        /* \"contracts/TokenVesting.sol\":289:329  mapping (address=>uint) public startTime */\n    tag_32:\n      mstore(0x20, 0x03)\n      dup1\n      0x00\n      mstore\n      keccak256(0x00, 0x40)\n      0x00\n      swap2\n      pop\n      swap1\n      pop\n      sload\n      dup2\n      jump\t// out\n        /* \"contracts/TokenVesting.sol\":439:488  mapping(address => uint256) public releasedTokens */\n    tag_36:\n      mstore(0x20, 0x06)\n      dup1\n      0x00\n      mstore\n      keccak256(0x00, 0x40)\n      0x00\n      swap2\n      pop\n      swap1\n      pop\n      sload\n      dup2\n      jump\t// out\n        /* \"contracts/TokenVesting.sol\":3108:3635  function releaseTokens(address _beneficiary) isBeneficiaryOrContractOwner(_beneficiary) public { ... */\n    tag_40:\n        /* \"contracts/TokenVesting.sol\":3182:3194  _beneficiary */\n      dup1\n        /* \"contracts/TokenVesting.sol\":3214:3232  uint tokensClaimed */\n      0x00\n        /* \"contracts/TokenVesting.sol\":3233:3263  releasableTokens(_beneficiary) */\n      tag_76\n        /* \"contracts/TokenVesting.sol\":3250:3262  _beneficiary */\n      dup4\n        /* \"contracts/TokenVesting.sol\":3233:3249  releasableTokens */\n      tag_51\n        /* \"contracts/TokenVesting.sol\":3233:3263  releasableTokens(_beneficiary) */\n      jump\t// in\n    tag_76:\n        /* \"contracts/TokenVesting.sol\":3214:3263  uint tokensClaimed=releasableTokens(_beneficiary) */\n      swap1\n      pop\n        /* \"contracts/TokenVesting.sol\":3296:3309  beneficiaries */\n      0x04\n        /* \"contracts/TokenVesting.sol\":3296:3323  beneficiaries[_beneficiary] */\n      0x00\n        /* \"contracts/TokenVesting.sol\":3310:3322  _beneficiary */\n      dup5\n        /* \"contracts/TokenVesting.sol\":3296:3323  beneficiaries[_beneficiary] */\n      0xffffffffffffffffffffffffffffffffffffffff\n      and\n      0xffffffffffffffffffffffffffffffffffffffff\n      and\n      dup2\n      mstore\n      0x20\n      add\n      swap1\n      dup2\n      mstore\n      0x20\n      add\n      0x00\n      keccak256\n      sload\n        /* \"contracts/TokenVesting.sol\":3281:3294  tokensClaimed */\n      dup2\n        /* \"contracts/TokenVesting.sol\":3281:3323  tokensClaimed<=beneficiaries[_beneficiary] */\n      gt\n      iszero\n        /* \"contracts/TokenVesting.sol\":3273:3373  require(tokensClaimed<=beneficiaries[_beneficiary],\"Tokens Claiming are greater than tokens locked\") */\n      tag_77\n      jumpi\n      mload(0x40)\n      0x08c379a000000000000000000000000000000000000000000000000000000000\n      dup2\n      mstore\n      0x04\n      add\n      tag_78\n      swap1\n      tag_79\n      jump\t// in\n    tag_78:\n      mload(0x40)\n      dup1\n      swap2\n      sub\n      swap1\n      revert\n    tag_77:\n        /* \"contracts/TokenVesting.sol\":3405:3406  0 */\n      0x00\n        /* \"contracts/TokenVesting.sol\":3391:3404  tokensClaimed */\n      dup2\n        /* \"contracts/TokenVesting.sol\":3391:3406  tokensClaimed>0 */\n      gt\n        /* \"contracts/TokenVesting.sol\":3383:3425  require(tokensClaimed>0,\"Already Claimed\") */\n      tag_80\n      jumpi\n      mload(0x40)\n      0x08c379a000000000000000000000000000000000000000000000000000000000\n      dup2\n      mstore\n      0x04\n      add\n      tag_81\n      swap1\n      tag_82\n      jump\t// in\n    tag_81:\n      mload(0x40)\n      dup1\n      swap2\n      sub\n      swap1\n      revert\n    tag_80:\n        /* \"contracts/TokenVesting.sol\":3465:3478  tokensClaimed */\n      dup1\n        /* \"contracts/TokenVesting.sol\":3435:3449  releasedTokens */\n      0x06\n        /* \"contracts/TokenVesting.sol\":3435:3463  releasedTokens[_beneficiary] */\n      0x00\n        /* \"contracts/TokenVesting.sol\":3450:3462  _beneficiary */\n      dup6\n        /* \"contracts/TokenVesting.sol\":3435:3463  releasedTokens[_beneficiary] */\n      0xffffffffffffffffffffffffffffffffffffffff\n      and\n      0xffffffffffffffffffffffffffffffffffffffff\n      and\n      dup2\n      mstore\n      0x20\n      add\n      swap1\n      dup2\n      mstore\n      0x20\n      add\n      0x00\n      keccak256\n      0x00\n        /* \"contracts/TokenVesting.sol\":3435:3478  releasedTokens[_beneficiary]+=tokensClaimed */\n      dup3\n      dup3\n      sload\n      tag_83\n      swap2\n      swap1\n      tag_84\n      jump\t// in\n    tag_83:\n      swap3\n      pop\n      pop\n      dup2\n      swap1\n      sstore\n      pop\n        /* \"contracts/TokenVesting.sol\":3488:3493  token */\n      0x08\n      0x00\n      swap1\n      sload\n      swap1\n      0x0100\n      exp\n      swap1\n      div\n      0xffffffffffffffffffffffffffffffffffffffff\n      and\n        /* \"contracts/TokenVesting.sol\":3488:3502  token.transfer */\n      0xffffffffffffffffffffffffffffffffffffffff\n      and\n      0xa9059cbb\n        /* \"contracts/TokenVesting.sol\":3503:3515  _beneficiary */\n      dup5\n        /* \"contracts/TokenVesting.sol\":3516:3529  tokensClaimed */\n      dup4\n        /* \"contracts/TokenVesting.sol\":3488:3530  token.transfer(_beneficiary,tokensClaimed) */\n      mload(0x40)\n      dup4\n      0xffffffff\n      and\n      0xe0\n      shl\n      dup2\n      mstore\n      0x04\n      add\n      tag_85\n      swap3\n      swap2\n      swap1\n      tag_86\n      jump\t// in\n    tag_85:\n      0x20\n      mload(0x40)\n      dup1\n      dup4\n      sub\n      dup2\n      0x00\n      dup8\n      gas\n      call\n      iszero\n      dup1\n      iszero\n      tag_88\n      jumpi\n      returndatasize\n      0x00\n      dup1\n      returndatacopy\n      revert(0x00, returndatasize)\n    tag_88:\n      pop\n      pop\n      pop\n      pop\n      mload(0x40)\n      returndatasize\n      not(0x1f)\n      0x1f\n      dup3\n      add\n      and\n      dup3\n      add\n      dup1\n      0x40\n      mstore\n      pop\n      dup2\n      add\n      swap1\n      tag_89\n      swap2\n      swap1\n      tag_71\n      jump\t// in\n    tag_89:\n      pop\n        /* \"contracts/TokenVesting.sol\":3545:3627  ReleaseTokensEvent(_beneficiary, \"Tokens are Released in account of beneficiary \") */\n      0xa13f186497986e7b059df4137d98a76d0cb346d0e9a294755b01975e190434a9\n        /* \"contracts/TokenVesting.sol\":3564:3576  _beneficiary */\n      dup4\n        /* \"contracts/TokenVesting.sol\":3545:3627  ReleaseTokensEvent(_beneficiary, \"Tokens are Released in account of beneficiary \") */\n      mload(0x40)\n      tag_90\n      swap2\n      swap1\n      tag_91\n      jump\t// in\n    tag_90:\n      mload(0x40)\n      dup1\n      swap2\n      sub\n      swap1\n      log1\n        /* \"contracts/TokenVesting.sol\":3203:3635  { ... */\n      pop\n        /* \"contracts/TokenVesting.sol\":1118:1119  0 */\n      0x00\n        /* \"contracts/TokenVesting.sol\":1090:1103  beneficiaries */\n      0x04\n        /* \"contracts/TokenVesting.sol\":1090:1117  beneficiaries[_beneficiary] */\n      0x00\n        /* \"contracts/TokenVesting.sol\":1104:1116  _beneficiary */\n      dup4\n        /* \"contracts/TokenVesting.sol\":1090:1117  beneficiaries[_beneficiary] */\n      0xffffffffffffffffffffffffffffffffffffffff\n      and\n      0xffffffffffffffffffffffffffffffffffffffff\n      and\n      dup2\n      mstore\n      0x20\n      add\n      swap1\n      dup2\n      mstore\n      0x20\n      add\n      0x00\n      keccak256\n      sload\n        /* \"contracts/TokenVesting.sol\":1090:1119  beneficiaries[_beneficiary]>0 */\n      gt\n        /* \"contracts/TokenVesting.sol\":1090:1140  beneficiaries[_beneficiary]>0 || msg.sender==owner */\n      dup1\n      tag_92\n      jumpi\n      pop\n        /* \"contracts/TokenVesting.sol\":1135:1140  owner */\n      0x07\n      0x00\n      swap1\n      sload\n      swap1\n      0x0100\n      exp\n      swap1\n      div\n      0xffffffffffffffffffffffffffffffffffffffff\n      and\n        /* \"contracts/TokenVesting.sol\":1123:1140  msg.sender==owner */\n      0xffffffffffffffffffffffffffffffffffffffff\n      and\n        /* \"contracts/TokenVesting.sol\":1123:1133  msg.sender */\n      caller\n        /* \"contracts/TokenVesting.sol\":1123:1140  msg.sender==owner */\n      0xffffffffffffffffffffffffffffffffffffffff\n      and\n      eq\n        /* \"contracts/TokenVesting.sol\":1090:1140  beneficiaries[_beneficiary]>0 || msg.sender==owner */\n    tag_92:\n        /* \"contracts/TokenVesting.sol\":1082:1188  require(beneficiaries[_beneficiary]>0 || msg.sender==owner,\"Only Beneficiary Or Owner can Release Tokens\") */\n      tag_93\n      jumpi\n      mload(0x40)\n      0x08c379a000000000000000000000000000000000000000000000000000000000\n      dup2\n      mstore\n      0x04\n      add\n      tag_94\n      swap1\n      tag_95\n      jump\t// in\n    tag_94:\n      mload(0x40)\n      dup1\n      swap2\n      sub\n      swap1\n      revert\n    tag_93:\n        /* \"contracts/TokenVesting.sol\":3108:3635  function releaseTokens(address _beneficiary) isBeneficiaryOrContractOwner(_beneficiary) public { ... */\n      pop\n      pop\n      jump\t// out\n        /* \"contracts/TokenVesting.sol\":1349:1563  function addBeneficiary(address _beneficiary,uint tokensToLock) onlyOwner public {... */\n    tag_44:\n        /* \"contracts/TokenVesting.sol\":1469:1481  tokensToLock */\n      dup1\n        /* \"contracts/TokenVesting.sol\":1441:1454  beneficiaries */\n      0x04\n        /* \"contracts/TokenVesting.sol\":1441:1468  beneficiaries[_beneficiary] */\n      0x00\n        /* \"contracts/TokenVesting.sol\":1455:1467  _beneficiary */\n      dup5\n        /* \"contracts/TokenVesting.sol\":1441:1468  beneficiaries[_beneficiary] */\n      0xffffffffffffffffffffffffffffffffffffffff\n      and\n      0xffffffffffffffffffffffffffffffffffffffff\n      and\n      dup2\n      mstore\n      0x20\n      add\n      swap1\n      dup2\n      mstore\n      0x20\n      add\n      0x00\n      keccak256\n        /* \"contracts/TokenVesting.sol\":1441:1481  beneficiaries[_beneficiary]=tokensToLock */\n      dup2\n      swap1\n      sstore\n      pop\n        /* \"contracts/TokenVesting.sol\":1497:1555  AddBeneficiaryEvent(_beneficiary, \"New Beneficiary Added\") */\n      0x557197374edb4e72999d5d4c84ca4715c58797739aab2f2b7e300db81b4cd1c3\n        /* \"contracts/TokenVesting.sol\":1517:1529  _beneficiary */\n      dup3\n        /* \"contracts/TokenVesting.sol\":1497:1555  AddBeneficiaryEvent(_beneficiary, \"New Beneficiary Added\") */\n      mload(0x40)\n      tag_98\n      swap2\n      swap1\n      tag_99\n      jump\t// in\n    tag_98:\n      mload(0x40)\n      dup1\n      swap2\n      sub\n      swap1\n      log1\n        /* \"contracts/TokenVesting.sol\":1265:1270  owner */\n      0x07\n      0x00\n      swap1\n      sload\n      swap1\n      0x0100\n      exp\n      swap1\n      div\n      0xffffffffffffffffffffffffffffffffffffffff\n      and\n        /* \"contracts/TokenVesting.sol\":1253:1270  msg.sender==owner */\n      0xffffffffffffffffffffffffffffffffffffffff\n      and\n        /* \"contracts/TokenVesting.sol\":1253:1263  msg.sender */\n      caller\n        /* \"contracts/TokenVesting.sol\":1253:1270  msg.sender==owner */\n      0xffffffffffffffffffffffffffffffffffffffff\n      and\n      eq\n        /* \"contracts/TokenVesting.sol\":1245:1308  require(msg.sender==owner,\" Only Owner can Add benefeiciaries\") */\n      tag_100\n      jumpi\n      mload(0x40)\n      0x08c379a000000000000000000000000000000000000000000000000000000000\n      dup2\n      mstore\n      0x04\n      add\n      tag_101\n      swap1\n      tag_102\n      jump\t// in\n    tag_101:\n      mload(0x40)\n      dup1\n      swap2\n      sub\n      swap1\n      revert\n    tag_100:\n        /* \"contracts/TokenVesting.sol\":1349:1563  function addBeneficiary(address _beneficiary,uint tokensToLock) onlyOwner public {... */\n      pop\n      pop\n      jump\t// out\n        /* \"contracts/TokenVesting.sol\":151:190  mapping (address=>uint) public duration */\n    tag_47:\n      mstore(0x20, 0x00)\n      dup1\n      0x00\n      mstore\n      keccak256(0x00, 0x40)\n      0x00\n      swap2\n      pop\n      swap1\n      pop\n      sload\n      dup2\n      jump\t// out\n        /* \"contracts/TokenVesting.sol\":2241:3066  function releasableTokens(address _beneficiary) public cliffPeriodOver(_beneficiary) view returns(uint) {... */\n    tag_51:\n        /* \"contracts/TokenVesting.sol\":2339:2343  uint */\n      0x00\n        /* \"contracts/TokenVesting.sol\":2312:2324  _beneficiary */\n      dup2\n        /* \"contracts/TokenVesting.sol\":2356:2375  uint timeSinceStart */\n      0x00\n        /* \"contracts/TokenVesting.sol\":2396:2405  startTime */\n      0x03\n        /* \"contracts/TokenVesting.sol\":2396:2419  startTime[_beneficiary] */\n      0x00\n        /* \"contracts/TokenVesting.sol\":2406:2418  _beneficiary */\n      dup6\n        /* \"contracts/TokenVesting.sol\":2396:2419  startTime[_beneficiary] */\n      0xffffffffffffffffffffffffffffffffffffffff\n      and\n      0xffffffffffffffffffffffffffffffffffffffff\n      and\n      dup2\n      mstore\n      0x20\n      add\n      swap1\n      dup2\n      mstore\n      0x20\n      add\n      0x00\n      keccak256\n      sload\n        /* \"contracts/TokenVesting.sol\":2378:2393  block.timestamp */\n      timestamp\n        /* \"contracts/TokenVesting.sol\":2378:2419  block.timestamp - startTime[_beneficiary] */\n      tag_105\n      swap2\n      swap1\n      tag_106\n      jump\t// in\n    tag_105:\n        /* \"contracts/TokenVesting.sol\":2356:2419  uint timeSinceStart = block.timestamp - startTime[_beneficiary] */\n      swap1\n      pop\n        /* \"contracts/TokenVesting.sol\":2430:2456  uint noOfPeriodsSinceStart */\n      0x00\n        /* \"contracts/TokenVesting.sol\":2476:2487  slicePeriod */\n      0x02\n        /* \"contracts/TokenVesting.sol\":2476:2501  slicePeriod[_beneficiary] */\n      0x00\n        /* \"contracts/TokenVesting.sol\":2488:2500  _beneficiary */\n      dup7\n        /* \"contracts/TokenVesting.sol\":2476:2501  slicePeriod[_beneficiary] */\n      0xffffffffffffffffffffffffffffffffffffffff\n      and\n      0xffffffffffffffffffffffffffffffffffffffff\n      and\n      dup2\n      mstore\n      0x20\n      add\n      swap1\n      dup2\n      mstore\n      0x20\n      add\n      0x00\n      keccak256\n      sload\n        /* \"contracts/TokenVesting.sol\":2459:2473  timeSinceStart */\n      dup3\n        /* \"contracts/TokenVesting.sol\":2459:2501  timeSinceStart / slicePeriod[_beneficiary] */\n      tag_107\n      swap2\n      swap1\n      tag_108\n      jump\t// in\n    tag_107:\n        /* \"contracts/TokenVesting.sol\":2430:2501  uint noOfPeriodsSinceStart = timeSinceStart / slicePeriod[_beneficiary] */\n      swap1\n      pop\n        /* \"contracts/TokenVesting.sol\":2512:2529  uint totalPeriods */\n      0x00\n        /* \"contracts/TokenVesting.sol\":2557:2568  slicePeriod */\n      0x02\n        /* \"contracts/TokenVesting.sol\":2557:2582  slicePeriod[_beneficiary] */\n      0x00\n        /* \"contracts/TokenVesting.sol\":2569:2581  _beneficiary */\n      dup8\n        /* \"contracts/TokenVesting.sol\":2557:2582  slicePeriod[_beneficiary] */\n      0xffffffffffffffffffffffffffffffffffffffff\n      and\n      0xffffffffffffffffffffffffffffffffffffffff\n      and\n      dup2\n      mstore\n      0x20\n      add\n      swap1\n      dup2\n      mstore\n      0x20\n      add\n      0x00\n      keccak256\n      sload\n        /* \"contracts/TokenVesting.sol\":2532:2540  duration */\n      0x00\n        /* \"contracts/TokenVesting.sol\":2532:2554  duration[_beneficiary] */\n      dup1\n        /* \"contracts/TokenVesting.sol\":2541:2553  _beneficiary */\n      dup9\n        /* \"contracts/TokenVesting.sol\":2532:2554  duration[_beneficiary] */\n      0xffffffffffffffffffffffffffffffffffffffff\n      and\n      0xffffffffffffffffffffffffffffffffffffffff\n      and\n      dup2\n      mstore\n      0x20\n      add\n      swap1\n      dup2\n      mstore\n      0x20\n      add\n      0x00\n      keccak256\n      sload\n        /* \"contracts/TokenVesting.sol\":2532:2582  duration[_beneficiary] / slicePeriod[_beneficiary] */\n      tag_109\n      swap2\n      swap1\n      tag_108\n      jump\t// in\n    tag_109:\n        /* \"contracts/TokenVesting.sol\":2512:2582  uint totalPeriods = duration[_beneficiary] / slicePeriod[_beneficiary] */\n      swap1\n      pop\n        /* \"contracts/TokenVesting.sol\":2622:2634  totalPeriods */\n      dup1\n        /* \"contracts/TokenVesting.sol\":2597:2618  noOfPeriodsSinceStart */\n      dup3\n        /* \"contracts/TokenVesting.sol\":2597:2634  noOfPeriodsSinceStart >= totalPeriods */\n      lt\n        /* \"contracts/TokenVesting.sol\":2593:3059  if (noOfPeriodsSinceStart >= totalPeriods ) {... */\n      tag_110\n      jumpi\n        /* \"contracts/TokenVesting.sol\":2702:2716  releasedTokens */\n      0x06\n        /* \"contracts/TokenVesting.sol\":2702:2730  releasedTokens[_beneficiary] */\n      0x00\n        /* \"contracts/TokenVesting.sol\":2717:2729  _beneficiary */\n      dup8\n        /* \"contracts/TokenVesting.sol\":2702:2730  releasedTokens[_beneficiary] */\n      0xffffffffffffffffffffffffffffffffffffffff\n      and\n      0xffffffffffffffffffffffffffffffffffffffff\n      and\n      dup2\n      mstore\n      0x20\n      add\n      swap1\n      dup2\n      mstore\n      0x20\n      add\n      0x00\n      keccak256\n      sload\n        /* \"contracts/TokenVesting.sol\":2673:2686  beneficiaries */\n      0x04\n        /* \"contracts/TokenVesting.sol\":2673:2700  beneficiaries[_beneficiary] */\n      0x00\n        /* \"contracts/TokenVesting.sol\":2687:2699  _beneficiary */\n      dup9\n        /* \"contracts/TokenVesting.sol\":2673:2700  beneficiaries[_beneficiary] */\n      0xffffffffffffffffffffffffffffffffffffffff\n      and\n      0xffffffffffffffffffffffffffffffffffffffff\n      and\n      dup2\n      mstore\n      0x20\n      add\n      swap1\n      dup2\n      mstore\n      0x20\n      add\n      0x00\n      keccak256\n      sload\n        /* \"contracts/TokenVesting.sol\":2673:2730  beneficiaries[_beneficiary] -releasedTokens[_beneficiary] */\n      tag_111\n      swap2\n      swap1\n      tag_106\n      jump\t// in\n    tag_111:\n        /* \"contracts/TokenVesting.sol\":2666:2730  return beneficiaries[_beneficiary] -releasedTokens[_beneficiary] */\n      swap5\n      pop\n      pop\n      pop\n      pop\n      jump(tag_104)\n        /* \"contracts/TokenVesting.sol\":2593:3059  if (noOfPeriodsSinceStart >= totalPeriods ) {... */\n    tag_110:\n        /* \"contracts/TokenVesting.sol\":2773:2801  uint tokensVestedInOnePeriod */\n      0x00\n        /* \"contracts/TokenVesting.sol\":2834:2846  totalPeriods */\n      dup2\n        /* \"contracts/TokenVesting.sol\":2804:2817  beneficiaries */\n      0x04\n        /* \"contracts/TokenVesting.sol\":2804:2831  beneficiaries[_beneficiary] */\n      0x00\n        /* \"contracts/TokenVesting.sol\":2818:2830  _beneficiary */\n      dup10\n        /* \"contracts/TokenVesting.sol\":2804:2831  beneficiaries[_beneficiary] */\n      0xffffffffffffffffffffffffffffffffffffffff\n      and\n      0xffffffffffffffffffffffffffffffffffffffff\n      and\n      dup2\n      mstore\n      0x20\n      add\n      swap1\n      dup2\n      mstore\n      0x20\n      add\n      0x00\n      keccak256\n      sload\n        /* \"contracts/TokenVesting.sol\":2804:2846  beneficiaries[_beneficiary] / totalPeriods */\n      tag_113\n      swap2\n      swap1\n      tag_108\n      jump\t// in\n    tag_113:\n        /* \"contracts/TokenVesting.sol\":2773:2846  uint tokensVestedInOnePeriod = beneficiaries[_beneficiary] / totalPeriods */\n      swap1\n      pop\n        /* \"contracts/TokenVesting.sol\":2861:2882  uint tokensToBeVested */\n      0x00\n        /* \"contracts/TokenVesting.sol\":2911:2932  noOfPeriodsSinceStart */\n      dup4\n        /* \"contracts/TokenVesting.sol\":2885:2908  tokensVestedInOnePeriod */\n      dup3\n        /* \"contracts/TokenVesting.sol\":2885:2932  tokensVestedInOnePeriod * noOfPeriodsSinceStart */\n      tag_114\n      swap2\n      swap1\n      tag_115\n      jump\t// in\n    tag_114:\n        /* \"contracts/TokenVesting.sol\":2861:2932  uint tokensToBeVested = tokensVestedInOnePeriod * noOfPeriodsSinceStart */\n      swap1\n      pop\n        /* \"contracts/TokenVesting.sol\":2981:2995  releasedTokens */\n      0x06\n        /* \"contracts/TokenVesting.sol\":2981:3009  releasedTokens[_beneficiary] */\n      0x00\n        /* \"contracts/TokenVesting.sol\":2996:3008  _beneficiary */\n      dup10\n        /* \"contracts/TokenVesting.sol\":2981:3009  releasedTokens[_beneficiary] */\n      0xffffffffffffffffffffffffffffffffffffffff\n      and\n      0xffffffffffffffffffffffffffffffffffffffff\n      and\n      dup2\n      mstore\n      0x20\n      add\n      swap1\n      dup2\n      mstore\n      0x20\n      add\n      0x00\n      keccak256\n      sload\n        /* \"contracts/TokenVesting.sol\":2964:2980  tokensToBeVested */\n      dup2\n        /* \"contracts/TokenVesting.sol\":2964:3009  tokensToBeVested-releasedTokens[_beneficiary] */\n      tag_116\n      swap2\n      swap1\n      tag_106\n      jump\t// in\n    tag_116:\n        /* \"contracts/TokenVesting.sol\":2947:3009  tokensToBeVested=tokensToBeVested-releasedTokens[_beneficiary] */\n      swap1\n      pop\n        /* \"contracts/TokenVesting.sol\":3031:3047  tokensToBeVested */\n      dup1\n        /* \"contracts/TokenVesting.sol\":3024:3047  return tokensToBeVested */\n      swap7\n      pop\n      pop\n      pop\n      pop\n      pop\n      pop\n        /* \"contracts/TokenVesting.sol\":904:905  _ */\n    tag_104:\n        /* \"contracts/TokenVesting.sol\":941:946  cliff */\n      0x01\n        /* \"contracts/TokenVesting.sol\":941:960  cliff[_beneficiary] */\n      0x00\n        /* \"contracts/TokenVesting.sol\":947:959  _beneficiary */\n      dup3\n        /* \"contracts/TokenVesting.sol\":941:960  cliff[_beneficiary] */\n      0xffffffffffffffffffffffffffffffffffffffff\n      and\n      0xffffffffffffffffffffffffffffffffffffffff\n      and\n      dup2\n      mstore\n      0x20\n      add\n      swap1\n      dup2\n      mstore\n      0x20\n      add\n      0x00\n      keccak256\n      sload\n        /* \"contracts/TokenVesting.sol\":924:939  block.timestamp */\n      timestamp\n        /* \"contracts/TokenVesting.sol\":924:960  block.timestamp>=cliff[_beneficiary] */\n      lt\n      iszero\n        /* \"contracts/TokenVesting.sol\":916:986  require(block.timestamp>=cliff[_beneficiary],\"Wait Till Cliff period\") */\n      tag_117\n      jumpi\n      mload(0x40)\n      0x08c379a000000000000000000000000000000000000000000000000000000000\n      dup2\n      mstore\n      0x04\n      add\n      tag_118\n      swap1\n      tag_119\n      jump\t// in\n    tag_118:\n      mload(0x40)\n      dup1\n      swap2\n      sub\n      swap1\n      revert\n    tag_117:\n        /* \"contracts/TokenVesting.sol\":2241:3066  function releasableTokens(address _beneficiary) public cliffPeriodOver(_beneficiary) view returns(uint) {... */\n      pop\n      swap2\n      swap1\n      pop\n      jump\t// out\n        /* \"contracts/TokenVesting.sol\":386:432  mapping(address => uint256) public totalTokens */\n    tag_55:\n      mstore(0x20, 0x05)\n      dup1\n      0x00\n      mstore\n      keccak256(0x00, 0x40)\n      0x00\n      swap2\n      pop\n      swap1\n      pop\n      sload\n      dup2\n      jump\t// out\n        /* \"contracts/TokenVesting.sol\":197:233  mapping (address=>uint) public cliff */\n    tag_59:\n      mstore(0x20, 0x01)\n      dup1\n      0x00\n      mstore\n      keccak256(0x00, 0x40)\n      0x00\n      swap2\n      pop\n      swap1\n      pop\n      sload\n      dup2\n      jump\t// out\n        /* \"contracts/TokenVesting.sol\":515:534  IERC20 public token */\n    tag_62:\n      0x08\n      0x00\n      swap1\n      sload\n      swap1\n      0x0100\n      exp\n      swap1\n      div\n      0xffffffffffffffffffffffffffffffffffffffff\n      and\n      dup2\n      jump\t// out\n        /* \"#utility.yul\":88:205   */\n    tag_121:\n        /* \"#utility.yul\":197:198   */\n      0x00\n        /* \"#utility.yul\":194:195   */\n      dup1\n        /* \"#utility.yul\":187:199   */\n      revert\n        /* \"#utility.yul\":334:460   */\n    tag_123:\n        /* \"#utility.yul\":371:378   */\n      0x00\n        /* \"#utility.yul\":411:453   */\n      0xffffffffffffffffffffffffffffffffffffffff\n        /* \"#utility.yul\":404:409   */\n      dup3\n        /* \"#utility.yul\":400:454   */\n      and\n        /* \"#utility.yul\":389:454   */\n      swap1\n      pop\n        /* \"#utility.yul\":334:460   */\n      swap2\n      swap1\n      pop\n      jump\t// out\n        /* \"#utility.yul\":466:562   */\n    tag_124:\n        /* \"#utility.yul\":503:510   */\n      0x00\n        /* \"#utility.yul\":532:556   */\n      tag_165\n        /* \"#utility.yul\":550:555   */\n      dup3\n        /* \"#utility.yul\":532:556   */\n      tag_123\n      jump\t// in\n    tag_165:\n        /* \"#utility.yul\":521:556   */\n      swap1\n      pop\n        /* \"#utility.yul\":466:562   */\n      swap2\n      swap1\n      pop\n      jump\t// out\n        /* \"#utility.yul\":568:690   */\n    tag_125:\n        /* \"#utility.yul\":641:665   */\n      tag_167\n        /* \"#utility.yul\":659:664   */\n      dup2\n        /* \"#utility.yul\":641:665   */\n      tag_124\n      jump\t// in\n    tag_167:\n        /* \"#utility.yul\":634:639   */\n      dup2\n        /* \"#utility.yul\":631:666   */\n      eq\n        /* \"#utility.yul\":621:684   */\n      tag_168\n      jumpi\n        /* \"#utility.yul\":680:681   */\n      0x00\n        /* \"#utility.yul\":677:678   */\n      dup1\n        /* \"#utility.yul\":670:682   */\n      revert\n        /* \"#utility.yul\":621:684   */\n    tag_168:\n        /* \"#utility.yul\":568:690   */\n      pop\n      jump\t// out\n        /* \"#utility.yul\":696:835   */\n    tag_126:\n        /* \"#utility.yul\":742:747   */\n      0x00\n        /* \"#utility.yul\":780:786   */\n      dup2\n        /* \"#utility.yul\":767:787   */\n      calldataload\n        /* \"#utility.yul\":758:787   */\n      swap1\n      pop\n        /* \"#utility.yul\":796:829   */\n      tag_170\n        /* \"#utility.yul\":823:828   */\n      dup2\n        /* \"#utility.yul\":796:829   */\n      tag_125\n      jump\t// in\n    tag_170:\n        /* \"#utility.yul\":696:835   */\n      swap3\n      swap2\n      pop\n      pop\n      jump\t// out\n        /* \"#utility.yul\":841:1170   */\n    tag_18:\n        /* \"#utility.yul\":900:906   */\n      0x00\n        /* \"#utility.yul\":949:951   */\n      0x20\n        /* \"#utility.yul\":937:946   */\n      dup3\n        /* \"#utility.yul\":928:935   */\n      dup5\n        /* \"#utility.yul\":924:947   */\n      sub\n        /* \"#utility.yul\":920:952   */\n      slt\n        /* \"#utility.yul\":917:1036   */\n      iszero\n      tag_172\n      jumpi\n        /* \"#utility.yul\":955:1034   */\n      tag_173\n      tag_121\n      jump\t// in\n    tag_173:\n        /* \"#utility.yul\":917:1036   */\n    tag_172:\n        /* \"#utility.yul\":1075:1076   */\n      0x00\n        /* \"#utility.yul\":1100:1153   */\n      tag_174\n        /* \"#utility.yul\":1145:1152   */\n      dup5\n        /* \"#utility.yul\":1136:1142   */\n      dup3\n        /* \"#utility.yul\":1125:1134   */\n      dup6\n        /* \"#utility.yul\":1121:1143   */\n      add\n        /* \"#utility.yul\":1100:1153   */\n      tag_126\n      jump\t// in\n    tag_174:\n        /* \"#utility.yul\":1090:1153   */\n      swap2\n      pop\n        /* \"#utility.yul\":1046:1163   */\n      pop\n        /* \"#utility.yul\":841:1170   */\n      swap3\n      swap2\n      pop\n      pop\n      jump\t// out\n        /* \"#utility.yul\":1176:1253   */\n    tag_127:\n        /* \"#utility.yul\":1213:1220   */\n      0x00\n        /* \"#utility.yul\":1242:1247   */\n      dup2\n        /* \"#utility.yul\":1231:1247   */\n      swap1\n      pop\n        /* \"#utility.yul\":1176:1253   */\n      swap2\n      swap1\n      pop\n      jump\t// out\n        /* \"#utility.yul\":1259:1377   */\n    tag_128:\n        /* \"#utility.yul\":1346:1370   */\n      tag_177\n        /* \"#utility.yul\":1364:1369   */\n      dup2\n        /* \"#utility.yul\":1346:1370   */\n      tag_127\n      jump\t// in\n    tag_177:\n        /* \"#utility.yul\":1341:1344   */\n      dup3\n        /* \"#utility.yul\":1334:1371   */\n      mstore\n        /* \"#utility.yul\":1259:1377   */\n      pop\n      pop\n      jump\t// out\n        /* \"#utility.yul\":1383:1605   */\n    tag_21:\n        /* \"#utility.yul\":1476:1480   */\n      0x00\n        /* \"#utility.yul\":1514:1516   */\n      0x20\n        /* \"#utility.yul\":1503:1512   */\n      dup3\n        /* \"#utility.yul\":1499:1517   */\n      add\n        /* \"#utility.yul\":1491:1517   */\n      swap1\n      pop\n        /* \"#utility.yul\":1527:1598   */\n      tag_179\n        /* \"#utility.yul\":1595:1596   */\n      0x00\n        /* \"#utility.yul\":1584:1593   */\n      dup4\n        /* \"#utility.yul\":1580:1597   */\n      add\n        /* \"#utility.yul\":1571:1577   */\n      dup5\n        /* \"#utility.yul\":1527:1598   */\n      tag_128\n      jump\t// in\n    tag_179:\n        /* \"#utility.yul\":1383:1605   */\n      swap3\n      swap2\n      pop\n      pop\n      jump\t// out\n        /* \"#utility.yul\":1611:1733   */\n    tag_129:\n        /* \"#utility.yul\":1684:1708   */\n      tag_181\n        /* \"#utility.yul\":1702:1707   */\n      dup2\n        /* \"#utility.yul\":1684:1708   */\n      tag_127\n      jump\t// in\n    tag_181:\n        /* \"#utility.yul\":1677:1682   */\n      dup2\n        /* \"#utility.yul\":1674:1709   */\n      eq\n        /* \"#utility.yul\":1664:1727   */\n      tag_182\n      jumpi\n        /* \"#utility.yul\":1723:1724   */\n      0x00\n        /* \"#utility.yul\":1720:1721   */\n      dup1\n        /* \"#utility.yul\":1713:1725   */\n      revert\n        /* \"#utility.yul\":1664:1727   */\n    tag_182:\n        /* \"#utility.yul\":1611:1733   */\n      pop\n      jump\t// out\n        /* \"#utility.yul\":1739:1878   */\n    tag_130:\n        /* \"#utility.yul\":1785:1790   */\n      0x00\n        /* \"#utility.yul\":1823:1829   */\n      dup2\n        /* \"#utility.yul\":1810:1830   */\n      calldataload\n        /* \"#utility.yul\":1801:1830   */\n      swap1\n      pop\n        /* \"#utility.yul\":1839:1872   */\n      tag_184\n        /* \"#utility.yul\":1866:1871   */\n      dup2\n        /* \"#utility.yul\":1839:1872   */\n      tag_129\n      jump\t// in\n    tag_184:\n        /* \"#utility.yul\":1739:1878   */\n      swap3\n      swap2\n      pop\n      pop\n      jump\t// out\n        /* \"#utility.yul\":1884:2795   */\n    tag_24:\n        /* \"#utility.yul\":1979:1985   */\n      0x00\n        /* \"#utility.yul\":1987:1993   */\n      dup1\n        /* \"#utility.yul\":1995:2001   */\n      0x00\n        /* \"#utility.yul\":2003:2009   */\n      dup1\n        /* \"#utility.yul\":2011:2017   */\n      0x00\n        /* \"#utility.yul\":2060:2063   */\n      0xa0\n        /* \"#utility.yul\":2048:2057   */\n      dup7\n        /* \"#utility.yul\":2039:2046   */\n      dup9\n        /* \"#utility.yul\":2035:2058   */\n      sub\n        /* \"#utility.yul\":2031:2064   */\n      slt\n        /* \"#utility.yul\":2028:2148   */\n      iszero\n      tag_186\n      jumpi\n        /* \"#utility.yul\":2067:2146   */\n      tag_187\n      tag_121\n      jump\t// in\n    tag_187:\n        /* \"#utility.yul\":2028:2148   */\n    tag_186:\n        /* \"#utility.yul\":2187:2188   */\n      0x00\n        /* \"#utility.yul\":2212:2265   */\n      tag_188\n        /* \"#utility.yul\":2257:2264   */\n      dup9\n        /* \"#utility.yul\":2248:2254   */\n      dup3\n        /* \"#utility.yul\":2237:2246   */\n      dup10\n        /* \"#utility.yul\":2233:2255   */\n      add\n        /* \"#utility.yul\":2212:2265   */\n      tag_126\n      jump\t// in\n    tag_188:\n        /* \"#utility.yul\":2202:2265   */\n      swap6\n      pop\n        /* \"#utility.yul\":2158:2275   */\n      pop\n        /* \"#utility.yul\":2314:2316   */\n      0x20\n        /* \"#utility.yul\":2340:2393   */\n      tag_189\n        /* \"#utility.yul\":2385:2392   */\n      dup9\n        /* \"#utility.yul\":2376:2382   */\n      dup3\n        /* \"#utility.yul\":2365:2374   */\n      dup10\n        /* \"#utility.yul\":2361:2383   */\n      add\n        /* \"#utility.yul\":2340:2393   */\n      tag_130\n      jump\t// in\n    tag_189:\n        /* \"#utility.yul\":2330:2393   */\n      swap5\n      pop\n        /* \"#utility.yul\":2285:2403   */\n      pop\n        /* \"#utility.yul\":2442:2444   */\n      0x40\n        /* \"#utility.yul\":2468:2521   */\n      tag_190\n        /* \"#utility.yul\":2513:2520   */\n      dup9\n        /* \"#utility.yul\":2504:2510   */\n      dup3\n        /* \"#utility.yul\":2493:2502   */\n      dup10\n        /* \"#utility.yul\":2489:2511   */\n      add\n        /* \"#utility.yul\":2468:2521   */\n      tag_130\n      jump\t// in\n    tag_190:\n        /* \"#utility.yul\":2458:2521   */\n      swap4\n      pop\n        /* \"#utility.yul\":2413:2531   */\n      pop\n        /* \"#utility.yul\":2570:2572   */\n      0x60\n        /* \"#utility.yul\":2596:2649   */\n      tag_191\n        /* \"#utility.yul\":2641:2648   */\n      dup9\n        /* \"#utility.yul\":2632:2638   */\n      dup3\n        /* \"#utility.yul\":2621:2630   */\n      dup10\n        /* \"#utility.yul\":2617:2639   */\n      add\n        /* \"#utility.yul\":2596:2649   */\n      tag_130\n      jump\t// in\n    tag_191:\n        /* \"#utility.yul\":2586:2649   */\n      swap3\n      pop\n        /* \"#utility.yul\":2541:2659   */\n      pop\n        /* \"#utility.yul\":2698:2701   */\n      0x80\n        /* \"#utility.yul\":2725:2778   */\n      tag_192\n        /* \"#utility.yul\":2770:2777   */\n      dup9\n        /* \"#utility.yul\":2761:2767   */\n      dup3\n        /* \"#utility.yul\":2750:2759   */\n      dup10\n        /* \"#utility.yul\":2746:2768   */\n      add\n        /* \"#utility.yul\":2725:2778   */\n      tag_130\n      jump\t// in\n    tag_192:\n        /* \"#utility.yul\":2715:2778   */\n      swap2\n      pop\n        /* \"#utility.yul\":2669:2788   */\n      pop\n        /* \"#utility.yul\":1884:2795   */\n      swap3\n      swap6\n      pop\n      swap3\n      swap6\n      swap1\n      swap4\n      pop\n      jump\t// out\n        /* \"#utility.yul\":2801:3275   */\n    tag_43:\n        /* \"#utility.yul\":2869:2875   */\n      0x00\n        /* \"#utility.yul\":2877:2883   */\n      dup1\n        /* \"#utility.yul\":2926:2928   */\n      0x40\n        /* \"#utility.yul\":2914:2923   */\n      dup4\n        /* \"#utility.yul\":2905:2912   */\n      dup6\n        /* \"#utility.yul\":2901:2924   */\n      sub\n        /* \"#utility.yul\":2897:2929   */\n      slt\n        /* \"#utility.yul\":2894:3013   */\n      iszero\n      tag_194\n      jumpi\n        /* \"#utility.yul\":2932:3011   */\n      tag_195\n      tag_121\n      jump\t// in\n    tag_195:\n        /* \"#utility.yul\":2894:3013   */\n    tag_194:\n        /* \"#utility.yul\":3052:3053   */\n      0x00\n        /* \"#utility.yul\":3077:3130   */\n      tag_196\n        /* \"#utility.yul\":3122:3129   */\n      dup6\n        /* \"#utility.yul\":3113:3119   */\n      dup3\n        /* \"#utility.yul\":3102:3111   */\n      dup7\n        /* \"#utility.yul\":3098:3120   */\n      add\n        /* \"#utility.yul\":3077:3130   */\n      tag_126\n      jump\t// in\n    tag_196:\n        /* \"#utility.yul\":3067:3130   */\n      swap3\n      pop\n        /* \"#utility.yul\":3023:3140   */\n      pop\n        /* \"#utility.yul\":3179:3181   */\n      0x20\n        /* \"#utility.yul\":3205:3258   */\n      tag_197\n        /* \"#utility.yul\":3250:3257   */\n      dup6\n        /* \"#utility.yul\":3241:3247   */\n      dup3\n        /* \"#utility.yul\":3230:3239   */\n      dup7\n        /* \"#utility.yul\":3226:3248   */\n      add\n        /* \"#utility.yul\":3205:3258   */\n      tag_130\n      jump\t// in\n    tag_197:\n        /* \"#utility.yul\":3195:3258   */\n      swap2\n      pop\n        /* \"#utility.yul\":3150:3268   */\n      pop\n        /* \"#utility.yul\":2801:3275   */\n      swap3\n      pop\n      swap3\n      swap1\n      pop\n      jump\t// out\n        /* \"#utility.yul\":3281:3341   */\n    tag_131:\n        /* \"#utility.yul\":3309:3312   */\n      0x00\n        /* \"#utility.yul\":3330:3335   */\n      dup2\n        /* \"#utility.yul\":3323:3335   */\n      swap1\n      pop\n        /* \"#utility.yul\":3281:3341   */\n      swap2\n      swap1\n      pop\n      jump\t// out\n        /* \"#utility.yul\":3347:3489   */\n    tag_132:\n        /* \"#utility.yul\":3397:3406   */\n      0x00\n        /* \"#utility.yul\":3430:3483   */\n      tag_200\n        /* \"#utility.yul\":3448:3482   */\n      tag_201\n        /* \"#utility.yul\":3457:3481   */\n      tag_202\n        /* \"#utility.yul\":3475:3480   */\n      dup5\n        /* \"#utility.yul\":3457:3481   */\n      tag_123\n      jump\t// in\n    tag_202:\n        /* \"#utility.yul\":3448:3482   */\n      tag_131\n      jump\t// in\n    tag_201:\n        /* \"#utility.yul\":3430:3483   */\n      tag_123\n      jump\t// in\n    tag_200:\n        /* \"#utility.yul\":3417:3483   */\n      swap1\n      pop\n        /* \"#utility.yul\":3347:3489   */\n      swap2\n      swap1\n      pop\n      jump\t// out\n        /* \"#utility.yul\":3495:3621   */\n    tag_133:\n        /* \"#utility.yul\":3545:3554   */\n      0x00\n        /* \"#utility.yul\":3578:3615   */\n      tag_204\n        /* \"#utility.yul\":3609:3614   */\n      dup3\n        /* \"#utility.yul\":3578:3615   */\n      tag_132\n      jump\t// in\n    tag_204:\n        /* \"#utility.yul\":3565:3615   */\n      swap1\n      pop\n        /* \"#utility.yul\":3495:3621   */\n      swap2\n      swap1\n      pop\n      jump\t// out\n        /* \"#utility.yul\":3627:3766   */\n    tag_134:\n        /* \"#utility.yul\":3690:3699   */\n      0x00\n        /* \"#utility.yul\":3723:3760   */\n      tag_206\n        /* \"#utility.yul\":3754:3759   */\n      dup3\n        /* \"#utility.yul\":3723:3760   */\n      tag_133\n      jump\t// in\n    tag_206:\n        /* \"#utility.yul\":3710:3760   */\n      swap1\n      pop\n        /* \"#utility.yul\":3627:3766   */\n      swap2\n      swap1\n      pop\n      jump\t// out\n        /* \"#utility.yul\":3772:3929   */\n    tag_135:\n        /* \"#utility.yul\":3872:3922   */\n      tag_208\n        /* \"#utility.yul\":3916:3921   */\n      dup2\n        /* \"#utility.yul\":3872:3922   */\n      tag_134\n      jump\t// in\n    tag_208:\n        /* \"#utility.yul\":3867:3870   */\n      dup3\n        /* \"#utility.yul\":3860:3923   */\n      mstore\n        /* \"#utility.yul\":3772:3929   */\n      pop\n      pop\n      jump\t// out\n        /* \"#utility.yul\":3935:4183   */\n    tag_64:\n        /* \"#utility.yul\":4041:4045   */\n      0x00\n        /* \"#utility.yul\":4079:4081   */\n      0x20\n        /* \"#utility.yul\":4068:4077   */\n      dup3\n        /* \"#utility.yul\":4064:4082   */\n      add\n        /* \"#utility.yul\":4056:4082   */\n      swap1\n      pop\n        /* \"#utility.yul\":4092:4176   */\n      tag_210\n        /* \"#utility.yul\":4173:4174   */\n      0x00\n        /* \"#utility.yul\":4162:4171   */\n      dup4\n        /* \"#utility.yul\":4158:4175   */\n      add\n        /* \"#utility.yul\":4149:4155   */\n      dup5\n        /* \"#utility.yul\":4092:4176   */\n      tag_135\n      jump\t// in\n    tag_210:\n        /* \"#utility.yul\":3935:4183   */\n      swap3\n      swap2\n      pop\n      pop\n      jump\t// out\n        /* \"#utility.yul\":4189:4307   */\n    tag_136:\n        /* \"#utility.yul\":4276:4300   */\n      tag_212\n        /* \"#utility.yul\":4294:4299   */\n      dup2\n        /* \"#utility.yul\":4276:4300   */\n      tag_124\n      jump\t// in\n    tag_212:\n        /* \"#utility.yul\":4271:4274   */\n      dup3\n        /* \"#utility.yul\":4264:4301   */\n      mstore\n        /* \"#utility.yul\":4189:4307   */\n      pop\n      pop\n      jump\t// out\n        /* \"#utility.yul\":4313:4755   */\n    tag_67:\n        /* \"#utility.yul\":4462:4466   */\n      0x00\n        /* \"#utility.yul\":4500:4502   */\n      0x60\n        /* \"#utility.yul\":4489:4498   */\n      dup3\n        /* \"#utility.yul\":4485:4503   */\n      add\n        /* \"#utility.yul\":4477:4503   */\n      swap1\n      pop\n        /* \"#utility.yul\":4513:4584   */\n      tag_214\n        /* \"#utility.yul\":4581:4582   */\n      0x00\n        /* \"#utility.yul\":4570:4579   */\n      dup4\n        /* \"#utility.yul\":4566:4583   */\n      add\n        /* \"#utility.yul\":4557:4563   */\n      dup7\n        /* \"#utility.yul\":4513:4584   */\n      tag_136\n      jump\t// in\n    tag_214:\n        /* \"#utility.yul\":4594:4666   */\n      tag_215\n        /* \"#utility.yul\":4662:4664   */\n      0x20\n        /* \"#utility.yul\":4651:4660   */\n      dup4\n        /* \"#utility.yul\":4647:4665   */\n      add\n        /* \"#utility.yul\":4638:4644   */\n      dup6\n        /* \"#utility.yul\":4594:4666   */\n      tag_136\n      jump\t// in\n    tag_215:\n        /* \"#utility.yul\":4676:4748   */\n      tag_216\n        /* \"#utility.yul\":4744:4746   */\n      0x40\n        /* \"#utility.yul\":4733:4742   */\n      dup4\n        /* \"#utility.yul\":4729:4747   */\n      add\n        /* \"#utility.yul\":4720:4726   */\n      dup5\n        /* \"#utility.yul\":4676:4748   */\n      tag_128\n      jump\t// in\n    tag_216:\n        /* \"#utility.yul\":4313:4755   */\n      swap5\n      swap4\n      pop\n      pop\n      pop\n      pop\n      jump\t// out\n        /* \"#utility.yul\":4761:4851   */\n    tag_137:\n        /* \"#utility.yul\":4795:4802   */\n      0x00\n        /* \"#utility.yul\":4838:4843   */\n      dup2\n        /* \"#utility.yul\":4831:4844   */\n      iszero\n        /* \"#utility.yul\":4824:4845   */\n      iszero\n        /* \"#utility.yul\":4813:4845   */\n      swap1\n      pop\n        /* \"#utility.yul\":4761:4851   */\n      swap2\n      swap1\n      pop\n      jump\t// out\n        /* \"#utility.yul\":4857:4973   */\n    tag_138:\n        /* \"#utility.yul\":4927:4948   */\n      tag_219\n        /* \"#utility.yul\":4942:4947   */\n      dup2\n        /* \"#utility.yul\":4927:4948   */\n      tag_137\n      jump\t// in\n    tag_219:\n        /* \"#utility.yul\":4920:4925   */\n      dup2\n        /* \"#utility.yul\":4917:4949   */\n      eq\n        /* \"#utility.yul\":4907:4967   */\n      tag_220\n      jumpi\n        /* \"#utility.yul\":4963:4964   */\n      0x00\n        /* \"#utility.yul\":4960:4961   */\n      dup1\n        /* \"#utility.yul\":4953:4965   */\n      revert\n        /* \"#utility.yul\":4907:4967   */\n    tag_220:\n        /* \"#utility.yul\":4857:4973   */\n      pop\n      jump\t// out\n        /* \"#utility.yul\":4979:5116   */\n    tag_139:\n        /* \"#utility.yul\":5033:5038   */\n      0x00\n        /* \"#utility.yul\":5064:5070   */\n      dup2\n        /* \"#utility.yul\":5058:5071   */\n      mload\n        /* \"#utility.yul\":5049:5071   */\n      swap1\n      pop\n        /* \"#utility.yul\":5080:5110   */\n      tag_222\n        /* \"#utility.yul\":5104:5109   */\n      dup2\n        /* \"#utility.yul\":5080:5110   */\n      tag_138\n      jump\t// in\n    tag_222:\n        /* \"#utility.yul\":4979:5116   */\n      swap3\n      swap2\n      pop\n      pop\n      jump\t// out\n        /* \"#utility.yul\":5122:5467   */\n    tag_71:\n        /* \"#utility.yul\":5189:5195   */\n      0x00\n        /* \"#utility.yul\":5238:5240   */\n      0x20\n        /* \"#utility.yul\":5226:5235   */\n      dup3\n        /* \"#utility.yul\":5217:5224   */\n      dup5\n        /* \"#utility.yul\":5213:5236   */\n      sub\n        /* \"#utility.yul\":5209:5241   */\n      slt\n        /* \"#utility.yul\":5206:5325   */\n      iszero\n      tag_224\n      jumpi\n        /* \"#utility.yul\":5244:5323   */\n      tag_225\n      tag_121\n      jump\t// in\n    tag_225:\n        /* \"#utility.yul\":5206:5325   */\n    tag_224:\n        /* \"#utility.yul\":5364:5365   */\n      0x00\n        /* \"#utility.yul\":5389:5450   */\n      tag_226\n        /* \"#utility.yul\":5442:5449   */\n      dup5\n        /* \"#utility.yul\":5433:5439   */\n      dup3\n        /* \"#utility.yul\":5422:5431   */\n      dup6\n        /* \"#utility.yul\":5418:5440   */\n      add\n        /* \"#utility.yul\":5389:5450   */\n      tag_139\n      jump\t// in\n    tag_226:\n        /* \"#utility.yul\":5379:5450   */\n      swap2\n      pop\n        /* \"#utility.yul\":5335:5460   */\n      pop\n        /* \"#utility.yul\":5122:5467   */\n      swap3\n      swap2\n      pop\n      pop\n      jump\t// out\n        /* \"#utility.yul\":5473:5642   */\n    tag_140:\n        /* \"#utility.yul\":5557:5568   */\n      0x00\n        /* \"#utility.yul\":5591:5597   */\n      dup3\n        /* \"#utility.yul\":5586:5589   */\n      dup3\n        /* \"#utility.yul\":5579:5598   */\n      mstore\n        /* \"#utility.yul\":5631:5635   */\n      0x20\n        /* \"#utility.yul\":5626:5629   */\n      dup3\n        /* \"#utility.yul\":5622:5636   */\n      add\n        /* \"#utility.yul\":5607:5636   */\n      swap1\n      pop\n        /* \"#utility.yul\":5473:5642   */\n      swap3\n      swap2\n      pop\n      pop\n      jump\t// out\n        /* \"#utility.yul\":5648:5871   */\n    tag_141:\n        /* \"#utility.yul\":5788:5822   */\n      0x546f6b656e7320617265204c6f636b656420696e20736d61727420636f6e7472\n        /* \"#utility.yul\":5784:5785   */\n      0x00\n        /* \"#utility.yul\":5776:5782   */\n      dup3\n        /* \"#utility.yul\":5772:5786   */\n      add\n        /* \"#utility.yul\":5765:5823   */\n      mstore\n        /* \"#utility.yul\":5857:5863   */\n      0x6163742000000000000000000000000000000000000000000000000000000000\n        /* \"#utility.yul\":5852:5854   */\n      0x20\n        /* \"#utility.yul\":5844:5850   */\n      dup3\n        /* \"#utility.yul\":5840:5855   */\n      add\n        /* \"#utility.yul\":5833:5864   */\n      mstore\n        /* \"#utility.yul\":5648:5871   */\n      pop\n      jump\t// out\n        /* \"#utility.yul\":5877:6243   */\n    tag_142:\n        /* \"#utility.yul\":6019:6022   */\n      0x00\n        /* \"#utility.yul\":6040:6107   */\n      tag_230\n        /* \"#utility.yul\":6104:6106   */\n      0x24\n        /* \"#utility.yul\":6099:6102   */\n      dup4\n        /* \"#utility.yul\":6040:6107   */\n      tag_140\n      jump\t// in\n    tag_230:\n        /* \"#utility.yul\":6033:6107   */\n      swap2\n      pop\n        /* \"#utility.yul\":6116:6209   */\n      tag_231\n        /* \"#utility.yul\":6205:6208   */\n      dup3\n        /* \"#utility.yul\":6116:6209   */\n      tag_141\n      jump\t// in\n    tag_231:\n        /* \"#utility.yul\":6234:6236   */\n      0x40\n        /* \"#utility.yul\":6229:6232   */\n      dup3\n        /* \"#utility.yul\":6225:6237   */\n      add\n        /* \"#utility.yul\":6218:6237   */\n      swap1\n      pop\n        /* \"#utility.yul\":5877:6243   */\n      swap2\n      swap1\n      pop\n      jump\t// out\n        /* \"#utility.yul\":6249:6778   */\n    tag_73:\n        /* \"#utility.yul\":6443:6447   */\n      0x00\n        /* \"#utility.yul\":6481:6483   */\n      0x40\n        /* \"#utility.yul\":6470:6479   */\n      dup3\n        /* \"#utility.yul\":6466:6484   */\n      add\n        /* \"#utility.yul\":6458:6484   */\n      swap1\n      pop\n        /* \"#utility.yul\":6494:6565   */\n      tag_233\n        /* \"#utility.yul\":6562:6563   */\n      0x00\n        /* \"#utility.yul\":6551:6560   */\n      dup4\n        /* \"#utility.yul\":6547:6564   */\n      add\n        /* \"#utility.yul\":6538:6544   */\n      dup5\n        /* \"#utility.yul\":6494:6565   */\n      tag_136\n      jump\t// in\n    tag_233:\n        /* \"#utility.yul\":6612:6621   */\n      dup2\n        /* \"#utility.yul\":6606:6610   */\n      dup2\n        /* \"#utility.yul\":6602:6622   */\n      sub\n        /* \"#utility.yul\":6597:6599   */\n      0x20\n        /* \"#utility.yul\":6586:6595   */\n      dup4\n        /* \"#utility.yul\":6582:6600   */\n      add\n        /* \"#utility.yul\":6575:6623   */\n      mstore\n        /* \"#utility.yul\":6640:6771   */\n      tag_234\n        /* \"#utility.yul\":6766:6770   */\n      dup2\n        /* \"#utility.yul\":6640:6771   */\n      tag_142\n      jump\t// in\n    tag_234:\n        /* \"#utility.yul\":6632:6771   */\n      swap1\n      pop\n        /* \"#utility.yul\":6249:6778   */\n      swap3\n      swap2\n      pop\n      pop\n      jump\t// out\n        /* \"#utility.yul\":6784:7017   */\n    tag_143:\n        /* \"#utility.yul\":6924:6958   */\n      0x546f6b656e7320436c61696d696e67206172652067726561746572207468616e\n        /* \"#utility.yul\":6920:6921   */\n      0x00\n        /* \"#utility.yul\":6912:6918   */\n      dup3\n        /* \"#utility.yul\":6908:6922   */\n      add\n        /* \"#utility.yul\":6901:6959   */\n      mstore\n        /* \"#utility.yul\":6993:7009   */\n      0x20746f6b656e73206c6f636b6564000000000000000000000000000000000000\n        /* \"#utility.yul\":6988:6990   */\n      0x20\n        /* \"#utility.yul\":6980:6986   */\n      dup3\n        /* \"#utility.yul\":6976:6991   */\n      add\n        /* \"#utility.yul\":6969:7010   */\n      mstore\n        /* \"#utility.yul\":6784:7017   */\n      pop\n      jump\t// out\n        /* \"#utility.yul\":7023:7389   */\n    tag_144:\n        /* \"#utility.yul\":7165:7168   */\n      0x00\n        /* \"#utility.yul\":7186:7253   */\n      tag_237\n        /* \"#utility.yul\":7250:7252   */\n      0x2e\n        /* \"#utility.yul\":7245:7248   */\n      dup4\n        /* \"#utility.yul\":7186:7253   */\n      tag_140\n      jump\t// in\n    tag_237:\n        /* \"#utility.yul\":7179:7253   */\n      swap2\n      pop\n        /* \"#utility.yul\":7262:7355   */\n      tag_238\n        /* \"#utility.yul\":7351:7354   */\n      dup3\n        /* \"#utility.yul\":7262:7355   */\n      tag_143\n      jump\t// in\n    tag_238:\n        /* \"#utility.yul\":7380:7382   */\n      0x40\n        /* \"#utility.yul\":7375:7378   */\n      dup3\n        /* \"#utility.yul\":7371:7383   */\n      add\n        /* \"#utility.yul\":7364:7383   */\n      swap1\n      pop\n        /* \"#utility.yul\":7023:7389   */\n      swap2\n      swap1\n      pop\n      jump\t// out\n        /* \"#utility.yul\":7395:7814   */\n    tag_79:\n        /* \"#utility.yul\":7561:7565   */\n      0x00\n        /* \"#utility.yul\":7599:7601   */\n      0x20\n        /* \"#utility.yul\":7588:7597   */\n      dup3\n        /* \"#utility.yul\":7584:7602   */\n      add\n        /* \"#utility.yul\":7576:7602   */\n      swap1\n      pop\n        /* \"#utility.yul\":7648:7657   */\n      dup2\n        /* \"#utility.yul\":7642:7646   */\n      dup2\n        /* \"#utility.yul\":7638:7658   */\n      sub\n        /* \"#utility.yul\":7634:7635   */\n      0x00\n        /* \"#utility.yul\":7623:7632   */\n      dup4\n        /* \"#utility.yul\":7619:7636   */\n      add\n        /* \"#utility.yul\":7612:7659   */\n      mstore\n        /* \"#utility.yul\":7676:7807   */\n      tag_240\n        /* \"#utility.yul\":7802:7806   */\n      dup2\n        /* \"#utility.yul\":7676:7807   */\n      tag_144\n      jump\t// in\n    tag_240:\n        /* \"#utility.yul\":7668:7807   */\n      swap1\n      pop\n        /* \"#utility.yul\":7395:7814   */\n      swap2\n      swap1\n      pop\n      jump\t// out\n        /* \"#utility.yul\":7820:7985   */\n    tag_145:\n        /* \"#utility.yul\":7960:7977   */\n      0x416c726561647920436c61696d65640000000000000000000000000000000000\n        /* \"#utility.yul\":7956:7957   */\n      0x00\n        /* \"#utility.yul\":7948:7954   */\n      dup3\n        /* \"#utility.yul\":7944:7958   */\n      add\n        /* \"#utility.yul\":7937:7978   */\n      mstore\n        /* \"#utility.yul\":7820:7985   */\n      pop\n      jump\t// out\n        /* \"#utility.yul\":7991:8357   */\n    tag_146:\n        /* \"#utility.yul\":8133:8136   */\n      0x00\n        /* \"#utility.yul\":8154:8221   */\n      tag_243\n        /* \"#utility.yul\":8218:8220   */\n      0x0f\n        /* \"#utility.yul\":8213:8216   */\n      dup4\n        /* \"#utility.yul\":8154:8221   */\n      tag_140\n      jump\t// in\n    tag_243:\n        /* \"#utility.yul\":8147:8221   */\n      swap2\n      pop\n        /* \"#utility.yul\":8230:8323   */\n      tag_244\n        /* \"#utility.yul\":8319:8322   */\n      dup3\n        /* \"#utility.yul\":8230:8323   */\n      tag_145\n      jump\t// in\n    tag_244:\n        /* \"#utility.yul\":8348:8350   */\n      0x20\n        /* \"#utility.yul\":8343:8346   */\n      dup3\n        /* \"#utility.yul\":8339:8351   */\n      add\n        /* \"#utility.yul\":8332:8351   */\n      swap1\n      pop\n        /* \"#utility.yul\":7991:8357   */\n      swap2\n      swap1\n      pop\n      jump\t// out\n        /* \"#utility.yul\":8363:8782   */\n    tag_82:\n        /* \"#utility.yul\":8529:8533   */\n      0x00\n        /* \"#utility.yul\":8567:8569   */\n      0x20\n        /* \"#utility.yul\":8556:8565   */\n      dup3\n        /* \"#utility.yul\":8552:8570   */\n      add\n        /* \"#utility.yul\":8544:8570   */\n      swap1\n      pop\n        /* \"#utility.yul\":8616:8625   */\n      dup2\n        /* \"#utility.yul\":8610:8614   */\n      dup2\n        /* \"#utility.yul\":8606:8626   */\n      sub\n        /* \"#utility.yul\":8602:8603   */\n      0x00\n        /* \"#utility.yul\":8591:8600   */\n      dup4\n        /* \"#utility.yul\":8587:8604   */\n      add\n        /* \"#utility.yul\":8580:8627   */\n      mstore\n        /* \"#utility.yul\":8644:8775   */\n      tag_246\n        /* \"#utility.yul\":8770:8774   */\n      dup2\n        /* \"#utility.yul\":8644:8775   */\n      tag_146\n      jump\t// in\n    tag_246:\n        /* \"#utility.yul\":8636:8775   */\n      swap1\n      pop\n        /* \"#utility.yul\":8363:8782   */\n      swap2\n      swap1\n      pop\n      jump\t// out\n        /* \"#utility.yul\":8788:8968   */\n    tag_147:\n        /* \"#utility.yul\":8836:8913   */\n      0x4e487b7100000000000000000000000000000000000000000000000000000000\n        /* \"#utility.yul\":8833:8834   */\n      0x00\n        /* \"#utility.yul\":8826:8914   */\n      mstore\n        /* \"#utility.yul\":8933:8937   */\n      0x11\n        /* \"#utility.yul\":8930:8931   */\n      0x04\n        /* \"#utility.yul\":8923:8938   */\n      mstore\n        /* \"#utility.yul\":8957:8961   */\n      0x24\n        /* \"#utility.yul\":8954:8955   */\n      0x00\n        /* \"#utility.yul\":8947:8962   */\n      revert\n        /* \"#utility.yul\":8974:9165   */\n    tag_84:\n        /* \"#utility.yul\":9014:9017   */\n      0x00\n        /* \"#utility.yul\":9033:9053   */\n      tag_249\n        /* \"#utility.yul\":9051:9052   */\n      dup3\n        /* \"#utility.yul\":9033:9053   */\n      tag_127\n      jump\t// in\n    tag_249:\n        /* \"#utility.yul\":9028:9053   */\n      swap2\n      pop\n        /* \"#utility.yul\":9067:9087   */\n      tag_250\n        /* \"#utility.yul\":9085:9086   */\n      dup4\n        /* \"#utility.yul\":9067:9087   */\n      tag_127\n      jump\t// in\n    tag_250:\n        /* \"#utility.yul\":9062:9087   */\n      swap3\n      pop\n        /* \"#utility.yul\":9110:9111   */\n      dup3\n        /* \"#utility.yul\":9107:9108   */\n      dup3\n        /* \"#utility.yul\":9103:9112   */\n      add\n        /* \"#utility.yul\":9096:9112   */\n      swap1\n      pop\n        /* \"#utility.yul\":9131:9134   */\n      dup1\n        /* \"#utility.yul\":9128:9129   */\n      dup3\n        /* \"#utility.yul\":9125:9135   */\n      gt\n        /* \"#utility.yul\":9122:9158   */\n      iszero\n      tag_251\n      jumpi\n        /* \"#utility.yul\":9138:9156   */\n      tag_252\n      tag_147\n      jump\t// in\n    tag_252:\n        /* \"#utility.yul\":9122:9158   */\n    tag_251:\n        /* \"#utility.yul\":8974:9165   */\n      swap3\n      swap2\n      pop\n      pop\n      jump\t// out\n        /* \"#utility.yul\":9171:9503   */\n    tag_86:\n        /* \"#utility.yul\":9292:9296   */\n      0x00\n        /* \"#utility.yul\":9330:9332   */\n      0x40\n        /* \"#utility.yul\":9319:9328   */\n      dup3\n        /* \"#utility.yul\":9315:9333   */\n      add\n        /* \"#utility.yul\":9307:9333   */\n      swap1\n      pop\n        /* \"#utility.yul\":9343:9414   */\n      tag_254\n        /* \"#utility.yul\":9411:9412   */\n      0x00\n        /* \"#utility.yul\":9400:9409   */\n      dup4\n        /* \"#utility.yul\":9396:9413   */\n      add\n        /* \"#utility.yul\":9387:9393   */\n      dup6\n        /* \"#utility.yul\":9343:9414   */\n      tag_136\n      jump\t// in\n    tag_254:\n        /* \"#utility.yul\":9424:9496   */\n      tag_255\n        /* \"#utility.yul\":9492:9494   */\n      0x20\n        /* \"#utility.yul\":9481:9490   */\n      dup4\n        /* \"#utility.yul\":9477:9495   */\n      add\n        /* \"#utility.yul\":9468:9474   */\n      dup5\n        /* \"#utility.yul\":9424:9496   */\n      tag_128\n      jump\t// in\n    tag_255:\n        /* \"#utility.yul\":9171:9503   */\n      swap4\n      swap3\n      pop\n      pop\n      pop\n      jump\t// out\n        /* \"#utility.yul\":9509:9742   */\n    tag_148:\n        /* \"#utility.yul\":9649:9683   */\n      0x546f6b656e73206172652052656c656173656420696e206163636f756e74206f\n        /* \"#utility.yul\":9645:9646   */\n      0x00\n        /* \"#utility.yul\":9637:9643   */\n      dup3\n        /* \"#utility.yul\":9633:9647   */\n      add\n        /* \"#utility.yul\":9626:9684   */\n      mstore\n        /* \"#utility.yul\":9718:9734   */\n      0x662062656e656669636961727920000000000000000000000000000000000000\n        /* \"#utility.yul\":9713:9715   */\n      0x20\n        /* \"#utility.yul\":9705:9711   */\n      dup3\n        /* \"#utility.yul\":9701:9716   */\n      add\n        /* \"#utility.yul\":9694:9735   */\n      mstore\n        /* \"#utility.yul\":9509:9742   */\n      pop\n      jump\t// out\n        /* \"#utility.yul\":9748:10114   */\n    tag_149:\n        /* \"#utility.yul\":9890:9893   */\n      0x00\n        /* \"#utility.yul\":9911:9978   */\n      tag_258\n        /* \"#utility.yul\":9975:9977   */\n      0x2e\n        /* \"#utility.yul\":9970:9973   */\n      dup4\n        /* \"#utility.yul\":9911:9978   */\n      tag_140\n      jump\t// in\n    tag_258:\n        /* \"#utility.yul\":9904:9978   */\n      swap2\n      pop\n        /* \"#utility.yul\":9987:10080   */\n      tag_259\n        /* \"#utility.yul\":10076:10079   */\n      dup3\n        /* \"#utility.yul\":9987:10080   */\n      tag_148\n      jump\t// in\n    tag_259:\n        /* \"#utility.yul\":10105:10107   */\n      0x40\n        /* \"#utility.yul\":10100:10103   */\n      dup3\n        /* \"#utility.yul\":10096:10108   */\n      add\n        /* \"#utility.yul\":10089:10108   */\n      swap1\n      pop\n        /* \"#utility.yul\":9748:10114   */\n      swap2\n      swap1\n      pop\n      jump\t// out\n        /* \"#utility.yul\":10120:10649   */\n    tag_91:\n        /* \"#utility.yul\":10314:10318   */\n      0x00\n        /* \"#utility.yul\":10352:10354   */\n      0x40\n        /* \"#utility.yul\":10341:10350   */\n      dup3\n        /* \"#utility.yul\":10337:10355   */\n      add\n        /* \"#utility.yul\":10329:10355   */\n      swap1\n      pop\n        /* \"#utility.yul\":10365:10436   */\n      tag_261\n        /* \"#utility.yul\":10433:10434   */\n      0x00\n        /* \"#utility.yul\":10422:10431   */\n      dup4\n        /* \"#utility.yul\":10418:10435   */\n      add\n        /* \"#utility.yul\":10409:10415   */\n      dup5\n        /* \"#utility.yul\":10365:10436   */\n      tag_136\n      jump\t// in\n    tag_261:\n        /* \"#utility.yul\":10483:10492   */\n      dup2\n        /* \"#utility.yul\":10477:10481   */\n      dup2\n        /* \"#utility.yul\":10473:10493   */\n      sub\n        /* \"#utility.yul\":10468:10470   */\n      0x20\n        /* \"#utility.yul\":10457:10466   */\n      dup4\n        /* \"#utility.yul\":10453:10471   */\n      add\n        /* \"#utility.yul\":10446:10494   */\n      mstore\n        /* \"#utility.yul\":10511:10642   */\n      tag_262\n        /* \"#utility.yul\":10637:10641   */\n      dup2\n        /* \"#utility.yul\":10511:10642   */\n      tag_149\n      jump\t// in\n    tag_262:\n        /* \"#utility.yul\":10503:10642   */\n      swap1\n      pop\n        /* \"#utility.yul\":10120:10649   */\n      swap3\n      swap2\n      pop\n      pop\n      jump\t// out\n        /* \"#utility.yul\":10655:10886   */\n    tag_150:\n        /* \"#utility.yul\":10795:10829   */\n      0x4f6e6c792042656e6566696369617279204f72204f776e65722063616e205265\n        /* \"#utility.yul\":10791:10792   */\n      0x00\n        /* \"#utility.yul\":10783:10789   */\n      dup3\n        /* \"#utility.yul\":10779:10793   */\n      add\n        /* \"#utility.yul\":10772:10830   */\n      mstore\n        /* \"#utility.yul\":10864:10878   */\n      0x6c6561736520546f6b656e730000000000000000000000000000000000000000\n        /* \"#utility.yul\":10859:10861   */\n      0x20\n        /* \"#utility.yul\":10851:10857   */\n      dup3\n        /* \"#utility.yul\":10847:10862   */\n      add\n        /* \"#utility.yul\":10840:10879   */\n      mstore\n        /* \"#utility.yul\":10655:10886   */\n      pop\n      jump\t// out\n        /* \"#utility.yul\":10892:11258   */\n    tag_151:\n        /* \"#utility.yul\":11034:11037   */\n      0x00\n        /* \"#utility.yul\":11055:11122   */\n      tag_265\n        /* \"#utility.yul\":11119:11121   */\n      0x2c\n        /* \"#utility.yul\":11114:11117   */\n      dup4\n        /* \"#utility.yul\":11055:11122   */\n      tag_140\n      jump\t// in\n    tag_265:\n        /* \"#utility.yul\":11048:11122   */\n      swap2\n      pop\n        /* \"#utility.yul\":11131:11224   */\n      tag_266\n        /* \"#utility.yul\":11220:11223   */\n      dup3\n        /* \"#utility.yul\":11131:11224   */\n      tag_150\n      jump\t// in\n    tag_266:\n        /* \"#utility.yul\":11249:11251   */\n      0x40\n        /* \"#utility.yul\":11244:11247   */\n      dup3\n        /* \"#utility.yul\":11240:11252   */\n      add\n        /* \"#utility.yul\":11233:11252   */\n      swap1\n      pop\n        /* \"#utility.yul\":10892:11258   */\n      swap2\n      swap1\n      pop\n      jump\t// out\n        /* \"#utility.yul\":11264:11683   */\n    tag_95:\n        /* \"#utility.yul\":11430:11434   */\n      0x00\n        /* \"#utility.yul\":11468:11470   */\n      0x20\n        /* \"#utility.yul\":11457:11466   */\n      dup3\n        /* \"#utility.yul\":11453:11471   */\n      add\n        /* \"#utility.yul\":11445:11471   */\n      swap1\n      pop\n        /* \"#utility.yul\":11517:11526   */\n      dup2\n        /* \"#utility.yul\":11511:11515   */\n      dup2\n        /* \"#utility.yul\":11507:11527   */\n      sub\n        /* \"#utility.yul\":11503:11504   */\n      0x00\n        /* \"#utility.yul\":11492:11501   */\n      dup4\n        /* \"#utility.yul\":11488:11505   */\n      add\n        /* \"#utility.yul\":11481:11528   */\n      mstore\n        /* \"#utility.yul\":11545:11676   */\n      tag_268\n        /* \"#utility.yul\":11671:11675   */\n      dup2\n        /* \"#utility.yul\":11545:11676   */\n      tag_151\n      jump\t// in\n    tag_268:\n        /* \"#utility.yul\":11537:11676   */\n      swap1\n      pop\n        /* \"#utility.yul\":11264:11683   */\n      swap2\n      swap1\n      pop\n      jump\t// out\n        /* \"#utility.yul\":11689:11860   */\n    tag_152:\n        /* \"#utility.yul\":11829:11852   */\n      0x4e65772042656e65666963696172792041646465640000000000000000000000\n        /* \"#utility.yul\":11825:11826   */\n      0x00\n        /* \"#utility.yul\":11817:11823   */\n      dup3\n        /* \"#utility.yul\":11813:11827   */\n      add\n        /* \"#utility.yul\":11806:11853   */\n      mstore\n        /* \"#utility.yul\":11689:11860   */\n      pop\n      jump\t// out\n        /* \"#utility.yul\":11866:12232   */\n    tag_153:\n        /* \"#utility.yul\":12008:12011   */\n      0x00\n        /* \"#utility.yul\":12029:12096   */\n      tag_271\n        /* \"#utility.yul\":12093:12095   */\n      0x15\n        /* \"#utility.yul\":12088:12091   */\n      dup4\n        /* \"#utility.yul\":12029:12096   */\n      tag_140\n      jump\t// in\n    tag_271:\n        /* \"#utility.yul\":12022:12096   */\n      swap2\n      pop\n        /* \"#utility.yul\":12105:12198   */\n      tag_272\n        /* \"#utility.yul\":12194:12197   */\n      dup3\n        /* \"#utility.yul\":12105:12198   */\n      tag_152\n      jump\t// in\n    tag_272:\n        /* \"#utility.yul\":12223:12225   */\n      0x20\n        /* \"#utility.yul\":12218:12221   */\n      dup3\n        /* \"#utility.yul\":12214:12226   */\n      add\n        /* \"#utility.yul\":12207:12226   */\n      swap1\n      pop\n        /* \"#utility.yul\":11866:12232   */\n      swap2\n      swap1\n      pop\n      jump\t// out\n        /* \"#utility.yul\":12238:12767   */\n    tag_99:\n        /* \"#utility.yul\":12432:12436   */\n      0x00\n        /* \"#utility.yul\":12470:12472   */\n      0x40\n        /* \"#utility.yul\":12459:12468   */\n      dup3\n        /* \"#utility.yul\":12455:12473   */\n      add\n        /* \"#utility.yul\":12447:12473   */\n      swap1\n      pop\n        /* \"#utility.yul\":12483:12554   */\n      tag_274\n        /* \"#utility.yul\":12551:12552   */\n      0x00\n        /* \"#utility.yul\":12540:12549   */\n      dup4\n        /* \"#utility.yul\":12536:12553   */\n      add\n        /* \"#utility.yul\":12527:12533   */\n      dup5\n        /* \"#utility.yul\":12483:12554   */\n      tag_136\n      jump\t// in\n    tag_274:\n        /* \"#utility.yul\":12601:12610   */\n      dup2\n        /* \"#utility.yul\":12595:12599   */\n      dup2\n        /* \"#utility.yul\":12591:12611   */\n      sub\n        /* \"#utility.yul\":12586:12588   */\n      0x20\n        /* \"#utility.yul\":12575:12584   */\n      dup4\n        /* \"#utility.yul\":12571:12589   */\n      add\n        /* \"#utility.yul\":12564:12612   */\n      mstore\n        /* \"#utility.yul\":12629:12760   */\n      tag_275\n        /* \"#utility.yul\":12755:12759   */\n      dup2\n        /* \"#utility.yul\":12629:12760   */\n      tag_153\n      jump\t// in\n    tag_275:\n        /* \"#utility.yul\":12621:12760   */\n      swap1\n      pop\n        /* \"#utility.yul\":12238:12767   */\n      swap3\n      swap2\n      pop\n      pop\n      jump\t// out\n        /* \"#utility.yul\":12773:12994   */\n    tag_154:\n        /* \"#utility.yul\":12913:12947   */\n      0x204f6e6c79204f776e65722063616e204164642062656e656665696369617269\n        /* \"#utility.yul\":12909:12910   */\n      0x00\n        /* \"#utility.yul\":12901:12907   */\n      dup3\n        /* \"#utility.yul\":12897:12911   */\n      add\n        /* \"#utility.yul\":12890:12948   */\n      mstore\n        /* \"#utility.yul\":12982:12986   */\n      0x6573000000000000000000000000000000000000000000000000000000000000\n        /* \"#utility.yul\":12977:12979   */\n      0x20\n        /* \"#utility.yul\":12969:12975   */\n      dup3\n        /* \"#utility.yul\":12965:12980   */\n      add\n        /* \"#utility.yul\":12958:12987   */\n      mstore\n        /* \"#utility.yul\":12773:12994   */\n      pop\n      jump\t// out\n        /* \"#utility.yul\":13000:13366   */\n    tag_155:\n        /* \"#utility.yul\":13142:13145   */\n      0x00\n        /* \"#utility.yul\":13163:13230   */\n      tag_278\n        /* \"#utility.yul\":13227:13229   */\n      0x22\n        /* \"#utility.yul\":13222:13225   */\n      dup4\n        /* \"#utility.yul\":13163:13230   */\n      tag_140\n      jump\t// in\n    tag_278:\n        /* \"#utility.yul\":13156:13230   */\n      swap2\n      pop\n        /* \"#utility.yul\":13239:13332   */\n      tag_279\n        /* \"#utility.yul\":13328:13331   */\n      dup3\n        /* \"#utility.yul\":13239:13332   */\n      tag_154\n      jump\t// in\n    tag_279:\n        /* \"#utility.yul\":13357:13359   */\n      0x40\n        /* \"#utility.yul\":13352:13355   */\n      dup3\n        /* \"#utility.yul\":13348:13360   */\n      add\n        /* \"#utility.yul\":13341:13360   */\n      swap1\n      pop\n        /* \"#utility.yul\":13000:13366   */\n      swap2\n      swap1\n      pop\n      jump\t// out\n        /* \"#utility.yul\":13372:13791   */\n    tag_102:\n        /* \"#utility.yul\":13538:13542   */\n      0x00\n        /* \"#utility.yul\":13576:13578   */\n      0x20\n        /* \"#utility.yul\":13565:13574   */\n      dup3\n        /* \"#utility.yul\":13561:13579   */\n      add\n        /* \"#utility.yul\":13553:13579   */\n      swap1\n      pop\n        /* \"#utility.yul\":13625:13634   */\n      dup2\n        /* \"#utility.yul\":13619:13623   */\n      dup2\n        /* \"#utility.yul\":13615:13635   */\n      sub\n        /* \"#utility.yul\":13611:13612   */\n      0x00\n        /* \"#utility.yul\":13600:13609   */\n      dup4\n        /* \"#utility.yul\":13596:13613   */\n      add\n        /* \"#utility.yul\":13589:13636   */\n      mstore\n        /* \"#utility.yul\":13653:13784   */\n      tag_281\n        /* \"#utility.yul\":13779:13783   */\n      dup2\n        /* \"#utility.yul\":13653:13784   */\n      tag_155\n      jump\t// in\n    tag_281:\n        /* \"#utility.yul\":13645:13784   */\n      swap1\n      pop\n        /* \"#utility.yul\":13372:13791   */\n      swap2\n      swap1\n      pop\n      jump\t// out\n        /* \"#utility.yul\":13797:13991   */\n    tag_106:\n        /* \"#utility.yul\":13837:13841   */\n      0x00\n        /* \"#utility.yul\":13857:13877   */\n      tag_283\n        /* \"#utility.yul\":13875:13876   */\n      dup3\n        /* \"#utility.yul\":13857:13877   */\n      tag_127\n      jump\t// in\n    tag_283:\n        /* \"#utility.yul\":13852:13877   */\n      swap2\n      pop\n        /* \"#utility.yul\":13891:13911   */\n      tag_284\n        /* \"#utility.yul\":13909:13910   */\n      dup4\n        /* \"#utility.yul\":13891:13911   */\n      tag_127\n      jump\t// in\n    tag_284:\n        /* \"#utility.yul\":13886:13911   */\n      swap3\n      pop\n        /* \"#utility.yul\":13935:13936   */\n      dup3\n        /* \"#utility.yul\":13932:13933   */\n      dup3\n        /* \"#utility.yul\":13928:13937   */\n      sub\n        /* \"#utility.yul\":13920:13937   */\n      swap1\n      pop\n        /* \"#utility.yul\":13959:13960   */\n      dup2\n        /* \"#utility.yul\":13953:13957   */\n      dup2\n        /* \"#utility.yul\":13950:13961   */\n      gt\n        /* \"#utility.yul\":13947:13984   */\n      iszero\n      tag_285\n      jumpi\n        /* \"#utility.yul\":13964:13982   */\n      tag_286\n      tag_147\n      jump\t// in\n    tag_286:\n        /* \"#utility.yul\":13947:13984   */\n    tag_285:\n        /* \"#utility.yul\":13797:13991   */\n      swap3\n      swap2\n      pop\n      pop\n      jump\t// out\n        /* \"#utility.yul\":13997:14177   */\n    tag_156:\n        /* \"#utility.yul\":14045:14122   */\n      0x4e487b7100000000000000000000000000000000000000000000000000000000\n        /* \"#utility.yul\":14042:14043   */\n      0x00\n        /* \"#utility.yul\":14035:14123   */\n      mstore\n        /* \"#utility.yul\":14142:14146   */\n      0x12\n        /* \"#utility.yul\":14139:14140   */\n      0x04\n        /* \"#utility.yul\":14132:14147   */\n      mstore\n        /* \"#utility.yul\":14166:14170   */\n      0x24\n        /* \"#utility.yul\":14163:14164   */\n      0x00\n        /* \"#utility.yul\":14156:14171   */\n      revert\n        /* \"#utility.yul\":14183:14368   */\n    tag_108:\n        /* \"#utility.yul\":14223:14224   */\n      0x00\n        /* \"#utility.yul\":14240:14260   */\n      tag_289\n        /* \"#utility.yul\":14258:14259   */\n      dup3\n        /* \"#utility.yul\":14240:14260   */\n      tag_127\n      jump\t// in\n    tag_289:\n        /* \"#utility.yul\":14235:14260   */\n      swap2\n      pop\n        /* \"#utility.yul\":14274:14294   */\n      tag_290\n        /* \"#utility.yul\":14292:14293   */\n      dup4\n        /* \"#utility.yul\":14274:14294   */\n      tag_127\n      jump\t// in\n    tag_290:\n        /* \"#utility.yul\":14269:14294   */\n      swap3\n      pop\n        /* \"#utility.yul\":14313:14314   */\n      dup3\n        /* \"#utility.yul\":14303:14338   */\n      tag_291\n      jumpi\n        /* \"#utility.yul\":14318:14336   */\n      tag_292\n      tag_156\n      jump\t// in\n    tag_292:\n        /* \"#utility.yul\":14303:14338   */\n    tag_291:\n        /* \"#utility.yul\":14360:14361   */\n      dup3\n        /* \"#utility.yul\":14357:14358   */\n      dup3\n        /* \"#utility.yul\":14353:14362   */\n      div\n        /* \"#utility.yul\":14348:14362   */\n      swap1\n      pop\n        /* \"#utility.yul\":14183:14368   */\n      swap3\n      swap2\n      pop\n      pop\n      jump\t// out\n        /* \"#utility.yul\":14374:14784   */\n    tag_115:\n        /* \"#utility.yul\":14414:14421   */\n      0x00\n        /* \"#utility.yul\":14437:14457   */\n      tag_294\n        /* \"#utility.yul\":14455:14456   */\n      dup3\n        /* \"#utility.yul\":14437:14457   */\n      tag_127\n      jump\t// in\n    tag_294:\n        /* \"#utility.yul\":14432:14457   */\n      swap2\n      pop\n        /* \"#utility.yul\":14471:14491   */\n      tag_295\n        /* \"#utility.yul\":14489:14490   */\n      dup4\n        /* \"#utility.yul\":14471:14491   */\n      tag_127\n      jump\t// in\n    tag_295:\n        /* \"#utility.yul\":14466:14491   */\n      swap3\n      pop\n        /* \"#utility.yul\":14526:14527   */\n      dup3\n        /* \"#utility.yul\":14523:14524   */\n      dup3\n        /* \"#utility.yul\":14519:14528   */\n      mul\n        /* \"#utility.yul\":14548:14578   */\n      tag_296\n        /* \"#utility.yul\":14566:14577   */\n      dup2\n        /* \"#utility.yul\":14548:14578   */\n      tag_127\n      jump\t// in\n    tag_296:\n        /* \"#utility.yul\":14537:14578   */\n      swap2\n      pop\n        /* \"#utility.yul\":14727:14728   */\n      dup3\n        /* \"#utility.yul\":14718:14725   */\n      dup3\n        /* \"#utility.yul\":14714:14729   */\n      div\n        /* \"#utility.yul\":14711:14712   */\n      dup5\n        /* \"#utility.yul\":14708:14730   */\n      eq\n        /* \"#utility.yul\":14688:14689   */\n      dup4\n        /* \"#utility.yul\":14681:14690   */\n      iszero\n        /* \"#utility.yul\":14661:14744   */\n      or\n        /* \"#utility.yul\":14638:14777   */\n      tag_297\n      jumpi\n        /* \"#utility.yul\":14757:14775   */\n      tag_298\n      tag_147\n      jump\t// in\n    tag_298:\n        /* \"#utility.yul\":14638:14777   */\n    tag_297:\n        /* \"#utility.yul\":14422:14784   */\n      pop\n        /* \"#utility.yul\":14374:14784   */\n      swap3\n      swap2\n      pop\n      pop\n      jump\t// out\n        /* \"#utility.yul\":14790:14962   */\n    tag_157:\n        /* \"#utility.yul\":14930:14954   */\n      0x576169742054696c6c20436c69666620706572696f6400000000000000000000\n        /* \"#utility.yul\":14926:14927   */\n      0x00\n        /* \"#utility.yul\":14918:14924   */\n      dup3\n        /* \"#utility.yul\":14914:14928   */\n      add\n        /* \"#utility.yul\":14907:14955   */\n      mstore\n        /* \"#utility.yul\":14790:14962   */\n      pop\n      jump\t// out\n        /* \"#utility.yul\":14968:15334   */\n    tag_158:\n        /* \"#utility.yul\":15110:15113   */\n      0x00\n        /* \"#utility.yul\":15131:15198   */\n      tag_301\n        /* \"#utility.yul\":15195:15197   */\n      0x16\n        /* \"#utility.yul\":15190:15193   */\n      dup4\n        /* \"#utility.yul\":15131:15198   */\n      tag_140\n      jump\t// in\n    tag_301:\n        /* \"#utility.yul\":15124:15198   */\n      swap2\n      pop\n        /* \"#utility.yul\":15207:15300   */\n      tag_302\n        /* \"#utility.yul\":15296:15299   */\n      dup3\n        /* \"#utility.yul\":15207:15300   */\n      tag_157\n      jump\t// in\n    tag_302:\n        /* \"#utility.yul\":15325:15327   */\n      0x20\n        /* \"#utility.yul\":15320:15323   */\n      dup3\n        /* \"#utility.yul\":15316:15328   */\n      add\n        /* \"#utility.yul\":15309:15328   */\n      swap1\n      pop\n        /* \"#utility.yul\":14968:15334   */\n      swap2\n      swap1\n      pop\n      jump\t// out\n        /* \"#utility.yul\":15340:15759   */\n    tag_119:\n        /* \"#utility.yul\":15506:15510   */\n      0x00\n        /* \"#utility.yul\":15544:15546   */\n      0x20\n        /* \"#utility.yul\":15533:15542   */\n      dup3\n        /* \"#utility.yul\":15529:15547   */\n      add\n        /* \"#utility.yul\":15521:15547   */\n      swap1\n      pop\n        /* \"#utility.yul\":15593:15602   */\n      dup2\n        /* \"#utility.yul\":15587:15591   */\n      dup2\n        /* \"#utility.yul\":15583:15603   */\n      sub\n        /* \"#utility.yul\":15579:15580   */\n      0x00\n        /* \"#utility.yul\":15568:15577   */\n      dup4\n        /* \"#utility.yul\":15564:15581   */\n      add\n        /* \"#utility.yul\":15557:15604   */\n      mstore\n        /* \"#utility.yul\":15621:15752   */\n      tag_304\n        /* \"#utility.yul\":15747:15751   */\n      dup2\n        /* \"#utility.yul\":15621:15752   */\n      tag_158\n      jump\t// in\n    tag_304:\n        /* \"#utility.yul\":15613:15752   */\n      swap1\n      pop\n        /* \"#utility.yul\":15340:15759   */\n      swap2\n      swap1\n      pop\n      jump\t// out\n\n    auxdata: 0xa2646970667358221220203043dff3c789ef418cfc2457c36e74017ee9a7575f5d4634a193fbb1bbf77e64736f6c63430008120033\n}\n",
				"bytecode": {
					"linkReferences": {},
					"object": "60806040523480156200001157600080fd5b5060405162001766380380620017668339818101604052810190620000379190620000fd565b80600860006101000a81548173ffffffffffffffffffffffffffffffffffffffff021916908373ffffffffffffffffffffffffffffffffffffffff160217905550506200012f565b600080fd5b600073ffffffffffffffffffffffffffffffffffffffff82169050919050565b6000620000b18262000084565b9050919050565b6000620000c582620000a4565b9050919050565b620000d781620000b8565b8114620000e357600080fd5b50565b600081519050620000f781620000cc565b92915050565b6000602082840312156200011657620001156200007f565b5b60006200012684828501620000e6565b91505092915050565b611627806200013f6000396000f3fe608060405234801561001057600080fd5b50600436106100b45760003560e01c806396074e701161007157806396074e70146101b1578063b36760a3146101cd578063c4684e9d146101fd578063cb9199a21461022d578063cdce101b1461025d578063fc0c546a1461028d576100b4565b806301567739146100b95780633ce301e5146100e9578063506f36ec146101055780636e1dc66e1461013557806370ff852b1461016557806387b0be4814610195575b600080fd5b6100d360048036038101906100ce9190610dc9565b6102ab565b6040516100e09190610e0f565b60405180910390f35b61010360048036038101906100fe9190610e56565b6102c3565b005b61011f600480360381019061011a9190610dc9565b6105bb565b60405161012c9190610e0f565b60405180910390f35b61014f600480360381019061014a9190610dc9565b6105d3565b60405161015c9190610e0f565b60405180910390f35b61017f600480360381019061017a9190610dc9565b6105eb565b60405161018c9190610e0f565b60405180910390f35b6101af60048036038101906101aa9190610dc9565b610603565b005b6101cb60048036038101906101c69190610ed1565b6108e3565b005b6101e760048036038101906101e29190610dc9565b6109f2565b6040516101f49190610e0f565b60405180910390f35b61021760048036038101906102129190610dc9565b610a0a565b6040516102249190610e0f565b60405180910390f35b61024760048036038101906102429190610dc9565b610d10565b6040516102549190610e0f565b60405180910390f35b61027760048036038101906102729190610dc9565b610d28565b6040516102849190610e0f565b60405180910390f35b610295610d40565b6040516102a29190610f70565b60405180910390f35b60046020528060005260406000206000915090505481565b816000808773ffffffffffffffffffffffffffffffffffffffff1673ffffffffffffffffffffffffffffffffffffffff1681526020019081526020016000208190555082600160008773ffffffffffffffffffffffffffffffffffffffff1673ffffffffffffffffffffffffffffffffffffffff1681526020019081526020016000208190555080600260008773ffffffffffffffffffffffffffffffffffffffff1673ffffffffffffffffffffffffffffffffffffffff1681526020019081526020016000208190555042600360008773ffffffffffffffffffffffffffffffffffffffff1673ffffffffffffffffffffffffffffffffffffffff1681526020019081526020016000208190555033600760006101000a81548173ffffffffffffffffffffffffffffffffffffffff021916908373ffffffffffffffffffffffffffffffffffffffff16021790555083600460008773ffffffffffffffffffffffffffffffffffffffff1673ffffffffffffffffffffffffffffffffffffffff16815260200190815260200160002081905550600460008673ffffffffffffffffffffffffffffffffffffffff1673ffffffffffffffffffffffffffffffffffffffff16815260200190815260200160002054600560008773ffffffffffffffffffffffffffffffffffffffff1673ffffffffffffffffffffffffffffffffffffffff16815260200190815260200160002081905550600860009054906101000a900473ffffffffffffffffffffffffffffffffffffffff1673ffffffffffffffffffffffffffffffffffffffff166323b872dd3330876040518463ffffffff1660e01b815260040161053993929190610f9a565b6020604051808303816000875af1158015610558573d6000803e3d6000fd5b505050506040513d601f19601f8201168201806040525081019061057c9190611009565b507f58061f685b438748cf21469042b11fe4dfb0c77fd2da64032c5adc017fc09a88856040516105ac91906110b9565b60405180910390a15050505050565b60026020528060005260406000206000915090505481565b60036020528060005260406000206000915090505481565b60066020528060005260406000206000915090505481565b80600061060f83610a0a565b9050600460008473ffffffffffffffffffffffffffffffffffffffff1673ffffffffffffffffffffffffffffffffffffffff16815260200190815260200160002054811115610693576040517f08c379a000000000000000000000000000000000000000000000000000000000815260040161068a90611159565b60405180910390fd5b600081116106d6576040517f08c379a00000000000000000000000000000000000000000000000000000000081526004016106cd906111c5565b60405180910390fd5b80600660008573ffffffffffffffffffffffffffffffffffffffff1673ffffffffffffffffffffffffffffffffffffffff16815260200190815260200160002060008282546107259190611214565b92505081905550600860009054906101000a900473ffffffffffffffffffffffffffffffffffffffff1673ffffffffffffffffffffffffffffffffffffffff1663a9059cbb84836040518363ffffffff1660e01b8152600401610789929190611248565b6020604051808303816000875af11580156107a8573d6000803e3d6000fd5b505050506040513d601f19601f820116820180604052508101906107cc9190611009565b507fa13f186497986e7b059df4137d98a76d0cb346d0e9a294755b01975e190434a9836040516107fc91906112e3565b60405180910390a1506000600460008373ffffffffffffffffffffffffffffffffffffffff1673ffffffffffffffffffffffffffffffffffffffff1681526020019081526020016000205411806108a05750600760009054906101000a900473ffffffffffffffffffffffffffffffffffffffff1673ffffffffffffffffffffffffffffffffffffffff163373ffffffffffffffffffffffffffffffffffffffff16145b6108df576040517f08c379a00000000000000000000000000000000000000000000000000000000081526004016108d690611383565b60405180910390fd5b5050565b80600460008473ffffffffffffffffffffffffffffffffffffffff1673ffffffffffffffffffffffffffffffffffffffff168152602001908152602001600020819055507f557197374edb4e72999d5d4c84ca4715c58797739aab2f2b7e300db81b4cd1c38260405161095691906113ef565b60405180910390a1600760009054906101000a900473ffffffffffffffffffffffffffffffffffffffff1673ffffffffffffffffffffffffffffffffffffffff163373ffffffffffffffffffffffffffffffffffffffff16146109ee576040517f08c379a00000000000000000000000000000000000000000000000000000000081526004016109e59061148f565b60405180910390fd5b5050565b60006020528060005260406000206000915090505481565b6000816000600360008573ffffffffffffffffffffffffffffffffffffffff1673ffffffffffffffffffffffffffffffffffffffff1681526020019081526020016000205442610a5a91906114af565b90506000600260008673ffffffffffffffffffffffffffffffffffffffff1673ffffffffffffffffffffffffffffffffffffffff1681526020019081526020016000205482610aa99190611512565b90506000600260008773ffffffffffffffffffffffffffffffffffffffff1673ffffffffffffffffffffffffffffffffffffffff168152602001908152602001600020546000808873ffffffffffffffffffffffffffffffffffffffff1673ffffffffffffffffffffffffffffffffffffffff16815260200190815260200160002054610b369190611512565b9050808210610bd357600660008773ffffffffffffffffffffffffffffffffffffffff1673ffffffffffffffffffffffffffffffffffffffff16815260200190815260200160002054600460008873ffffffffffffffffffffffffffffffffffffffff1673ffffffffffffffffffffffffffffffffffffffff16815260200190815260200160002054610bc991906114af565b9450505050610c88565b600081600460008973ffffffffffffffffffffffffffffffffffffffff1673ffffffffffffffffffffffffffffffffffffffff16815260200190815260200160002054610c209190611512565b905060008382610c309190611543565b9050600660008973ffffffffffffffffffffffffffffffffffffffff1673ffffffffffffffffffffffffffffffffffffffff1681526020019081526020016000205481610c7d91906114af565b905080965050505050505b600160008273ffffffffffffffffffffffffffffffffffffffff1673ffffffffffffffffffffffffffffffffffffffff16815260200190815260200160002054421015610d0a576040517f08c379a0000000000000000000000000000000000000000000000000000000008152600401610d01906115d1565b60405180910390fd5b50919050565b60056020528060005260406000206000915090505481565b60016020528060005260406000206000915090505481565b600860009054906101000a900473ffffffffffffffffffffffffffffffffffffffff1681565b600080fd5b600073ffffffffffffffffffffffffffffffffffffffff82169050919050565b6000610d9682610d6b565b9050919050565b610da681610d8b565b8114610db157600080fd5b50565b600081359050610dc381610d9d565b92915050565b600060208284031215610ddf57610dde610d66565b5b6000610ded84828501610db4565b91505092915050565b6000819050919050565b610e0981610df6565b82525050565b6000602082019050610e246000830184610e00565b92915050565b610e3381610df6565b8114610e3e57600080fd5b50565b600081359050610e5081610e2a565b92915050565b600080600080600060a08688031215610e7257610e71610d66565b5b6000610e8088828901610db4565b9550506020610e9188828901610e41565b9450506040610ea288828901610e41565b9350506060610eb388828901610e41565b9250506080610ec488828901610e41565b9150509295509295909350565b60008060408385031215610ee857610ee7610d66565b5b6000610ef685828601610db4565b9250506020610f0785828601610e41565b9150509250929050565b6000819050919050565b6000610f36610f31610f2c84610d6b565b610f11565b610d6b565b9050919050565b6000610f4882610f1b565b9050919050565b6000610f5a82610f3d565b9050919050565b610f6a81610f4f565b82525050565b6000602082019050610f856000830184610f61565b92915050565b610f9481610d8b565b82525050565b6000606082019050610faf6000830186610f8b565b610fbc6020830185610f8b565b610fc96040830184610e00565b949350505050565b60008115159050919050565b610fe681610fd1565b8114610ff157600080fd5b50565b60008151905061100381610fdd565b92915050565b60006020828403121561101f5761101e610d66565b5b600061102d84828501610ff4565b91505092915050565b600082825260208201905092915050565b7f546f6b656e7320617265204c6f636b656420696e20736d61727420636f6e747260008201527f6163742000000000000000000000000000000000000000000000000000000000602082015250565b60006110a3602483611036565b91506110ae82611047565b604082019050919050565b60006040820190506110ce6000830184610f8b565b81810360208301526110df81611096565b905092915050565b7f546f6b656e7320436c61696d696e67206172652067726561746572207468616e60008201527f20746f6b656e73206c6f636b6564000000000000000000000000000000000000602082015250565b6000611143602e83611036565b915061114e826110e7565b604082019050919050565b6000602082019050818103600083015261117281611136565b9050919050565b7f416c726561647920436c61696d65640000000000000000000000000000000000600082015250565b60006111af600f83611036565b91506111ba82611179565b602082019050919050565b600060208201905081810360008301526111de816111a2565b9050919050565b7f4e487b7100000000000000000000000000000000000000000000000000000000600052601160045260246000fd5b600061121f82610df6565b915061122a83610df6565b9250828201905080821115611242576112416111e5565b5b92915050565b600060408201905061125d6000830185610f8b565b61126a6020830184610e00565b9392505050565b7f546f6b656e73206172652052656c656173656420696e206163636f756e74206f60008201527f662062656e656669636961727920000000000000000000000000000000000000602082015250565b60006112cd602e83611036565b91506112d882611271565b604082019050919050565b60006040820190506112f86000830184610f8b565b8181036020830152611309816112c0565b905092915050565b7f4f6e6c792042656e6566696369617279204f72204f776e65722063616e20526560008201527f6c6561736520546f6b656e730000000000000000000000000000000000000000602082015250565b600061136d602c83611036565b915061137882611311565b604082019050919050565b6000602082019050818103600083015261139c81611360565b9050919050565b7f4e65772042656e65666963696172792041646465640000000000000000000000600082015250565b60006113d9601583611036565b91506113e4826113a3565b602082019050919050565b60006040820190506114046000830184610f8b565b8181036020830152611415816113cc565b905092915050565b7f204f6e6c79204f776e65722063616e204164642062656e65666569636961726960008201527f6573000000000000000000000000000000000000000000000000000000000000602082015250565b6000611479602283611036565b91506114848261141d565b604082019050919050565b600060208201905081810360008301526114a88161146c565b9050919050565b60006114ba82610df6565b91506114c583610df6565b92508282039050818111156114dd576114dc6111e5565b5b92915050565b7f4e487b7100000000000000000000000000000000000000000000000000000000600052601260045260246000fd5b600061151d82610df6565b915061152883610df6565b925082611538576115376114e3565b5b828204905092915050565b600061154e82610df6565b915061155983610df6565b925082820261156781610df6565b9150828204841483151761157e5761157d6111e5565b5b5092915050565b7f576169742054696c6c20436c69666620706572696f6400000000000000000000600082015250565b60006115bb601683611036565b91506115c682611585565b602082019050919050565b600060208201905081810360008301526115ea816115ae565b905091905056fea2646970667358221220203043dff3c789ef418cfc2457c36e74017ee9a7575f5d4634a193fbb1bbf77e64736f6c63430008120033",
					"opcodes": "PUSH1 0x80 PUSH1 0x40 MSTORE CALLVALUE DUP1 ISZERO PUSH3 0x11 JUMPI PUSH1 0x0 DUP1 REVERT JUMPDEST POP PUSH1 0x40 MLOAD PUSH3 0x1766 CODESIZE SUB DUP1 PUSH3 0x1766 DUP4 CODECOPY DUP2 DUP2 ADD PUSH1 0x40 MSTORE DUP2 ADD SWAP1 PUSH3 0x37 SWAP2 SWAP1 PUSH3 0xFD JUMP JUMPDEST DUP1 PUSH1 0x8 PUSH1 0x0 PUSH2 0x100 EXP DUP2 SLOAD DUP2 PUSH20 0xFFFFFFFFFFFFFFFFFFFFFFFFFFFFFFFFFFFFFFFF MUL NOT AND SWAP1 DUP4 PUSH20 0xFFFFFFFFFFFFFFFFFFFFFFFFFFFFFFFFFFFFFFFF AND MUL OR SWAP1 SSTORE POP POP PUSH3 0x12F JUMP JUMPDEST PUSH1 0x0 DUP1 REVERT JUMPDEST PUSH1 0x0 PUSH20 0xFFFFFFFFFFFFFFFFFFFFFFFFFFFFFFFFFFFFFFFF DUP3 AND SWAP1 POP SWAP2 SWAP1 POP JUMP JUMPDEST PUSH1 0x0 PUSH3 0xB1 DUP3 PUSH3 0x84 JUMP JUMPDEST SWAP1 POP SWAP2 SWAP1 POP JUMP JUMPDEST PUSH1 0x0 PUSH3 0xC5 DUP3 PUSH3 0xA4 JUMP JUMPDEST SWAP1 POP SWAP2 SWAP1 POP JUMP JUMPDEST PUSH3 0xD7 DUP2 PUSH3 0xB8 JUMP JUMPDEST DUP2 EQ PUSH3 0xE3 JUMPI PUSH1 0x0 DUP1 REVERT JUMPDEST POP JUMP JUMPDEST PUSH1 0x0 DUP2 MLOAD SWAP1 POP PUSH3 0xF7 DUP2 PUSH3 0xCC JUMP JUMPDEST SWAP3 SWAP2 POP POP JUMP JUMPDEST PUSH1 0x0 PUSH1 0x20 DUP3 DUP5 SUB SLT ISZERO PUSH3 0x116 JUMPI PUSH3 0x115 PUSH3 0x7F JUMP JUMPDEST JUMPDEST PUSH1 0x0 PUSH3 0x126 DUP5 DUP3 DUP6 ADD PUSH3 0xE6 JUMP JUMPDEST SWAP2 POP POP SWAP3 SWAP2 POP POP JUMP JUMPDEST PUSH2 0x1627 DUP1 PUSH3 0x13F PUSH1 0x0 CODECOPY PUSH1 0x0 RETURN INVALID PUSH1 0x80 PUSH1 0x40 MSTORE CALLVALUE DUP1 ISZERO PUSH2 0x10 JUMPI PUSH1 0x0 DUP1 REVERT JUMPDEST POP PUSH1 0x4 CALLDATASIZE LT PUSH2 0xB4 JUMPI PUSH1 0x0 CALLDATALOAD PUSH1 0xE0 SHR DUP1 PUSH4 0x96074E70 GT PUSH2 0x71 JUMPI DUP1 PUSH4 0x96074E70 EQ PUSH2 0x1B1 JUMPI DUP1 PUSH4 0xB36760A3 EQ PUSH2 0x1CD JUMPI DUP1 PUSH4 0xC4684E9D EQ PUSH2 0x1FD JUMPI DUP1 PUSH4 0xCB9199A2 EQ PUSH2 0x22D JUMPI DUP1 PUSH4 0xCDCE101B EQ PUSH2 0x25D JUMPI DUP1 PUSH4 0xFC0C546A EQ PUSH2 0x28D JUMPI PUSH2 0xB4 JUMP JUMPDEST DUP1 PUSH4 0x1567739 EQ PUSH2 0xB9 JUMPI DUP1 PUSH4 0x3CE301E5 EQ PUSH2 0xE9 JUMPI DUP1 PUSH4 0x506F36EC EQ PUSH2 0x105 JUMPI DUP1 PUSH4 0x6E1DC66E EQ PUSH2 0x135 JUMPI DUP1 PUSH4 0x70FF852B EQ PUSH2 0x165 JUMPI DUP1 PUSH4 0x87B0BE48 EQ PUSH2 0x195 JUMPI JUMPDEST PUSH1 0x0 DUP1 REVERT JUMPDEST PUSH2 0xD3 PUSH1 0x4 DUP1 CALLDATASIZE SUB DUP2 ADD SWAP1 PUSH2 0xCE SWAP2 SWAP1 PUSH2 0xDC9 JUMP JUMPDEST PUSH2 0x2AB JUMP JUMPDEST PUSH1 0x40 MLOAD PUSH2 0xE0 SWAP2 SWAP1 PUSH2 0xE0F JUMP JUMPDEST PUSH1 0x40 MLOAD DUP1 SWAP2 SUB SWAP1 RETURN JUMPDEST PUSH2 0x103 PUSH1 0x4 DUP1 CALLDATASIZE SUB DUP2 ADD SWAP1 PUSH2 0xFE SWAP2 SWAP1 PUSH2 0xE56 JUMP JUMPDEST PUSH2 0x2C3 JUMP JUMPDEST STOP JUMPDEST PUSH2 0x11F PUSH1 0x4 DUP1 CALLDATASIZE SUB DUP2 ADD SWAP1 PUSH2 0x11A SWAP2 SWAP1 PUSH2 0xDC9 JUMP JUMPDEST PUSH2 0x5BB JUMP JUMPDEST PUSH1 0x40 MLOAD PUSH2 0x12C SWAP2 SWAP1 PUSH2 0xE0F JUMP JUMPDEST PUSH1 0x40 MLOAD DUP1 SWAP2 SUB SWAP1 RETURN JUMPDEST PUSH2 0x14F PUSH1 0x4 DUP1 CALLDATASIZE SUB DUP2 ADD SWAP1 PUSH2 0x14A SWAP2 SWAP1 PUSH2 0xDC9 JUMP JUMPDEST PUSH2 0x5D3 JUMP JUMPDEST PUSH1 0x40 MLOAD PUSH2 0x15C SWAP2 SWAP1 PUSH2 0xE0F JUMP JUMPDEST PUSH1 0x40 MLOAD DUP1 SWAP2 SUB SWAP1 RETURN JUMPDEST PUSH2 0x17F PUSH1 0x4 DUP1 CALLDATASIZE SUB DUP2 ADD SWAP1 PUSH2 0x17A SWAP2 SWAP1 PUSH2 0xDC9 JUMP JUMPDEST PUSH2 0x5EB JUMP JUMPDEST PUSH1 0x40 MLOAD PUSH2 0x18C SWAP2 SWAP1 PUSH2 0xE0F JUMP JUMPDEST PUSH1 0x40 MLOAD DUP1 SWAP2 SUB SWAP1 RETURN JUMPDEST PUSH2 0x1AF PUSH1 0x4 DUP1 CALLDATASIZE SUB DUP2 ADD SWAP1 PUSH2 0x1AA SWAP2 SWAP1 PUSH2 0xDC9 JUMP JUMPDEST PUSH2 0x603 JUMP JUMPDEST STOP JUMPDEST PUSH2 0x1CB PUSH1 0x4 DUP1 CALLDATASIZE SUB DUP2 ADD SWAP1 PUSH2 0x1C6 SWAP2 SWAP1 PUSH2 0xED1 JUMP JUMPDEST PUSH2 0x8E3 JUMP JUMPDEST STOP JUMPDEST PUSH2 0x1E7 PUSH1 0x4 DUP1 CALLDATASIZE SUB DUP2 ADD SWAP1 PUSH2 0x1E2 SWAP2 SWAP1 PUSH2 0xDC9 JUMP JUMPDEST PUSH2 0x9F2 JUMP JUMPDEST PUSH1 0x40 MLOAD PUSH2 0x1F4 SWAP2 SWAP1 PUSH2 0xE0F JUMP JUMPDEST PUSH1 0x40 MLOAD DUP1 SWAP2 SUB SWAP1 RETURN JUMPDEST PUSH2 0x217 PUSH1 0x4 DUP1 CALLDATASIZE SUB DUP2 ADD SWAP1 PUSH2 0x212 SWAP2 SWAP1 PUSH2 0xDC9 JUMP JUMPDEST PUSH2 0xA0A JUMP JUMPDEST PUSH1 0x40 MLOAD PUSH2 0x224 SWAP2 SWAP1 PUSH2 0xE0F JUMP JUMPDEST PUSH1 0x40 MLOAD DUP1 SWAP2 SUB SWAP1 RETURN JUMPDEST PUSH2 0x247 PUSH1 0x4 DUP1 CALLDATASIZE SUB DUP2 ADD SWAP1 PUSH2 0x242 SWAP2 SWAP1 PUSH2 0xDC9 JUMP JUMPDEST PUSH2 0xD10 JUMP JUMPDEST PUSH1 0x40 MLOAD PUSH2 0x254 SWAP2 SWAP1 PUSH2 0xE0F JUMP JUMPDEST PUSH1 0x40 MLOAD DUP1 SWAP2 SUB SWAP1 RETURN JUMPDEST PUSH2 0x277 PUSH1 0x4 DUP1 CALLDATASIZE SUB DUP2 ADD SWAP1 PUSH2 0x272 SWAP2 SWAP1 PUSH2 0xDC9 JUMP JUMPDEST PUSH2 0xD28 JUMP JUMPDEST PUSH1 0x40 MLOAD PUSH2 0x284 SWAP2 SWAP1 PUSH2 0xE0F JUMP JUMPDEST PUSH1 0x40 MLOAD DUP1 SWAP2 SUB SWAP1 RETURN JUMPDEST PUSH2 0x295 PUSH2 0xD40 JUMP JUMPDEST PUSH1 0x40 MLOAD PUSH2 0x2A2 SWAP2 SWAP1 PUSH2 0xF70 JUMP JUMPDEST PUSH1 0x40 MLOAD DUP1 SWAP2 SUB SWAP1 RETURN JUMPDEST PUSH1 0x4 PUSH1 0x20 MSTORE DUP1 PUSH1 0x0 MSTORE PUSH1 0x40 PUSH1 0x0 KECCAK256 PUSH1 0x0 SWAP2 POP SWAP1 POP SLOAD DUP2 JUMP JUMPDEST DUP2 PUSH1 0x0 DUP1 DUP8 PUSH20 0xFFFFFFFFFFFFFFFFFFFFFFFFFFFFFFFFFFFFFFFF AND PUSH20 0xFFFFFFFFFFFFFFFFFFFFFFFFFFFFFFFFFFFFFFFF AND DUP2 MSTORE PUSH1 0x20 ADD SWAP1 DUP2 MSTORE PUSH1 0x20 ADD PUSH1 0x0 KECCAK256 DUP2 SWAP1 SSTORE POP DUP3 PUSH1 0x1 PUSH1 0x0 DUP8 PUSH20 0xFFFFFFFFFFFFFFFFFFFFFFFFFFFFFFFFFFFFFFFF AND PUSH20 0xFFFFFFFFFFFFFFFFFFFFFFFFFFFFFFFFFFFFFFFF AND DUP2 MSTORE PUSH1 0x20 ADD SWAP1 DUP2 MSTORE PUSH1 0x20 ADD PUSH1 0x0 KECCAK256 DUP2 SWAP1 SSTORE POP DUP1 PUSH1 0x2 PUSH1 0x0 DUP8 PUSH20 0xFFFFFFFFFFFFFFFFFFFFFFFFFFFFFFFFFFFFFFFF AND PUSH20 0xFFFFFFFFFFFFFFFFFFFFFFFFFFFFFFFFFFFFFFFF AND DUP2 MSTORE PUSH1 0x20 ADD SWAP1 DUP2 MSTORE PUSH1 0x20 ADD PUSH1 0x0 KECCAK256 DUP2 SWAP1 SSTORE POP TIMESTAMP PUSH1 0x3 PUSH1 0x0 DUP8 PUSH20 0xFFFFFFFFFFFFFFFFFFFFFFFFFFFFFFFFFFFFFFFF AND PUSH20 0xFFFFFFFFFFFFFFFFFFFFFFFFFFFFFFFFFFFFFFFF AND DUP2 MSTORE PUSH1 0x20 ADD SWAP1 DUP2 MSTORE PUSH1 0x20 ADD PUSH1 0x0 KECCAK256 DUP2 SWAP1 SSTORE POP CALLER PUSH1 0x7 PUSH1 0x0 PUSH2 0x100 EXP DUP2 SLOAD DUP2 PUSH20 0xFFFFFFFFFFFFFFFFFFFFFFFFFFFFFFFFFFFFFFFF MUL NOT AND SWAP1 DUP4 PUSH20 0xFFFFFFFFFFFFFFFFFFFFFFFFFFFFFFFFFFFFFFFF AND MUL OR SWAP1 SSTORE POP DUP4 PUSH1 0x4 PUSH1 0x0 DUP8 PUSH20 0xFFFFFFFFFFFFFFFFFFFFFFFFFFFFFFFFFFFFFFFF AND PUSH20 0xFFFFFFFFFFFFFFFFFFFFFFFFFFFFFFFFFFFFFFFF AND DUP2 MSTORE PUSH1 0x20 ADD SWAP1 DUP2 MSTORE PUSH1 0x20 ADD PUSH1 0x0 KECCAK256 DUP2 SWAP1 SSTORE POP PUSH1 0x4 PUSH1 0x0 DUP7 PUSH20 0xFFFFFFFFFFFFFFFFFFFFFFFFFFFFFFFFFFFFFFFF AND PUSH20 0xFFFFFFFFFFFFFFFFFFFFFFFFFFFFFFFFFFFFFFFF AND DUP2 MSTORE PUSH1 0x20 ADD SWAP1 DUP2 MSTORE PUSH1 0x20 ADD PUSH1 0x0 KECCAK256 SLOAD PUSH1 0x5 PUSH1 0x0 DUP8 PUSH20 0xFFFFFFFFFFFFFFFFFFFFFFFFFFFFFFFFFFFFFFFF AND PUSH20 0xFFFFFFFFFFFFFFFFFFFFFFFFFFFFFFFFFFFFFFFF AND DUP2 MSTORE PUSH1 0x20 ADD SWAP1 DUP2 MSTORE PUSH1 0x20 ADD PUSH1 0x0 KECCAK256 DUP2 SWAP1 SSTORE POP PUSH1 0x8 PUSH1 0x0 SWAP1 SLOAD SWAP1 PUSH2 0x100 EXP SWAP1 DIV PUSH20 0xFFFFFFFFFFFFFFFFFFFFFFFFFFFFFFFFFFFFFFFF AND PUSH20 0xFFFFFFFFFFFFFFFFFFFFFFFFFFFFFFFFFFFFFFFF AND PUSH4 0x23B872DD CALLER ADDRESS DUP8 PUSH1 0x40 MLOAD DUP5 PUSH4 0xFFFFFFFF AND PUSH1 0xE0 SHL DUP2 MSTORE PUSH1 0x4 ADD PUSH2 0x539 SWAP4 SWAP3 SWAP2 SWAP1 PUSH2 0xF9A JUMP JUMPDEST PUSH1 0x20 PUSH1 0x40 MLOAD DUP1 DUP4 SUB DUP2 PUSH1 0x0 DUP8 GAS CALL ISZERO DUP1 ISZERO PUSH2 0x558 JUMPI RETURNDATASIZE PUSH1 0x0 DUP1 RETURNDATACOPY RETURNDATASIZE PUSH1 0x0 REVERT JUMPDEST POP POP POP POP PUSH1 0x40 MLOAD RETURNDATASIZE PUSH1 0x1F NOT PUSH1 0x1F DUP3 ADD AND DUP3 ADD DUP1 PUSH1 0x40 MSTORE POP DUP2 ADD SWAP1 PUSH2 0x57C SWAP2 SWAP1 PUSH2 0x1009 JUMP JUMPDEST POP PUSH32 0x58061F685B438748CF21469042B11FE4DFB0C77FD2DA64032C5ADC017FC09A88 DUP6 PUSH1 0x40 MLOAD PUSH2 0x5AC SWAP2 SWAP1 PUSH2 0x10B9 JUMP JUMPDEST PUSH1 0x40 MLOAD DUP1 SWAP2 SUB SWAP1 LOG1 POP POP POP POP POP JUMP JUMPDEST PUSH1 0x2 PUSH1 0x20 MSTORE DUP1 PUSH1 0x0 MSTORE PUSH1 0x40 PUSH1 0x0 KECCAK256 PUSH1 0x0 SWAP2 POP SWAP1 POP SLOAD DUP2 JUMP JUMPDEST PUSH1 0x3 PUSH1 0x20 MSTORE DUP1 PUSH1 0x0 MSTORE PUSH1 0x40 PUSH1 0x0 KECCAK256 PUSH1 0x0 SWAP2 POP SWAP1 POP SLOAD DUP2 JUMP JUMPDEST PUSH1 0x6 PUSH1 0x20 MSTORE DUP1 PUSH1 0x0 MSTORE PUSH1 0x40 PUSH1 0x0 KECCAK256 PUSH1 0x0 SWAP2 POP SWAP1 POP SLOAD DUP2 JUMP JUMPDEST DUP1 PUSH1 0x0 PUSH2 0x60F DUP4 PUSH2 0xA0A JUMP JUMPDEST SWAP1 POP PUSH1 0x4 PUSH1 0x0 DUP5 PUSH20 0xFFFFFFFFFFFFFFFFFFFFFFFFFFFFFFFFFFFFFFFF AND PUSH20 0xFFFFFFFFFFFFFFFFFFFFFFFFFFFFFFFFFFFFFFFF AND DUP2 MSTORE PUSH1 0x20 ADD SWAP1 DUP2 MSTORE PUSH1 0x20 ADD PUSH1 0x0 KECCAK256 SLOAD DUP2 GT ISZERO PUSH2 0x693 JUMPI PUSH1 0x40 MLOAD PUSH32 0x8C379A000000000000000000000000000000000000000000000000000000000 DUP2 MSTORE PUSH1 0x4 ADD PUSH2 0x68A SWAP1 PUSH2 0x1159 JUMP JUMPDEST PUSH1 0x40 MLOAD DUP1 SWAP2 SUB SWAP1 REVERT JUMPDEST PUSH1 0x0 DUP2 GT PUSH2 0x6D6 JUMPI PUSH1 0x40 MLOAD PUSH32 0x8C379A000000000000000000000000000000000000000000000000000000000 DUP2 MSTORE PUSH1 0x4 ADD PUSH2 0x6CD SWAP1 PUSH2 0x11C5 JUMP JUMPDEST PUSH1 0x40 MLOAD DUP1 SWAP2 SUB SWAP1 REVERT JUMPDEST DUP1 PUSH1 0x6 PUSH1 0x0 DUP6 PUSH20 0xFFFFFFFFFFFFFFFFFFFFFFFFFFFFFFFFFFFFFFFF AND PUSH20 0xFFFFFFFFFFFFFFFFFFFFFFFFFFFFFFFFFFFFFFFF AND DUP2 MSTORE PUSH1 0x20 ADD SWAP1 DUP2 MSTORE PUSH1 0x20 ADD PUSH1 0x0 KECCAK256 PUSH1 0x0 DUP3 DUP3 SLOAD PUSH2 0x725 SWAP2 SWAP1 PUSH2 0x1214 JUMP JUMPDEST SWAP3 POP POP DUP2 SWAP1 SSTORE POP PUSH1 0x8 PUSH1 0x0 SWAP1 SLOAD SWAP1 PUSH2 0x100 EXP SWAP1 DIV PUSH20 0xFFFFFFFFFFFFFFFFFFFFFFFFFFFFFFFFFFFFFFFF AND PUSH20 0xFFFFFFFFFFFFFFFFFFFFFFFFFFFFFFFFFFFFFFFF AND PUSH4 0xA9059CBB DUP5 DUP4 PUSH1 0x40 MLOAD DUP4 PUSH4 0xFFFFFFFF AND PUSH1 0xE0 SHL DUP2 MSTORE PUSH1 0x4 ADD PUSH2 0x789 SWAP3 SWAP2 SWAP1 PUSH2 0x1248 JUMP JUMPDEST PUSH1 0x20 PUSH1 0x40 MLOAD DUP1 DUP4 SUB DUP2 PUSH1 0x0 DUP8 GAS CALL ISZERO DUP1 ISZERO PUSH2 0x7A8 JUMPI RETURNDATASIZE PUSH1 0x0 DUP1 RETURNDATACOPY RETURNDATASIZE PUSH1 0x0 REVERT JUMPDEST POP POP POP POP PUSH1 0x40 MLOAD RETURNDATASIZE PUSH1 0x1F NOT PUSH1 0x1F DUP3 ADD AND DUP3 ADD DUP1 PUSH1 0x40 MSTORE POP DUP2 ADD SWAP1 PUSH2 0x7CC SWAP2 SWAP1 PUSH2 0x1009 JUMP JUMPDEST POP PUSH32 0xA13F186497986E7B059DF4137D98A76D0CB346D0E9A294755B01975E190434A9 DUP4 PUSH1 0x40 MLOAD PUSH2 0x7FC SWAP2 SWAP1 PUSH2 0x12E3 JUMP JUMPDEST PUSH1 0x40 MLOAD DUP1 SWAP2 SUB SWAP1 LOG1 POP PUSH1 0x0 PUSH1 0x4 PUSH1 0x0 DUP4 PUSH20 0xFFFFFFFFFFFFFFFFFFFFFFFFFFFFFFFFFFFFFFFF AND PUSH20 0xFFFFFFFFFFFFFFFFFFFFFFFFFFFFFFFFFFFFFFFF AND DUP2 MSTORE PUSH1 0x20 ADD SWAP1 DUP2 MSTORE PUSH1 0x20 ADD PUSH1 0x0 KECCAK256 SLOAD GT DUP1 PUSH2 0x8A0 JUMPI POP PUSH1 0x7 PUSH1 0x0 SWAP1 SLOAD SWAP1 PUSH2 0x100 EXP SWAP1 DIV PUSH20 0xFFFFFFFFFFFFFFFFFFFFFFFFFFFFFFFFFFFFFFFF AND PUSH20 0xFFFFFFFFFFFFFFFFFFFFFFFFFFFFFFFFFFFFFFFF AND CALLER PUSH20 0xFFFFFFFFFFFFFFFFFFFFFFFFFFFFFFFFFFFFFFFF AND EQ JUMPDEST PUSH2 0x8DF JUMPI PUSH1 0x40 MLOAD PUSH32 0x8C379A000000000000000000000000000000000000000000000000000000000 DUP2 MSTORE PUSH1 0x4 ADD PUSH2 0x8D6 SWAP1 PUSH2 0x1383 JUMP JUMPDEST PUSH1 0x40 MLOAD DUP1 SWAP2 SUB SWAP1 REVERT JUMPDEST POP POP JUMP JUMPDEST DUP1 PUSH1 0x4 PUSH1 0x0 DUP5 PUSH20 0xFFFFFFFFFFFFFFFFFFFFFFFFFFFFFFFFFFFFFFFF AND PUSH20 0xFFFFFFFFFFFFFFFFFFFFFFFFFFFFFFFFFFFFFFFF AND DUP2 MSTORE PUSH1 0x20 ADD SWAP1 DUP2 MSTORE PUSH1 0x20 ADD PUSH1 0x0 KECCAK256 DUP2 SWAP1 SSTORE POP PUSH32 0x557197374EDB4E72999D5D4C84CA4715C58797739AAB2F2B7E300DB81B4CD1C3 DUP3 PUSH1 0x40 MLOAD PUSH2 0x956 SWAP2 SWAP1 PUSH2 0x13EF JUMP JUMPDEST PUSH1 0x40 MLOAD DUP1 SWAP2 SUB SWAP1 LOG1 PUSH1 0x7 PUSH1 0x0 SWAP1 SLOAD SWAP1 PUSH2 0x100 EXP SWAP1 DIV PUSH20 0xFFFFFFFFFFFFFFFFFFFFFFFFFFFFFFFFFFFFFFFF AND PUSH20 0xFFFFFFFFFFFFFFFFFFFFFFFFFFFFFFFFFFFFFFFF AND CALLER PUSH20 0xFFFFFFFFFFFFFFFFFFFFFFFFFFFFFFFFFFFFFFFF AND EQ PUSH2 0x9EE JUMPI PUSH1 0x40 MLOAD PUSH32 0x8C379A000000000000000000000000000000000000000000000000000000000 DUP2 MSTORE PUSH1 0x4 ADD PUSH2 0x9E5 SWAP1 PUSH2 0x148F JUMP JUMPDEST PUSH1 0x40 MLOAD DUP1 SWAP2 SUB SWAP1 REVERT JUMPDEST POP POP JUMP JUMPDEST PUSH1 0x0 PUSH1 0x20 MSTORE DUP1 PUSH1 0x0 MSTORE PUSH1 0x40 PUSH1 0x0 KECCAK256 PUSH1 0x0 SWAP2 POP SWAP1 POP SLOAD DUP2 JUMP JUMPDEST PUSH1 0x0 DUP2 PUSH1 0x0 PUSH1 0x3 PUSH1 0x0 DUP6 PUSH20 0xFFFFFFFFFFFFFFFFFFFFFFFFFFFFFFFFFFFFFFFF AND PUSH20 0xFFFFFFFFFFFFFFFFFFFFFFFFFFFFFFFFFFFFFFFF AND DUP2 MSTORE PUSH1 0x20 ADD SWAP1 DUP2 MSTORE PUSH1 0x20 ADD PUSH1 0x0 KECCAK256 SLOAD TIMESTAMP PUSH2 0xA5A SWAP2 SWAP1 PUSH2 0x14AF JUMP JUMPDEST SWAP1 POP PUSH1 0x0 PUSH1 0x2 PUSH1 0x0 DUP7 PUSH20 0xFFFFFFFFFFFFFFFFFFFFFFFFFFFFFFFFFFFFFFFF AND PUSH20 0xFFFFFFFFFFFFFFFFFFFFFFFFFFFFFFFFFFFFFFFF AND DUP2 MSTORE PUSH1 0x20 ADD SWAP1 DUP2 MSTORE PUSH1 0x20 ADD PUSH1 0x0 KECCAK256 SLOAD DUP3 PUSH2 0xAA9 SWAP2 SWAP1 PUSH2 0x1512 JUMP JUMPDEST SWAP1 POP PUSH1 0x0 PUSH1 0x2 PUSH1 0x0 DUP8 PUSH20 0xFFFFFFFFFFFFFFFFFFFFFFFFFFFFFFFFFFFFFFFF AND PUSH20 0xFFFFFFFFFFFFFFFFFFFFFFFFFFFFFFFFFFFFFFFF AND DUP2 MSTORE PUSH1 0x20 ADD SWAP1 DUP2 MSTORE PUSH1 0x20 ADD PUSH1 0x0 KECCAK256 SLOAD PUSH1 0x0 DUP1 DUP9 PUSH20 0xFFFFFFFFFFFFFFFFFFFFFFFFFFFFFFFFFFFFFFFF AND PUSH20 0xFFFFFFFFFFFFFFFFFFFFFFFFFFFFFFFFFFFFFFFF AND DUP2 MSTORE PUSH1 0x20 ADD SWAP1 DUP2 MSTORE PUSH1 0x20 ADD PUSH1 0x0 KECCAK256 SLOAD PUSH2 0xB36 SWAP2 SWAP1 PUSH2 0x1512 JUMP JUMPDEST SWAP1 POP DUP1 DUP3 LT PUSH2 0xBD3 JUMPI PUSH1 0x6 PUSH1 0x0 DUP8 PUSH20 0xFFFFFFFFFFFFFFFFFFFFFFFFFFFFFFFFFFFFFFFF AND PUSH20 0xFFFFFFFFFFFFFFFFFFFFFFFFFFFFFFFFFFFFFFFF AND DUP2 MSTORE PUSH1 0x20 ADD SWAP1 DUP2 MSTORE PUSH1 0x20 ADD PUSH1 0x0 KECCAK256 SLOAD PUSH1 0x4 PUSH1 0x0 DUP9 PUSH20 0xFFFFFFFFFFFFFFFFFFFFFFFFFFFFFFFFFFFFFFFF AND PUSH20 0xFFFFFFFFFFFFFFFFFFFFFFFFFFFFFFFFFFFFFFFF AND DUP2 MSTORE PUSH1 0x20 ADD SWAP1 DUP2 MSTORE PUSH1 0x20 ADD PUSH1 0x0 KECCAK256 SLOAD PUSH2 0xBC9 SWAP2 SWAP1 PUSH2 0x14AF JUMP JUMPDEST SWAP5 POP POP POP POP PUSH2 0xC88 JUMP JUMPDEST PUSH1 0x0 DUP2 PUSH1 0x4 PUSH1 0x0 DUP10 PUSH20 0xFFFFFFFFFFFFFFFFFFFFFFFFFFFFFFFFFFFFFFFF AND PUSH20 0xFFFFFFFFFFFFFFFFFFFFFFFFFFFFFFFFFFFFFFFF AND DUP2 MSTORE PUSH1 0x20 ADD SWAP1 DUP2 MSTORE PUSH1 0x20 ADD PUSH1 0x0 KECCAK256 SLOAD PUSH2 0xC20 SWAP2 SWAP1 PUSH2 0x1512 JUMP JUMPDEST SWAP1 POP PUSH1 0x0 DUP4 DUP3 PUSH2 0xC30 SWAP2 SWAP1 PUSH2 0x1543 JUMP JUMPDEST SWAP1 POP PUSH1 0x6 PUSH1 0x0 DUP10 PUSH20 0xFFFFFFFFFFFFFFFFFFFFFFFFFFFFFFFFFFFFFFFF AND PUSH20 0xFFFFFFFFFFFFFFFFFFFFFFFFFFFFFFFFFFFFFFFF AND DUP2 MSTORE PUSH1 0x20 ADD SWAP1 DUP2 MSTORE PUSH1 0x20 ADD PUSH1 0x0 KECCAK256 SLOAD DUP2 PUSH2 0xC7D SWAP2 SWAP1 PUSH2 0x14AF JUMP JUMPDEST SWAP1 POP DUP1 SWAP7 POP POP POP POP POP POP JUMPDEST PUSH1 0x1 PUSH1 0x0 DUP3 PUSH20 0xFFFFFFFFFFFFFFFFFFFFFFFFFFFFFFFFFFFFFFFF AND PUSH20 0xFFFFFFFFFFFFFFFFFFFFFFFFFFFFFFFFFFFFFFFF AND DUP2 MSTORE PUSH1 0x20 ADD SWAP1 DUP2 MSTORE PUSH1 0x20 ADD PUSH1 0x0 KECCAK256 SLOAD TIMESTAMP LT ISZERO PUSH2 0xD0A JUMPI PUSH1 0x40 MLOAD PUSH32 0x8C379A000000000000000000000000000000000000000000000000000000000 DUP2 MSTORE PUSH1 0x4 ADD PUSH2 0xD01 SWAP1 PUSH2 0x15D1 JUMP JUMPDEST PUSH1 0x40 MLOAD DUP1 SWAP2 SUB SWAP1 REVERT JUMPDEST POP SWAP2 SWAP1 POP JUMP JUMPDEST PUSH1 0x5 PUSH1 0x20 MSTORE DUP1 PUSH1 0x0 MSTORE PUSH1 0x40 PUSH1 0x0 KECCAK256 PUSH1 0x0 SWAP2 POP SWAP1 POP SLOAD DUP2 JUMP JUMPDEST PUSH1 0x1 PUSH1 0x20 MSTORE DUP1 PUSH1 0x0 MSTORE PUSH1 0x40 PUSH1 0x0 KECCAK256 PUSH1 0x0 SWAP2 POP SWAP1 POP SLOAD DUP2 JUMP JUMPDEST PUSH1 0x8 PUSH1 0x0 SWAP1 SLOAD SWAP1 PUSH2 0x100 EXP SWAP1 DIV PUSH20 0xFFFFFFFFFFFFFFFFFFFFFFFFFFFFFFFFFFFFFFFF AND DUP2 JUMP JUMPDEST PUSH1 0x0 DUP1 REVERT JUMPDEST PUSH1 0x0 PUSH20 0xFFFFFFFFFFFFFFFFFFFFFFFFFFFFFFFFFFFFFFFF DUP3 AND SWAP1 POP SWAP2 SWAP1 POP JUMP JUMPDEST PUSH1 0x0 PUSH2 0xD96 DUP3 PUSH2 0xD6B JUMP JUMPDEST SWAP1 POP SWAP2 SWAP1 POP JUMP JUMPDEST PUSH2 0xDA6 DUP2 PUSH2 0xD8B JUMP JUMPDEST DUP2 EQ PUSH2 0xDB1 JUMPI PUSH1 0x0 DUP1 REVERT JUMPDEST POP JUMP JUMPDEST PUSH1 0x0 DUP2 CALLDATALOAD SWAP1 POP PUSH2 0xDC3 DUP2 PUSH2 0xD9D JUMP JUMPDEST SWAP3 SWAP2 POP POP JUMP JUMPDEST PUSH1 0x0 PUSH1 0x20 DUP3 DUP5 SUB SLT ISZERO PUSH2 0xDDF JUMPI PUSH2 0xDDE PUSH2 0xD66 JUMP JUMPDEST JUMPDEST PUSH1 0x0 PUSH2 0xDED DUP5 DUP3 DUP6 ADD PUSH2 0xDB4 JUMP JUMPDEST SWAP2 POP POP SWAP3 SWAP2 POP POP JUMP JUMPDEST PUSH1 0x0 DUP2 SWAP1 POP SWAP2 SWAP1 POP JUMP JUMPDEST PUSH2 0xE09 DUP2 PUSH2 0xDF6 JUMP JUMPDEST DUP3 MSTORE POP POP JUMP JUMPDEST PUSH1 0x0 PUSH1 0x20 DUP3 ADD SWAP1 POP PUSH2 0xE24 PUSH1 0x0 DUP4 ADD DUP5 PUSH2 0xE00 JUMP JUMPDEST SWAP3 SWAP2 POP POP JUMP JUMPDEST PUSH2 0xE33 DUP2 PUSH2 0xDF6 JUMP JUMPDEST DUP2 EQ PUSH2 0xE3E JUMPI PUSH1 0x0 DUP1 REVERT JUMPDEST POP JUMP JUMPDEST PUSH1 0x0 DUP2 CALLDATALOAD SWAP1 POP PUSH2 0xE50 DUP2 PUSH2 0xE2A JUMP JUMPDEST SWAP3 SWAP2 POP POP JUMP JUMPDEST PUSH1 0x0 DUP1 PUSH1 0x0 DUP1 PUSH1 0x0 PUSH1 0xA0 DUP7 DUP9 SUB SLT ISZERO PUSH2 0xE72 JUMPI PUSH2 0xE71 PUSH2 0xD66 JUMP JUMPDEST JUMPDEST PUSH1 0x0 PUSH2 0xE80 DUP9 DUP3 DUP10 ADD PUSH2 0xDB4 JUMP JUMPDEST SWAP6 POP POP PUSH1 0x20 PUSH2 0xE91 DUP9 DUP3 DUP10 ADD PUSH2 0xE41 JUMP JUMPDEST SWAP5 POP POP PUSH1 0x40 PUSH2 0xEA2 DUP9 DUP3 DUP10 ADD PUSH2 0xE41 JUMP JUMPDEST SWAP4 POP POP PUSH1 0x60 PUSH2 0xEB3 DUP9 DUP3 DUP10 ADD PUSH2 0xE41 JUMP JUMPDEST SWAP3 POP POP PUSH1 0x80 PUSH2 0xEC4 DUP9 DUP3 DUP10 ADD PUSH2 0xE41 JUMP JUMPDEST SWAP2 POP POP SWAP3 SWAP6 POP SWAP3 SWAP6 SWAP1 SWAP4 POP JUMP JUMPDEST PUSH1 0x0 DUP1 PUSH1 0x40 DUP4 DUP6 SUB SLT ISZERO PUSH2 0xEE8 JUMPI PUSH2 0xEE7 PUSH2 0xD66 JUMP JUMPDEST JUMPDEST PUSH1 0x0 PUSH2 0xEF6 DUP6 DUP3 DUP7 ADD PUSH2 0xDB4 JUMP JUMPDEST SWAP3 POP POP PUSH1 0x20 PUSH2 0xF07 DUP6 DUP3 DUP7 ADD PUSH2 0xE41 JUMP JUMPDEST SWAP2 POP POP SWAP3 POP SWAP3 SWAP1 POP JUMP JUMPDEST PUSH1 0x0 DUP2 SWAP1 POP SWAP2 SWAP1 POP JUMP JUMPDEST PUSH1 0x0 PUSH2 0xF36 PUSH2 0xF31 PUSH2 0xF2C DUP5 PUSH2 0xD6B JUMP JUMPDEST PUSH2 0xF11 JUMP JUMPDEST PUSH2 0xD6B JUMP JUMPDEST SWAP1 POP SWAP2 SWAP1 POP JUMP JUMPDEST PUSH1 0x0 PUSH2 0xF48 DUP3 PUSH2 0xF1B JUMP JUMPDEST SWAP1 POP SWAP2 SWAP1 POP JUMP JUMPDEST PUSH1 0x0 PUSH2 0xF5A DUP3 PUSH2 0xF3D JUMP JUMPDEST SWAP1 POP SWAP2 SWAP1 POP JUMP JUMPDEST PUSH2 0xF6A DUP2 PUSH2 0xF4F JUMP JUMPDEST DUP3 MSTORE POP POP JUMP JUMPDEST PUSH1 0x0 PUSH1 0x20 DUP3 ADD SWAP1 POP PUSH2 0xF85 PUSH1 0x0 DUP4 ADD DUP5 PUSH2 0xF61 JUMP JUMPDEST SWAP3 SWAP2 POP POP JUMP JUMPDEST PUSH2 0xF94 DUP2 PUSH2 0xD8B JUMP JUMPDEST DUP3 MSTORE POP POP JUMP JUMPDEST PUSH1 0x0 PUSH1 0x60 DUP3 ADD SWAP1 POP PUSH2 0xFAF PUSH1 0x0 DUP4 ADD DUP7 PUSH2 0xF8B JUMP JUMPDEST PUSH2 0xFBC PUSH1 0x20 DUP4 ADD DUP6 PUSH2 0xF8B JUMP JUMPDEST PUSH2 0xFC9 PUSH1 0x40 DUP4 ADD DUP5 PUSH2 0xE00 JUMP JUMPDEST SWAP5 SWAP4 POP POP POP POP JUMP JUMPDEST PUSH1 0x0 DUP2 ISZERO ISZERO SWAP1 POP SWAP2 SWAP1 POP JUMP JUMPDEST PUSH2 0xFE6 DUP2 PUSH2 0xFD1 JUMP JUMPDEST DUP2 EQ PUSH2 0xFF1 JUMPI PUSH1 0x0 DUP1 REVERT JUMPDEST POP JUMP JUMPDEST PUSH1 0x0 DUP2 MLOAD SWAP1 POP PUSH2 0x1003 DUP2 PUSH2 0xFDD JUMP JUMPDEST SWAP3 SWAP2 POP POP JUMP JUMPDEST PUSH1 0x0 PUSH1 0x20 DUP3 DUP5 SUB SLT ISZERO PUSH2 0x101F JUMPI PUSH2 0x101E PUSH2 0xD66 JUMP JUMPDEST JUMPDEST PUSH1 0x0 PUSH2 0x102D DUP5 DUP3 DUP6 ADD PUSH2 0xFF4 JUMP JUMPDEST SWAP2 POP POP SWAP3 SWAP2 POP POP JUMP JUMPDEST PUSH1 0x0 DUP3 DUP3 MSTORE PUSH1 0x20 DUP3 ADD SWAP1 POP SWAP3 SWAP2 POP POP JUMP JUMPDEST PUSH32 0x546F6B656E7320617265204C6F636B656420696E20736D61727420636F6E7472 PUSH1 0x0 DUP3 ADD MSTORE PUSH32 0x6163742000000000000000000000000000000000000000000000000000000000 PUSH1 0x20 DUP3 ADD MSTORE POP JUMP JUMPDEST PUSH1 0x0 PUSH2 0x10A3 PUSH1 0x24 DUP4 PUSH2 0x1036 JUMP JUMPDEST SWAP2 POP PUSH2 0x10AE DUP3 PUSH2 0x1047 JUMP JUMPDEST PUSH1 0x40 DUP3 ADD SWAP1 POP SWAP2 SWAP1 POP JUMP JUMPDEST PUSH1 0x0 PUSH1 0x40 DUP3 ADD SWAP1 POP PUSH2 0x10CE PUSH1 0x0 DUP4 ADD DUP5 PUSH2 0xF8B JUMP JUMPDEST DUP2 DUP2 SUB PUSH1 0x20 DUP4 ADD MSTORE PUSH2 0x10DF DUP2 PUSH2 0x1096 JUMP JUMPDEST SWAP1 POP SWAP3 SWAP2 POP POP JUMP JUMPDEST PUSH32 0x546F6B656E7320436C61696D696E67206172652067726561746572207468616E PUSH1 0x0 DUP3 ADD MSTORE PUSH32 0x20746F6B656E73206C6F636B6564000000000000000000000000000000000000 PUSH1 0x20 DUP3 ADD MSTORE POP JUMP JUMPDEST PUSH1 0x0 PUSH2 0x1143 PUSH1 0x2E DUP4 PUSH2 0x1036 JUMP JUMPDEST SWAP2 POP PUSH2 0x114E DUP3 PUSH2 0x10E7 JUMP JUMPDEST PUSH1 0x40 DUP3 ADD SWAP1 POP SWAP2 SWAP1 POP JUMP JUMPDEST PUSH1 0x0 PUSH1 0x20 DUP3 ADD SWAP1 POP DUP2 DUP2 SUB PUSH1 0x0 DUP4 ADD MSTORE PUSH2 0x1172 DUP2 PUSH2 0x1136 JUMP JUMPDEST SWAP1 POP SWAP2 SWAP1 POP JUMP JUMPDEST PUSH32 0x416C726561647920436C61696D65640000000000000000000000000000000000 PUSH1 0x0 DUP3 ADD MSTORE POP JUMP JUMPDEST PUSH1 0x0 PUSH2 0x11AF PUSH1 0xF DUP4 PUSH2 0x1036 JUMP JUMPDEST SWAP2 POP PUSH2 0x11BA DUP3 PUSH2 0x1179 JUMP JUMPDEST PUSH1 0x20 DUP3 ADD SWAP1 POP SWAP2 SWAP1 POP JUMP JUMPDEST PUSH1 0x0 PUSH1 0x20 DUP3 ADD SWAP1 POP DUP2 DUP2 SUB PUSH1 0x0 DUP4 ADD MSTORE PUSH2 0x11DE DUP2 PUSH2 0x11A2 JUMP JUMPDEST SWAP1 POP SWAP2 SWAP1 POP JUMP JUMPDEST PUSH32 0x4E487B7100000000000000000000000000000000000000000000000000000000 PUSH1 0x0 MSTORE PUSH1 0x11 PUSH1 0x4 MSTORE PUSH1 0x24 PUSH1 0x0 REVERT JUMPDEST PUSH1 0x0 PUSH2 0x121F DUP3 PUSH2 0xDF6 JUMP JUMPDEST SWAP2 POP PUSH2 0x122A DUP4 PUSH2 0xDF6 JUMP JUMPDEST SWAP3 POP DUP3 DUP3 ADD SWAP1 POP DUP1 DUP3 GT ISZERO PUSH2 0x1242 JUMPI PUSH2 0x1241 PUSH2 0x11E5 JUMP JUMPDEST JUMPDEST SWAP3 SWAP2 POP POP JUMP JUMPDEST PUSH1 0x0 PUSH1 0x40 DUP3 ADD SWAP1 POP PUSH2 0x125D PUSH1 0x0 DUP4 ADD DUP6 PUSH2 0xF8B JUMP JUMPDEST PUSH2 0x126A PUSH1 0x20 DUP4 ADD DUP5 PUSH2 0xE00 JUMP JUMPDEST SWAP4 SWAP3 POP POP POP JUMP JUMPDEST PUSH32 0x546F6B656E73206172652052656C656173656420696E206163636F756E74206F PUSH1 0x0 DUP3 ADD MSTORE PUSH32 0x662062656E656669636961727920000000000000000000000000000000000000 PUSH1 0x20 DUP3 ADD MSTORE POP JUMP JUMPDEST PUSH1 0x0 PUSH2 0x12CD PUSH1 0x2E DUP4 PUSH2 0x1036 JUMP JUMPDEST SWAP2 POP PUSH2 0x12D8 DUP3 PUSH2 0x1271 JUMP JUMPDEST PUSH1 0x40 DUP3 ADD SWAP1 POP SWAP2 SWAP1 POP JUMP JUMPDEST PUSH1 0x0 PUSH1 0x40 DUP3 ADD SWAP1 POP PUSH2 0x12F8 PUSH1 0x0 DUP4 ADD DUP5 PUSH2 0xF8B JUMP JUMPDEST DUP2 DUP2 SUB PUSH1 0x20 DUP4 ADD MSTORE PUSH2 0x1309 DUP2 PUSH2 0x12C0 JUMP JUMPDEST SWAP1 POP SWAP3 SWAP2 POP POP JUMP JUMPDEST PUSH32 0x4F6E6C792042656E6566696369617279204F72204F776E65722063616E205265 PUSH1 0x0 DUP3 ADD MSTORE PUSH32 0x6C6561736520546F6B656E730000000000000000000000000000000000000000 PUSH1 0x20 DUP3 ADD MSTORE POP JUMP JUMPDEST PUSH1 0x0 PUSH2 0x136D PUSH1 0x2C DUP4 PUSH2 0x1036 JUMP JUMPDEST SWAP2 POP PUSH2 0x1378 DUP3 PUSH2 0x1311 JUMP JUMPDEST PUSH1 0x40 DUP3 ADD SWAP1 POP SWAP2 SWAP1 POP JUMP JUMPDEST PUSH1 0x0 PUSH1 0x20 DUP3 ADD SWAP1 POP DUP2 DUP2 SUB PUSH1 0x0 DUP4 ADD MSTORE PUSH2 0x139C DUP2 PUSH2 0x1360 JUMP JUMPDEST SWAP1 POP SWAP2 SWAP1 POP JUMP JUMPDEST PUSH32 0x4E65772042656E65666963696172792041646465640000000000000000000000 PUSH1 0x0 DUP3 ADD MSTORE POP JUMP JUMPDEST PUSH1 0x0 PUSH2 0x13D9 PUSH1 0x15 DUP4 PUSH2 0x1036 JUMP JUMPDEST SWAP2 POP PUSH2 0x13E4 DUP3 PUSH2 0x13A3 JUMP JUMPDEST PUSH1 0x20 DUP3 ADD SWAP1 POP SWAP2 SWAP1 POP JUMP JUMPDEST PUSH1 0x0 PUSH1 0x40 DUP3 ADD SWAP1 POP PUSH2 0x1404 PUSH1 0x0 DUP4 ADD DUP5 PUSH2 0xF8B JUMP JUMPDEST DUP2 DUP2 SUB PUSH1 0x20 DUP4 ADD MSTORE PUSH2 0x1415 DUP2 PUSH2 0x13CC JUMP JUMPDEST SWAP1 POP SWAP3 SWAP2 POP POP JUMP JUMPDEST PUSH32 0x204F6E6C79204F776E65722063616E204164642062656E656665696369617269 PUSH1 0x0 DUP3 ADD MSTORE PUSH32 0x6573000000000000000000000000000000000000000000000000000000000000 PUSH1 0x20 DUP3 ADD MSTORE POP JUMP JUMPDEST PUSH1 0x0 PUSH2 0x1479 PUSH1 0x22 DUP4 PUSH2 0x1036 JUMP JUMPDEST SWAP2 POP PUSH2 0x1484 DUP3 PUSH2 0x141D JUMP JUMPDEST PUSH1 0x40 DUP3 ADD SWAP1 POP SWAP2 SWAP1 POP JUMP JUMPDEST PUSH1 0x0 PUSH1 0x20 DUP3 ADD SWAP1 POP DUP2 DUP2 SUB PUSH1 0x0 DUP4 ADD MSTORE PUSH2 0x14A8 DUP2 PUSH2 0x146C JUMP JUMPDEST SWAP1 POP SWAP2 SWAP1 POP JUMP JUMPDEST PUSH1 0x0 PUSH2 0x14BA DUP3 PUSH2 0xDF6 JUMP JUMPDEST SWAP2 POP PUSH2 0x14C5 DUP4 PUSH2 0xDF6 JUMP JUMPDEST SWAP3 POP DUP3 DUP3 SUB SWAP1 POP DUP2 DUP2 GT ISZERO PUSH2 0x14DD JUMPI PUSH2 0x14DC PUSH2 0x11E5 JUMP JUMPDEST JUMPDEST SWAP3 SWAP2 POP POP JUMP JUMPDEST PUSH32 0x4E487B7100000000000000000000000000000000000000000000000000000000 PUSH1 0x0 MSTORE PUSH1 0x12 PUSH1 0x4 MSTORE PUSH1 0x24 PUSH1 0x0 REVERT JUMPDEST PUSH1 0x0 PUSH2 0x151D DUP3 PUSH2 0xDF6 JUMP JUMPDEST SWAP2 POP PUSH2 0x1528 DUP4 PUSH2 0xDF6 JUMP JUMPDEST SWAP3 POP DUP3 PUSH2 0x1538 JUMPI PUSH2 0x1537 PUSH2 0x14E3 JUMP JUMPDEST JUMPDEST DUP3 DUP3 DIV SWAP1 POP SWAP3 SWAP2 POP POP JUMP JUMPDEST PUSH1 0x0 PUSH2 0x154E DUP3 PUSH2 0xDF6 JUMP JUMPDEST SWAP2 POP PUSH2 0x1559 DUP4 PUSH2 0xDF6 JUMP JUMPDEST SWAP3 POP DUP3 DUP3 MUL PUSH2 0x1567 DUP2 PUSH2 0xDF6 JUMP JUMPDEST SWAP2 POP DUP3 DUP3 DIV DUP5 EQ DUP4 ISZERO OR PUSH2 0x157E JUMPI PUSH2 0x157D PUSH2 0x11E5 JUMP JUMPDEST JUMPDEST POP SWAP3 SWAP2 POP POP JUMP JUMPDEST PUSH32 0x576169742054696C6C20436C69666620706572696F6400000000000000000000 PUSH1 0x0 DUP3 ADD MSTORE POP JUMP JUMPDEST PUSH1 0x0 PUSH2 0x15BB PUSH1 0x16 DUP4 PUSH2 0x1036 JUMP JUMPDEST SWAP2 POP PUSH2 0x15C6 DUP3 PUSH2 0x1585 JUMP JUMPDEST PUSH1 0x20 DUP3 ADD SWAP1 POP SWAP2 SWAP1 POP JUMP JUMPDEST PUSH1 0x0 PUSH1 0x20 DUP3 ADD SWAP1 POP DUP2 DUP2 SUB PUSH1 0x0 DUP4 ADD MSTORE PUSH2 0x15EA DUP2 PUSH2 0x15AE JUMP JUMPDEST SWAP1 POP SWAP2 SWAP1 POP JUMP INVALID LOG2 PUSH5 0x6970667358 0x22 SLT KECCAK256 KECCAK256 ADDRESS NUMBER 0xDF RETURN 0xC7 DUP10 0xEF COINBASE DUP13 0xFC 0x24 JUMPI 0xC3 PUSH15 0x74017EE9A7575F5D4634A193FBB1BB 0xF7 PUSH31 0x64736F6C634300081200330000000000000000000000000000000000000000 "
				},
				"gasEstimates": {
					"creation": {
						"codeDepositCost": "1134200",
						"executionCost": "infinite",
						"totalCost": "infinite"
					},
					"external": {
						"addBeneficiary(address,uint256)": "infinite",
						"beneficiaries(address)": "2815",
						"cliff(address)": "2902",
						"duration(address)": "2836",
						"lockTokens(address,uint256,uint256,uint256,uint256)": "infinite",
						"releasableTokens(address)": "infinite",
						"releaseTokens(address)": "infinite",
						"releasedTokens(address)": "2903",
						"slicePeriod(address)": "2859",
						"startTime(address)": "2881",
						"token()": "infinite",
						"totalTokens(address)": "2880"
					}
				},
				"methodIdentifiers": {
					"addBeneficiary(address,uint256)": "96074e70",
					"beneficiaries(address)": "01567739",
					"cliff(address)": "cdce101b",
					"duration(address)": "b36760a3",
					"lockTokens(address,uint256,uint256,uint256,uint256)": "3ce301e5",
					"releasableTokens(address)": "c4684e9d",
					"releaseTokens(address)": "87b0be48",
					"releasedTokens(address)": "70ff852b",
					"slicePeriod(address)": "506f36ec",
					"startTime(address)": "6e1dc66e",
					"token()": "fc0c546a",
					"totalTokens(address)": "cb9199a2"
				}
			},
			"storageLayout": {
				"storage": [
					{
						"astId": 84,
						"contract": "contracts/TokenVesting.sol:TokenVesting",
						"label": "duration",
						"offset": 0,
						"slot": "0",
						"type": "t_mapping(t_address,t_uint256)"
					},
					{
						"astId": 88,
						"contract": "contracts/TokenVesting.sol:TokenVesting",
						"label": "cliff",
						"offset": 0,
						"slot": "1",
						"type": "t_mapping(t_address,t_uint256)"
					},
					{
						"astId": 92,
						"contract": "contracts/TokenVesting.sol:TokenVesting",
						"label": "slicePeriod",
						"offset": 0,
						"slot": "2",
						"type": "t_mapping(t_address,t_uint256)"
					},
					{
						"astId": 96,
						"contract": "contracts/TokenVesting.sol:TokenVesting",
						"label": "startTime",
						"offset": 0,
						"slot": "3",
						"type": "t_mapping(t_address,t_uint256)"
					},
					{
						"astId": 100,
						"contract": "contracts/TokenVesting.sol:TokenVesting",
						"label": "beneficiaries",
						"offset": 0,
						"slot": "4",
						"type": "t_mapping(t_address,t_uint256)"
					},
					{
						"astId": 104,
						"contract": "contracts/TokenVesting.sol:TokenVesting",
						"label": "totalTokens",
						"offset": 0,
						"slot": "5",
						"type": "t_mapping(t_address,t_uint256)"
					},
					{
						"astId": 108,
						"contract": "contracts/TokenVesting.sol:TokenVesting",
						"label": "releasedTokens",
						"offset": 0,
						"slot": "6",
						"type": "t_mapping(t_address,t_uint256)"
					},
					{
						"astId": 110,
						"contract": "contracts/TokenVesting.sol:TokenVesting",
						"label": "owner",
						"offset": 0,
						"slot": "7",
						"type": "t_address"
					},
					{
						"astId": 113,
						"contract": "contracts/TokenVesting.sol:TokenVesting",
						"label": "token",
						"offset": 0,
						"slot": "8",
						"type": "t_contract(IERC20)77"
					}
				],
				"types": {
					"t_address": {
						"encoding": "inplace",
						"label": "address",
						"numberOfBytes": "20"
					},
					"t_contract(IERC20)77": {
						"encoding": "inplace",
						"label": "contract IERC20",
						"numberOfBytes": "20"
					},
					"t_mapping(t_address,t_uint256)": {
						"encoding": "mapping",
						"key": "t_address",
						"label": "mapping(address => uint256)",
						"numberOfBytes": "32",
						"value": "t_uint256"
					},
					"t_uint256": {
						"encoding": "inplace",
						"label": "uint256",
						"numberOfBytes": "32"
					}
				}
			},
			"userdoc": {
				"kind": "user",
				"methods": {},
				"version": 1
			}
		}
	}
}